{
	"contracts/Hometask.sol": {
		"DormitoryQuest": {
			"abi": [
				{
					"inputs": [],
					"stateMutability": "nonpayable",
					"type": "constructor"
				},
				{
					"anonymous": false,
					"inputs": [
						{
							"indexed": false,
							"internalType": "uint256",
							"name": "id",
							"type": "uint256"
						},
						{
							"indexed": false,
							"internalType": "string",
							"name": "name",
							"type": "string"
						},
						{
							"indexed": false,
							"internalType": "uint256",
							"name": "regDate",
							"type": "uint256"
						}
					],
					"name": "StudentAdded",
					"type": "event"
				},
				{
					"anonymous": false,
					"inputs": [
						{
							"indexed": false,
							"internalType": "string",
							"name": "name",
							"type": "string"
						},
						{
							"indexed": false,
							"internalType": "uint256",
							"name": "date",
							"type": "uint256"
						}
					],
					"name": "StudentEvicted",
					"type": "event"
				},
				{
					"anonymous": false,
					"inputs": [
						{
							"indexed": false,
							"internalType": "string",
							"name": "name",
							"type": "string"
						}
					],
					"name": "SummonsToArmyGiven",
					"type": "event"
				},
				{
					"inputs": [
						{
							"internalType": "address",
							"name": "_to",
							"type": "address"
						},
						{
							"internalType": "string",
							"name": "_name",
							"type": "string"
						},
						{
							"internalType": "bool",
							"name": "_sheetsDone",
							"type": "bool"
						},
						{
							"internalType": "bool",
							"name": "_roomDone",
							"type": "bool"
						},
						{
							"internalType": "bool",
							"name": "_booksDone",
							"type": "bool"
						}
					],
					"name": "addStudent",
					"outputs": [],
					"stateMutability": "nonpayable",
					"type": "function"
				},
				{
					"inputs": [
						{
							"internalType": "uint256",
							"name": "id",
							"type": "uint256"
						}
					],
					"name": "debtsAreDone",
					"outputs": [],
					"stateMutability": "nonpayable",
					"type": "function"
				}
			],
			"devdoc": {
				"kind": "dev",
				"methods": {},
				"version": 1
			},
			"evm": {
				"assembly": "    /* \"contracts/Hometask.sol\":62:2188  contract DormitoryQuest {\r... */\n  mstore(0x40, 0x80)\n    /* \"contracts/Hometask.sol\":539:590  constructor() {\r... */\n  callvalue\n  dup1\n  iszero\n  tag_1\n  jumpi\n  0x00\n  dup1\n  revert\ntag_1:\n  pop\n    /* \"contracts/Hometask.sol\":572:582  msg.sender */\n  caller\n    /* \"contracts/Hometask.sol\":564:569  owner */\n  0x00\n  dup1\n    /* \"contracts/Hometask.sol\":564:582  owner = msg.sender */\n  0x0100\n  exp\n  dup2\n  sload\n  dup2\n  0xffffffffffffffffffffffffffffffffffffffff\n  mul\n  not\n  and\n  swap1\n  dup4\n  0xffffffffffffffffffffffffffffffffffffffff\n  and\n  mul\n  or\n  swap1\n  sstore\n  pop\n    /* \"contracts/Hometask.sol\":62:2188  contract DormitoryQuest {\r... */\n  dataSize(sub_0)\n  dup1\n  dataOffset(sub_0)\n  0x00\n  codecopy\n  0x00\n  return\nstop\n\nsub_0: assembly {\n        /* \"contracts/Hometask.sol\":62:2188  contract DormitoryQuest {\r... */\n      mstore(0x40, 0x80)\n      callvalue\n      dup1\n      iszero\n      tag_1\n      jumpi\n      0x00\n      dup1\n      revert\n    tag_1:\n      pop\n      jumpi(tag_2, lt(calldatasize, 0x04))\n      shr(0xe0, calldataload(0x00))\n      dup1\n      0x3d5c83d4\n      eq\n      tag_3\n      jumpi\n      dup1\n      0x88da06f9\n      eq\n      tag_4\n      jumpi\n    tag_2:\n      0x00\n      dup1\n      revert\n        /* \"contracts/Hometask.sol\":1460:2185  function debtsAreDone(uint id) public {\r... */\n    tag_3:\n      tag_5\n      0x04\n      dup1\n      calldatasize\n      sub\n      dup2\n      add\n      swap1\n      tag_6\n      swap2\n      swap1\n      tag_7\n      jump\t// in\n    tag_6:\n      tag_8\n      jump\t// in\n    tag_5:\n      stop\n        /* \"contracts/Hometask.sol\":782:1452  function addStudent(address _to, string calldata _name, bool _sheetsDone, bool _roomDone, bool _booksDone) public OwnerOnly(_to) {\r... */\n    tag_4:\n      tag_9\n      0x04\n      dup1\n      calldatasize\n      sub\n      dup2\n      add\n      swap1\n      tag_10\n      swap2\n      swap1\n      tag_11\n      jump\t// in\n    tag_10:\n      tag_12\n      jump\t// in\n    tag_9:\n      stop\n        /* \"contracts/Hometask.sol\":1460:2185  function debtsAreDone(uint id) public {\r... */\n    tag_8:\n        /* \"contracts/Hometask.sol\":1522:1523  0 */\n      0x00\n        /* \"contracts/Hometask.sol\":1517:1519  id */\n      dup2\n        /* \"contracts/Hometask.sol\":1517:1523  id > 0 */\n      gt\n        /* \"contracts/Hometask.sol\":1509:1541  require(id > 0, \"Incorrect id.\") */\n      tag_14\n      jumpi\n      mload(0x40)\n      0x08c379a000000000000000000000000000000000000000000000000000000000\n      dup2\n      mstore\n      0x04\n      add\n      tag_15\n      swap1\n      tag_16\n      jump\t// in\n    tag_15:\n      mload(0x40)\n      dup1\n      swap2\n      sub\n      swap1\n      revert\n    tag_14:\n        /* \"contracts/Hometask.sol\":1562:1586  Student storage _student */\n      0x00\n        /* \"contracts/Hometask.sol\":1589:1597  students */\n      0x01\n        /* \"contracts/Hometask.sol\":1598:1600  id */\n      dup3\n        /* \"contracts/Hometask.sol\":1589:1601  students[id] */\n      dup2\n      sload\n      dup2\n      lt\n      tag_17\n      jumpi\n      tag_18\n      tag_19\n      jump\t// in\n    tag_18:\n    tag_17:\n      swap1\n      0x00\n      mstore\n      keccak256(0x00, 0x20)\n      swap1\n      0x05\n      mul\n      add\n        /* \"contracts/Hometask.sol\":1562:1601  Student storage _student = students[id] */\n      swap1\n      pop\n        /* \"contracts/Hometask.sol\":1639:1644  false */\n      0x00\n        /* \"contracts/Hometask.sol\":1616:1644  _student.sheetsDone == false */\n      iszero\n      iszero\n        /* \"contracts/Hometask.sol\":1616:1624  _student */\n      dup2\n        /* \"contracts/Hometask.sol\":1616:1635  _student.sheetsDone */\n      0x02\n      add\n      0x00\n      swap1\n      sload\n      swap1\n      0x0100\n      exp\n      swap1\n      div\n      0xff\n      and\n        /* \"contracts/Hometask.sol\":1616:1644  _student.sheetsDone == false */\n      iszero\n      iszero\n      eq\n        /* \"contracts/Hometask.sol\":1612:1724  if (_student.sheetsDone == false)\r... */\n      iszero\n      tag_21\n      jumpi\n        /* \"contracts/Hometask.sol\":1675:1712  SummonsToArmyGiven(_student.fullName) */\n      0xd53ecb21746e36da81ddab5bdcf35c93b4e7adb500e38a0ce440f729de177ac5\n        /* \"contracts/Hometask.sol\":1694:1702  _student */\n      dup2\n        /* \"contracts/Hometask.sol\":1694:1711  _student.fullName */\n      0x01\n      add\n        /* \"contracts/Hometask.sol\":1675:1712  SummonsToArmyGiven(_student.fullName) */\n      mload(0x40)\n      tag_22\n      swap2\n      swap1\n      tag_23\n      jump\t// in\n    tag_22:\n      mload(0x40)\n      dup1\n      swap2\n      sub\n      swap1\n      log1\n        /* \"contracts/Hometask.sol\":1612:1724  if (_student.sheetsDone == false)\r... */\n    tag_21:\n        /* \"contracts/Hometask.sol\":1761:1766  false */\n      0x00\n        /* \"contracts/Hometask.sol\":1740:1766  _student.roomDone == false */\n      iszero\n      iszero\n        /* \"contracts/Hometask.sol\":1740:1748  _student */\n      dup2\n        /* \"contracts/Hometask.sol\":1740:1757  _student.roomDone */\n      0x02\n      add\n      0x01\n      swap1\n      sload\n      swap1\n      0x0100\n      exp\n      swap1\n      div\n      0xff\n      and\n        /* \"contracts/Hometask.sol\":1740:1766  _student.roomDone == false */\n      iszero\n      iszero\n      eq\n        /* \"contracts/Hometask.sol\":1736:1846  if (_student.roomDone == false)\r... */\n      iszero\n      tag_24\n      jumpi\n        /* \"contracts/Hometask.sol\":1797:1834  SummonsToArmyGiven(_student.fullName) */\n      0xd53ecb21746e36da81ddab5bdcf35c93b4e7adb500e38a0ce440f729de177ac5\n        /* \"contracts/Hometask.sol\":1816:1824  _student */\n      dup2\n        /* \"contracts/Hometask.sol\":1816:1833  _student.fullName */\n      0x01\n      add\n        /* \"contracts/Hometask.sol\":1797:1834  SummonsToArmyGiven(_student.fullName) */\n      mload(0x40)\n      tag_25\n      swap2\n      swap1\n      tag_23\n      jump\t// in\n    tag_25:\n      mload(0x40)\n      dup1\n      swap2\n      sub\n      swap1\n      log1\n        /* \"contracts/Hometask.sol\":1736:1846  if (_student.roomDone == false)\r... */\n    tag_24:\n        /* \"contracts/Hometask.sol\":1884:1889  false */\n      0x00\n        /* \"contracts/Hometask.sol\":1862:1889  _student.booksDone == false */\n      iszero\n      iszero\n        /* \"contracts/Hometask.sol\":1862:1870  _student */\n      dup2\n        /* \"contracts/Hometask.sol\":1862:1880  _student.booksDone */\n      0x02\n      add\n      0x02\n      swap1\n      sload\n      swap1\n      0x0100\n      exp\n      swap1\n      div\n      0xff\n      and\n        /* \"contracts/Hometask.sol\":1862:1889  _student.booksDone == false */\n      iszero\n      iszero\n      eq\n        /* \"contracts/Hometask.sol\":1858:1969  if (_student.booksDone == false)\r... */\n      iszero\n      tag_26\n      jumpi\n        /* \"contracts/Hometask.sol\":1920:1957  SummonsToArmyGiven(_student.fullName) */\n      0xd53ecb21746e36da81ddab5bdcf35c93b4e7adb500e38a0ce440f729de177ac5\n        /* \"contracts/Hometask.sol\":1939:1947  _student */\n      dup2\n        /* \"contracts/Hometask.sol\":1939:1956  _student.fullName */\n      0x01\n      add\n        /* \"contracts/Hometask.sol\":1920:1957  SummonsToArmyGiven(_student.fullName) */\n      mload(0x40)\n      tag_27\n      swap2\n      swap1\n      tag_23\n      jump\t// in\n    tag_27:\n      mload(0x40)\n      dup1\n      swap2\n      sub\n      swap1\n      log1\n        /* \"contracts/Hometask.sol\":1858:1969  if (_student.booksDone == false)\r... */\n    tag_26:\n        /* \"contracts/Hometask.sol\":2015:2030  block.timestamp */\n      timestamp\n        /* \"contracts/Hometask.sol\":118:124  3 days */\n      0x03f480\n        /* \"contracts/Hometask.sol\":1985:1993  _student */\n      dup3\n        /* \"contracts/Hometask.sol\":1985:2001  _student.regDate */\n      0x03\n      add\n      sload\n        /* \"contracts/Hometask.sol\":1985:2012  _student.regDate + DURATION */\n      tag_28\n      swap2\n      swap1\n      tag_29\n      jump\t// in\n    tag_28:\n        /* \"contracts/Hometask.sol\":1985:2030  _student.regDate + DURATION > block.timestamp */\n      gt\n        /* \"contracts/Hometask.sol\":1981:2110  if (_student.regDate + DURATION > block.timestamp)\r... */\n      iszero\n      tag_30\n      jumpi\n        /* \"contracts/Hometask.sol\":2061:2098  SummonsToArmyGiven(_student.fullName) */\n      0xd53ecb21746e36da81ddab5bdcf35c93b4e7adb500e38a0ce440f729de177ac5\n        /* \"contracts/Hometask.sol\":2080:2088  _student */\n      dup2\n        /* \"contracts/Hometask.sol\":2080:2097  _student.fullName */\n      0x01\n      add\n        /* \"contracts/Hometask.sol\":2061:2098  SummonsToArmyGiven(_student.fullName) */\n      mload(0x40)\n      tag_31\n      swap2\n      swap1\n      tag_23\n      jump\t// in\n    tag_31:\n      mload(0x40)\n      dup1\n      swap2\n      sub\n      swap1\n      log1\n        /* \"contracts/Hometask.sol\":1981:2110  if (_student.regDate + DURATION > block.timestamp)\r... */\n    tag_30:\n        /* \"contracts/Hometask.sol\":2127:2177  StudentEvicted(_student.fullName, block.timestamp) */\n      0x6fd4822621c89040f0ea90264351e7f95d334eb76155286b2c1b6732331ff93c\n        /* \"contracts/Hometask.sol\":2142:2150  _student */\n      dup2\n        /* \"contracts/Hometask.sol\":2142:2159  _student.fullName */\n      0x01\n      add\n        /* \"contracts/Hometask.sol\":2161:2176  block.timestamp */\n      timestamp\n        /* \"contracts/Hometask.sol\":2127:2177  StudentEvicted(_student.fullName, block.timestamp) */\n      mload(0x40)\n      tag_32\n      swap3\n      swap2\n      swap1\n      tag_33\n      jump\t// in\n    tag_32:\n      mload(0x40)\n      dup1\n      swap2\n      sub\n      swap1\n      log1\n        /* \"contracts/Hometask.sol\":1498:2185  {\r... */\n      pop\n        /* \"contracts/Hometask.sol\":1460:2185  function debtsAreDone(uint id) public {\r... */\n      pop\n      jump\t// out\n        /* \"contracts/Hometask.sol\":782:1452  function addStudent(address _to, string calldata _name, bool _sheetsDone, bool _roomDone, bool _booksDone) public OwnerOnly(_to) {\r... */\n    tag_12:\n        /* \"contracts/Hometask.sol\":906:909  _to */\n      dup6\n        /* \"contracts/Hometask.sol\":663:668  owner */\n      0x00\n      dup1\n      sload\n      swap1\n      0x0100\n      exp\n      swap1\n      div\n      0xffffffffffffffffffffffffffffffffffffffff\n      and\n        /* \"contracts/Hometask.sol\":649:668  msg.sender == owner */\n      0xffffffffffffffffffffffffffffffffffffffff\n      and\n        /* \"contracts/Hometask.sol\":649:659  msg.sender */\n      caller\n        /* \"contracts/Hometask.sol\":649:668  msg.sender == owner */\n      0xffffffffffffffffffffffffffffffffffffffff\n      and\n      eq\n        /* \"contracts/Hometask.sol\":641:695  require(msg.sender == owner, \"You are not the owner.\") */\n      tag_35\n      jumpi\n      mload(0x40)\n      0x08c379a000000000000000000000000000000000000000000000000000000000\n      dup2\n      mstore\n      0x04\n      add\n      tag_36\n      swap1\n      tag_37\n      jump\t// in\n    tag_36:\n      mload(0x40)\n      dup1\n      swap2\n      sub\n      swap1\n      revert\n    tag_35:\n        /* \"contracts/Hometask.sol\":729:730  0 */\n      0x00\n        /* \"contracts/Hometask.sol\":714:731  _to != address(0) */\n      0xffffffffffffffffffffffffffffffffffffffff\n      and\n        /* \"contracts/Hometask.sol\":714:717  _to */\n      dup2\n        /* \"contracts/Hometask.sol\":714:731  _to != address(0) */\n      0xffffffffffffffffffffffffffffffffffffffff\n      and\n      eq\n      iszero\n        /* \"contracts/Hometask.sol\":706:754  require(_to != address(0), \"Incorrect address!\") */\n      tag_38\n      jumpi\n      mload(0x40)\n      0x08c379a000000000000000000000000000000000000000000000000000000000\n      dup2\n      mstore\n      0x04\n      add\n      tag_39\n      swap1\n      tag_40\n      jump\t// in\n    tag_39:\n      mload(0x40)\n      dup1\n      swap2\n      sub\n      swap1\n      revert\n    tag_38:\n        /* \"contracts/Hometask.sol\":922:936  uint currentId */\n      0x00\n        /* \"contracts/Hometask.sol\":958:959  0 */\n      dup1\n        /* \"contracts/Hometask.sol\":939:947  students */\n      0x01\n        /* \"contracts/Hometask.sol\":939:954  students.length */\n      dup1\n      sload\n      swap1\n      pop\n        /* \"contracts/Hometask.sol\":939:959  students.length == 0 */\n      eq\n        /* \"contracts/Hometask.sol\":939:999  students.length == 0 ? students.length : students.length - 1 */\n      tag_42\n      jumpi\n        /* \"contracts/Hometask.sol\":998:999  1 */\n      0x01\n        /* \"contracts/Hometask.sol\":980:988  students */\n      dup1\n        /* \"contracts/Hometask.sol\":980:995  students.length */\n      dup1\n      sload\n      swap1\n      pop\n        /* \"contracts/Hometask.sol\":980:999  students.length - 1 */\n      tag_43\n      swap2\n      swap1\n      tag_44\n      jump\t// in\n    tag_43:\n        /* \"contracts/Hometask.sol\":939:999  students.length == 0 ? students.length : students.length - 1 */\n      jump(tag_45)\n    tag_42:\n        /* \"contracts/Hometask.sol\":962:970  students */\n      0x01\n        /* \"contracts/Hometask.sol\":962:977  students.length */\n      dup1\n      sload\n      swap1\n      pop\n        /* \"contracts/Hometask.sol\":939:999  students.length == 0 ? students.length : students.length - 1 */\n    tag_45:\n        /* \"contracts/Hometask.sol\":922:999  uint currentId = students.length == 0 ? students.length : students.length - 1 */\n      swap1\n      pop\n        /* \"contracts/Hometask.sol\":1012:1037  Student memory newStudent */\n      0x00\n        /* \"contracts/Hometask.sol\":1040:1320  Student({\r... */\n      mload(0x40)\n      dup1\n      0xe0\n      add\n      0x40\n      mstore\n      dup1\n        /* \"contracts/Hometask.sol\":1067:1076  currentId */\n      dup4\n        /* \"contracts/Hometask.sol\":1040:1320  Student({\r... */\n      dup2\n      mstore\n      0x20\n      add\n        /* \"contracts/Hometask.sol\":1101:1106  _name */\n      dup10\n      dup10\n        /* \"contracts/Hometask.sol\":1040:1320  Student({\r... */\n      dup1\n      dup1\n      0x1f\n      add\n      0x20\n      dup1\n      swap2\n      div\n      mul\n      0x20\n      add\n      mload(0x40)\n      swap1\n      dup2\n      add\n      0x40\n      mstore\n      dup1\n      swap4\n      swap3\n      swap2\n      swap1\n      dup2\n      dup2\n      mstore\n      0x20\n      add\n      dup4\n      dup4\n      dup1\n      dup3\n      dup5\n      calldatacopy\n      0x00\n      dup2\n      dup5\n      add\n      mstore\n      not(0x1f)\n      0x1f\n      dup3\n      add\n      and\n      swap1\n      pop\n      dup1\n      dup4\n      add\n      swap3\n      pop\n      pop\n      pop\n      pop\n      pop\n      pop\n      pop\n      dup2\n      mstore\n      0x20\n      add\n        /* \"contracts/Hometask.sol\":1133:1144  _sheetsDone */\n      dup8\n        /* \"contracts/Hometask.sol\":1040:1320  Student({\r... */\n      iszero\n      iszero\n      dup2\n      mstore\n      0x20\n      add\n        /* \"contracts/Hometask.sol\":1169:1178  _roomDone */\n      dup7\n        /* \"contracts/Hometask.sol\":1040:1320  Student({\r... */\n      iszero\n      iszero\n      dup2\n      mstore\n      0x20\n      add\n        /* \"contracts/Hometask.sol\":1204:1214  _booksDone */\n      dup6\n        /* \"contracts/Hometask.sol\":1040:1320  Student({\r... */\n      iszero\n      iszero\n      dup2\n      mstore\n      0x20\n      add\n        /* \"contracts/Hometask.sol\":1238:1253  block.timestamp */\n      timestamp\n        /* \"contracts/Hometask.sol\":1040:1320  Student({\r... */\n      dup2\n      mstore\n      0x20\n      add\n        /* \"contracts/Hometask.sol\":118:124  3 days */\n      0x03f480\n        /* \"contracts/Hometask.sol\":1282:1297  block.timestamp */\n      timestamp\n        /* \"contracts/Hometask.sol\":1282:1308  block.timestamp + DURATION */\n      tag_46\n      swap2\n      swap1\n      tag_29\n      jump\t// in\n    tag_46:\n        /* \"contracts/Hometask.sol\":1040:1320  Student({\r... */\n      dup2\n      mstore\n      pop\n        /* \"contracts/Hometask.sol\":1012:1320  Student memory newStudent = Student({\r... */\n      swap1\n      pop\n        /* \"contracts/Hometask.sol\":1333:1341  students */\n      0x01\n        /* \"contracts/Hometask.sol\":1347:1357  newStudent */\n      dup2\n        /* \"contracts/Hometask.sol\":1333:1358  students.push(newStudent) */\n      swap1\n      dup1\n      0x01\n      dup2\n      sload\n      add\n      dup1\n      dup3\n      sstore\n      dup1\n      swap2\n      pop\n      pop\n      0x01\n      swap1\n      sub\n      swap1\n      0x00\n      mstore\n      keccak256(0x00, 0x20)\n      swap1\n      0x05\n      mul\n      add\n      0x00\n      swap1\n      swap2\n      swap1\n      swap2\n      swap1\n      swap2\n      pop\n      0x00\n      dup3\n      add\n      mload\n      dup2\n      0x00\n      add\n      sstore\n      0x20\n      dup3\n      add\n      mload\n      dup2\n      0x01\n      add\n      swap1\n      dup1\n      mload\n      swap1\n      0x20\n      add\n      swap1\n      tag_48\n      swap3\n      swap2\n      swap1\n      tag_49\n      jump\t// in\n    tag_48:\n      pop\n      0x40\n      dup3\n      add\n      mload\n      dup2\n      0x02\n      add\n      exp(0x0100, 0x00)\n      dup2\n      sload\n      dup2\n      0xff\n      mul\n      not\n      and\n      swap1\n      dup4\n      iszero\n      iszero\n      mul\n      or\n      swap1\n      sstore\n      pop\n      0x60\n      dup3\n      add\n      mload\n      dup2\n      0x02\n      add\n      exp(0x0100, 0x01)\n      dup2\n      sload\n      dup2\n      0xff\n      mul\n      not\n      and\n      swap1\n      dup4\n      iszero\n      iszero\n      mul\n      or\n      swap1\n      sstore\n      pop\n      0x80\n      dup3\n      add\n      mload\n      dup2\n      0x02\n      add\n      exp(0x0100, 0x02)\n      dup2\n      sload\n      dup2\n      0xff\n      mul\n      not\n      and\n      swap1\n      dup4\n      iszero\n      iszero\n      mul\n      or\n      swap1\n      sstore\n      pop\n      0xa0\n      dup3\n      add\n      mload\n      dup2\n      0x03\n      add\n      sstore\n      0xc0\n      dup3\n      add\n      mload\n      dup2\n      0x04\n      add\n      sstore\n      pop\n      pop\n        /* \"contracts/Hometask.sol\":1376:1444  StudentAdded(newStudent.id, newStudent.fullName, newStudent.regDate) */\n      0xfafb7311fc57ca8a55073f63725e888b4250c799d77ae873970d65ac08c5917a\n        /* \"contracts/Hometask.sol\":1389:1399  newStudent */\n      dup2\n        /* \"contracts/Hometask.sol\":1389:1402  newStudent.id */\n      0x00\n      add\n      mload\n        /* \"contracts/Hometask.sol\":1404:1414  newStudent */\n      dup3\n        /* \"contracts/Hometask.sol\":1404:1423  newStudent.fullName */\n      0x20\n      add\n      mload\n        /* \"contracts/Hometask.sol\":1425:1435  newStudent */\n      dup4\n        /* \"contracts/Hometask.sol\":1425:1443  newStudent.regDate */\n      0xa0\n      add\n      mload\n        /* \"contracts/Hometask.sol\":1376:1444  StudentAdded(newStudent.id, newStudent.fullName, newStudent.regDate) */\n      mload(0x40)\n      tag_50\n      swap4\n      swap3\n      swap2\n      swap1\n      tag_51\n      jump\t// in\n    tag_50:\n      mload(0x40)\n      dup1\n      swap2\n      sub\n      swap1\n      log1\n        /* \"contracts/Hometask.sol\":911:1452  {\r... */\n      pop\n      pop\n        /* \"contracts/Hometask.sol\":782:1452  function addStudent(address _to, string calldata _name, bool _sheetsDone, bool _roomDone, bool _booksDone) public OwnerOnly(_to) {\r... */\n      pop\n      pop\n      pop\n      pop\n      pop\n      pop\n      pop\n      jump\t// out\n    tag_49:\n      dup3\n      dup1\n      sload\n      tag_52\n      swap1\n      tag_53\n      jump\t// in\n    tag_52:\n      swap1\n      0x00\n      mstore\n      keccak256(0x00, 0x20)\n      swap1\n      0x1f\n      add\n      0x20\n      swap1\n      div\n      dup2\n      add\n      swap3\n      dup3\n      tag_55\n      jumpi\n      0x00\n      dup6\n      sstore\n      jump(tag_54)\n    tag_55:\n      dup3\n      0x1f\n      lt\n      tag_56\n      jumpi\n      dup1\n      mload\n      not(0xff)\n      and\n      dup4\n      dup1\n      add\n      or\n      dup6\n      sstore\n      jump(tag_54)\n    tag_56:\n      dup3\n      dup1\n      add\n      0x01\n      add\n      dup6\n      sstore\n      dup3\n      iszero\n      tag_54\n      jumpi\n      swap2\n      dup3\n      add\n    tag_57:\n      dup3\n      dup2\n      gt\n      iszero\n      tag_58\n      jumpi\n      dup3\n      mload\n      dup3\n      sstore\n      swap2\n      0x20\n      add\n      swap2\n      swap1\n      0x01\n      add\n      swap1\n      jump(tag_57)\n    tag_58:\n    tag_54:\n      pop\n      swap1\n      pop\n      tag_59\n      swap2\n      swap1\n      tag_60\n      jump\t// in\n    tag_59:\n      pop\n      swap1\n      jump\t// out\n    tag_60:\n    tag_61:\n      dup1\n      dup3\n      gt\n      iszero\n      tag_62\n      jumpi\n      0x00\n      dup2\n      0x00\n      swap1\n      sstore\n      pop\n      0x01\n      add\n      jump(tag_61)\n    tag_62:\n      pop\n      swap1\n      jump\t// out\n        /* \"#utility.yul\":7:146   */\n    tag_64:\n        /* \"#utility.yul\":53:58   */\n      0x00\n        /* \"#utility.yul\":91:97   */\n      dup2\n        /* \"#utility.yul\":78:98   */\n      calldataload\n        /* \"#utility.yul\":69:98   */\n      swap1\n      pop\n        /* \"#utility.yul\":107:140   */\n      tag_66\n        /* \"#utility.yul\":134:139   */\n      dup2\n        /* \"#utility.yul\":107:140   */\n      tag_67\n      jump\t// in\n    tag_66:\n        /* \"#utility.yul\":7:146   */\n      swap3\n      swap2\n      pop\n      pop\n      jump\t// out\n        /* \"#utility.yul\":152:285   */\n    tag_68:\n        /* \"#utility.yul\":195:200   */\n      0x00\n        /* \"#utility.yul\":233:239   */\n      dup2\n        /* \"#utility.yul\":220:240   */\n      calldataload\n        /* \"#utility.yul\":211:240   */\n      swap1\n      pop\n        /* \"#utility.yul\":249:279   */\n      tag_70\n        /* \"#utility.yul\":273:278   */\n      dup2\n        /* \"#utility.yul\":249:279   */\n      tag_71\n      jump\t// in\n    tag_70:\n        /* \"#utility.yul\":152:285   */\n      swap3\n      swap2\n      pop\n      pop\n      jump\t// out\n        /* \"#utility.yul\":305:858   */\n    tag_72:\n        /* \"#utility.yul\":363:371   */\n      0x00\n        /* \"#utility.yul\":373:379   */\n      dup1\n        /* \"#utility.yul\":423:426   */\n      dup4\n        /* \"#utility.yul\":416:420   */\n      0x1f\n        /* \"#utility.yul\":408:414   */\n      dup5\n        /* \"#utility.yul\":404:421   */\n      add\n        /* \"#utility.yul\":400:427   */\n      slt\n        /* \"#utility.yul\":390:512   */\n      tag_74\n      jumpi\n        /* \"#utility.yul\":431:510   */\n      tag_75\n      tag_76\n      jump\t// in\n    tag_75:\n        /* \"#utility.yul\":390:512   */\n    tag_74:\n        /* \"#utility.yul\":544:550   */\n      dup3\n        /* \"#utility.yul\":531:551   */\n      calldataload\n        /* \"#utility.yul\":521:551   */\n      swap1\n      pop\n        /* \"#utility.yul\":574:592   */\n      0xffffffffffffffff\n        /* \"#utility.yul\":566:572   */\n      dup2\n        /* \"#utility.yul\":563:593   */\n      gt\n        /* \"#utility.yul\":560:677   */\n      iszero\n      tag_77\n      jumpi\n        /* \"#utility.yul\":596:675   */\n      tag_78\n      tag_79\n      jump\t// in\n    tag_78:\n        /* \"#utility.yul\":560:677   */\n    tag_77:\n        /* \"#utility.yul\":710:714   */\n      0x20\n        /* \"#utility.yul\":702:708   */\n      dup4\n        /* \"#utility.yul\":698:715   */\n      add\n        /* \"#utility.yul\":686:715   */\n      swap2\n      pop\n        /* \"#utility.yul\":764:767   */\n      dup4\n        /* \"#utility.yul\":756:760   */\n      0x01\n        /* \"#utility.yul\":748:754   */\n      dup3\n        /* \"#utility.yul\":744:761   */\n      mul\n        /* \"#utility.yul\":734:742   */\n      dup4\n        /* \"#utility.yul\":730:762   */\n      add\n        /* \"#utility.yul\":727:768   */\n      gt\n        /* \"#utility.yul\":724:852   */\n      iszero\n      tag_80\n      jumpi\n        /* \"#utility.yul\":771:850   */\n      tag_81\n      tag_82\n      jump\t// in\n    tag_81:\n        /* \"#utility.yul\":724:852   */\n    tag_80:\n        /* \"#utility.yul\":305:858   */\n      swap3\n      pop\n      swap3\n      swap1\n      pop\n      jump\t// out\n        /* \"#utility.yul\":864:1003   */\n    tag_83:\n        /* \"#utility.yul\":910:915   */\n      0x00\n        /* \"#utility.yul\":948:954   */\n      dup2\n        /* \"#utility.yul\":935:955   */\n      calldataload\n        /* \"#utility.yul\":926:955   */\n      swap1\n      pop\n        /* \"#utility.yul\":964:997   */\n      tag_85\n        /* \"#utility.yul\":991:996   */\n      dup2\n        /* \"#utility.yul\":964:997   */\n      tag_86\n      jump\t// in\n    tag_85:\n        /* \"#utility.yul\":864:1003   */\n      swap3\n      swap2\n      pop\n      pop\n      jump\t// out\n        /* \"#utility.yul\":1009:2102   */\n    tag_11:\n        /* \"#utility.yul\":1107:1113   */\n      0x00\n        /* \"#utility.yul\":1115:1121   */\n      dup1\n        /* \"#utility.yul\":1123:1129   */\n      0x00\n        /* \"#utility.yul\":1131:1137   */\n      dup1\n        /* \"#utility.yul\":1139:1145   */\n      0x00\n        /* \"#utility.yul\":1147:1153   */\n      dup1\n        /* \"#utility.yul\":1196:1199   */\n      0xa0\n        /* \"#utility.yul\":1184:1193   */\n      dup8\n        /* \"#utility.yul\":1175:1182   */\n      dup10\n        /* \"#utility.yul\":1171:1194   */\n      sub\n        /* \"#utility.yul\":1167:1200   */\n      slt\n        /* \"#utility.yul\":1164:1284   */\n      iszero\n      tag_88\n      jumpi\n        /* \"#utility.yul\":1203:1282   */\n      tag_89\n      tag_90\n      jump\t// in\n    tag_89:\n        /* \"#utility.yul\":1164:1284   */\n    tag_88:\n        /* \"#utility.yul\":1323:1324   */\n      0x00\n        /* \"#utility.yul\":1348:1401   */\n      tag_91\n        /* \"#utility.yul\":1393:1400   */\n      dup10\n        /* \"#utility.yul\":1384:1390   */\n      dup3\n        /* \"#utility.yul\":1373:1382   */\n      dup11\n        /* \"#utility.yul\":1369:1391   */\n      add\n        /* \"#utility.yul\":1348:1401   */\n      tag_64\n      jump\t// in\n    tag_91:\n        /* \"#utility.yul\":1338:1401   */\n      swap7\n      pop\n        /* \"#utility.yul\":1294:1411   */\n      pop\n        /* \"#utility.yul\":1478:1480   */\n      0x20\n        /* \"#utility.yul\":1467:1476   */\n      dup8\n        /* \"#utility.yul\":1463:1481   */\n      add\n        /* \"#utility.yul\":1450:1482   */\n      calldataload\n        /* \"#utility.yul\":1509:1527   */\n      0xffffffffffffffff\n        /* \"#utility.yul\":1501:1507   */\n      dup2\n        /* \"#utility.yul\":1498:1528   */\n      gt\n        /* \"#utility.yul\":1495:1612   */\n      iszero\n      tag_92\n      jumpi\n        /* \"#utility.yul\":1531:1610   */\n      tag_93\n      tag_94\n      jump\t// in\n    tag_93:\n        /* \"#utility.yul\":1495:1612   */\n    tag_92:\n        /* \"#utility.yul\":1644:1709   */\n      tag_95\n        /* \"#utility.yul\":1701:1708   */\n      dup10\n        /* \"#utility.yul\":1692:1698   */\n      dup3\n        /* \"#utility.yul\":1681:1690   */\n      dup11\n        /* \"#utility.yul\":1677:1699   */\n      add\n        /* \"#utility.yul\":1644:1709   */\n      tag_72\n      jump\t// in\n    tag_95:\n        /* \"#utility.yul\":1626:1709   */\n      swap6\n      pop\n      swap6\n      pop\n        /* \"#utility.yul\":1421:1719   */\n      pop\n        /* \"#utility.yul\":1758:1760   */\n      0x40\n        /* \"#utility.yul\":1784:1834   */\n      tag_96\n        /* \"#utility.yul\":1826:1833   */\n      dup10\n        /* \"#utility.yul\":1817:1823   */\n      dup3\n        /* \"#utility.yul\":1806:1815   */\n      dup11\n        /* \"#utility.yul\":1802:1824   */\n      add\n        /* \"#utility.yul\":1784:1834   */\n      tag_68\n      jump\t// in\n    tag_96:\n        /* \"#utility.yul\":1774:1834   */\n      swap4\n      pop\n        /* \"#utility.yul\":1729:1844   */\n      pop\n        /* \"#utility.yul\":1883:1885   */\n      0x60\n        /* \"#utility.yul\":1909:1959   */\n      tag_97\n        /* \"#utility.yul\":1951:1958   */\n      dup10\n        /* \"#utility.yul\":1942:1948   */\n      dup3\n        /* \"#utility.yul\":1931:1940   */\n      dup11\n        /* \"#utility.yul\":1927:1949   */\n      add\n        /* \"#utility.yul\":1909:1959   */\n      tag_68\n      jump\t// in\n    tag_97:\n        /* \"#utility.yul\":1899:1959   */\n      swap3\n      pop\n        /* \"#utility.yul\":1854:1969   */\n      pop\n        /* \"#utility.yul\":2008:2011   */\n      0x80\n        /* \"#utility.yul\":2035:2085   */\n      tag_98\n        /* \"#utility.yul\":2077:2084   */\n      dup10\n        /* \"#utility.yul\":2068:2074   */\n      dup3\n        /* \"#utility.yul\":2057:2066   */\n      dup11\n        /* \"#utility.yul\":2053:2075   */\n      add\n        /* \"#utility.yul\":2035:2085   */\n      tag_68\n      jump\t// in\n    tag_98:\n        /* \"#utility.yul\":2025:2085   */\n      swap2\n      pop\n        /* \"#utility.yul\":1979:2095   */\n      pop\n        /* \"#utility.yul\":1009:2102   */\n      swap3\n      swap6\n      pop\n      swap3\n      swap6\n      pop\n      swap3\n      swap6\n      jump\t// out\n        /* \"#utility.yul\":2108:2437   */\n    tag_7:\n        /* \"#utility.yul\":2167:2173   */\n      0x00\n        /* \"#utility.yul\":2216:2218   */\n      0x20\n        /* \"#utility.yul\":2204:2213   */\n      dup3\n        /* \"#utility.yul\":2195:2202   */\n      dup5\n        /* \"#utility.yul\":2191:2214   */\n      sub\n        /* \"#utility.yul\":2187:2219   */\n      slt\n        /* \"#utility.yul\":2184:2303   */\n      iszero\n      tag_100\n      jumpi\n        /* \"#utility.yul\":2222:2301   */\n      tag_101\n      tag_90\n      jump\t// in\n    tag_101:\n        /* \"#utility.yul\":2184:2303   */\n    tag_100:\n        /* \"#utility.yul\":2342:2343   */\n      0x00\n        /* \"#utility.yul\":2367:2420   */\n      tag_102\n        /* \"#utility.yul\":2412:2419   */\n      dup5\n        /* \"#utility.yul\":2403:2409   */\n      dup3\n        /* \"#utility.yul\":2392:2401   */\n      dup6\n        /* \"#utility.yul\":2388:2410   */\n      add\n        /* \"#utility.yul\":2367:2420   */\n      tag_83\n      jump\t// in\n    tag_102:\n        /* \"#utility.yul\":2357:2420   */\n      swap2\n      pop\n        /* \"#utility.yul\":2313:2430   */\n      pop\n        /* \"#utility.yul\":2108:2437   */\n      swap3\n      swap2\n      pop\n      pop\n      jump\t// out\n        /* \"#utility.yul\":2443:2807   */\n    tag_103:\n        /* \"#utility.yul\":2531:2534   */\n      0x00\n        /* \"#utility.yul\":2559:2598   */\n      tag_105\n        /* \"#utility.yul\":2592:2597   */\n      dup3\n        /* \"#utility.yul\":2559:2598   */\n      tag_106\n      jump\t// in\n    tag_105:\n        /* \"#utility.yul\":2614:2685   */\n      tag_107\n        /* \"#utility.yul\":2678:2684   */\n      dup2\n        /* \"#utility.yul\":2673:2676   */\n      dup6\n        /* \"#utility.yul\":2614:2685   */\n      tag_108\n      jump\t// in\n    tag_107:\n        /* \"#utility.yul\":2607:2685   */\n      swap4\n      pop\n        /* \"#utility.yul\":2694:2746   */\n      tag_109\n        /* \"#utility.yul\":2739:2745   */\n      dup2\n        /* \"#utility.yul\":2734:2737   */\n      dup6\n        /* \"#utility.yul\":2727:2731   */\n      0x20\n        /* \"#utility.yul\":2720:2725   */\n      dup7\n        /* \"#utility.yul\":2716:2732   */\n      add\n        /* \"#utility.yul\":2694:2746   */\n      tag_110\n      jump\t// in\n    tag_109:\n        /* \"#utility.yul\":2771:2800   */\n      tag_111\n        /* \"#utility.yul\":2793:2799   */\n      dup2\n        /* \"#utility.yul\":2771:2800   */\n      tag_112\n      jump\t// in\n    tag_111:\n        /* \"#utility.yul\":2766:2769   */\n      dup5\n        /* \"#utility.yul\":2762:2801   */\n      add\n        /* \"#utility.yul\":2755:2801   */\n      swap2\n      pop\n        /* \"#utility.yul\":2535:2807   */\n      pop\n        /* \"#utility.yul\":2443:2807   */\n      swap3\n      swap2\n      pop\n      pop\n      jump\t// out\n        /* \"#utility.yul\":2837:3639   */\n    tag_113:\n        /* \"#utility.yul\":2922:2925   */\n      0x00\n        /* \"#utility.yul\":2959:2964   */\n      dup2\n        /* \"#utility.yul\":2953:2965   */\n      sload\n        /* \"#utility.yul\":2988:3024   */\n      tag_115\n        /* \"#utility.yul\":3014:3023   */\n      dup2\n        /* \"#utility.yul\":2988:3024   */\n      tag_53\n      jump\t// in\n    tag_115:\n        /* \"#utility.yul\":3040:3111   */\n      tag_116\n        /* \"#utility.yul\":3104:3110   */\n      dup2\n        /* \"#utility.yul\":3099:3102   */\n      dup7\n        /* \"#utility.yul\":3040:3111   */\n      tag_108\n      jump\t// in\n    tag_116:\n        /* \"#utility.yul\":3033:3111   */\n      swap5\n      pop\n        /* \"#utility.yul\":3142:3143   */\n      0x01\n        /* \"#utility.yul\":3131:3140   */\n      dup3\n        /* \"#utility.yul\":3127:3144   */\n      and\n        /* \"#utility.yul\":3158:3159   */\n      0x00\n        /* \"#utility.yul\":3153:3288   */\n      dup2\n      eq\n      tag_118\n      jumpi\n        /* \"#utility.yul\":3302:3303   */\n      0x01\n        /* \"#utility.yul\":3297:3633   */\n      dup2\n      eq\n      tag_119\n      jumpi\n        /* \"#utility.yul\":3120:3633   */\n      jump(tag_117)\n        /* \"#utility.yul\":3153:3288   */\n    tag_118:\n        /* \"#utility.yul\":3237:3241   */\n      0xff\n        /* \"#utility.yul\":3233:3242   */\n      not\n        /* \"#utility.yul\":3222:3231   */\n      dup4\n        /* \"#utility.yul\":3218:3243   */\n      and\n        /* \"#utility.yul\":3213:3216   */\n      dup7\n        /* \"#utility.yul\":3206:3244   */\n      mstore\n        /* \"#utility.yul\":3273:3277   */\n      0x20\n        /* \"#utility.yul\":3268:3271   */\n      dup7\n        /* \"#utility.yul\":3264:3278   */\n      add\n        /* \"#utility.yul\":3257:3278   */\n      swap4\n      pop\n        /* \"#utility.yul\":3153:3288   */\n      jump(tag_117)\n        /* \"#utility.yul\":3297:3633   */\n    tag_119:\n        /* \"#utility.yul\":3364:3402   */\n      tag_120\n        /* \"#utility.yul\":3396:3401   */\n      dup6\n        /* \"#utility.yul\":3364:3402   */\n      tag_121\n      jump\t// in\n    tag_120:\n        /* \"#utility.yul\":3424:3425   */\n      0x00\n        /* \"#utility.yul\":3438:3592   */\n    tag_122:\n        /* \"#utility.yul\":3452:3458   */\n      dup4\n        /* \"#utility.yul\":3449:3450   */\n      dup2\n        /* \"#utility.yul\":3446:3459   */\n      lt\n        /* \"#utility.yul\":3438:3592   */\n      iszero\n      tag_124\n      jumpi\n        /* \"#utility.yul\":3526:3533   */\n      dup2\n        /* \"#utility.yul\":3520:3534   */\n      sload\n        /* \"#utility.yul\":3516:3517   */\n      dup2\n        /* \"#utility.yul\":3511:3514   */\n      dup10\n        /* \"#utility.yul\":3507:3518   */\n      add\n        /* \"#utility.yul\":3500:3535   */\n      mstore\n        /* \"#utility.yul\":3576:3577   */\n      0x01\n        /* \"#utility.yul\":3567:3574   */\n      dup3\n        /* \"#utility.yul\":3563:3578   */\n      add\n        /* \"#utility.yul\":3552:3578   */\n      swap2\n      pop\n        /* \"#utility.yul\":3474:3478   */\n      0x20\n        /* \"#utility.yul\":3471:3472   */\n      dup2\n        /* \"#utility.yul\":3467:3479   */\n      add\n        /* \"#utility.yul\":3462:3479   */\n      swap1\n      pop\n        /* \"#utility.yul\":3438:3592   */\n      jump(tag_122)\n    tag_124:\n        /* \"#utility.yul\":3621:3622   */\n      dup1\n        /* \"#utility.yul\":3616:3619   */\n      dup9\n        /* \"#utility.yul\":3612:3623   */\n      add\n        /* \"#utility.yul\":3605:3623   */\n      swap6\n      pop\n        /* \"#utility.yul\":3304:3633   */\n      pop\n      pop\n        /* \"#utility.yul\":3120:3633   */\n    tag_117:\n      pop\n        /* \"#utility.yul\":2926:3639   */\n      pop\n      pop\n        /* \"#utility.yul\":2837:3639   */\n      swap3\n      swap2\n      pop\n      pop\n      jump\t// out\n        /* \"#utility.yul\":3645:4011   */\n    tag_125:\n        /* \"#utility.yul\":3787:3790   */\n      0x00\n        /* \"#utility.yul\":3808:3875   */\n      tag_127\n        /* \"#utility.yul\":3872:3874   */\n      0x0d\n        /* \"#utility.yul\":3867:3870   */\n      dup4\n        /* \"#utility.yul\":3808:3875   */\n      tag_108\n      jump\t// in\n    tag_127:\n        /* \"#utility.yul\":3801:3875   */\n      swap2\n      pop\n        /* \"#utility.yul\":3884:3977   */\n      tag_128\n        /* \"#utility.yul\":3973:3976   */\n      dup3\n        /* \"#utility.yul\":3884:3977   */\n      tag_129\n      jump\t// in\n    tag_128:\n        /* \"#utility.yul\":4002:4004   */\n      0x20\n        /* \"#utility.yul\":3997:4000   */\n      dup3\n        /* \"#utility.yul\":3993:4005   */\n      add\n        /* \"#utility.yul\":3986:4005   */\n      swap1\n      pop\n        /* \"#utility.yul\":3645:4011   */\n      swap2\n      swap1\n      pop\n      jump\t// out\n        /* \"#utility.yul\":4017:4383   */\n    tag_130:\n        /* \"#utility.yul\":4159:4162   */\n      0x00\n        /* \"#utility.yul\":4180:4247   */\n      tag_132\n        /* \"#utility.yul\":4244:4246   */\n      0x16\n        /* \"#utility.yul\":4239:4242   */\n      dup4\n        /* \"#utility.yul\":4180:4247   */\n      tag_108\n      jump\t// in\n    tag_132:\n        /* \"#utility.yul\":4173:4247   */\n      swap2\n      pop\n        /* \"#utility.yul\":4256:4349   */\n      tag_133\n        /* \"#utility.yul\":4345:4348   */\n      dup3\n        /* \"#utility.yul\":4256:4349   */\n      tag_134\n      jump\t// in\n    tag_133:\n        /* \"#utility.yul\":4374:4376   */\n      0x20\n        /* \"#utility.yul\":4369:4372   */\n      dup3\n        /* \"#utility.yul\":4365:4377   */\n      add\n        /* \"#utility.yul\":4358:4377   */\n      swap1\n      pop\n        /* \"#utility.yul\":4017:4383   */\n      swap2\n      swap1\n      pop\n      jump\t// out\n        /* \"#utility.yul\":4389:4755   */\n    tag_135:\n        /* \"#utility.yul\":4531:4534   */\n      0x00\n        /* \"#utility.yul\":4552:4619   */\n      tag_137\n        /* \"#utility.yul\":4616:4618   */\n      0x12\n        /* \"#utility.yul\":4611:4614   */\n      dup4\n        /* \"#utility.yul\":4552:4619   */\n      tag_108\n      jump\t// in\n    tag_137:\n        /* \"#utility.yul\":4545:4619   */\n      swap2\n      pop\n        /* \"#utility.yul\":4628:4721   */\n      tag_138\n        /* \"#utility.yul\":4717:4720   */\n      dup3\n        /* \"#utility.yul\":4628:4721   */\n      tag_139\n      jump\t// in\n    tag_138:\n        /* \"#utility.yul\":4746:4748   */\n      0x20\n        /* \"#utility.yul\":4741:4744   */\n      dup3\n        /* \"#utility.yul\":4737:4749   */\n      add\n        /* \"#utility.yul\":4730:4749   */\n      swap1\n      pop\n        /* \"#utility.yul\":4389:4755   */\n      swap2\n      swap1\n      pop\n      jump\t// out\n        /* \"#utility.yul\":4761:4879   */\n    tag_140:\n        /* \"#utility.yul\":4848:4872   */\n      tag_142\n        /* \"#utility.yul\":4866:4871   */\n      dup2\n        /* \"#utility.yul\":4848:4872   */\n      tag_143\n      jump\t// in\n    tag_142:\n        /* \"#utility.yul\":4843:4846   */\n      dup3\n        /* \"#utility.yul\":4836:4873   */\n      mstore\n        /* \"#utility.yul\":4761:4879   */\n      pop\n      pop\n      jump\t// out\n        /* \"#utility.yul\":4885:5192   */\n    tag_23:\n        /* \"#utility.yul\":4995:4999   */\n      0x00\n        /* \"#utility.yul\":5033:5035   */\n      0x20\n        /* \"#utility.yul\":5022:5031   */\n      dup3\n        /* \"#utility.yul\":5018:5036   */\n      add\n        /* \"#utility.yul\":5010:5036   */\n      swap1\n      pop\n        /* \"#utility.yul\":5082:5091   */\n      dup2\n        /* \"#utility.yul\":5076:5080   */\n      dup2\n        /* \"#utility.yul\":5072:5092   */\n      sub\n        /* \"#utility.yul\":5068:5069   */\n      0x00\n        /* \"#utility.yul\":5057:5066   */\n      dup4\n        /* \"#utility.yul\":5053:5070   */\n      add\n        /* \"#utility.yul\":5046:5093   */\n      mstore\n        /* \"#utility.yul\":5110:5185   */\n      tag_145\n        /* \"#utility.yul\":5180:5184   */\n      dup2\n        /* \"#utility.yul\":5171:5177   */\n      dup5\n        /* \"#utility.yul\":5110:5185   */\n      tag_113\n      jump\t// in\n    tag_145:\n        /* \"#utility.yul\":5102:5185   */\n      swap1\n      pop\n        /* \"#utility.yul\":4885:5192   */\n      swap3\n      swap2\n      pop\n      pop\n      jump\t// out\n        /* \"#utility.yul\":5198:5615   */\n    tag_33:\n        /* \"#utility.yul\":5336:5340   */\n      0x00\n        /* \"#utility.yul\":5374:5376   */\n      0x40\n        /* \"#utility.yul\":5363:5372   */\n      dup3\n        /* \"#utility.yul\":5359:5377   */\n      add\n        /* \"#utility.yul\":5351:5377   */\n      swap1\n      pop\n        /* \"#utility.yul\":5423:5432   */\n      dup2\n        /* \"#utility.yul\":5417:5421   */\n      dup2\n        /* \"#utility.yul\":5413:5433   */\n      sub\n        /* \"#utility.yul\":5409:5410   */\n      0x00\n        /* \"#utility.yul\":5398:5407   */\n      dup4\n        /* \"#utility.yul\":5394:5411   */\n      add\n        /* \"#utility.yul\":5387:5434   */\n      mstore\n        /* \"#utility.yul\":5451:5526   */\n      tag_147\n        /* \"#utility.yul\":5521:5525   */\n      dup2\n        /* \"#utility.yul\":5512:5518   */\n      dup6\n        /* \"#utility.yul\":5451:5526   */\n      tag_113\n      jump\t// in\n    tag_147:\n        /* \"#utility.yul\":5443:5526   */\n      swap1\n      pop\n        /* \"#utility.yul\":5536:5608   */\n      tag_148\n        /* \"#utility.yul\":5604:5606   */\n      0x20\n        /* \"#utility.yul\":5593:5602   */\n      dup4\n        /* \"#utility.yul\":5589:5607   */\n      add\n        /* \"#utility.yul\":5580:5586   */\n      dup5\n        /* \"#utility.yul\":5536:5608   */\n      tag_140\n      jump\t// in\n    tag_148:\n        /* \"#utility.yul\":5198:5615   */\n      swap4\n      swap3\n      pop\n      pop\n      pop\n      jump\t// out\n        /* \"#utility.yul\":5621:6040   */\n    tag_16:\n        /* \"#utility.yul\":5787:5791   */\n      0x00\n        /* \"#utility.yul\":5825:5827   */\n      0x20\n        /* \"#utility.yul\":5814:5823   */\n      dup3\n        /* \"#utility.yul\":5810:5828   */\n      add\n        /* \"#utility.yul\":5802:5828   */\n      swap1\n      pop\n        /* \"#utility.yul\":5874:5883   */\n      dup2\n        /* \"#utility.yul\":5868:5872   */\n      dup2\n        /* \"#utility.yul\":5864:5884   */\n      sub\n        /* \"#utility.yul\":5860:5861   */\n      0x00\n        /* \"#utility.yul\":5849:5858   */\n      dup4\n        /* \"#utility.yul\":5845:5862   */\n      add\n        /* \"#utility.yul\":5838:5885   */\n      mstore\n        /* \"#utility.yul\":5902:6033   */\n      tag_150\n        /* \"#utility.yul\":6028:6032   */\n      dup2\n        /* \"#utility.yul\":5902:6033   */\n      tag_125\n      jump\t// in\n    tag_150:\n        /* \"#utility.yul\":5894:6033   */\n      swap1\n      pop\n        /* \"#utility.yul\":5621:6040   */\n      swap2\n      swap1\n      pop\n      jump\t// out\n        /* \"#utility.yul\":6046:6465   */\n    tag_37:\n        /* \"#utility.yul\":6212:6216   */\n      0x00\n        /* \"#utility.yul\":6250:6252   */\n      0x20\n        /* \"#utility.yul\":6239:6248   */\n      dup3\n        /* \"#utility.yul\":6235:6253   */\n      add\n        /* \"#utility.yul\":6227:6253   */\n      swap1\n      pop\n        /* \"#utility.yul\":6299:6308   */\n      dup2\n        /* \"#utility.yul\":6293:6297   */\n      dup2\n        /* \"#utility.yul\":6289:6309   */\n      sub\n        /* \"#utility.yul\":6285:6286   */\n      0x00\n        /* \"#utility.yul\":6274:6283   */\n      dup4\n        /* \"#utility.yul\":6270:6287   */\n      add\n        /* \"#utility.yul\":6263:6310   */\n      mstore\n        /* \"#utility.yul\":6327:6458   */\n      tag_152\n        /* \"#utility.yul\":6453:6457   */\n      dup2\n        /* \"#utility.yul\":6327:6458   */\n      tag_130\n      jump\t// in\n    tag_152:\n        /* \"#utility.yul\":6319:6458   */\n      swap1\n      pop\n        /* \"#utility.yul\":6046:6465   */\n      swap2\n      swap1\n      pop\n      jump\t// out\n        /* \"#utility.yul\":6471:6890   */\n    tag_40:\n        /* \"#utility.yul\":6637:6641   */\n      0x00\n        /* \"#utility.yul\":6675:6677   */\n      0x20\n        /* \"#utility.yul\":6664:6673   */\n      dup3\n        /* \"#utility.yul\":6660:6678   */\n      add\n        /* \"#utility.yul\":6652:6678   */\n      swap1\n      pop\n        /* \"#utility.yul\":6724:6733   */\n      dup2\n        /* \"#utility.yul\":6718:6722   */\n      dup2\n        /* \"#utility.yul\":6714:6734   */\n      sub\n        /* \"#utility.yul\":6710:6711   */\n      0x00\n        /* \"#utility.yul\":6699:6708   */\n      dup4\n        /* \"#utility.yul\":6695:6712   */\n      add\n        /* \"#utility.yul\":6688:6735   */\n      mstore\n        /* \"#utility.yul\":6752:6883   */\n      tag_154\n        /* \"#utility.yul\":6878:6882   */\n      dup2\n        /* \"#utility.yul\":6752:6883   */\n      tag_135\n      jump\t// in\n    tag_154:\n        /* \"#utility.yul\":6744:6883   */\n      swap1\n      pop\n        /* \"#utility.yul\":6471:6890   */\n      swap2\n      swap1\n      pop\n      jump\t// out\n        /* \"#utility.yul\":6896:7429   */\n    tag_51:\n        /* \"#utility.yul\":7065:7069   */\n      0x00\n        /* \"#utility.yul\":7103:7105   */\n      0x60\n        /* \"#utility.yul\":7092:7101   */\n      dup3\n        /* \"#utility.yul\":7088:7106   */\n      add\n        /* \"#utility.yul\":7080:7106   */\n      swap1\n      pop\n        /* \"#utility.yul\":7116:7187   */\n      tag_156\n        /* \"#utility.yul\":7184:7185   */\n      0x00\n        /* \"#utility.yul\":7173:7182   */\n      dup4\n        /* \"#utility.yul\":7169:7186   */\n      add\n        /* \"#utility.yul\":7160:7166   */\n      dup7\n        /* \"#utility.yul\":7116:7187   */\n      tag_140\n      jump\t// in\n    tag_156:\n        /* \"#utility.yul\":7234:7243   */\n      dup2\n        /* \"#utility.yul\":7228:7232   */\n      dup2\n        /* \"#utility.yul\":7224:7244   */\n      sub\n        /* \"#utility.yul\":7219:7221   */\n      0x20\n        /* \"#utility.yul\":7208:7217   */\n      dup4\n        /* \"#utility.yul\":7204:7222   */\n      add\n        /* \"#utility.yul\":7197:7245   */\n      mstore\n        /* \"#utility.yul\":7262:7340   */\n      tag_157\n        /* \"#utility.yul\":7335:7339   */\n      dup2\n        /* \"#utility.yul\":7326:7332   */\n      dup6\n        /* \"#utility.yul\":7262:7340   */\n      tag_103\n      jump\t// in\n    tag_157:\n        /* \"#utility.yul\":7254:7340   */\n      swap1\n      pop\n        /* \"#utility.yul\":7350:7422   */\n      tag_158\n        /* \"#utility.yul\":7418:7420   */\n      0x40\n        /* \"#utility.yul\":7407:7416   */\n      dup4\n        /* \"#utility.yul\":7403:7421   */\n      add\n        /* \"#utility.yul\":7394:7400   */\n      dup5\n        /* \"#utility.yul\":7350:7422   */\n      tag_140\n      jump\t// in\n    tag_158:\n        /* \"#utility.yul\":6896:7429   */\n      swap5\n      swap4\n      pop\n      pop\n      pop\n      pop\n      jump\t// out\n        /* \"#utility.yul\":7516:7657   */\n    tag_121:\n        /* \"#utility.yul\":7565:7569   */\n      0x00\n        /* \"#utility.yul\":7588:7591   */\n      dup2\n        /* \"#utility.yul\":7580:7591   */\n      swap1\n      pop\n        /* \"#utility.yul\":7611:7614   */\n      dup2\n        /* \"#utility.yul\":7608:7609   */\n      0x00\n        /* \"#utility.yul\":7601:7615   */\n      mstore\n        /* \"#utility.yul\":7645:7649   */\n      0x20\n        /* \"#utility.yul\":7642:7643   */\n      0x00\n        /* \"#utility.yul\":7632:7650   */\n      keccak256\n        /* \"#utility.yul\":7624:7650   */\n      swap1\n      pop\n        /* \"#utility.yul\":7516:7657   */\n      swap2\n      swap1\n      pop\n      jump\t// out\n        /* \"#utility.yul\":7663:7762   */\n    tag_106:\n        /* \"#utility.yul\":7715:7721   */\n      0x00\n        /* \"#utility.yul\":7749:7754   */\n      dup2\n        /* \"#utility.yul\":7743:7755   */\n      mload\n        /* \"#utility.yul\":7733:7755   */\n      swap1\n      pop\n        /* \"#utility.yul\":7663:7762   */\n      swap2\n      swap1\n      pop\n      jump\t// out\n        /* \"#utility.yul\":7768:7937   */\n    tag_108:\n        /* \"#utility.yul\":7852:7863   */\n      0x00\n        /* \"#utility.yul\":7886:7892   */\n      dup3\n        /* \"#utility.yul\":7881:7884   */\n      dup3\n        /* \"#utility.yul\":7874:7893   */\n      mstore\n        /* \"#utility.yul\":7926:7930   */\n      0x20\n        /* \"#utility.yul\":7921:7924   */\n      dup3\n        /* \"#utility.yul\":7917:7931   */\n      add\n        /* \"#utility.yul\":7902:7931   */\n      swap1\n      pop\n        /* \"#utility.yul\":7768:7937   */\n      swap3\n      swap2\n      pop\n      pop\n      jump\t// out\n        /* \"#utility.yul\":7943:8248   */\n    tag_29:\n        /* \"#utility.yul\":7983:7986   */\n      0x00\n        /* \"#utility.yul\":8002:8022   */\n      tag_165\n        /* \"#utility.yul\":8020:8021   */\n      dup3\n        /* \"#utility.yul\":8002:8022   */\n      tag_143\n      jump\t// in\n    tag_165:\n        /* \"#utility.yul\":7997:8022   */\n      swap2\n      pop\n        /* \"#utility.yul\":8036:8056   */\n      tag_166\n        /* \"#utility.yul\":8054:8055   */\n      dup4\n        /* \"#utility.yul\":8036:8056   */\n      tag_143\n      jump\t// in\n    tag_166:\n        /* \"#utility.yul\":8031:8056   */\n      swap3\n      pop\n        /* \"#utility.yul\":8190:8191   */\n      dup3\n        /* \"#utility.yul\":8122:8188   */\n      0xffffffffffffffffffffffffffffffffffffffffffffffffffffffffffffffff\n        /* \"#utility.yul\":8118:8192   */\n      sub\n        /* \"#utility.yul\":8115:8116   */\n      dup3\n        /* \"#utility.yul\":8112:8193   */\n      gt\n        /* \"#utility.yul\":8109:8216   */\n      iszero\n      tag_167\n      jumpi\n        /* \"#utility.yul\":8196:8214   */\n      tag_168\n      tag_169\n      jump\t// in\n    tag_168:\n        /* \"#utility.yul\":8109:8216   */\n    tag_167:\n        /* \"#utility.yul\":8240:8241   */\n      dup3\n        /* \"#utility.yul\":8237:8238   */\n      dup3\n        /* \"#utility.yul\":8233:8242   */\n      add\n        /* \"#utility.yul\":8226:8242   */\n      swap1\n      pop\n        /* \"#utility.yul\":7943:8248   */\n      swap3\n      swap2\n      pop\n      pop\n      jump\t// out\n        /* \"#utility.yul\":8254:8445   */\n    tag_44:\n        /* \"#utility.yul\":8294:8298   */\n      0x00\n        /* \"#utility.yul\":8314:8334   */\n      tag_171\n        /* \"#utility.yul\":8332:8333   */\n      dup3\n        /* \"#utility.yul\":8314:8334   */\n      tag_143\n      jump\t// in\n    tag_171:\n        /* \"#utility.yul\":8309:8334   */\n      swap2\n      pop\n        /* \"#utility.yul\":8348:8368   */\n      tag_172\n        /* \"#utility.yul\":8366:8367   */\n      dup4\n        /* \"#utility.yul\":8348:8368   */\n      tag_143\n      jump\t// in\n    tag_172:\n        /* \"#utility.yul\":8343:8368   */\n      swap3\n      pop\n        /* \"#utility.yul\":8387:8388   */\n      dup3\n        /* \"#utility.yul\":8384:8385   */\n      dup3\n        /* \"#utility.yul\":8381:8389   */\n      lt\n        /* \"#utility.yul\":8378:8412   */\n      iszero\n      tag_173\n      jumpi\n        /* \"#utility.yul\":8392:8410   */\n      tag_174\n      tag_169\n      jump\t// in\n    tag_174:\n        /* \"#utility.yul\":8378:8412   */\n    tag_173:\n        /* \"#utility.yul\":8437:8438   */\n      dup3\n        /* \"#utility.yul\":8434:8435   */\n      dup3\n        /* \"#utility.yul\":8430:8439   */\n      sub\n        /* \"#utility.yul\":8422:8439   */\n      swap1\n      pop\n        /* \"#utility.yul\":8254:8445   */\n      swap3\n      swap2\n      pop\n      pop\n      jump\t// out\n        /* \"#utility.yul\":8451:8547   */\n    tag_175:\n        /* \"#utility.yul\":8488:8495   */\n      0x00\n        /* \"#utility.yul\":8517:8541   */\n      tag_177\n        /* \"#utility.yul\":8535:8540   */\n      dup3\n        /* \"#utility.yul\":8517:8541   */\n      tag_178\n      jump\t// in\n    tag_177:\n        /* \"#utility.yul\":8506:8541   */\n      swap1\n      pop\n        /* \"#utility.yul\":8451:8547   */\n      swap2\n      swap1\n      pop\n      jump\t// out\n        /* \"#utility.yul\":8553:8643   */\n    tag_179:\n        /* \"#utility.yul\":8587:8594   */\n      0x00\n        /* \"#utility.yul\":8630:8635   */\n      dup2\n        /* \"#utility.yul\":8623:8636   */\n      iszero\n        /* \"#utility.yul\":8616:8637   */\n      iszero\n        /* \"#utility.yul\":8605:8637   */\n      swap1\n      pop\n        /* \"#utility.yul\":8553:8643   */\n      swap2\n      swap1\n      pop\n      jump\t// out\n        /* \"#utility.yul\":8649:8775   */\n    tag_178:\n        /* \"#utility.yul\":8686:8693   */\n      0x00\n        /* \"#utility.yul\":8726:8768   */\n      0xffffffffffffffffffffffffffffffffffffffff\n        /* \"#utility.yul\":8719:8724   */\n      dup3\n        /* \"#utility.yul\":8715:8769   */\n      and\n        /* \"#utility.yul\":8704:8769   */\n      swap1\n      pop\n        /* \"#utility.yul\":8649:8775   */\n      swap2\n      swap1\n      pop\n      jump\t// out\n        /* \"#utility.yul\":8781:8858   */\n    tag_143:\n        /* \"#utility.yul\":8818:8825   */\n      0x00\n        /* \"#utility.yul\":8847:8852   */\n      dup2\n        /* \"#utility.yul\":8836:8852   */\n      swap1\n      pop\n        /* \"#utility.yul\":8781:8858   */\n      swap2\n      swap1\n      pop\n      jump\t// out\n        /* \"#utility.yul\":8864:9171   */\n    tag_110:\n        /* \"#utility.yul\":8932:8933   */\n      0x00\n        /* \"#utility.yul\":8942:9055   */\n    tag_184:\n        /* \"#utility.yul\":8956:8962   */\n      dup4\n        /* \"#utility.yul\":8953:8954   */\n      dup2\n        /* \"#utility.yul\":8950:8963   */\n      lt\n        /* \"#utility.yul\":8942:9055   */\n      iszero\n      tag_186\n      jumpi\n        /* \"#utility.yul\":9041:9042   */\n      dup1\n        /* \"#utility.yul\":9036:9039   */\n      dup3\n        /* \"#utility.yul\":9032:9043   */\n      add\n        /* \"#utility.yul\":9026:9044   */\n      mload\n        /* \"#utility.yul\":9022:9023   */\n      dup2\n        /* \"#utility.yul\":9017:9020   */\n      dup5\n        /* \"#utility.yul\":9013:9024   */\n      add\n        /* \"#utility.yul\":9006:9045   */\n      mstore\n        /* \"#utility.yul\":8978:8980   */\n      0x20\n        /* \"#utility.yul\":8975:8976   */\n      dup2\n        /* \"#utility.yul\":8971:8981   */\n      add\n        /* \"#utility.yul\":8966:8981   */\n      swap1\n      pop\n        /* \"#utility.yul\":8942:9055   */\n      jump(tag_184)\n    tag_186:\n        /* \"#utility.yul\":9073:9079   */\n      dup4\n        /* \"#utility.yul\":9070:9071   */\n      dup2\n        /* \"#utility.yul\":9067:9080   */\n      gt\n        /* \"#utility.yul\":9064:9165   */\n      iszero\n      tag_187\n      jumpi\n        /* \"#utility.yul\":9153:9154   */\n      0x00\n        /* \"#utility.yul\":9144:9150   */\n      dup5\n        /* \"#utility.yul\":9139:9142   */\n      dup5\n        /* \"#utility.yul\":9135:9151   */\n      add\n        /* \"#utility.yul\":9128:9155   */\n      mstore\n        /* \"#utility.yul\":9064:9165   */\n    tag_187:\n        /* \"#utility.yul\":8913:9171   */\n      pop\n        /* \"#utility.yul\":8864:9171   */\n      pop\n      pop\n      pop\n      jump\t// out\n        /* \"#utility.yul\":9177:9497   */\n    tag_53:\n        /* \"#utility.yul\":9221:9227   */\n      0x00\n        /* \"#utility.yul\":9258:9259   */\n      0x02\n        /* \"#utility.yul\":9252:9256   */\n      dup3\n        /* \"#utility.yul\":9248:9260   */\n      div\n        /* \"#utility.yul\":9238:9260   */\n      swap1\n      pop\n        /* \"#utility.yul\":9305:9306   */\n      0x01\n        /* \"#utility.yul\":9299:9303   */\n      dup3\n        /* \"#utility.yul\":9295:9307   */\n      and\n        /* \"#utility.yul\":9326:9344   */\n      dup1\n        /* \"#utility.yul\":9316:9397   */\n      tag_189\n      jumpi\n        /* \"#utility.yul\":9382:9386   */\n      0x7f\n        /* \"#utility.yul\":9374:9380   */\n      dup3\n        /* \"#utility.yul\":9370:9387   */\n      and\n        /* \"#utility.yul\":9360:9387   */\n      swap2\n      pop\n        /* \"#utility.yul\":9316:9397   */\n    tag_189:\n        /* \"#utility.yul\":9444:9446   */\n      0x20\n        /* \"#utility.yul\":9436:9442   */\n      dup3\n        /* \"#utility.yul\":9433:9447   */\n      lt\n        /* \"#utility.yul\":9413:9431   */\n      dup2\n        /* \"#utility.yul\":9410:9448   */\n      eq\n        /* \"#utility.yul\":9407:9491   */\n      iszero\n      tag_190\n      jumpi\n        /* \"#utility.yul\":9463:9481   */\n      tag_191\n      tag_192\n      jump\t// in\n    tag_191:\n        /* \"#utility.yul\":9407:9491   */\n    tag_190:\n        /* \"#utility.yul\":9228:9497   */\n      pop\n        /* \"#utility.yul\":9177:9497   */\n      swap2\n      swap1\n      pop\n      jump\t// out\n        /* \"#utility.yul\":9503:9683   */\n    tag_169:\n        /* \"#utility.yul\":9551:9628   */\n      0x4e487b7100000000000000000000000000000000000000000000000000000000\n        /* \"#utility.yul\":9548:9549   */\n      0x00\n        /* \"#utility.yul\":9541:9629   */\n      mstore\n        /* \"#utility.yul\":9648:9652   */\n      0x11\n        /* \"#utility.yul\":9645:9646   */\n      0x04\n        /* \"#utility.yul\":9638:9653   */\n      mstore\n        /* \"#utility.yul\":9672:9676   */\n      0x24\n        /* \"#utility.yul\":9669:9670   */\n      0x00\n        /* \"#utility.yul\":9662:9677   */\n      revert\n        /* \"#utility.yul\":9689:9869   */\n    tag_192:\n        /* \"#utility.yul\":9737:9814   */\n      0x4e487b7100000000000000000000000000000000000000000000000000000000\n        /* \"#utility.yul\":9734:9735   */\n      0x00\n        /* \"#utility.yul\":9727:9815   */\n      mstore\n        /* \"#utility.yul\":9834:9838   */\n      0x22\n        /* \"#utility.yul\":9831:9832   */\n      0x04\n        /* \"#utility.yul\":9824:9839   */\n      mstore\n        /* \"#utility.yul\":9858:9862   */\n      0x24\n        /* \"#utility.yul\":9855:9856   */\n      0x00\n        /* \"#utility.yul\":9848:9863   */\n      revert\n        /* \"#utility.yul\":9875:10055   */\n    tag_19:\n        /* \"#utility.yul\":9923:10000   */\n      0x4e487b7100000000000000000000000000000000000000000000000000000000\n        /* \"#utility.yul\":9920:9921   */\n      0x00\n        /* \"#utility.yul\":9913:10001   */\n      mstore\n        /* \"#utility.yul\":10020:10024   */\n      0x32\n        /* \"#utility.yul\":10017:10018   */\n      0x04\n        /* \"#utility.yul\":10010:10025   */\n      mstore\n        /* \"#utility.yul\":10044:10048   */\n      0x24\n        /* \"#utility.yul\":10041:10042   */\n      0x00\n        /* \"#utility.yul\":10034:10049   */\n      revert\n        /* \"#utility.yul\":10061:10178   */\n    tag_79:\n        /* \"#utility.yul\":10170:10171   */\n      0x00\n        /* \"#utility.yul\":10167:10168   */\n      dup1\n        /* \"#utility.yul\":10160:10172   */\n      revert\n        /* \"#utility.yul\":10184:10301   */\n    tag_76:\n        /* \"#utility.yul\":10293:10294   */\n      0x00\n        /* \"#utility.yul\":10290:10291   */\n      dup1\n        /* \"#utility.yul\":10283:10295   */\n      revert\n        /* \"#utility.yul\":10307:10424   */\n    tag_82:\n        /* \"#utility.yul\":10416:10417   */\n      0x00\n        /* \"#utility.yul\":10413:10414   */\n      dup1\n        /* \"#utility.yul\":10406:10418   */\n      revert\n        /* \"#utility.yul\":10430:10547   */\n    tag_94:\n        /* \"#utility.yul\":10539:10540   */\n      0x00\n        /* \"#utility.yul\":10536:10537   */\n      dup1\n        /* \"#utility.yul\":10529:10541   */\n      revert\n        /* \"#utility.yul\":10553:10670   */\n    tag_90:\n        /* \"#utility.yul\":10662:10663   */\n      0x00\n        /* \"#utility.yul\":10659:10660   */\n      dup1\n        /* \"#utility.yul\":10652:10664   */\n      revert\n        /* \"#utility.yul\":10676:10778   */\n    tag_112:\n        /* \"#utility.yul\":10717:10723   */\n      0x00\n        /* \"#utility.yul\":10768:10770   */\n      0x1f\n        /* \"#utility.yul\":10764:10771   */\n      not\n        /* \"#utility.yul\":10759:10761   */\n      0x1f\n        /* \"#utility.yul\":10752:10757   */\n      dup4\n        /* \"#utility.yul\":10748:10762   */\n      add\n        /* \"#utility.yul\":10744:10772   */\n      and\n        /* \"#utility.yul\":10734:10772   */\n      swap1\n      pop\n        /* \"#utility.yul\":10676:10778   */\n      swap2\n      swap1\n      pop\n      jump\t// out\n        /* \"#utility.yul\":10784:10947   */\n    tag_129:\n        /* \"#utility.yul\":10924:10939   */\n      0x496e636f72726563742069642e00000000000000000000000000000000000000\n        /* \"#utility.yul\":10920:10921   */\n      0x00\n        /* \"#utility.yul\":10912:10918   */\n      dup3\n        /* \"#utility.yul\":10908:10922   */\n      add\n        /* \"#utility.yul\":10901:10940   */\n      mstore\n        /* \"#utility.yul\":10784:10947   */\n      pop\n      jump\t// out\n        /* \"#utility.yul\":10953:11125   */\n    tag_134:\n        /* \"#utility.yul\":11093:11117   */\n      0x596f7520617265206e6f7420746865206f776e65722e00000000000000000000\n        /* \"#utility.yul\":11089:11090   */\n      0x00\n        /* \"#utility.yul\":11081:11087   */\n      dup3\n        /* \"#utility.yul\":11077:11091   */\n      add\n        /* \"#utility.yul\":11070:11118   */\n      mstore\n        /* \"#utility.yul\":10953:11125   */\n      pop\n      jump\t// out\n        /* \"#utility.yul\":11131:11299   */\n    tag_139:\n        /* \"#utility.yul\":11271:11291   */\n      0x496e636f72726563742061646472657373210000000000000000000000000000\n        /* \"#utility.yul\":11267:11268   */\n      0x00\n        /* \"#utility.yul\":11259:11265   */\n      dup3\n        /* \"#utility.yul\":11255:11269   */\n      add\n        /* \"#utility.yul\":11248:11292   */\n      mstore\n        /* \"#utility.yul\":11131:11299   */\n      pop\n      jump\t// out\n        /* \"#utility.yul\":11305:11427   */\n    tag_67:\n        /* \"#utility.yul\":11378:11402   */\n      tag_206\n        /* \"#utility.yul\":11396:11401   */\n      dup2\n        /* \"#utility.yul\":11378:11402   */\n      tag_175\n      jump\t// in\n    tag_206:\n        /* \"#utility.yul\":11371:11376   */\n      dup2\n        /* \"#utility.yul\":11368:11403   */\n      eq\n        /* \"#utility.yul\":11358:11421   */\n      tag_207\n      jumpi\n        /* \"#utility.yul\":11417:11418   */\n      0x00\n        /* \"#utility.yul\":11414:11415   */\n      dup1\n        /* \"#utility.yul\":11407:11419   */\n      revert\n        /* \"#utility.yul\":11358:11421   */\n    tag_207:\n        /* \"#utility.yul\":11305:11427   */\n      pop\n      jump\t// out\n        /* \"#utility.yul\":11433:11549   */\n    tag_71:\n        /* \"#utility.yul\":11503:11524   */\n      tag_209\n        /* \"#utility.yul\":11518:11523   */\n      dup2\n        /* \"#utility.yul\":11503:11524   */\n      tag_179\n      jump\t// in\n    tag_209:\n        /* \"#utility.yul\":11496:11501   */\n      dup2\n        /* \"#utility.yul\":11493:11525   */\n      eq\n        /* \"#utility.yul\":11483:11543   */\n      tag_210\n      jumpi\n        /* \"#utility.yul\":11539:11540   */\n      0x00\n        /* \"#utility.yul\":11536:11537   */\n      dup1\n        /* \"#utility.yul\":11529:11541   */\n      revert\n        /* \"#utility.yul\":11483:11543   */\n    tag_210:\n        /* \"#utility.yul\":11433:11549   */\n      pop\n      jump\t// out\n        /* \"#utility.yul\":11555:11677   */\n    tag_86:\n        /* \"#utility.yul\":11628:11652   */\n      tag_212\n        /* \"#utility.yul\":11646:11651   */\n      dup2\n        /* \"#utility.yul\":11628:11652   */\n      tag_143\n      jump\t// in\n    tag_212:\n        /* \"#utility.yul\":11621:11626   */\n      dup2\n        /* \"#utility.yul\":11618:11653   */\n      eq\n        /* \"#utility.yul\":11608:11671   */\n      tag_213\n      jumpi\n        /* \"#utility.yul\":11667:11668   */\n      0x00\n        /* \"#utility.yul\":11664:11665   */\n      dup1\n        /* \"#utility.yul\":11657:11669   */\n      revert\n        /* \"#utility.yul\":11608:11671   */\n    tag_213:\n        /* \"#utility.yul\":11555:11677   */\n      pop\n      jump\t// out\n\n    auxdata: 0xa26469706673582212206e34e8675df3a6bc155a228a3b644d1df1d3fb8454ba06b45c472c16a80ca79364736f6c63430008070033\n}\n",
				"bytecode": {
					"linkReferences": {},
					"object": "608060405234801561001057600080fd5b50336000806101000a81548173ffffffffffffffffffffffffffffffffffffffff021916908373ffffffffffffffffffffffffffffffffffffffff160217905550610c87806100606000396000f3fe608060405234801561001057600080fd5b50600436106100365760003560e01c80633d5c83d41461003b57806388da06f914610057575b600080fd5b61005560048036038101906100509190610724565b610073565b005b610071600480360381019061006c919061068a565b61027c565b005b600081116100b6576040517f08c379a00000000000000000000000000000000000000000000000000000000081526004016100ad906108d4565b60405180910390fd5b6000600182815481106100cc576100cb610b38565b5b90600052602060002090600502019050600015158160020160009054906101000a900460ff1615151415610135577fd53ecb21746e36da81ddab5bdcf35c93b4e7adb500e38a0ce440f729de177ac58160010160405161012c9190610882565b60405180910390a15b600015158160020160019054906101000a900460ff161515141561018e577fd53ecb21746e36da81ddab5bdcf35c93b4e7adb500e38a0ce440f729de177ac5816001016040516101859190610882565b60405180910390a15b600015158160020160029054906101000a900460ff16151514156101e7577fd53ecb21746e36da81ddab5bdcf35c93b4e7adb500e38a0ce440f729de177ac5816001016040516101de9190610882565b60405180910390a15b426203f48082600301546101fb91906109a3565b111561023c577fd53ecb21746e36da81ddab5bdcf35c93b4e7adb500e38a0ce440f729de177ac5816001016040516102339190610882565b60405180910390a15b7f6fd4822621c89040f0ea90264351e7f95d334eb76155286b2c1b6732331ff93c81600101426040516102709291906108a4565b60405180910390a15050565b8560008054906101000a900473ffffffffffffffffffffffffffffffffffffffff1673ffffffffffffffffffffffffffffffffffffffff163373ffffffffffffffffffffffffffffffffffffffff161461030b576040517f08c379a0000000000000000000000000000000000000000000000000000000008152600401610302906108f4565b60405180910390fd5b600073ffffffffffffffffffffffffffffffffffffffff168173ffffffffffffffffffffffffffffffffffffffff16141561037b576040517f08c379a000000000000000000000000000000000000000000000000000000000815260040161037290610914565b60405180910390fd5b6000806001805490501461039f576001808054905061039a91906109f9565b6103a6565b6001805490505b905060006040518060e0016040528083815260200189898080601f016020809104026020016040519081016040528093929190818152602001838380828437600081840152601f19601f8201169050808301925050505050505081526020018715158152602001861515815260200185151581526020014281526020016203f4804261043291906109a3565b81525090506001819080600181540180825580915050600190039060005260206000209060050201600090919091909150600082015181600001556020820151816001019080519060200190610489929190610552565b5060408201518160020160006101000a81548160ff02191690831515021790555060608201518160020160016101000a81548160ff02191690831515021790555060808201518160020160026101000a81548160ff02191690831515021790555060a0820151816003015560c0820151816004015550507ffafb7311fc57ca8a55073f63725e888b4250c799d77ae873970d65ac08c5917a816000015182602001518360a0015160405161053f93929190610934565b60405180910390a1505050505050505050565b82805461055e90610aa8565b90600052602060002090601f01602090048101928261058057600085556105c7565b82601f1061059957805160ff19168380011785556105c7565b828001600101855582156105c7579182015b828111156105c65782518255916020019190600101906105ab565b5b5090506105d491906105d8565b5090565b5b808211156105f15760008160009055506001016105d9565b5090565b60008135905061060481610c0c565b92915050565b60008135905061061981610c23565b92915050565b60008083601f84011261063557610634610b6c565b5b8235905067ffffffffffffffff81111561065257610651610b67565b5b60208301915083600182028301111561066e5761066d610b71565b5b9250929050565b60008135905061068481610c3a565b92915050565b60008060008060008060a087890312156106a7576106a6610b7b565b5b60006106b589828a016105f5565b965050602087013567ffffffffffffffff8111156106d6576106d5610b76565b5b6106e289828a0161061f565b955095505060406106f589828a0161060a565b935050606061070689828a0161060a565b925050608061071789828a0161060a565b9150509295509295509295565b60006020828403121561073a57610739610b7b565b5b600061074884828501610675565b91505092915050565b600061075c82610987565b6107668185610992565b9350610776818560208601610a75565b61077f81610b80565b840191505092915050565b6000815461079781610aa8565b6107a18186610992565b945060018216600081146107bc57600181146107ce57610801565b60ff1983168652602086019350610801565b6107d785610972565b60005b838110156107f9578154818901526001820191506020810190506107da565b808801955050505b50505092915050565b6000610817600d83610992565b915061082282610b91565b602082019050919050565b600061083a601683610992565b915061084582610bba565b602082019050919050565b600061085d601283610992565b915061086882610be3565b602082019050919050565b61087c81610a6b565b82525050565b6000602082019050818103600083015261089c818461078a565b905092915050565b600060408201905081810360008301526108be818561078a565b90506108cd6020830184610873565b9392505050565b600060208201905081810360008301526108ed8161080a565b9050919050565b6000602082019050818103600083015261090d8161082d565b9050919050565b6000602082019050818103600083015261092d81610850565b9050919050565b60006060820190506109496000830186610873565b818103602083015261095b8185610751565b905061096a6040830184610873565b949350505050565b60008190508160005260206000209050919050565b600081519050919050565b600082825260208201905092915050565b60006109ae82610a6b565b91506109b983610a6b565b9250827fffffffffffffffffffffffffffffffffffffffffffffffffffffffffffffffff038211156109ee576109ed610ada565b5b828201905092915050565b6000610a0482610a6b565b9150610a0f83610a6b565b925082821015610a2257610a21610ada565b5b828203905092915050565b6000610a3882610a4b565b9050919050565b60008115159050919050565b600073ffffffffffffffffffffffffffffffffffffffff82169050919050565b6000819050919050565b60005b83811015610a93578082015181840152602081019050610a78565b83811115610aa2576000848401525b50505050565b60006002820490506001821680610ac057607f821691505b60208210811415610ad457610ad3610b09565b5b50919050565b7f4e487b7100000000000000000000000000000000000000000000000000000000600052601160045260246000fd5b7f4e487b7100000000000000000000000000000000000000000000000000000000600052602260045260246000fd5b7f4e487b7100000000000000000000000000000000000000000000000000000000600052603260045260246000fd5b600080fd5b600080fd5b600080fd5b600080fd5b600080fd5b6000601f19601f8301169050919050565b7f496e636f72726563742069642e00000000000000000000000000000000000000600082015250565b7f596f7520617265206e6f7420746865206f776e65722e00000000000000000000600082015250565b7f496e636f72726563742061646472657373210000000000000000000000000000600082015250565b610c1581610a2d565b8114610c2057600080fd5b50565b610c2c81610a3f565b8114610c3757600080fd5b50565b610c4381610a6b565b8114610c4e57600080fd5b5056fea26469706673582212206e34e8675df3a6bc155a228a3b644d1df1d3fb8454ba06b45c472c16a80ca79364736f6c63430008070033",
					"opcodes": "PUSH1 0x80 PUSH1 0x40 MSTORE CALLVALUE DUP1 ISZERO PUSH2 0x10 JUMPI PUSH1 0x0 DUP1 REVERT JUMPDEST POP CALLER PUSH1 0x0 DUP1 PUSH2 0x100 EXP DUP2 SLOAD DUP2 PUSH20 0xFFFFFFFFFFFFFFFFFFFFFFFFFFFFFFFFFFFFFFFF MUL NOT AND SWAP1 DUP4 PUSH20 0xFFFFFFFFFFFFFFFFFFFFFFFFFFFFFFFFFFFFFFFF AND MUL OR SWAP1 SSTORE POP PUSH2 0xC87 DUP1 PUSH2 0x60 PUSH1 0x0 CODECOPY PUSH1 0x0 RETURN INVALID PUSH1 0x80 PUSH1 0x40 MSTORE CALLVALUE DUP1 ISZERO PUSH2 0x10 JUMPI PUSH1 0x0 DUP1 REVERT JUMPDEST POP PUSH1 0x4 CALLDATASIZE LT PUSH2 0x36 JUMPI PUSH1 0x0 CALLDATALOAD PUSH1 0xE0 SHR DUP1 PUSH4 0x3D5C83D4 EQ PUSH2 0x3B JUMPI DUP1 PUSH4 0x88DA06F9 EQ PUSH2 0x57 JUMPI JUMPDEST PUSH1 0x0 DUP1 REVERT JUMPDEST PUSH2 0x55 PUSH1 0x4 DUP1 CALLDATASIZE SUB DUP2 ADD SWAP1 PUSH2 0x50 SWAP2 SWAP1 PUSH2 0x724 JUMP JUMPDEST PUSH2 0x73 JUMP JUMPDEST STOP JUMPDEST PUSH2 0x71 PUSH1 0x4 DUP1 CALLDATASIZE SUB DUP2 ADD SWAP1 PUSH2 0x6C SWAP2 SWAP1 PUSH2 0x68A JUMP JUMPDEST PUSH2 0x27C JUMP JUMPDEST STOP JUMPDEST PUSH1 0x0 DUP2 GT PUSH2 0xB6 JUMPI PUSH1 0x40 MLOAD PUSH32 0x8C379A000000000000000000000000000000000000000000000000000000000 DUP2 MSTORE PUSH1 0x4 ADD PUSH2 0xAD SWAP1 PUSH2 0x8D4 JUMP JUMPDEST PUSH1 0x40 MLOAD DUP1 SWAP2 SUB SWAP1 REVERT JUMPDEST PUSH1 0x0 PUSH1 0x1 DUP3 DUP2 SLOAD DUP2 LT PUSH2 0xCC JUMPI PUSH2 0xCB PUSH2 0xB38 JUMP JUMPDEST JUMPDEST SWAP1 PUSH1 0x0 MSTORE PUSH1 0x20 PUSH1 0x0 KECCAK256 SWAP1 PUSH1 0x5 MUL ADD SWAP1 POP PUSH1 0x0 ISZERO ISZERO DUP2 PUSH1 0x2 ADD PUSH1 0x0 SWAP1 SLOAD SWAP1 PUSH2 0x100 EXP SWAP1 DIV PUSH1 0xFF AND ISZERO ISZERO EQ ISZERO PUSH2 0x135 JUMPI PUSH32 0xD53ECB21746E36DA81DDAB5BDCF35C93B4E7ADB500E38A0CE440F729DE177AC5 DUP2 PUSH1 0x1 ADD PUSH1 0x40 MLOAD PUSH2 0x12C SWAP2 SWAP1 PUSH2 0x882 JUMP JUMPDEST PUSH1 0x40 MLOAD DUP1 SWAP2 SUB SWAP1 LOG1 JUMPDEST PUSH1 0x0 ISZERO ISZERO DUP2 PUSH1 0x2 ADD PUSH1 0x1 SWAP1 SLOAD SWAP1 PUSH2 0x100 EXP SWAP1 DIV PUSH1 0xFF AND ISZERO ISZERO EQ ISZERO PUSH2 0x18E JUMPI PUSH32 0xD53ECB21746E36DA81DDAB5BDCF35C93B4E7ADB500E38A0CE440F729DE177AC5 DUP2 PUSH1 0x1 ADD PUSH1 0x40 MLOAD PUSH2 0x185 SWAP2 SWAP1 PUSH2 0x882 JUMP JUMPDEST PUSH1 0x40 MLOAD DUP1 SWAP2 SUB SWAP1 LOG1 JUMPDEST PUSH1 0x0 ISZERO ISZERO DUP2 PUSH1 0x2 ADD PUSH1 0x2 SWAP1 SLOAD SWAP1 PUSH2 0x100 EXP SWAP1 DIV PUSH1 0xFF AND ISZERO ISZERO EQ ISZERO PUSH2 0x1E7 JUMPI PUSH32 0xD53ECB21746E36DA81DDAB5BDCF35C93B4E7ADB500E38A0CE440F729DE177AC5 DUP2 PUSH1 0x1 ADD PUSH1 0x40 MLOAD PUSH2 0x1DE SWAP2 SWAP1 PUSH2 0x882 JUMP JUMPDEST PUSH1 0x40 MLOAD DUP1 SWAP2 SUB SWAP1 LOG1 JUMPDEST TIMESTAMP PUSH3 0x3F480 DUP3 PUSH1 0x3 ADD SLOAD PUSH2 0x1FB SWAP2 SWAP1 PUSH2 0x9A3 JUMP JUMPDEST GT ISZERO PUSH2 0x23C JUMPI PUSH32 0xD53ECB21746E36DA81DDAB5BDCF35C93B4E7ADB500E38A0CE440F729DE177AC5 DUP2 PUSH1 0x1 ADD PUSH1 0x40 MLOAD PUSH2 0x233 SWAP2 SWAP1 PUSH2 0x882 JUMP JUMPDEST PUSH1 0x40 MLOAD DUP1 SWAP2 SUB SWAP1 LOG1 JUMPDEST PUSH32 0x6FD4822621C89040F0EA90264351E7F95D334EB76155286B2C1B6732331FF93C DUP2 PUSH1 0x1 ADD TIMESTAMP PUSH1 0x40 MLOAD PUSH2 0x270 SWAP3 SWAP2 SWAP1 PUSH2 0x8A4 JUMP JUMPDEST PUSH1 0x40 MLOAD DUP1 SWAP2 SUB SWAP1 LOG1 POP POP JUMP JUMPDEST DUP6 PUSH1 0x0 DUP1 SLOAD SWAP1 PUSH2 0x100 EXP SWAP1 DIV PUSH20 0xFFFFFFFFFFFFFFFFFFFFFFFFFFFFFFFFFFFFFFFF AND PUSH20 0xFFFFFFFFFFFFFFFFFFFFFFFFFFFFFFFFFFFFFFFF AND CALLER PUSH20 0xFFFFFFFFFFFFFFFFFFFFFFFFFFFFFFFFFFFFFFFF AND EQ PUSH2 0x30B JUMPI PUSH1 0x40 MLOAD PUSH32 0x8C379A000000000000000000000000000000000000000000000000000000000 DUP2 MSTORE PUSH1 0x4 ADD PUSH2 0x302 SWAP1 PUSH2 0x8F4 JUMP JUMPDEST PUSH1 0x40 MLOAD DUP1 SWAP2 SUB SWAP1 REVERT JUMPDEST PUSH1 0x0 PUSH20 0xFFFFFFFFFFFFFFFFFFFFFFFFFFFFFFFFFFFFFFFF AND DUP2 PUSH20 0xFFFFFFFFFFFFFFFFFFFFFFFFFFFFFFFFFFFFFFFF AND EQ ISZERO PUSH2 0x37B JUMPI PUSH1 0x40 MLOAD PUSH32 0x8C379A000000000000000000000000000000000000000000000000000000000 DUP2 MSTORE PUSH1 0x4 ADD PUSH2 0x372 SWAP1 PUSH2 0x914 JUMP JUMPDEST PUSH1 0x40 MLOAD DUP1 SWAP2 SUB SWAP1 REVERT JUMPDEST PUSH1 0x0 DUP1 PUSH1 0x1 DUP1 SLOAD SWAP1 POP EQ PUSH2 0x39F JUMPI PUSH1 0x1 DUP1 DUP1 SLOAD SWAP1 POP PUSH2 0x39A SWAP2 SWAP1 PUSH2 0x9F9 JUMP JUMPDEST PUSH2 0x3A6 JUMP JUMPDEST PUSH1 0x1 DUP1 SLOAD SWAP1 POP JUMPDEST SWAP1 POP PUSH1 0x0 PUSH1 0x40 MLOAD DUP1 PUSH1 0xE0 ADD PUSH1 0x40 MSTORE DUP1 DUP4 DUP2 MSTORE PUSH1 0x20 ADD DUP10 DUP10 DUP1 DUP1 PUSH1 0x1F ADD PUSH1 0x20 DUP1 SWAP2 DIV MUL PUSH1 0x20 ADD PUSH1 0x40 MLOAD SWAP1 DUP2 ADD PUSH1 0x40 MSTORE DUP1 SWAP4 SWAP3 SWAP2 SWAP1 DUP2 DUP2 MSTORE PUSH1 0x20 ADD DUP4 DUP4 DUP1 DUP3 DUP5 CALLDATACOPY PUSH1 0x0 DUP2 DUP5 ADD MSTORE PUSH1 0x1F NOT PUSH1 0x1F DUP3 ADD AND SWAP1 POP DUP1 DUP4 ADD SWAP3 POP POP POP POP POP POP POP DUP2 MSTORE PUSH1 0x20 ADD DUP8 ISZERO ISZERO DUP2 MSTORE PUSH1 0x20 ADD DUP7 ISZERO ISZERO DUP2 MSTORE PUSH1 0x20 ADD DUP6 ISZERO ISZERO DUP2 MSTORE PUSH1 0x20 ADD TIMESTAMP DUP2 MSTORE PUSH1 0x20 ADD PUSH3 0x3F480 TIMESTAMP PUSH2 0x432 SWAP2 SWAP1 PUSH2 0x9A3 JUMP JUMPDEST DUP2 MSTORE POP SWAP1 POP PUSH1 0x1 DUP2 SWAP1 DUP1 PUSH1 0x1 DUP2 SLOAD ADD DUP1 DUP3 SSTORE DUP1 SWAP2 POP POP PUSH1 0x1 SWAP1 SUB SWAP1 PUSH1 0x0 MSTORE PUSH1 0x20 PUSH1 0x0 KECCAK256 SWAP1 PUSH1 0x5 MUL ADD PUSH1 0x0 SWAP1 SWAP2 SWAP1 SWAP2 SWAP1 SWAP2 POP PUSH1 0x0 DUP3 ADD MLOAD DUP2 PUSH1 0x0 ADD SSTORE PUSH1 0x20 DUP3 ADD MLOAD DUP2 PUSH1 0x1 ADD SWAP1 DUP1 MLOAD SWAP1 PUSH1 0x20 ADD SWAP1 PUSH2 0x489 SWAP3 SWAP2 SWAP1 PUSH2 0x552 JUMP JUMPDEST POP PUSH1 0x40 DUP3 ADD MLOAD DUP2 PUSH1 0x2 ADD PUSH1 0x0 PUSH2 0x100 EXP DUP2 SLOAD DUP2 PUSH1 0xFF MUL NOT AND SWAP1 DUP4 ISZERO ISZERO MUL OR SWAP1 SSTORE POP PUSH1 0x60 DUP3 ADD MLOAD DUP2 PUSH1 0x2 ADD PUSH1 0x1 PUSH2 0x100 EXP DUP2 SLOAD DUP2 PUSH1 0xFF MUL NOT AND SWAP1 DUP4 ISZERO ISZERO MUL OR SWAP1 SSTORE POP PUSH1 0x80 DUP3 ADD MLOAD DUP2 PUSH1 0x2 ADD PUSH1 0x2 PUSH2 0x100 EXP DUP2 SLOAD DUP2 PUSH1 0xFF MUL NOT AND SWAP1 DUP4 ISZERO ISZERO MUL OR SWAP1 SSTORE POP PUSH1 0xA0 DUP3 ADD MLOAD DUP2 PUSH1 0x3 ADD SSTORE PUSH1 0xC0 DUP3 ADD MLOAD DUP2 PUSH1 0x4 ADD SSTORE POP POP PUSH32 0xFAFB7311FC57CA8A55073F63725E888B4250C799D77AE873970D65AC08C5917A DUP2 PUSH1 0x0 ADD MLOAD DUP3 PUSH1 0x20 ADD MLOAD DUP4 PUSH1 0xA0 ADD MLOAD PUSH1 0x40 MLOAD PUSH2 0x53F SWAP4 SWAP3 SWAP2 SWAP1 PUSH2 0x934 JUMP JUMPDEST PUSH1 0x40 MLOAD DUP1 SWAP2 SUB SWAP1 LOG1 POP POP POP POP POP POP POP POP POP JUMP JUMPDEST DUP3 DUP1 SLOAD PUSH2 0x55E SWAP1 PUSH2 0xAA8 JUMP JUMPDEST SWAP1 PUSH1 0x0 MSTORE PUSH1 0x20 PUSH1 0x0 KECCAK256 SWAP1 PUSH1 0x1F ADD PUSH1 0x20 SWAP1 DIV DUP2 ADD SWAP3 DUP3 PUSH2 0x580 JUMPI PUSH1 0x0 DUP6 SSTORE PUSH2 0x5C7 JUMP JUMPDEST DUP3 PUSH1 0x1F LT PUSH2 0x599 JUMPI DUP1 MLOAD PUSH1 0xFF NOT AND DUP4 DUP1 ADD OR DUP6 SSTORE PUSH2 0x5C7 JUMP JUMPDEST DUP3 DUP1 ADD PUSH1 0x1 ADD DUP6 SSTORE DUP3 ISZERO PUSH2 0x5C7 JUMPI SWAP2 DUP3 ADD JUMPDEST DUP3 DUP2 GT ISZERO PUSH2 0x5C6 JUMPI DUP3 MLOAD DUP3 SSTORE SWAP2 PUSH1 0x20 ADD SWAP2 SWAP1 PUSH1 0x1 ADD SWAP1 PUSH2 0x5AB JUMP JUMPDEST JUMPDEST POP SWAP1 POP PUSH2 0x5D4 SWAP2 SWAP1 PUSH2 0x5D8 JUMP JUMPDEST POP SWAP1 JUMP JUMPDEST JUMPDEST DUP1 DUP3 GT ISZERO PUSH2 0x5F1 JUMPI PUSH1 0x0 DUP2 PUSH1 0x0 SWAP1 SSTORE POP PUSH1 0x1 ADD PUSH2 0x5D9 JUMP JUMPDEST POP SWAP1 JUMP JUMPDEST PUSH1 0x0 DUP2 CALLDATALOAD SWAP1 POP PUSH2 0x604 DUP2 PUSH2 0xC0C JUMP JUMPDEST SWAP3 SWAP2 POP POP JUMP JUMPDEST PUSH1 0x0 DUP2 CALLDATALOAD SWAP1 POP PUSH2 0x619 DUP2 PUSH2 0xC23 JUMP JUMPDEST SWAP3 SWAP2 POP POP JUMP JUMPDEST PUSH1 0x0 DUP1 DUP4 PUSH1 0x1F DUP5 ADD SLT PUSH2 0x635 JUMPI PUSH2 0x634 PUSH2 0xB6C JUMP JUMPDEST JUMPDEST DUP3 CALLDATALOAD SWAP1 POP PUSH8 0xFFFFFFFFFFFFFFFF DUP2 GT ISZERO PUSH2 0x652 JUMPI PUSH2 0x651 PUSH2 0xB67 JUMP JUMPDEST JUMPDEST PUSH1 0x20 DUP4 ADD SWAP2 POP DUP4 PUSH1 0x1 DUP3 MUL DUP4 ADD GT ISZERO PUSH2 0x66E JUMPI PUSH2 0x66D PUSH2 0xB71 JUMP JUMPDEST JUMPDEST SWAP3 POP SWAP3 SWAP1 POP JUMP JUMPDEST PUSH1 0x0 DUP2 CALLDATALOAD SWAP1 POP PUSH2 0x684 DUP2 PUSH2 0xC3A JUMP JUMPDEST SWAP3 SWAP2 POP POP JUMP JUMPDEST PUSH1 0x0 DUP1 PUSH1 0x0 DUP1 PUSH1 0x0 DUP1 PUSH1 0xA0 DUP8 DUP10 SUB SLT ISZERO PUSH2 0x6A7 JUMPI PUSH2 0x6A6 PUSH2 0xB7B JUMP JUMPDEST JUMPDEST PUSH1 0x0 PUSH2 0x6B5 DUP10 DUP3 DUP11 ADD PUSH2 0x5F5 JUMP JUMPDEST SWAP7 POP POP PUSH1 0x20 DUP8 ADD CALLDATALOAD PUSH8 0xFFFFFFFFFFFFFFFF DUP2 GT ISZERO PUSH2 0x6D6 JUMPI PUSH2 0x6D5 PUSH2 0xB76 JUMP JUMPDEST JUMPDEST PUSH2 0x6E2 DUP10 DUP3 DUP11 ADD PUSH2 0x61F JUMP JUMPDEST SWAP6 POP SWAP6 POP POP PUSH1 0x40 PUSH2 0x6F5 DUP10 DUP3 DUP11 ADD PUSH2 0x60A JUMP JUMPDEST SWAP4 POP POP PUSH1 0x60 PUSH2 0x706 DUP10 DUP3 DUP11 ADD PUSH2 0x60A JUMP JUMPDEST SWAP3 POP POP PUSH1 0x80 PUSH2 0x717 DUP10 DUP3 DUP11 ADD PUSH2 0x60A JUMP JUMPDEST SWAP2 POP POP SWAP3 SWAP6 POP SWAP3 SWAP6 POP SWAP3 SWAP6 JUMP JUMPDEST PUSH1 0x0 PUSH1 0x20 DUP3 DUP5 SUB SLT ISZERO PUSH2 0x73A JUMPI PUSH2 0x739 PUSH2 0xB7B JUMP JUMPDEST JUMPDEST PUSH1 0x0 PUSH2 0x748 DUP5 DUP3 DUP6 ADD PUSH2 0x675 JUMP JUMPDEST SWAP2 POP POP SWAP3 SWAP2 POP POP JUMP JUMPDEST PUSH1 0x0 PUSH2 0x75C DUP3 PUSH2 0x987 JUMP JUMPDEST PUSH2 0x766 DUP2 DUP6 PUSH2 0x992 JUMP JUMPDEST SWAP4 POP PUSH2 0x776 DUP2 DUP6 PUSH1 0x20 DUP7 ADD PUSH2 0xA75 JUMP JUMPDEST PUSH2 0x77F DUP2 PUSH2 0xB80 JUMP JUMPDEST DUP5 ADD SWAP2 POP POP SWAP3 SWAP2 POP POP JUMP JUMPDEST PUSH1 0x0 DUP2 SLOAD PUSH2 0x797 DUP2 PUSH2 0xAA8 JUMP JUMPDEST PUSH2 0x7A1 DUP2 DUP7 PUSH2 0x992 JUMP JUMPDEST SWAP5 POP PUSH1 0x1 DUP3 AND PUSH1 0x0 DUP2 EQ PUSH2 0x7BC JUMPI PUSH1 0x1 DUP2 EQ PUSH2 0x7CE JUMPI PUSH2 0x801 JUMP JUMPDEST PUSH1 0xFF NOT DUP4 AND DUP7 MSTORE PUSH1 0x20 DUP7 ADD SWAP4 POP PUSH2 0x801 JUMP JUMPDEST PUSH2 0x7D7 DUP6 PUSH2 0x972 JUMP JUMPDEST PUSH1 0x0 JUMPDEST DUP4 DUP2 LT ISZERO PUSH2 0x7F9 JUMPI DUP2 SLOAD DUP2 DUP10 ADD MSTORE PUSH1 0x1 DUP3 ADD SWAP2 POP PUSH1 0x20 DUP2 ADD SWAP1 POP PUSH2 0x7DA JUMP JUMPDEST DUP1 DUP9 ADD SWAP6 POP POP POP JUMPDEST POP POP POP SWAP3 SWAP2 POP POP JUMP JUMPDEST PUSH1 0x0 PUSH2 0x817 PUSH1 0xD DUP4 PUSH2 0x992 JUMP JUMPDEST SWAP2 POP PUSH2 0x822 DUP3 PUSH2 0xB91 JUMP JUMPDEST PUSH1 0x20 DUP3 ADD SWAP1 POP SWAP2 SWAP1 POP JUMP JUMPDEST PUSH1 0x0 PUSH2 0x83A PUSH1 0x16 DUP4 PUSH2 0x992 JUMP JUMPDEST SWAP2 POP PUSH2 0x845 DUP3 PUSH2 0xBBA JUMP JUMPDEST PUSH1 0x20 DUP3 ADD SWAP1 POP SWAP2 SWAP1 POP JUMP JUMPDEST PUSH1 0x0 PUSH2 0x85D PUSH1 0x12 DUP4 PUSH2 0x992 JUMP JUMPDEST SWAP2 POP PUSH2 0x868 DUP3 PUSH2 0xBE3 JUMP JUMPDEST PUSH1 0x20 DUP3 ADD SWAP1 POP SWAP2 SWAP1 POP JUMP JUMPDEST PUSH2 0x87C DUP2 PUSH2 0xA6B JUMP JUMPDEST DUP3 MSTORE POP POP JUMP JUMPDEST PUSH1 0x0 PUSH1 0x20 DUP3 ADD SWAP1 POP DUP2 DUP2 SUB PUSH1 0x0 DUP4 ADD MSTORE PUSH2 0x89C DUP2 DUP5 PUSH2 0x78A JUMP JUMPDEST SWAP1 POP SWAP3 SWAP2 POP POP JUMP JUMPDEST PUSH1 0x0 PUSH1 0x40 DUP3 ADD SWAP1 POP DUP2 DUP2 SUB PUSH1 0x0 DUP4 ADD MSTORE PUSH2 0x8BE DUP2 DUP6 PUSH2 0x78A JUMP JUMPDEST SWAP1 POP PUSH2 0x8CD PUSH1 0x20 DUP4 ADD DUP5 PUSH2 0x873 JUMP JUMPDEST SWAP4 SWAP3 POP POP POP JUMP JUMPDEST PUSH1 0x0 PUSH1 0x20 DUP3 ADD SWAP1 POP DUP2 DUP2 SUB PUSH1 0x0 DUP4 ADD MSTORE PUSH2 0x8ED DUP2 PUSH2 0x80A JUMP JUMPDEST SWAP1 POP SWAP2 SWAP1 POP JUMP JUMPDEST PUSH1 0x0 PUSH1 0x20 DUP3 ADD SWAP1 POP DUP2 DUP2 SUB PUSH1 0x0 DUP4 ADD MSTORE PUSH2 0x90D DUP2 PUSH2 0x82D JUMP JUMPDEST SWAP1 POP SWAP2 SWAP1 POP JUMP JUMPDEST PUSH1 0x0 PUSH1 0x20 DUP3 ADD SWAP1 POP DUP2 DUP2 SUB PUSH1 0x0 DUP4 ADD MSTORE PUSH2 0x92D DUP2 PUSH2 0x850 JUMP JUMPDEST SWAP1 POP SWAP2 SWAP1 POP JUMP JUMPDEST PUSH1 0x0 PUSH1 0x60 DUP3 ADD SWAP1 POP PUSH2 0x949 PUSH1 0x0 DUP4 ADD DUP7 PUSH2 0x873 JUMP JUMPDEST DUP2 DUP2 SUB PUSH1 0x20 DUP4 ADD MSTORE PUSH2 0x95B DUP2 DUP6 PUSH2 0x751 JUMP JUMPDEST SWAP1 POP PUSH2 0x96A PUSH1 0x40 DUP4 ADD DUP5 PUSH2 0x873 JUMP JUMPDEST SWAP5 SWAP4 POP POP POP POP JUMP JUMPDEST PUSH1 0x0 DUP2 SWAP1 POP DUP2 PUSH1 0x0 MSTORE PUSH1 0x20 PUSH1 0x0 KECCAK256 SWAP1 POP SWAP2 SWAP1 POP JUMP JUMPDEST PUSH1 0x0 DUP2 MLOAD SWAP1 POP SWAP2 SWAP1 POP JUMP JUMPDEST PUSH1 0x0 DUP3 DUP3 MSTORE PUSH1 0x20 DUP3 ADD SWAP1 POP SWAP3 SWAP2 POP POP JUMP JUMPDEST PUSH1 0x0 PUSH2 0x9AE DUP3 PUSH2 0xA6B JUMP JUMPDEST SWAP2 POP PUSH2 0x9B9 DUP4 PUSH2 0xA6B JUMP JUMPDEST SWAP3 POP DUP3 PUSH32 0xFFFFFFFFFFFFFFFFFFFFFFFFFFFFFFFFFFFFFFFFFFFFFFFFFFFFFFFFFFFFFFFF SUB DUP3 GT ISZERO PUSH2 0x9EE JUMPI PUSH2 0x9ED PUSH2 0xADA JUMP JUMPDEST JUMPDEST DUP3 DUP3 ADD SWAP1 POP SWAP3 SWAP2 POP POP JUMP JUMPDEST PUSH1 0x0 PUSH2 0xA04 DUP3 PUSH2 0xA6B JUMP JUMPDEST SWAP2 POP PUSH2 0xA0F DUP4 PUSH2 0xA6B JUMP JUMPDEST SWAP3 POP DUP3 DUP3 LT ISZERO PUSH2 0xA22 JUMPI PUSH2 0xA21 PUSH2 0xADA JUMP JUMPDEST JUMPDEST DUP3 DUP3 SUB SWAP1 POP SWAP3 SWAP2 POP POP JUMP JUMPDEST PUSH1 0x0 PUSH2 0xA38 DUP3 PUSH2 0xA4B JUMP JUMPDEST SWAP1 POP SWAP2 SWAP1 POP JUMP JUMPDEST PUSH1 0x0 DUP2 ISZERO ISZERO SWAP1 POP SWAP2 SWAP1 POP JUMP JUMPDEST PUSH1 0x0 PUSH20 0xFFFFFFFFFFFFFFFFFFFFFFFFFFFFFFFFFFFFFFFF DUP3 AND SWAP1 POP SWAP2 SWAP1 POP JUMP JUMPDEST PUSH1 0x0 DUP2 SWAP1 POP SWAP2 SWAP1 POP JUMP JUMPDEST PUSH1 0x0 JUMPDEST DUP4 DUP2 LT ISZERO PUSH2 0xA93 JUMPI DUP1 DUP3 ADD MLOAD DUP2 DUP5 ADD MSTORE PUSH1 0x20 DUP2 ADD SWAP1 POP PUSH2 0xA78 JUMP JUMPDEST DUP4 DUP2 GT ISZERO PUSH2 0xAA2 JUMPI PUSH1 0x0 DUP5 DUP5 ADD MSTORE JUMPDEST POP POP POP POP JUMP JUMPDEST PUSH1 0x0 PUSH1 0x2 DUP3 DIV SWAP1 POP PUSH1 0x1 DUP3 AND DUP1 PUSH2 0xAC0 JUMPI PUSH1 0x7F DUP3 AND SWAP2 POP JUMPDEST PUSH1 0x20 DUP3 LT DUP2 EQ ISZERO PUSH2 0xAD4 JUMPI PUSH2 0xAD3 PUSH2 0xB09 JUMP JUMPDEST JUMPDEST POP SWAP2 SWAP1 POP JUMP JUMPDEST PUSH32 0x4E487B7100000000000000000000000000000000000000000000000000000000 PUSH1 0x0 MSTORE PUSH1 0x11 PUSH1 0x4 MSTORE PUSH1 0x24 PUSH1 0x0 REVERT JUMPDEST PUSH32 0x4E487B7100000000000000000000000000000000000000000000000000000000 PUSH1 0x0 MSTORE PUSH1 0x22 PUSH1 0x4 MSTORE PUSH1 0x24 PUSH1 0x0 REVERT JUMPDEST PUSH32 0x4E487B7100000000000000000000000000000000000000000000000000000000 PUSH1 0x0 MSTORE PUSH1 0x32 PUSH1 0x4 MSTORE PUSH1 0x24 PUSH1 0x0 REVERT JUMPDEST PUSH1 0x0 DUP1 REVERT JUMPDEST PUSH1 0x0 DUP1 REVERT JUMPDEST PUSH1 0x0 DUP1 REVERT JUMPDEST PUSH1 0x0 DUP1 REVERT JUMPDEST PUSH1 0x0 DUP1 REVERT JUMPDEST PUSH1 0x0 PUSH1 0x1F NOT PUSH1 0x1F DUP4 ADD AND SWAP1 POP SWAP2 SWAP1 POP JUMP JUMPDEST PUSH32 0x496E636F72726563742069642E00000000000000000000000000000000000000 PUSH1 0x0 DUP3 ADD MSTORE POP JUMP JUMPDEST PUSH32 0x596F7520617265206E6F7420746865206F776E65722E00000000000000000000 PUSH1 0x0 DUP3 ADD MSTORE POP JUMP JUMPDEST PUSH32 0x496E636F72726563742061646472657373210000000000000000000000000000 PUSH1 0x0 DUP3 ADD MSTORE POP JUMP JUMPDEST PUSH2 0xC15 DUP2 PUSH2 0xA2D JUMP JUMPDEST DUP2 EQ PUSH2 0xC20 JUMPI PUSH1 0x0 DUP1 REVERT JUMPDEST POP JUMP JUMPDEST PUSH2 0xC2C DUP2 PUSH2 0xA3F JUMP JUMPDEST DUP2 EQ PUSH2 0xC37 JUMPI PUSH1 0x0 DUP1 REVERT JUMPDEST POP JUMP JUMPDEST PUSH2 0xC43 DUP2 PUSH2 0xA6B JUMP JUMPDEST DUP2 EQ PUSH2 0xC4E JUMPI PUSH1 0x0 DUP1 REVERT JUMPDEST POP JUMP INVALID LOG2 PUSH5 0x6970667358 0x22 SLT KECCAK256 PUSH15 0x34E8675DF3A6BC155A228A3B644D1D CALL 0xD3 0xFB DUP5 SLOAD 0xBA MOD 0xB4 0x5C SELFBALANCE 0x2C AND 0xA8 0xC 0xA7 SWAP4 PUSH5 0x736F6C6343 STOP ADDMOD SMOD STOP CALLER "
				},
				"gasEstimates": {
					"creation": {
						"codeDepositCost": "641400",
						"executionCost": "24942",
						"totalCost": "666342"
					},
					"external": {
						"addStudent(address,string,bool,bool,bool)": "infinite",
						"debtsAreDone(uint256)": "infinite"
					}
				},
				"methodIdentifiers": {
					"addStudent(address,string,bool,bool,bool)": "88da06f9",
					"debtsAreDone(uint256)": "3d5c83d4"
				}
			},
			"storageLayout": {
				"storage": [
					{
						"astId": 6,
						"contract": "contracts/Hometask.sol:DormitoryQuest",
						"label": "owner",
						"offset": 0,
						"slot": "0",
						"type": "t_address"
					},
					{
						"astId": 25,
						"contract": "contracts/Hometask.sol:DormitoryQuest",
						"label": "students",
						"offset": 0,
						"slot": "1",
						"type": "t_array(t_struct(Student)21_storage)dyn_storage"
					}
				],
				"types": {
					"t_address": {
						"encoding": "inplace",
						"label": "address",
						"numberOfBytes": "20"
					},
					"t_array(t_struct(Student)21_storage)dyn_storage": {
						"base": "t_struct(Student)21_storage",
						"encoding": "dynamic_array",
						"label": "struct DormitoryQuest.Student[]",
						"numberOfBytes": "32"
					},
					"t_bool": {
						"encoding": "inplace",
						"label": "bool",
						"numberOfBytes": "1"
					},
					"t_string_storage": {
						"encoding": "bytes",
						"label": "string",
						"numberOfBytes": "32"
					},
					"t_struct(Student)21_storage": {
						"encoding": "inplace",
						"label": "struct DormitoryQuest.Student",
						"members": [
							{
								"astId": 8,
								"contract": "contracts/Hometask.sol:DormitoryQuest",
								"label": "id",
								"offset": 0,
								"slot": "0",
								"type": "t_uint256"
							},
							{
								"astId": 10,
								"contract": "contracts/Hometask.sol:DormitoryQuest",
								"label": "fullName",
								"offset": 0,
								"slot": "1",
								"type": "t_string_storage"
							},
							{
								"astId": 12,
								"contract": "contracts/Hometask.sol:DormitoryQuest",
								"label": "sheetsDone",
								"offset": 0,
								"slot": "2",
								"type": "t_bool"
							},
							{
								"astId": 14,
								"contract": "contracts/Hometask.sol:DormitoryQuest",
								"label": "roomDone",
								"offset": 1,
								"slot": "2",
								"type": "t_bool"
							},
							{
								"astId": 16,
								"contract": "contracts/Hometask.sol:DormitoryQuest",
								"label": "booksDone",
								"offset": 2,
								"slot": "2",
								"type": "t_bool"
							},
							{
								"astId": 18,
								"contract": "contracts/Hometask.sol:DormitoryQuest",
								"label": "regDate",
								"offset": 0,
								"slot": "3",
								"type": "t_uint256"
							},
							{
								"astId": 20,
								"contract": "contracts/Hometask.sol:DormitoryQuest",
								"label": "deadlineDate",
								"offset": 0,
								"slot": "4",
								"type": "t_uint256"
							}
						],
						"numberOfBytes": "160"
					},
					"t_uint256": {
						"encoding": "inplace",
						"label": "uint256",
						"numberOfBytes": "32"
					}
				}
			},
			"userdoc": {
				"kind": "user",
				"methods": {},
				"version": 1
			}
		}
	}
}