{
	"contracts/Hometask.sol": {
		"DormitoryQuest": {
			"abi": [
				{
					"inputs": [],
					"stateMutability": "nonpayable",
					"type": "constructor"
				},
				{
					"anonymous": false,
					"inputs": [
						{
							"indexed": false,
							"internalType": "uint256",
							"name": "id",
							"type": "uint256"
						},
						{
							"indexed": false,
							"internalType": "string",
							"name": "name",
							"type": "string"
						},
						{
							"indexed": false,
							"internalType": "uint256",
							"name": "regDate",
							"type": "uint256"
						}
					],
					"name": "StudentAdded",
					"type": "event"
				},
				{
					"anonymous": false,
					"inputs": [
						{
							"indexed": false,
							"internalType": "string",
							"name": "name",
							"type": "string"
						},
						{
							"indexed": false,
							"internalType": "uint256",
							"name": "date",
							"type": "uint256"
						}
					],
					"name": "StudentEvicted",
					"type": "event"
				},
				{
					"anonymous": false,
					"inputs": [
						{
							"indexed": false,
							"internalType": "string",
							"name": "name",
							"type": "string"
						}
					],
					"name": "SummonsToArmyGiven",
					"type": "event"
				},
				{
					"inputs": [
						{
							"internalType": "string",
							"name": "_name",
							"type": "string"
						},
						{
							"internalType": "bool",
							"name": "_sheetsDone",
							"type": "bool"
						},
						{
							"internalType": "bool",
							"name": "_roomDone",
							"type": "bool"
						},
						{
							"internalType": "bool",
							"name": "_booksDone",
							"type": "bool"
						}
					],
					"name": "addStudent",
					"outputs": [],
					"stateMutability": "nonpayable",
					"type": "function"
				},
				{
					"inputs": [
						{
							"internalType": "uint256",
							"name": "id",
							"type": "uint256"
						}
					],
					"name": "debtsAreDone",
					"outputs": [],
					"stateMutability": "nonpayable",
					"type": "function"
				},
				{
					"inputs": [
						{
							"internalType": "uint256",
							"name": "",
							"type": "uint256"
						}
					],
					"name": "students",
					"outputs": [
						{
							"internalType": "uint256",
							"name": "id",
							"type": "uint256"
						},
						{
							"internalType": "string",
							"name": "fullName",
							"type": "string"
						},
						{
							"internalType": "bool",
							"name": "sheetsDone",
							"type": "bool"
						},
						{
							"internalType": "bool",
							"name": "roomDone",
							"type": "bool"
						},
						{
							"internalType": "bool",
							"name": "booksDone",
							"type": "bool"
						},
						{
							"internalType": "uint256",
							"name": "regDate",
							"type": "uint256"
						},
						{
							"internalType": "uint256",
							"name": "deadlineDate",
							"type": "uint256"
						}
					],
					"stateMutability": "view",
					"type": "function"
				}
			],
			"devdoc": {
				"kind": "dev",
				"methods": {},
				"version": 1
			},
			"evm": {
				"assembly": "    /* \"contracts/Hometask.sol\":62:1982  contract DormitoryQuest {... */\n  mstore(0x40, 0x80)\n    /* \"contracts/Hometask.sol\":546:597  constructor() {... */\n  callvalue\n  dup1\n  iszero\n  tag_1\n  jumpi\n  0x00\n  dup1\n  revert\ntag_1:\n  pop\n    /* \"contracts/Hometask.sol\":579:589  msg.sender */\n  caller\n    /* \"contracts/Hometask.sol\":571:576  owner */\n  0x00\n  dup1\n    /* \"contracts/Hometask.sol\":571:589  owner = msg.sender */\n  0x0100\n  exp\n  dup2\n  sload\n  dup2\n  0xffffffffffffffffffffffffffffffffffffffff\n  mul\n  not\n  and\n  swap1\n  dup4\n  0xffffffffffffffffffffffffffffffffffffffff\n  and\n  mul\n  or\n  swap1\n  sstore\n  pop\n    /* \"contracts/Hometask.sol\":62:1982  contract DormitoryQuest {... */\n  dataSize(sub_0)\n  dup1\n  dataOffset(sub_0)\n  0x00\n  codecopy\n  0x00\n  return\nstop\n\nsub_0: assembly {\n        /* \"contracts/Hometask.sol\":62:1982  contract DormitoryQuest {... */\n      mstore(0x40, 0x80)\n      callvalue\n      dup1\n      iszero\n      tag_1\n      jumpi\n      0x00\n      dup1\n      revert\n    tag_1:\n      pop\n      jumpi(tag_2, lt(calldatasize, 0x04))\n      shr(0xe0, calldataload(0x00))\n      dup1\n      0x06ead22e\n      eq\n      tag_3\n      jumpi\n      dup1\n      0x344d2d4a\n      eq\n      tag_4\n      jumpi\n      dup1\n      0x3d5c83d4\n      eq\n      tag_5\n      jumpi\n    tag_2:\n      0x00\n      dup1\n      revert\n        /* \"contracts/Hometask.sol\":354:379  Student[] public students */\n    tag_3:\n      tag_6\n      0x04\n      dup1\n      calldatasize\n      sub\n      dup2\n      add\n      swap1\n      tag_7\n      swap2\n      swap1\n      tag_8\n      jump\t// in\n    tag_7:\n      tag_9\n      jump\t// in\n    tag_6:\n      mload(0x40)\n      tag_10\n      swap8\n      swap7\n      swap6\n      swap5\n      swap4\n      swap3\n      swap2\n      swap1\n      tag_11\n      jump\t// in\n    tag_10:\n      mload(0x40)\n      dup1\n      swap2\n      sub\n      swap1\n      return\n        /* \"contracts/Hometask.sol\":605:1247  function addStudent(string calldata _name, bool _sheetsDone, bool _roomDone, bool _booksDone) public {... */\n    tag_4:\n      tag_12\n      0x04\n      dup1\n      calldatasize\n      sub\n      dup2\n      add\n      swap1\n      tag_13\n      swap2\n      swap1\n      tag_14\n      jump\t// in\n    tag_13:\n      tag_15\n      jump\t// in\n    tag_12:\n      stop\n        /* \"contracts/Hometask.sol\":1259:1979  function debtsAreDone(uint id) public {... */\n    tag_5:\n      tag_16\n      0x04\n      dup1\n      calldatasize\n      sub\n      dup2\n      add\n      swap1\n      tag_17\n      swap2\n      swap1\n      tag_8\n      jump\t// in\n    tag_17:\n      tag_18\n      jump\t// in\n    tag_16:\n      stop\n        /* \"contracts/Hometask.sol\":354:379  Student[] public students */\n    tag_9:\n      0x01\n      dup2\n      dup2\n      sload\n      dup2\n      lt\n      tag_19\n      jumpi\n      0x00\n      dup1\n      revert\n    tag_19:\n      swap1\n      0x00\n      mstore\n      keccak256(0x00, 0x20)\n      swap1\n      0x05\n      mul\n      add\n      0x00\n      swap2\n      pop\n      swap1\n      pop\n      dup1\n      0x00\n      add\n      sload\n      swap1\n      dup1\n      0x01\n      add\n      dup1\n      sload\n      tag_21\n      swap1\n      tag_22\n      jump\t// in\n    tag_21:\n      dup1\n      0x1f\n      add\n      0x20\n      dup1\n      swap2\n      div\n      mul\n      0x20\n      add\n      mload(0x40)\n      swap1\n      dup2\n      add\n      0x40\n      mstore\n      dup1\n      swap3\n      swap2\n      swap1\n      dup2\n      dup2\n      mstore\n      0x20\n      add\n      dup3\n      dup1\n      sload\n      tag_23\n      swap1\n      tag_22\n      jump\t// in\n    tag_23:\n      dup1\n      iszero\n      tag_24\n      jumpi\n      dup1\n      0x1f\n      lt\n      tag_25\n      jumpi\n      0x0100\n      dup1\n      dup4\n      sload\n      div\n      mul\n      dup4\n      mstore\n      swap2\n      0x20\n      add\n      swap2\n      jump(tag_24)\n    tag_25:\n      dup3\n      add\n      swap2\n      swap1\n      0x00\n      mstore\n      keccak256(0x00, 0x20)\n      swap1\n    tag_26:\n      dup2\n      sload\n      dup2\n      mstore\n      swap1\n      0x01\n      add\n      swap1\n      0x20\n      add\n      dup1\n      dup4\n      gt\n      tag_26\n      jumpi\n      dup3\n      swap1\n      sub\n      0x1f\n      and\n      dup3\n      add\n      swap2\n    tag_24:\n      pop\n      pop\n      pop\n      pop\n      pop\n      swap1\n      dup1\n      0x02\n      add\n      0x00\n      swap1\n      sload\n      swap1\n      0x0100\n      exp\n      swap1\n      div\n      0xff\n      and\n      swap1\n      dup1\n      0x02\n      add\n      0x01\n      swap1\n      sload\n      swap1\n      0x0100\n      exp\n      swap1\n      div\n      0xff\n      and\n      swap1\n      dup1\n      0x02\n      add\n      0x02\n      swap1\n      sload\n      swap1\n      0x0100\n      exp\n      swap1\n      div\n      0xff\n      and\n      swap1\n      dup1\n      0x03\n      add\n      sload\n      swap1\n      dup1\n      0x04\n      add\n      sload\n      swap1\n      pop\n      dup8\n      jump\t// out\n        /* \"contracts/Hometask.sol\":605:1247  function addStudent(string calldata _name, bool _sheetsDone, bool _roomDone, bool _booksDone) public {... */\n    tag_15:\n        /* \"contracts/Hometask.sol\":717:731  uint currentId */\n      0x00\n        /* \"contracts/Hometask.sol\":753:754  0 */\n      dup1\n        /* \"contracts/Hometask.sol\":734:742  students */\n      0x01\n        /* \"contracts/Hometask.sol\":734:749  students.length */\n      dup1\n      sload\n      swap1\n      pop\n        /* \"contracts/Hometask.sol\":734:754  students.length == 0 */\n      eq\n        /* \"contracts/Hometask.sol\":734:794  students.length == 0 ? students.length : students.length - 1 */\n      tag_28\n      jumpi\n        /* \"contracts/Hometask.sol\":793:794  1 */\n      0x01\n        /* \"contracts/Hometask.sol\":775:783  students */\n      dup1\n        /* \"contracts/Hometask.sol\":775:790  students.length */\n      dup1\n      sload\n      swap1\n      pop\n        /* \"contracts/Hometask.sol\":775:794  students.length - 1 */\n      tag_29\n      swap2\n      swap1\n      tag_30\n      jump\t// in\n    tag_29:\n        /* \"contracts/Hometask.sol\":734:794  students.length == 0 ? students.length : students.length - 1 */\n      jump(tag_31)\n    tag_28:\n        /* \"contracts/Hometask.sol\":757:765  students */\n      0x01\n        /* \"contracts/Hometask.sol\":757:772  students.length */\n      dup1\n      sload\n      swap1\n      pop\n        /* \"contracts/Hometask.sol\":734:794  students.length == 0 ? students.length : students.length - 1 */\n    tag_31:\n        /* \"contracts/Hometask.sol\":717:794  uint currentId = students.length == 0 ? students.length : students.length - 1 */\n      swap1\n      pop\n        /* \"contracts/Hometask.sol\":807:832  Student memory newStudent */\n      0x00\n        /* \"contracts/Hometask.sol\":835:1115  Student({... */\n      mload(0x40)\n      dup1\n      0xe0\n      add\n      0x40\n      mstore\n      dup1\n        /* \"contracts/Hometask.sol\":862:871  currentId */\n      dup4\n        /* \"contracts/Hometask.sol\":835:1115  Student({... */\n      dup2\n      mstore\n      0x20\n      add\n        /* \"contracts/Hometask.sol\":896:901  _name */\n      dup9\n      dup9\n        /* \"contracts/Hometask.sol\":835:1115  Student({... */\n      dup1\n      dup1\n      0x1f\n      add\n      0x20\n      dup1\n      swap2\n      div\n      mul\n      0x20\n      add\n      mload(0x40)\n      swap1\n      dup2\n      add\n      0x40\n      mstore\n      dup1\n      swap4\n      swap3\n      swap2\n      swap1\n      dup2\n      dup2\n      mstore\n      0x20\n      add\n      dup4\n      dup4\n      dup1\n      dup3\n      dup5\n      calldatacopy\n      0x00\n      dup2\n      dup5\n      add\n      mstore\n      not(0x1f)\n      0x1f\n      dup3\n      add\n      and\n      swap1\n      pop\n      dup1\n      dup4\n      add\n      swap3\n      pop\n      pop\n      pop\n      pop\n      pop\n      pop\n      pop\n      dup2\n      mstore\n      0x20\n      add\n        /* \"contracts/Hometask.sol\":928:939  _sheetsDone */\n      dup7\n        /* \"contracts/Hometask.sol\":835:1115  Student({... */\n      iszero\n      iszero\n      dup2\n      mstore\n      0x20\n      add\n        /* \"contracts/Hometask.sol\":964:973  _roomDone */\n      dup6\n        /* \"contracts/Hometask.sol\":835:1115  Student({... */\n      iszero\n      iszero\n      dup2\n      mstore\n      0x20\n      add\n        /* \"contracts/Hometask.sol\":999:1009  _booksDone */\n      dup5\n        /* \"contracts/Hometask.sol\":835:1115  Student({... */\n      iszero\n      iszero\n      dup2\n      mstore\n      0x20\n      add\n        /* \"contracts/Hometask.sol\":1033:1048  block.timestamp */\n      timestamp\n        /* \"contracts/Hometask.sol\":835:1115  Student({... */\n      dup2\n      mstore\n      0x20\n      add\n        /* \"contracts/Hometask.sol\":118:124  3 days */\n      0x03f480\n        /* \"contracts/Hometask.sol\":1077:1092  block.timestamp */\n      timestamp\n        /* \"contracts/Hometask.sol\":1077:1103  block.timestamp + DURATION */\n      tag_32\n      swap2\n      swap1\n      tag_33\n      jump\t// in\n    tag_32:\n        /* \"contracts/Hometask.sol\":835:1115  Student({... */\n      dup2\n      mstore\n      pop\n        /* \"contracts/Hometask.sol\":807:1115  Student memory newStudent = Student({... */\n      swap1\n      pop\n        /* \"contracts/Hometask.sol\":1128:1136  students */\n      0x01\n        /* \"contracts/Hometask.sol\":1142:1152  newStudent */\n      dup2\n        /* \"contracts/Hometask.sol\":1128:1153  students.push(newStudent) */\n      swap1\n      dup1\n      0x01\n      dup2\n      sload\n      add\n      dup1\n      dup3\n      sstore\n      dup1\n      swap2\n      pop\n      pop\n      0x01\n      swap1\n      sub\n      swap1\n      0x00\n      mstore\n      keccak256(0x00, 0x20)\n      swap1\n      0x05\n      mul\n      add\n      0x00\n      swap1\n      swap2\n      swap1\n      swap2\n      swap1\n      swap2\n      pop\n      0x00\n      dup3\n      add\n      mload\n      dup2\n      0x00\n      add\n      sstore\n      0x20\n      dup3\n      add\n      mload\n      dup2\n      0x01\n      add\n      swap1\n      dup2\n      tag_35\n      swap2\n      swap1\n      tag_36\n      jump\t// in\n    tag_35:\n      pop\n      0x40\n      dup3\n      add\n      mload\n      dup2\n      0x02\n      add\n      exp(0x0100, 0x00)\n      dup2\n      sload\n      dup2\n      0xff\n      mul\n      not\n      and\n      swap1\n      dup4\n      iszero\n      iszero\n      mul\n      or\n      swap1\n      sstore\n      pop\n      0x60\n      dup3\n      add\n      mload\n      dup2\n      0x02\n      add\n      exp(0x0100, 0x01)\n      dup2\n      sload\n      dup2\n      0xff\n      mul\n      not\n      and\n      swap1\n      dup4\n      iszero\n      iszero\n      mul\n      or\n      swap1\n      sstore\n      pop\n      0x80\n      dup3\n      add\n      mload\n      dup2\n      0x02\n      add\n      exp(0x0100, 0x02)\n      dup2\n      sload\n      dup2\n      0xff\n      mul\n      not\n      and\n      swap1\n      dup4\n      iszero\n      iszero\n      mul\n      or\n      swap1\n      sstore\n      pop\n      0xa0\n      dup3\n      add\n      mload\n      dup2\n      0x03\n      add\n      sstore\n      0xc0\n      dup3\n      add\n      mload\n      dup2\n      0x04\n      add\n      sstore\n      pop\n      pop\n        /* \"contracts/Hometask.sol\":1171:1239  StudentAdded(newStudent.id, newStudent.fullName, newStudent.regDate) */\n      0xfafb7311fc57ca8a55073f63725e888b4250c799d77ae873970d65ac08c5917a\n        /* \"contracts/Hometask.sol\":1184:1194  newStudent */\n      dup2\n        /* \"contracts/Hometask.sol\":1184:1197  newStudent.id */\n      0x00\n      add\n      mload\n        /* \"contracts/Hometask.sol\":1199:1209  newStudent */\n      dup3\n        /* \"contracts/Hometask.sol\":1199:1218  newStudent.fullName */\n      0x20\n      add\n      mload\n        /* \"contracts/Hometask.sol\":1220:1230  newStudent */\n      dup4\n        /* \"contracts/Hometask.sol\":1220:1238  newStudent.regDate */\n      0xa0\n      add\n      mload\n        /* \"contracts/Hometask.sol\":1171:1239  StudentAdded(newStudent.id, newStudent.fullName, newStudent.regDate) */\n      mload(0x40)\n      tag_37\n      swap4\n      swap3\n      swap2\n      swap1\n      tag_38\n      jump\t// in\n    tag_37:\n      mload(0x40)\n      dup1\n      swap2\n      sub\n      swap1\n      log1\n        /* \"contracts/Hometask.sol\":706:1247  {... */\n      pop\n      pop\n        /* \"contracts/Hometask.sol\":605:1247  function addStudent(string calldata _name, bool _sheetsDone, bool _roomDone, bool _booksDone) public {... */\n      pop\n      pop\n      pop\n      pop\n      pop\n      jump\t// out\n        /* \"contracts/Hometask.sol\":1259:1979  function debtsAreDone(uint id) public {... */\n    tag_18:\n        /* \"contracts/Hometask.sol\":1322:1323  0 */\n      0x00\n        /* \"contracts/Hometask.sol\":1316:1318  id */\n      dup2\n        /* \"contracts/Hometask.sol\":1316:1323  id >= 0 */\n      lt\n      iszero\n        /* \"contracts/Hometask.sol\":1308:1341  require(id >= 0, \"Incorrect id.\") */\n      tag_40\n      jumpi\n      mload(0x40)\n      0x08c379a000000000000000000000000000000000000000000000000000000000\n      dup2\n      mstore\n      0x04\n      add\n      tag_41\n      swap1\n      tag_42\n      jump\t// in\n    tag_41:\n      mload(0x40)\n      dup1\n      swap2\n      sub\n      swap1\n      revert\n    tag_40:\n        /* \"contracts/Hometask.sol\":1354:1378  Student storage _student */\n      0x00\n        /* \"contracts/Hometask.sol\":1381:1389  students */\n      0x01\n        /* \"contracts/Hometask.sol\":1390:1392  id */\n      dup3\n        /* \"contracts/Hometask.sol\":1381:1393  students[id] */\n      dup2\n      sload\n      dup2\n      lt\n      tag_43\n      jumpi\n      tag_44\n      tag_45\n      jump\t// in\n    tag_44:\n    tag_43:\n      swap1\n      0x00\n      mstore\n      keccak256(0x00, 0x20)\n      swap1\n      0x05\n      mul\n      add\n        /* \"contracts/Hometask.sol\":1354:1393  Student storage _student = students[id] */\n      swap1\n      pop\n        /* \"contracts/Hometask.sol\":1433:1438  false */\n      0x00\n        /* \"contracts/Hometask.sol\":1410:1438  _student.sheetsDone == false */\n      iszero\n      iszero\n        /* \"contracts/Hometask.sol\":1410:1418  _student */\n      dup2\n        /* \"contracts/Hometask.sol\":1410:1429  _student.sheetsDone */\n      0x02\n      add\n      0x00\n      swap1\n      sload\n      swap1\n      0x0100\n      exp\n      swap1\n      div\n      0xff\n      and\n        /* \"contracts/Hometask.sol\":1410:1438  _student.sheetsDone == false */\n      iszero\n      iszero\n      sub\n        /* \"contracts/Hometask.sol\":1406:1518  if (_student.sheetsDone == false)... */\n      tag_47\n      jumpi\n        /* \"contracts/Hometask.sol\":1469:1506  SummonsToArmyGiven(_student.fullName) */\n      0xd53ecb21746e36da81ddab5bdcf35c93b4e7adb500e38a0ce440f729de177ac5\n        /* \"contracts/Hometask.sol\":1488:1496  _student */\n      dup2\n        /* \"contracts/Hometask.sol\":1488:1505  _student.fullName */\n      0x01\n      add\n        /* \"contracts/Hometask.sol\":1469:1506  SummonsToArmyGiven(_student.fullName) */\n      mload(0x40)\n      tag_48\n      swap2\n      swap1\n      tag_49\n      jump\t// in\n    tag_48:\n      mload(0x40)\n      dup1\n      swap2\n      sub\n      swap1\n      log1\n        /* \"contracts/Hometask.sol\":1406:1518  if (_student.sheetsDone == false)... */\n    tag_47:\n        /* \"contracts/Hometask.sol\":1555:1560  false */\n      0x00\n        /* \"contracts/Hometask.sol\":1534:1560  _student.roomDone == false */\n      iszero\n      iszero\n        /* \"contracts/Hometask.sol\":1534:1542  _student */\n      dup2\n        /* \"contracts/Hometask.sol\":1534:1551  _student.roomDone */\n      0x02\n      add\n      0x01\n      swap1\n      sload\n      swap1\n      0x0100\n      exp\n      swap1\n      div\n      0xff\n      and\n        /* \"contracts/Hometask.sol\":1534:1560  _student.roomDone == false */\n      iszero\n      iszero\n      sub\n        /* \"contracts/Hometask.sol\":1530:1640  if (_student.roomDone == false)... */\n      tag_50\n      jumpi\n        /* \"contracts/Hometask.sol\":1591:1628  SummonsToArmyGiven(_student.fullName) */\n      0xd53ecb21746e36da81ddab5bdcf35c93b4e7adb500e38a0ce440f729de177ac5\n        /* \"contracts/Hometask.sol\":1610:1618  _student */\n      dup2\n        /* \"contracts/Hometask.sol\":1610:1627  _student.fullName */\n      0x01\n      add\n        /* \"contracts/Hometask.sol\":1591:1628  SummonsToArmyGiven(_student.fullName) */\n      mload(0x40)\n      tag_51\n      swap2\n      swap1\n      tag_49\n      jump\t// in\n    tag_51:\n      mload(0x40)\n      dup1\n      swap2\n      sub\n      swap1\n      log1\n        /* \"contracts/Hometask.sol\":1530:1640  if (_student.roomDone == false)... */\n    tag_50:\n        /* \"contracts/Hometask.sol\":1678:1683  false */\n      0x00\n        /* \"contracts/Hometask.sol\":1656:1683  _student.booksDone == false */\n      iszero\n      iszero\n        /* \"contracts/Hometask.sol\":1656:1664  _student */\n      dup2\n        /* \"contracts/Hometask.sol\":1656:1674  _student.booksDone */\n      0x02\n      add\n      0x02\n      swap1\n      sload\n      swap1\n      0x0100\n      exp\n      swap1\n      div\n      0xff\n      and\n        /* \"contracts/Hometask.sol\":1656:1683  _student.booksDone == false */\n      iszero\n      iszero\n      sub\n        /* \"contracts/Hometask.sol\":1652:1763  if (_student.booksDone == false)... */\n      tag_52\n      jumpi\n        /* \"contracts/Hometask.sol\":1714:1751  SummonsToArmyGiven(_student.fullName) */\n      0xd53ecb21746e36da81ddab5bdcf35c93b4e7adb500e38a0ce440f729de177ac5\n        /* \"contracts/Hometask.sol\":1733:1741  _student */\n      dup2\n        /* \"contracts/Hometask.sol\":1733:1750  _student.fullName */\n      0x01\n      add\n        /* \"contracts/Hometask.sol\":1714:1751  SummonsToArmyGiven(_student.fullName) */\n      mload(0x40)\n      tag_53\n      swap2\n      swap1\n      tag_49\n      jump\t// in\n    tag_53:\n      mload(0x40)\n      dup1\n      swap2\n      sub\n      swap1\n      log1\n        /* \"contracts/Hometask.sol\":1652:1763  if (_student.booksDone == false)... */\n    tag_52:\n        /* \"contracts/Hometask.sol\":1809:1824  block.timestamp */\n      timestamp\n        /* \"contracts/Hometask.sol\":118:124  3 days */\n      0x03f480\n        /* \"contracts/Hometask.sol\":1779:1787  _student */\n      dup3\n        /* \"contracts/Hometask.sol\":1779:1795  _student.regDate */\n      0x03\n      add\n      sload\n        /* \"contracts/Hometask.sol\":1779:1806  _student.regDate + DURATION */\n      tag_54\n      swap2\n      swap1\n      tag_33\n      jump\t// in\n    tag_54:\n        /* \"contracts/Hometask.sol\":1779:1824  _student.regDate + DURATION > block.timestamp */\n      gt\n        /* \"contracts/Hometask.sol\":1775:1904  if (_student.regDate + DURATION > block.timestamp)... */\n      iszero\n      tag_55\n      jumpi\n        /* \"contracts/Hometask.sol\":1855:1892  SummonsToArmyGiven(_student.fullName) */\n      0xd53ecb21746e36da81ddab5bdcf35c93b4e7adb500e38a0ce440f729de177ac5\n        /* \"contracts/Hometask.sol\":1874:1882  _student */\n      dup2\n        /* \"contracts/Hometask.sol\":1874:1891  _student.fullName */\n      0x01\n      add\n        /* \"contracts/Hometask.sol\":1855:1892  SummonsToArmyGiven(_student.fullName) */\n      mload(0x40)\n      tag_56\n      swap2\n      swap1\n      tag_49\n      jump\t// in\n    tag_56:\n      mload(0x40)\n      dup1\n      swap2\n      sub\n      swap1\n      log1\n        /* \"contracts/Hometask.sol\":1775:1904  if (_student.regDate + DURATION > block.timestamp)... */\n    tag_55:\n        /* \"contracts/Hometask.sol\":1921:1971  StudentEvicted(_student.fullName, block.timestamp) */\n      0x6fd4822621c89040f0ea90264351e7f95d334eb76155286b2c1b6732331ff93c\n        /* \"contracts/Hometask.sol\":1936:1944  _student */\n      dup2\n        /* \"contracts/Hometask.sol\":1936:1953  _student.fullName */\n      0x01\n      add\n        /* \"contracts/Hometask.sol\":1955:1970  block.timestamp */\n      timestamp\n        /* \"contracts/Hometask.sol\":1921:1971  StudentEvicted(_student.fullName, block.timestamp) */\n      mload(0x40)\n      tag_57\n      swap3\n      swap2\n      swap1\n      tag_58\n      jump\t// in\n    tag_57:\n      mload(0x40)\n      dup1\n      swap2\n      sub\n      swap1\n      log1\n        /* \"contracts/Hometask.sol\":1297:1979  {... */\n      pop\n        /* \"contracts/Hometask.sol\":1259:1979  function debtsAreDone(uint id) public {... */\n      pop\n      jump\t// out\n        /* \"#utility.yul\":88:205   */\n    tag_60:\n        /* \"#utility.yul\":197:198   */\n      0x00\n        /* \"#utility.yul\":194:195   */\n      dup1\n        /* \"#utility.yul\":187:199   */\n      revert\n        /* \"#utility.yul\":211:328   */\n    tag_61:\n        /* \"#utility.yul\":320:321   */\n      0x00\n        /* \"#utility.yul\":317:318   */\n      dup1\n        /* \"#utility.yul\":310:322   */\n      revert\n        /* \"#utility.yul\":334:411   */\n    tag_62:\n        /* \"#utility.yul\":371:378   */\n      0x00\n        /* \"#utility.yul\":400:405   */\n      dup2\n        /* \"#utility.yul\":389:405   */\n      swap1\n      pop\n        /* \"#utility.yul\":334:411   */\n      swap2\n      swap1\n      pop\n      jump\t// out\n        /* \"#utility.yul\":417:539   */\n    tag_63:\n        /* \"#utility.yul\":490:514   */\n      tag_106\n        /* \"#utility.yul\":508:513   */\n      dup2\n        /* \"#utility.yul\":490:514   */\n      tag_62\n      jump\t// in\n    tag_106:\n        /* \"#utility.yul\":483:488   */\n      dup2\n        /* \"#utility.yul\":480:515   */\n      eq\n        /* \"#utility.yul\":470:533   */\n      tag_107\n      jumpi\n        /* \"#utility.yul\":529:530   */\n      0x00\n        /* \"#utility.yul\":526:527   */\n      dup1\n        /* \"#utility.yul\":519:531   */\n      revert\n        /* \"#utility.yul\":470:533   */\n    tag_107:\n        /* \"#utility.yul\":417:539   */\n      pop\n      jump\t// out\n        /* \"#utility.yul\":545:684   */\n    tag_64:\n        /* \"#utility.yul\":591:596   */\n      0x00\n        /* \"#utility.yul\":629:635   */\n      dup2\n        /* \"#utility.yul\":616:636   */\n      calldataload\n        /* \"#utility.yul\":607:636   */\n      swap1\n      pop\n        /* \"#utility.yul\":645:678   */\n      tag_109\n        /* \"#utility.yul\":672:677   */\n      dup2\n        /* \"#utility.yul\":645:678   */\n      tag_63\n      jump\t// in\n    tag_109:\n        /* \"#utility.yul\":545:684   */\n      swap3\n      swap2\n      pop\n      pop\n      jump\t// out\n        /* \"#utility.yul\":690:1019   */\n    tag_8:\n        /* \"#utility.yul\":749:755   */\n      0x00\n        /* \"#utility.yul\":798:800   */\n      0x20\n        /* \"#utility.yul\":786:795   */\n      dup3\n        /* \"#utility.yul\":777:784   */\n      dup5\n        /* \"#utility.yul\":773:796   */\n      sub\n        /* \"#utility.yul\":769:801   */\n      slt\n        /* \"#utility.yul\":766:885   */\n      iszero\n      tag_111\n      jumpi\n        /* \"#utility.yul\":804:883   */\n      tag_112\n      tag_60\n      jump\t// in\n    tag_112:\n        /* \"#utility.yul\":766:885   */\n    tag_111:\n        /* \"#utility.yul\":924:925   */\n      0x00\n        /* \"#utility.yul\":949:1002   */\n      tag_113\n        /* \"#utility.yul\":994:1001   */\n      dup5\n        /* \"#utility.yul\":985:991   */\n      dup3\n        /* \"#utility.yul\":974:983   */\n      dup6\n        /* \"#utility.yul\":970:992   */\n      add\n        /* \"#utility.yul\":949:1002   */\n      tag_64\n      jump\t// in\n    tag_113:\n        /* \"#utility.yul\":939:1002   */\n      swap2\n      pop\n        /* \"#utility.yul\":895:1012   */\n      pop\n        /* \"#utility.yul\":690:1019   */\n      swap3\n      swap2\n      pop\n      pop\n      jump\t// out\n        /* \"#utility.yul\":1025:1143   */\n    tag_65:\n        /* \"#utility.yul\":1112:1136   */\n      tag_115\n        /* \"#utility.yul\":1130:1135   */\n      dup2\n        /* \"#utility.yul\":1112:1136   */\n      tag_62\n      jump\t// in\n    tag_115:\n        /* \"#utility.yul\":1107:1110   */\n      dup3\n        /* \"#utility.yul\":1100:1137   */\n      mstore\n        /* \"#utility.yul\":1025:1143   */\n      pop\n      pop\n      jump\t// out\n        /* \"#utility.yul\":1149:1248   */\n    tag_66:\n        /* \"#utility.yul\":1201:1207   */\n      0x00\n        /* \"#utility.yul\":1235:1240   */\n      dup2\n        /* \"#utility.yul\":1229:1241   */\n      mload\n        /* \"#utility.yul\":1219:1241   */\n      swap1\n      pop\n        /* \"#utility.yul\":1149:1248   */\n      swap2\n      swap1\n      pop\n      jump\t// out\n        /* \"#utility.yul\":1254:1423   */\n    tag_67:\n        /* \"#utility.yul\":1338:1349   */\n      0x00\n        /* \"#utility.yul\":1372:1378   */\n      dup3\n        /* \"#utility.yul\":1367:1370   */\n      dup3\n        /* \"#utility.yul\":1360:1379   */\n      mstore\n        /* \"#utility.yul\":1412:1416   */\n      0x20\n        /* \"#utility.yul\":1407:1410   */\n      dup3\n        /* \"#utility.yul\":1403:1417   */\n      add\n        /* \"#utility.yul\":1388:1417   */\n      swap1\n      pop\n        /* \"#utility.yul\":1254:1423   */\n      swap3\n      swap2\n      pop\n      pop\n      jump\t// out\n        /* \"#utility.yul\":1429:1675   */\n    tag_68:\n        /* \"#utility.yul\":1510:1511   */\n      0x00\n        /* \"#utility.yul\":1520:1633   */\n    tag_119:\n        /* \"#utility.yul\":1534:1540   */\n      dup4\n        /* \"#utility.yul\":1531:1532   */\n      dup2\n        /* \"#utility.yul\":1528:1541   */\n      lt\n        /* \"#utility.yul\":1520:1633   */\n      iszero\n      tag_121\n      jumpi\n        /* \"#utility.yul\":1619:1620   */\n      dup1\n        /* \"#utility.yul\":1614:1617   */\n      dup3\n        /* \"#utility.yul\":1610:1621   */\n      add\n        /* \"#utility.yul\":1604:1622   */\n      mload\n        /* \"#utility.yul\":1600:1601   */\n      dup2\n        /* \"#utility.yul\":1595:1598   */\n      dup5\n        /* \"#utility.yul\":1591:1602   */\n      add\n        /* \"#utility.yul\":1584:1623   */\n      mstore\n        /* \"#utility.yul\":1556:1558   */\n      0x20\n        /* \"#utility.yul\":1553:1554   */\n      dup2\n        /* \"#utility.yul\":1549:1559   */\n      add\n        /* \"#utility.yul\":1544:1559   */\n      swap1\n      pop\n        /* \"#utility.yul\":1520:1633   */\n      jump(tag_119)\n    tag_121:\n        /* \"#utility.yul\":1667:1668   */\n      0x00\n        /* \"#utility.yul\":1658:1664   */\n      dup5\n        /* \"#utility.yul\":1653:1656   */\n      dup5\n        /* \"#utility.yul\":1649:1665   */\n      add\n        /* \"#utility.yul\":1642:1669   */\n      mstore\n        /* \"#utility.yul\":1491:1675   */\n      pop\n        /* \"#utility.yul\":1429:1675   */\n      pop\n      pop\n      pop\n      jump\t// out\n        /* \"#utility.yul\":1681:1783   */\n    tag_69:\n        /* \"#utility.yul\":1722:1728   */\n      0x00\n        /* \"#utility.yul\":1773:1775   */\n      0x1f\n        /* \"#utility.yul\":1769:1776   */\n      not\n        /* \"#utility.yul\":1764:1766   */\n      0x1f\n        /* \"#utility.yul\":1757:1762   */\n      dup4\n        /* \"#utility.yul\":1753:1767   */\n      add\n        /* \"#utility.yul\":1749:1777   */\n      and\n        /* \"#utility.yul\":1739:1777   */\n      swap1\n      pop\n        /* \"#utility.yul\":1681:1783   */\n      swap2\n      swap1\n      pop\n      jump\t// out\n        /* \"#utility.yul\":1789:2166   */\n    tag_70:\n        /* \"#utility.yul\":1877:1880   */\n      0x00\n        /* \"#utility.yul\":1905:1944   */\n      tag_124\n        /* \"#utility.yul\":1938:1943   */\n      dup3\n        /* \"#utility.yul\":1905:1944   */\n      tag_66\n      jump\t// in\n    tag_124:\n        /* \"#utility.yul\":1960:2031   */\n      tag_125\n        /* \"#utility.yul\":2024:2030   */\n      dup2\n        /* \"#utility.yul\":2019:2022   */\n      dup6\n        /* \"#utility.yul\":1960:2031   */\n      tag_67\n      jump\t// in\n    tag_125:\n        /* \"#utility.yul\":1953:2031   */\n      swap4\n      pop\n        /* \"#utility.yul\":2040:2105   */\n      tag_126\n        /* \"#utility.yul\":2098:2104   */\n      dup2\n        /* \"#utility.yul\":2093:2096   */\n      dup6\n        /* \"#utility.yul\":2086:2090   */\n      0x20\n        /* \"#utility.yul\":2079:2084   */\n      dup7\n        /* \"#utility.yul\":2075:2091   */\n      add\n        /* \"#utility.yul\":2040:2105   */\n      tag_68\n      jump\t// in\n    tag_126:\n        /* \"#utility.yul\":2130:2159   */\n      tag_127\n        /* \"#utility.yul\":2152:2158   */\n      dup2\n        /* \"#utility.yul\":2130:2159   */\n      tag_69\n      jump\t// in\n    tag_127:\n        /* \"#utility.yul\":2125:2128   */\n      dup5\n        /* \"#utility.yul\":2121:2160   */\n      add\n        /* \"#utility.yul\":2114:2160   */\n      swap2\n      pop\n        /* \"#utility.yul\":1881:2166   */\n      pop\n        /* \"#utility.yul\":1789:2166   */\n      swap3\n      swap2\n      pop\n      pop\n      jump\t// out\n        /* \"#utility.yul\":2172:2262   */\n    tag_71:\n        /* \"#utility.yul\":2206:2213   */\n      0x00\n        /* \"#utility.yul\":2249:2254   */\n      dup2\n        /* \"#utility.yul\":2242:2255   */\n      iszero\n        /* \"#utility.yul\":2235:2256   */\n      iszero\n        /* \"#utility.yul\":2224:2256   */\n      swap1\n      pop\n        /* \"#utility.yul\":2172:2262   */\n      swap2\n      swap1\n      pop\n      jump\t// out\n        /* \"#utility.yul\":2268:2377   */\n    tag_72:\n        /* \"#utility.yul\":2349:2370   */\n      tag_130\n        /* \"#utility.yul\":2364:2369   */\n      dup2\n        /* \"#utility.yul\":2349:2370   */\n      tag_71\n      jump\t// in\n    tag_130:\n        /* \"#utility.yul\":2344:2347   */\n      dup3\n        /* \"#utility.yul\":2337:2371   */\n      mstore\n        /* \"#utility.yul\":2268:2377   */\n      pop\n      pop\n      jump\t// out\n        /* \"#utility.yul\":2383:3324   */\n    tag_11:\n        /* \"#utility.yul\":2646:2650   */\n      0x00\n        /* \"#utility.yul\":2684:2687   */\n      0xe0\n        /* \"#utility.yul\":2673:2682   */\n      dup3\n        /* \"#utility.yul\":2669:2688   */\n      add\n        /* \"#utility.yul\":2661:2688   */\n      swap1\n      pop\n        /* \"#utility.yul\":2698:2769   */\n      tag_132\n        /* \"#utility.yul\":2766:2767   */\n      0x00\n        /* \"#utility.yul\":2755:2764   */\n      dup4\n        /* \"#utility.yul\":2751:2768   */\n      add\n        /* \"#utility.yul\":2742:2748   */\n      dup11\n        /* \"#utility.yul\":2698:2769   */\n      tag_65\n      jump\t// in\n    tag_132:\n        /* \"#utility.yul\":2816:2825   */\n      dup2\n        /* \"#utility.yul\":2810:2814   */\n      dup2\n        /* \"#utility.yul\":2806:2826   */\n      sub\n        /* \"#utility.yul\":2801:2803   */\n      0x20\n        /* \"#utility.yul\":2790:2799   */\n      dup4\n        /* \"#utility.yul\":2786:2804   */\n      add\n        /* \"#utility.yul\":2779:2827   */\n      mstore\n        /* \"#utility.yul\":2844:2922   */\n      tag_133\n        /* \"#utility.yul\":2917:2921   */\n      dup2\n        /* \"#utility.yul\":2908:2914   */\n      dup10\n        /* \"#utility.yul\":2844:2922   */\n      tag_70\n      jump\t// in\n    tag_133:\n        /* \"#utility.yul\":2836:2922   */\n      swap1\n      pop\n        /* \"#utility.yul\":2932:2998   */\n      tag_134\n        /* \"#utility.yul\":2994:2996   */\n      0x40\n        /* \"#utility.yul\":2983:2992   */\n      dup4\n        /* \"#utility.yul\":2979:2997   */\n      add\n        /* \"#utility.yul\":2970:2976   */\n      dup9\n        /* \"#utility.yul\":2932:2998   */\n      tag_72\n      jump\t// in\n    tag_134:\n        /* \"#utility.yul\":3008:3074   */\n      tag_135\n        /* \"#utility.yul\":3070:3072   */\n      0x60\n        /* \"#utility.yul\":3059:3068   */\n      dup4\n        /* \"#utility.yul\":3055:3073   */\n      add\n        /* \"#utility.yul\":3046:3052   */\n      dup8\n        /* \"#utility.yul\":3008:3074   */\n      tag_72\n      jump\t// in\n    tag_135:\n        /* \"#utility.yul\":3084:3151   */\n      tag_136\n        /* \"#utility.yul\":3146:3149   */\n      0x80\n        /* \"#utility.yul\":3135:3144   */\n      dup4\n        /* \"#utility.yul\":3131:3150   */\n      add\n        /* \"#utility.yul\":3122:3128   */\n      dup7\n        /* \"#utility.yul\":3084:3151   */\n      tag_72\n      jump\t// in\n    tag_136:\n        /* \"#utility.yul\":3161:3234   */\n      tag_137\n        /* \"#utility.yul\":3229:3232   */\n      0xa0\n        /* \"#utility.yul\":3218:3227   */\n      dup4\n        /* \"#utility.yul\":3214:3233   */\n      add\n        /* \"#utility.yul\":3205:3211   */\n      dup6\n        /* \"#utility.yul\":3161:3234   */\n      tag_65\n      jump\t// in\n    tag_137:\n        /* \"#utility.yul\":3244:3317   */\n      tag_138\n        /* \"#utility.yul\":3312:3315   */\n      0xc0\n        /* \"#utility.yul\":3301:3310   */\n      dup4\n        /* \"#utility.yul\":3297:3316   */\n      add\n        /* \"#utility.yul\":3288:3294   */\n      dup5\n        /* \"#utility.yul\":3244:3317   */\n      tag_65\n      jump\t// in\n    tag_138:\n        /* \"#utility.yul\":2383:3324   */\n      swap9\n      swap8\n      pop\n      pop\n      pop\n      pop\n      pop\n      pop\n      pop\n      pop\n      jump\t// out\n        /* \"#utility.yul\":3330:3447   */\n    tag_73:\n        /* \"#utility.yul\":3439:3440   */\n      0x00\n        /* \"#utility.yul\":3436:3437   */\n      dup1\n        /* \"#utility.yul\":3429:3441   */\n      revert\n        /* \"#utility.yul\":3453:3570   */\n    tag_74:\n        /* \"#utility.yul\":3562:3563   */\n      0x00\n        /* \"#utility.yul\":3559:3560   */\n      dup1\n        /* \"#utility.yul\":3552:3564   */\n      revert\n        /* \"#utility.yul\":3576:3693   */\n    tag_75:\n        /* \"#utility.yul\":3685:3686   */\n      0x00\n        /* \"#utility.yul\":3682:3683   */\n      dup1\n        /* \"#utility.yul\":3675:3687   */\n      revert\n        /* \"#utility.yul\":3713:4266   */\n    tag_76:\n        /* \"#utility.yul\":3771:3779   */\n      0x00\n        /* \"#utility.yul\":3781:3787   */\n      dup1\n        /* \"#utility.yul\":3831:3834   */\n      dup4\n        /* \"#utility.yul\":3824:3828   */\n      0x1f\n        /* \"#utility.yul\":3816:3822   */\n      dup5\n        /* \"#utility.yul\":3812:3829   */\n      add\n        /* \"#utility.yul\":3808:3835   */\n      slt\n        /* \"#utility.yul\":3798:3920   */\n      tag_143\n      jumpi\n        /* \"#utility.yul\":3839:3918   */\n      tag_144\n      tag_73\n      jump\t// in\n    tag_144:\n        /* \"#utility.yul\":3798:3920   */\n    tag_143:\n        /* \"#utility.yul\":3952:3958   */\n      dup3\n        /* \"#utility.yul\":3939:3959   */\n      calldataload\n        /* \"#utility.yul\":3929:3959   */\n      swap1\n      pop\n        /* \"#utility.yul\":3982:4000   */\n      0xffffffffffffffff\n        /* \"#utility.yul\":3974:3980   */\n      dup2\n        /* \"#utility.yul\":3971:4001   */\n      gt\n        /* \"#utility.yul\":3968:4085   */\n      iszero\n      tag_145\n      jumpi\n        /* \"#utility.yul\":4004:4083   */\n      tag_146\n      tag_74\n      jump\t// in\n    tag_146:\n        /* \"#utility.yul\":3968:4085   */\n    tag_145:\n        /* \"#utility.yul\":4118:4122   */\n      0x20\n        /* \"#utility.yul\":4110:4116   */\n      dup4\n        /* \"#utility.yul\":4106:4123   */\n      add\n        /* \"#utility.yul\":4094:4123   */\n      swap2\n      pop\n        /* \"#utility.yul\":4172:4175   */\n      dup4\n        /* \"#utility.yul\":4164:4168   */\n      0x01\n        /* \"#utility.yul\":4156:4162   */\n      dup3\n        /* \"#utility.yul\":4152:4169   */\n      mul\n        /* \"#utility.yul\":4142:4150   */\n      dup4\n        /* \"#utility.yul\":4138:4170   */\n      add\n        /* \"#utility.yul\":4135:4176   */\n      gt\n        /* \"#utility.yul\":4132:4260   */\n      iszero\n      tag_147\n      jumpi\n        /* \"#utility.yul\":4179:4258   */\n      tag_148\n      tag_75\n      jump\t// in\n    tag_148:\n        /* \"#utility.yul\":4132:4260   */\n    tag_147:\n        /* \"#utility.yul\":3713:4266   */\n      swap3\n      pop\n      swap3\n      swap1\n      pop\n      jump\t// out\n        /* \"#utility.yul\":4272:4388   */\n    tag_77:\n        /* \"#utility.yul\":4342:4363   */\n      tag_150\n        /* \"#utility.yul\":4357:4362   */\n      dup2\n        /* \"#utility.yul\":4342:4363   */\n      tag_71\n      jump\t// in\n    tag_150:\n        /* \"#utility.yul\":4335:4340   */\n      dup2\n        /* \"#utility.yul\":4332:4364   */\n      eq\n        /* \"#utility.yul\":4322:4382   */\n      tag_151\n      jumpi\n        /* \"#utility.yul\":4378:4379   */\n      0x00\n        /* \"#utility.yul\":4375:4376   */\n      dup1\n        /* \"#utility.yul\":4368:4380   */\n      revert\n        /* \"#utility.yul\":4322:4382   */\n    tag_151:\n        /* \"#utility.yul\":4272:4388   */\n      pop\n      jump\t// out\n        /* \"#utility.yul\":4394:4527   */\n    tag_78:\n        /* \"#utility.yul\":4437:4442   */\n      0x00\n        /* \"#utility.yul\":4475:4481   */\n      dup2\n        /* \"#utility.yul\":4462:4482   */\n      calldataload\n        /* \"#utility.yul\":4453:4482   */\n      swap1\n      pop\n        /* \"#utility.yul\":4491:4521   */\n      tag_153\n        /* \"#utility.yul\":4515:4520   */\n      dup2\n        /* \"#utility.yul\":4491:4521   */\n      tag_77\n      jump\t// in\n    tag_153:\n        /* \"#utility.yul\":4394:4527   */\n      swap3\n      swap2\n      pop\n      pop\n      jump\t// out\n        /* \"#utility.yul\":4533:5480   */\n    tag_14:\n        /* \"#utility.yul\":4622:4628   */\n      0x00\n        /* \"#utility.yul\":4630:4636   */\n      dup1\n        /* \"#utility.yul\":4638:4644   */\n      0x00\n        /* \"#utility.yul\":4646:4652   */\n      dup1\n        /* \"#utility.yul\":4654:4660   */\n      0x00\n        /* \"#utility.yul\":4703:4706   */\n      0x80\n        /* \"#utility.yul\":4691:4700   */\n      dup7\n        /* \"#utility.yul\":4682:4689   */\n      dup9\n        /* \"#utility.yul\":4678:4701   */\n      sub\n        /* \"#utility.yul\":4674:4707   */\n      slt\n        /* \"#utility.yul\":4671:4791   */\n      iszero\n      tag_155\n      jumpi\n        /* \"#utility.yul\":4710:4789   */\n      tag_156\n      tag_60\n      jump\t// in\n    tag_156:\n        /* \"#utility.yul\":4671:4791   */\n    tag_155:\n        /* \"#utility.yul\":4858:4859   */\n      0x00\n        /* \"#utility.yul\":4847:4856   */\n      dup7\n        /* \"#utility.yul\":4843:4860   */\n      add\n        /* \"#utility.yul\":4830:4861   */\n      calldataload\n        /* \"#utility.yul\":4888:4906   */\n      0xffffffffffffffff\n        /* \"#utility.yul\":4880:4886   */\n      dup2\n        /* \"#utility.yul\":4877:4907   */\n      gt\n        /* \"#utility.yul\":4874:4991   */\n      iszero\n      tag_157\n      jumpi\n        /* \"#utility.yul\":4910:4989   */\n      tag_158\n      tag_61\n      jump\t// in\n    tag_158:\n        /* \"#utility.yul\":4874:4991   */\n    tag_157:\n        /* \"#utility.yul\":5023:5088   */\n      tag_159\n        /* \"#utility.yul\":5080:5087   */\n      dup9\n        /* \"#utility.yul\":5071:5077   */\n      dup3\n        /* \"#utility.yul\":5060:5069   */\n      dup10\n        /* \"#utility.yul\":5056:5078   */\n      add\n        /* \"#utility.yul\":5023:5088   */\n      tag_76\n      jump\t// in\n    tag_159:\n        /* \"#utility.yul\":5005:5088   */\n      swap6\n      pop\n      swap6\n      pop\n        /* \"#utility.yul\":4801:5098   */\n      pop\n        /* \"#utility.yul\":5137:5139   */\n      0x20\n        /* \"#utility.yul\":5163:5213   */\n      tag_160\n        /* \"#utility.yul\":5205:5212   */\n      dup9\n        /* \"#utility.yul\":5196:5202   */\n      dup3\n        /* \"#utility.yul\":5185:5194   */\n      dup10\n        /* \"#utility.yul\":5181:5203   */\n      add\n        /* \"#utility.yul\":5163:5213   */\n      tag_78\n      jump\t// in\n    tag_160:\n        /* \"#utility.yul\":5153:5213   */\n      swap4\n      pop\n        /* \"#utility.yul\":5108:5223   */\n      pop\n        /* \"#utility.yul\":5262:5264   */\n      0x40\n        /* \"#utility.yul\":5288:5338   */\n      tag_161\n        /* \"#utility.yul\":5330:5337   */\n      dup9\n        /* \"#utility.yul\":5321:5327   */\n      dup3\n        /* \"#utility.yul\":5310:5319   */\n      dup10\n        /* \"#utility.yul\":5306:5328   */\n      add\n        /* \"#utility.yul\":5288:5338   */\n      tag_78\n      jump\t// in\n    tag_161:\n        /* \"#utility.yul\":5278:5338   */\n      swap3\n      pop\n        /* \"#utility.yul\":5233:5348   */\n      pop\n        /* \"#utility.yul\":5387:5389   */\n      0x60\n        /* \"#utility.yul\":5413:5463   */\n      tag_162\n        /* \"#utility.yul\":5455:5462   */\n      dup9\n        /* \"#utility.yul\":5446:5452   */\n      dup3\n        /* \"#utility.yul\":5435:5444   */\n      dup10\n        /* \"#utility.yul\":5431:5453   */\n      add\n        /* \"#utility.yul\":5413:5463   */\n      tag_78\n      jump\t// in\n    tag_162:\n        /* \"#utility.yul\":5403:5463   */\n      swap2\n      pop\n        /* \"#utility.yul\":5358:5473   */\n      pop\n        /* \"#utility.yul\":4533:5480   */\n      swap3\n      swap6\n      pop\n      swap3\n      swap6\n      swap1\n      swap4\n      pop\n      jump\t// out\n        /* \"#utility.yul\":5486:5666   */\n    tag_79:\n        /* \"#utility.yul\":5534:5611   */\n      0x4e487b7100000000000000000000000000000000000000000000000000000000\n        /* \"#utility.yul\":5531:5532   */\n      0x00\n        /* \"#utility.yul\":5524:5612   */\n      mstore\n        /* \"#utility.yul\":5631:5635   */\n      0x22\n        /* \"#utility.yul\":5628:5629   */\n      0x04\n        /* \"#utility.yul\":5621:5636   */\n      mstore\n        /* \"#utility.yul\":5655:5659   */\n      0x24\n        /* \"#utility.yul\":5652:5653   */\n      0x00\n        /* \"#utility.yul\":5645:5660   */\n      revert\n        /* \"#utility.yul\":5672:5992   */\n    tag_22:\n        /* \"#utility.yul\":5716:5722   */\n      0x00\n        /* \"#utility.yul\":5753:5754   */\n      0x02\n        /* \"#utility.yul\":5747:5751   */\n      dup3\n        /* \"#utility.yul\":5743:5755   */\n      div\n        /* \"#utility.yul\":5733:5755   */\n      swap1\n      pop\n        /* \"#utility.yul\":5800:5801   */\n      0x01\n        /* \"#utility.yul\":5794:5798   */\n      dup3\n        /* \"#utility.yul\":5790:5802   */\n      and\n        /* \"#utility.yul\":5821:5839   */\n      dup1\n        /* \"#utility.yul\":5811:5892   */\n      tag_165\n      jumpi\n        /* \"#utility.yul\":5877:5881   */\n      0x7f\n        /* \"#utility.yul\":5869:5875   */\n      dup3\n        /* \"#utility.yul\":5865:5882   */\n      and\n        /* \"#utility.yul\":5855:5882   */\n      swap2\n      pop\n        /* \"#utility.yul\":5811:5892   */\n    tag_165:\n        /* \"#utility.yul\":5939:5941   */\n      0x20\n        /* \"#utility.yul\":5931:5937   */\n      dup3\n        /* \"#utility.yul\":5928:5942   */\n      lt\n        /* \"#utility.yul\":5908:5926   */\n      dup2\n        /* \"#utility.yul\":5905:5943   */\n      sub\n        /* \"#utility.yul\":5902:5986   */\n      tag_166\n      jumpi\n        /* \"#utility.yul\":5958:5976   */\n      tag_167\n      tag_79\n      jump\t// in\n    tag_167:\n        /* \"#utility.yul\":5902:5986   */\n    tag_166:\n        /* \"#utility.yul\":5723:5992   */\n      pop\n        /* \"#utility.yul\":5672:5992   */\n      swap2\n      swap1\n      pop\n      jump\t// out\n        /* \"#utility.yul\":5998:6178   */\n    tag_80:\n        /* \"#utility.yul\":6046:6123   */\n      0x4e487b7100000000000000000000000000000000000000000000000000000000\n        /* \"#utility.yul\":6043:6044   */\n      0x00\n        /* \"#utility.yul\":6036:6124   */\n      mstore\n        /* \"#utility.yul\":6143:6147   */\n      0x11\n        /* \"#utility.yul\":6140:6141   */\n      0x04\n        /* \"#utility.yul\":6133:6148   */\n      mstore\n        /* \"#utility.yul\":6167:6171   */\n      0x24\n        /* \"#utility.yul\":6164:6165   */\n      0x00\n        /* \"#utility.yul\":6157:6172   */\n      revert\n        /* \"#utility.yul\":6184:6378   */\n    tag_30:\n        /* \"#utility.yul\":6224:6228   */\n      0x00\n        /* \"#utility.yul\":6244:6264   */\n      tag_170\n        /* \"#utility.yul\":6262:6263   */\n      dup3\n        /* \"#utility.yul\":6244:6264   */\n      tag_62\n      jump\t// in\n    tag_170:\n        /* \"#utility.yul\":6239:6264   */\n      swap2\n      pop\n        /* \"#utility.yul\":6278:6298   */\n      tag_171\n        /* \"#utility.yul\":6296:6297   */\n      dup4\n        /* \"#utility.yul\":6278:6298   */\n      tag_62\n      jump\t// in\n    tag_171:\n        /* \"#utility.yul\":6273:6298   */\n      swap3\n      pop\n        /* \"#utility.yul\":6322:6323   */\n      dup3\n        /* \"#utility.yul\":6319:6320   */\n      dup3\n        /* \"#utility.yul\":6315:6324   */\n      sub\n        /* \"#utility.yul\":6307:6324   */\n      swap1\n      pop\n        /* \"#utility.yul\":6346:6347   */\n      dup2\n        /* \"#utility.yul\":6340:6344   */\n      dup2\n        /* \"#utility.yul\":6337:6348   */\n      gt\n        /* \"#utility.yul\":6334:6371   */\n      iszero\n      tag_172\n      jumpi\n        /* \"#utility.yul\":6351:6369   */\n      tag_173\n      tag_80\n      jump\t// in\n    tag_173:\n        /* \"#utility.yul\":6334:6371   */\n    tag_172:\n        /* \"#utility.yul\":6184:6378   */\n      swap3\n      swap2\n      pop\n      pop\n      jump\t// out\n        /* \"#utility.yul\":6384:6575   */\n    tag_33:\n        /* \"#utility.yul\":6424:6427   */\n      0x00\n        /* \"#utility.yul\":6443:6463   */\n      tag_175\n        /* \"#utility.yul\":6461:6462   */\n      dup3\n        /* \"#utility.yul\":6443:6463   */\n      tag_62\n      jump\t// in\n    tag_175:\n        /* \"#utility.yul\":6438:6463   */\n      swap2\n      pop\n        /* \"#utility.yul\":6477:6497   */\n      tag_176\n        /* \"#utility.yul\":6495:6496   */\n      dup4\n        /* \"#utility.yul\":6477:6497   */\n      tag_62\n      jump\t// in\n    tag_176:\n        /* \"#utility.yul\":6472:6497   */\n      swap3\n      pop\n        /* \"#utility.yul\":6520:6521   */\n      dup3\n        /* \"#utility.yul\":6517:6518   */\n      dup3\n        /* \"#utility.yul\":6513:6522   */\n      add\n        /* \"#utility.yul\":6506:6522   */\n      swap1\n      pop\n        /* \"#utility.yul\":6541:6544   */\n      dup1\n        /* \"#utility.yul\":6538:6539   */\n      dup3\n        /* \"#utility.yul\":6535:6545   */\n      gt\n        /* \"#utility.yul\":6532:6568   */\n      iszero\n      tag_177\n      jumpi\n        /* \"#utility.yul\":6548:6566   */\n      tag_178\n      tag_80\n      jump\t// in\n    tag_178:\n        /* \"#utility.yul\":6532:6568   */\n    tag_177:\n        /* \"#utility.yul\":6384:6575   */\n      swap3\n      swap2\n      pop\n      pop\n      jump\t// out\n        /* \"#utility.yul\":6581:6761   */\n    tag_81:\n        /* \"#utility.yul\":6629:6706   */\n      0x4e487b7100000000000000000000000000000000000000000000000000000000\n        /* \"#utility.yul\":6626:6627   */\n      0x00\n        /* \"#utility.yul\":6619:6707   */\n      mstore\n        /* \"#utility.yul\":6726:6730   */\n      0x41\n        /* \"#utility.yul\":6723:6724   */\n      0x04\n        /* \"#utility.yul\":6716:6731   */\n      mstore\n        /* \"#utility.yul\":6750:6754   */\n      0x24\n        /* \"#utility.yul\":6747:6748   */\n      0x00\n        /* \"#utility.yul\":6740:6755   */\n      revert\n        /* \"#utility.yul\":6767:6908   */\n    tag_82:\n        /* \"#utility.yul\":6816:6820   */\n      0x00\n        /* \"#utility.yul\":6839:6842   */\n      dup2\n        /* \"#utility.yul\":6831:6842   */\n      swap1\n      pop\n        /* \"#utility.yul\":6862:6865   */\n      dup2\n        /* \"#utility.yul\":6859:6860   */\n      0x00\n        /* \"#utility.yul\":6852:6866   */\n      mstore\n        /* \"#utility.yul\":6896:6900   */\n      0x20\n        /* \"#utility.yul\":6893:6894   */\n      0x00\n        /* \"#utility.yul\":6883:6901   */\n      keccak256\n        /* \"#utility.yul\":6875:6901   */\n      swap1\n      pop\n        /* \"#utility.yul\":6767:6908   */\n      swap2\n      swap1\n      pop\n      jump\t// out\n        /* \"#utility.yul\":6914:7007   */\n    tag_83:\n        /* \"#utility.yul\":6951:6957   */\n      0x00\n        /* \"#utility.yul\":6998:7000   */\n      0x20\n        /* \"#utility.yul\":6993:6995   */\n      0x1f\n        /* \"#utility.yul\":6986:6991   */\n      dup4\n        /* \"#utility.yul\":6982:6996   */\n      add\n        /* \"#utility.yul\":6978:7001   */\n      div\n        /* \"#utility.yul\":6968:7001   */\n      swap1\n      pop\n        /* \"#utility.yul\":6914:7007   */\n      swap2\n      swap1\n      pop\n      jump\t// out\n        /* \"#utility.yul\":7013:7120   */\n    tag_84:\n        /* \"#utility.yul\":7057:7065   */\n      0x00\n        /* \"#utility.yul\":7107:7112   */\n      dup3\n        /* \"#utility.yul\":7101:7105   */\n      dup3\n        /* \"#utility.yul\":7097:7113   */\n      shl\n        /* \"#utility.yul\":7076:7113   */\n      swap1\n      pop\n        /* \"#utility.yul\":7013:7120   */\n      swap3\n      swap2\n      pop\n      pop\n      jump\t// out\n        /* \"#utility.yul\":7126:7519   */\n    tag_85:\n        /* \"#utility.yul\":7195:7201   */\n      0x00\n        /* \"#utility.yul\":7245:7246   */\n      0x08\n        /* \"#utility.yul\":7233:7243   */\n      dup4\n        /* \"#utility.yul\":7229:7247   */\n      mul\n        /* \"#utility.yul\":7268:7365   */\n      tag_184\n        /* \"#utility.yul\":7298:7364   */\n      0xffffffffffffffffffffffffffffffffffffffffffffffffffffffffffffffff\n        /* \"#utility.yul\":7287:7296   */\n      dup3\n        /* \"#utility.yul\":7268:7365   */\n      tag_84\n      jump\t// in\n    tag_184:\n        /* \"#utility.yul\":7386:7425   */\n      tag_185\n        /* \"#utility.yul\":7416:7424   */\n      dup7\n        /* \"#utility.yul\":7405:7414   */\n      dup4\n        /* \"#utility.yul\":7386:7425   */\n      tag_84\n      jump\t// in\n    tag_185:\n        /* \"#utility.yul\":7374:7425   */\n      swap6\n      pop\n        /* \"#utility.yul\":7458:7462   */\n      dup1\n        /* \"#utility.yul\":7454:7463   */\n      not\n        /* \"#utility.yul\":7447:7452   */\n      dup5\n        /* \"#utility.yul\":7443:7464   */\n      and\n        /* \"#utility.yul\":7434:7464   */\n      swap4\n      pop\n        /* \"#utility.yul\":7507:7511   */\n      dup1\n        /* \"#utility.yul\":7497:7505   */\n      dup7\n        /* \"#utility.yul\":7493:7512   */\n      and\n        /* \"#utility.yul\":7486:7491   */\n      dup5\n        /* \"#utility.yul\":7483:7513   */\n      or\n        /* \"#utility.yul\":7473:7513   */\n      swap3\n      pop\n        /* \"#utility.yul\":7202:7519   */\n      pop\n      pop\n        /* \"#utility.yul\":7126:7519   */\n      swap4\n      swap3\n      pop\n      pop\n      pop\n      jump\t// out\n        /* \"#utility.yul\":7525:7585   */\n    tag_86:\n        /* \"#utility.yul\":7553:7556   */\n      0x00\n        /* \"#utility.yul\":7574:7579   */\n      dup2\n        /* \"#utility.yul\":7567:7579   */\n      swap1\n      pop\n        /* \"#utility.yul\":7525:7585   */\n      swap2\n      swap1\n      pop\n      jump\t// out\n        /* \"#utility.yul\":7591:7733   */\n    tag_87:\n        /* \"#utility.yul\":7641:7650   */\n      0x00\n        /* \"#utility.yul\":7674:7727   */\n      tag_188\n        /* \"#utility.yul\":7692:7726   */\n      tag_189\n        /* \"#utility.yul\":7701:7725   */\n      tag_190\n        /* \"#utility.yul\":7719:7724   */\n      dup5\n        /* \"#utility.yul\":7701:7725   */\n      tag_62\n      jump\t// in\n    tag_190:\n        /* \"#utility.yul\":7692:7726   */\n      tag_86\n      jump\t// in\n    tag_189:\n        /* \"#utility.yul\":7674:7727   */\n      tag_62\n      jump\t// in\n    tag_188:\n        /* \"#utility.yul\":7661:7727   */\n      swap1\n      pop\n        /* \"#utility.yul\":7591:7733   */\n      swap2\n      swap1\n      pop\n      jump\t// out\n        /* \"#utility.yul\":7739:7814   */\n    tag_88:\n        /* \"#utility.yul\":7782:7785   */\n      0x00\n        /* \"#utility.yul\":7803:7808   */\n      dup2\n        /* \"#utility.yul\":7796:7808   */\n      swap1\n      pop\n        /* \"#utility.yul\":7739:7814   */\n      swap2\n      swap1\n      pop\n      jump\t// out\n        /* \"#utility.yul\":7820:8089   */\n    tag_89:\n        /* \"#utility.yul\":7930:7969   */\n      tag_193\n        /* \"#utility.yul\":7961:7968   */\n      dup4\n        /* \"#utility.yul\":7930:7969   */\n      tag_87\n      jump\t// in\n    tag_193:\n        /* \"#utility.yul\":7991:8082   */\n      tag_194\n        /* \"#utility.yul\":8040:8081   */\n      tag_195\n        /* \"#utility.yul\":8064:8080   */\n      dup3\n        /* \"#utility.yul\":8040:8081   */\n      tag_88\n      jump\t// in\n    tag_195:\n        /* \"#utility.yul\":8032:8038   */\n      dup5\n        /* \"#utility.yul\":8025:8029   */\n      dup5\n        /* \"#utility.yul\":8019:8030   */\n      sload\n        /* \"#utility.yul\":7991:8082   */\n      tag_85\n      jump\t// in\n    tag_194:\n        /* \"#utility.yul\":7985:7989   */\n      dup3\n        /* \"#utility.yul\":7978:8083   */\n      sstore\n        /* \"#utility.yul\":7896:8089   */\n      pop\n        /* \"#utility.yul\":7820:8089   */\n      pop\n      pop\n      pop\n      jump\t// out\n        /* \"#utility.yul\":8095:8168   */\n    tag_90:\n        /* \"#utility.yul\":8140:8143   */\n      0x00\n        /* \"#utility.yul\":8095:8168   */\n      swap1\n      jump\t// out\n        /* \"#utility.yul\":8174:8363   */\n    tag_91:\n        /* \"#utility.yul\":8251:8283   */\n      tag_198\n      tag_90\n      jump\t// in\n    tag_198:\n        /* \"#utility.yul\":8292:8357   */\n      tag_199\n        /* \"#utility.yul\":8350:8356   */\n      dup2\n        /* \"#utility.yul\":8342:8348   */\n      dup5\n        /* \"#utility.yul\":8336:8340   */\n      dup5\n        /* \"#utility.yul\":8292:8357   */\n      tag_89\n      jump\t// in\n    tag_199:\n        /* \"#utility.yul\":8227:8363   */\n      pop\n        /* \"#utility.yul\":8174:8363   */\n      pop\n      pop\n      jump\t// out\n        /* \"#utility.yul\":8369:8555   */\n    tag_92:\n        /* \"#utility.yul\":8429:8549   */\n    tag_201:\n        /* \"#utility.yul\":8446:8449   */\n      dup2\n        /* \"#utility.yul\":8439:8444   */\n      dup2\n        /* \"#utility.yul\":8436:8450   */\n      lt\n        /* \"#utility.yul\":8429:8549   */\n      iszero\n      tag_203\n      jumpi\n        /* \"#utility.yul\":8500:8539   */\n      tag_204\n        /* \"#utility.yul\":8537:8538   */\n      0x00\n        /* \"#utility.yul\":8530:8535   */\n      dup3\n        /* \"#utility.yul\":8500:8539   */\n      tag_91\n      jump\t// in\n    tag_204:\n        /* \"#utility.yul\":8473:8474   */\n      0x01\n        /* \"#utility.yul\":8466:8471   */\n      dup2\n        /* \"#utility.yul\":8462:8475   */\n      add\n        /* \"#utility.yul\":8453:8475   */\n      swap1\n      pop\n        /* \"#utility.yul\":8429:8549   */\n      jump(tag_201)\n    tag_203:\n        /* \"#utility.yul\":8369:8555   */\n      pop\n      pop\n      jump\t// out\n        /* \"#utility.yul\":8561:9104   */\n    tag_93:\n        /* \"#utility.yul\":8662:8664   */\n      0x1f\n        /* \"#utility.yul\":8657:8660   */\n      dup3\n        /* \"#utility.yul\":8654:8665   */\n      gt\n        /* \"#utility.yul\":8651:9097   */\n      iszero\n      tag_206\n      jumpi\n        /* \"#utility.yul\":8696:8734   */\n      tag_207\n        /* \"#utility.yul\":8728:8733   */\n      dup2\n        /* \"#utility.yul\":8696:8734   */\n      tag_82\n      jump\t// in\n    tag_207:\n        /* \"#utility.yul\":8780:8809   */\n      tag_208\n        /* \"#utility.yul\":8798:8808   */\n      dup5\n        /* \"#utility.yul\":8780:8809   */\n      tag_83\n      jump\t// in\n    tag_208:\n        /* \"#utility.yul\":8770:8778   */\n      dup2\n        /* \"#utility.yul\":8766:8810   */\n      add\n        /* \"#utility.yul\":8963:8965   */\n      0x20\n        /* \"#utility.yul\":8951:8961   */\n      dup6\n        /* \"#utility.yul\":8948:8966   */\n      lt\n        /* \"#utility.yul\":8945:8994   */\n      iszero\n      tag_209\n      jumpi\n        /* \"#utility.yul\":8984:8992   */\n      dup2\n        /* \"#utility.yul\":8969:8992   */\n      swap1\n      pop\n        /* \"#utility.yul\":8945:8994   */\n    tag_209:\n        /* \"#utility.yul\":9007:9087   */\n      tag_210\n        /* \"#utility.yul\":9063:9085   */\n      tag_211\n        /* \"#utility.yul\":9081:9084   */\n      dup6\n        /* \"#utility.yul\":9063:9085   */\n      tag_83\n      jump\t// in\n    tag_211:\n        /* \"#utility.yul\":9053:9061   */\n      dup4\n        /* \"#utility.yul\":9049:9086   */\n      add\n        /* \"#utility.yul\":9036:9047   */\n      dup3\n        /* \"#utility.yul\":9007:9087   */\n      tag_92\n      jump\t// in\n    tag_210:\n        /* \"#utility.yul\":8666:9097   */\n      pop\n      pop\n        /* \"#utility.yul\":8651:9097   */\n    tag_206:\n        /* \"#utility.yul\":8561:9104   */\n      pop\n      pop\n      pop\n      jump\t// out\n        /* \"#utility.yul\":9110:9227   */\n    tag_94:\n        /* \"#utility.yul\":9164:9172   */\n      0x00\n        /* \"#utility.yul\":9214:9219   */\n      dup3\n        /* \"#utility.yul\":9208:9212   */\n      dup3\n        /* \"#utility.yul\":9204:9220   */\n      shr\n        /* \"#utility.yul\":9183:9220   */\n      swap1\n      pop\n        /* \"#utility.yul\":9110:9227   */\n      swap3\n      swap2\n      pop\n      pop\n      jump\t// out\n        /* \"#utility.yul\":9233:9402   */\n    tag_95:\n        /* \"#utility.yul\":9277:9283   */\n      0x00\n        /* \"#utility.yul\":9310:9361   */\n      tag_214\n        /* \"#utility.yul\":9358:9359   */\n      0x00\n        /* \"#utility.yul\":9354:9360   */\n      not\n        /* \"#utility.yul\":9346:9351   */\n      dup5\n        /* \"#utility.yul\":9343:9344   */\n      0x08\n        /* \"#utility.yul\":9339:9352   */\n      mul\n        /* \"#utility.yul\":9310:9361   */\n      tag_94\n      jump\t// in\n    tag_214:\n        /* \"#utility.yul\":9306:9362   */\n      not\n        /* \"#utility.yul\":9391:9395   */\n      dup1\n        /* \"#utility.yul\":9385:9389   */\n      dup4\n        /* \"#utility.yul\":9381:9396   */\n      and\n        /* \"#utility.yul\":9371:9396   */\n      swap2\n      pop\n        /* \"#utility.yul\":9284:9402   */\n      pop\n        /* \"#utility.yul\":9233:9402   */\n      swap3\n      swap2\n      pop\n      pop\n      jump\t// out\n        /* \"#utility.yul\":9407:9702   */\n    tag_96:\n        /* \"#utility.yul\":9483:9487   */\n      0x00\n        /* \"#utility.yul\":9629:9658   */\n      tag_216\n        /* \"#utility.yul\":9654:9657   */\n      dup4\n        /* \"#utility.yul\":9648:9652   */\n      dup4\n        /* \"#utility.yul\":9629:9658   */\n      tag_95\n      jump\t// in\n    tag_216:\n        /* \"#utility.yul\":9621:9658   */\n      swap2\n      pop\n        /* \"#utility.yul\":9691:9694   */\n      dup3\n        /* \"#utility.yul\":9688:9689   */\n      0x02\n        /* \"#utility.yul\":9684:9695   */\n      mul\n        /* \"#utility.yul\":9678:9682   */\n      dup3\n        /* \"#utility.yul\":9675:9696   */\n      or\n        /* \"#utility.yul\":9667:9696   */\n      swap1\n      pop\n        /* \"#utility.yul\":9407:9702   */\n      swap3\n      swap2\n      pop\n      pop\n      jump\t// out\n        /* \"#utility.yul\":9707:11102   */\n    tag_36:\n        /* \"#utility.yul\":9824:9861   */\n      tag_218\n        /* \"#utility.yul\":9857:9860   */\n      dup3\n        /* \"#utility.yul\":9824:9861   */\n      tag_66\n      jump\t// in\n    tag_218:\n        /* \"#utility.yul\":9926:9944   */\n      0xffffffffffffffff\n        /* \"#utility.yul\":9918:9924   */\n      dup2\n        /* \"#utility.yul\":9915:9945   */\n      gt\n        /* \"#utility.yul\":9912:9968   */\n      iszero\n      tag_219\n      jumpi\n        /* \"#utility.yul\":9948:9966   */\n      tag_220\n      tag_81\n      jump\t// in\n    tag_220:\n        /* \"#utility.yul\":9912:9968   */\n    tag_219:\n        /* \"#utility.yul\":9992:10030   */\n      tag_221\n        /* \"#utility.yul\":10024:10028   */\n      dup3\n        /* \"#utility.yul\":10018:10029   */\n      sload\n        /* \"#utility.yul\":9992:10030   */\n      tag_22\n      jump\t// in\n    tag_221:\n        /* \"#utility.yul\":10077:10144   */\n      tag_222\n        /* \"#utility.yul\":10137:10143   */\n      dup3\n        /* \"#utility.yul\":10129:10135   */\n      dup3\n        /* \"#utility.yul\":10123:10127   */\n      dup6\n        /* \"#utility.yul\":10077:10144   */\n      tag_93\n      jump\t// in\n    tag_222:\n        /* \"#utility.yul\":10171:10172   */\n      0x00\n        /* \"#utility.yul\":10195:10199   */\n      0x20\n        /* \"#utility.yul\":10182:10199   */\n      swap1\n      pop\n        /* \"#utility.yul\":10227:10229   */\n      0x1f\n        /* \"#utility.yul\":10219:10225   */\n      dup4\n        /* \"#utility.yul\":10216:10230   */\n      gt\n        /* \"#utility.yul\":10244:10245   */\n      0x01\n        /* \"#utility.yul\":10239:10857   */\n      dup2\n      eq\n      tag_224\n      jumpi\n        /* \"#utility.yul\":10901:10902   */\n      0x00\n        /* \"#utility.yul\":10918:10924   */\n      dup5\n        /* \"#utility.yul\":10915:10992   */\n      iszero\n      tag_225\n      jumpi\n        /* \"#utility.yul\":10967:10976   */\n      dup3\n        /* \"#utility.yul\":10962:10965   */\n      dup8\n        /* \"#utility.yul\":10958:10977   */\n      add\n        /* \"#utility.yul\":10952:10978   */\n      mload\n        /* \"#utility.yul\":10943:10978   */\n      swap1\n      pop\n        /* \"#utility.yul\":10915:10992   */\n    tag_225:\n        /* \"#utility.yul\":11018:11085   */\n      tag_226\n        /* \"#utility.yul\":11078:11084   */\n      dup6\n        /* \"#utility.yul\":11071:11076   */\n      dup3\n        /* \"#utility.yul\":11018:11085   */\n      tag_96\n      jump\t// in\n    tag_226:\n        /* \"#utility.yul\":11012:11016   */\n      dup7\n        /* \"#utility.yul\":11005:11086   */\n      sstore\n        /* \"#utility.yul\":10874:11096   */\n      pop\n        /* \"#utility.yul\":10209:11096   */\n      jump(tag_223)\n        /* \"#utility.yul\":10239:10857   */\n    tag_224:\n        /* \"#utility.yul\":10291:10295   */\n      0x1f\n        /* \"#utility.yul\":10287:10296   */\n      not\n        /* \"#utility.yul\":10279:10285   */\n      dup5\n        /* \"#utility.yul\":10275:10297   */\n      and\n        /* \"#utility.yul\":10325:10362   */\n      tag_227\n        /* \"#utility.yul\":10357:10361   */\n      dup7\n        /* \"#utility.yul\":10325:10362   */\n      tag_82\n      jump\t// in\n    tag_227:\n        /* \"#utility.yul\":10384:10385   */\n      0x00\n        /* \"#utility.yul\":10398:10606   */\n    tag_228:\n        /* \"#utility.yul\":10412:10419   */\n      dup3\n        /* \"#utility.yul\":10409:10410   */\n      dup2\n        /* \"#utility.yul\":10406:10420   */\n      lt\n        /* \"#utility.yul\":10398:10606   */\n      iszero\n      tag_230\n      jumpi\n        /* \"#utility.yul\":10491:10500   */\n      dup5\n        /* \"#utility.yul\":10486:10489   */\n      dup10\n        /* \"#utility.yul\":10482:10501   */\n      add\n        /* \"#utility.yul\":10476:10502   */\n      mload\n        /* \"#utility.yul\":10468:10474   */\n      dup3\n        /* \"#utility.yul\":10461:10503   */\n      sstore\n        /* \"#utility.yul\":10542:10543   */\n      0x01\n        /* \"#utility.yul\":10534:10540   */\n      dup3\n        /* \"#utility.yul\":10530:10544   */\n      add\n        /* \"#utility.yul\":10520:10544   */\n      swap2\n      pop\n        /* \"#utility.yul\":10589:10591   */\n      0x20\n        /* \"#utility.yul\":10578:10587   */\n      dup6\n        /* \"#utility.yul\":10574:10592   */\n      add\n        /* \"#utility.yul\":10561:10592   */\n      swap5\n      pop\n        /* \"#utility.yul\":10435:10439   */\n      0x20\n        /* \"#utility.yul\":10432:10433   */\n      dup2\n        /* \"#utility.yul\":10428:10440   */\n      add\n        /* \"#utility.yul\":10423:10440   */\n      swap1\n      pop\n        /* \"#utility.yul\":10398:10606   */\n      jump(tag_228)\n    tag_230:\n        /* \"#utility.yul\":10634:10640   */\n      dup7\n        /* \"#utility.yul\":10625:10632   */\n      dup4\n        /* \"#utility.yul\":10622:10641   */\n      lt\n        /* \"#utility.yul\":10619:10798   */\n      iszero\n      tag_231\n      jumpi\n        /* \"#utility.yul\":10692:10701   */\n      dup5\n        /* \"#utility.yul\":10687:10690   */\n      dup10\n        /* \"#utility.yul\":10683:10702   */\n      add\n        /* \"#utility.yul\":10677:10703   */\n      mload\n        /* \"#utility.yul\":10735:10783   */\n      tag_232\n        /* \"#utility.yul\":10777:10781   */\n      0x1f\n        /* \"#utility.yul\":10769:10775   */\n      dup10\n        /* \"#utility.yul\":10765:10782   */\n      and\n        /* \"#utility.yul\":10754:10763   */\n      dup3\n        /* \"#utility.yul\":10735:10783   */\n      tag_95\n      jump\t// in\n    tag_232:\n        /* \"#utility.yul\":10727:10733   */\n      dup4\n        /* \"#utility.yul\":10720:10784   */\n      sstore\n        /* \"#utility.yul\":10642:10798   */\n      pop\n        /* \"#utility.yul\":10619:10798   */\n    tag_231:\n        /* \"#utility.yul\":10844:10845   */\n      0x01\n        /* \"#utility.yul\":10840:10841   */\n      0x02\n        /* \"#utility.yul\":10832:10838   */\n      dup9\n        /* \"#utility.yul\":10828:10842   */\n      mul\n        /* \"#utility.yul\":10824:10846   */\n      add\n        /* \"#utility.yul\":10818:10822   */\n      dup9\n        /* \"#utility.yul\":10811:10847   */\n      sstore\n        /* \"#utility.yul\":10246:10857   */\n      pop\n      pop\n      pop\n        /* \"#utility.yul\":10209:11096   */\n    tag_223:\n      pop\n        /* \"#utility.yul\":9799:11102   */\n      pop\n      pop\n      pop\n        /* \"#utility.yul\":9707:11102   */\n      pop\n      pop\n      jump\t// out\n        /* \"#utility.yul\":11108:11641   */\n    tag_38:\n        /* \"#utility.yul\":11277:11281   */\n      0x00\n        /* \"#utility.yul\":11315:11317   */\n      0x60\n        /* \"#utility.yul\":11304:11313   */\n      dup3\n        /* \"#utility.yul\":11300:11318   */\n      add\n        /* \"#utility.yul\":11292:11318   */\n      swap1\n      pop\n        /* \"#utility.yul\":11328:11399   */\n      tag_234\n        /* \"#utility.yul\":11396:11397   */\n      0x00\n        /* \"#utility.yul\":11385:11394   */\n      dup4\n        /* \"#utility.yul\":11381:11398   */\n      add\n        /* \"#utility.yul\":11372:11378   */\n      dup7\n        /* \"#utility.yul\":11328:11399   */\n      tag_65\n      jump\t// in\n    tag_234:\n        /* \"#utility.yul\":11446:11455   */\n      dup2\n        /* \"#utility.yul\":11440:11444   */\n      dup2\n        /* \"#utility.yul\":11436:11456   */\n      sub\n        /* \"#utility.yul\":11431:11433   */\n      0x20\n        /* \"#utility.yul\":11420:11429   */\n      dup4\n        /* \"#utility.yul\":11416:11434   */\n      add\n        /* \"#utility.yul\":11409:11457   */\n      mstore\n        /* \"#utility.yul\":11474:11552   */\n      tag_235\n        /* \"#utility.yul\":11547:11551   */\n      dup2\n        /* \"#utility.yul\":11538:11544   */\n      dup6\n        /* \"#utility.yul\":11474:11552   */\n      tag_70\n      jump\t// in\n    tag_235:\n        /* \"#utility.yul\":11466:11552   */\n      swap1\n      pop\n        /* \"#utility.yul\":11562:11634   */\n      tag_236\n        /* \"#utility.yul\":11630:11632   */\n      0x40\n        /* \"#utility.yul\":11619:11628   */\n      dup4\n        /* \"#utility.yul\":11615:11633   */\n      add\n        /* \"#utility.yul\":11606:11612   */\n      dup5\n        /* \"#utility.yul\":11562:11634   */\n      tag_65\n      jump\t// in\n    tag_236:\n        /* \"#utility.yul\":11108:11641   */\n      swap5\n      swap4\n      pop\n      pop\n      pop\n      pop\n      jump\t// out\n        /* \"#utility.yul\":11647:11810   */\n    tag_97:\n        /* \"#utility.yul\":11787:11802   */\n      0x496e636f72726563742069642e00000000000000000000000000000000000000\n        /* \"#utility.yul\":11783:11784   */\n      0x00\n        /* \"#utility.yul\":11775:11781   */\n      dup3\n        /* \"#utility.yul\":11771:11785   */\n      add\n        /* \"#utility.yul\":11764:11803   */\n      mstore\n        /* \"#utility.yul\":11647:11810   */\n      pop\n      jump\t// out\n        /* \"#utility.yul\":11816:12182   */\n    tag_98:\n        /* \"#utility.yul\":11958:11961   */\n      0x00\n        /* \"#utility.yul\":11979:12046   */\n      tag_239\n        /* \"#utility.yul\":12043:12045   */\n      0x0d\n        /* \"#utility.yul\":12038:12041   */\n      dup4\n        /* \"#utility.yul\":11979:12046   */\n      tag_67\n      jump\t// in\n    tag_239:\n        /* \"#utility.yul\":11972:12046   */\n      swap2\n      pop\n        /* \"#utility.yul\":12055:12148   */\n      tag_240\n        /* \"#utility.yul\":12144:12147   */\n      dup3\n        /* \"#utility.yul\":12055:12148   */\n      tag_97\n      jump\t// in\n    tag_240:\n        /* \"#utility.yul\":12173:12175   */\n      0x20\n        /* \"#utility.yul\":12168:12171   */\n      dup3\n        /* \"#utility.yul\":12164:12176   */\n      add\n        /* \"#utility.yul\":12157:12176   */\n      swap1\n      pop\n        /* \"#utility.yul\":11816:12182   */\n      swap2\n      swap1\n      pop\n      jump\t// out\n        /* \"#utility.yul\":12188:12607   */\n    tag_42:\n        /* \"#utility.yul\":12354:12358   */\n      0x00\n        /* \"#utility.yul\":12392:12394   */\n      0x20\n        /* \"#utility.yul\":12381:12390   */\n      dup3\n        /* \"#utility.yul\":12377:12395   */\n      add\n        /* \"#utility.yul\":12369:12395   */\n      swap1\n      pop\n        /* \"#utility.yul\":12441:12450   */\n      dup2\n        /* \"#utility.yul\":12435:12439   */\n      dup2\n        /* \"#utility.yul\":12431:12451   */\n      sub\n        /* \"#utility.yul\":12427:12428   */\n      0x00\n        /* \"#utility.yul\":12416:12425   */\n      dup4\n        /* \"#utility.yul\":12412:12429   */\n      add\n        /* \"#utility.yul\":12405:12452   */\n      mstore\n        /* \"#utility.yul\":12469:12600   */\n      tag_242\n        /* \"#utility.yul\":12595:12599   */\n      dup2\n        /* \"#utility.yul\":12469:12600   */\n      tag_98\n      jump\t// in\n    tag_242:\n        /* \"#utility.yul\":12461:12600   */\n      swap1\n      pop\n        /* \"#utility.yul\":12188:12607   */\n      swap2\n      swap1\n      pop\n      jump\t// out\n        /* \"#utility.yul\":12613:12793   */\n    tag_45:\n        /* \"#utility.yul\":12661:12738   */\n      0x4e487b7100000000000000000000000000000000000000000000000000000000\n        /* \"#utility.yul\":12658:12659   */\n      0x00\n        /* \"#utility.yul\":12651:12739   */\n      mstore\n        /* \"#utility.yul\":12758:12762   */\n      0x32\n        /* \"#utility.yul\":12755:12756   */\n      0x04\n        /* \"#utility.yul\":12748:12763   */\n      mstore\n        /* \"#utility.yul\":12782:12786   */\n      0x24\n        /* \"#utility.yul\":12779:12780   */\n      0x00\n        /* \"#utility.yul\":12772:12787   */\n      revert\n        /* \"#utility.yul\":12823:13654   */\n    tag_99:\n        /* \"#utility.yul\":12908:12911   */\n      0x00\n        /* \"#utility.yul\":12945:12950   */\n      dup2\n        /* \"#utility.yul\":12939:12951   */\n      sload\n        /* \"#utility.yul\":12974:13010   */\n      tag_245\n        /* \"#utility.yul\":13000:13009   */\n      dup2\n        /* \"#utility.yul\":12974:13010   */\n      tag_22\n      jump\t// in\n    tag_245:\n        /* \"#utility.yul\":13026:13097   */\n      tag_246\n        /* \"#utility.yul\":13090:13096   */\n      dup2\n        /* \"#utility.yul\":13085:13088   */\n      dup7\n        /* \"#utility.yul\":13026:13097   */\n      tag_67\n      jump\t// in\n    tag_246:\n        /* \"#utility.yul\":13019:13097   */\n      swap5\n      pop\n        /* \"#utility.yul\":13128:13129   */\n      0x01\n        /* \"#utility.yul\":13117:13126   */\n      dup3\n        /* \"#utility.yul\":13113:13130   */\n      and\n        /* \"#utility.yul\":13144:13145   */\n      0x00\n        /* \"#utility.yul\":13139:13303   */\n      dup2\n      eq\n      tag_248\n      jumpi\n        /* \"#utility.yul\":13317:13318   */\n      0x01\n        /* \"#utility.yul\":13312:13648   */\n      dup2\n      eq\n      tag_249\n      jumpi\n        /* \"#utility.yul\":13106:13648   */\n      jump(tag_247)\n        /* \"#utility.yul\":13139:13303   */\n    tag_248:\n        /* \"#utility.yul\":13223:13227   */\n      0xff\n        /* \"#utility.yul\":13219:13228   */\n      not\n        /* \"#utility.yul\":13208:13217   */\n      dup4\n        /* \"#utility.yul\":13204:13229   */\n      and\n        /* \"#utility.yul\":13199:13202   */\n      dup7\n        /* \"#utility.yul\":13192:13230   */\n      mstore\n        /* \"#utility.yul\":13283:13289   */\n      dup2\n        /* \"#utility.yul\":13276:13290   */\n      iszero\n        /* \"#utility.yul\":13269:13291   */\n      iszero\n        /* \"#utility.yul\":13263:13267   */\n      0x20\n        /* \"#utility.yul\":13259:13292   */\n      mul\n        /* \"#utility.yul\":13254:13257   */\n      dup7\n        /* \"#utility.yul\":13250:13293   */\n      add\n        /* \"#utility.yul\":13243:13293   */\n      swap4\n      pop\n        /* \"#utility.yul\":13139:13303   */\n      jump(tag_247)\n        /* \"#utility.yul\":13312:13648   */\n    tag_249:\n        /* \"#utility.yul\":13379:13417   */\n      tag_250\n        /* \"#utility.yul\":13411:13416   */\n      dup6\n        /* \"#utility.yul\":13379:13417   */\n      tag_82\n      jump\t// in\n    tag_250:\n        /* \"#utility.yul\":13439:13440   */\n      0x00\n        /* \"#utility.yul\":13453:13607   */\n    tag_251:\n        /* \"#utility.yul\":13467:13473   */\n      dup4\n        /* \"#utility.yul\":13464:13465   */\n      dup2\n        /* \"#utility.yul\":13461:13474   */\n      lt\n        /* \"#utility.yul\":13453:13607   */\n      iszero\n      tag_253\n      jumpi\n        /* \"#utility.yul\":13541:13548   */\n      dup2\n        /* \"#utility.yul\":13535:13549   */\n      sload\n        /* \"#utility.yul\":13531:13532   */\n      dup2\n        /* \"#utility.yul\":13526:13529   */\n      dup10\n        /* \"#utility.yul\":13522:13533   */\n      add\n        /* \"#utility.yul\":13515:13550   */\n      mstore\n        /* \"#utility.yul\":13591:13592   */\n      0x01\n        /* \"#utility.yul\":13582:13589   */\n      dup3\n        /* \"#utility.yul\":13578:13593   */\n      add\n        /* \"#utility.yul\":13567:13593   */\n      swap2\n      pop\n        /* \"#utility.yul\":13489:13493   */\n      0x20\n        /* \"#utility.yul\":13486:13487   */\n      dup2\n        /* \"#utility.yul\":13482:13494   */\n      add\n        /* \"#utility.yul\":13477:13494   */\n      swap1\n      pop\n        /* \"#utility.yul\":13453:13607   */\n      jump(tag_251)\n    tag_253:\n        /* \"#utility.yul\":13636:13637   */\n      dup1\n        /* \"#utility.yul\":13631:13634   */\n      dup9\n        /* \"#utility.yul\":13627:13638   */\n      add\n        /* \"#utility.yul\":13620:13638   */\n      swap6\n      pop\n        /* \"#utility.yul\":13319:13648   */\n      pop\n      pop\n        /* \"#utility.yul\":13106:13648   */\n    tag_247:\n      pop\n        /* \"#utility.yul\":12912:13654   */\n      pop\n      pop\n        /* \"#utility.yul\":12823:13654   */\n      swap3\n      swap2\n      pop\n      pop\n      jump\t// out\n        /* \"#utility.yul\":13660:13967   */\n    tag_49:\n        /* \"#utility.yul\":13770:13774   */\n      0x00\n        /* \"#utility.yul\":13808:13810   */\n      0x20\n        /* \"#utility.yul\":13797:13806   */\n      dup3\n        /* \"#utility.yul\":13793:13811   */\n      add\n        /* \"#utility.yul\":13785:13811   */\n      swap1\n      pop\n        /* \"#utility.yul\":13857:13866   */\n      dup2\n        /* \"#utility.yul\":13851:13855   */\n      dup2\n        /* \"#utility.yul\":13847:13867   */\n      sub\n        /* \"#utility.yul\":13843:13844   */\n      0x00\n        /* \"#utility.yul\":13832:13841   */\n      dup4\n        /* \"#utility.yul\":13828:13845   */\n      add\n        /* \"#utility.yul\":13821:13868   */\n      mstore\n        /* \"#utility.yul\":13885:13960   */\n      tag_255\n        /* \"#utility.yul\":13955:13959   */\n      dup2\n        /* \"#utility.yul\":13946:13952   */\n      dup5\n        /* \"#utility.yul\":13885:13960   */\n      tag_99\n      jump\t// in\n    tag_255:\n        /* \"#utility.yul\":13877:13960   */\n      swap1\n      pop\n        /* \"#utility.yul\":13660:13967   */\n      swap3\n      swap2\n      pop\n      pop\n      jump\t// out\n        /* \"#utility.yul\":13973:14390   */\n    tag_58:\n        /* \"#utility.yul\":14111:14115   */\n      0x00\n        /* \"#utility.yul\":14149:14151   */\n      0x40\n        /* \"#utility.yul\":14138:14147   */\n      dup3\n        /* \"#utility.yul\":14134:14152   */\n      add\n        /* \"#utility.yul\":14126:14152   */\n      swap1\n      pop\n        /* \"#utility.yul\":14198:14207   */\n      dup2\n        /* \"#utility.yul\":14192:14196   */\n      dup2\n        /* \"#utility.yul\":14188:14208   */\n      sub\n        /* \"#utility.yul\":14184:14185   */\n      0x00\n        /* \"#utility.yul\":14173:14182   */\n      dup4\n        /* \"#utility.yul\":14169:14186   */\n      add\n        /* \"#utility.yul\":14162:14209   */\n      mstore\n        /* \"#utility.yul\":14226:14301   */\n      tag_257\n        /* \"#utility.yul\":14296:14300   */\n      dup2\n        /* \"#utility.yul\":14287:14293   */\n      dup6\n        /* \"#utility.yul\":14226:14301   */\n      tag_99\n      jump\t// in\n    tag_257:\n        /* \"#utility.yul\":14218:14301   */\n      swap1\n      pop\n        /* \"#utility.yul\":14311:14383   */\n      tag_258\n        /* \"#utility.yul\":14379:14381   */\n      0x20\n        /* \"#utility.yul\":14368:14377   */\n      dup4\n        /* \"#utility.yul\":14364:14382   */\n      add\n        /* \"#utility.yul\":14355:14361   */\n      dup5\n        /* \"#utility.yul\":14311:14383   */\n      tag_65\n      jump\t// in\n    tag_258:\n        /* \"#utility.yul\":13973:14390   */\n      swap4\n      swap3\n      pop\n      pop\n      pop\n      jump\t// out\n\n    auxdata: 0xa26469706673582212209227939436ef9931de50806480266f740bcb0aa6165d5f7db2ae299be164097164736f6c63430008110033\n}\n",
				"bytecode": {
					"linkReferences": {},
					"object": "608060405234801561001057600080fd5b50336000806101000a81548173ffffffffffffffffffffffffffffffffffffffff021916908373ffffffffffffffffffffffffffffffffffffffff160217905550610dc9806100606000396000f3fe608060405234801561001057600080fd5b50600436106100415760003560e01c806306ead22e14610046578063344d2d4a1461007c5780633d5c83d414610098575b600080fd5b610060600480360381019061005b91906105ca565b6100b4565b60405161007397969594939291906106b1565b60405180910390f35b610096600480360381019061009191906107b8565b6101b5565b005b6100b260048036038101906100ad91906105ca565b610383565b005b600181815481106100c457600080fd5b90600052602060002090600502016000915090508060000154908060010180546100ed9061086f565b80601f01602080910402602001604051908101604052809291908181526020018280546101199061086f565b80156101665780601f1061013b57610100808354040283529160200191610166565b820191906000526020600020905b81548152906001019060200180831161014957829003601f168201915b5050505050908060020160009054906101000a900460ff16908060020160019054906101000a900460ff16908060020160029054906101000a900460ff16908060030154908060040154905087565b600080600180549050146101d957600180805490506101d491906108cf565b6101e0565b6001805490505b905060006040518060e0016040528083815260200188888080601f016020809104026020016040519081016040528093929190818152602001838380828437600081840152601f19601f8201169050808301925050505050505081526020018615158152602001851515815260200184151581526020014281526020016203f4804261026c9190610903565b815250905060018190806001815401808255809150506001900390600052602060002090600502016000909190919091506000820151816000015560208201518160010190816102bc9190610b12565b5060408201518160020160006101000a81548160ff02191690831515021790555060608201518160020160016101000a81548160ff02191690831515021790555060808201518160020160026101000a81548160ff02191690831515021790555060a0820151816003015560c0820151816004015550507ffafb7311fc57ca8a55073f63725e888b4250c799d77ae873970d65ac08c5917a816000015182602001518360a0015160405161037293929190610be4565b60405180910390a150505050505050565b60008110156103c7576040517f08c379a00000000000000000000000000000000000000000000000000000000081526004016103be90610c6e565b60405180910390fd5b6000600182815481106103dd576103dc610c8e565b5b90600052602060002090600502019050600015158160020160009054906101000a900460ff16151503610445577fd53ecb21746e36da81ddab5bdcf35c93b4e7adb500e38a0ce440f729de177ac58160010160405161043c9190610d41565b60405180910390a15b600015158160020160019054906101000a900460ff1615150361049d577fd53ecb21746e36da81ddab5bdcf35c93b4e7adb500e38a0ce440f729de177ac5816001016040516104949190610d41565b60405180910390a15b600015158160020160029054906101000a900460ff161515036104f5577fd53ecb21746e36da81ddab5bdcf35c93b4e7adb500e38a0ce440f729de177ac5816001016040516104ec9190610d41565b60405180910390a15b426203f48082600301546105099190610903565b111561054a577fd53ecb21746e36da81ddab5bdcf35c93b4e7adb500e38a0ce440f729de177ac5816001016040516105419190610d41565b60405180910390a15b7f6fd4822621c89040f0ea90264351e7f95d334eb76155286b2c1b6732331ff93c816001014260405161057e929190610d63565b60405180910390a15050565b600080fd5b600080fd5b6000819050919050565b6105a781610594565b81146105b257600080fd5b50565b6000813590506105c48161059e565b92915050565b6000602082840312156105e0576105df61058a565b5b60006105ee848285016105b5565b91505092915050565b61060081610594565b82525050565b600081519050919050565b600082825260208201905092915050565b60005b83811015610640578082015181840152602081019050610625565b60008484015250505050565b6000601f19601f8301169050919050565b600061066882610606565b6106728185610611565b9350610682818560208601610622565b61068b8161064c565b840191505092915050565b60008115159050919050565b6106ab81610696565b82525050565b600060e0820190506106c6600083018a6105f7565b81810360208301526106d8818961065d565b90506106e760408301886106a2565b6106f460608301876106a2565b61070160808301866106a2565b61070e60a08301856105f7565b61071b60c08301846105f7565b98975050505050505050565b600080fd5b600080fd5b600080fd5b60008083601f84011261074c5761074b610727565b5b8235905067ffffffffffffffff8111156107695761076861072c565b5b60208301915083600182028301111561078557610784610731565b5b9250929050565b61079581610696565b81146107a057600080fd5b50565b6000813590506107b28161078c565b92915050565b6000806000806000608086880312156107d4576107d361058a565b5b600086013567ffffffffffffffff8111156107f2576107f161058f565b5b6107fe88828901610736565b95509550506020610811888289016107a3565b9350506040610822888289016107a3565b9250506060610833888289016107a3565b9150509295509295909350565b7f4e487b7100000000000000000000000000000000000000000000000000000000600052602260045260246000fd5b6000600282049050600182168061088757607f821691505b60208210810361089a57610899610840565b5b50919050565b7f4e487b7100000000000000000000000000000000000000000000000000000000600052601160045260246000fd5b60006108da82610594565b91506108e583610594565b92508282039050818111156108fd576108fc6108a0565b5b92915050565b600061090e82610594565b915061091983610594565b9250828201905080821115610931576109306108a0565b5b92915050565b7f4e487b7100000000000000000000000000000000000000000000000000000000600052604160045260246000fd5b60008190508160005260206000209050919050565b60006020601f8301049050919050565b600082821b905092915050565b6000600883026109c87fffffffffffffffffffffffffffffffffffffffffffffffffffffffffffffffff8261098b565b6109d2868361098b565b95508019841693508086168417925050509392505050565b6000819050919050565b6000610a0f610a0a610a0584610594565b6109ea565b610594565b9050919050565b6000819050919050565b610a29836109f4565b610a3d610a3582610a16565b848454610998565b825550505050565b600090565b610a52610a45565b610a5d818484610a20565b505050565b5b81811015610a8157610a76600082610a4a565b600181019050610a63565b5050565b601f821115610ac657610a9781610966565b610aa08461097b565b81016020851015610aaf578190505b610ac3610abb8561097b565b830182610a62565b50505b505050565b600082821c905092915050565b6000610ae960001984600802610acb565b1980831691505092915050565b6000610b028383610ad8565b9150826002028217905092915050565b610b1b82610606565b67ffffffffffffffff811115610b3457610b33610937565b5b610b3e825461086f565b610b49828285610a85565b600060209050601f831160018114610b7c5760008415610b6a578287015190505b610b748582610af6565b865550610bdc565b601f198416610b8a86610966565b60005b82811015610bb257848901518255600182019150602085019450602081019050610b8d565b86831015610bcf5784890151610bcb601f891682610ad8565b8355505b6001600288020188555050505b505050505050565b6000606082019050610bf960008301866105f7565b8181036020830152610c0b818561065d565b9050610c1a60408301846105f7565b949350505050565b7f496e636f72726563742069642e00000000000000000000000000000000000000600082015250565b6000610c58600d83610611565b9150610c6382610c22565b602082019050919050565b60006020820190508181036000830152610c8781610c4b565b9050919050565b7f4e487b7100000000000000000000000000000000000000000000000000000000600052603260045260246000fd5b60008154610cca8161086f565b610cd48186610611565b94506001821660008114610cef5760018114610d0557610d38565b60ff198316865281151560200286019350610d38565b610d0e85610966565b60005b83811015610d3057815481890152600182019150602081019050610d11565b808801955050505b50505092915050565b60006020820190508181036000830152610d5b8184610cbd565b905092915050565b60006040820190508181036000830152610d7d8185610cbd565b9050610d8c60208301846105f7565b939250505056fea26469706673582212209227939436ef9931de50806480266f740bcb0aa6165d5f7db2ae299be164097164736f6c63430008110033",
					"opcodes": "PUSH1 0x80 PUSH1 0x40 MSTORE CALLVALUE DUP1 ISZERO PUSH2 0x10 JUMPI PUSH1 0x0 DUP1 REVERT JUMPDEST POP CALLER PUSH1 0x0 DUP1 PUSH2 0x100 EXP DUP2 SLOAD DUP2 PUSH20 0xFFFFFFFFFFFFFFFFFFFFFFFFFFFFFFFFFFFFFFFF MUL NOT AND SWAP1 DUP4 PUSH20 0xFFFFFFFFFFFFFFFFFFFFFFFFFFFFFFFFFFFFFFFF AND MUL OR SWAP1 SSTORE POP PUSH2 0xDC9 DUP1 PUSH2 0x60 PUSH1 0x0 CODECOPY PUSH1 0x0 RETURN INVALID PUSH1 0x80 PUSH1 0x40 MSTORE CALLVALUE DUP1 ISZERO PUSH2 0x10 JUMPI PUSH1 0x0 DUP1 REVERT JUMPDEST POP PUSH1 0x4 CALLDATASIZE LT PUSH2 0x41 JUMPI PUSH1 0x0 CALLDATALOAD PUSH1 0xE0 SHR DUP1 PUSH4 0x6EAD22E EQ PUSH2 0x46 JUMPI DUP1 PUSH4 0x344D2D4A EQ PUSH2 0x7C JUMPI DUP1 PUSH4 0x3D5C83D4 EQ PUSH2 0x98 JUMPI JUMPDEST PUSH1 0x0 DUP1 REVERT JUMPDEST PUSH2 0x60 PUSH1 0x4 DUP1 CALLDATASIZE SUB DUP2 ADD SWAP1 PUSH2 0x5B SWAP2 SWAP1 PUSH2 0x5CA JUMP JUMPDEST PUSH2 0xB4 JUMP JUMPDEST PUSH1 0x40 MLOAD PUSH2 0x73 SWAP8 SWAP7 SWAP6 SWAP5 SWAP4 SWAP3 SWAP2 SWAP1 PUSH2 0x6B1 JUMP JUMPDEST PUSH1 0x40 MLOAD DUP1 SWAP2 SUB SWAP1 RETURN JUMPDEST PUSH2 0x96 PUSH1 0x4 DUP1 CALLDATASIZE SUB DUP2 ADD SWAP1 PUSH2 0x91 SWAP2 SWAP1 PUSH2 0x7B8 JUMP JUMPDEST PUSH2 0x1B5 JUMP JUMPDEST STOP JUMPDEST PUSH2 0xB2 PUSH1 0x4 DUP1 CALLDATASIZE SUB DUP2 ADD SWAP1 PUSH2 0xAD SWAP2 SWAP1 PUSH2 0x5CA JUMP JUMPDEST PUSH2 0x383 JUMP JUMPDEST STOP JUMPDEST PUSH1 0x1 DUP2 DUP2 SLOAD DUP2 LT PUSH2 0xC4 JUMPI PUSH1 0x0 DUP1 REVERT JUMPDEST SWAP1 PUSH1 0x0 MSTORE PUSH1 0x20 PUSH1 0x0 KECCAK256 SWAP1 PUSH1 0x5 MUL ADD PUSH1 0x0 SWAP2 POP SWAP1 POP DUP1 PUSH1 0x0 ADD SLOAD SWAP1 DUP1 PUSH1 0x1 ADD DUP1 SLOAD PUSH2 0xED SWAP1 PUSH2 0x86F JUMP JUMPDEST DUP1 PUSH1 0x1F ADD PUSH1 0x20 DUP1 SWAP2 DIV MUL PUSH1 0x20 ADD PUSH1 0x40 MLOAD SWAP1 DUP2 ADD PUSH1 0x40 MSTORE DUP1 SWAP3 SWAP2 SWAP1 DUP2 DUP2 MSTORE PUSH1 0x20 ADD DUP3 DUP1 SLOAD PUSH2 0x119 SWAP1 PUSH2 0x86F JUMP JUMPDEST DUP1 ISZERO PUSH2 0x166 JUMPI DUP1 PUSH1 0x1F LT PUSH2 0x13B JUMPI PUSH2 0x100 DUP1 DUP4 SLOAD DIV MUL DUP4 MSTORE SWAP2 PUSH1 0x20 ADD SWAP2 PUSH2 0x166 JUMP JUMPDEST DUP3 ADD SWAP2 SWAP1 PUSH1 0x0 MSTORE PUSH1 0x20 PUSH1 0x0 KECCAK256 SWAP1 JUMPDEST DUP2 SLOAD DUP2 MSTORE SWAP1 PUSH1 0x1 ADD SWAP1 PUSH1 0x20 ADD DUP1 DUP4 GT PUSH2 0x149 JUMPI DUP3 SWAP1 SUB PUSH1 0x1F AND DUP3 ADD SWAP2 JUMPDEST POP POP POP POP POP SWAP1 DUP1 PUSH1 0x2 ADD PUSH1 0x0 SWAP1 SLOAD SWAP1 PUSH2 0x100 EXP SWAP1 DIV PUSH1 0xFF AND SWAP1 DUP1 PUSH1 0x2 ADD PUSH1 0x1 SWAP1 SLOAD SWAP1 PUSH2 0x100 EXP SWAP1 DIV PUSH1 0xFF AND SWAP1 DUP1 PUSH1 0x2 ADD PUSH1 0x2 SWAP1 SLOAD SWAP1 PUSH2 0x100 EXP SWAP1 DIV PUSH1 0xFF AND SWAP1 DUP1 PUSH1 0x3 ADD SLOAD SWAP1 DUP1 PUSH1 0x4 ADD SLOAD SWAP1 POP DUP8 JUMP JUMPDEST PUSH1 0x0 DUP1 PUSH1 0x1 DUP1 SLOAD SWAP1 POP EQ PUSH2 0x1D9 JUMPI PUSH1 0x1 DUP1 DUP1 SLOAD SWAP1 POP PUSH2 0x1D4 SWAP2 SWAP1 PUSH2 0x8CF JUMP JUMPDEST PUSH2 0x1E0 JUMP JUMPDEST PUSH1 0x1 DUP1 SLOAD SWAP1 POP JUMPDEST SWAP1 POP PUSH1 0x0 PUSH1 0x40 MLOAD DUP1 PUSH1 0xE0 ADD PUSH1 0x40 MSTORE DUP1 DUP4 DUP2 MSTORE PUSH1 0x20 ADD DUP9 DUP9 DUP1 DUP1 PUSH1 0x1F ADD PUSH1 0x20 DUP1 SWAP2 DIV MUL PUSH1 0x20 ADD PUSH1 0x40 MLOAD SWAP1 DUP2 ADD PUSH1 0x40 MSTORE DUP1 SWAP4 SWAP3 SWAP2 SWAP1 DUP2 DUP2 MSTORE PUSH1 0x20 ADD DUP4 DUP4 DUP1 DUP3 DUP5 CALLDATACOPY PUSH1 0x0 DUP2 DUP5 ADD MSTORE PUSH1 0x1F NOT PUSH1 0x1F DUP3 ADD AND SWAP1 POP DUP1 DUP4 ADD SWAP3 POP POP POP POP POP POP POP DUP2 MSTORE PUSH1 0x20 ADD DUP7 ISZERO ISZERO DUP2 MSTORE PUSH1 0x20 ADD DUP6 ISZERO ISZERO DUP2 MSTORE PUSH1 0x20 ADD DUP5 ISZERO ISZERO DUP2 MSTORE PUSH1 0x20 ADD TIMESTAMP DUP2 MSTORE PUSH1 0x20 ADD PUSH3 0x3F480 TIMESTAMP PUSH2 0x26C SWAP2 SWAP1 PUSH2 0x903 JUMP JUMPDEST DUP2 MSTORE POP SWAP1 POP PUSH1 0x1 DUP2 SWAP1 DUP1 PUSH1 0x1 DUP2 SLOAD ADD DUP1 DUP3 SSTORE DUP1 SWAP2 POP POP PUSH1 0x1 SWAP1 SUB SWAP1 PUSH1 0x0 MSTORE PUSH1 0x20 PUSH1 0x0 KECCAK256 SWAP1 PUSH1 0x5 MUL ADD PUSH1 0x0 SWAP1 SWAP2 SWAP1 SWAP2 SWAP1 SWAP2 POP PUSH1 0x0 DUP3 ADD MLOAD DUP2 PUSH1 0x0 ADD SSTORE PUSH1 0x20 DUP3 ADD MLOAD DUP2 PUSH1 0x1 ADD SWAP1 DUP2 PUSH2 0x2BC SWAP2 SWAP1 PUSH2 0xB12 JUMP JUMPDEST POP PUSH1 0x40 DUP3 ADD MLOAD DUP2 PUSH1 0x2 ADD PUSH1 0x0 PUSH2 0x100 EXP DUP2 SLOAD DUP2 PUSH1 0xFF MUL NOT AND SWAP1 DUP4 ISZERO ISZERO MUL OR SWAP1 SSTORE POP PUSH1 0x60 DUP3 ADD MLOAD DUP2 PUSH1 0x2 ADD PUSH1 0x1 PUSH2 0x100 EXP DUP2 SLOAD DUP2 PUSH1 0xFF MUL NOT AND SWAP1 DUP4 ISZERO ISZERO MUL OR SWAP1 SSTORE POP PUSH1 0x80 DUP3 ADD MLOAD DUP2 PUSH1 0x2 ADD PUSH1 0x2 PUSH2 0x100 EXP DUP2 SLOAD DUP2 PUSH1 0xFF MUL NOT AND SWAP1 DUP4 ISZERO ISZERO MUL OR SWAP1 SSTORE POP PUSH1 0xA0 DUP3 ADD MLOAD DUP2 PUSH1 0x3 ADD SSTORE PUSH1 0xC0 DUP3 ADD MLOAD DUP2 PUSH1 0x4 ADD SSTORE POP POP PUSH32 0xFAFB7311FC57CA8A55073F63725E888B4250C799D77AE873970D65AC08C5917A DUP2 PUSH1 0x0 ADD MLOAD DUP3 PUSH1 0x20 ADD MLOAD DUP4 PUSH1 0xA0 ADD MLOAD PUSH1 0x40 MLOAD PUSH2 0x372 SWAP4 SWAP3 SWAP2 SWAP1 PUSH2 0xBE4 JUMP JUMPDEST PUSH1 0x40 MLOAD DUP1 SWAP2 SUB SWAP1 LOG1 POP POP POP POP POP POP POP JUMP JUMPDEST PUSH1 0x0 DUP2 LT ISZERO PUSH2 0x3C7 JUMPI PUSH1 0x40 MLOAD PUSH32 0x8C379A000000000000000000000000000000000000000000000000000000000 DUP2 MSTORE PUSH1 0x4 ADD PUSH2 0x3BE SWAP1 PUSH2 0xC6E JUMP JUMPDEST PUSH1 0x40 MLOAD DUP1 SWAP2 SUB SWAP1 REVERT JUMPDEST PUSH1 0x0 PUSH1 0x1 DUP3 DUP2 SLOAD DUP2 LT PUSH2 0x3DD JUMPI PUSH2 0x3DC PUSH2 0xC8E JUMP JUMPDEST JUMPDEST SWAP1 PUSH1 0x0 MSTORE PUSH1 0x20 PUSH1 0x0 KECCAK256 SWAP1 PUSH1 0x5 MUL ADD SWAP1 POP PUSH1 0x0 ISZERO ISZERO DUP2 PUSH1 0x2 ADD PUSH1 0x0 SWAP1 SLOAD SWAP1 PUSH2 0x100 EXP SWAP1 DIV PUSH1 0xFF AND ISZERO ISZERO SUB PUSH2 0x445 JUMPI PUSH32 0xD53ECB21746E36DA81DDAB5BDCF35C93B4E7ADB500E38A0CE440F729DE177AC5 DUP2 PUSH1 0x1 ADD PUSH1 0x40 MLOAD PUSH2 0x43C SWAP2 SWAP1 PUSH2 0xD41 JUMP JUMPDEST PUSH1 0x40 MLOAD DUP1 SWAP2 SUB SWAP1 LOG1 JUMPDEST PUSH1 0x0 ISZERO ISZERO DUP2 PUSH1 0x2 ADD PUSH1 0x1 SWAP1 SLOAD SWAP1 PUSH2 0x100 EXP SWAP1 DIV PUSH1 0xFF AND ISZERO ISZERO SUB PUSH2 0x49D JUMPI PUSH32 0xD53ECB21746E36DA81DDAB5BDCF35C93B4E7ADB500E38A0CE440F729DE177AC5 DUP2 PUSH1 0x1 ADD PUSH1 0x40 MLOAD PUSH2 0x494 SWAP2 SWAP1 PUSH2 0xD41 JUMP JUMPDEST PUSH1 0x40 MLOAD DUP1 SWAP2 SUB SWAP1 LOG1 JUMPDEST PUSH1 0x0 ISZERO ISZERO DUP2 PUSH1 0x2 ADD PUSH1 0x2 SWAP1 SLOAD SWAP1 PUSH2 0x100 EXP SWAP1 DIV PUSH1 0xFF AND ISZERO ISZERO SUB PUSH2 0x4F5 JUMPI PUSH32 0xD53ECB21746E36DA81DDAB5BDCF35C93B4E7ADB500E38A0CE440F729DE177AC5 DUP2 PUSH1 0x1 ADD PUSH1 0x40 MLOAD PUSH2 0x4EC SWAP2 SWAP1 PUSH2 0xD41 JUMP JUMPDEST PUSH1 0x40 MLOAD DUP1 SWAP2 SUB SWAP1 LOG1 JUMPDEST TIMESTAMP PUSH3 0x3F480 DUP3 PUSH1 0x3 ADD SLOAD PUSH2 0x509 SWAP2 SWAP1 PUSH2 0x903 JUMP JUMPDEST GT ISZERO PUSH2 0x54A JUMPI PUSH32 0xD53ECB21746E36DA81DDAB5BDCF35C93B4E7ADB500E38A0CE440F729DE177AC5 DUP2 PUSH1 0x1 ADD PUSH1 0x40 MLOAD PUSH2 0x541 SWAP2 SWAP1 PUSH2 0xD41 JUMP JUMPDEST PUSH1 0x40 MLOAD DUP1 SWAP2 SUB SWAP1 LOG1 JUMPDEST PUSH32 0x6FD4822621C89040F0EA90264351E7F95D334EB76155286B2C1B6732331FF93C DUP2 PUSH1 0x1 ADD TIMESTAMP PUSH1 0x40 MLOAD PUSH2 0x57E SWAP3 SWAP2 SWAP1 PUSH2 0xD63 JUMP JUMPDEST PUSH1 0x40 MLOAD DUP1 SWAP2 SUB SWAP1 LOG1 POP POP JUMP JUMPDEST PUSH1 0x0 DUP1 REVERT JUMPDEST PUSH1 0x0 DUP1 REVERT JUMPDEST PUSH1 0x0 DUP2 SWAP1 POP SWAP2 SWAP1 POP JUMP JUMPDEST PUSH2 0x5A7 DUP2 PUSH2 0x594 JUMP JUMPDEST DUP2 EQ PUSH2 0x5B2 JUMPI PUSH1 0x0 DUP1 REVERT JUMPDEST POP JUMP JUMPDEST PUSH1 0x0 DUP2 CALLDATALOAD SWAP1 POP PUSH2 0x5C4 DUP2 PUSH2 0x59E JUMP JUMPDEST SWAP3 SWAP2 POP POP JUMP JUMPDEST PUSH1 0x0 PUSH1 0x20 DUP3 DUP5 SUB SLT ISZERO PUSH2 0x5E0 JUMPI PUSH2 0x5DF PUSH2 0x58A JUMP JUMPDEST JUMPDEST PUSH1 0x0 PUSH2 0x5EE DUP5 DUP3 DUP6 ADD PUSH2 0x5B5 JUMP JUMPDEST SWAP2 POP POP SWAP3 SWAP2 POP POP JUMP JUMPDEST PUSH2 0x600 DUP2 PUSH2 0x594 JUMP JUMPDEST DUP3 MSTORE POP POP JUMP JUMPDEST PUSH1 0x0 DUP2 MLOAD SWAP1 POP SWAP2 SWAP1 POP JUMP JUMPDEST PUSH1 0x0 DUP3 DUP3 MSTORE PUSH1 0x20 DUP3 ADD SWAP1 POP SWAP3 SWAP2 POP POP JUMP JUMPDEST PUSH1 0x0 JUMPDEST DUP4 DUP2 LT ISZERO PUSH2 0x640 JUMPI DUP1 DUP3 ADD MLOAD DUP2 DUP5 ADD MSTORE PUSH1 0x20 DUP2 ADD SWAP1 POP PUSH2 0x625 JUMP JUMPDEST PUSH1 0x0 DUP5 DUP5 ADD MSTORE POP POP POP POP JUMP JUMPDEST PUSH1 0x0 PUSH1 0x1F NOT PUSH1 0x1F DUP4 ADD AND SWAP1 POP SWAP2 SWAP1 POP JUMP JUMPDEST PUSH1 0x0 PUSH2 0x668 DUP3 PUSH2 0x606 JUMP JUMPDEST PUSH2 0x672 DUP2 DUP6 PUSH2 0x611 JUMP JUMPDEST SWAP4 POP PUSH2 0x682 DUP2 DUP6 PUSH1 0x20 DUP7 ADD PUSH2 0x622 JUMP JUMPDEST PUSH2 0x68B DUP2 PUSH2 0x64C JUMP JUMPDEST DUP5 ADD SWAP2 POP POP SWAP3 SWAP2 POP POP JUMP JUMPDEST PUSH1 0x0 DUP2 ISZERO ISZERO SWAP1 POP SWAP2 SWAP1 POP JUMP JUMPDEST PUSH2 0x6AB DUP2 PUSH2 0x696 JUMP JUMPDEST DUP3 MSTORE POP POP JUMP JUMPDEST PUSH1 0x0 PUSH1 0xE0 DUP3 ADD SWAP1 POP PUSH2 0x6C6 PUSH1 0x0 DUP4 ADD DUP11 PUSH2 0x5F7 JUMP JUMPDEST DUP2 DUP2 SUB PUSH1 0x20 DUP4 ADD MSTORE PUSH2 0x6D8 DUP2 DUP10 PUSH2 0x65D JUMP JUMPDEST SWAP1 POP PUSH2 0x6E7 PUSH1 0x40 DUP4 ADD DUP9 PUSH2 0x6A2 JUMP JUMPDEST PUSH2 0x6F4 PUSH1 0x60 DUP4 ADD DUP8 PUSH2 0x6A2 JUMP JUMPDEST PUSH2 0x701 PUSH1 0x80 DUP4 ADD DUP7 PUSH2 0x6A2 JUMP JUMPDEST PUSH2 0x70E PUSH1 0xA0 DUP4 ADD DUP6 PUSH2 0x5F7 JUMP JUMPDEST PUSH2 0x71B PUSH1 0xC0 DUP4 ADD DUP5 PUSH2 0x5F7 JUMP JUMPDEST SWAP9 SWAP8 POP POP POP POP POP POP POP POP JUMP JUMPDEST PUSH1 0x0 DUP1 REVERT JUMPDEST PUSH1 0x0 DUP1 REVERT JUMPDEST PUSH1 0x0 DUP1 REVERT JUMPDEST PUSH1 0x0 DUP1 DUP4 PUSH1 0x1F DUP5 ADD SLT PUSH2 0x74C JUMPI PUSH2 0x74B PUSH2 0x727 JUMP JUMPDEST JUMPDEST DUP3 CALLDATALOAD SWAP1 POP PUSH8 0xFFFFFFFFFFFFFFFF DUP2 GT ISZERO PUSH2 0x769 JUMPI PUSH2 0x768 PUSH2 0x72C JUMP JUMPDEST JUMPDEST PUSH1 0x20 DUP4 ADD SWAP2 POP DUP4 PUSH1 0x1 DUP3 MUL DUP4 ADD GT ISZERO PUSH2 0x785 JUMPI PUSH2 0x784 PUSH2 0x731 JUMP JUMPDEST JUMPDEST SWAP3 POP SWAP3 SWAP1 POP JUMP JUMPDEST PUSH2 0x795 DUP2 PUSH2 0x696 JUMP JUMPDEST DUP2 EQ PUSH2 0x7A0 JUMPI PUSH1 0x0 DUP1 REVERT JUMPDEST POP JUMP JUMPDEST PUSH1 0x0 DUP2 CALLDATALOAD SWAP1 POP PUSH2 0x7B2 DUP2 PUSH2 0x78C JUMP JUMPDEST SWAP3 SWAP2 POP POP JUMP JUMPDEST PUSH1 0x0 DUP1 PUSH1 0x0 DUP1 PUSH1 0x0 PUSH1 0x80 DUP7 DUP9 SUB SLT ISZERO PUSH2 0x7D4 JUMPI PUSH2 0x7D3 PUSH2 0x58A JUMP JUMPDEST JUMPDEST PUSH1 0x0 DUP7 ADD CALLDATALOAD PUSH8 0xFFFFFFFFFFFFFFFF DUP2 GT ISZERO PUSH2 0x7F2 JUMPI PUSH2 0x7F1 PUSH2 0x58F JUMP JUMPDEST JUMPDEST PUSH2 0x7FE DUP9 DUP3 DUP10 ADD PUSH2 0x736 JUMP JUMPDEST SWAP6 POP SWAP6 POP POP PUSH1 0x20 PUSH2 0x811 DUP9 DUP3 DUP10 ADD PUSH2 0x7A3 JUMP JUMPDEST SWAP4 POP POP PUSH1 0x40 PUSH2 0x822 DUP9 DUP3 DUP10 ADD PUSH2 0x7A3 JUMP JUMPDEST SWAP3 POP POP PUSH1 0x60 PUSH2 0x833 DUP9 DUP3 DUP10 ADD PUSH2 0x7A3 JUMP JUMPDEST SWAP2 POP POP SWAP3 SWAP6 POP SWAP3 SWAP6 SWAP1 SWAP4 POP JUMP JUMPDEST PUSH32 0x4E487B7100000000000000000000000000000000000000000000000000000000 PUSH1 0x0 MSTORE PUSH1 0x22 PUSH1 0x4 MSTORE PUSH1 0x24 PUSH1 0x0 REVERT JUMPDEST PUSH1 0x0 PUSH1 0x2 DUP3 DIV SWAP1 POP PUSH1 0x1 DUP3 AND DUP1 PUSH2 0x887 JUMPI PUSH1 0x7F DUP3 AND SWAP2 POP JUMPDEST PUSH1 0x20 DUP3 LT DUP2 SUB PUSH2 0x89A JUMPI PUSH2 0x899 PUSH2 0x840 JUMP JUMPDEST JUMPDEST POP SWAP2 SWAP1 POP JUMP JUMPDEST PUSH32 0x4E487B7100000000000000000000000000000000000000000000000000000000 PUSH1 0x0 MSTORE PUSH1 0x11 PUSH1 0x4 MSTORE PUSH1 0x24 PUSH1 0x0 REVERT JUMPDEST PUSH1 0x0 PUSH2 0x8DA DUP3 PUSH2 0x594 JUMP JUMPDEST SWAP2 POP PUSH2 0x8E5 DUP4 PUSH2 0x594 JUMP JUMPDEST SWAP3 POP DUP3 DUP3 SUB SWAP1 POP DUP2 DUP2 GT ISZERO PUSH2 0x8FD JUMPI PUSH2 0x8FC PUSH2 0x8A0 JUMP JUMPDEST JUMPDEST SWAP3 SWAP2 POP POP JUMP JUMPDEST PUSH1 0x0 PUSH2 0x90E DUP3 PUSH2 0x594 JUMP JUMPDEST SWAP2 POP PUSH2 0x919 DUP4 PUSH2 0x594 JUMP JUMPDEST SWAP3 POP DUP3 DUP3 ADD SWAP1 POP DUP1 DUP3 GT ISZERO PUSH2 0x931 JUMPI PUSH2 0x930 PUSH2 0x8A0 JUMP JUMPDEST JUMPDEST SWAP3 SWAP2 POP POP JUMP JUMPDEST PUSH32 0x4E487B7100000000000000000000000000000000000000000000000000000000 PUSH1 0x0 MSTORE PUSH1 0x41 PUSH1 0x4 MSTORE PUSH1 0x24 PUSH1 0x0 REVERT JUMPDEST PUSH1 0x0 DUP2 SWAP1 POP DUP2 PUSH1 0x0 MSTORE PUSH1 0x20 PUSH1 0x0 KECCAK256 SWAP1 POP SWAP2 SWAP1 POP JUMP JUMPDEST PUSH1 0x0 PUSH1 0x20 PUSH1 0x1F DUP4 ADD DIV SWAP1 POP SWAP2 SWAP1 POP JUMP JUMPDEST PUSH1 0x0 DUP3 DUP3 SHL SWAP1 POP SWAP3 SWAP2 POP POP JUMP JUMPDEST PUSH1 0x0 PUSH1 0x8 DUP4 MUL PUSH2 0x9C8 PUSH32 0xFFFFFFFFFFFFFFFFFFFFFFFFFFFFFFFFFFFFFFFFFFFFFFFFFFFFFFFFFFFFFFFF DUP3 PUSH2 0x98B JUMP JUMPDEST PUSH2 0x9D2 DUP7 DUP4 PUSH2 0x98B JUMP JUMPDEST SWAP6 POP DUP1 NOT DUP5 AND SWAP4 POP DUP1 DUP7 AND DUP5 OR SWAP3 POP POP POP SWAP4 SWAP3 POP POP POP JUMP JUMPDEST PUSH1 0x0 DUP2 SWAP1 POP SWAP2 SWAP1 POP JUMP JUMPDEST PUSH1 0x0 PUSH2 0xA0F PUSH2 0xA0A PUSH2 0xA05 DUP5 PUSH2 0x594 JUMP JUMPDEST PUSH2 0x9EA JUMP JUMPDEST PUSH2 0x594 JUMP JUMPDEST SWAP1 POP SWAP2 SWAP1 POP JUMP JUMPDEST PUSH1 0x0 DUP2 SWAP1 POP SWAP2 SWAP1 POP JUMP JUMPDEST PUSH2 0xA29 DUP4 PUSH2 0x9F4 JUMP JUMPDEST PUSH2 0xA3D PUSH2 0xA35 DUP3 PUSH2 0xA16 JUMP JUMPDEST DUP5 DUP5 SLOAD PUSH2 0x998 JUMP JUMPDEST DUP3 SSTORE POP POP POP POP JUMP JUMPDEST PUSH1 0x0 SWAP1 JUMP JUMPDEST PUSH2 0xA52 PUSH2 0xA45 JUMP JUMPDEST PUSH2 0xA5D DUP2 DUP5 DUP5 PUSH2 0xA20 JUMP JUMPDEST POP POP POP JUMP JUMPDEST JUMPDEST DUP2 DUP2 LT ISZERO PUSH2 0xA81 JUMPI PUSH2 0xA76 PUSH1 0x0 DUP3 PUSH2 0xA4A JUMP JUMPDEST PUSH1 0x1 DUP2 ADD SWAP1 POP PUSH2 0xA63 JUMP JUMPDEST POP POP JUMP JUMPDEST PUSH1 0x1F DUP3 GT ISZERO PUSH2 0xAC6 JUMPI PUSH2 0xA97 DUP2 PUSH2 0x966 JUMP JUMPDEST PUSH2 0xAA0 DUP5 PUSH2 0x97B JUMP JUMPDEST DUP2 ADD PUSH1 0x20 DUP6 LT ISZERO PUSH2 0xAAF JUMPI DUP2 SWAP1 POP JUMPDEST PUSH2 0xAC3 PUSH2 0xABB DUP6 PUSH2 0x97B JUMP JUMPDEST DUP4 ADD DUP3 PUSH2 0xA62 JUMP JUMPDEST POP POP JUMPDEST POP POP POP JUMP JUMPDEST PUSH1 0x0 DUP3 DUP3 SHR SWAP1 POP SWAP3 SWAP2 POP POP JUMP JUMPDEST PUSH1 0x0 PUSH2 0xAE9 PUSH1 0x0 NOT DUP5 PUSH1 0x8 MUL PUSH2 0xACB JUMP JUMPDEST NOT DUP1 DUP4 AND SWAP2 POP POP SWAP3 SWAP2 POP POP JUMP JUMPDEST PUSH1 0x0 PUSH2 0xB02 DUP4 DUP4 PUSH2 0xAD8 JUMP JUMPDEST SWAP2 POP DUP3 PUSH1 0x2 MUL DUP3 OR SWAP1 POP SWAP3 SWAP2 POP POP JUMP JUMPDEST PUSH2 0xB1B DUP3 PUSH2 0x606 JUMP JUMPDEST PUSH8 0xFFFFFFFFFFFFFFFF DUP2 GT ISZERO PUSH2 0xB34 JUMPI PUSH2 0xB33 PUSH2 0x937 JUMP JUMPDEST JUMPDEST PUSH2 0xB3E DUP3 SLOAD PUSH2 0x86F JUMP JUMPDEST PUSH2 0xB49 DUP3 DUP3 DUP6 PUSH2 0xA85 JUMP JUMPDEST PUSH1 0x0 PUSH1 0x20 SWAP1 POP PUSH1 0x1F DUP4 GT PUSH1 0x1 DUP2 EQ PUSH2 0xB7C JUMPI PUSH1 0x0 DUP5 ISZERO PUSH2 0xB6A JUMPI DUP3 DUP8 ADD MLOAD SWAP1 POP JUMPDEST PUSH2 0xB74 DUP6 DUP3 PUSH2 0xAF6 JUMP JUMPDEST DUP7 SSTORE POP PUSH2 0xBDC JUMP JUMPDEST PUSH1 0x1F NOT DUP5 AND PUSH2 0xB8A DUP7 PUSH2 0x966 JUMP JUMPDEST PUSH1 0x0 JUMPDEST DUP3 DUP2 LT ISZERO PUSH2 0xBB2 JUMPI DUP5 DUP10 ADD MLOAD DUP3 SSTORE PUSH1 0x1 DUP3 ADD SWAP2 POP PUSH1 0x20 DUP6 ADD SWAP5 POP PUSH1 0x20 DUP2 ADD SWAP1 POP PUSH2 0xB8D JUMP JUMPDEST DUP7 DUP4 LT ISZERO PUSH2 0xBCF JUMPI DUP5 DUP10 ADD MLOAD PUSH2 0xBCB PUSH1 0x1F DUP10 AND DUP3 PUSH2 0xAD8 JUMP JUMPDEST DUP4 SSTORE POP JUMPDEST PUSH1 0x1 PUSH1 0x2 DUP9 MUL ADD DUP9 SSTORE POP POP POP JUMPDEST POP POP POP POP POP POP JUMP JUMPDEST PUSH1 0x0 PUSH1 0x60 DUP3 ADD SWAP1 POP PUSH2 0xBF9 PUSH1 0x0 DUP4 ADD DUP7 PUSH2 0x5F7 JUMP JUMPDEST DUP2 DUP2 SUB PUSH1 0x20 DUP4 ADD MSTORE PUSH2 0xC0B DUP2 DUP6 PUSH2 0x65D JUMP JUMPDEST SWAP1 POP PUSH2 0xC1A PUSH1 0x40 DUP4 ADD DUP5 PUSH2 0x5F7 JUMP JUMPDEST SWAP5 SWAP4 POP POP POP POP JUMP JUMPDEST PUSH32 0x496E636F72726563742069642E00000000000000000000000000000000000000 PUSH1 0x0 DUP3 ADD MSTORE POP JUMP JUMPDEST PUSH1 0x0 PUSH2 0xC58 PUSH1 0xD DUP4 PUSH2 0x611 JUMP JUMPDEST SWAP2 POP PUSH2 0xC63 DUP3 PUSH2 0xC22 JUMP JUMPDEST PUSH1 0x20 DUP3 ADD SWAP1 POP SWAP2 SWAP1 POP JUMP JUMPDEST PUSH1 0x0 PUSH1 0x20 DUP3 ADD SWAP1 POP DUP2 DUP2 SUB PUSH1 0x0 DUP4 ADD MSTORE PUSH2 0xC87 DUP2 PUSH2 0xC4B JUMP JUMPDEST SWAP1 POP SWAP2 SWAP1 POP JUMP JUMPDEST PUSH32 0x4E487B7100000000000000000000000000000000000000000000000000000000 PUSH1 0x0 MSTORE PUSH1 0x32 PUSH1 0x4 MSTORE PUSH1 0x24 PUSH1 0x0 REVERT JUMPDEST PUSH1 0x0 DUP2 SLOAD PUSH2 0xCCA DUP2 PUSH2 0x86F JUMP JUMPDEST PUSH2 0xCD4 DUP2 DUP7 PUSH2 0x611 JUMP JUMPDEST SWAP5 POP PUSH1 0x1 DUP3 AND PUSH1 0x0 DUP2 EQ PUSH2 0xCEF JUMPI PUSH1 0x1 DUP2 EQ PUSH2 0xD05 JUMPI PUSH2 0xD38 JUMP JUMPDEST PUSH1 0xFF NOT DUP4 AND DUP7 MSTORE DUP2 ISZERO ISZERO PUSH1 0x20 MUL DUP7 ADD SWAP4 POP PUSH2 0xD38 JUMP JUMPDEST PUSH2 0xD0E DUP6 PUSH2 0x966 JUMP JUMPDEST PUSH1 0x0 JUMPDEST DUP4 DUP2 LT ISZERO PUSH2 0xD30 JUMPI DUP2 SLOAD DUP2 DUP10 ADD MSTORE PUSH1 0x1 DUP3 ADD SWAP2 POP PUSH1 0x20 DUP2 ADD SWAP1 POP PUSH2 0xD11 JUMP JUMPDEST DUP1 DUP9 ADD SWAP6 POP POP POP JUMPDEST POP POP POP SWAP3 SWAP2 POP POP JUMP JUMPDEST PUSH1 0x0 PUSH1 0x20 DUP3 ADD SWAP1 POP DUP2 DUP2 SUB PUSH1 0x0 DUP4 ADD MSTORE PUSH2 0xD5B DUP2 DUP5 PUSH2 0xCBD JUMP JUMPDEST SWAP1 POP SWAP3 SWAP2 POP POP JUMP JUMPDEST PUSH1 0x0 PUSH1 0x40 DUP3 ADD SWAP1 POP DUP2 DUP2 SUB PUSH1 0x0 DUP4 ADD MSTORE PUSH2 0xD7D DUP2 DUP6 PUSH2 0xCBD JUMP JUMPDEST SWAP1 POP PUSH2 0xD8C PUSH1 0x20 DUP4 ADD DUP5 PUSH2 0x5F7 JUMP JUMPDEST SWAP4 SWAP3 POP POP POP JUMP INVALID LOG2 PUSH5 0x6970667358 0x22 SLT KECCAK256 SWAP3 0x27 SWAP4 SWAP5 CALLDATASIZE 0xEF SWAP10 BALANCE 0xDE POP DUP1 PUSH5 0x80266F740B 0xCB EXP 0xA6 AND 0x5D 0x5F PUSH30 0xB2AE299BE164097164736F6C634300081100330000000000000000000000 "
				},
				"gasEstimates": {
					"creation": {
						"codeDepositCost": "705800",
						"executionCost": "25007",
						"totalCost": "730807"
					},
					"external": {
						"addStudent(string,bool,bool,bool)": "infinite",
						"debtsAreDone(uint256)": "infinite",
						"students(uint256)": "infinite"
					}
				},
				"methodIdentifiers": {
					"addStudent(string,bool,bool,bool)": "344d2d4a",
					"debtsAreDone(uint256)": "3d5c83d4",
					"students(uint256)": "06ead22e"
				}
			},
			"storageLayout": {
				"storage": [
					{
						"astId": 6,
						"contract": "contracts/Hometask.sol:DormitoryQuest",
						"label": "owner",
						"offset": 0,
						"slot": "0",
						"type": "t_address"
					},
					{
						"astId": 25,
						"contract": "contracts/Hometask.sol:DormitoryQuest",
						"label": "students",
						"offset": 0,
						"slot": "1",
						"type": "t_array(t_struct(Student)21_storage)dyn_storage"
					}
				],
				"types": {
					"t_address": {
						"encoding": "inplace",
						"label": "address",
						"numberOfBytes": "20"
					},
					"t_array(t_struct(Student)21_storage)dyn_storage": {
						"base": "t_struct(Student)21_storage",
						"encoding": "dynamic_array",
						"label": "struct DormitoryQuest.Student[]",
						"numberOfBytes": "32"
					},
					"t_bool": {
						"encoding": "inplace",
						"label": "bool",
						"numberOfBytes": "1"
					},
					"t_string_storage": {
						"encoding": "bytes",
						"label": "string",
						"numberOfBytes": "32"
					},
					"t_struct(Student)21_storage": {
						"encoding": "inplace",
						"label": "struct DormitoryQuest.Student",
						"members": [
							{
								"astId": 8,
								"contract": "contracts/Hometask.sol:DormitoryQuest",
								"label": "id",
								"offset": 0,
								"slot": "0",
								"type": "t_uint256"
							},
							{
								"astId": 10,
								"contract": "contracts/Hometask.sol:DormitoryQuest",
								"label": "fullName",
								"offset": 0,
								"slot": "1",
								"type": "t_string_storage"
							},
							{
								"astId": 12,
								"contract": "contracts/Hometask.sol:DormitoryQuest",
								"label": "sheetsDone",
								"offset": 0,
								"slot": "2",
								"type": "t_bool"
							},
							{
								"astId": 14,
								"contract": "contracts/Hometask.sol:DormitoryQuest",
								"label": "roomDone",
								"offset": 1,
								"slot": "2",
								"type": "t_bool"
							},
							{
								"astId": 16,
								"contract": "contracts/Hometask.sol:DormitoryQuest",
								"label": "booksDone",
								"offset": 2,
								"slot": "2",
								"type": "t_bool"
							},
							{
								"astId": 18,
								"contract": "contracts/Hometask.sol:DormitoryQuest",
								"label": "regDate",
								"offset": 0,
								"slot": "3",
								"type": "t_uint256"
							},
							{
								"astId": 20,
								"contract": "contracts/Hometask.sol:DormitoryQuest",
								"label": "deadlineDate",
								"offset": 0,
								"slot": "4",
								"type": "t_uint256"
							}
						],
						"numberOfBytes": "160"
					},
					"t_uint256": {
						"encoding": "inplace",
						"label": "uint256",
						"numberOfBytes": "32"
					}
				}
			},
			"userdoc": {
				"kind": "user",
				"methods": {},
				"version": 1
			}
		}
	}
}