{
	"contracts/Hometask.sol": {
		"DormitoryQuest": {
			"abi": [
				{
					"inputs": [
						{
							"internalType": "address",
							"name": "_address",
							"type": "address"
						},
						{
							"internalType": "bool",
							"name": "_sheetsDone",
							"type": "bool"
						},
						{
							"internalType": "bool",
							"name": "_roomDone",
							"type": "bool"
						},
						{
							"internalType": "bool",
							"name": "_booksDone",
							"type": "bool"
						}
					],
					"name": "addStudent",
					"outputs": [],
					"stateMutability": "nonpayable",
					"type": "function"
				}
			],
			"devdoc": {
				"kind": "dev",
				"methods": {},
				"version": 1
			},
			"evm": {
				"assembly": "    /* \"contracts/Hometask.sol\":62:486  contract DormitoryQuest {\r... */\n  mstore(0x40, 0x80)\n  callvalue\n  dup1\n  iszero\n  tag_1\n  jumpi\n  0x00\n  dup1\n  revert\ntag_1:\n  pop\n  dataSize(sub_0)\n  dup1\n  dataOffset(sub_0)\n  0x00\n  codecopy\n  0x00\n  return\nstop\n\nsub_0: assembly {\n        /* \"contracts/Hometask.sol\":62:486  contract DormitoryQuest {\r... */\n      mstore(0x40, 0x80)\n      callvalue\n      dup1\n      iszero\n      tag_1\n      jumpi\n      0x00\n      dup1\n      revert\n    tag_1:\n      pop\n      jumpi(tag_2, lt(calldatasize, 0x04))\n      shr(0xe0, calldataload(0x00))\n      dup1\n      0x43c92a27\n      eq\n      tag_3\n      jumpi\n    tag_2:\n      0x00\n      dup1\n      revert\n        /* \"contracts/Hometask.sol\":295:409  function addStudent(address _address, bool _sheetsDone, bool _roomDone, bool _booksDone) public {\r... */\n    tag_3:\n      tag_4\n      0x04\n      dup1\n      calldatasize\n      sub\n      dup2\n      add\n      swap1\n      tag_5\n      swap2\n      swap1\n      tag_6\n      jump\t// in\n    tag_5:\n      tag_7\n      jump\t// in\n    tag_4:\n      stop\n    tag_7:\n      pop\n      pop\n      pop\n      pop\n      jump\t// out\n        /* \"#utility.yul\":7:146   */\n    tag_10:\n        /* \"#utility.yul\":53:58   */\n      0x00\n        /* \"#utility.yul\":91:97   */\n      dup2\n        /* \"#utility.yul\":78:98   */\n      calldataload\n        /* \"#utility.yul\":69:98   */\n      swap1\n      pop\n        /* \"#utility.yul\":107:140   */\n      tag_12\n        /* \"#utility.yul\":134:139   */\n      dup2\n        /* \"#utility.yul\":107:140   */\n      tag_13\n      jump\t// in\n    tag_12:\n        /* \"#utility.yul\":7:146   */\n      swap3\n      swap2\n      pop\n      pop\n      jump\t// out\n        /* \"#utility.yul\":152:285   */\n    tag_14:\n        /* \"#utility.yul\":195:200   */\n      0x00\n        /* \"#utility.yul\":233:239   */\n      dup2\n        /* \"#utility.yul\":220:240   */\n      calldataload\n        /* \"#utility.yul\":211:240   */\n      swap1\n      pop\n        /* \"#utility.yul\":249:279   */\n      tag_16\n        /* \"#utility.yul\":273:278   */\n      dup2\n        /* \"#utility.yul\":249:279   */\n      tag_17\n      jump\t// in\n    tag_16:\n        /* \"#utility.yul\":152:285   */\n      swap3\n      swap2\n      pop\n      pop\n      jump\t// out\n        /* \"#utility.yul\":291:1038   */\n    tag_6:\n        /* \"#utility.yul\":368:374   */\n      0x00\n        /* \"#utility.yul\":376:382   */\n      dup1\n        /* \"#utility.yul\":384:390   */\n      0x00\n        /* \"#utility.yul\":392:398   */\n      dup1\n        /* \"#utility.yul\":441:444   */\n      0x80\n        /* \"#utility.yul\":429:438   */\n      dup6\n        /* \"#utility.yul\":420:427   */\n      dup8\n        /* \"#utility.yul\":416:439   */\n      sub\n        /* \"#utility.yul\":412:445   */\n      slt\n        /* \"#utility.yul\":409:529   */\n      iszero\n      tag_19\n      jumpi\n        /* \"#utility.yul\":448:527   */\n      tag_20\n      tag_21\n      jump\t// in\n    tag_20:\n        /* \"#utility.yul\":409:529   */\n    tag_19:\n        /* \"#utility.yul\":568:569   */\n      0x00\n        /* \"#utility.yul\":593:646   */\n      tag_22\n        /* \"#utility.yul\":638:645   */\n      dup8\n        /* \"#utility.yul\":629:635   */\n      dup3\n        /* \"#utility.yul\":618:627   */\n      dup9\n        /* \"#utility.yul\":614:636   */\n      add\n        /* \"#utility.yul\":593:646   */\n      tag_10\n      jump\t// in\n    tag_22:\n        /* \"#utility.yul\":583:646   */\n      swap5\n      pop\n        /* \"#utility.yul\":539:656   */\n      pop\n        /* \"#utility.yul\":695:697   */\n      0x20\n        /* \"#utility.yul\":721:771   */\n      tag_23\n        /* \"#utility.yul\":763:770   */\n      dup8\n        /* \"#utility.yul\":754:760   */\n      dup3\n        /* \"#utility.yul\":743:752   */\n      dup9\n        /* \"#utility.yul\":739:761   */\n      add\n        /* \"#utility.yul\":721:771   */\n      tag_14\n      jump\t// in\n    tag_23:\n        /* \"#utility.yul\":711:771   */\n      swap4\n      pop\n        /* \"#utility.yul\":666:781   */\n      pop\n        /* \"#utility.yul\":820:822   */\n      0x40\n        /* \"#utility.yul\":846:896   */\n      tag_24\n        /* \"#utility.yul\":888:895   */\n      dup8\n        /* \"#utility.yul\":879:885   */\n      dup3\n        /* \"#utility.yul\":868:877   */\n      dup9\n        /* \"#utility.yul\":864:886   */\n      add\n        /* \"#utility.yul\":846:896   */\n      tag_14\n      jump\t// in\n    tag_24:\n        /* \"#utility.yul\":836:896   */\n      swap3\n      pop\n        /* \"#utility.yul\":791:906   */\n      pop\n        /* \"#utility.yul\":945:947   */\n      0x60\n        /* \"#utility.yul\":971:1021   */\n      tag_25\n        /* \"#utility.yul\":1013:1020   */\n      dup8\n        /* \"#utility.yul\":1004:1010   */\n      dup3\n        /* \"#utility.yul\":993:1002   */\n      dup9\n        /* \"#utility.yul\":989:1011   */\n      add\n        /* \"#utility.yul\":971:1021   */\n      tag_14\n      jump\t// in\n    tag_25:\n        /* \"#utility.yul\":961:1021   */\n      swap2\n      pop\n        /* \"#utility.yul\":916:1031   */\n      pop\n        /* \"#utility.yul\":291:1038   */\n      swap3\n      swap6\n      swap2\n      swap5\n      pop\n      swap3\n      pop\n      jump\t// out\n        /* \"#utility.yul\":1125:1221   */\n    tag_28:\n        /* \"#utility.yul\":1162:1169   */\n      0x00\n        /* \"#utility.yul\":1191:1215   */\n      tag_30\n        /* \"#utility.yul\":1209:1214   */\n      dup3\n        /* \"#utility.yul\":1191:1215   */\n      tag_31\n      jump\t// in\n    tag_30:\n        /* \"#utility.yul\":1180:1215   */\n      swap1\n      pop\n        /* \"#utility.yul\":1125:1221   */\n      swap2\n      swap1\n      pop\n      jump\t// out\n        /* \"#utility.yul\":1227:1317   */\n    tag_32:\n        /* \"#utility.yul\":1261:1268   */\n      0x00\n        /* \"#utility.yul\":1304:1309   */\n      dup2\n        /* \"#utility.yul\":1297:1310   */\n      iszero\n        /* \"#utility.yul\":1290:1311   */\n      iszero\n        /* \"#utility.yul\":1279:1311   */\n      swap1\n      pop\n        /* \"#utility.yul\":1227:1317   */\n      swap2\n      swap1\n      pop\n      jump\t// out\n        /* \"#utility.yul\":1323:1449   */\n    tag_31:\n        /* \"#utility.yul\":1360:1367   */\n      0x00\n        /* \"#utility.yul\":1400:1442   */\n      0xffffffffffffffffffffffffffffffffffffffff\n        /* \"#utility.yul\":1393:1398   */\n      dup3\n        /* \"#utility.yul\":1389:1443   */\n      and\n        /* \"#utility.yul\":1378:1443   */\n      swap1\n      pop\n        /* \"#utility.yul\":1323:1449   */\n      swap2\n      swap1\n      pop\n      jump\t// out\n        /* \"#utility.yul\":1578:1695   */\n    tag_21:\n        /* \"#utility.yul\":1687:1688   */\n      0x00\n        /* \"#utility.yul\":1684:1685   */\n      dup1\n        /* \"#utility.yul\":1677:1689   */\n      revert\n        /* \"#utility.yul\":1701:1823   */\n    tag_13:\n        /* \"#utility.yul\":1774:1798   */\n      tag_39\n        /* \"#utility.yul\":1792:1797   */\n      dup2\n        /* \"#utility.yul\":1774:1798   */\n      tag_28\n      jump\t// in\n    tag_39:\n        /* \"#utility.yul\":1767:1772   */\n      dup2\n        /* \"#utility.yul\":1764:1799   */\n      eq\n        /* \"#utility.yul\":1754:1817   */\n      tag_40\n      jumpi\n        /* \"#utility.yul\":1813:1814   */\n      0x00\n        /* \"#utility.yul\":1810:1811   */\n      dup1\n        /* \"#utility.yul\":1803:1815   */\n      revert\n        /* \"#utility.yul\":1754:1817   */\n    tag_40:\n        /* \"#utility.yul\":1701:1823   */\n      pop\n      jump\t// out\n        /* \"#utility.yul\":1829:1945   */\n    tag_17:\n        /* \"#utility.yul\":1899:1920   */\n      tag_42\n        /* \"#utility.yul\":1914:1919   */\n      dup2\n        /* \"#utility.yul\":1899:1920   */\n      tag_32\n      jump\t// in\n    tag_42:\n        /* \"#utility.yul\":1892:1897   */\n      dup2\n        /* \"#utility.yul\":1889:1921   */\n      eq\n        /* \"#utility.yul\":1879:1939   */\n      tag_43\n      jumpi\n        /* \"#utility.yul\":1935:1936   */\n      0x00\n        /* \"#utility.yul\":1932:1933   */\n      dup1\n        /* \"#utility.yul\":1925:1937   */\n      revert\n        /* \"#utility.yul\":1879:1939   */\n    tag_43:\n        /* \"#utility.yul\":1829:1945   */\n      pop\n      jump\t// out\n\n    auxdata: 0xa2646970667358221220f1709dc7f2a7ab248449c06a5e3b0bc6087e6f4230744f33af7f38613efba5b464736f6c63430008070033\n}\n",
				"bytecode": {
					"linkReferences": {},
					"object": "608060405234801561001057600080fd5b5061018a806100206000396000f3fe608060405234801561001057600080fd5b506004361061002b5760003560e01c806343c92a2714610030575b600080fd5b61004a6004803603810190610045919061007c565b61004c565b005b50505050565b60008135905061006181610126565b92915050565b6000813590506100768161013d565b92915050565b6000806000806080858703121561009657610095610121565b5b60006100a487828801610052565b94505060206100b587828801610067565b93505060406100c687828801610067565b92505060606100d787828801610067565b91505092959194509250565b60006100ee82610101565b9050919050565b60008115159050919050565b600073ffffffffffffffffffffffffffffffffffffffff82169050919050565b600080fd5b61012f816100e3565b811461013a57600080fd5b50565b610146816100f5565b811461015157600080fd5b5056fea2646970667358221220f1709dc7f2a7ab248449c06a5e3b0bc6087e6f4230744f33af7f38613efba5b464736f6c63430008070033",
					"opcodes": "PUSH1 0x80 PUSH1 0x40 MSTORE CALLVALUE DUP1 ISZERO PUSH2 0x10 JUMPI PUSH1 0x0 DUP1 REVERT JUMPDEST POP PUSH2 0x18A DUP1 PUSH2 0x20 PUSH1 0x0 CODECOPY PUSH1 0x0 RETURN INVALID PUSH1 0x80 PUSH1 0x40 MSTORE CALLVALUE DUP1 ISZERO PUSH2 0x10 JUMPI PUSH1 0x0 DUP1 REVERT JUMPDEST POP PUSH1 0x4 CALLDATASIZE LT PUSH2 0x2B JUMPI PUSH1 0x0 CALLDATALOAD PUSH1 0xE0 SHR DUP1 PUSH4 0x43C92A27 EQ PUSH2 0x30 JUMPI JUMPDEST PUSH1 0x0 DUP1 REVERT JUMPDEST PUSH2 0x4A PUSH1 0x4 DUP1 CALLDATASIZE SUB DUP2 ADD SWAP1 PUSH2 0x45 SWAP2 SWAP1 PUSH2 0x7C JUMP JUMPDEST PUSH2 0x4C JUMP JUMPDEST STOP JUMPDEST POP POP POP POP JUMP JUMPDEST PUSH1 0x0 DUP2 CALLDATALOAD SWAP1 POP PUSH2 0x61 DUP2 PUSH2 0x126 JUMP JUMPDEST SWAP3 SWAP2 POP POP JUMP JUMPDEST PUSH1 0x0 DUP2 CALLDATALOAD SWAP1 POP PUSH2 0x76 DUP2 PUSH2 0x13D JUMP JUMPDEST SWAP3 SWAP2 POP POP JUMP JUMPDEST PUSH1 0x0 DUP1 PUSH1 0x0 DUP1 PUSH1 0x80 DUP6 DUP8 SUB SLT ISZERO PUSH2 0x96 JUMPI PUSH2 0x95 PUSH2 0x121 JUMP JUMPDEST JUMPDEST PUSH1 0x0 PUSH2 0xA4 DUP8 DUP3 DUP9 ADD PUSH2 0x52 JUMP JUMPDEST SWAP5 POP POP PUSH1 0x20 PUSH2 0xB5 DUP8 DUP3 DUP9 ADD PUSH2 0x67 JUMP JUMPDEST SWAP4 POP POP PUSH1 0x40 PUSH2 0xC6 DUP8 DUP3 DUP9 ADD PUSH2 0x67 JUMP JUMPDEST SWAP3 POP POP PUSH1 0x60 PUSH2 0xD7 DUP8 DUP3 DUP9 ADD PUSH2 0x67 JUMP JUMPDEST SWAP2 POP POP SWAP3 SWAP6 SWAP2 SWAP5 POP SWAP3 POP JUMP JUMPDEST PUSH1 0x0 PUSH2 0xEE DUP3 PUSH2 0x101 JUMP JUMPDEST SWAP1 POP SWAP2 SWAP1 POP JUMP JUMPDEST PUSH1 0x0 DUP2 ISZERO ISZERO SWAP1 POP SWAP2 SWAP1 POP JUMP JUMPDEST PUSH1 0x0 PUSH20 0xFFFFFFFFFFFFFFFFFFFFFFFFFFFFFFFFFFFFFFFF DUP3 AND SWAP1 POP SWAP2 SWAP1 POP JUMP JUMPDEST PUSH1 0x0 DUP1 REVERT JUMPDEST PUSH2 0x12F DUP2 PUSH2 0xE3 JUMP JUMPDEST DUP2 EQ PUSH2 0x13A JUMPI PUSH1 0x0 DUP1 REVERT JUMPDEST POP JUMP JUMPDEST PUSH2 0x146 DUP2 PUSH2 0xF5 JUMP JUMPDEST DUP2 EQ PUSH2 0x151 JUMPI PUSH1 0x0 DUP1 REVERT JUMPDEST POP JUMP INVALID LOG2 PUSH5 0x6970667358 0x22 SLT KECCAK256 CALL PUSH17 0x9DC7F2A7AB248449C06A5E3B0BC6087E6F TIMESTAMP ADDRESS PUSH21 0x4F33AF7F38613EFBA5B464736F6C63430008070033 "
				},
				"gasEstimates": {
					"creation": {
						"codeDepositCost": "78800",
						"executionCost": "129",
						"totalCost": "78929"
					},
					"external": {
						"addStudent(address,bool,bool,bool)": "infinite"
					},
					"internal": {
						"debtsAreDone(struct DormitoryQuest.Student storage pointer)": "infinite"
					}
				},
				"methodIdentifiers": {
					"addStudent(address,bool,bool,bool)": "43c92a27"
				}
			},
			"storageLayout": {
				"storage": [],
				"types": null
			},
			"userdoc": {
				"kind": "user",
				"methods": {},
				"version": 1
			}
		}
	}
}