{
	"contracts/Hometask.sol": {
		"DormitoryQuest": {
			"abi": [
				{
					"anonymous": false,
					"inputs": [
						{
							"indexed": false,
							"internalType": "string",
							"name": "name",
							"type": "string"
						},
						{
							"indexed": false,
							"internalType": "uint256",
							"name": "date",
							"type": "uint256"
						}
					],
					"name": "StudentEvicted",
					"type": "event"
				},
				{
					"anonymous": false,
					"inputs": [
						{
							"indexed": false,
							"internalType": "string",
							"name": "name",
							"type": "string"
						}
					],
					"name": "SummonsToArmyGiven",
					"type": "event"
				},
				{
					"inputs": [
						{
							"internalType": "string",
							"name": "_name",
							"type": "string"
						},
						{
							"internalType": "bool",
							"name": "_sheetsDone",
							"type": "bool"
						},
						{
							"internalType": "bool",
							"name": "_roomDone",
							"type": "bool"
						},
						{
							"internalType": "bool",
							"name": "_booksDone",
							"type": "bool"
						}
					],
					"name": "addStudent",
					"outputs": [],
					"stateMutability": "nonpayable",
					"type": "function"
				},
				{
					"inputs": [
						{
							"components": [
								{
									"internalType": "uint256",
									"name": "id",
									"type": "uint256"
								},
								{
									"internalType": "string",
									"name": "fullName",
									"type": "string"
								},
								{
									"internalType": "bool",
									"name": "sheetsDone",
									"type": "bool"
								},
								{
									"internalType": "bool",
									"name": "roomDone",
									"type": "bool"
								},
								{
									"internalType": "bool",
									"name": "booksDone",
									"type": "bool"
								},
								{
									"internalType": "uint256",
									"name": "regDate",
									"type": "uint256"
								},
								{
									"internalType": "uint256",
									"name": "deadlineDate",
									"type": "uint256"
								}
							],
							"internalType": "struct DormitoryQuest.Student",
							"name": "_student",
							"type": "tuple"
						}
					],
					"name": "debtsAreDone",
					"outputs": [],
					"stateMutability": "nonpayable",
					"type": "function"
				}
			],
			"devdoc": {
				"kind": "dev",
				"methods": {},
				"version": 1
			},
			"evm": {
				"assembly": "    /* \"contracts/Hometask.sol\":62:1663  contract DormitoryQuest {\r... */\n  mstore(0x40, 0x80)\n  callvalue\n  dup1\n  iszero\n  tag_1\n  jumpi\n  0x00\n  dup1\n  revert\ntag_1:\n  pop\n  dataSize(sub_0)\n  dup1\n  dataOffset(sub_0)\n  0x00\n  codecopy\n  0x00\n  return\nstop\n\nsub_0: assembly {\n        /* \"contracts/Hometask.sol\":62:1663  contract DormitoryQuest {\r... */\n      mstore(0x40, 0x80)\n      callvalue\n      dup1\n      iszero\n      tag_1\n      jumpi\n      0x00\n      dup1\n      revert\n    tag_1:\n      pop\n      jumpi(tag_2, lt(calldatasize, 0x04))\n      shr(0xe0, calldataload(0x00))\n      dup1\n      0x344d2d4a\n      eq\n      tag_3\n      jumpi\n      dup1\n      0x614d8f60\n      eq\n      tag_4\n      jumpi\n    tag_2:\n      0x00\n      dup1\n      revert\n        /* \"contracts/Hometask.sol\":458:1014  function addStudent(string calldata _name, bool _sheetsDone, bool _roomDone, bool _booksDone) public {\r... */\n    tag_3:\n      tag_5\n      0x04\n      dup1\n      calldatasize\n      sub\n      dup2\n      add\n      swap1\n      tag_6\n      swap2\n      swap1\n      tag_7\n      jump\t// in\n    tag_6:\n      tag_8\n      jump\t// in\n    tag_5:\n      stop\n        /* \"contracts/Hometask.sol\":1022:1660  function debtsAreDone(Student memory _student) public {\r... */\n    tag_4:\n      tag_9\n      0x04\n      dup1\n      calldatasize\n      sub\n      dup2\n      add\n      swap1\n      tag_10\n      swap2\n      swap1\n      tag_11\n      jump\t// in\n    tag_10:\n      tag_12\n      jump\t// in\n    tag_9:\n      stop\n        /* \"contracts/Hometask.sol\":458:1014  function addStudent(string calldata _name, bool _sheetsDone, bool _roomDone, bool _booksDone) public {\r... */\n    tag_8:\n        /* \"contracts/Hometask.sol\":570:584  uint currentId */\n      0x00\n        /* \"contracts/Hometask.sol\":606:607  0 */\n      dup1\n        /* \"contracts/Hometask.sol\":587:595  students */\n      0x00\n        /* \"contracts/Hometask.sol\":587:602  students.length */\n      dup1\n      sload\n      swap1\n      pop\n        /* \"contracts/Hometask.sol\":587:607  students.length == 0 */\n      eq\n        /* \"contracts/Hometask.sol\":587:647  students.length == 0 ? students.length : students.length - 1 */\n      tag_14\n      jumpi\n        /* \"contracts/Hometask.sol\":646:647  1 */\n      0x01\n        /* \"contracts/Hometask.sol\":628:636  students */\n      0x00\n        /* \"contracts/Hometask.sol\":628:643  students.length */\n      dup1\n      sload\n      swap1\n      pop\n        /* \"contracts/Hometask.sol\":628:647  students.length - 1 */\n      tag_15\n      swap2\n      swap1\n      tag_16\n      jump\t// in\n    tag_15:\n        /* \"contracts/Hometask.sol\":587:647  students.length == 0 ? students.length : students.length - 1 */\n      jump(tag_17)\n    tag_14:\n        /* \"contracts/Hometask.sol\":610:618  students */\n      0x00\n        /* \"contracts/Hometask.sol\":610:625  students.length */\n      dup1\n      sload\n      swap1\n      pop\n        /* \"contracts/Hometask.sol\":587:647  students.length == 0 ? students.length : students.length - 1 */\n    tag_17:\n        /* \"contracts/Hometask.sol\":570:647  uint currentId = students.length == 0 ? students.length : students.length - 1 */\n      swap1\n      pop\n        /* \"contracts/Hometask.sol\":660:685  Student memory newStudent */\n      0x00\n        /* \"contracts/Hometask.sol\":688:968  Student({\r... */\n      mload(0x40)\n      dup1\n      0xe0\n      add\n      0x40\n      mstore\n      dup1\n        /* \"contracts/Hometask.sol\":715:724  currentId */\n      dup4\n        /* \"contracts/Hometask.sol\":688:968  Student({\r... */\n      dup2\n      mstore\n      0x20\n      add\n        /* \"contracts/Hometask.sol\":749:754  _name */\n      dup9\n      dup9\n        /* \"contracts/Hometask.sol\":688:968  Student({\r... */\n      dup1\n      dup1\n      0x1f\n      add\n      0x20\n      dup1\n      swap2\n      div\n      mul\n      0x20\n      add\n      mload(0x40)\n      swap1\n      dup2\n      add\n      0x40\n      mstore\n      dup1\n      swap4\n      swap3\n      swap2\n      swap1\n      dup2\n      dup2\n      mstore\n      0x20\n      add\n      dup4\n      dup4\n      dup1\n      dup3\n      dup5\n      calldatacopy\n      0x00\n      dup2\n      dup5\n      add\n      mstore\n      not(0x1f)\n      0x1f\n      dup3\n      add\n      and\n      swap1\n      pop\n      dup1\n      dup4\n      add\n      swap3\n      pop\n      pop\n      pop\n      pop\n      pop\n      pop\n      pop\n      dup2\n      mstore\n      0x20\n      add\n        /* \"contracts/Hometask.sol\":781:792  _sheetsDone */\n      dup7\n        /* \"contracts/Hometask.sol\":688:968  Student({\r... */\n      iszero\n      iszero\n      dup2\n      mstore\n      0x20\n      add\n        /* \"contracts/Hometask.sol\":817:826  _roomDone */\n      dup6\n        /* \"contracts/Hometask.sol\":688:968  Student({\r... */\n      iszero\n      iszero\n      dup2\n      mstore\n      0x20\n      add\n        /* \"contracts/Hometask.sol\":852:862  _booksDone */\n      dup5\n        /* \"contracts/Hometask.sol\":688:968  Student({\r... */\n      iszero\n      iszero\n      dup2\n      mstore\n      0x20\n      add\n        /* \"contracts/Hometask.sol\":886:901  block.timestamp */\n      timestamp\n        /* \"contracts/Hometask.sol\":688:968  Student({\r... */\n      dup2\n      mstore\n      0x20\n      add\n        /* \"contracts/Hometask.sol\":118:124  3 days */\n      0x03f480\n        /* \"contracts/Hometask.sol\":930:945  block.timestamp */\n      timestamp\n        /* \"contracts/Hometask.sol\":930:956  block.timestamp + DURATION */\n      tag_18\n      swap2\n      swap1\n      tag_19\n      jump\t// in\n    tag_18:\n        /* \"contracts/Hometask.sol\":688:968  Student({\r... */\n      dup2\n      mstore\n      pop\n        /* \"contracts/Hometask.sol\":660:968  Student memory newStudent = Student({\r... */\n      swap1\n      pop\n        /* \"contracts/Hometask.sol\":981:989  students */\n      0x00\n        /* \"contracts/Hometask.sol\":995:1005  newStudent */\n      dup2\n        /* \"contracts/Hometask.sol\":981:1006  students.push(newStudent) */\n      swap1\n      dup1\n      0x01\n      dup2\n      sload\n      add\n      dup1\n      dup3\n      sstore\n      dup1\n      swap2\n      pop\n      pop\n      0x01\n      swap1\n      sub\n      swap1\n      0x00\n      mstore\n      keccak256(0x00, 0x20)\n      swap1\n      0x05\n      mul\n      add\n      0x00\n      swap1\n      swap2\n      swap1\n      swap2\n      swap1\n      swap2\n      pop\n      0x00\n      dup3\n      add\n      mload\n      dup2\n      0x00\n      add\n      sstore\n      0x20\n      dup3\n      add\n      mload\n      dup2\n      0x01\n      add\n      swap1\n      dup1\n      mload\n      swap1\n      0x20\n      add\n      swap1\n      tag_21\n      swap3\n      swap2\n      swap1\n      tag_22\n      jump\t// in\n    tag_21:\n      pop\n      0x40\n      dup3\n      add\n      mload\n      dup2\n      0x02\n      add\n      exp(0x0100, 0x00)\n      dup2\n      sload\n      dup2\n      0xff\n      mul\n      not\n      and\n      swap1\n      dup4\n      iszero\n      iszero\n      mul\n      or\n      swap1\n      sstore\n      pop\n      0x60\n      dup3\n      add\n      mload\n      dup2\n      0x02\n      add\n      exp(0x0100, 0x01)\n      dup2\n      sload\n      dup2\n      0xff\n      mul\n      not\n      and\n      swap1\n      dup4\n      iszero\n      iszero\n      mul\n      or\n      swap1\n      sstore\n      pop\n      0x80\n      dup3\n      add\n      mload\n      dup2\n      0x02\n      add\n      exp(0x0100, 0x02)\n      dup2\n      sload\n      dup2\n      0xff\n      mul\n      not\n      and\n      swap1\n      dup4\n      iszero\n      iszero\n      mul\n      or\n      swap1\n      sstore\n      pop\n      0xa0\n      dup3\n      add\n      mload\n      dup2\n      0x03\n      add\n      sstore\n      0xc0\n      dup3\n      add\n      mload\n      dup2\n      0x04\n      add\n      sstore\n      pop\n      pop\n        /* \"contracts/Hometask.sol\":559:1014  {\r... */\n      pop\n      pop\n        /* \"contracts/Hometask.sol\":458:1014  function addStudent(string calldata _name, bool _sheetsDone, bool _roomDone, bool _booksDone) public {\r... */\n      pop\n      pop\n      pop\n      pop\n      pop\n      jump\t// out\n        /* \"contracts/Hometask.sol\":1022:1660  function debtsAreDone(Student memory _student) public {\r... */\n    tag_12:\n        /* \"contracts/Hometask.sol\":1114:1119  false */\n      0x00\n        /* \"contracts/Hometask.sol\":1091:1119  _student.sheetsDone == false */\n      iszero\n      iszero\n        /* \"contracts/Hometask.sol\":1091:1099  _student */\n      dup2\n        /* \"contracts/Hometask.sol\":1091:1110  _student.sheetsDone */\n      0x40\n      add\n      mload\n        /* \"contracts/Hometask.sol\":1091:1119  _student.sheetsDone == false */\n      iszero\n      iszero\n      eq\n        /* \"contracts/Hometask.sol\":1087:1199  if (_student.sheetsDone == false)\r... */\n      iszero\n      tag_24\n      jumpi\n        /* \"contracts/Hometask.sol\":1150:1187  SummonsToArmyGiven(_student.fullName) */\n      0xd53ecb21746e36da81ddab5bdcf35c93b4e7adb500e38a0ce440f729de177ac5\n        /* \"contracts/Hometask.sol\":1169:1177  _student */\n      dup2\n        /* \"contracts/Hometask.sol\":1169:1186  _student.fullName */\n      0x20\n      add\n      mload\n        /* \"contracts/Hometask.sol\":1150:1187  SummonsToArmyGiven(_student.fullName) */\n      mload(0x40)\n      tag_25\n      swap2\n      swap1\n      tag_26\n      jump\t// in\n    tag_25:\n      mload(0x40)\n      dup1\n      swap2\n      sub\n      swap1\n      log1\n        /* \"contracts/Hometask.sol\":1087:1199  if (_student.sheetsDone == false)\r... */\n    tag_24:\n        /* \"contracts/Hometask.sol\":1236:1241  false */\n      0x00\n        /* \"contracts/Hometask.sol\":1215:1241  _student.roomDone == false */\n      iszero\n      iszero\n        /* \"contracts/Hometask.sol\":1215:1223  _student */\n      dup2\n        /* \"contracts/Hometask.sol\":1215:1232  _student.roomDone */\n      0x60\n      add\n      mload\n        /* \"contracts/Hometask.sol\":1215:1241  _student.roomDone == false */\n      iszero\n      iszero\n      eq\n        /* \"contracts/Hometask.sol\":1211:1321  if (_student.roomDone == false)\r... */\n      iszero\n      tag_27\n      jumpi\n        /* \"contracts/Hometask.sol\":1272:1309  SummonsToArmyGiven(_student.fullName) */\n      0xd53ecb21746e36da81ddab5bdcf35c93b4e7adb500e38a0ce440f729de177ac5\n        /* \"contracts/Hometask.sol\":1291:1299  _student */\n      dup2\n        /* \"contracts/Hometask.sol\":1291:1308  _student.fullName */\n      0x20\n      add\n      mload\n        /* \"contracts/Hometask.sol\":1272:1309  SummonsToArmyGiven(_student.fullName) */\n      mload(0x40)\n      tag_28\n      swap2\n      swap1\n      tag_26\n      jump\t// in\n    tag_28:\n      mload(0x40)\n      dup1\n      swap2\n      sub\n      swap1\n      log1\n        /* \"contracts/Hometask.sol\":1211:1321  if (_student.roomDone == false)\r... */\n    tag_27:\n        /* \"contracts/Hometask.sol\":1359:1364  false */\n      0x00\n        /* \"contracts/Hometask.sol\":1337:1364  _student.booksDone == false */\n      iszero\n      iszero\n        /* \"contracts/Hometask.sol\":1337:1345  _student */\n      dup2\n        /* \"contracts/Hometask.sol\":1337:1355  _student.booksDone */\n      0x80\n      add\n      mload\n        /* \"contracts/Hometask.sol\":1337:1364  _student.booksDone == false */\n      iszero\n      iszero\n      eq\n        /* \"contracts/Hometask.sol\":1333:1444  if (_student.booksDone == false)\r... */\n      iszero\n      tag_29\n      jumpi\n        /* \"contracts/Hometask.sol\":1395:1432  SummonsToArmyGiven(_student.fullName) */\n      0xd53ecb21746e36da81ddab5bdcf35c93b4e7adb500e38a0ce440f729de177ac5\n        /* \"contracts/Hometask.sol\":1414:1422  _student */\n      dup2\n        /* \"contracts/Hometask.sol\":1414:1431  _student.fullName */\n      0x20\n      add\n      mload\n        /* \"contracts/Hometask.sol\":1395:1432  SummonsToArmyGiven(_student.fullName) */\n      mload(0x40)\n      tag_30\n      swap2\n      swap1\n      tag_26\n      jump\t// in\n    tag_30:\n      mload(0x40)\n      dup1\n      swap2\n      sub\n      swap1\n      log1\n        /* \"contracts/Hometask.sol\":1333:1444  if (_student.booksDone == false)\r... */\n    tag_29:\n        /* \"contracts/Hometask.sol\":1490:1505  block.timestamp */\n      timestamp\n        /* \"contracts/Hometask.sol\":118:124  3 days */\n      0x03f480\n        /* \"contracts/Hometask.sol\":1460:1468  _student */\n      dup3\n        /* \"contracts/Hometask.sol\":1460:1476  _student.regDate */\n      0xa0\n      add\n      mload\n        /* \"contracts/Hometask.sol\":1460:1487  _student.regDate + DURATION */\n      tag_31\n      swap2\n      swap1\n      tag_19\n      jump\t// in\n    tag_31:\n        /* \"contracts/Hometask.sol\":1460:1505  _student.regDate + DURATION > block.timestamp */\n      gt\n        /* \"contracts/Hometask.sol\":1456:1585  if (_student.regDate + DURATION > block.timestamp)\r... */\n      iszero\n      tag_32\n      jumpi\n        /* \"contracts/Hometask.sol\":1536:1573  SummonsToArmyGiven(_student.fullName) */\n      0xd53ecb21746e36da81ddab5bdcf35c93b4e7adb500e38a0ce440f729de177ac5\n        /* \"contracts/Hometask.sol\":1555:1563  _student */\n      dup2\n        /* \"contracts/Hometask.sol\":1555:1572  _student.fullName */\n      0x20\n      add\n      mload\n        /* \"contracts/Hometask.sol\":1536:1573  SummonsToArmyGiven(_student.fullName) */\n      mload(0x40)\n      tag_33\n      swap2\n      swap1\n      tag_26\n      jump\t// in\n    tag_33:\n      mload(0x40)\n      dup1\n      swap2\n      sub\n      swap1\n      log1\n        /* \"contracts/Hometask.sol\":1456:1585  if (_student.regDate + DURATION > block.timestamp)\r... */\n    tag_32:\n        /* \"contracts/Hometask.sol\":1602:1652  StudentEvicted(_student.fullName, block.timestamp) */\n      0x6fd4822621c89040f0ea90264351e7f95d334eb76155286b2c1b6732331ff93c\n        /* \"contracts/Hometask.sol\":1617:1625  _student */\n      dup2\n        /* \"contracts/Hometask.sol\":1617:1634  _student.fullName */\n      0x20\n      add\n      mload\n        /* \"contracts/Hometask.sol\":1636:1651  block.timestamp */\n      timestamp\n        /* \"contracts/Hometask.sol\":1602:1652  StudentEvicted(_student.fullName, block.timestamp) */\n      mload(0x40)\n      tag_34\n      swap3\n      swap2\n      swap1\n      tag_35\n      jump\t// in\n    tag_34:\n      mload(0x40)\n      dup1\n      swap2\n      sub\n      swap1\n      log1\n        /* \"contracts/Hometask.sol\":1022:1660  function debtsAreDone(Student memory _student) public {\r... */\n      pop\n      jump\t// out\n    tag_22:\n      dup3\n      dup1\n      sload\n      tag_36\n      swap1\n      tag_37\n      jump\t// in\n    tag_36:\n      swap1\n      0x00\n      mstore\n      keccak256(0x00, 0x20)\n      swap1\n      0x1f\n      add\n      0x20\n      swap1\n      div\n      dup2\n      add\n      swap3\n      dup3\n      tag_39\n      jumpi\n      0x00\n      dup6\n      sstore\n      jump(tag_38)\n    tag_39:\n      dup3\n      0x1f\n      lt\n      tag_40\n      jumpi\n      dup1\n      mload\n      not(0xff)\n      and\n      dup4\n      dup1\n      add\n      or\n      dup6\n      sstore\n      jump(tag_38)\n    tag_40:\n      dup3\n      dup1\n      add\n      0x01\n      add\n      dup6\n      sstore\n      dup3\n      iszero\n      tag_38\n      jumpi\n      swap2\n      dup3\n      add\n    tag_41:\n      dup3\n      dup2\n      gt\n      iszero\n      tag_42\n      jumpi\n      dup3\n      mload\n      dup3\n      sstore\n      swap2\n      0x20\n      add\n      swap2\n      swap1\n      0x01\n      add\n      swap1\n      jump(tag_41)\n    tag_42:\n    tag_38:\n      pop\n      swap1\n      pop\n      tag_43\n      swap2\n      swap1\n      tag_44\n      jump\t// in\n    tag_43:\n      pop\n      swap1\n      jump\t// out\n    tag_44:\n    tag_45:\n      dup1\n      dup3\n      gt\n      iszero\n      tag_46\n      jumpi\n      0x00\n      dup2\n      0x00\n      swap1\n      sstore\n      pop\n      0x01\n      add\n      jump(tag_45)\n    tag_46:\n      pop\n      swap1\n      jump\t// out\n        /* \"#utility.yul\":7:419   */\n    tag_48:\n        /* \"#utility.yul\":85:90   */\n      0x00\n        /* \"#utility.yul\":110:176   */\n      tag_50\n        /* \"#utility.yul\":126:175   */\n      tag_51\n        /* \"#utility.yul\":168:174   */\n      dup5\n        /* \"#utility.yul\":126:175   */\n      tag_52\n      jump\t// in\n    tag_51:\n        /* \"#utility.yul\":110:176   */\n      tag_53\n      jump\t// in\n    tag_50:\n        /* \"#utility.yul\":101:176   */\n      swap1\n      pop\n        /* \"#utility.yul\":199:205   */\n      dup3\n        /* \"#utility.yul\":192:197   */\n      dup2\n        /* \"#utility.yul\":185:206   */\n      mstore\n        /* \"#utility.yul\":237:241   */\n      0x20\n        /* \"#utility.yul\":230:235   */\n      dup2\n        /* \"#utility.yul\":226:242   */\n      add\n        /* \"#utility.yul\":275:278   */\n      dup5\n        /* \"#utility.yul\":266:272   */\n      dup5\n        /* \"#utility.yul\":261:264   */\n      dup5\n        /* \"#utility.yul\":257:273   */\n      add\n        /* \"#utility.yul\":254:279   */\n      gt\n        /* \"#utility.yul\":251:363   */\n      iszero\n      tag_54\n      jumpi\n        /* \"#utility.yul\":282:361   */\n      tag_55\n      tag_56\n      jump\t// in\n    tag_55:\n        /* \"#utility.yul\":251:363   */\n    tag_54:\n        /* \"#utility.yul\":372:413   */\n      tag_57\n        /* \"#utility.yul\":406:412   */\n      dup5\n        /* \"#utility.yul\":401:404   */\n      dup3\n        /* \"#utility.yul\":396:399   */\n      dup6\n        /* \"#utility.yul\":372:413   */\n      tag_58\n      jump\t// in\n    tag_57:\n        /* \"#utility.yul\":91:419   */\n      pop\n        /* \"#utility.yul\":7:419   */\n      swap4\n      swap3\n      pop\n      pop\n      pop\n      jump\t// out\n        /* \"#utility.yul\":425:558   */\n    tag_59:\n        /* \"#utility.yul\":468:473   */\n      0x00\n        /* \"#utility.yul\":506:512   */\n      dup2\n        /* \"#utility.yul\":493:513   */\n      calldataload\n        /* \"#utility.yul\":484:513   */\n      swap1\n      pop\n        /* \"#utility.yul\":522:552   */\n      tag_61\n        /* \"#utility.yul\":546:551   */\n      dup2\n        /* \"#utility.yul\":522:552   */\n      tag_62\n      jump\t// in\n    tag_61:\n        /* \"#utility.yul\":425:558   */\n      swap3\n      swap2\n      pop\n      pop\n      jump\t// out\n        /* \"#utility.yul\":578:1131   */\n    tag_63:\n        /* \"#utility.yul\":636:644   */\n      0x00\n        /* \"#utility.yul\":646:652   */\n      dup1\n        /* \"#utility.yul\":696:699   */\n      dup4\n        /* \"#utility.yul\":689:693   */\n      0x1f\n        /* \"#utility.yul\":681:687   */\n      dup5\n        /* \"#utility.yul\":677:694   */\n      add\n        /* \"#utility.yul\":673:700   */\n      slt\n        /* \"#utility.yul\":663:785   */\n      tag_65\n      jumpi\n        /* \"#utility.yul\":704:783   */\n      tag_66\n      tag_67\n      jump\t// in\n    tag_66:\n        /* \"#utility.yul\":663:785   */\n    tag_65:\n        /* \"#utility.yul\":817:823   */\n      dup3\n        /* \"#utility.yul\":804:824   */\n      calldataload\n        /* \"#utility.yul\":794:824   */\n      swap1\n      pop\n        /* \"#utility.yul\":847:865   */\n      0xffffffffffffffff\n        /* \"#utility.yul\":839:845   */\n      dup2\n        /* \"#utility.yul\":836:866   */\n      gt\n        /* \"#utility.yul\":833:950   */\n      iszero\n      tag_68\n      jumpi\n        /* \"#utility.yul\":869:948   */\n      tag_69\n      tag_70\n      jump\t// in\n    tag_69:\n        /* \"#utility.yul\":833:950   */\n    tag_68:\n        /* \"#utility.yul\":983:987   */\n      0x20\n        /* \"#utility.yul\":975:981   */\n      dup4\n        /* \"#utility.yul\":971:988   */\n      add\n        /* \"#utility.yul\":959:988   */\n      swap2\n      pop\n        /* \"#utility.yul\":1037:1040   */\n      dup4\n        /* \"#utility.yul\":1029:1033   */\n      0x01\n        /* \"#utility.yul\":1021:1027   */\n      dup3\n        /* \"#utility.yul\":1017:1034   */\n      mul\n        /* \"#utility.yul\":1007:1015   */\n      dup4\n        /* \"#utility.yul\":1003:1035   */\n      add\n        /* \"#utility.yul\":1000:1041   */\n      gt\n        /* \"#utility.yul\":997:1125   */\n      iszero\n      tag_71\n      jumpi\n        /* \"#utility.yul\":1044:1123   */\n      tag_72\n      tag_73\n      jump\t// in\n    tag_72:\n        /* \"#utility.yul\":997:1125   */\n    tag_71:\n        /* \"#utility.yul\":578:1131   */\n      swap3\n      pop\n      swap3\n      swap1\n      pop\n      jump\t// out\n        /* \"#utility.yul\":1151:1491   */\n    tag_74:\n        /* \"#utility.yul\":1207:1212   */\n      0x00\n        /* \"#utility.yul\":1256:1259   */\n      dup3\n        /* \"#utility.yul\":1249:1253   */\n      0x1f\n        /* \"#utility.yul\":1241:1247   */\n      dup4\n        /* \"#utility.yul\":1237:1254   */\n      add\n        /* \"#utility.yul\":1233:1260   */\n      slt\n        /* \"#utility.yul\":1223:1345   */\n      tag_76\n      jumpi\n        /* \"#utility.yul\":1264:1343   */\n      tag_77\n      tag_67\n      jump\t// in\n    tag_77:\n        /* \"#utility.yul\":1223:1345   */\n    tag_76:\n        /* \"#utility.yul\":1381:1387   */\n      dup2\n        /* \"#utility.yul\":1368:1388   */\n      calldataload\n        /* \"#utility.yul\":1406:1485   */\n      tag_78\n        /* \"#utility.yul\":1481:1484   */\n      dup5\n        /* \"#utility.yul\":1473:1479   */\n      dup3\n        /* \"#utility.yul\":1466:1470   */\n      0x20\n        /* \"#utility.yul\":1458:1464   */\n      dup7\n        /* \"#utility.yul\":1454:1471   */\n      add\n        /* \"#utility.yul\":1406:1485   */\n      tag_48\n      jump\t// in\n    tag_78:\n        /* \"#utility.yul\":1397:1485   */\n      swap2\n      pop\n        /* \"#utility.yul\":1213:1491   */\n      pop\n        /* \"#utility.yul\":1151:1491   */\n      swap3\n      swap2\n      pop\n      pop\n      jump\t// out\n        /* \"#utility.yul\":1534:3103   */\n    tag_79:\n        /* \"#utility.yul\":1606:1611   */\n      0x00\n        /* \"#utility.yul\":1650:1654   */\n      0xe0\n        /* \"#utility.yul\":1638:1647   */\n      dup3\n        /* \"#utility.yul\":1633:1636   */\n      dup5\n        /* \"#utility.yul\":1629:1648   */\n      sub\n        /* \"#utility.yul\":1625:1655   */\n      slt\n        /* \"#utility.yul\":1622:1739   */\n      iszero\n      tag_81\n      jumpi\n        /* \"#utility.yul\":1658:1737   */\n      tag_82\n      tag_83\n      jump\t// in\n    tag_82:\n        /* \"#utility.yul\":1622:1739   */\n    tag_81:\n        /* \"#utility.yul\":1757:1778   */\n      tag_84\n        /* \"#utility.yul\":1773:1777   */\n      0xe0\n        /* \"#utility.yul\":1757:1778   */\n      tag_53\n      jump\t// in\n    tag_84:\n        /* \"#utility.yul\":1748:1778   */\n      swap1\n      pop\n        /* \"#utility.yul\":1835:1836   */\n      0x00\n        /* \"#utility.yul\":1875:1924   */\n      tag_85\n        /* \"#utility.yul\":1920:1923   */\n      dup5\n        /* \"#utility.yul\":1911:1917   */\n      dup3\n        /* \"#utility.yul\":1900:1909   */\n      dup6\n        /* \"#utility.yul\":1896:1918   */\n      add\n        /* \"#utility.yul\":1875:1924   */\n      tag_86\n      jump\t// in\n    tag_85:\n        /* \"#utility.yul\":1868:1872   */\n      0x00\n        /* \"#utility.yul\":1861:1866   */\n      dup4\n        /* \"#utility.yul\":1857:1873   */\n      add\n        /* \"#utility.yul\":1850:1925   */\n      mstore\n        /* \"#utility.yul\":1788:1936   */\n      pop\n        /* \"#utility.yul\":2027:2029   */\n      0x20\n        /* \"#utility.yul\":2016:2025   */\n      dup3\n        /* \"#utility.yul\":2012:2030   */\n      add\n        /* \"#utility.yul\":1999:2031   */\n      calldataload\n        /* \"#utility.yul\":2058:2076   */\n      0xffffffffffffffff\n        /* \"#utility.yul\":2050:2056   */\n      dup2\n        /* \"#utility.yul\":2047:2077   */\n      gt\n        /* \"#utility.yul\":2044:2161   */\n      iszero\n      tag_87\n      jumpi\n        /* \"#utility.yul\":2080:2159   */\n      tag_88\n      tag_89\n      jump\t// in\n    tag_88:\n        /* \"#utility.yul\":2044:2161   */\n    tag_87:\n        /* \"#utility.yul\":2200:2259   */\n      tag_90\n        /* \"#utility.yul\":2255:2258   */\n      dup5\n        /* \"#utility.yul\":2246:2252   */\n      dup3\n        /* \"#utility.yul\":2235:2244   */\n      dup6\n        /* \"#utility.yul\":2231:2253   */\n      add\n        /* \"#utility.yul\":2200:2259   */\n      tag_74\n      jump\t// in\n    tag_90:\n        /* \"#utility.yul\":2193:2197   */\n      0x20\n        /* \"#utility.yul\":2186:2191   */\n      dup4\n        /* \"#utility.yul\":2182:2198   */\n      add\n        /* \"#utility.yul\":2175:2260   */\n      mstore\n        /* \"#utility.yul\":1946:2271   */\n      pop\n        /* \"#utility.yul\":2336:2338   */\n      0x40\n        /* \"#utility.yul\":2377:2423   */\n      tag_91\n        /* \"#utility.yul\":2419:2422   */\n      dup5\n        /* \"#utility.yul\":2410:2416   */\n      dup3\n        /* \"#utility.yul\":2399:2408   */\n      dup6\n        /* \"#utility.yul\":2395:2417   */\n      add\n        /* \"#utility.yul\":2377:2423   */\n      tag_59\n      jump\t// in\n    tag_91:\n        /* \"#utility.yul\":2370:2374   */\n      0x40\n        /* \"#utility.yul\":2363:2368   */\n      dup4\n        /* \"#utility.yul\":2359:2375   */\n      add\n        /* \"#utility.yul\":2352:2424   */\n      mstore\n        /* \"#utility.yul\":2281:2435   */\n      pop\n        /* \"#utility.yul\":2498:2500   */\n      0x60\n        /* \"#utility.yul\":2539:2585   */\n      tag_92\n        /* \"#utility.yul\":2581:2584   */\n      dup5\n        /* \"#utility.yul\":2572:2578   */\n      dup3\n        /* \"#utility.yul\":2561:2570   */\n      dup6\n        /* \"#utility.yul\":2557:2579   */\n      add\n        /* \"#utility.yul\":2539:2585   */\n      tag_59\n      jump\t// in\n    tag_92:\n        /* \"#utility.yul\":2532:2536   */\n      0x60\n        /* \"#utility.yul\":2525:2530   */\n      dup4\n        /* \"#utility.yul\":2521:2537   */\n      add\n        /* \"#utility.yul\":2514:2586   */\n      mstore\n        /* \"#utility.yul\":2445:2597   */\n      pop\n        /* \"#utility.yul\":2661:2664   */\n      0x80\n        /* \"#utility.yul\":2703:2749   */\n      tag_93\n        /* \"#utility.yul\":2745:2748   */\n      dup5\n        /* \"#utility.yul\":2736:2742   */\n      dup3\n        /* \"#utility.yul\":2725:2734   */\n      dup6\n        /* \"#utility.yul\":2721:2743   */\n      add\n        /* \"#utility.yul\":2703:2749   */\n      tag_59\n      jump\t// in\n    tag_93:\n        /* \"#utility.yul\":2696:2700   */\n      0x80\n        /* \"#utility.yul\":2689:2694   */\n      dup4\n        /* \"#utility.yul\":2685:2701   */\n      add\n        /* \"#utility.yul\":2678:2750   */\n      mstore\n        /* \"#utility.yul\":2607:2761   */\n      pop\n        /* \"#utility.yul\":2823:2826   */\n      0xa0\n        /* \"#utility.yul\":2865:2914   */\n      tag_94\n        /* \"#utility.yul\":2910:2913   */\n      dup5\n        /* \"#utility.yul\":2901:2907   */\n      dup3\n        /* \"#utility.yul\":2890:2899   */\n      dup6\n        /* \"#utility.yul\":2886:2908   */\n      add\n        /* \"#utility.yul\":2865:2914   */\n      tag_86\n      jump\t// in\n    tag_94:\n        /* \"#utility.yul\":2858:2862   */\n      0xa0\n        /* \"#utility.yul\":2851:2856   */\n      dup4\n        /* \"#utility.yul\":2847:2863   */\n      add\n        /* \"#utility.yul\":2840:2915   */\n      mstore\n        /* \"#utility.yul\":2771:2926   */\n      pop\n        /* \"#utility.yul\":2993:2996   */\n      0xc0\n        /* \"#utility.yul\":3035:3084   */\n      tag_95\n        /* \"#utility.yul\":3080:3083   */\n      dup5\n        /* \"#utility.yul\":3071:3077   */\n      dup3\n        /* \"#utility.yul\":3060:3069   */\n      dup6\n        /* \"#utility.yul\":3056:3078   */\n      add\n        /* \"#utility.yul\":3035:3084   */\n      tag_86\n      jump\t// in\n    tag_95:\n        /* \"#utility.yul\":3028:3032   */\n      0xc0\n        /* \"#utility.yul\":3021:3026   */\n      dup4\n        /* \"#utility.yul\":3017:3033   */\n      add\n        /* \"#utility.yul\":3010:3085   */\n      mstore\n        /* \"#utility.yul\":2936:3096   */\n      pop\n        /* \"#utility.yul\":1534:3103   */\n      swap3\n      swap2\n      pop\n      pop\n      jump\t// out\n        /* \"#utility.yul\":3109:3248   */\n    tag_86:\n        /* \"#utility.yul\":3155:3160   */\n      0x00\n        /* \"#utility.yul\":3193:3199   */\n      dup2\n        /* \"#utility.yul\":3180:3200   */\n      calldataload\n        /* \"#utility.yul\":3171:3200   */\n      swap1\n      pop\n        /* \"#utility.yul\":3209:3242   */\n      tag_97\n        /* \"#utility.yul\":3236:3241   */\n      dup2\n        /* \"#utility.yul\":3209:3242   */\n      tag_98\n      jump\t// in\n    tag_97:\n        /* \"#utility.yul\":3109:3248   */\n      swap3\n      swap2\n      pop\n      pop\n      jump\t// out\n        /* \"#utility.yul\":3254:4201   */\n    tag_7:\n        /* \"#utility.yul\":3343:3349   */\n      0x00\n        /* \"#utility.yul\":3351:3357   */\n      dup1\n        /* \"#utility.yul\":3359:3365   */\n      0x00\n        /* \"#utility.yul\":3367:3373   */\n      dup1\n        /* \"#utility.yul\":3375:3381   */\n      0x00\n        /* \"#utility.yul\":3424:3427   */\n      0x80\n        /* \"#utility.yul\":3412:3421   */\n      dup7\n        /* \"#utility.yul\":3403:3410   */\n      dup9\n        /* \"#utility.yul\":3399:3422   */\n      sub\n        /* \"#utility.yul\":3395:3428   */\n      slt\n        /* \"#utility.yul\":3392:3512   */\n      iszero\n      tag_100\n      jumpi\n        /* \"#utility.yul\":3431:3510   */\n      tag_101\n      tag_102\n      jump\t// in\n    tag_101:\n        /* \"#utility.yul\":3392:3512   */\n    tag_100:\n        /* \"#utility.yul\":3579:3580   */\n      0x00\n        /* \"#utility.yul\":3568:3577   */\n      dup7\n        /* \"#utility.yul\":3564:3581   */\n      add\n        /* \"#utility.yul\":3551:3582   */\n      calldataload\n        /* \"#utility.yul\":3609:3627   */\n      0xffffffffffffffff\n        /* \"#utility.yul\":3601:3607   */\n      dup2\n        /* \"#utility.yul\":3598:3628   */\n      gt\n        /* \"#utility.yul\":3595:3712   */\n      iszero\n      tag_103\n      jumpi\n        /* \"#utility.yul\":3631:3710   */\n      tag_104\n      tag_105\n      jump\t// in\n    tag_104:\n        /* \"#utility.yul\":3595:3712   */\n    tag_103:\n        /* \"#utility.yul\":3744:3809   */\n      tag_106\n        /* \"#utility.yul\":3801:3808   */\n      dup9\n        /* \"#utility.yul\":3792:3798   */\n      dup3\n        /* \"#utility.yul\":3781:3790   */\n      dup10\n        /* \"#utility.yul\":3777:3799   */\n      add\n        /* \"#utility.yul\":3744:3809   */\n      tag_63\n      jump\t// in\n    tag_106:\n        /* \"#utility.yul\":3726:3809   */\n      swap6\n      pop\n      swap6\n      pop\n        /* \"#utility.yul\":3522:3819   */\n      pop\n        /* \"#utility.yul\":3858:3860   */\n      0x20\n        /* \"#utility.yul\":3884:3934   */\n      tag_107\n        /* \"#utility.yul\":3926:3933   */\n      dup9\n        /* \"#utility.yul\":3917:3923   */\n      dup3\n        /* \"#utility.yul\":3906:3915   */\n      dup10\n        /* \"#utility.yul\":3902:3924   */\n      add\n        /* \"#utility.yul\":3884:3934   */\n      tag_59\n      jump\t// in\n    tag_107:\n        /* \"#utility.yul\":3874:3934   */\n      swap4\n      pop\n        /* \"#utility.yul\":3829:3944   */\n      pop\n        /* \"#utility.yul\":3983:3985   */\n      0x40\n        /* \"#utility.yul\":4009:4059   */\n      tag_108\n        /* \"#utility.yul\":4051:4058   */\n      dup9\n        /* \"#utility.yul\":4042:4048   */\n      dup3\n        /* \"#utility.yul\":4031:4040   */\n      dup10\n        /* \"#utility.yul\":4027:4049   */\n      add\n        /* \"#utility.yul\":4009:4059   */\n      tag_59\n      jump\t// in\n    tag_108:\n        /* \"#utility.yul\":3999:4059   */\n      swap3\n      pop\n        /* \"#utility.yul\":3954:4069   */\n      pop\n        /* \"#utility.yul\":4108:4110   */\n      0x60\n        /* \"#utility.yul\":4134:4184   */\n      tag_109\n        /* \"#utility.yul\":4176:4183   */\n      dup9\n        /* \"#utility.yul\":4167:4173   */\n      dup3\n        /* \"#utility.yul\":4156:4165   */\n      dup10\n        /* \"#utility.yul\":4152:4174   */\n      add\n        /* \"#utility.yul\":4134:4184   */\n      tag_59\n      jump\t// in\n    tag_109:\n        /* \"#utility.yul\":4124:4184   */\n      swap2\n      pop\n        /* \"#utility.yul\":4079:4194   */\n      pop\n        /* \"#utility.yul\":3254:4201   */\n      swap3\n      swap6\n      pop\n      swap3\n      swap6\n      swap1\n      swap4\n      pop\n      jump\t// out\n        /* \"#utility.yul\":4207:4742   */\n    tag_11:\n        /* \"#utility.yul\":4289:4295   */\n      0x00\n        /* \"#utility.yul\":4338:4340   */\n      0x20\n        /* \"#utility.yul\":4326:4335   */\n      dup3\n        /* \"#utility.yul\":4317:4324   */\n      dup5\n        /* \"#utility.yul\":4313:4336   */\n      sub\n        /* \"#utility.yul\":4309:4341   */\n      slt\n        /* \"#utility.yul\":4306:4425   */\n      iszero\n      tag_111\n      jumpi\n        /* \"#utility.yul\":4344:4423   */\n      tag_112\n      tag_102\n      jump\t// in\n    tag_112:\n        /* \"#utility.yul\":4306:4425   */\n    tag_111:\n        /* \"#utility.yul\":4492:4493   */\n      0x00\n        /* \"#utility.yul\":4481:4490   */\n      dup3\n        /* \"#utility.yul\":4477:4494   */\n      add\n        /* \"#utility.yul\":4464:4495   */\n      calldataload\n        /* \"#utility.yul\":4522:4540   */\n      0xffffffffffffffff\n        /* \"#utility.yul\":4514:4520   */\n      dup2\n        /* \"#utility.yul\":4511:4541   */\n      gt\n        /* \"#utility.yul\":4508:4625   */\n      iszero\n      tag_113\n      jumpi\n        /* \"#utility.yul\":4544:4623   */\n      tag_114\n      tag_105\n      jump\t// in\n    tag_114:\n        /* \"#utility.yul\":4508:4625   */\n    tag_113:\n        /* \"#utility.yul\":4649:4725   */\n      tag_115\n        /* \"#utility.yul\":4717:4724   */\n      dup5\n        /* \"#utility.yul\":4708:4714   */\n      dup3\n        /* \"#utility.yul\":4697:4706   */\n      dup6\n        /* \"#utility.yul\":4693:4715   */\n      add\n        /* \"#utility.yul\":4649:4725   */\n      tag_79\n      jump\t// in\n    tag_115:\n        /* \"#utility.yul\":4639:4725   */\n      swap2\n      pop\n        /* \"#utility.yul\":4435:4735   */\n      pop\n        /* \"#utility.yul\":4207:4742   */\n      swap3\n      swap2\n      pop\n      pop\n      jump\t// out\n        /* \"#utility.yul\":4748:5112   */\n    tag_116:\n        /* \"#utility.yul\":4836:4839   */\n      0x00\n        /* \"#utility.yul\":4864:4903   */\n      tag_118\n        /* \"#utility.yul\":4897:4902   */\n      dup3\n        /* \"#utility.yul\":4864:4903   */\n      tag_119\n      jump\t// in\n    tag_118:\n        /* \"#utility.yul\":4919:4990   */\n      tag_120\n        /* \"#utility.yul\":4983:4989   */\n      dup2\n        /* \"#utility.yul\":4978:4981   */\n      dup6\n        /* \"#utility.yul\":4919:4990   */\n      tag_121\n      jump\t// in\n    tag_120:\n        /* \"#utility.yul\":4912:4990   */\n      swap4\n      pop\n        /* \"#utility.yul\":4999:5051   */\n      tag_122\n        /* \"#utility.yul\":5044:5050   */\n      dup2\n        /* \"#utility.yul\":5039:5042   */\n      dup6\n        /* \"#utility.yul\":5032:5036   */\n      0x20\n        /* \"#utility.yul\":5025:5030   */\n      dup7\n        /* \"#utility.yul\":5021:5037   */\n      add\n        /* \"#utility.yul\":4999:5051   */\n      tag_123\n      jump\t// in\n    tag_122:\n        /* \"#utility.yul\":5076:5105   */\n      tag_124\n        /* \"#utility.yul\":5098:5104   */\n      dup2\n        /* \"#utility.yul\":5076:5105   */\n      tag_125\n      jump\t// in\n    tag_124:\n        /* \"#utility.yul\":5071:5074   */\n      dup5\n        /* \"#utility.yul\":5067:5106   */\n      add\n        /* \"#utility.yul\":5060:5106   */\n      swap2\n      pop\n        /* \"#utility.yul\":4840:5112   */\n      pop\n        /* \"#utility.yul\":4748:5112   */\n      swap3\n      swap2\n      pop\n      pop\n      jump\t// out\n        /* \"#utility.yul\":5118:5236   */\n    tag_126:\n        /* \"#utility.yul\":5205:5229   */\n      tag_128\n        /* \"#utility.yul\":5223:5228   */\n      dup2\n        /* \"#utility.yul\":5205:5229   */\n      tag_129\n      jump\t// in\n    tag_128:\n        /* \"#utility.yul\":5200:5203   */\n      dup3\n        /* \"#utility.yul\":5193:5230   */\n      mstore\n        /* \"#utility.yul\":5118:5236   */\n      pop\n      pop\n      jump\t// out\n        /* \"#utility.yul\":5242:5555   */\n    tag_26:\n        /* \"#utility.yul\":5355:5359   */\n      0x00\n        /* \"#utility.yul\":5393:5395   */\n      0x20\n        /* \"#utility.yul\":5382:5391   */\n      dup3\n        /* \"#utility.yul\":5378:5396   */\n      add\n        /* \"#utility.yul\":5370:5396   */\n      swap1\n      pop\n        /* \"#utility.yul\":5442:5451   */\n      dup2\n        /* \"#utility.yul\":5436:5440   */\n      dup2\n        /* \"#utility.yul\":5432:5452   */\n      sub\n        /* \"#utility.yul\":5428:5429   */\n      0x00\n        /* \"#utility.yul\":5417:5426   */\n      dup4\n        /* \"#utility.yul\":5413:5430   */\n      add\n        /* \"#utility.yul\":5406:5453   */\n      mstore\n        /* \"#utility.yul\":5470:5548   */\n      tag_131\n        /* \"#utility.yul\":5543:5547   */\n      dup2\n        /* \"#utility.yul\":5534:5540   */\n      dup5\n        /* \"#utility.yul\":5470:5548   */\n      tag_116\n      jump\t// in\n    tag_131:\n        /* \"#utility.yul\":5462:5548   */\n      swap1\n      pop\n        /* \"#utility.yul\":5242:5555   */\n      swap3\n      swap2\n      pop\n      pop\n      jump\t// out\n        /* \"#utility.yul\":5561:5984   */\n    tag_35:\n        /* \"#utility.yul\":5702:5706   */\n      0x00\n        /* \"#utility.yul\":5740:5742   */\n      0x40\n        /* \"#utility.yul\":5729:5738   */\n      dup3\n        /* \"#utility.yul\":5725:5743   */\n      add\n        /* \"#utility.yul\":5717:5743   */\n      swap1\n      pop\n        /* \"#utility.yul\":5789:5798   */\n      dup2\n        /* \"#utility.yul\":5783:5787   */\n      dup2\n        /* \"#utility.yul\":5779:5799   */\n      sub\n        /* \"#utility.yul\":5775:5776   */\n      0x00\n        /* \"#utility.yul\":5764:5773   */\n      dup4\n        /* \"#utility.yul\":5760:5777   */\n      add\n        /* \"#utility.yul\":5753:5800   */\n      mstore\n        /* \"#utility.yul\":5817:5895   */\n      tag_133\n        /* \"#utility.yul\":5890:5894   */\n      dup2\n        /* \"#utility.yul\":5881:5887   */\n      dup6\n        /* \"#utility.yul\":5817:5895   */\n      tag_116\n      jump\t// in\n    tag_133:\n        /* \"#utility.yul\":5809:5895   */\n      swap1\n      pop\n        /* \"#utility.yul\":5905:5977   */\n      tag_134\n        /* \"#utility.yul\":5973:5975   */\n      0x20\n        /* \"#utility.yul\":5962:5971   */\n      dup4\n        /* \"#utility.yul\":5958:5976   */\n      add\n        /* \"#utility.yul\":5949:5955   */\n      dup5\n        /* \"#utility.yul\":5905:5977   */\n      tag_126\n      jump\t// in\n    tag_134:\n        /* \"#utility.yul\":5561:5984   */\n      swap4\n      swap3\n      pop\n      pop\n      pop\n      jump\t// out\n        /* \"#utility.yul\":5990:6119   */\n    tag_53:\n        /* \"#utility.yul\":6024:6030   */\n      0x00\n        /* \"#utility.yul\":6051:6071   */\n      tag_136\n      tag_137\n      jump\t// in\n    tag_136:\n        /* \"#utility.yul\":6041:6071   */\n      swap1\n      pop\n        /* \"#utility.yul\":6080:6113   */\n      tag_138\n        /* \"#utility.yul\":6108:6112   */\n      dup3\n        /* \"#utility.yul\":6100:6106   */\n      dup3\n        /* \"#utility.yul\":6080:6113   */\n      tag_139\n      jump\t// in\n    tag_138:\n        /* \"#utility.yul\":5990:6119   */\n      swap2\n      swap1\n      pop\n      jump\t// out\n        /* \"#utility.yul\":6125:6200   */\n    tag_137:\n        /* \"#utility.yul\":6158:6164   */\n      0x00\n        /* \"#utility.yul\":6191:6193   */\n      0x40\n        /* \"#utility.yul\":6185:6194   */\n      mload\n        /* \"#utility.yul\":6175:6194   */\n      swap1\n      pop\n        /* \"#utility.yul\":6125:6200   */\n      swap1\n      jump\t// out\n        /* \"#utility.yul\":6206:6514   */\n    tag_52:\n        /* \"#utility.yul\":6268:6272   */\n      0x00\n        /* \"#utility.yul\":6358:6376   */\n      0xffffffffffffffff\n        /* \"#utility.yul\":6350:6356   */\n      dup3\n        /* \"#utility.yul\":6347:6377   */\n      gt\n        /* \"#utility.yul\":6344:6400   */\n      iszero\n      tag_142\n      jumpi\n        /* \"#utility.yul\":6380:6398   */\n      tag_143\n      tag_144\n      jump\t// in\n    tag_143:\n        /* \"#utility.yul\":6344:6400   */\n    tag_142:\n        /* \"#utility.yul\":6418:6447   */\n      tag_145\n        /* \"#utility.yul\":6440:6446   */\n      dup3\n        /* \"#utility.yul\":6418:6447   */\n      tag_125\n      jump\t// in\n    tag_145:\n        /* \"#utility.yul\":6410:6447   */\n      swap1\n      pop\n        /* \"#utility.yul\":6502:6506   */\n      0x20\n        /* \"#utility.yul\":6496:6500   */\n      dup2\n        /* \"#utility.yul\":6492:6507   */\n      add\n        /* \"#utility.yul\":6484:6507   */\n      swap1\n      pop\n        /* \"#utility.yul\":6206:6514   */\n      swap2\n      swap1\n      pop\n      jump\t// out\n        /* \"#utility.yul\":6520:6619   */\n    tag_119:\n        /* \"#utility.yul\":6572:6578   */\n      0x00\n        /* \"#utility.yul\":6606:6611   */\n      dup2\n        /* \"#utility.yul\":6600:6612   */\n      mload\n        /* \"#utility.yul\":6590:6612   */\n      swap1\n      pop\n        /* \"#utility.yul\":6520:6619   */\n      swap2\n      swap1\n      pop\n      jump\t// out\n        /* \"#utility.yul\":6625:6794   */\n    tag_121:\n        /* \"#utility.yul\":6709:6720   */\n      0x00\n        /* \"#utility.yul\":6743:6749   */\n      dup3\n        /* \"#utility.yul\":6738:6741   */\n      dup3\n        /* \"#utility.yul\":6731:6750   */\n      mstore\n        /* \"#utility.yul\":6783:6787   */\n      0x20\n        /* \"#utility.yul\":6778:6781   */\n      dup3\n        /* \"#utility.yul\":6774:6788   */\n      add\n        /* \"#utility.yul\":6759:6788   */\n      swap1\n      pop\n        /* \"#utility.yul\":6625:6794   */\n      swap3\n      swap2\n      pop\n      pop\n      jump\t// out\n        /* \"#utility.yul\":6800:7105   */\n    tag_19:\n        /* \"#utility.yul\":6840:6843   */\n      0x00\n        /* \"#utility.yul\":6859:6879   */\n      tag_149\n        /* \"#utility.yul\":6877:6878   */\n      dup3\n        /* \"#utility.yul\":6859:6879   */\n      tag_129\n      jump\t// in\n    tag_149:\n        /* \"#utility.yul\":6854:6879   */\n      swap2\n      pop\n        /* \"#utility.yul\":6893:6913   */\n      tag_150\n        /* \"#utility.yul\":6911:6912   */\n      dup4\n        /* \"#utility.yul\":6893:6913   */\n      tag_129\n      jump\t// in\n    tag_150:\n        /* \"#utility.yul\":6888:6913   */\n      swap3\n      pop\n        /* \"#utility.yul\":7047:7048   */\n      dup3\n        /* \"#utility.yul\":6979:7045   */\n      0xffffffffffffffffffffffffffffffffffffffffffffffffffffffffffffffff\n        /* \"#utility.yul\":6975:7049   */\n      sub\n        /* \"#utility.yul\":6972:6973   */\n      dup3\n        /* \"#utility.yul\":6969:7050   */\n      gt\n        /* \"#utility.yul\":6966:7073   */\n      iszero\n      tag_151\n      jumpi\n        /* \"#utility.yul\":7053:7071   */\n      tag_152\n      tag_153\n      jump\t// in\n    tag_152:\n        /* \"#utility.yul\":6966:7073   */\n    tag_151:\n        /* \"#utility.yul\":7097:7098   */\n      dup3\n        /* \"#utility.yul\":7094:7095   */\n      dup3\n        /* \"#utility.yul\":7090:7099   */\n      add\n        /* \"#utility.yul\":7083:7099   */\n      swap1\n      pop\n        /* \"#utility.yul\":6800:7105   */\n      swap3\n      swap2\n      pop\n      pop\n      jump\t// out\n        /* \"#utility.yul\":7111:7302   */\n    tag_16:\n        /* \"#utility.yul\":7151:7155   */\n      0x00\n        /* \"#utility.yul\":7171:7191   */\n      tag_155\n        /* \"#utility.yul\":7189:7190   */\n      dup3\n        /* \"#utility.yul\":7171:7191   */\n      tag_129\n      jump\t// in\n    tag_155:\n        /* \"#utility.yul\":7166:7191   */\n      swap2\n      pop\n        /* \"#utility.yul\":7205:7225   */\n      tag_156\n        /* \"#utility.yul\":7223:7224   */\n      dup4\n        /* \"#utility.yul\":7205:7225   */\n      tag_129\n      jump\t// in\n    tag_156:\n        /* \"#utility.yul\":7200:7225   */\n      swap3\n      pop\n        /* \"#utility.yul\":7244:7245   */\n      dup3\n        /* \"#utility.yul\":7241:7242   */\n      dup3\n        /* \"#utility.yul\":7238:7246   */\n      lt\n        /* \"#utility.yul\":7235:7269   */\n      iszero\n      tag_157\n      jumpi\n        /* \"#utility.yul\":7249:7267   */\n      tag_158\n      tag_153\n      jump\t// in\n    tag_158:\n        /* \"#utility.yul\":7235:7269   */\n    tag_157:\n        /* \"#utility.yul\":7294:7295   */\n      dup3\n        /* \"#utility.yul\":7291:7292   */\n      dup3\n        /* \"#utility.yul\":7287:7296   */\n      sub\n        /* \"#utility.yul\":7279:7296   */\n      swap1\n      pop\n        /* \"#utility.yul\":7111:7302   */\n      swap3\n      swap2\n      pop\n      pop\n      jump\t// out\n        /* \"#utility.yul\":7308:7398   */\n    tag_159:\n        /* \"#utility.yul\":7342:7349   */\n      0x00\n        /* \"#utility.yul\":7385:7390   */\n      dup2\n        /* \"#utility.yul\":7378:7391   */\n      iszero\n        /* \"#utility.yul\":7371:7392   */\n      iszero\n        /* \"#utility.yul\":7360:7392   */\n      swap1\n      pop\n        /* \"#utility.yul\":7308:7398   */\n      swap2\n      swap1\n      pop\n      jump\t// out\n        /* \"#utility.yul\":7404:7481   */\n    tag_129:\n        /* \"#utility.yul\":7441:7448   */\n      0x00\n        /* \"#utility.yul\":7470:7475   */\n      dup2\n        /* \"#utility.yul\":7459:7475   */\n      swap1\n      pop\n        /* \"#utility.yul\":7404:7481   */\n      swap2\n      swap1\n      pop\n      jump\t// out\n        /* \"#utility.yul\":7487:7641   */\n    tag_58:\n        /* \"#utility.yul\":7571:7577   */\n      dup3\n        /* \"#utility.yul\":7566:7569   */\n      dup2\n        /* \"#utility.yul\":7561:7564   */\n      dup4\n        /* \"#utility.yul\":7548:7578   */\n      calldatacopy\n        /* \"#utility.yul\":7633:7634   */\n      0x00\n        /* \"#utility.yul\":7624:7630   */\n      dup4\n        /* \"#utility.yul\":7619:7622   */\n      dup4\n        /* \"#utility.yul\":7615:7631   */\n      add\n        /* \"#utility.yul\":7608:7635   */\n      mstore\n        /* \"#utility.yul\":7487:7641   */\n      pop\n      pop\n      pop\n      jump\t// out\n        /* \"#utility.yul\":7647:7954   */\n    tag_123:\n        /* \"#utility.yul\":7715:7716   */\n      0x00\n        /* \"#utility.yul\":7725:7838   */\n    tag_164:\n        /* \"#utility.yul\":7739:7745   */\n      dup4\n        /* \"#utility.yul\":7736:7737   */\n      dup2\n        /* \"#utility.yul\":7733:7746   */\n      lt\n        /* \"#utility.yul\":7725:7838   */\n      iszero\n      tag_166\n      jumpi\n        /* \"#utility.yul\":7824:7825   */\n      dup1\n        /* \"#utility.yul\":7819:7822   */\n      dup3\n        /* \"#utility.yul\":7815:7826   */\n      add\n        /* \"#utility.yul\":7809:7827   */\n      mload\n        /* \"#utility.yul\":7805:7806   */\n      dup2\n        /* \"#utility.yul\":7800:7803   */\n      dup5\n        /* \"#utility.yul\":7796:7807   */\n      add\n        /* \"#utility.yul\":7789:7828   */\n      mstore\n        /* \"#utility.yul\":7761:7763   */\n      0x20\n        /* \"#utility.yul\":7758:7759   */\n      dup2\n        /* \"#utility.yul\":7754:7764   */\n      add\n        /* \"#utility.yul\":7749:7764   */\n      swap1\n      pop\n        /* \"#utility.yul\":7725:7838   */\n      jump(tag_164)\n    tag_166:\n        /* \"#utility.yul\":7856:7862   */\n      dup4\n        /* \"#utility.yul\":7853:7854   */\n      dup2\n        /* \"#utility.yul\":7850:7863   */\n      gt\n        /* \"#utility.yul\":7847:7948   */\n      iszero\n      tag_167\n      jumpi\n        /* \"#utility.yul\":7936:7937   */\n      0x00\n        /* \"#utility.yul\":7927:7933   */\n      dup5\n        /* \"#utility.yul\":7922:7925   */\n      dup5\n        /* \"#utility.yul\":7918:7934   */\n      add\n        /* \"#utility.yul\":7911:7938   */\n      mstore\n        /* \"#utility.yul\":7847:7948   */\n    tag_167:\n        /* \"#utility.yul\":7696:7954   */\n      pop\n        /* \"#utility.yul\":7647:7954   */\n      pop\n      pop\n      pop\n      jump\t// out\n        /* \"#utility.yul\":7960:8280   */\n    tag_37:\n        /* \"#utility.yul\":8004:8010   */\n      0x00\n        /* \"#utility.yul\":8041:8042   */\n      0x02\n        /* \"#utility.yul\":8035:8039   */\n      dup3\n        /* \"#utility.yul\":8031:8043   */\n      div\n        /* \"#utility.yul\":8021:8043   */\n      swap1\n      pop\n        /* \"#utility.yul\":8088:8089   */\n      0x01\n        /* \"#utility.yul\":8082:8086   */\n      dup3\n        /* \"#utility.yul\":8078:8090   */\n      and\n        /* \"#utility.yul\":8109:8127   */\n      dup1\n        /* \"#utility.yul\":8099:8180   */\n      tag_169\n      jumpi\n        /* \"#utility.yul\":8165:8169   */\n      0x7f\n        /* \"#utility.yul\":8157:8163   */\n      dup3\n        /* \"#utility.yul\":8153:8170   */\n      and\n        /* \"#utility.yul\":8143:8170   */\n      swap2\n      pop\n        /* \"#utility.yul\":8099:8180   */\n    tag_169:\n        /* \"#utility.yul\":8227:8229   */\n      0x20\n        /* \"#utility.yul\":8219:8225   */\n      dup3\n        /* \"#utility.yul\":8216:8230   */\n      lt\n        /* \"#utility.yul\":8196:8214   */\n      dup2\n        /* \"#utility.yul\":8193:8231   */\n      eq\n        /* \"#utility.yul\":8190:8274   */\n      iszero\n      tag_170\n      jumpi\n        /* \"#utility.yul\":8246:8264   */\n      tag_171\n      tag_172\n      jump\t// in\n    tag_171:\n        /* \"#utility.yul\":8190:8274   */\n    tag_170:\n        /* \"#utility.yul\":8011:8280   */\n      pop\n        /* \"#utility.yul\":7960:8280   */\n      swap2\n      swap1\n      pop\n      jump\t// out\n        /* \"#utility.yul\":8286:8567   */\n    tag_139:\n        /* \"#utility.yul\":8369:8396   */\n      tag_174\n        /* \"#utility.yul\":8391:8395   */\n      dup3\n        /* \"#utility.yul\":8369:8396   */\n      tag_125\n      jump\t// in\n    tag_174:\n        /* \"#utility.yul\":8361:8367   */\n      dup2\n        /* \"#utility.yul\":8357:8397   */\n      add\n        /* \"#utility.yul\":8499:8505   */\n      dup2\n        /* \"#utility.yul\":8487:8497   */\n      dup2\n        /* \"#utility.yul\":8484:8506   */\n      lt\n        /* \"#utility.yul\":8463:8481   */\n      0xffffffffffffffff\n        /* \"#utility.yul\":8451:8461   */\n      dup3\n        /* \"#utility.yul\":8448:8482   */\n      gt\n        /* \"#utility.yul\":8445:8507   */\n      or\n        /* \"#utility.yul\":8442:8530   */\n      iszero\n      tag_175\n      jumpi\n        /* \"#utility.yul\":8510:8528   */\n      tag_176\n      tag_144\n      jump\t// in\n    tag_176:\n        /* \"#utility.yul\":8442:8530   */\n    tag_175:\n        /* \"#utility.yul\":8550:8560   */\n      dup1\n        /* \"#utility.yul\":8546:8548   */\n      0x40\n        /* \"#utility.yul\":8539:8561   */\n      mstore\n        /* \"#utility.yul\":8329:8567   */\n      pop\n        /* \"#utility.yul\":8286:8567   */\n      pop\n      pop\n      jump\t// out\n        /* \"#utility.yul\":8573:8753   */\n    tag_153:\n        /* \"#utility.yul\":8621:8698   */\n      0x4e487b7100000000000000000000000000000000000000000000000000000000\n        /* \"#utility.yul\":8618:8619   */\n      0x00\n        /* \"#utility.yul\":8611:8699   */\n      mstore\n        /* \"#utility.yul\":8718:8722   */\n      0x11\n        /* \"#utility.yul\":8715:8716   */\n      0x04\n        /* \"#utility.yul\":8708:8723   */\n      mstore\n        /* \"#utility.yul\":8742:8746   */\n      0x24\n        /* \"#utility.yul\":8739:8740   */\n      0x00\n        /* \"#utility.yul\":8732:8747   */\n      revert\n        /* \"#utility.yul\":8759:8939   */\n    tag_172:\n        /* \"#utility.yul\":8807:8884   */\n      0x4e487b7100000000000000000000000000000000000000000000000000000000\n        /* \"#utility.yul\":8804:8805   */\n      0x00\n        /* \"#utility.yul\":8797:8885   */\n      mstore\n        /* \"#utility.yul\":8904:8908   */\n      0x22\n        /* \"#utility.yul\":8901:8902   */\n      0x04\n        /* \"#utility.yul\":8894:8909   */\n      mstore\n        /* \"#utility.yul\":8928:8932   */\n      0x24\n        /* \"#utility.yul\":8925:8926   */\n      0x00\n        /* \"#utility.yul\":8918:8933   */\n      revert\n        /* \"#utility.yul\":8945:9125   */\n    tag_144:\n        /* \"#utility.yul\":8993:9070   */\n      0x4e487b7100000000000000000000000000000000000000000000000000000000\n        /* \"#utility.yul\":8990:8991   */\n      0x00\n        /* \"#utility.yul\":8983:9071   */\n      mstore\n        /* \"#utility.yul\":9090:9094   */\n      0x41\n        /* \"#utility.yul\":9087:9088   */\n      0x04\n        /* \"#utility.yul\":9080:9095   */\n      mstore\n        /* \"#utility.yul\":9114:9118   */\n      0x24\n        /* \"#utility.yul\":9111:9112   */\n      0x00\n        /* \"#utility.yul\":9104:9119   */\n      revert\n        /* \"#utility.yul\":9131:9248   */\n    tag_70:\n        /* \"#utility.yul\":9240:9241   */\n      0x00\n        /* \"#utility.yul\":9237:9238   */\n      dup1\n        /* \"#utility.yul\":9230:9242   */\n      revert\n        /* \"#utility.yul\":9254:9371   */\n    tag_67:\n        /* \"#utility.yul\":9363:9364   */\n      0x00\n        /* \"#utility.yul\":9360:9361   */\n      dup1\n        /* \"#utility.yul\":9353:9365   */\n      revert\n        /* \"#utility.yul\":9377:9494   */\n    tag_83:\n        /* \"#utility.yul\":9486:9487   */\n      0x00\n        /* \"#utility.yul\":9483:9484   */\n      dup1\n        /* \"#utility.yul\":9476:9488   */\n      revert\n        /* \"#utility.yul\":9500:9617   */\n    tag_89:\n        /* \"#utility.yul\":9609:9610   */\n      0x00\n        /* \"#utility.yul\":9606:9607   */\n      dup1\n        /* \"#utility.yul\":9599:9611   */\n      revert\n        /* \"#utility.yul\":9623:9740   */\n    tag_73:\n        /* \"#utility.yul\":9732:9733   */\n      0x00\n        /* \"#utility.yul\":9729:9730   */\n      dup1\n        /* \"#utility.yul\":9722:9734   */\n      revert\n        /* \"#utility.yul\":9746:9863   */\n    tag_56:\n        /* \"#utility.yul\":9855:9856   */\n      0x00\n        /* \"#utility.yul\":9852:9853   */\n      dup1\n        /* \"#utility.yul\":9845:9857   */\n      revert\n        /* \"#utility.yul\":9869:9986   */\n    tag_105:\n        /* \"#utility.yul\":9978:9979   */\n      0x00\n        /* \"#utility.yul\":9975:9976   */\n      dup1\n        /* \"#utility.yul\":9968:9980   */\n      revert\n        /* \"#utility.yul\":9992:10109   */\n    tag_102:\n        /* \"#utility.yul\":10101:10102   */\n      0x00\n        /* \"#utility.yul\":10098:10099   */\n      dup1\n        /* \"#utility.yul\":10091:10103   */\n      revert\n        /* \"#utility.yul\":10115:10217   */\n    tag_125:\n        /* \"#utility.yul\":10156:10162   */\n      0x00\n        /* \"#utility.yul\":10207:10209   */\n      0x1f\n        /* \"#utility.yul\":10203:10210   */\n      not\n        /* \"#utility.yul\":10198:10200   */\n      0x1f\n        /* \"#utility.yul\":10191:10196   */\n      dup4\n        /* \"#utility.yul\":10187:10201   */\n      add\n        /* \"#utility.yul\":10183:10211   */\n      and\n        /* \"#utility.yul\":10173:10211   */\n      swap1\n      pop\n        /* \"#utility.yul\":10115:10217   */\n      swap2\n      swap1\n      pop\n      jump\t// out\n        /* \"#utility.yul\":10223:10339   */\n    tag_62:\n        /* \"#utility.yul\":10293:10314   */\n      tag_190\n        /* \"#utility.yul\":10308:10313   */\n      dup2\n        /* \"#utility.yul\":10293:10314   */\n      tag_159\n      jump\t// in\n    tag_190:\n        /* \"#utility.yul\":10286:10291   */\n      dup2\n        /* \"#utility.yul\":10283:10315   */\n      eq\n        /* \"#utility.yul\":10273:10333   */\n      tag_191\n      jumpi\n        /* \"#utility.yul\":10329:10330   */\n      0x00\n        /* \"#utility.yul\":10326:10327   */\n      dup1\n        /* \"#utility.yul\":10319:10331   */\n      revert\n        /* \"#utility.yul\":10273:10333   */\n    tag_191:\n        /* \"#utility.yul\":10223:10339   */\n      pop\n      jump\t// out\n        /* \"#utility.yul\":10345:10467   */\n    tag_98:\n        /* \"#utility.yul\":10418:10442   */\n      tag_193\n        /* \"#utility.yul\":10436:10441   */\n      dup2\n        /* \"#utility.yul\":10418:10442   */\n      tag_129\n      jump\t// in\n    tag_193:\n        /* \"#utility.yul\":10411:10416   */\n      dup2\n        /* \"#utility.yul\":10408:10443   */\n      eq\n        /* \"#utility.yul\":10398:10461   */\n      tag_194\n      jumpi\n        /* \"#utility.yul\":10457:10458   */\n      0x00\n        /* \"#utility.yul\":10454:10455   */\n      dup1\n        /* \"#utility.yul\":10447:10459   */\n      revert\n        /* \"#utility.yul\":10398:10461   */\n    tag_194:\n        /* \"#utility.yul\":10345:10467   */\n      pop\n      jump\t// out\n\n    auxdata: 0xa264697066735822122064247d7226b37e52064df453b071b9580367456501444c753df321e879ab85a164736f6c63430008070033\n}\n",
				"bytecode": {
					"linkReferences": {},
					"object": "608060405234801561001057600080fd5b50610a2e806100206000396000f3fe608060405234801561001057600080fd5b50600436106100365760003560e01c8063344d2d4a1461003b578063614d8f6014610057575b600080fd5b610055600480360381019061005091906105e2565b610073565b005b610071600480360381019061006c919061066a565b610202565b005b600080600080549050146100985760016000805490506100939190610815565b61009f565b6000805490505b905060006040518060e0016040528083815260200188888080601f016020809104026020016040519081016040528093929190818152602001838380828437600081840152601f19601f8201169050808301925050505050505081526020018615158152602001851515815260200184151581526020014281526020016203f4804261012b91906107bf565b8152509050600081908060018154018082558091505060019003906000526020600020906005020160009091909190915060008201518160000155602082015181600101908051906020019061018292919061037f565b5060408201518160020160006101000a81548160ff02191690831515021790555060608201518160020160016101000a81548160ff02191690831515021790555060808201518160020160026101000a81548160ff02191690831515021790555060a0820151816003015560c08201518160040155505050505050505050565b6000151581604001511515141561024f577fd53ecb21746e36da81ddab5bdcf35c93b4e7adb500e38a0ce440f729de177ac5816020015160405161024691906106fb565b60405180910390a15b6000151581606001511515141561029c577fd53ecb21746e36da81ddab5bdcf35c93b4e7adb500e38a0ce440f729de177ac5816020015160405161029391906106fb565b60405180910390a15b600015158160800151151514156102e9577fd53ecb21746e36da81ddab5bdcf35c93b4e7adb500e38a0ce440f729de177ac581602001516040516102e091906106fb565b60405180910390a15b426203f4808260a001516102fd91906107bf565b111561033f577fd53ecb21746e36da81ddab5bdcf35c93b4e7adb500e38a0ce440f729de177ac5816020015160405161033691906106fb565b60405180910390a15b7f6fd4822621c89040f0ea90264351e7f95d334eb76155286b2c1b6732331ff93c81602001514260405161037492919061071d565b60405180910390a150565b82805461038b906108a1565b90600052602060002090601f0160209004810192826103ad57600085556103f4565b82601f106103c657805160ff19168380011785556103f4565b828001600101855582156103f4579182015b828111156103f35782518255916020019190600101906103d8565b5b5090506104019190610405565b5090565b5b8082111561041e576000816000905550600101610406565b5090565b600061043561043084610772565b61074d565b905082815260208101848484011115610451576104506109aa565b5b61045c84828561085f565b509392505050565b600081359050610473816109ca565b92915050565b60008083601f84011261048f5761048e610996565b5b8235905067ffffffffffffffff8111156104ac576104ab610991565b5b6020830191508360018202830111156104c8576104c76109a5565b5b9250929050565b600082601f8301126104e4576104e3610996565b5b81356104f4848260208601610422565b91505092915050565b600060e082840312156105135761051261099b565b5b61051d60e061074d565b9050600061052d848285016105cd565b600083015250602082013567ffffffffffffffff811115610551576105506109a0565b5b61055d848285016104cf565b602083015250604061057184828501610464565b604083015250606061058584828501610464565b606083015250608061059984828501610464565b60808301525060a06105ad848285016105cd565b60a08301525060c06105c1848285016105cd565b60c08301525092915050565b6000813590506105dc816109e1565b92915050565b6000806000806000608086880312156105fe576105fd6109b4565b5b600086013567ffffffffffffffff81111561061c5761061b6109af565b5b61062888828901610479565b9550955050602061063b88828901610464565b935050604061064c88828901610464565b925050606061065d88828901610464565b9150509295509295909350565b6000602082840312156106805761067f6109b4565b5b600082013567ffffffffffffffff81111561069e5761069d6109af565b5b6106aa848285016104fd565b91505092915050565b60006106be826107a3565b6106c881856107ae565b93506106d881856020860161086e565b6106e1816109b9565b840191505092915050565b6106f581610855565b82525050565b6000602082019050818103600083015261071581846106b3565b905092915050565b6000604082019050818103600083015261073781856106b3565b905061074660208301846106ec565b9392505050565b6000610757610768565b905061076382826108d3565b919050565b6000604051905090565b600067ffffffffffffffff82111561078d5761078c610962565b5b610796826109b9565b9050602081019050919050565b600081519050919050565b600082825260208201905092915050565b60006107ca82610855565b91506107d583610855565b9250827fffffffffffffffffffffffffffffffffffffffffffffffffffffffffffffffff0382111561080a57610809610904565b5b828201905092915050565b600061082082610855565b915061082b83610855565b92508282101561083e5761083d610904565b5b828203905092915050565b60008115159050919050565b6000819050919050565b82818337600083830152505050565b60005b8381101561088c578082015181840152602081019050610871565b8381111561089b576000848401525b50505050565b600060028204905060018216806108b957607f821691505b602082108114156108cd576108cc610933565b5b50919050565b6108dc826109b9565b810181811067ffffffffffffffff821117156108fb576108fa610962565b5b80604052505050565b7f4e487b7100000000000000000000000000000000000000000000000000000000600052601160045260246000fd5b7f4e487b7100000000000000000000000000000000000000000000000000000000600052602260045260246000fd5b7f4e487b7100000000000000000000000000000000000000000000000000000000600052604160045260246000fd5b600080fd5b600080fd5b600080fd5b600080fd5b600080fd5b600080fd5b600080fd5b600080fd5b6000601f19601f8301169050919050565b6109d381610849565b81146109de57600080fd5b50565b6109ea81610855565b81146109f557600080fd5b5056fea264697066735822122064247d7226b37e52064df453b071b9580367456501444c753df321e879ab85a164736f6c63430008070033",
					"opcodes": "PUSH1 0x80 PUSH1 0x40 MSTORE CALLVALUE DUP1 ISZERO PUSH2 0x10 JUMPI PUSH1 0x0 DUP1 REVERT JUMPDEST POP PUSH2 0xA2E DUP1 PUSH2 0x20 PUSH1 0x0 CODECOPY PUSH1 0x0 RETURN INVALID PUSH1 0x80 PUSH1 0x40 MSTORE CALLVALUE DUP1 ISZERO PUSH2 0x10 JUMPI PUSH1 0x0 DUP1 REVERT JUMPDEST POP PUSH1 0x4 CALLDATASIZE LT PUSH2 0x36 JUMPI PUSH1 0x0 CALLDATALOAD PUSH1 0xE0 SHR DUP1 PUSH4 0x344D2D4A EQ PUSH2 0x3B JUMPI DUP1 PUSH4 0x614D8F60 EQ PUSH2 0x57 JUMPI JUMPDEST PUSH1 0x0 DUP1 REVERT JUMPDEST PUSH2 0x55 PUSH1 0x4 DUP1 CALLDATASIZE SUB DUP2 ADD SWAP1 PUSH2 0x50 SWAP2 SWAP1 PUSH2 0x5E2 JUMP JUMPDEST PUSH2 0x73 JUMP JUMPDEST STOP JUMPDEST PUSH2 0x71 PUSH1 0x4 DUP1 CALLDATASIZE SUB DUP2 ADD SWAP1 PUSH2 0x6C SWAP2 SWAP1 PUSH2 0x66A JUMP JUMPDEST PUSH2 0x202 JUMP JUMPDEST STOP JUMPDEST PUSH1 0x0 DUP1 PUSH1 0x0 DUP1 SLOAD SWAP1 POP EQ PUSH2 0x98 JUMPI PUSH1 0x1 PUSH1 0x0 DUP1 SLOAD SWAP1 POP PUSH2 0x93 SWAP2 SWAP1 PUSH2 0x815 JUMP JUMPDEST PUSH2 0x9F JUMP JUMPDEST PUSH1 0x0 DUP1 SLOAD SWAP1 POP JUMPDEST SWAP1 POP PUSH1 0x0 PUSH1 0x40 MLOAD DUP1 PUSH1 0xE0 ADD PUSH1 0x40 MSTORE DUP1 DUP4 DUP2 MSTORE PUSH1 0x20 ADD DUP9 DUP9 DUP1 DUP1 PUSH1 0x1F ADD PUSH1 0x20 DUP1 SWAP2 DIV MUL PUSH1 0x20 ADD PUSH1 0x40 MLOAD SWAP1 DUP2 ADD PUSH1 0x40 MSTORE DUP1 SWAP4 SWAP3 SWAP2 SWAP1 DUP2 DUP2 MSTORE PUSH1 0x20 ADD DUP4 DUP4 DUP1 DUP3 DUP5 CALLDATACOPY PUSH1 0x0 DUP2 DUP5 ADD MSTORE PUSH1 0x1F NOT PUSH1 0x1F DUP3 ADD AND SWAP1 POP DUP1 DUP4 ADD SWAP3 POP POP POP POP POP POP POP DUP2 MSTORE PUSH1 0x20 ADD DUP7 ISZERO ISZERO DUP2 MSTORE PUSH1 0x20 ADD DUP6 ISZERO ISZERO DUP2 MSTORE PUSH1 0x20 ADD DUP5 ISZERO ISZERO DUP2 MSTORE PUSH1 0x20 ADD TIMESTAMP DUP2 MSTORE PUSH1 0x20 ADD PUSH3 0x3F480 TIMESTAMP PUSH2 0x12B SWAP2 SWAP1 PUSH2 0x7BF JUMP JUMPDEST DUP2 MSTORE POP SWAP1 POP PUSH1 0x0 DUP2 SWAP1 DUP1 PUSH1 0x1 DUP2 SLOAD ADD DUP1 DUP3 SSTORE DUP1 SWAP2 POP POP PUSH1 0x1 SWAP1 SUB SWAP1 PUSH1 0x0 MSTORE PUSH1 0x20 PUSH1 0x0 KECCAK256 SWAP1 PUSH1 0x5 MUL ADD PUSH1 0x0 SWAP1 SWAP2 SWAP1 SWAP2 SWAP1 SWAP2 POP PUSH1 0x0 DUP3 ADD MLOAD DUP2 PUSH1 0x0 ADD SSTORE PUSH1 0x20 DUP3 ADD MLOAD DUP2 PUSH1 0x1 ADD SWAP1 DUP1 MLOAD SWAP1 PUSH1 0x20 ADD SWAP1 PUSH2 0x182 SWAP3 SWAP2 SWAP1 PUSH2 0x37F JUMP JUMPDEST POP PUSH1 0x40 DUP3 ADD MLOAD DUP2 PUSH1 0x2 ADD PUSH1 0x0 PUSH2 0x100 EXP DUP2 SLOAD DUP2 PUSH1 0xFF MUL NOT AND SWAP1 DUP4 ISZERO ISZERO MUL OR SWAP1 SSTORE POP PUSH1 0x60 DUP3 ADD MLOAD DUP2 PUSH1 0x2 ADD PUSH1 0x1 PUSH2 0x100 EXP DUP2 SLOAD DUP2 PUSH1 0xFF MUL NOT AND SWAP1 DUP4 ISZERO ISZERO MUL OR SWAP1 SSTORE POP PUSH1 0x80 DUP3 ADD MLOAD DUP2 PUSH1 0x2 ADD PUSH1 0x2 PUSH2 0x100 EXP DUP2 SLOAD DUP2 PUSH1 0xFF MUL NOT AND SWAP1 DUP4 ISZERO ISZERO MUL OR SWAP1 SSTORE POP PUSH1 0xA0 DUP3 ADD MLOAD DUP2 PUSH1 0x3 ADD SSTORE PUSH1 0xC0 DUP3 ADD MLOAD DUP2 PUSH1 0x4 ADD SSTORE POP POP POP POP POP POP POP POP POP JUMP JUMPDEST PUSH1 0x0 ISZERO ISZERO DUP2 PUSH1 0x40 ADD MLOAD ISZERO ISZERO EQ ISZERO PUSH2 0x24F JUMPI PUSH32 0xD53ECB21746E36DA81DDAB5BDCF35C93B4E7ADB500E38A0CE440F729DE177AC5 DUP2 PUSH1 0x20 ADD MLOAD PUSH1 0x40 MLOAD PUSH2 0x246 SWAP2 SWAP1 PUSH2 0x6FB JUMP JUMPDEST PUSH1 0x40 MLOAD DUP1 SWAP2 SUB SWAP1 LOG1 JUMPDEST PUSH1 0x0 ISZERO ISZERO DUP2 PUSH1 0x60 ADD MLOAD ISZERO ISZERO EQ ISZERO PUSH2 0x29C JUMPI PUSH32 0xD53ECB21746E36DA81DDAB5BDCF35C93B4E7ADB500E38A0CE440F729DE177AC5 DUP2 PUSH1 0x20 ADD MLOAD PUSH1 0x40 MLOAD PUSH2 0x293 SWAP2 SWAP1 PUSH2 0x6FB JUMP JUMPDEST PUSH1 0x40 MLOAD DUP1 SWAP2 SUB SWAP1 LOG1 JUMPDEST PUSH1 0x0 ISZERO ISZERO DUP2 PUSH1 0x80 ADD MLOAD ISZERO ISZERO EQ ISZERO PUSH2 0x2E9 JUMPI PUSH32 0xD53ECB21746E36DA81DDAB5BDCF35C93B4E7ADB500E38A0CE440F729DE177AC5 DUP2 PUSH1 0x20 ADD MLOAD PUSH1 0x40 MLOAD PUSH2 0x2E0 SWAP2 SWAP1 PUSH2 0x6FB JUMP JUMPDEST PUSH1 0x40 MLOAD DUP1 SWAP2 SUB SWAP1 LOG1 JUMPDEST TIMESTAMP PUSH3 0x3F480 DUP3 PUSH1 0xA0 ADD MLOAD PUSH2 0x2FD SWAP2 SWAP1 PUSH2 0x7BF JUMP JUMPDEST GT ISZERO PUSH2 0x33F JUMPI PUSH32 0xD53ECB21746E36DA81DDAB5BDCF35C93B4E7ADB500E38A0CE440F729DE177AC5 DUP2 PUSH1 0x20 ADD MLOAD PUSH1 0x40 MLOAD PUSH2 0x336 SWAP2 SWAP1 PUSH2 0x6FB JUMP JUMPDEST PUSH1 0x40 MLOAD DUP1 SWAP2 SUB SWAP1 LOG1 JUMPDEST PUSH32 0x6FD4822621C89040F0EA90264351E7F95D334EB76155286B2C1B6732331FF93C DUP2 PUSH1 0x20 ADD MLOAD TIMESTAMP PUSH1 0x40 MLOAD PUSH2 0x374 SWAP3 SWAP2 SWAP1 PUSH2 0x71D JUMP JUMPDEST PUSH1 0x40 MLOAD DUP1 SWAP2 SUB SWAP1 LOG1 POP JUMP JUMPDEST DUP3 DUP1 SLOAD PUSH2 0x38B SWAP1 PUSH2 0x8A1 JUMP JUMPDEST SWAP1 PUSH1 0x0 MSTORE PUSH1 0x20 PUSH1 0x0 KECCAK256 SWAP1 PUSH1 0x1F ADD PUSH1 0x20 SWAP1 DIV DUP2 ADD SWAP3 DUP3 PUSH2 0x3AD JUMPI PUSH1 0x0 DUP6 SSTORE PUSH2 0x3F4 JUMP JUMPDEST DUP3 PUSH1 0x1F LT PUSH2 0x3C6 JUMPI DUP1 MLOAD PUSH1 0xFF NOT AND DUP4 DUP1 ADD OR DUP6 SSTORE PUSH2 0x3F4 JUMP JUMPDEST DUP3 DUP1 ADD PUSH1 0x1 ADD DUP6 SSTORE DUP3 ISZERO PUSH2 0x3F4 JUMPI SWAP2 DUP3 ADD JUMPDEST DUP3 DUP2 GT ISZERO PUSH2 0x3F3 JUMPI DUP3 MLOAD DUP3 SSTORE SWAP2 PUSH1 0x20 ADD SWAP2 SWAP1 PUSH1 0x1 ADD SWAP1 PUSH2 0x3D8 JUMP JUMPDEST JUMPDEST POP SWAP1 POP PUSH2 0x401 SWAP2 SWAP1 PUSH2 0x405 JUMP JUMPDEST POP SWAP1 JUMP JUMPDEST JUMPDEST DUP1 DUP3 GT ISZERO PUSH2 0x41E JUMPI PUSH1 0x0 DUP2 PUSH1 0x0 SWAP1 SSTORE POP PUSH1 0x1 ADD PUSH2 0x406 JUMP JUMPDEST POP SWAP1 JUMP JUMPDEST PUSH1 0x0 PUSH2 0x435 PUSH2 0x430 DUP5 PUSH2 0x772 JUMP JUMPDEST PUSH2 0x74D JUMP JUMPDEST SWAP1 POP DUP3 DUP2 MSTORE PUSH1 0x20 DUP2 ADD DUP5 DUP5 DUP5 ADD GT ISZERO PUSH2 0x451 JUMPI PUSH2 0x450 PUSH2 0x9AA JUMP JUMPDEST JUMPDEST PUSH2 0x45C DUP5 DUP3 DUP6 PUSH2 0x85F JUMP JUMPDEST POP SWAP4 SWAP3 POP POP POP JUMP JUMPDEST PUSH1 0x0 DUP2 CALLDATALOAD SWAP1 POP PUSH2 0x473 DUP2 PUSH2 0x9CA JUMP JUMPDEST SWAP3 SWAP2 POP POP JUMP JUMPDEST PUSH1 0x0 DUP1 DUP4 PUSH1 0x1F DUP5 ADD SLT PUSH2 0x48F JUMPI PUSH2 0x48E PUSH2 0x996 JUMP JUMPDEST JUMPDEST DUP3 CALLDATALOAD SWAP1 POP PUSH8 0xFFFFFFFFFFFFFFFF DUP2 GT ISZERO PUSH2 0x4AC JUMPI PUSH2 0x4AB PUSH2 0x991 JUMP JUMPDEST JUMPDEST PUSH1 0x20 DUP4 ADD SWAP2 POP DUP4 PUSH1 0x1 DUP3 MUL DUP4 ADD GT ISZERO PUSH2 0x4C8 JUMPI PUSH2 0x4C7 PUSH2 0x9A5 JUMP JUMPDEST JUMPDEST SWAP3 POP SWAP3 SWAP1 POP JUMP JUMPDEST PUSH1 0x0 DUP3 PUSH1 0x1F DUP4 ADD SLT PUSH2 0x4E4 JUMPI PUSH2 0x4E3 PUSH2 0x996 JUMP JUMPDEST JUMPDEST DUP2 CALLDATALOAD PUSH2 0x4F4 DUP5 DUP3 PUSH1 0x20 DUP7 ADD PUSH2 0x422 JUMP JUMPDEST SWAP2 POP POP SWAP3 SWAP2 POP POP JUMP JUMPDEST PUSH1 0x0 PUSH1 0xE0 DUP3 DUP5 SUB SLT ISZERO PUSH2 0x513 JUMPI PUSH2 0x512 PUSH2 0x99B JUMP JUMPDEST JUMPDEST PUSH2 0x51D PUSH1 0xE0 PUSH2 0x74D JUMP JUMPDEST SWAP1 POP PUSH1 0x0 PUSH2 0x52D DUP5 DUP3 DUP6 ADD PUSH2 0x5CD JUMP JUMPDEST PUSH1 0x0 DUP4 ADD MSTORE POP PUSH1 0x20 DUP3 ADD CALLDATALOAD PUSH8 0xFFFFFFFFFFFFFFFF DUP2 GT ISZERO PUSH2 0x551 JUMPI PUSH2 0x550 PUSH2 0x9A0 JUMP JUMPDEST JUMPDEST PUSH2 0x55D DUP5 DUP3 DUP6 ADD PUSH2 0x4CF JUMP JUMPDEST PUSH1 0x20 DUP4 ADD MSTORE POP PUSH1 0x40 PUSH2 0x571 DUP5 DUP3 DUP6 ADD PUSH2 0x464 JUMP JUMPDEST PUSH1 0x40 DUP4 ADD MSTORE POP PUSH1 0x60 PUSH2 0x585 DUP5 DUP3 DUP6 ADD PUSH2 0x464 JUMP JUMPDEST PUSH1 0x60 DUP4 ADD MSTORE POP PUSH1 0x80 PUSH2 0x599 DUP5 DUP3 DUP6 ADD PUSH2 0x464 JUMP JUMPDEST PUSH1 0x80 DUP4 ADD MSTORE POP PUSH1 0xA0 PUSH2 0x5AD DUP5 DUP3 DUP6 ADD PUSH2 0x5CD JUMP JUMPDEST PUSH1 0xA0 DUP4 ADD MSTORE POP PUSH1 0xC0 PUSH2 0x5C1 DUP5 DUP3 DUP6 ADD PUSH2 0x5CD JUMP JUMPDEST PUSH1 0xC0 DUP4 ADD MSTORE POP SWAP3 SWAP2 POP POP JUMP JUMPDEST PUSH1 0x0 DUP2 CALLDATALOAD SWAP1 POP PUSH2 0x5DC DUP2 PUSH2 0x9E1 JUMP JUMPDEST SWAP3 SWAP2 POP POP JUMP JUMPDEST PUSH1 0x0 DUP1 PUSH1 0x0 DUP1 PUSH1 0x0 PUSH1 0x80 DUP7 DUP9 SUB SLT ISZERO PUSH2 0x5FE JUMPI PUSH2 0x5FD PUSH2 0x9B4 JUMP JUMPDEST JUMPDEST PUSH1 0x0 DUP7 ADD CALLDATALOAD PUSH8 0xFFFFFFFFFFFFFFFF DUP2 GT ISZERO PUSH2 0x61C JUMPI PUSH2 0x61B PUSH2 0x9AF JUMP JUMPDEST JUMPDEST PUSH2 0x628 DUP9 DUP3 DUP10 ADD PUSH2 0x479 JUMP JUMPDEST SWAP6 POP SWAP6 POP POP PUSH1 0x20 PUSH2 0x63B DUP9 DUP3 DUP10 ADD PUSH2 0x464 JUMP JUMPDEST SWAP4 POP POP PUSH1 0x40 PUSH2 0x64C DUP9 DUP3 DUP10 ADD PUSH2 0x464 JUMP JUMPDEST SWAP3 POP POP PUSH1 0x60 PUSH2 0x65D DUP9 DUP3 DUP10 ADD PUSH2 0x464 JUMP JUMPDEST SWAP2 POP POP SWAP3 SWAP6 POP SWAP3 SWAP6 SWAP1 SWAP4 POP JUMP JUMPDEST PUSH1 0x0 PUSH1 0x20 DUP3 DUP5 SUB SLT ISZERO PUSH2 0x680 JUMPI PUSH2 0x67F PUSH2 0x9B4 JUMP JUMPDEST JUMPDEST PUSH1 0x0 DUP3 ADD CALLDATALOAD PUSH8 0xFFFFFFFFFFFFFFFF DUP2 GT ISZERO PUSH2 0x69E JUMPI PUSH2 0x69D PUSH2 0x9AF JUMP JUMPDEST JUMPDEST PUSH2 0x6AA DUP5 DUP3 DUP6 ADD PUSH2 0x4FD JUMP JUMPDEST SWAP2 POP POP SWAP3 SWAP2 POP POP JUMP JUMPDEST PUSH1 0x0 PUSH2 0x6BE DUP3 PUSH2 0x7A3 JUMP JUMPDEST PUSH2 0x6C8 DUP2 DUP6 PUSH2 0x7AE JUMP JUMPDEST SWAP4 POP PUSH2 0x6D8 DUP2 DUP6 PUSH1 0x20 DUP7 ADD PUSH2 0x86E JUMP JUMPDEST PUSH2 0x6E1 DUP2 PUSH2 0x9B9 JUMP JUMPDEST DUP5 ADD SWAP2 POP POP SWAP3 SWAP2 POP POP JUMP JUMPDEST PUSH2 0x6F5 DUP2 PUSH2 0x855 JUMP JUMPDEST DUP3 MSTORE POP POP JUMP JUMPDEST PUSH1 0x0 PUSH1 0x20 DUP3 ADD SWAP1 POP DUP2 DUP2 SUB PUSH1 0x0 DUP4 ADD MSTORE PUSH2 0x715 DUP2 DUP5 PUSH2 0x6B3 JUMP JUMPDEST SWAP1 POP SWAP3 SWAP2 POP POP JUMP JUMPDEST PUSH1 0x0 PUSH1 0x40 DUP3 ADD SWAP1 POP DUP2 DUP2 SUB PUSH1 0x0 DUP4 ADD MSTORE PUSH2 0x737 DUP2 DUP6 PUSH2 0x6B3 JUMP JUMPDEST SWAP1 POP PUSH2 0x746 PUSH1 0x20 DUP4 ADD DUP5 PUSH2 0x6EC JUMP JUMPDEST SWAP4 SWAP3 POP POP POP JUMP JUMPDEST PUSH1 0x0 PUSH2 0x757 PUSH2 0x768 JUMP JUMPDEST SWAP1 POP PUSH2 0x763 DUP3 DUP3 PUSH2 0x8D3 JUMP JUMPDEST SWAP2 SWAP1 POP JUMP JUMPDEST PUSH1 0x0 PUSH1 0x40 MLOAD SWAP1 POP SWAP1 JUMP JUMPDEST PUSH1 0x0 PUSH8 0xFFFFFFFFFFFFFFFF DUP3 GT ISZERO PUSH2 0x78D JUMPI PUSH2 0x78C PUSH2 0x962 JUMP JUMPDEST JUMPDEST PUSH2 0x796 DUP3 PUSH2 0x9B9 JUMP JUMPDEST SWAP1 POP PUSH1 0x20 DUP2 ADD SWAP1 POP SWAP2 SWAP1 POP JUMP JUMPDEST PUSH1 0x0 DUP2 MLOAD SWAP1 POP SWAP2 SWAP1 POP JUMP JUMPDEST PUSH1 0x0 DUP3 DUP3 MSTORE PUSH1 0x20 DUP3 ADD SWAP1 POP SWAP3 SWAP2 POP POP JUMP JUMPDEST PUSH1 0x0 PUSH2 0x7CA DUP3 PUSH2 0x855 JUMP JUMPDEST SWAP2 POP PUSH2 0x7D5 DUP4 PUSH2 0x855 JUMP JUMPDEST SWAP3 POP DUP3 PUSH32 0xFFFFFFFFFFFFFFFFFFFFFFFFFFFFFFFFFFFFFFFFFFFFFFFFFFFFFFFFFFFFFFFF SUB DUP3 GT ISZERO PUSH2 0x80A JUMPI PUSH2 0x809 PUSH2 0x904 JUMP JUMPDEST JUMPDEST DUP3 DUP3 ADD SWAP1 POP SWAP3 SWAP2 POP POP JUMP JUMPDEST PUSH1 0x0 PUSH2 0x820 DUP3 PUSH2 0x855 JUMP JUMPDEST SWAP2 POP PUSH2 0x82B DUP4 PUSH2 0x855 JUMP JUMPDEST SWAP3 POP DUP3 DUP3 LT ISZERO PUSH2 0x83E JUMPI PUSH2 0x83D PUSH2 0x904 JUMP JUMPDEST JUMPDEST DUP3 DUP3 SUB SWAP1 POP SWAP3 SWAP2 POP POP JUMP JUMPDEST PUSH1 0x0 DUP2 ISZERO ISZERO SWAP1 POP SWAP2 SWAP1 POP JUMP JUMPDEST PUSH1 0x0 DUP2 SWAP1 POP SWAP2 SWAP1 POP JUMP JUMPDEST DUP3 DUP2 DUP4 CALLDATACOPY PUSH1 0x0 DUP4 DUP4 ADD MSTORE POP POP POP JUMP JUMPDEST PUSH1 0x0 JUMPDEST DUP4 DUP2 LT ISZERO PUSH2 0x88C JUMPI DUP1 DUP3 ADD MLOAD DUP2 DUP5 ADD MSTORE PUSH1 0x20 DUP2 ADD SWAP1 POP PUSH2 0x871 JUMP JUMPDEST DUP4 DUP2 GT ISZERO PUSH2 0x89B JUMPI PUSH1 0x0 DUP5 DUP5 ADD MSTORE JUMPDEST POP POP POP POP JUMP JUMPDEST PUSH1 0x0 PUSH1 0x2 DUP3 DIV SWAP1 POP PUSH1 0x1 DUP3 AND DUP1 PUSH2 0x8B9 JUMPI PUSH1 0x7F DUP3 AND SWAP2 POP JUMPDEST PUSH1 0x20 DUP3 LT DUP2 EQ ISZERO PUSH2 0x8CD JUMPI PUSH2 0x8CC PUSH2 0x933 JUMP JUMPDEST JUMPDEST POP SWAP2 SWAP1 POP JUMP JUMPDEST PUSH2 0x8DC DUP3 PUSH2 0x9B9 JUMP JUMPDEST DUP2 ADD DUP2 DUP2 LT PUSH8 0xFFFFFFFFFFFFFFFF DUP3 GT OR ISZERO PUSH2 0x8FB JUMPI PUSH2 0x8FA PUSH2 0x962 JUMP JUMPDEST JUMPDEST DUP1 PUSH1 0x40 MSTORE POP POP POP JUMP JUMPDEST PUSH32 0x4E487B7100000000000000000000000000000000000000000000000000000000 PUSH1 0x0 MSTORE PUSH1 0x11 PUSH1 0x4 MSTORE PUSH1 0x24 PUSH1 0x0 REVERT JUMPDEST PUSH32 0x4E487B7100000000000000000000000000000000000000000000000000000000 PUSH1 0x0 MSTORE PUSH1 0x22 PUSH1 0x4 MSTORE PUSH1 0x24 PUSH1 0x0 REVERT JUMPDEST PUSH32 0x4E487B7100000000000000000000000000000000000000000000000000000000 PUSH1 0x0 MSTORE PUSH1 0x41 PUSH1 0x4 MSTORE PUSH1 0x24 PUSH1 0x0 REVERT JUMPDEST PUSH1 0x0 DUP1 REVERT JUMPDEST PUSH1 0x0 DUP1 REVERT JUMPDEST PUSH1 0x0 DUP1 REVERT JUMPDEST PUSH1 0x0 DUP1 REVERT JUMPDEST PUSH1 0x0 DUP1 REVERT JUMPDEST PUSH1 0x0 DUP1 REVERT JUMPDEST PUSH1 0x0 DUP1 REVERT JUMPDEST PUSH1 0x0 DUP1 REVERT JUMPDEST PUSH1 0x0 PUSH1 0x1F NOT PUSH1 0x1F DUP4 ADD AND SWAP1 POP SWAP2 SWAP1 POP JUMP JUMPDEST PUSH2 0x9D3 DUP2 PUSH2 0x849 JUMP JUMPDEST DUP2 EQ PUSH2 0x9DE JUMPI PUSH1 0x0 DUP1 REVERT JUMPDEST POP JUMP JUMPDEST PUSH2 0x9EA DUP2 PUSH2 0x855 JUMP JUMPDEST DUP2 EQ PUSH2 0x9F5 JUMPI PUSH1 0x0 DUP1 REVERT JUMPDEST POP JUMP INVALID LOG2 PUSH5 0x6970667358 0x22 SLT KECCAK256 PUSH5 0x247D7226B3 PUSH31 0x52064DF453B071B9580367456501444C753DF321E879AB85A164736F6C6343 STOP ADDMOD SMOD STOP CALLER "
				},
				"gasEstimates": {
					"creation": {
						"codeDepositCost": "521200",
						"executionCost": "556",
						"totalCost": "521756"
					},
					"external": {
						"addStudent(string,bool,bool,bool)": "infinite",
						"debtsAreDone((uint256,string,bool,bool,bool,uint256,uint256))": "infinite"
					}
				},
				"methodIdentifiers": {
					"addStudent(string,bool,bool,bool)": "344d2d4a",
					"debtsAreDone((uint256,string,bool,bool,bool,uint256,uint256))": "614d8f60"
				}
			},
			"storageLayout": {
				"storage": [
					{
						"astId": 23,
						"contract": "contracts/Hometask.sol:DormitoryQuest",
						"label": "students",
						"offset": 0,
						"slot": "0",
						"type": "t_array(t_struct(Student)19_storage)dyn_storage"
					}
				],
				"types": {
					"t_array(t_struct(Student)19_storage)dyn_storage": {
						"base": "t_struct(Student)19_storage",
						"encoding": "dynamic_array",
						"label": "struct DormitoryQuest.Student[]",
						"numberOfBytes": "32"
					},
					"t_bool": {
						"encoding": "inplace",
						"label": "bool",
						"numberOfBytes": "1"
					},
					"t_string_storage": {
						"encoding": "bytes",
						"label": "string",
						"numberOfBytes": "32"
					},
					"t_struct(Student)19_storage": {
						"encoding": "inplace",
						"label": "struct DormitoryQuest.Student",
						"members": [
							{
								"astId": 6,
								"contract": "contracts/Hometask.sol:DormitoryQuest",
								"label": "id",
								"offset": 0,
								"slot": "0",
								"type": "t_uint256"
							},
							{
								"astId": 8,
								"contract": "contracts/Hometask.sol:DormitoryQuest",
								"label": "fullName",
								"offset": 0,
								"slot": "1",
								"type": "t_string_storage"
							},
							{
								"astId": 10,
								"contract": "contracts/Hometask.sol:DormitoryQuest",
								"label": "sheetsDone",
								"offset": 0,
								"slot": "2",
								"type": "t_bool"
							},
							{
								"astId": 12,
								"contract": "contracts/Hometask.sol:DormitoryQuest",
								"label": "roomDone",
								"offset": 1,
								"slot": "2",
								"type": "t_bool"
							},
							{
								"astId": 14,
								"contract": "contracts/Hometask.sol:DormitoryQuest",
								"label": "booksDone",
								"offset": 2,
								"slot": "2",
								"type": "t_bool"
							},
							{
								"astId": 16,
								"contract": "contracts/Hometask.sol:DormitoryQuest",
								"label": "regDate",
								"offset": 0,
								"slot": "3",
								"type": "t_uint256"
							},
							{
								"astId": 18,
								"contract": "contracts/Hometask.sol:DormitoryQuest",
								"label": "deadlineDate",
								"offset": 0,
								"slot": "4",
								"type": "t_uint256"
							}
						],
						"numberOfBytes": "160"
					},
					"t_uint256": {
						"encoding": "inplace",
						"label": "uint256",
						"numberOfBytes": "32"
					}
				}
			},
			"userdoc": {
				"kind": "user",
				"methods": {},
				"version": 1
			}
		}
	}
}