{
	"contracts/Hometask.sol": {
		"DormitoryQuest": {
			"abi": [
				{
					"inputs": [],
					"stateMutability": "nonpayable",
					"type": "constructor"
				},
				{
					"anonymous": false,
					"inputs": [
						{
							"indexed": false,
							"internalType": "uint256",
							"name": "id",
							"type": "uint256"
						},
						{
							"indexed": false,
							"internalType": "string",
							"name": "name",
							"type": "string"
						},
						{
							"indexed": false,
							"internalType": "uint256",
							"name": "regDate",
							"type": "uint256"
						}
					],
					"name": "StudentAdded",
					"type": "event"
				},
				{
					"anonymous": false,
					"inputs": [
						{
							"indexed": false,
							"internalType": "string",
							"name": "name",
							"type": "string"
						},
						{
							"indexed": false,
							"internalType": "uint256",
							"name": "date",
							"type": "uint256"
						}
					],
					"name": "StudentEvicted",
					"type": "event"
				},
				{
					"anonymous": false,
					"inputs": [
						{
							"indexed": false,
							"internalType": "string",
							"name": "name",
							"type": "string"
						}
					],
					"name": "SummonsToArmyGiven",
					"type": "event"
				},
				{
					"inputs": [
						{
							"internalType": "address",
							"name": "_to",
							"type": "address"
						},
						{
							"internalType": "string",
							"name": "_name",
							"type": "string"
						},
						{
							"internalType": "bool",
							"name": "_sheetsDone",
							"type": "bool"
						},
						{
							"internalType": "bool",
							"name": "_roomDone",
							"type": "bool"
						},
						{
							"internalType": "bool",
							"name": "_booksDone",
							"type": "bool"
						}
					],
					"name": "addStudent",
					"outputs": [],
					"stateMutability": "nonpayable",
					"type": "function"
				},
				{
					"inputs": [
						{
							"components": [
								{
									"internalType": "uint256",
									"name": "id",
									"type": "uint256"
								},
								{
									"internalType": "string",
									"name": "fullName",
									"type": "string"
								},
								{
									"internalType": "bool",
									"name": "sheetsDone",
									"type": "bool"
								},
								{
									"internalType": "bool",
									"name": "roomDone",
									"type": "bool"
								},
								{
									"internalType": "bool",
									"name": "booksDone",
									"type": "bool"
								},
								{
									"internalType": "uint256",
									"name": "regDate",
									"type": "uint256"
								},
								{
									"internalType": "uint256",
									"name": "deadlineDate",
									"type": "uint256"
								}
							],
							"internalType": "struct DormitoryQuest.Student",
							"name": "_student",
							"type": "tuple"
						}
					],
					"name": "debtsAreDone",
					"outputs": [],
					"stateMutability": "nonpayable",
					"type": "function"
				}
			],
			"devdoc": {
				"kind": "dev",
				"methods": {},
				"version": 1
			},
			"evm": {
				"assembly": "    /* \"contracts/Hometask.sol\":62:2101  contract DormitoryQuest {\r... */\n  mstore(0x40, 0x80)\n    /* \"contracts/Hometask.sol\":539:590  constructor() {\r... */\n  callvalue\n  dup1\n  iszero\n  tag_1\n  jumpi\n  0x00\n  dup1\n  revert\ntag_1:\n  pop\n    /* \"contracts/Hometask.sol\":572:582  msg.sender */\n  caller\n    /* \"contracts/Hometask.sol\":564:569  owner */\n  0x00\n  dup1\n    /* \"contracts/Hometask.sol\":564:582  owner = msg.sender */\n  0x0100\n  exp\n  dup2\n  sload\n  dup2\n  0xffffffffffffffffffffffffffffffffffffffff\n  mul\n  not\n  and\n  swap1\n  dup4\n  0xffffffffffffffffffffffffffffffffffffffff\n  and\n  mul\n  or\n  swap1\n  sstore\n  pop\n    /* \"contracts/Hometask.sol\":62:2101  contract DormitoryQuest {\r... */\n  dataSize(sub_0)\n  dup1\n  dataOffset(sub_0)\n  0x00\n  codecopy\n  0x00\n  return\nstop\n\nsub_0: assembly {\n        /* \"contracts/Hometask.sol\":62:2101  contract DormitoryQuest {\r... */\n      mstore(0x40, 0x80)\n      callvalue\n      dup1\n      iszero\n      tag_1\n      jumpi\n      0x00\n      dup1\n      revert\n    tag_1:\n      pop\n      jumpi(tag_2, lt(calldatasize, 0x04))\n      shr(0xe0, calldataload(0x00))\n      dup1\n      0x614d8f60\n      eq\n      tag_3\n      jumpi\n      dup1\n      0x88da06f9\n      eq\n      tag_4\n      jumpi\n    tag_2:\n      0x00\n      dup1\n      revert\n        /* \"contracts/Hometask.sol\":1460:2098  function debtsAreDone(Student memory _student) public {\r... */\n    tag_3:\n      tag_5\n      0x04\n      dup1\n      calldatasize\n      sub\n      dup2\n      add\n      swap1\n      tag_6\n      swap2\n      swap1\n      tag_7\n      jump\t// in\n    tag_6:\n      tag_8\n      jump\t// in\n    tag_5:\n      stop\n        /* \"contracts/Hometask.sol\":782:1452  function addStudent(address _to, string calldata _name, bool _sheetsDone, bool _roomDone, bool _booksDone) public OwnerOnly(_to) {\r... */\n    tag_4:\n      tag_9\n      0x04\n      dup1\n      calldatasize\n      sub\n      dup2\n      add\n      swap1\n      tag_10\n      swap2\n      swap1\n      tag_11\n      jump\t// in\n    tag_10:\n      tag_12\n      jump\t// in\n    tag_9:\n      stop\n        /* \"contracts/Hometask.sol\":1460:2098  function debtsAreDone(Student memory _student) public {\r... */\n    tag_8:\n        /* \"contracts/Hometask.sol\":1552:1557  false */\n      0x00\n        /* \"contracts/Hometask.sol\":1529:1557  _student.sheetsDone == false */\n      iszero\n      iszero\n        /* \"contracts/Hometask.sol\":1529:1537  _student */\n      dup2\n        /* \"contracts/Hometask.sol\":1529:1548  _student.sheetsDone */\n      0x40\n      add\n      mload\n        /* \"contracts/Hometask.sol\":1529:1557  _student.sheetsDone == false */\n      iszero\n      iszero\n      eq\n        /* \"contracts/Hometask.sol\":1525:1637  if (_student.sheetsDone == false)\r... */\n      iszero\n      tag_14\n      jumpi\n        /* \"contracts/Hometask.sol\":1588:1625  SummonsToArmyGiven(_student.fullName) */\n      0xd53ecb21746e36da81ddab5bdcf35c93b4e7adb500e38a0ce440f729de177ac5\n        /* \"contracts/Hometask.sol\":1607:1615  _student */\n      dup2\n        /* \"contracts/Hometask.sol\":1607:1624  _student.fullName */\n      0x20\n      add\n      mload\n        /* \"contracts/Hometask.sol\":1588:1625  SummonsToArmyGiven(_student.fullName) */\n      mload(0x40)\n      tag_15\n      swap2\n      swap1\n      tag_16\n      jump\t// in\n    tag_15:\n      mload(0x40)\n      dup1\n      swap2\n      sub\n      swap1\n      log1\n        /* \"contracts/Hometask.sol\":1525:1637  if (_student.sheetsDone == false)\r... */\n    tag_14:\n        /* \"contracts/Hometask.sol\":1674:1679  false */\n      0x00\n        /* \"contracts/Hometask.sol\":1653:1679  _student.roomDone == false */\n      iszero\n      iszero\n        /* \"contracts/Hometask.sol\":1653:1661  _student */\n      dup2\n        /* \"contracts/Hometask.sol\":1653:1670  _student.roomDone */\n      0x60\n      add\n      mload\n        /* \"contracts/Hometask.sol\":1653:1679  _student.roomDone == false */\n      iszero\n      iszero\n      eq\n        /* \"contracts/Hometask.sol\":1649:1759  if (_student.roomDone == false)\r... */\n      iszero\n      tag_17\n      jumpi\n        /* \"contracts/Hometask.sol\":1710:1747  SummonsToArmyGiven(_student.fullName) */\n      0xd53ecb21746e36da81ddab5bdcf35c93b4e7adb500e38a0ce440f729de177ac5\n        /* \"contracts/Hometask.sol\":1729:1737  _student */\n      dup2\n        /* \"contracts/Hometask.sol\":1729:1746  _student.fullName */\n      0x20\n      add\n      mload\n        /* \"contracts/Hometask.sol\":1710:1747  SummonsToArmyGiven(_student.fullName) */\n      mload(0x40)\n      tag_18\n      swap2\n      swap1\n      tag_16\n      jump\t// in\n    tag_18:\n      mload(0x40)\n      dup1\n      swap2\n      sub\n      swap1\n      log1\n        /* \"contracts/Hometask.sol\":1649:1759  if (_student.roomDone == false)\r... */\n    tag_17:\n        /* \"contracts/Hometask.sol\":1797:1802  false */\n      0x00\n        /* \"contracts/Hometask.sol\":1775:1802  _student.booksDone == false */\n      iszero\n      iszero\n        /* \"contracts/Hometask.sol\":1775:1783  _student */\n      dup2\n        /* \"contracts/Hometask.sol\":1775:1793  _student.booksDone */\n      0x80\n      add\n      mload\n        /* \"contracts/Hometask.sol\":1775:1802  _student.booksDone == false */\n      iszero\n      iszero\n      eq\n        /* \"contracts/Hometask.sol\":1771:1882  if (_student.booksDone == false)\r... */\n      iszero\n      tag_19\n      jumpi\n        /* \"contracts/Hometask.sol\":1833:1870  SummonsToArmyGiven(_student.fullName) */\n      0xd53ecb21746e36da81ddab5bdcf35c93b4e7adb500e38a0ce440f729de177ac5\n        /* \"contracts/Hometask.sol\":1852:1860  _student */\n      dup2\n        /* \"contracts/Hometask.sol\":1852:1869  _student.fullName */\n      0x20\n      add\n      mload\n        /* \"contracts/Hometask.sol\":1833:1870  SummonsToArmyGiven(_student.fullName) */\n      mload(0x40)\n      tag_20\n      swap2\n      swap1\n      tag_16\n      jump\t// in\n    tag_20:\n      mload(0x40)\n      dup1\n      swap2\n      sub\n      swap1\n      log1\n        /* \"contracts/Hometask.sol\":1771:1882  if (_student.booksDone == false)\r... */\n    tag_19:\n        /* \"contracts/Hometask.sol\":1928:1943  block.timestamp */\n      timestamp\n        /* \"contracts/Hometask.sol\":118:124  3 days */\n      0x03f480\n        /* \"contracts/Hometask.sol\":1898:1906  _student */\n      dup3\n        /* \"contracts/Hometask.sol\":1898:1914  _student.regDate */\n      0xa0\n      add\n      mload\n        /* \"contracts/Hometask.sol\":1898:1925  _student.regDate + DURATION */\n      tag_21\n      swap2\n      swap1\n      tag_22\n      jump\t// in\n    tag_21:\n        /* \"contracts/Hometask.sol\":1898:1943  _student.regDate + DURATION > block.timestamp */\n      gt\n        /* \"contracts/Hometask.sol\":1894:2023  if (_student.regDate + DURATION > block.timestamp)\r... */\n      iszero\n      tag_23\n      jumpi\n        /* \"contracts/Hometask.sol\":1974:2011  SummonsToArmyGiven(_student.fullName) */\n      0xd53ecb21746e36da81ddab5bdcf35c93b4e7adb500e38a0ce440f729de177ac5\n        /* \"contracts/Hometask.sol\":1993:2001  _student */\n      dup2\n        /* \"contracts/Hometask.sol\":1993:2010  _student.fullName */\n      0x20\n      add\n      mload\n        /* \"contracts/Hometask.sol\":1974:2011  SummonsToArmyGiven(_student.fullName) */\n      mload(0x40)\n      tag_24\n      swap2\n      swap1\n      tag_16\n      jump\t// in\n    tag_24:\n      mload(0x40)\n      dup1\n      swap2\n      sub\n      swap1\n      log1\n        /* \"contracts/Hometask.sol\":1894:2023  if (_student.regDate + DURATION > block.timestamp)\r... */\n    tag_23:\n        /* \"contracts/Hometask.sol\":2040:2090  StudentEvicted(_student.fullName, block.timestamp) */\n      0x6fd4822621c89040f0ea90264351e7f95d334eb76155286b2c1b6732331ff93c\n        /* \"contracts/Hometask.sol\":2055:2063  _student */\n      dup2\n        /* \"contracts/Hometask.sol\":2055:2072  _student.fullName */\n      0x20\n      add\n      mload\n        /* \"contracts/Hometask.sol\":2074:2089  block.timestamp */\n      timestamp\n        /* \"contracts/Hometask.sol\":2040:2090  StudentEvicted(_student.fullName, block.timestamp) */\n      mload(0x40)\n      tag_25\n      swap3\n      swap2\n      swap1\n      tag_26\n      jump\t// in\n    tag_25:\n      mload(0x40)\n      dup1\n      swap2\n      sub\n      swap1\n      log1\n        /* \"contracts/Hometask.sol\":1460:2098  function debtsAreDone(Student memory _student) public {\r... */\n      pop\n      jump\t// out\n        /* \"contracts/Hometask.sol\":782:1452  function addStudent(address _to, string calldata _name, bool _sheetsDone, bool _roomDone, bool _booksDone) public OwnerOnly(_to) {\r... */\n    tag_12:\n        /* \"contracts/Hometask.sol\":906:909  _to */\n      dup6\n        /* \"contracts/Hometask.sol\":663:668  owner */\n      0x00\n      dup1\n      sload\n      swap1\n      0x0100\n      exp\n      swap1\n      div\n      0xffffffffffffffffffffffffffffffffffffffff\n      and\n        /* \"contracts/Hometask.sol\":649:668  msg.sender == owner */\n      0xffffffffffffffffffffffffffffffffffffffff\n      and\n        /* \"contracts/Hometask.sol\":649:659  msg.sender */\n      caller\n        /* \"contracts/Hometask.sol\":649:668  msg.sender == owner */\n      0xffffffffffffffffffffffffffffffffffffffff\n      and\n      eq\n        /* \"contracts/Hometask.sol\":641:695  require(msg.sender == owner, \"You are not the owner.\") */\n      tag_28\n      jumpi\n      mload(0x40)\n      0x08c379a000000000000000000000000000000000000000000000000000000000\n      dup2\n      mstore\n      0x04\n      add\n      tag_29\n      swap1\n      tag_30\n      jump\t// in\n    tag_29:\n      mload(0x40)\n      dup1\n      swap2\n      sub\n      swap1\n      revert\n    tag_28:\n        /* \"contracts/Hometask.sol\":729:730  0 */\n      0x00\n        /* \"contracts/Hometask.sol\":714:731  _to != address(0) */\n      0xffffffffffffffffffffffffffffffffffffffff\n      and\n        /* \"contracts/Hometask.sol\":714:717  _to */\n      dup2\n        /* \"contracts/Hometask.sol\":714:731  _to != address(0) */\n      0xffffffffffffffffffffffffffffffffffffffff\n      and\n      eq\n      iszero\n        /* \"contracts/Hometask.sol\":706:754  require(_to != address(0), \"Incorrect address!\") */\n      tag_31\n      jumpi\n      mload(0x40)\n      0x08c379a000000000000000000000000000000000000000000000000000000000\n      dup2\n      mstore\n      0x04\n      add\n      tag_32\n      swap1\n      tag_33\n      jump\t// in\n    tag_32:\n      mload(0x40)\n      dup1\n      swap2\n      sub\n      swap1\n      revert\n    tag_31:\n        /* \"contracts/Hometask.sol\":922:936  uint currentId */\n      0x00\n        /* \"contracts/Hometask.sol\":958:959  0 */\n      dup1\n        /* \"contracts/Hometask.sol\":939:947  students */\n      0x01\n        /* \"contracts/Hometask.sol\":939:954  students.length */\n      dup1\n      sload\n      swap1\n      pop\n        /* \"contracts/Hometask.sol\":939:959  students.length == 0 */\n      eq\n        /* \"contracts/Hometask.sol\":939:999  students.length == 0 ? students.length : students.length - 1 */\n      tag_35\n      jumpi\n        /* \"contracts/Hometask.sol\":998:999  1 */\n      0x01\n        /* \"contracts/Hometask.sol\":980:988  students */\n      dup1\n        /* \"contracts/Hometask.sol\":980:995  students.length */\n      dup1\n      sload\n      swap1\n      pop\n        /* \"contracts/Hometask.sol\":980:999  students.length - 1 */\n      tag_36\n      swap2\n      swap1\n      tag_37\n      jump\t// in\n    tag_36:\n        /* \"contracts/Hometask.sol\":939:999  students.length == 0 ? students.length : students.length - 1 */\n      jump(tag_38)\n    tag_35:\n        /* \"contracts/Hometask.sol\":962:970  students */\n      0x01\n        /* \"contracts/Hometask.sol\":962:977  students.length */\n      dup1\n      sload\n      swap1\n      pop\n        /* \"contracts/Hometask.sol\":939:999  students.length == 0 ? students.length : students.length - 1 */\n    tag_38:\n        /* \"contracts/Hometask.sol\":922:999  uint currentId = students.length == 0 ? students.length : students.length - 1 */\n      swap1\n      pop\n        /* \"contracts/Hometask.sol\":1012:1037  Student memory newStudent */\n      0x00\n        /* \"contracts/Hometask.sol\":1040:1320  Student({\r... */\n      mload(0x40)\n      dup1\n      0xe0\n      add\n      0x40\n      mstore\n      dup1\n        /* \"contracts/Hometask.sol\":1067:1076  currentId */\n      dup4\n        /* \"contracts/Hometask.sol\":1040:1320  Student({\r... */\n      dup2\n      mstore\n      0x20\n      add\n        /* \"contracts/Hometask.sol\":1101:1106  _name */\n      dup10\n      dup10\n        /* \"contracts/Hometask.sol\":1040:1320  Student({\r... */\n      dup1\n      dup1\n      0x1f\n      add\n      0x20\n      dup1\n      swap2\n      div\n      mul\n      0x20\n      add\n      mload(0x40)\n      swap1\n      dup2\n      add\n      0x40\n      mstore\n      dup1\n      swap4\n      swap3\n      swap2\n      swap1\n      dup2\n      dup2\n      mstore\n      0x20\n      add\n      dup4\n      dup4\n      dup1\n      dup3\n      dup5\n      calldatacopy\n      0x00\n      dup2\n      dup5\n      add\n      mstore\n      not(0x1f)\n      0x1f\n      dup3\n      add\n      and\n      swap1\n      pop\n      dup1\n      dup4\n      add\n      swap3\n      pop\n      pop\n      pop\n      pop\n      pop\n      pop\n      pop\n      dup2\n      mstore\n      0x20\n      add\n        /* \"contracts/Hometask.sol\":1133:1144  _sheetsDone */\n      dup8\n        /* \"contracts/Hometask.sol\":1040:1320  Student({\r... */\n      iszero\n      iszero\n      dup2\n      mstore\n      0x20\n      add\n        /* \"contracts/Hometask.sol\":1169:1178  _roomDone */\n      dup7\n        /* \"contracts/Hometask.sol\":1040:1320  Student({\r... */\n      iszero\n      iszero\n      dup2\n      mstore\n      0x20\n      add\n        /* \"contracts/Hometask.sol\":1204:1214  _booksDone */\n      dup6\n        /* \"contracts/Hometask.sol\":1040:1320  Student({\r... */\n      iszero\n      iszero\n      dup2\n      mstore\n      0x20\n      add\n        /* \"contracts/Hometask.sol\":1238:1253  block.timestamp */\n      timestamp\n        /* \"contracts/Hometask.sol\":1040:1320  Student({\r... */\n      dup2\n      mstore\n      0x20\n      add\n        /* \"contracts/Hometask.sol\":118:124  3 days */\n      0x03f480\n        /* \"contracts/Hometask.sol\":1282:1297  block.timestamp */\n      timestamp\n        /* \"contracts/Hometask.sol\":1282:1308  block.timestamp + DURATION */\n      tag_39\n      swap2\n      swap1\n      tag_22\n      jump\t// in\n    tag_39:\n        /* \"contracts/Hometask.sol\":1040:1320  Student({\r... */\n      dup2\n      mstore\n      pop\n        /* \"contracts/Hometask.sol\":1012:1320  Student memory newStudent = Student({\r... */\n      swap1\n      pop\n        /* \"contracts/Hometask.sol\":1333:1341  students */\n      0x01\n        /* \"contracts/Hometask.sol\":1347:1357  newStudent */\n      dup2\n        /* \"contracts/Hometask.sol\":1333:1358  students.push(newStudent) */\n      swap1\n      dup1\n      0x01\n      dup2\n      sload\n      add\n      dup1\n      dup3\n      sstore\n      dup1\n      swap2\n      pop\n      pop\n      0x01\n      swap1\n      sub\n      swap1\n      0x00\n      mstore\n      keccak256(0x00, 0x20)\n      swap1\n      0x05\n      mul\n      add\n      0x00\n      swap1\n      swap2\n      swap1\n      swap2\n      swap1\n      swap2\n      pop\n      0x00\n      dup3\n      add\n      mload\n      dup2\n      0x00\n      add\n      sstore\n      0x20\n      dup3\n      add\n      mload\n      dup2\n      0x01\n      add\n      swap1\n      dup1\n      mload\n      swap1\n      0x20\n      add\n      swap1\n      tag_41\n      swap3\n      swap2\n      swap1\n      tag_42\n      jump\t// in\n    tag_41:\n      pop\n      0x40\n      dup3\n      add\n      mload\n      dup2\n      0x02\n      add\n      exp(0x0100, 0x00)\n      dup2\n      sload\n      dup2\n      0xff\n      mul\n      not\n      and\n      swap1\n      dup4\n      iszero\n      iszero\n      mul\n      or\n      swap1\n      sstore\n      pop\n      0x60\n      dup3\n      add\n      mload\n      dup2\n      0x02\n      add\n      exp(0x0100, 0x01)\n      dup2\n      sload\n      dup2\n      0xff\n      mul\n      not\n      and\n      swap1\n      dup4\n      iszero\n      iszero\n      mul\n      or\n      swap1\n      sstore\n      pop\n      0x80\n      dup3\n      add\n      mload\n      dup2\n      0x02\n      add\n      exp(0x0100, 0x02)\n      dup2\n      sload\n      dup2\n      0xff\n      mul\n      not\n      and\n      swap1\n      dup4\n      iszero\n      iszero\n      mul\n      or\n      swap1\n      sstore\n      pop\n      0xa0\n      dup3\n      add\n      mload\n      dup2\n      0x03\n      add\n      sstore\n      0xc0\n      dup3\n      add\n      mload\n      dup2\n      0x04\n      add\n      sstore\n      pop\n      pop\n        /* \"contracts/Hometask.sol\":1376:1444  StudentAdded(newStudent.id, newStudent.fullName, newStudent.regDate) */\n      0xfafb7311fc57ca8a55073f63725e888b4250c799d77ae873970d65ac08c5917a\n        /* \"contracts/Hometask.sol\":1389:1399  newStudent */\n      dup2\n        /* \"contracts/Hometask.sol\":1389:1402  newStudent.id */\n      0x00\n      add\n      mload\n        /* \"contracts/Hometask.sol\":1404:1414  newStudent */\n      dup3\n        /* \"contracts/Hometask.sol\":1404:1423  newStudent.fullName */\n      0x20\n      add\n      mload\n        /* \"contracts/Hometask.sol\":1425:1435  newStudent */\n      dup4\n        /* \"contracts/Hometask.sol\":1425:1443  newStudent.regDate */\n      0xa0\n      add\n      mload\n        /* \"contracts/Hometask.sol\":1376:1444  StudentAdded(newStudent.id, newStudent.fullName, newStudent.regDate) */\n      mload(0x40)\n      tag_43\n      swap4\n      swap3\n      swap2\n      swap1\n      tag_44\n      jump\t// in\n    tag_43:\n      mload(0x40)\n      dup1\n      swap2\n      sub\n      swap1\n      log1\n        /* \"contracts/Hometask.sol\":911:1452  {\r... */\n      pop\n      pop\n        /* \"contracts/Hometask.sol\":782:1452  function addStudent(address _to, string calldata _name, bool _sheetsDone, bool _roomDone, bool _booksDone) public OwnerOnly(_to) {\r... */\n      pop\n      pop\n      pop\n      pop\n      pop\n      pop\n      pop\n      jump\t// out\n    tag_42:\n      dup3\n      dup1\n      sload\n      tag_45\n      swap1\n      tag_46\n      jump\t// in\n    tag_45:\n      swap1\n      0x00\n      mstore\n      keccak256(0x00, 0x20)\n      swap1\n      0x1f\n      add\n      0x20\n      swap1\n      div\n      dup2\n      add\n      swap3\n      dup3\n      tag_48\n      jumpi\n      0x00\n      dup6\n      sstore\n      jump(tag_47)\n    tag_48:\n      dup3\n      0x1f\n      lt\n      tag_49\n      jumpi\n      dup1\n      mload\n      not(0xff)\n      and\n      dup4\n      dup1\n      add\n      or\n      dup6\n      sstore\n      jump(tag_47)\n    tag_49:\n      dup3\n      dup1\n      add\n      0x01\n      add\n      dup6\n      sstore\n      dup3\n      iszero\n      tag_47\n      jumpi\n      swap2\n      dup3\n      add\n    tag_50:\n      dup3\n      dup2\n      gt\n      iszero\n      tag_51\n      jumpi\n      dup3\n      mload\n      dup3\n      sstore\n      swap2\n      0x20\n      add\n      swap2\n      swap1\n      0x01\n      add\n      swap1\n      jump(tag_50)\n    tag_51:\n    tag_47:\n      pop\n      swap1\n      pop\n      tag_52\n      swap2\n      swap1\n      tag_53\n      jump\t// in\n    tag_52:\n      pop\n      swap1\n      jump\t// out\n    tag_53:\n    tag_54:\n      dup1\n      dup3\n      gt\n      iszero\n      tag_55\n      jumpi\n      0x00\n      dup2\n      0x00\n      swap1\n      sstore\n      pop\n      0x01\n      add\n      jump(tag_54)\n    tag_55:\n      pop\n      swap1\n      jump\t// out\n        /* \"#utility.yul\":7:419   */\n    tag_57:\n        /* \"#utility.yul\":85:90   */\n      0x00\n        /* \"#utility.yul\":110:176   */\n      tag_59\n        /* \"#utility.yul\":126:175   */\n      tag_60\n        /* \"#utility.yul\":168:174   */\n      dup5\n        /* \"#utility.yul\":126:175   */\n      tag_61\n      jump\t// in\n    tag_60:\n        /* \"#utility.yul\":110:176   */\n      tag_62\n      jump\t// in\n    tag_59:\n        /* \"#utility.yul\":101:176   */\n      swap1\n      pop\n        /* \"#utility.yul\":199:205   */\n      dup3\n        /* \"#utility.yul\":192:197   */\n      dup2\n        /* \"#utility.yul\":185:206   */\n      mstore\n        /* \"#utility.yul\":237:241   */\n      0x20\n        /* \"#utility.yul\":230:235   */\n      dup2\n        /* \"#utility.yul\":226:242   */\n      add\n        /* \"#utility.yul\":275:278   */\n      dup5\n        /* \"#utility.yul\":266:272   */\n      dup5\n        /* \"#utility.yul\":261:264   */\n      dup5\n        /* \"#utility.yul\":257:273   */\n      add\n        /* \"#utility.yul\":254:279   */\n      gt\n        /* \"#utility.yul\":251:363   */\n      iszero\n      tag_63\n      jumpi\n        /* \"#utility.yul\":282:361   */\n      tag_64\n      tag_65\n      jump\t// in\n    tag_64:\n        /* \"#utility.yul\":251:363   */\n    tag_63:\n        /* \"#utility.yul\":372:413   */\n      tag_66\n        /* \"#utility.yul\":406:412   */\n      dup5\n        /* \"#utility.yul\":401:404   */\n      dup3\n        /* \"#utility.yul\":396:399   */\n      dup6\n        /* \"#utility.yul\":372:413   */\n      tag_67\n      jump\t// in\n    tag_66:\n        /* \"#utility.yul\":91:419   */\n      pop\n        /* \"#utility.yul\":7:419   */\n      swap4\n      swap3\n      pop\n      pop\n      pop\n      jump\t// out\n        /* \"#utility.yul\":425:564   */\n    tag_68:\n        /* \"#utility.yul\":471:476   */\n      0x00\n        /* \"#utility.yul\":509:515   */\n      dup2\n        /* \"#utility.yul\":496:516   */\n      calldataload\n        /* \"#utility.yul\":487:516   */\n      swap1\n      pop\n        /* \"#utility.yul\":525:558   */\n      tag_70\n        /* \"#utility.yul\":552:557   */\n      dup2\n        /* \"#utility.yul\":525:558   */\n      tag_71\n      jump\t// in\n    tag_70:\n        /* \"#utility.yul\":425:564   */\n      swap3\n      swap2\n      pop\n      pop\n      jump\t// out\n        /* \"#utility.yul\":570:703   */\n    tag_72:\n        /* \"#utility.yul\":613:618   */\n      0x00\n        /* \"#utility.yul\":651:657   */\n      dup2\n        /* \"#utility.yul\":638:658   */\n      calldataload\n        /* \"#utility.yul\":629:658   */\n      swap1\n      pop\n        /* \"#utility.yul\":667:697   */\n      tag_74\n        /* \"#utility.yul\":691:696   */\n      dup2\n        /* \"#utility.yul\":667:697   */\n      tag_75\n      jump\t// in\n    tag_74:\n        /* \"#utility.yul\":570:703   */\n      swap3\n      swap2\n      pop\n      pop\n      jump\t// out\n        /* \"#utility.yul\":723:1276   */\n    tag_76:\n        /* \"#utility.yul\":781:789   */\n      0x00\n        /* \"#utility.yul\":791:797   */\n      dup1\n        /* \"#utility.yul\":841:844   */\n      dup4\n        /* \"#utility.yul\":834:838   */\n      0x1f\n        /* \"#utility.yul\":826:832   */\n      dup5\n        /* \"#utility.yul\":822:839   */\n      add\n        /* \"#utility.yul\":818:845   */\n      slt\n        /* \"#utility.yul\":808:930   */\n      tag_78\n      jumpi\n        /* \"#utility.yul\":849:928   */\n      tag_79\n      tag_80\n      jump\t// in\n    tag_79:\n        /* \"#utility.yul\":808:930   */\n    tag_78:\n        /* \"#utility.yul\":962:968   */\n      dup3\n        /* \"#utility.yul\":949:969   */\n      calldataload\n        /* \"#utility.yul\":939:969   */\n      swap1\n      pop\n        /* \"#utility.yul\":992:1010   */\n      0xffffffffffffffff\n        /* \"#utility.yul\":984:990   */\n      dup2\n        /* \"#utility.yul\":981:1011   */\n      gt\n        /* \"#utility.yul\":978:1095   */\n      iszero\n      tag_81\n      jumpi\n        /* \"#utility.yul\":1014:1093   */\n      tag_82\n      tag_83\n      jump\t// in\n    tag_82:\n        /* \"#utility.yul\":978:1095   */\n    tag_81:\n        /* \"#utility.yul\":1128:1132   */\n      0x20\n        /* \"#utility.yul\":1120:1126   */\n      dup4\n        /* \"#utility.yul\":1116:1133   */\n      add\n        /* \"#utility.yul\":1104:1133   */\n      swap2\n      pop\n        /* \"#utility.yul\":1182:1185   */\n      dup4\n        /* \"#utility.yul\":1174:1178   */\n      0x01\n        /* \"#utility.yul\":1166:1172   */\n      dup3\n        /* \"#utility.yul\":1162:1179   */\n      mul\n        /* \"#utility.yul\":1152:1160   */\n      dup4\n        /* \"#utility.yul\":1148:1180   */\n      add\n        /* \"#utility.yul\":1145:1186   */\n      gt\n        /* \"#utility.yul\":1142:1270   */\n      iszero\n      tag_84\n      jumpi\n        /* \"#utility.yul\":1189:1268   */\n      tag_85\n      tag_86\n      jump\t// in\n    tag_85:\n        /* \"#utility.yul\":1142:1270   */\n    tag_84:\n        /* \"#utility.yul\":723:1276   */\n      swap3\n      pop\n      swap3\n      swap1\n      pop\n      jump\t// out\n        /* \"#utility.yul\":1296:1636   */\n    tag_87:\n        /* \"#utility.yul\":1352:1357   */\n      0x00\n        /* \"#utility.yul\":1401:1404   */\n      dup3\n        /* \"#utility.yul\":1394:1398   */\n      0x1f\n        /* \"#utility.yul\":1386:1392   */\n      dup4\n        /* \"#utility.yul\":1382:1399   */\n      add\n        /* \"#utility.yul\":1378:1405   */\n      slt\n        /* \"#utility.yul\":1368:1490   */\n      tag_89\n      jumpi\n        /* \"#utility.yul\":1409:1488   */\n      tag_90\n      tag_80\n      jump\t// in\n    tag_90:\n        /* \"#utility.yul\":1368:1490   */\n    tag_89:\n        /* \"#utility.yul\":1526:1532   */\n      dup2\n        /* \"#utility.yul\":1513:1533   */\n      calldataload\n        /* \"#utility.yul\":1551:1630   */\n      tag_91\n        /* \"#utility.yul\":1626:1629   */\n      dup5\n        /* \"#utility.yul\":1618:1624   */\n      dup3\n        /* \"#utility.yul\":1611:1615   */\n      0x20\n        /* \"#utility.yul\":1603:1609   */\n      dup7\n        /* \"#utility.yul\":1599:1616   */\n      add\n        /* \"#utility.yul\":1551:1630   */\n      tag_57\n      jump\t// in\n    tag_91:\n        /* \"#utility.yul\":1542:1630   */\n      swap2\n      pop\n        /* \"#utility.yul\":1358:1636   */\n      pop\n        /* \"#utility.yul\":1296:1636   */\n      swap3\n      swap2\n      pop\n      pop\n      jump\t// out\n        /* \"#utility.yul\":1679:3248   */\n    tag_92:\n        /* \"#utility.yul\":1751:1756   */\n      0x00\n        /* \"#utility.yul\":1795:1799   */\n      0xe0\n        /* \"#utility.yul\":1783:1792   */\n      dup3\n        /* \"#utility.yul\":1778:1781   */\n      dup5\n        /* \"#utility.yul\":1774:1793   */\n      sub\n        /* \"#utility.yul\":1770:1800   */\n      slt\n        /* \"#utility.yul\":1767:1884   */\n      iszero\n      tag_94\n      jumpi\n        /* \"#utility.yul\":1803:1882   */\n      tag_95\n      tag_96\n      jump\t// in\n    tag_95:\n        /* \"#utility.yul\":1767:1884   */\n    tag_94:\n        /* \"#utility.yul\":1902:1923   */\n      tag_97\n        /* \"#utility.yul\":1918:1922   */\n      0xe0\n        /* \"#utility.yul\":1902:1923   */\n      tag_62\n      jump\t// in\n    tag_97:\n        /* \"#utility.yul\":1893:1923   */\n      swap1\n      pop\n        /* \"#utility.yul\":1980:1981   */\n      0x00\n        /* \"#utility.yul\":2020:2069   */\n      tag_98\n        /* \"#utility.yul\":2065:2068   */\n      dup5\n        /* \"#utility.yul\":2056:2062   */\n      dup3\n        /* \"#utility.yul\":2045:2054   */\n      dup6\n        /* \"#utility.yul\":2041:2063   */\n      add\n        /* \"#utility.yul\":2020:2069   */\n      tag_99\n      jump\t// in\n    tag_98:\n        /* \"#utility.yul\":2013:2017   */\n      0x00\n        /* \"#utility.yul\":2006:2011   */\n      dup4\n        /* \"#utility.yul\":2002:2018   */\n      add\n        /* \"#utility.yul\":1995:2070   */\n      mstore\n        /* \"#utility.yul\":1933:2081   */\n      pop\n        /* \"#utility.yul\":2172:2174   */\n      0x20\n        /* \"#utility.yul\":2161:2170   */\n      dup3\n        /* \"#utility.yul\":2157:2175   */\n      add\n        /* \"#utility.yul\":2144:2176   */\n      calldataload\n        /* \"#utility.yul\":2203:2221   */\n      0xffffffffffffffff\n        /* \"#utility.yul\":2195:2201   */\n      dup2\n        /* \"#utility.yul\":2192:2222   */\n      gt\n        /* \"#utility.yul\":2189:2306   */\n      iszero\n      tag_100\n      jumpi\n        /* \"#utility.yul\":2225:2304   */\n      tag_101\n      tag_102\n      jump\t// in\n    tag_101:\n        /* \"#utility.yul\":2189:2306   */\n    tag_100:\n        /* \"#utility.yul\":2345:2404   */\n      tag_103\n        /* \"#utility.yul\":2400:2403   */\n      dup5\n        /* \"#utility.yul\":2391:2397   */\n      dup3\n        /* \"#utility.yul\":2380:2389   */\n      dup6\n        /* \"#utility.yul\":2376:2398   */\n      add\n        /* \"#utility.yul\":2345:2404   */\n      tag_87\n      jump\t// in\n    tag_103:\n        /* \"#utility.yul\":2338:2342   */\n      0x20\n        /* \"#utility.yul\":2331:2336   */\n      dup4\n        /* \"#utility.yul\":2327:2343   */\n      add\n        /* \"#utility.yul\":2320:2405   */\n      mstore\n        /* \"#utility.yul\":2091:2416   */\n      pop\n        /* \"#utility.yul\":2481:2483   */\n      0x40\n        /* \"#utility.yul\":2522:2568   */\n      tag_104\n        /* \"#utility.yul\":2564:2567   */\n      dup5\n        /* \"#utility.yul\":2555:2561   */\n      dup3\n        /* \"#utility.yul\":2544:2553   */\n      dup6\n        /* \"#utility.yul\":2540:2562   */\n      add\n        /* \"#utility.yul\":2522:2568   */\n      tag_72\n      jump\t// in\n    tag_104:\n        /* \"#utility.yul\":2515:2519   */\n      0x40\n        /* \"#utility.yul\":2508:2513   */\n      dup4\n        /* \"#utility.yul\":2504:2520   */\n      add\n        /* \"#utility.yul\":2497:2569   */\n      mstore\n        /* \"#utility.yul\":2426:2580   */\n      pop\n        /* \"#utility.yul\":2643:2645   */\n      0x60\n        /* \"#utility.yul\":2684:2730   */\n      tag_105\n        /* \"#utility.yul\":2726:2729   */\n      dup5\n        /* \"#utility.yul\":2717:2723   */\n      dup3\n        /* \"#utility.yul\":2706:2715   */\n      dup6\n        /* \"#utility.yul\":2702:2724   */\n      add\n        /* \"#utility.yul\":2684:2730   */\n      tag_72\n      jump\t// in\n    tag_105:\n        /* \"#utility.yul\":2677:2681   */\n      0x60\n        /* \"#utility.yul\":2670:2675   */\n      dup4\n        /* \"#utility.yul\":2666:2682   */\n      add\n        /* \"#utility.yul\":2659:2731   */\n      mstore\n        /* \"#utility.yul\":2590:2742   */\n      pop\n        /* \"#utility.yul\":2806:2809   */\n      0x80\n        /* \"#utility.yul\":2848:2894   */\n      tag_106\n        /* \"#utility.yul\":2890:2893   */\n      dup5\n        /* \"#utility.yul\":2881:2887   */\n      dup3\n        /* \"#utility.yul\":2870:2879   */\n      dup6\n        /* \"#utility.yul\":2866:2888   */\n      add\n        /* \"#utility.yul\":2848:2894   */\n      tag_72\n      jump\t// in\n    tag_106:\n        /* \"#utility.yul\":2841:2845   */\n      0x80\n        /* \"#utility.yul\":2834:2839   */\n      dup4\n        /* \"#utility.yul\":2830:2846   */\n      add\n        /* \"#utility.yul\":2823:2895   */\n      mstore\n        /* \"#utility.yul\":2752:2906   */\n      pop\n        /* \"#utility.yul\":2968:2971   */\n      0xa0\n        /* \"#utility.yul\":3010:3059   */\n      tag_107\n        /* \"#utility.yul\":3055:3058   */\n      dup5\n        /* \"#utility.yul\":3046:3052   */\n      dup3\n        /* \"#utility.yul\":3035:3044   */\n      dup6\n        /* \"#utility.yul\":3031:3053   */\n      add\n        /* \"#utility.yul\":3010:3059   */\n      tag_99\n      jump\t// in\n    tag_107:\n        /* \"#utility.yul\":3003:3007   */\n      0xa0\n        /* \"#utility.yul\":2996:3001   */\n      dup4\n        /* \"#utility.yul\":2992:3008   */\n      add\n        /* \"#utility.yul\":2985:3060   */\n      mstore\n        /* \"#utility.yul\":2916:3071   */\n      pop\n        /* \"#utility.yul\":3138:3141   */\n      0xc0\n        /* \"#utility.yul\":3180:3229   */\n      tag_108\n        /* \"#utility.yul\":3225:3228   */\n      dup5\n        /* \"#utility.yul\":3216:3222   */\n      dup3\n        /* \"#utility.yul\":3205:3214   */\n      dup6\n        /* \"#utility.yul\":3201:3223   */\n      add\n        /* \"#utility.yul\":3180:3229   */\n      tag_99\n      jump\t// in\n    tag_108:\n        /* \"#utility.yul\":3173:3177   */\n      0xc0\n        /* \"#utility.yul\":3166:3171   */\n      dup4\n        /* \"#utility.yul\":3162:3178   */\n      add\n        /* \"#utility.yul\":3155:3230   */\n      mstore\n        /* \"#utility.yul\":3081:3241   */\n      pop\n        /* \"#utility.yul\":1679:3248   */\n      swap3\n      swap2\n      pop\n      pop\n      jump\t// out\n        /* \"#utility.yul\":3254:3393   */\n    tag_99:\n        /* \"#utility.yul\":3300:3305   */\n      0x00\n        /* \"#utility.yul\":3338:3344   */\n      dup2\n        /* \"#utility.yul\":3325:3345   */\n      calldataload\n        /* \"#utility.yul\":3316:3345   */\n      swap1\n      pop\n        /* \"#utility.yul\":3354:3387   */\n      tag_110\n        /* \"#utility.yul\":3381:3386   */\n      dup2\n        /* \"#utility.yul\":3354:3387   */\n      tag_111\n      jump\t// in\n    tag_110:\n        /* \"#utility.yul\":3254:3393   */\n      swap3\n      swap2\n      pop\n      pop\n      jump\t// out\n        /* \"#utility.yul\":3399:4492   */\n    tag_11:\n        /* \"#utility.yul\":3497:3503   */\n      0x00\n        /* \"#utility.yul\":3505:3511   */\n      dup1\n        /* \"#utility.yul\":3513:3519   */\n      0x00\n        /* \"#utility.yul\":3521:3527   */\n      dup1\n        /* \"#utility.yul\":3529:3535   */\n      0x00\n        /* \"#utility.yul\":3537:3543   */\n      dup1\n        /* \"#utility.yul\":3586:3589   */\n      0xa0\n        /* \"#utility.yul\":3574:3583   */\n      dup8\n        /* \"#utility.yul\":3565:3572   */\n      dup10\n        /* \"#utility.yul\":3561:3584   */\n      sub\n        /* \"#utility.yul\":3557:3590   */\n      slt\n        /* \"#utility.yul\":3554:3674   */\n      iszero\n      tag_113\n      jumpi\n        /* \"#utility.yul\":3593:3672   */\n      tag_114\n      tag_115\n      jump\t// in\n    tag_114:\n        /* \"#utility.yul\":3554:3674   */\n    tag_113:\n        /* \"#utility.yul\":3713:3714   */\n      0x00\n        /* \"#utility.yul\":3738:3791   */\n      tag_116\n        /* \"#utility.yul\":3783:3790   */\n      dup10\n        /* \"#utility.yul\":3774:3780   */\n      dup3\n        /* \"#utility.yul\":3763:3772   */\n      dup11\n        /* \"#utility.yul\":3759:3781   */\n      add\n        /* \"#utility.yul\":3738:3791   */\n      tag_68\n      jump\t// in\n    tag_116:\n        /* \"#utility.yul\":3728:3791   */\n      swap7\n      pop\n        /* \"#utility.yul\":3684:3801   */\n      pop\n        /* \"#utility.yul\":3868:3870   */\n      0x20\n        /* \"#utility.yul\":3857:3866   */\n      dup8\n        /* \"#utility.yul\":3853:3871   */\n      add\n        /* \"#utility.yul\":3840:3872   */\n      calldataload\n        /* \"#utility.yul\":3899:3917   */\n      0xffffffffffffffff\n        /* \"#utility.yul\":3891:3897   */\n      dup2\n        /* \"#utility.yul\":3888:3918   */\n      gt\n        /* \"#utility.yul\":3885:4002   */\n      iszero\n      tag_117\n      jumpi\n        /* \"#utility.yul\":3921:4000   */\n      tag_118\n      tag_119\n      jump\t// in\n    tag_118:\n        /* \"#utility.yul\":3885:4002   */\n    tag_117:\n        /* \"#utility.yul\":4034:4099   */\n      tag_120\n        /* \"#utility.yul\":4091:4098   */\n      dup10\n        /* \"#utility.yul\":4082:4088   */\n      dup3\n        /* \"#utility.yul\":4071:4080   */\n      dup11\n        /* \"#utility.yul\":4067:4089   */\n      add\n        /* \"#utility.yul\":4034:4099   */\n      tag_76\n      jump\t// in\n    tag_120:\n        /* \"#utility.yul\":4016:4099   */\n      swap6\n      pop\n      swap6\n      pop\n        /* \"#utility.yul\":3811:4109   */\n      pop\n        /* \"#utility.yul\":4148:4150   */\n      0x40\n        /* \"#utility.yul\":4174:4224   */\n      tag_121\n        /* \"#utility.yul\":4216:4223   */\n      dup10\n        /* \"#utility.yul\":4207:4213   */\n      dup3\n        /* \"#utility.yul\":4196:4205   */\n      dup11\n        /* \"#utility.yul\":4192:4214   */\n      add\n        /* \"#utility.yul\":4174:4224   */\n      tag_72\n      jump\t// in\n    tag_121:\n        /* \"#utility.yul\":4164:4224   */\n      swap4\n      pop\n        /* \"#utility.yul\":4119:4234   */\n      pop\n        /* \"#utility.yul\":4273:4275   */\n      0x60\n        /* \"#utility.yul\":4299:4349   */\n      tag_122\n        /* \"#utility.yul\":4341:4348   */\n      dup10\n        /* \"#utility.yul\":4332:4338   */\n      dup3\n        /* \"#utility.yul\":4321:4330   */\n      dup11\n        /* \"#utility.yul\":4317:4339   */\n      add\n        /* \"#utility.yul\":4299:4349   */\n      tag_72\n      jump\t// in\n    tag_122:\n        /* \"#utility.yul\":4289:4349   */\n      swap3\n      pop\n        /* \"#utility.yul\":4244:4359   */\n      pop\n        /* \"#utility.yul\":4398:4401   */\n      0x80\n        /* \"#utility.yul\":4425:4475   */\n      tag_123\n        /* \"#utility.yul\":4467:4474   */\n      dup10\n        /* \"#utility.yul\":4458:4464   */\n      dup3\n        /* \"#utility.yul\":4447:4456   */\n      dup11\n        /* \"#utility.yul\":4443:4465   */\n      add\n        /* \"#utility.yul\":4425:4475   */\n      tag_72\n      jump\t// in\n    tag_123:\n        /* \"#utility.yul\":4415:4475   */\n      swap2\n      pop\n        /* \"#utility.yul\":4369:4485   */\n      pop\n        /* \"#utility.yul\":3399:4492   */\n      swap3\n      swap6\n      pop\n      swap3\n      swap6\n      pop\n      swap3\n      swap6\n      jump\t// out\n        /* \"#utility.yul\":4498:5033   */\n    tag_7:\n        /* \"#utility.yul\":4580:4586   */\n      0x00\n        /* \"#utility.yul\":4629:4631   */\n      0x20\n        /* \"#utility.yul\":4617:4626   */\n      dup3\n        /* \"#utility.yul\":4608:4615   */\n      dup5\n        /* \"#utility.yul\":4604:4627   */\n      sub\n        /* \"#utility.yul\":4600:4632   */\n      slt\n        /* \"#utility.yul\":4597:4716   */\n      iszero\n      tag_125\n      jumpi\n        /* \"#utility.yul\":4635:4714   */\n      tag_126\n      tag_115\n      jump\t// in\n    tag_126:\n        /* \"#utility.yul\":4597:4716   */\n    tag_125:\n        /* \"#utility.yul\":4783:4784   */\n      0x00\n        /* \"#utility.yul\":4772:4781   */\n      dup3\n        /* \"#utility.yul\":4768:4785   */\n      add\n        /* \"#utility.yul\":4755:4786   */\n      calldataload\n        /* \"#utility.yul\":4813:4831   */\n      0xffffffffffffffff\n        /* \"#utility.yul\":4805:4811   */\n      dup2\n        /* \"#utility.yul\":4802:4832   */\n      gt\n        /* \"#utility.yul\":4799:4916   */\n      iszero\n      tag_127\n      jumpi\n        /* \"#utility.yul\":4835:4914   */\n      tag_128\n      tag_119\n      jump\t// in\n    tag_128:\n        /* \"#utility.yul\":4799:4916   */\n    tag_127:\n        /* \"#utility.yul\":4940:5016   */\n      tag_129\n        /* \"#utility.yul\":5008:5015   */\n      dup5\n        /* \"#utility.yul\":4999:5005   */\n      dup3\n        /* \"#utility.yul\":4988:4997   */\n      dup6\n        /* \"#utility.yul\":4984:5006   */\n      add\n        /* \"#utility.yul\":4940:5016   */\n      tag_92\n      jump\t// in\n    tag_129:\n        /* \"#utility.yul\":4930:5016   */\n      swap2\n      pop\n        /* \"#utility.yul\":4726:5026   */\n      pop\n        /* \"#utility.yul\":4498:5033   */\n      swap3\n      swap2\n      pop\n      pop\n      jump\t// out\n        /* \"#utility.yul\":5039:5403   */\n    tag_130:\n        /* \"#utility.yul\":5127:5130   */\n      0x00\n        /* \"#utility.yul\":5155:5194   */\n      tag_132\n        /* \"#utility.yul\":5188:5193   */\n      dup3\n        /* \"#utility.yul\":5155:5194   */\n      tag_133\n      jump\t// in\n    tag_132:\n        /* \"#utility.yul\":5210:5281   */\n      tag_134\n        /* \"#utility.yul\":5274:5280   */\n      dup2\n        /* \"#utility.yul\":5269:5272   */\n      dup6\n        /* \"#utility.yul\":5210:5281   */\n      tag_135\n      jump\t// in\n    tag_134:\n        /* \"#utility.yul\":5203:5281   */\n      swap4\n      pop\n        /* \"#utility.yul\":5290:5342   */\n      tag_136\n        /* \"#utility.yul\":5335:5341   */\n      dup2\n        /* \"#utility.yul\":5330:5333   */\n      dup6\n        /* \"#utility.yul\":5323:5327   */\n      0x20\n        /* \"#utility.yul\":5316:5321   */\n      dup7\n        /* \"#utility.yul\":5312:5328   */\n      add\n        /* \"#utility.yul\":5290:5342   */\n      tag_137\n      jump\t// in\n    tag_136:\n        /* \"#utility.yul\":5367:5396   */\n      tag_138\n        /* \"#utility.yul\":5389:5395   */\n      dup2\n        /* \"#utility.yul\":5367:5396   */\n      tag_139\n      jump\t// in\n    tag_138:\n        /* \"#utility.yul\":5362:5365   */\n      dup5\n        /* \"#utility.yul\":5358:5397   */\n      add\n        /* \"#utility.yul\":5351:5397   */\n      swap2\n      pop\n        /* \"#utility.yul\":5131:5403   */\n      pop\n        /* \"#utility.yul\":5039:5403   */\n      swap3\n      swap2\n      pop\n      pop\n      jump\t// out\n        /* \"#utility.yul\":5409:5775   */\n    tag_140:\n        /* \"#utility.yul\":5551:5554   */\n      0x00\n        /* \"#utility.yul\":5572:5639   */\n      tag_142\n        /* \"#utility.yul\":5636:5638   */\n      0x16\n        /* \"#utility.yul\":5631:5634   */\n      dup4\n        /* \"#utility.yul\":5572:5639   */\n      tag_135\n      jump\t// in\n    tag_142:\n        /* \"#utility.yul\":5565:5639   */\n      swap2\n      pop\n        /* \"#utility.yul\":5648:5741   */\n      tag_143\n        /* \"#utility.yul\":5737:5740   */\n      dup3\n        /* \"#utility.yul\":5648:5741   */\n      tag_144\n      jump\t// in\n    tag_143:\n        /* \"#utility.yul\":5766:5768   */\n      0x20\n        /* \"#utility.yul\":5761:5764   */\n      dup3\n        /* \"#utility.yul\":5757:5769   */\n      add\n        /* \"#utility.yul\":5750:5769   */\n      swap1\n      pop\n        /* \"#utility.yul\":5409:5775   */\n      swap2\n      swap1\n      pop\n      jump\t// out\n        /* \"#utility.yul\":5781:6147   */\n    tag_145:\n        /* \"#utility.yul\":5923:5926   */\n      0x00\n        /* \"#utility.yul\":5944:6011   */\n      tag_147\n        /* \"#utility.yul\":6008:6010   */\n      0x12\n        /* \"#utility.yul\":6003:6006   */\n      dup4\n        /* \"#utility.yul\":5944:6011   */\n      tag_135\n      jump\t// in\n    tag_147:\n        /* \"#utility.yul\":5937:6011   */\n      swap2\n      pop\n        /* \"#utility.yul\":6020:6113   */\n      tag_148\n        /* \"#utility.yul\":6109:6112   */\n      dup3\n        /* \"#utility.yul\":6020:6113   */\n      tag_149\n      jump\t// in\n    tag_148:\n        /* \"#utility.yul\":6138:6140   */\n      0x20\n        /* \"#utility.yul\":6133:6136   */\n      dup3\n        /* \"#utility.yul\":6129:6141   */\n      add\n        /* \"#utility.yul\":6122:6141   */\n      swap1\n      pop\n        /* \"#utility.yul\":5781:6147   */\n      swap2\n      swap1\n      pop\n      jump\t// out\n        /* \"#utility.yul\":6153:6271   */\n    tag_150:\n        /* \"#utility.yul\":6240:6264   */\n      tag_152\n        /* \"#utility.yul\":6258:6263   */\n      dup2\n        /* \"#utility.yul\":6240:6264   */\n      tag_153\n      jump\t// in\n    tag_152:\n        /* \"#utility.yul\":6235:6238   */\n      dup3\n        /* \"#utility.yul\":6228:6265   */\n      mstore\n        /* \"#utility.yul\":6153:6271   */\n      pop\n      pop\n      jump\t// out\n        /* \"#utility.yul\":6277:6590   */\n    tag_16:\n        /* \"#utility.yul\":6390:6394   */\n      0x00\n        /* \"#utility.yul\":6428:6430   */\n      0x20\n        /* \"#utility.yul\":6417:6426   */\n      dup3\n        /* \"#utility.yul\":6413:6431   */\n      add\n        /* \"#utility.yul\":6405:6431   */\n      swap1\n      pop\n        /* \"#utility.yul\":6477:6486   */\n      dup2\n        /* \"#utility.yul\":6471:6475   */\n      dup2\n        /* \"#utility.yul\":6467:6487   */\n      sub\n        /* \"#utility.yul\":6463:6464   */\n      0x00\n        /* \"#utility.yul\":6452:6461   */\n      dup4\n        /* \"#utility.yul\":6448:6465   */\n      add\n        /* \"#utility.yul\":6441:6488   */\n      mstore\n        /* \"#utility.yul\":6505:6583   */\n      tag_155\n        /* \"#utility.yul\":6578:6582   */\n      dup2\n        /* \"#utility.yul\":6569:6575   */\n      dup5\n        /* \"#utility.yul\":6505:6583   */\n      tag_130\n      jump\t// in\n    tag_155:\n        /* \"#utility.yul\":6497:6583   */\n      swap1\n      pop\n        /* \"#utility.yul\":6277:6590   */\n      swap3\n      swap2\n      pop\n      pop\n      jump\t// out\n        /* \"#utility.yul\":6596:7019   */\n    tag_26:\n        /* \"#utility.yul\":6737:6741   */\n      0x00\n        /* \"#utility.yul\":6775:6777   */\n      0x40\n        /* \"#utility.yul\":6764:6773   */\n      dup3\n        /* \"#utility.yul\":6760:6778   */\n      add\n        /* \"#utility.yul\":6752:6778   */\n      swap1\n      pop\n        /* \"#utility.yul\":6824:6833   */\n      dup2\n        /* \"#utility.yul\":6818:6822   */\n      dup2\n        /* \"#utility.yul\":6814:6834   */\n      sub\n        /* \"#utility.yul\":6810:6811   */\n      0x00\n        /* \"#utility.yul\":6799:6808   */\n      dup4\n        /* \"#utility.yul\":6795:6812   */\n      add\n        /* \"#utility.yul\":6788:6835   */\n      mstore\n        /* \"#utility.yul\":6852:6930   */\n      tag_157\n        /* \"#utility.yul\":6925:6929   */\n      dup2\n        /* \"#utility.yul\":6916:6922   */\n      dup6\n        /* \"#utility.yul\":6852:6930   */\n      tag_130\n      jump\t// in\n    tag_157:\n        /* \"#utility.yul\":6844:6930   */\n      swap1\n      pop\n        /* \"#utility.yul\":6940:7012   */\n      tag_158\n        /* \"#utility.yul\":7008:7010   */\n      0x20\n        /* \"#utility.yul\":6997:7006   */\n      dup4\n        /* \"#utility.yul\":6993:7011   */\n      add\n        /* \"#utility.yul\":6984:6990   */\n      dup5\n        /* \"#utility.yul\":6940:7012   */\n      tag_150\n      jump\t// in\n    tag_158:\n        /* \"#utility.yul\":6596:7019   */\n      swap4\n      swap3\n      pop\n      pop\n      pop\n      jump\t// out\n        /* \"#utility.yul\":7025:7444   */\n    tag_30:\n        /* \"#utility.yul\":7191:7195   */\n      0x00\n        /* \"#utility.yul\":7229:7231   */\n      0x20\n        /* \"#utility.yul\":7218:7227   */\n      dup3\n        /* \"#utility.yul\":7214:7232   */\n      add\n        /* \"#utility.yul\":7206:7232   */\n      swap1\n      pop\n        /* \"#utility.yul\":7278:7287   */\n      dup2\n        /* \"#utility.yul\":7272:7276   */\n      dup2\n        /* \"#utility.yul\":7268:7288   */\n      sub\n        /* \"#utility.yul\":7264:7265   */\n      0x00\n        /* \"#utility.yul\":7253:7262   */\n      dup4\n        /* \"#utility.yul\":7249:7266   */\n      add\n        /* \"#utility.yul\":7242:7289   */\n      mstore\n        /* \"#utility.yul\":7306:7437   */\n      tag_160\n        /* \"#utility.yul\":7432:7436   */\n      dup2\n        /* \"#utility.yul\":7306:7437   */\n      tag_140\n      jump\t// in\n    tag_160:\n        /* \"#utility.yul\":7298:7437   */\n      swap1\n      pop\n        /* \"#utility.yul\":7025:7444   */\n      swap2\n      swap1\n      pop\n      jump\t// out\n        /* \"#utility.yul\":7450:7869   */\n    tag_33:\n        /* \"#utility.yul\":7616:7620   */\n      0x00\n        /* \"#utility.yul\":7654:7656   */\n      0x20\n        /* \"#utility.yul\":7643:7652   */\n      dup3\n        /* \"#utility.yul\":7639:7657   */\n      add\n        /* \"#utility.yul\":7631:7657   */\n      swap1\n      pop\n        /* \"#utility.yul\":7703:7712   */\n      dup2\n        /* \"#utility.yul\":7697:7701   */\n      dup2\n        /* \"#utility.yul\":7693:7713   */\n      sub\n        /* \"#utility.yul\":7689:7690   */\n      0x00\n        /* \"#utility.yul\":7678:7687   */\n      dup4\n        /* \"#utility.yul\":7674:7691   */\n      add\n        /* \"#utility.yul\":7667:7714   */\n      mstore\n        /* \"#utility.yul\":7731:7862   */\n      tag_162\n        /* \"#utility.yul\":7857:7861   */\n      dup2\n        /* \"#utility.yul\":7731:7862   */\n      tag_145\n      jump\t// in\n    tag_162:\n        /* \"#utility.yul\":7723:7862   */\n      swap1\n      pop\n        /* \"#utility.yul\":7450:7869   */\n      swap2\n      swap1\n      pop\n      jump\t// out\n        /* \"#utility.yul\":7875:8408   */\n    tag_44:\n        /* \"#utility.yul\":8044:8048   */\n      0x00\n        /* \"#utility.yul\":8082:8084   */\n      0x60\n        /* \"#utility.yul\":8071:8080   */\n      dup3\n        /* \"#utility.yul\":8067:8085   */\n      add\n        /* \"#utility.yul\":8059:8085   */\n      swap1\n      pop\n        /* \"#utility.yul\":8095:8166   */\n      tag_164\n        /* \"#utility.yul\":8163:8164   */\n      0x00\n        /* \"#utility.yul\":8152:8161   */\n      dup4\n        /* \"#utility.yul\":8148:8165   */\n      add\n        /* \"#utility.yul\":8139:8145   */\n      dup7\n        /* \"#utility.yul\":8095:8166   */\n      tag_150\n      jump\t// in\n    tag_164:\n        /* \"#utility.yul\":8213:8222   */\n      dup2\n        /* \"#utility.yul\":8207:8211   */\n      dup2\n        /* \"#utility.yul\":8203:8223   */\n      sub\n        /* \"#utility.yul\":8198:8200   */\n      0x20\n        /* \"#utility.yul\":8187:8196   */\n      dup4\n        /* \"#utility.yul\":8183:8201   */\n      add\n        /* \"#utility.yul\":8176:8224   */\n      mstore\n        /* \"#utility.yul\":8241:8319   */\n      tag_165\n        /* \"#utility.yul\":8314:8318   */\n      dup2\n        /* \"#utility.yul\":8305:8311   */\n      dup6\n        /* \"#utility.yul\":8241:8319   */\n      tag_130\n      jump\t// in\n    tag_165:\n        /* \"#utility.yul\":8233:8319   */\n      swap1\n      pop\n        /* \"#utility.yul\":8329:8401   */\n      tag_166\n        /* \"#utility.yul\":8397:8399   */\n      0x40\n        /* \"#utility.yul\":8386:8395   */\n      dup4\n        /* \"#utility.yul\":8382:8400   */\n      add\n        /* \"#utility.yul\":8373:8379   */\n      dup5\n        /* \"#utility.yul\":8329:8401   */\n      tag_150\n      jump\t// in\n    tag_166:\n        /* \"#utility.yul\":7875:8408   */\n      swap5\n      swap4\n      pop\n      pop\n      pop\n      pop\n      jump\t// out\n        /* \"#utility.yul\":8414:8543   */\n    tag_62:\n        /* \"#utility.yul\":8448:8454   */\n      0x00\n        /* \"#utility.yul\":8475:8495   */\n      tag_168\n      tag_169\n      jump\t// in\n    tag_168:\n        /* \"#utility.yul\":8465:8495   */\n      swap1\n      pop\n        /* \"#utility.yul\":8504:8537   */\n      tag_170\n        /* \"#utility.yul\":8532:8536   */\n      dup3\n        /* \"#utility.yul\":8524:8530   */\n      dup3\n        /* \"#utility.yul\":8504:8537   */\n      tag_171\n      jump\t// in\n    tag_170:\n        /* \"#utility.yul\":8414:8543   */\n      swap2\n      swap1\n      pop\n      jump\t// out\n        /* \"#utility.yul\":8549:8624   */\n    tag_169:\n        /* \"#utility.yul\":8582:8588   */\n      0x00\n        /* \"#utility.yul\":8615:8617   */\n      0x40\n        /* \"#utility.yul\":8609:8618   */\n      mload\n        /* \"#utility.yul\":8599:8618   */\n      swap1\n      pop\n        /* \"#utility.yul\":8549:8624   */\n      swap1\n      jump\t// out\n        /* \"#utility.yul\":8630:8938   */\n    tag_61:\n        /* \"#utility.yul\":8692:8696   */\n      0x00\n        /* \"#utility.yul\":8782:8800   */\n      0xffffffffffffffff\n        /* \"#utility.yul\":8774:8780   */\n      dup3\n        /* \"#utility.yul\":8771:8801   */\n      gt\n        /* \"#utility.yul\":8768:8824   */\n      iszero\n      tag_174\n      jumpi\n        /* \"#utility.yul\":8804:8822   */\n      tag_175\n      tag_176\n      jump\t// in\n    tag_175:\n        /* \"#utility.yul\":8768:8824   */\n    tag_174:\n        /* \"#utility.yul\":8842:8871   */\n      tag_177\n        /* \"#utility.yul\":8864:8870   */\n      dup3\n        /* \"#utility.yul\":8842:8871   */\n      tag_139\n      jump\t// in\n    tag_177:\n        /* \"#utility.yul\":8834:8871   */\n      swap1\n      pop\n        /* \"#utility.yul\":8926:8930   */\n      0x20\n        /* \"#utility.yul\":8920:8924   */\n      dup2\n        /* \"#utility.yul\":8916:8931   */\n      add\n        /* \"#utility.yul\":8908:8931   */\n      swap1\n      pop\n        /* \"#utility.yul\":8630:8938   */\n      swap2\n      swap1\n      pop\n      jump\t// out\n        /* \"#utility.yul\":8944:9043   */\n    tag_133:\n        /* \"#utility.yul\":8996:9002   */\n      0x00\n        /* \"#utility.yul\":9030:9035   */\n      dup2\n        /* \"#utility.yul\":9024:9036   */\n      mload\n        /* \"#utility.yul\":9014:9036   */\n      swap1\n      pop\n        /* \"#utility.yul\":8944:9043   */\n      swap2\n      swap1\n      pop\n      jump\t// out\n        /* \"#utility.yul\":9049:9218   */\n    tag_135:\n        /* \"#utility.yul\":9133:9144   */\n      0x00\n        /* \"#utility.yul\":9167:9173   */\n      dup3\n        /* \"#utility.yul\":9162:9165   */\n      dup3\n        /* \"#utility.yul\":9155:9174   */\n      mstore\n        /* \"#utility.yul\":9207:9211   */\n      0x20\n        /* \"#utility.yul\":9202:9205   */\n      dup3\n        /* \"#utility.yul\":9198:9212   */\n      add\n        /* \"#utility.yul\":9183:9212   */\n      swap1\n      pop\n        /* \"#utility.yul\":9049:9218   */\n      swap3\n      swap2\n      pop\n      pop\n      jump\t// out\n        /* \"#utility.yul\":9224:9529   */\n    tag_22:\n        /* \"#utility.yul\":9264:9267   */\n      0x00\n        /* \"#utility.yul\":9283:9303   */\n      tag_181\n        /* \"#utility.yul\":9301:9302   */\n      dup3\n        /* \"#utility.yul\":9283:9303   */\n      tag_153\n      jump\t// in\n    tag_181:\n        /* \"#utility.yul\":9278:9303   */\n      swap2\n      pop\n        /* \"#utility.yul\":9317:9337   */\n      tag_182\n        /* \"#utility.yul\":9335:9336   */\n      dup4\n        /* \"#utility.yul\":9317:9337   */\n      tag_153\n      jump\t// in\n    tag_182:\n        /* \"#utility.yul\":9312:9337   */\n      swap3\n      pop\n        /* \"#utility.yul\":9471:9472   */\n      dup3\n        /* \"#utility.yul\":9403:9469   */\n      0xffffffffffffffffffffffffffffffffffffffffffffffffffffffffffffffff\n        /* \"#utility.yul\":9399:9473   */\n      sub\n        /* \"#utility.yul\":9396:9397   */\n      dup3\n        /* \"#utility.yul\":9393:9474   */\n      gt\n        /* \"#utility.yul\":9390:9497   */\n      iszero\n      tag_183\n      jumpi\n        /* \"#utility.yul\":9477:9495   */\n      tag_184\n      tag_185\n      jump\t// in\n    tag_184:\n        /* \"#utility.yul\":9390:9497   */\n    tag_183:\n        /* \"#utility.yul\":9521:9522   */\n      dup3\n        /* \"#utility.yul\":9518:9519   */\n      dup3\n        /* \"#utility.yul\":9514:9523   */\n      add\n        /* \"#utility.yul\":9507:9523   */\n      swap1\n      pop\n        /* \"#utility.yul\":9224:9529   */\n      swap3\n      swap2\n      pop\n      pop\n      jump\t// out\n        /* \"#utility.yul\":9535:9726   */\n    tag_37:\n        /* \"#utility.yul\":9575:9579   */\n      0x00\n        /* \"#utility.yul\":9595:9615   */\n      tag_187\n        /* \"#utility.yul\":9613:9614   */\n      dup3\n        /* \"#utility.yul\":9595:9615   */\n      tag_153\n      jump\t// in\n    tag_187:\n        /* \"#utility.yul\":9590:9615   */\n      swap2\n      pop\n        /* \"#utility.yul\":9629:9649   */\n      tag_188\n        /* \"#utility.yul\":9647:9648   */\n      dup4\n        /* \"#utility.yul\":9629:9649   */\n      tag_153\n      jump\t// in\n    tag_188:\n        /* \"#utility.yul\":9624:9649   */\n      swap3\n      pop\n        /* \"#utility.yul\":9668:9669   */\n      dup3\n        /* \"#utility.yul\":9665:9666   */\n      dup3\n        /* \"#utility.yul\":9662:9670   */\n      lt\n        /* \"#utility.yul\":9659:9693   */\n      iszero\n      tag_189\n      jumpi\n        /* \"#utility.yul\":9673:9691   */\n      tag_190\n      tag_185\n      jump\t// in\n    tag_190:\n        /* \"#utility.yul\":9659:9693   */\n    tag_189:\n        /* \"#utility.yul\":9718:9719   */\n      dup3\n        /* \"#utility.yul\":9715:9716   */\n      dup3\n        /* \"#utility.yul\":9711:9720   */\n      sub\n        /* \"#utility.yul\":9703:9720   */\n      swap1\n      pop\n        /* \"#utility.yul\":9535:9726   */\n      swap3\n      swap2\n      pop\n      pop\n      jump\t// out\n        /* \"#utility.yul\":9732:9828   */\n    tag_191:\n        /* \"#utility.yul\":9769:9776   */\n      0x00\n        /* \"#utility.yul\":9798:9822   */\n      tag_193\n        /* \"#utility.yul\":9816:9821   */\n      dup3\n        /* \"#utility.yul\":9798:9822   */\n      tag_194\n      jump\t// in\n    tag_193:\n        /* \"#utility.yul\":9787:9822   */\n      swap1\n      pop\n        /* \"#utility.yul\":9732:9828   */\n      swap2\n      swap1\n      pop\n      jump\t// out\n        /* \"#utility.yul\":9834:9924   */\n    tag_195:\n        /* \"#utility.yul\":9868:9875   */\n      0x00\n        /* \"#utility.yul\":9911:9916   */\n      dup2\n        /* \"#utility.yul\":9904:9917   */\n      iszero\n        /* \"#utility.yul\":9897:9918   */\n      iszero\n        /* \"#utility.yul\":9886:9918   */\n      swap1\n      pop\n        /* \"#utility.yul\":9834:9924   */\n      swap2\n      swap1\n      pop\n      jump\t// out\n        /* \"#utility.yul\":9930:10056   */\n    tag_194:\n        /* \"#utility.yul\":9967:9974   */\n      0x00\n        /* \"#utility.yul\":10007:10049   */\n      0xffffffffffffffffffffffffffffffffffffffff\n        /* \"#utility.yul\":10000:10005   */\n      dup3\n        /* \"#utility.yul\":9996:10050   */\n      and\n        /* \"#utility.yul\":9985:10050   */\n      swap1\n      pop\n        /* \"#utility.yul\":9930:10056   */\n      swap2\n      swap1\n      pop\n      jump\t// out\n        /* \"#utility.yul\":10062:10139   */\n    tag_153:\n        /* \"#utility.yul\":10099:10106   */\n      0x00\n        /* \"#utility.yul\":10128:10133   */\n      dup2\n        /* \"#utility.yul\":10117:10133   */\n      swap1\n      pop\n        /* \"#utility.yul\":10062:10139   */\n      swap2\n      swap1\n      pop\n      jump\t// out\n        /* \"#utility.yul\":10145:10299   */\n    tag_67:\n        /* \"#utility.yul\":10229:10235   */\n      dup3\n        /* \"#utility.yul\":10224:10227   */\n      dup2\n        /* \"#utility.yul\":10219:10222   */\n      dup4\n        /* \"#utility.yul\":10206:10236   */\n      calldatacopy\n        /* \"#utility.yul\":10291:10292   */\n      0x00\n        /* \"#utility.yul\":10282:10288   */\n      dup4\n        /* \"#utility.yul\":10277:10280   */\n      dup4\n        /* \"#utility.yul\":10273:10289   */\n      add\n        /* \"#utility.yul\":10266:10293   */\n      mstore\n        /* \"#utility.yul\":10145:10299   */\n      pop\n      pop\n      pop\n      jump\t// out\n        /* \"#utility.yul\":10305:10612   */\n    tag_137:\n        /* \"#utility.yul\":10373:10374   */\n      0x00\n        /* \"#utility.yul\":10383:10496   */\n    tag_201:\n        /* \"#utility.yul\":10397:10403   */\n      dup4\n        /* \"#utility.yul\":10394:10395   */\n      dup2\n        /* \"#utility.yul\":10391:10404   */\n      lt\n        /* \"#utility.yul\":10383:10496   */\n      iszero\n      tag_203\n      jumpi\n        /* \"#utility.yul\":10482:10483   */\n      dup1\n        /* \"#utility.yul\":10477:10480   */\n      dup3\n        /* \"#utility.yul\":10473:10484   */\n      add\n        /* \"#utility.yul\":10467:10485   */\n      mload\n        /* \"#utility.yul\":10463:10464   */\n      dup2\n        /* \"#utility.yul\":10458:10461   */\n      dup5\n        /* \"#utility.yul\":10454:10465   */\n      add\n        /* \"#utility.yul\":10447:10486   */\n      mstore\n        /* \"#utility.yul\":10419:10421   */\n      0x20\n        /* \"#utility.yul\":10416:10417   */\n      dup2\n        /* \"#utility.yul\":10412:10422   */\n      add\n        /* \"#utility.yul\":10407:10422   */\n      swap1\n      pop\n        /* \"#utility.yul\":10383:10496   */\n      jump(tag_201)\n    tag_203:\n        /* \"#utility.yul\":10514:10520   */\n      dup4\n        /* \"#utility.yul\":10511:10512   */\n      dup2\n        /* \"#utility.yul\":10508:10521   */\n      gt\n        /* \"#utility.yul\":10505:10606   */\n      iszero\n      tag_204\n      jumpi\n        /* \"#utility.yul\":10594:10595   */\n      0x00\n        /* \"#utility.yul\":10585:10591   */\n      dup5\n        /* \"#utility.yul\":10580:10583   */\n      dup5\n        /* \"#utility.yul\":10576:10592   */\n      add\n        /* \"#utility.yul\":10569:10596   */\n      mstore\n        /* \"#utility.yul\":10505:10606   */\n    tag_204:\n        /* \"#utility.yul\":10354:10612   */\n      pop\n        /* \"#utility.yul\":10305:10612   */\n      pop\n      pop\n      pop\n      jump\t// out\n        /* \"#utility.yul\":10618:10938   */\n    tag_46:\n        /* \"#utility.yul\":10662:10668   */\n      0x00\n        /* \"#utility.yul\":10699:10700   */\n      0x02\n        /* \"#utility.yul\":10693:10697   */\n      dup3\n        /* \"#utility.yul\":10689:10701   */\n      div\n        /* \"#utility.yul\":10679:10701   */\n      swap1\n      pop\n        /* \"#utility.yul\":10746:10747   */\n      0x01\n        /* \"#utility.yul\":10740:10744   */\n      dup3\n        /* \"#utility.yul\":10736:10748   */\n      and\n        /* \"#utility.yul\":10767:10785   */\n      dup1\n        /* \"#utility.yul\":10757:10838   */\n      tag_206\n      jumpi\n        /* \"#utility.yul\":10823:10827   */\n      0x7f\n        /* \"#utility.yul\":10815:10821   */\n      dup3\n        /* \"#utility.yul\":10811:10828   */\n      and\n        /* \"#utility.yul\":10801:10828   */\n      swap2\n      pop\n        /* \"#utility.yul\":10757:10838   */\n    tag_206:\n        /* \"#utility.yul\":10885:10887   */\n      0x20\n        /* \"#utility.yul\":10877:10883   */\n      dup3\n        /* \"#utility.yul\":10874:10888   */\n      lt\n        /* \"#utility.yul\":10854:10872   */\n      dup2\n        /* \"#utility.yul\":10851:10889   */\n      eq\n        /* \"#utility.yul\":10848:10932   */\n      iszero\n      tag_207\n      jumpi\n        /* \"#utility.yul\":10904:10922   */\n      tag_208\n      tag_209\n      jump\t// in\n    tag_208:\n        /* \"#utility.yul\":10848:10932   */\n    tag_207:\n        /* \"#utility.yul\":10669:10938   */\n      pop\n        /* \"#utility.yul\":10618:10938   */\n      swap2\n      swap1\n      pop\n      jump\t// out\n        /* \"#utility.yul\":10944:11225   */\n    tag_171:\n        /* \"#utility.yul\":11027:11054   */\n      tag_211\n        /* \"#utility.yul\":11049:11053   */\n      dup3\n        /* \"#utility.yul\":11027:11054   */\n      tag_139\n      jump\t// in\n    tag_211:\n        /* \"#utility.yul\":11019:11025   */\n      dup2\n        /* \"#utility.yul\":11015:11055   */\n      add\n        /* \"#utility.yul\":11157:11163   */\n      dup2\n        /* \"#utility.yul\":11145:11155   */\n      dup2\n        /* \"#utility.yul\":11142:11164   */\n      lt\n        /* \"#utility.yul\":11121:11139   */\n      0xffffffffffffffff\n        /* \"#utility.yul\":11109:11119   */\n      dup3\n        /* \"#utility.yul\":11106:11140   */\n      gt\n        /* \"#utility.yul\":11103:11165   */\n      or\n        /* \"#utility.yul\":11100:11188   */\n      iszero\n      tag_212\n      jumpi\n        /* \"#utility.yul\":11168:11186   */\n      tag_213\n      tag_176\n      jump\t// in\n    tag_213:\n        /* \"#utility.yul\":11100:11188   */\n    tag_212:\n        /* \"#utility.yul\":11208:11218   */\n      dup1\n        /* \"#utility.yul\":11204:11206   */\n      0x40\n        /* \"#utility.yul\":11197:11219   */\n      mstore\n        /* \"#utility.yul\":10987:11225   */\n      pop\n        /* \"#utility.yul\":10944:11225   */\n      pop\n      pop\n      jump\t// out\n        /* \"#utility.yul\":11231:11411   */\n    tag_185:\n        /* \"#utility.yul\":11279:11356   */\n      0x4e487b7100000000000000000000000000000000000000000000000000000000\n        /* \"#utility.yul\":11276:11277   */\n      0x00\n        /* \"#utility.yul\":11269:11357   */\n      mstore\n        /* \"#utility.yul\":11376:11380   */\n      0x11\n        /* \"#utility.yul\":11373:11374   */\n      0x04\n        /* \"#utility.yul\":11366:11381   */\n      mstore\n        /* \"#utility.yul\":11400:11404   */\n      0x24\n        /* \"#utility.yul\":11397:11398   */\n      0x00\n        /* \"#utility.yul\":11390:11405   */\n      revert\n        /* \"#utility.yul\":11417:11597   */\n    tag_209:\n        /* \"#utility.yul\":11465:11542   */\n      0x4e487b7100000000000000000000000000000000000000000000000000000000\n        /* \"#utility.yul\":11462:11463   */\n      0x00\n        /* \"#utility.yul\":11455:11543   */\n      mstore\n        /* \"#utility.yul\":11562:11566   */\n      0x22\n        /* \"#utility.yul\":11559:11560   */\n      0x04\n        /* \"#utility.yul\":11552:11567   */\n      mstore\n        /* \"#utility.yul\":11586:11590   */\n      0x24\n        /* \"#utility.yul\":11583:11584   */\n      0x00\n        /* \"#utility.yul\":11576:11591   */\n      revert\n        /* \"#utility.yul\":11603:11783   */\n    tag_176:\n        /* \"#utility.yul\":11651:11728   */\n      0x4e487b7100000000000000000000000000000000000000000000000000000000\n        /* \"#utility.yul\":11648:11649   */\n      0x00\n        /* \"#utility.yul\":11641:11729   */\n      mstore\n        /* \"#utility.yul\":11748:11752   */\n      0x41\n        /* \"#utility.yul\":11745:11746   */\n      0x04\n        /* \"#utility.yul\":11738:11753   */\n      mstore\n        /* \"#utility.yul\":11772:11776   */\n      0x24\n        /* \"#utility.yul\":11769:11770   */\n      0x00\n        /* \"#utility.yul\":11762:11777   */\n      revert\n        /* \"#utility.yul\":11789:11906   */\n    tag_83:\n        /* \"#utility.yul\":11898:11899   */\n      0x00\n        /* \"#utility.yul\":11895:11896   */\n      dup1\n        /* \"#utility.yul\":11888:11900   */\n      revert\n        /* \"#utility.yul\":11912:12029   */\n    tag_80:\n        /* \"#utility.yul\":12021:12022   */\n      0x00\n        /* \"#utility.yul\":12018:12019   */\n      dup1\n        /* \"#utility.yul\":12011:12023   */\n      revert\n        /* \"#utility.yul\":12035:12152   */\n    tag_96:\n        /* \"#utility.yul\":12144:12145   */\n      0x00\n        /* \"#utility.yul\":12141:12142   */\n      dup1\n        /* \"#utility.yul\":12134:12146   */\n      revert\n        /* \"#utility.yul\":12158:12275   */\n    tag_102:\n        /* \"#utility.yul\":12267:12268   */\n      0x00\n        /* \"#utility.yul\":12264:12265   */\n      dup1\n        /* \"#utility.yul\":12257:12269   */\n      revert\n        /* \"#utility.yul\":12281:12398   */\n    tag_86:\n        /* \"#utility.yul\":12390:12391   */\n      0x00\n        /* \"#utility.yul\":12387:12388   */\n      dup1\n        /* \"#utility.yul\":12380:12392   */\n      revert\n        /* \"#utility.yul\":12404:12521   */\n    tag_65:\n        /* \"#utility.yul\":12513:12514   */\n      0x00\n        /* \"#utility.yul\":12510:12511   */\n      dup1\n        /* \"#utility.yul\":12503:12515   */\n      revert\n        /* \"#utility.yul\":12527:12644   */\n    tag_119:\n        /* \"#utility.yul\":12636:12637   */\n      0x00\n        /* \"#utility.yul\":12633:12634   */\n      dup1\n        /* \"#utility.yul\":12626:12638   */\n      revert\n        /* \"#utility.yul\":12650:12767   */\n    tag_115:\n        /* \"#utility.yul\":12759:12760   */\n      0x00\n        /* \"#utility.yul\":12756:12757   */\n      dup1\n        /* \"#utility.yul\":12749:12761   */\n      revert\n        /* \"#utility.yul\":12773:12875   */\n    tag_139:\n        /* \"#utility.yul\":12814:12820   */\n      0x00\n        /* \"#utility.yul\":12865:12867   */\n      0x1f\n        /* \"#utility.yul\":12861:12868   */\n      not\n        /* \"#utility.yul\":12856:12858   */\n      0x1f\n        /* \"#utility.yul\":12849:12854   */\n      dup4\n        /* \"#utility.yul\":12845:12859   */\n      add\n        /* \"#utility.yul\":12841:12869   */\n      and\n        /* \"#utility.yul\":12831:12869   */\n      swap1\n      pop\n        /* \"#utility.yul\":12773:12875   */\n      swap2\n      swap1\n      pop\n      jump\t// out\n        /* \"#utility.yul\":12881:13053   */\n    tag_144:\n        /* \"#utility.yul\":13021:13045   */\n      0x596f7520617265206e6f7420746865206f776e65722e00000000000000000000\n        /* \"#utility.yul\":13017:13018   */\n      0x00\n        /* \"#utility.yul\":13009:13015   */\n      dup3\n        /* \"#utility.yul\":13005:13019   */\n      add\n        /* \"#utility.yul\":12998:13046   */\n      mstore\n        /* \"#utility.yul\":12881:13053   */\n      pop\n      jump\t// out\n        /* \"#utility.yul\":13059:13227   */\n    tag_149:\n        /* \"#utility.yul\":13199:13219   */\n      0x496e636f72726563742061646472657373210000000000000000000000000000\n        /* \"#utility.yul\":13195:13196   */\n      0x00\n        /* \"#utility.yul\":13187:13193   */\n      dup3\n        /* \"#utility.yul\":13183:13197   */\n      add\n        /* \"#utility.yul\":13176:13220   */\n      mstore\n        /* \"#utility.yul\":13059:13227   */\n      pop\n      jump\t// out\n        /* \"#utility.yul\":13233:13355   */\n    tag_71:\n        /* \"#utility.yul\":13306:13330   */\n      tag_229\n        /* \"#utility.yul\":13324:13329   */\n      dup2\n        /* \"#utility.yul\":13306:13330   */\n      tag_191\n      jump\t// in\n    tag_229:\n        /* \"#utility.yul\":13299:13304   */\n      dup2\n        /* \"#utility.yul\":13296:13331   */\n      eq\n        /* \"#utility.yul\":13286:13349   */\n      tag_230\n      jumpi\n        /* \"#utility.yul\":13345:13346   */\n      0x00\n        /* \"#utility.yul\":13342:13343   */\n      dup1\n        /* \"#utility.yul\":13335:13347   */\n      revert\n        /* \"#utility.yul\":13286:13349   */\n    tag_230:\n        /* \"#utility.yul\":13233:13355   */\n      pop\n      jump\t// out\n        /* \"#utility.yul\":13361:13477   */\n    tag_75:\n        /* \"#utility.yul\":13431:13452   */\n      tag_232\n        /* \"#utility.yul\":13446:13451   */\n      dup2\n        /* \"#utility.yul\":13431:13452   */\n      tag_195\n      jump\t// in\n    tag_232:\n        /* \"#utility.yul\":13424:13429   */\n      dup2\n        /* \"#utility.yul\":13421:13453   */\n      eq\n        /* \"#utility.yul\":13411:13471   */\n      tag_233\n      jumpi\n        /* \"#utility.yul\":13467:13468   */\n      0x00\n        /* \"#utility.yul\":13464:13465   */\n      dup1\n        /* \"#utility.yul\":13457:13469   */\n      revert\n        /* \"#utility.yul\":13411:13471   */\n    tag_233:\n        /* \"#utility.yul\":13361:13477   */\n      pop\n      jump\t// out\n        /* \"#utility.yul\":13483:13605   */\n    tag_111:\n        /* \"#utility.yul\":13556:13580   */\n      tag_235\n        /* \"#utility.yul\":13574:13579   */\n      dup2\n        /* \"#utility.yul\":13556:13580   */\n      tag_153\n      jump\t// in\n    tag_235:\n        /* \"#utility.yul\":13549:13554   */\n      dup2\n        /* \"#utility.yul\":13546:13581   */\n      eq\n        /* \"#utility.yul\":13536:13599   */\n      tag_236\n      jumpi\n        /* \"#utility.yul\":13595:13596   */\n      0x00\n        /* \"#utility.yul\":13592:13593   */\n      dup1\n        /* \"#utility.yul\":13585:13597   */\n      revert\n        /* \"#utility.yul\":13536:13599   */\n    tag_236:\n        /* \"#utility.yul\":13483:13605   */\n      pop\n      jump\t// out\n\n    auxdata: 0xa26469706673582212200a80a4df64930602c63bfb670e7ee2507e246eda32697fc31433af7d882996fd64736f6c63430008070033\n}\n",
				"bytecode": {
					"linkReferences": {},
					"object": "608060405234801561001057600080fd5b50336000806101000a81548173ffffffffffffffffffffffffffffffffffffffff021916908373ffffffffffffffffffffffffffffffffffffffff160217905550610cfb806100606000396000f3fe608060405234801561001057600080fd5b50600436106100365760003560e01c8063614d8f601461003b57806388da06f914610057575b600080fd5b610055600480360381019061005091906107d8565b610073565b005b610071600480360381019061006c919061073e565b6101f0565b005b600015158160400151151514156100c0577fd53ecb21746e36da81ddab5bdcf35c93b4e7adb500e38a0ce440f729de177ac581602001516040516100b791906108af565b60405180910390a15b6000151581606001511515141561010d577fd53ecb21746e36da81ddab5bdcf35c93b4e7adb500e38a0ce440f729de177ac5816020015160405161010491906108af565b60405180910390a15b6000151581608001511515141561015a577fd53ecb21746e36da81ddab5bdcf35c93b4e7adb500e38a0ce440f729de177ac5816020015160405161015191906108af565b60405180910390a15b426203f4808260a0015161016e91906109f1565b11156101b0577fd53ecb21746e36da81ddab5bdcf35c93b4e7adb500e38a0ce440f729de177ac581602001516040516101a791906108af565b60405180910390a15b7f6fd4822621c89040f0ea90264351e7f95d334eb76155286b2c1b6732331ff93c8160200151426040516101e59291906108d1565b60405180910390a150565b8560008054906101000a900473ffffffffffffffffffffffffffffffffffffffff1673ffffffffffffffffffffffffffffffffffffffff163373ffffffffffffffffffffffffffffffffffffffff161461027f576040517f08c379a000000000000000000000000000000000000000000000000000000000815260040161027690610901565b60405180910390fd5b600073ffffffffffffffffffffffffffffffffffffffff168173ffffffffffffffffffffffffffffffffffffffff1614156102ef576040517f08c379a00000000000000000000000000000000000000000000000000000000081526004016102e690610921565b60405180910390fd5b60008060018054905014610313576001808054905061030e9190610a47565b61031a565b6001805490505b905060006040518060e0016040528083815260200189898080601f016020809104026020016040519081016040528093929190818152602001838380828437600081840152601f19601f8201169050808301925050505050505081526020018715158152602001861515815260200185151581526020014281526020016203f480426103a691906109f1565b815250905060018190806001815401808255809150506001900390600052602060002090600502016000909190919091506000820151816000015560208201518160010190805190602001906103fd9291906104c6565b5060408201518160020160006101000a81548160ff02191690831515021790555060608201518160020160016101000a81548160ff02191690831515021790555060808201518160020160026101000a81548160ff02191690831515021790555060a0820151816003015560c0820151816004015550507ffafb7311fc57ca8a55073f63725e888b4250c799d77ae873970d65ac08c5917a816000015182602001518360a001516040516104b393929190610941565b60405180910390a1505050505050505050565b8280546104d290610b05565b90600052602060002090601f0160209004810192826104f4576000855561053b565b82601f1061050d57805160ff191683800117855561053b565b8280016001018555821561053b579182015b8281111561053a57825182559160200191906001019061051f565b5b509050610548919061054c565b5090565b5b8082111561056557600081600090555060010161054d565b5090565b600061057c610577846109a4565b61097f565b90508281526020810184848401111561059857610597610c0e565b5b6105a3848285610ac3565b509392505050565b6000813590506105ba81610c80565b92915050565b6000813590506105cf81610c97565b92915050565b60008083601f8401126105eb576105ea610bfa565b5b8235905067ffffffffffffffff81111561060857610607610bf5565b5b60208301915083600182028301111561062457610623610c09565b5b9250929050565b600082601f8301126106405761063f610bfa565b5b8135610650848260208601610569565b91505092915050565b600060e0828403121561066f5761066e610bff565b5b61067960e061097f565b9050600061068984828501610729565b600083015250602082013567ffffffffffffffff8111156106ad576106ac610c04565b5b6106b98482850161062b565b60208301525060406106cd848285016105c0565b60408301525060606106e1848285016105c0565b60608301525060806106f5848285016105c0565b60808301525060a061070984828501610729565b60a08301525060c061071d84828501610729565b60c08301525092915050565b60008135905061073881610cae565b92915050565b60008060008060008060a0878903121561075b5761075a610c18565b5b600061076989828a016105ab565b965050602087013567ffffffffffffffff81111561078a57610789610c13565b5b61079689828a016105d5565b955095505060406107a989828a016105c0565b93505060606107ba89828a016105c0565b92505060806107cb89828a016105c0565b9150509295509295509295565b6000602082840312156107ee576107ed610c18565b5b600082013567ffffffffffffffff81111561080c5761080b610c13565b5b61081884828501610659565b91505092915050565b600061082c826109d5565b61083681856109e0565b9350610846818560208601610ad2565b61084f81610c1d565b840191505092915050565b60006108676016836109e0565b915061087282610c2e565b602082019050919050565b600061088a6012836109e0565b915061089582610c57565b602082019050919050565b6108a981610ab9565b82525050565b600060208201905081810360008301526108c98184610821565b905092915050565b600060408201905081810360008301526108eb8185610821565b90506108fa60208301846108a0565b9392505050565b6000602082019050818103600083015261091a8161085a565b9050919050565b6000602082019050818103600083015261093a8161087d565b9050919050565b600060608201905061095660008301866108a0565b81810360208301526109688185610821565b905061097760408301846108a0565b949350505050565b600061098961099a565b90506109958282610b37565b919050565b6000604051905090565b600067ffffffffffffffff8211156109bf576109be610bc6565b5b6109c882610c1d565b9050602081019050919050565b600081519050919050565b600082825260208201905092915050565b60006109fc82610ab9565b9150610a0783610ab9565b9250827fffffffffffffffffffffffffffffffffffffffffffffffffffffffffffffffff03821115610a3c57610a3b610b68565b5b828201905092915050565b6000610a5282610ab9565b9150610a5d83610ab9565b925082821015610a7057610a6f610b68565b5b828203905092915050565b6000610a8682610a99565b9050919050565b60008115159050919050565b600073ffffffffffffffffffffffffffffffffffffffff82169050919050565b6000819050919050565b82818337600083830152505050565b60005b83811015610af0578082015181840152602081019050610ad5565b83811115610aff576000848401525b50505050565b60006002820490506001821680610b1d57607f821691505b60208210811415610b3157610b30610b97565b5b50919050565b610b4082610c1d565b810181811067ffffffffffffffff82111715610b5f57610b5e610bc6565b5b80604052505050565b7f4e487b7100000000000000000000000000000000000000000000000000000000600052601160045260246000fd5b7f4e487b7100000000000000000000000000000000000000000000000000000000600052602260045260246000fd5b7f4e487b7100000000000000000000000000000000000000000000000000000000600052604160045260246000fd5b600080fd5b600080fd5b600080fd5b600080fd5b600080fd5b600080fd5b600080fd5b600080fd5b6000601f19601f8301169050919050565b7f596f7520617265206e6f7420746865206f776e65722e00000000000000000000600082015250565b7f496e636f72726563742061646472657373210000000000000000000000000000600082015250565b610c8981610a7b565b8114610c9457600080fd5b50565b610ca081610a8d565b8114610cab57600080fd5b50565b610cb781610ab9565b8114610cc257600080fd5b5056fea26469706673582212200a80a4df64930602c63bfb670e7ee2507e246eda32697fc31433af7d882996fd64736f6c63430008070033",
					"opcodes": "PUSH1 0x80 PUSH1 0x40 MSTORE CALLVALUE DUP1 ISZERO PUSH2 0x10 JUMPI PUSH1 0x0 DUP1 REVERT JUMPDEST POP CALLER PUSH1 0x0 DUP1 PUSH2 0x100 EXP DUP2 SLOAD DUP2 PUSH20 0xFFFFFFFFFFFFFFFFFFFFFFFFFFFFFFFFFFFFFFFF MUL NOT AND SWAP1 DUP4 PUSH20 0xFFFFFFFFFFFFFFFFFFFFFFFFFFFFFFFFFFFFFFFF AND MUL OR SWAP1 SSTORE POP PUSH2 0xCFB DUP1 PUSH2 0x60 PUSH1 0x0 CODECOPY PUSH1 0x0 RETURN INVALID PUSH1 0x80 PUSH1 0x40 MSTORE CALLVALUE DUP1 ISZERO PUSH2 0x10 JUMPI PUSH1 0x0 DUP1 REVERT JUMPDEST POP PUSH1 0x4 CALLDATASIZE LT PUSH2 0x36 JUMPI PUSH1 0x0 CALLDATALOAD PUSH1 0xE0 SHR DUP1 PUSH4 0x614D8F60 EQ PUSH2 0x3B JUMPI DUP1 PUSH4 0x88DA06F9 EQ PUSH2 0x57 JUMPI JUMPDEST PUSH1 0x0 DUP1 REVERT JUMPDEST PUSH2 0x55 PUSH1 0x4 DUP1 CALLDATASIZE SUB DUP2 ADD SWAP1 PUSH2 0x50 SWAP2 SWAP1 PUSH2 0x7D8 JUMP JUMPDEST PUSH2 0x73 JUMP JUMPDEST STOP JUMPDEST PUSH2 0x71 PUSH1 0x4 DUP1 CALLDATASIZE SUB DUP2 ADD SWAP1 PUSH2 0x6C SWAP2 SWAP1 PUSH2 0x73E JUMP JUMPDEST PUSH2 0x1F0 JUMP JUMPDEST STOP JUMPDEST PUSH1 0x0 ISZERO ISZERO DUP2 PUSH1 0x40 ADD MLOAD ISZERO ISZERO EQ ISZERO PUSH2 0xC0 JUMPI PUSH32 0xD53ECB21746E36DA81DDAB5BDCF35C93B4E7ADB500E38A0CE440F729DE177AC5 DUP2 PUSH1 0x20 ADD MLOAD PUSH1 0x40 MLOAD PUSH2 0xB7 SWAP2 SWAP1 PUSH2 0x8AF JUMP JUMPDEST PUSH1 0x40 MLOAD DUP1 SWAP2 SUB SWAP1 LOG1 JUMPDEST PUSH1 0x0 ISZERO ISZERO DUP2 PUSH1 0x60 ADD MLOAD ISZERO ISZERO EQ ISZERO PUSH2 0x10D JUMPI PUSH32 0xD53ECB21746E36DA81DDAB5BDCF35C93B4E7ADB500E38A0CE440F729DE177AC5 DUP2 PUSH1 0x20 ADD MLOAD PUSH1 0x40 MLOAD PUSH2 0x104 SWAP2 SWAP1 PUSH2 0x8AF JUMP JUMPDEST PUSH1 0x40 MLOAD DUP1 SWAP2 SUB SWAP1 LOG1 JUMPDEST PUSH1 0x0 ISZERO ISZERO DUP2 PUSH1 0x80 ADD MLOAD ISZERO ISZERO EQ ISZERO PUSH2 0x15A JUMPI PUSH32 0xD53ECB21746E36DA81DDAB5BDCF35C93B4E7ADB500E38A0CE440F729DE177AC5 DUP2 PUSH1 0x20 ADD MLOAD PUSH1 0x40 MLOAD PUSH2 0x151 SWAP2 SWAP1 PUSH2 0x8AF JUMP JUMPDEST PUSH1 0x40 MLOAD DUP1 SWAP2 SUB SWAP1 LOG1 JUMPDEST TIMESTAMP PUSH3 0x3F480 DUP3 PUSH1 0xA0 ADD MLOAD PUSH2 0x16E SWAP2 SWAP1 PUSH2 0x9F1 JUMP JUMPDEST GT ISZERO PUSH2 0x1B0 JUMPI PUSH32 0xD53ECB21746E36DA81DDAB5BDCF35C93B4E7ADB500E38A0CE440F729DE177AC5 DUP2 PUSH1 0x20 ADD MLOAD PUSH1 0x40 MLOAD PUSH2 0x1A7 SWAP2 SWAP1 PUSH2 0x8AF JUMP JUMPDEST PUSH1 0x40 MLOAD DUP1 SWAP2 SUB SWAP1 LOG1 JUMPDEST PUSH32 0x6FD4822621C89040F0EA90264351E7F95D334EB76155286B2C1B6732331FF93C DUP2 PUSH1 0x20 ADD MLOAD TIMESTAMP PUSH1 0x40 MLOAD PUSH2 0x1E5 SWAP3 SWAP2 SWAP1 PUSH2 0x8D1 JUMP JUMPDEST PUSH1 0x40 MLOAD DUP1 SWAP2 SUB SWAP1 LOG1 POP JUMP JUMPDEST DUP6 PUSH1 0x0 DUP1 SLOAD SWAP1 PUSH2 0x100 EXP SWAP1 DIV PUSH20 0xFFFFFFFFFFFFFFFFFFFFFFFFFFFFFFFFFFFFFFFF AND PUSH20 0xFFFFFFFFFFFFFFFFFFFFFFFFFFFFFFFFFFFFFFFF AND CALLER PUSH20 0xFFFFFFFFFFFFFFFFFFFFFFFFFFFFFFFFFFFFFFFF AND EQ PUSH2 0x27F JUMPI PUSH1 0x40 MLOAD PUSH32 0x8C379A000000000000000000000000000000000000000000000000000000000 DUP2 MSTORE PUSH1 0x4 ADD PUSH2 0x276 SWAP1 PUSH2 0x901 JUMP JUMPDEST PUSH1 0x40 MLOAD DUP1 SWAP2 SUB SWAP1 REVERT JUMPDEST PUSH1 0x0 PUSH20 0xFFFFFFFFFFFFFFFFFFFFFFFFFFFFFFFFFFFFFFFF AND DUP2 PUSH20 0xFFFFFFFFFFFFFFFFFFFFFFFFFFFFFFFFFFFFFFFF AND EQ ISZERO PUSH2 0x2EF JUMPI PUSH1 0x40 MLOAD PUSH32 0x8C379A000000000000000000000000000000000000000000000000000000000 DUP2 MSTORE PUSH1 0x4 ADD PUSH2 0x2E6 SWAP1 PUSH2 0x921 JUMP JUMPDEST PUSH1 0x40 MLOAD DUP1 SWAP2 SUB SWAP1 REVERT JUMPDEST PUSH1 0x0 DUP1 PUSH1 0x1 DUP1 SLOAD SWAP1 POP EQ PUSH2 0x313 JUMPI PUSH1 0x1 DUP1 DUP1 SLOAD SWAP1 POP PUSH2 0x30E SWAP2 SWAP1 PUSH2 0xA47 JUMP JUMPDEST PUSH2 0x31A JUMP JUMPDEST PUSH1 0x1 DUP1 SLOAD SWAP1 POP JUMPDEST SWAP1 POP PUSH1 0x0 PUSH1 0x40 MLOAD DUP1 PUSH1 0xE0 ADD PUSH1 0x40 MSTORE DUP1 DUP4 DUP2 MSTORE PUSH1 0x20 ADD DUP10 DUP10 DUP1 DUP1 PUSH1 0x1F ADD PUSH1 0x20 DUP1 SWAP2 DIV MUL PUSH1 0x20 ADD PUSH1 0x40 MLOAD SWAP1 DUP2 ADD PUSH1 0x40 MSTORE DUP1 SWAP4 SWAP3 SWAP2 SWAP1 DUP2 DUP2 MSTORE PUSH1 0x20 ADD DUP4 DUP4 DUP1 DUP3 DUP5 CALLDATACOPY PUSH1 0x0 DUP2 DUP5 ADD MSTORE PUSH1 0x1F NOT PUSH1 0x1F DUP3 ADD AND SWAP1 POP DUP1 DUP4 ADD SWAP3 POP POP POP POP POP POP POP DUP2 MSTORE PUSH1 0x20 ADD DUP8 ISZERO ISZERO DUP2 MSTORE PUSH1 0x20 ADD DUP7 ISZERO ISZERO DUP2 MSTORE PUSH1 0x20 ADD DUP6 ISZERO ISZERO DUP2 MSTORE PUSH1 0x20 ADD TIMESTAMP DUP2 MSTORE PUSH1 0x20 ADD PUSH3 0x3F480 TIMESTAMP PUSH2 0x3A6 SWAP2 SWAP1 PUSH2 0x9F1 JUMP JUMPDEST DUP2 MSTORE POP SWAP1 POP PUSH1 0x1 DUP2 SWAP1 DUP1 PUSH1 0x1 DUP2 SLOAD ADD DUP1 DUP3 SSTORE DUP1 SWAP2 POP POP PUSH1 0x1 SWAP1 SUB SWAP1 PUSH1 0x0 MSTORE PUSH1 0x20 PUSH1 0x0 KECCAK256 SWAP1 PUSH1 0x5 MUL ADD PUSH1 0x0 SWAP1 SWAP2 SWAP1 SWAP2 SWAP1 SWAP2 POP PUSH1 0x0 DUP3 ADD MLOAD DUP2 PUSH1 0x0 ADD SSTORE PUSH1 0x20 DUP3 ADD MLOAD DUP2 PUSH1 0x1 ADD SWAP1 DUP1 MLOAD SWAP1 PUSH1 0x20 ADD SWAP1 PUSH2 0x3FD SWAP3 SWAP2 SWAP1 PUSH2 0x4C6 JUMP JUMPDEST POP PUSH1 0x40 DUP3 ADD MLOAD DUP2 PUSH1 0x2 ADD PUSH1 0x0 PUSH2 0x100 EXP DUP2 SLOAD DUP2 PUSH1 0xFF MUL NOT AND SWAP1 DUP4 ISZERO ISZERO MUL OR SWAP1 SSTORE POP PUSH1 0x60 DUP3 ADD MLOAD DUP2 PUSH1 0x2 ADD PUSH1 0x1 PUSH2 0x100 EXP DUP2 SLOAD DUP2 PUSH1 0xFF MUL NOT AND SWAP1 DUP4 ISZERO ISZERO MUL OR SWAP1 SSTORE POP PUSH1 0x80 DUP3 ADD MLOAD DUP2 PUSH1 0x2 ADD PUSH1 0x2 PUSH2 0x100 EXP DUP2 SLOAD DUP2 PUSH1 0xFF MUL NOT AND SWAP1 DUP4 ISZERO ISZERO MUL OR SWAP1 SSTORE POP PUSH1 0xA0 DUP3 ADD MLOAD DUP2 PUSH1 0x3 ADD SSTORE PUSH1 0xC0 DUP3 ADD MLOAD DUP2 PUSH1 0x4 ADD SSTORE POP POP PUSH32 0xFAFB7311FC57CA8A55073F63725E888B4250C799D77AE873970D65AC08C5917A DUP2 PUSH1 0x0 ADD MLOAD DUP3 PUSH1 0x20 ADD MLOAD DUP4 PUSH1 0xA0 ADD MLOAD PUSH1 0x40 MLOAD PUSH2 0x4B3 SWAP4 SWAP3 SWAP2 SWAP1 PUSH2 0x941 JUMP JUMPDEST PUSH1 0x40 MLOAD DUP1 SWAP2 SUB SWAP1 LOG1 POP POP POP POP POP POP POP POP POP JUMP JUMPDEST DUP3 DUP1 SLOAD PUSH2 0x4D2 SWAP1 PUSH2 0xB05 JUMP JUMPDEST SWAP1 PUSH1 0x0 MSTORE PUSH1 0x20 PUSH1 0x0 KECCAK256 SWAP1 PUSH1 0x1F ADD PUSH1 0x20 SWAP1 DIV DUP2 ADD SWAP3 DUP3 PUSH2 0x4F4 JUMPI PUSH1 0x0 DUP6 SSTORE PUSH2 0x53B JUMP JUMPDEST DUP3 PUSH1 0x1F LT PUSH2 0x50D JUMPI DUP1 MLOAD PUSH1 0xFF NOT AND DUP4 DUP1 ADD OR DUP6 SSTORE PUSH2 0x53B JUMP JUMPDEST DUP3 DUP1 ADD PUSH1 0x1 ADD DUP6 SSTORE DUP3 ISZERO PUSH2 0x53B JUMPI SWAP2 DUP3 ADD JUMPDEST DUP3 DUP2 GT ISZERO PUSH2 0x53A JUMPI DUP3 MLOAD DUP3 SSTORE SWAP2 PUSH1 0x20 ADD SWAP2 SWAP1 PUSH1 0x1 ADD SWAP1 PUSH2 0x51F JUMP JUMPDEST JUMPDEST POP SWAP1 POP PUSH2 0x548 SWAP2 SWAP1 PUSH2 0x54C JUMP JUMPDEST POP SWAP1 JUMP JUMPDEST JUMPDEST DUP1 DUP3 GT ISZERO PUSH2 0x565 JUMPI PUSH1 0x0 DUP2 PUSH1 0x0 SWAP1 SSTORE POP PUSH1 0x1 ADD PUSH2 0x54D JUMP JUMPDEST POP SWAP1 JUMP JUMPDEST PUSH1 0x0 PUSH2 0x57C PUSH2 0x577 DUP5 PUSH2 0x9A4 JUMP JUMPDEST PUSH2 0x97F JUMP JUMPDEST SWAP1 POP DUP3 DUP2 MSTORE PUSH1 0x20 DUP2 ADD DUP5 DUP5 DUP5 ADD GT ISZERO PUSH2 0x598 JUMPI PUSH2 0x597 PUSH2 0xC0E JUMP JUMPDEST JUMPDEST PUSH2 0x5A3 DUP5 DUP3 DUP6 PUSH2 0xAC3 JUMP JUMPDEST POP SWAP4 SWAP3 POP POP POP JUMP JUMPDEST PUSH1 0x0 DUP2 CALLDATALOAD SWAP1 POP PUSH2 0x5BA DUP2 PUSH2 0xC80 JUMP JUMPDEST SWAP3 SWAP2 POP POP JUMP JUMPDEST PUSH1 0x0 DUP2 CALLDATALOAD SWAP1 POP PUSH2 0x5CF DUP2 PUSH2 0xC97 JUMP JUMPDEST SWAP3 SWAP2 POP POP JUMP JUMPDEST PUSH1 0x0 DUP1 DUP4 PUSH1 0x1F DUP5 ADD SLT PUSH2 0x5EB JUMPI PUSH2 0x5EA PUSH2 0xBFA JUMP JUMPDEST JUMPDEST DUP3 CALLDATALOAD SWAP1 POP PUSH8 0xFFFFFFFFFFFFFFFF DUP2 GT ISZERO PUSH2 0x608 JUMPI PUSH2 0x607 PUSH2 0xBF5 JUMP JUMPDEST JUMPDEST PUSH1 0x20 DUP4 ADD SWAP2 POP DUP4 PUSH1 0x1 DUP3 MUL DUP4 ADD GT ISZERO PUSH2 0x624 JUMPI PUSH2 0x623 PUSH2 0xC09 JUMP JUMPDEST JUMPDEST SWAP3 POP SWAP3 SWAP1 POP JUMP JUMPDEST PUSH1 0x0 DUP3 PUSH1 0x1F DUP4 ADD SLT PUSH2 0x640 JUMPI PUSH2 0x63F PUSH2 0xBFA JUMP JUMPDEST JUMPDEST DUP2 CALLDATALOAD PUSH2 0x650 DUP5 DUP3 PUSH1 0x20 DUP7 ADD PUSH2 0x569 JUMP JUMPDEST SWAP2 POP POP SWAP3 SWAP2 POP POP JUMP JUMPDEST PUSH1 0x0 PUSH1 0xE0 DUP3 DUP5 SUB SLT ISZERO PUSH2 0x66F JUMPI PUSH2 0x66E PUSH2 0xBFF JUMP JUMPDEST JUMPDEST PUSH2 0x679 PUSH1 0xE0 PUSH2 0x97F JUMP JUMPDEST SWAP1 POP PUSH1 0x0 PUSH2 0x689 DUP5 DUP3 DUP6 ADD PUSH2 0x729 JUMP JUMPDEST PUSH1 0x0 DUP4 ADD MSTORE POP PUSH1 0x20 DUP3 ADD CALLDATALOAD PUSH8 0xFFFFFFFFFFFFFFFF DUP2 GT ISZERO PUSH2 0x6AD JUMPI PUSH2 0x6AC PUSH2 0xC04 JUMP JUMPDEST JUMPDEST PUSH2 0x6B9 DUP5 DUP3 DUP6 ADD PUSH2 0x62B JUMP JUMPDEST PUSH1 0x20 DUP4 ADD MSTORE POP PUSH1 0x40 PUSH2 0x6CD DUP5 DUP3 DUP6 ADD PUSH2 0x5C0 JUMP JUMPDEST PUSH1 0x40 DUP4 ADD MSTORE POP PUSH1 0x60 PUSH2 0x6E1 DUP5 DUP3 DUP6 ADD PUSH2 0x5C0 JUMP JUMPDEST PUSH1 0x60 DUP4 ADD MSTORE POP PUSH1 0x80 PUSH2 0x6F5 DUP5 DUP3 DUP6 ADD PUSH2 0x5C0 JUMP JUMPDEST PUSH1 0x80 DUP4 ADD MSTORE POP PUSH1 0xA0 PUSH2 0x709 DUP5 DUP3 DUP6 ADD PUSH2 0x729 JUMP JUMPDEST PUSH1 0xA0 DUP4 ADD MSTORE POP PUSH1 0xC0 PUSH2 0x71D DUP5 DUP3 DUP6 ADD PUSH2 0x729 JUMP JUMPDEST PUSH1 0xC0 DUP4 ADD MSTORE POP SWAP3 SWAP2 POP POP JUMP JUMPDEST PUSH1 0x0 DUP2 CALLDATALOAD SWAP1 POP PUSH2 0x738 DUP2 PUSH2 0xCAE JUMP JUMPDEST SWAP3 SWAP2 POP POP JUMP JUMPDEST PUSH1 0x0 DUP1 PUSH1 0x0 DUP1 PUSH1 0x0 DUP1 PUSH1 0xA0 DUP8 DUP10 SUB SLT ISZERO PUSH2 0x75B JUMPI PUSH2 0x75A PUSH2 0xC18 JUMP JUMPDEST JUMPDEST PUSH1 0x0 PUSH2 0x769 DUP10 DUP3 DUP11 ADD PUSH2 0x5AB JUMP JUMPDEST SWAP7 POP POP PUSH1 0x20 DUP8 ADD CALLDATALOAD PUSH8 0xFFFFFFFFFFFFFFFF DUP2 GT ISZERO PUSH2 0x78A JUMPI PUSH2 0x789 PUSH2 0xC13 JUMP JUMPDEST JUMPDEST PUSH2 0x796 DUP10 DUP3 DUP11 ADD PUSH2 0x5D5 JUMP JUMPDEST SWAP6 POP SWAP6 POP POP PUSH1 0x40 PUSH2 0x7A9 DUP10 DUP3 DUP11 ADD PUSH2 0x5C0 JUMP JUMPDEST SWAP4 POP POP PUSH1 0x60 PUSH2 0x7BA DUP10 DUP3 DUP11 ADD PUSH2 0x5C0 JUMP JUMPDEST SWAP3 POP POP PUSH1 0x80 PUSH2 0x7CB DUP10 DUP3 DUP11 ADD PUSH2 0x5C0 JUMP JUMPDEST SWAP2 POP POP SWAP3 SWAP6 POP SWAP3 SWAP6 POP SWAP3 SWAP6 JUMP JUMPDEST PUSH1 0x0 PUSH1 0x20 DUP3 DUP5 SUB SLT ISZERO PUSH2 0x7EE JUMPI PUSH2 0x7ED PUSH2 0xC18 JUMP JUMPDEST JUMPDEST PUSH1 0x0 DUP3 ADD CALLDATALOAD PUSH8 0xFFFFFFFFFFFFFFFF DUP2 GT ISZERO PUSH2 0x80C JUMPI PUSH2 0x80B PUSH2 0xC13 JUMP JUMPDEST JUMPDEST PUSH2 0x818 DUP5 DUP3 DUP6 ADD PUSH2 0x659 JUMP JUMPDEST SWAP2 POP POP SWAP3 SWAP2 POP POP JUMP JUMPDEST PUSH1 0x0 PUSH2 0x82C DUP3 PUSH2 0x9D5 JUMP JUMPDEST PUSH2 0x836 DUP2 DUP6 PUSH2 0x9E0 JUMP JUMPDEST SWAP4 POP PUSH2 0x846 DUP2 DUP6 PUSH1 0x20 DUP7 ADD PUSH2 0xAD2 JUMP JUMPDEST PUSH2 0x84F DUP2 PUSH2 0xC1D JUMP JUMPDEST DUP5 ADD SWAP2 POP POP SWAP3 SWAP2 POP POP JUMP JUMPDEST PUSH1 0x0 PUSH2 0x867 PUSH1 0x16 DUP4 PUSH2 0x9E0 JUMP JUMPDEST SWAP2 POP PUSH2 0x872 DUP3 PUSH2 0xC2E JUMP JUMPDEST PUSH1 0x20 DUP3 ADD SWAP1 POP SWAP2 SWAP1 POP JUMP JUMPDEST PUSH1 0x0 PUSH2 0x88A PUSH1 0x12 DUP4 PUSH2 0x9E0 JUMP JUMPDEST SWAP2 POP PUSH2 0x895 DUP3 PUSH2 0xC57 JUMP JUMPDEST PUSH1 0x20 DUP3 ADD SWAP1 POP SWAP2 SWAP1 POP JUMP JUMPDEST PUSH2 0x8A9 DUP2 PUSH2 0xAB9 JUMP JUMPDEST DUP3 MSTORE POP POP JUMP JUMPDEST PUSH1 0x0 PUSH1 0x20 DUP3 ADD SWAP1 POP DUP2 DUP2 SUB PUSH1 0x0 DUP4 ADD MSTORE PUSH2 0x8C9 DUP2 DUP5 PUSH2 0x821 JUMP JUMPDEST SWAP1 POP SWAP3 SWAP2 POP POP JUMP JUMPDEST PUSH1 0x0 PUSH1 0x40 DUP3 ADD SWAP1 POP DUP2 DUP2 SUB PUSH1 0x0 DUP4 ADD MSTORE PUSH2 0x8EB DUP2 DUP6 PUSH2 0x821 JUMP JUMPDEST SWAP1 POP PUSH2 0x8FA PUSH1 0x20 DUP4 ADD DUP5 PUSH2 0x8A0 JUMP JUMPDEST SWAP4 SWAP3 POP POP POP JUMP JUMPDEST PUSH1 0x0 PUSH1 0x20 DUP3 ADD SWAP1 POP DUP2 DUP2 SUB PUSH1 0x0 DUP4 ADD MSTORE PUSH2 0x91A DUP2 PUSH2 0x85A JUMP JUMPDEST SWAP1 POP SWAP2 SWAP1 POP JUMP JUMPDEST PUSH1 0x0 PUSH1 0x20 DUP3 ADD SWAP1 POP DUP2 DUP2 SUB PUSH1 0x0 DUP4 ADD MSTORE PUSH2 0x93A DUP2 PUSH2 0x87D JUMP JUMPDEST SWAP1 POP SWAP2 SWAP1 POP JUMP JUMPDEST PUSH1 0x0 PUSH1 0x60 DUP3 ADD SWAP1 POP PUSH2 0x956 PUSH1 0x0 DUP4 ADD DUP7 PUSH2 0x8A0 JUMP JUMPDEST DUP2 DUP2 SUB PUSH1 0x20 DUP4 ADD MSTORE PUSH2 0x968 DUP2 DUP6 PUSH2 0x821 JUMP JUMPDEST SWAP1 POP PUSH2 0x977 PUSH1 0x40 DUP4 ADD DUP5 PUSH2 0x8A0 JUMP JUMPDEST SWAP5 SWAP4 POP POP POP POP JUMP JUMPDEST PUSH1 0x0 PUSH2 0x989 PUSH2 0x99A JUMP JUMPDEST SWAP1 POP PUSH2 0x995 DUP3 DUP3 PUSH2 0xB37 JUMP JUMPDEST SWAP2 SWAP1 POP JUMP JUMPDEST PUSH1 0x0 PUSH1 0x40 MLOAD SWAP1 POP SWAP1 JUMP JUMPDEST PUSH1 0x0 PUSH8 0xFFFFFFFFFFFFFFFF DUP3 GT ISZERO PUSH2 0x9BF JUMPI PUSH2 0x9BE PUSH2 0xBC6 JUMP JUMPDEST JUMPDEST PUSH2 0x9C8 DUP3 PUSH2 0xC1D JUMP JUMPDEST SWAP1 POP PUSH1 0x20 DUP2 ADD SWAP1 POP SWAP2 SWAP1 POP JUMP JUMPDEST PUSH1 0x0 DUP2 MLOAD SWAP1 POP SWAP2 SWAP1 POP JUMP JUMPDEST PUSH1 0x0 DUP3 DUP3 MSTORE PUSH1 0x20 DUP3 ADD SWAP1 POP SWAP3 SWAP2 POP POP JUMP JUMPDEST PUSH1 0x0 PUSH2 0x9FC DUP3 PUSH2 0xAB9 JUMP JUMPDEST SWAP2 POP PUSH2 0xA07 DUP4 PUSH2 0xAB9 JUMP JUMPDEST SWAP3 POP DUP3 PUSH32 0xFFFFFFFFFFFFFFFFFFFFFFFFFFFFFFFFFFFFFFFFFFFFFFFFFFFFFFFFFFFFFFFF SUB DUP3 GT ISZERO PUSH2 0xA3C JUMPI PUSH2 0xA3B PUSH2 0xB68 JUMP JUMPDEST JUMPDEST DUP3 DUP3 ADD SWAP1 POP SWAP3 SWAP2 POP POP JUMP JUMPDEST PUSH1 0x0 PUSH2 0xA52 DUP3 PUSH2 0xAB9 JUMP JUMPDEST SWAP2 POP PUSH2 0xA5D DUP4 PUSH2 0xAB9 JUMP JUMPDEST SWAP3 POP DUP3 DUP3 LT ISZERO PUSH2 0xA70 JUMPI PUSH2 0xA6F PUSH2 0xB68 JUMP JUMPDEST JUMPDEST DUP3 DUP3 SUB SWAP1 POP SWAP3 SWAP2 POP POP JUMP JUMPDEST PUSH1 0x0 PUSH2 0xA86 DUP3 PUSH2 0xA99 JUMP JUMPDEST SWAP1 POP SWAP2 SWAP1 POP JUMP JUMPDEST PUSH1 0x0 DUP2 ISZERO ISZERO SWAP1 POP SWAP2 SWAP1 POP JUMP JUMPDEST PUSH1 0x0 PUSH20 0xFFFFFFFFFFFFFFFFFFFFFFFFFFFFFFFFFFFFFFFF DUP3 AND SWAP1 POP SWAP2 SWAP1 POP JUMP JUMPDEST PUSH1 0x0 DUP2 SWAP1 POP SWAP2 SWAP1 POP JUMP JUMPDEST DUP3 DUP2 DUP4 CALLDATACOPY PUSH1 0x0 DUP4 DUP4 ADD MSTORE POP POP POP JUMP JUMPDEST PUSH1 0x0 JUMPDEST DUP4 DUP2 LT ISZERO PUSH2 0xAF0 JUMPI DUP1 DUP3 ADD MLOAD DUP2 DUP5 ADD MSTORE PUSH1 0x20 DUP2 ADD SWAP1 POP PUSH2 0xAD5 JUMP JUMPDEST DUP4 DUP2 GT ISZERO PUSH2 0xAFF JUMPI PUSH1 0x0 DUP5 DUP5 ADD MSTORE JUMPDEST POP POP POP POP JUMP JUMPDEST PUSH1 0x0 PUSH1 0x2 DUP3 DIV SWAP1 POP PUSH1 0x1 DUP3 AND DUP1 PUSH2 0xB1D JUMPI PUSH1 0x7F DUP3 AND SWAP2 POP JUMPDEST PUSH1 0x20 DUP3 LT DUP2 EQ ISZERO PUSH2 0xB31 JUMPI PUSH2 0xB30 PUSH2 0xB97 JUMP JUMPDEST JUMPDEST POP SWAP2 SWAP1 POP JUMP JUMPDEST PUSH2 0xB40 DUP3 PUSH2 0xC1D JUMP JUMPDEST DUP2 ADD DUP2 DUP2 LT PUSH8 0xFFFFFFFFFFFFFFFF DUP3 GT OR ISZERO PUSH2 0xB5F JUMPI PUSH2 0xB5E PUSH2 0xBC6 JUMP JUMPDEST JUMPDEST DUP1 PUSH1 0x40 MSTORE POP POP POP JUMP JUMPDEST PUSH32 0x4E487B7100000000000000000000000000000000000000000000000000000000 PUSH1 0x0 MSTORE PUSH1 0x11 PUSH1 0x4 MSTORE PUSH1 0x24 PUSH1 0x0 REVERT JUMPDEST PUSH32 0x4E487B7100000000000000000000000000000000000000000000000000000000 PUSH1 0x0 MSTORE PUSH1 0x22 PUSH1 0x4 MSTORE PUSH1 0x24 PUSH1 0x0 REVERT JUMPDEST PUSH32 0x4E487B7100000000000000000000000000000000000000000000000000000000 PUSH1 0x0 MSTORE PUSH1 0x41 PUSH1 0x4 MSTORE PUSH1 0x24 PUSH1 0x0 REVERT JUMPDEST PUSH1 0x0 DUP1 REVERT JUMPDEST PUSH1 0x0 DUP1 REVERT JUMPDEST PUSH1 0x0 DUP1 REVERT JUMPDEST PUSH1 0x0 DUP1 REVERT JUMPDEST PUSH1 0x0 DUP1 REVERT JUMPDEST PUSH1 0x0 DUP1 REVERT JUMPDEST PUSH1 0x0 DUP1 REVERT JUMPDEST PUSH1 0x0 DUP1 REVERT JUMPDEST PUSH1 0x0 PUSH1 0x1F NOT PUSH1 0x1F DUP4 ADD AND SWAP1 POP SWAP2 SWAP1 POP JUMP JUMPDEST PUSH32 0x596F7520617265206E6F7420746865206F776E65722E00000000000000000000 PUSH1 0x0 DUP3 ADD MSTORE POP JUMP JUMPDEST PUSH32 0x496E636F72726563742061646472657373210000000000000000000000000000 PUSH1 0x0 DUP3 ADD MSTORE POP JUMP JUMPDEST PUSH2 0xC89 DUP2 PUSH2 0xA7B JUMP JUMPDEST DUP2 EQ PUSH2 0xC94 JUMPI PUSH1 0x0 DUP1 REVERT JUMPDEST POP JUMP JUMPDEST PUSH2 0xCA0 DUP2 PUSH2 0xA8D JUMP JUMPDEST DUP2 EQ PUSH2 0xCAB JUMPI PUSH1 0x0 DUP1 REVERT JUMPDEST POP JUMP JUMPDEST PUSH2 0xCB7 DUP2 PUSH2 0xAB9 JUMP JUMPDEST DUP2 EQ PUSH2 0xCC2 JUMPI PUSH1 0x0 DUP1 REVERT JUMPDEST POP JUMP INVALID LOG2 PUSH5 0x6970667358 0x22 SLT KECCAK256 EXP DUP1 LOG4 0xDF PUSH5 0x930602C63B 0xFB PUSH8 0xE7EE2507E246EDA ORIGIN PUSH10 0x7FC31433AF7D882996FD PUSH5 0x736F6C6343 STOP ADDMOD SMOD STOP CALLER "
				},
				"gasEstimates": {
					"creation": {
						"codeDepositCost": "664600",
						"executionCost": "24962",
						"totalCost": "689562"
					},
					"external": {
						"addStudent(address,string,bool,bool,bool)": "infinite",
						"debtsAreDone((uint256,string,bool,bool,bool,uint256,uint256))": "infinite"
					}
				},
				"methodIdentifiers": {
					"addStudent(address,string,bool,bool,bool)": "88da06f9",
					"debtsAreDone((uint256,string,bool,bool,bool,uint256,uint256))": "614d8f60"
				}
			},
			"storageLayout": {
				"storage": [
					{
						"astId": 6,
						"contract": "contracts/Hometask.sol:DormitoryQuest",
						"label": "owner",
						"offset": 0,
						"slot": "0",
						"type": "t_address"
					},
					{
						"astId": 25,
						"contract": "contracts/Hometask.sol:DormitoryQuest",
						"label": "students",
						"offset": 0,
						"slot": "1",
						"type": "t_array(t_struct(Student)21_storage)dyn_storage"
					}
				],
				"types": {
					"t_address": {
						"encoding": "inplace",
						"label": "address",
						"numberOfBytes": "20"
					},
					"t_array(t_struct(Student)21_storage)dyn_storage": {
						"base": "t_struct(Student)21_storage",
						"encoding": "dynamic_array",
						"label": "struct DormitoryQuest.Student[]",
						"numberOfBytes": "32"
					},
					"t_bool": {
						"encoding": "inplace",
						"label": "bool",
						"numberOfBytes": "1"
					},
					"t_string_storage": {
						"encoding": "bytes",
						"label": "string",
						"numberOfBytes": "32"
					},
					"t_struct(Student)21_storage": {
						"encoding": "inplace",
						"label": "struct DormitoryQuest.Student",
						"members": [
							{
								"astId": 8,
								"contract": "contracts/Hometask.sol:DormitoryQuest",
								"label": "id",
								"offset": 0,
								"slot": "0",
								"type": "t_uint256"
							},
							{
								"astId": 10,
								"contract": "contracts/Hometask.sol:DormitoryQuest",
								"label": "fullName",
								"offset": 0,
								"slot": "1",
								"type": "t_string_storage"
							},
							{
								"astId": 12,
								"contract": "contracts/Hometask.sol:DormitoryQuest",
								"label": "sheetsDone",
								"offset": 0,
								"slot": "2",
								"type": "t_bool"
							},
							{
								"astId": 14,
								"contract": "contracts/Hometask.sol:DormitoryQuest",
								"label": "roomDone",
								"offset": 1,
								"slot": "2",
								"type": "t_bool"
							},
							{
								"astId": 16,
								"contract": "contracts/Hometask.sol:DormitoryQuest",
								"label": "booksDone",
								"offset": 2,
								"slot": "2",
								"type": "t_bool"
							},
							{
								"astId": 18,
								"contract": "contracts/Hometask.sol:DormitoryQuest",
								"label": "regDate",
								"offset": 0,
								"slot": "3",
								"type": "t_uint256"
							},
							{
								"astId": 20,
								"contract": "contracts/Hometask.sol:DormitoryQuest",
								"label": "deadlineDate",
								"offset": 0,
								"slot": "4",
								"type": "t_uint256"
							}
						],
						"numberOfBytes": "160"
					},
					"t_uint256": {
						"encoding": "inplace",
						"label": "uint256",
						"numberOfBytes": "32"
					}
				}
			},
			"userdoc": {
				"kind": "user",
				"methods": {},
				"version": 1
			}
		}
	}
}