{
	"contracts/Hometask.sol": {
		"DormitoryQuest": {
			"abi": [
				{
					"inputs": [],
					"stateMutability": "nonpayable",
					"type": "constructor"
				},
				{
					"anonymous": false,
					"inputs": [
						{
							"indexed": false,
							"internalType": "uint256",
							"name": "id",
							"type": "uint256"
						},
						{
							"indexed": false,
							"internalType": "string",
							"name": "name",
							"type": "string"
						},
						{
							"indexed": false,
							"internalType": "uint256",
							"name": "regDate",
							"type": "uint256"
						}
					],
					"name": "StudentAdded",
					"type": "event"
				},
				{
					"anonymous": false,
					"inputs": [
						{
							"indexed": false,
							"internalType": "string",
							"name": "name",
							"type": "string"
						},
						{
							"indexed": false,
							"internalType": "uint256",
							"name": "date",
							"type": "uint256"
						}
					],
					"name": "StudentEvicted",
					"type": "event"
				},
				{
					"anonymous": false,
					"inputs": [
						{
							"indexed": false,
							"internalType": "string",
							"name": "name",
							"type": "string"
						}
					],
					"name": "SummonsToArmyGiven",
					"type": "event"
				},
				{
					"inputs": [
						{
							"internalType": "address",
							"name": "_to",
							"type": "address"
						},
						{
							"internalType": "string",
							"name": "_name",
							"type": "string"
						},
						{
							"internalType": "bool",
							"name": "_sheetsDone",
							"type": "bool"
						},
						{
							"internalType": "bool",
							"name": "_roomDone",
							"type": "bool"
						},
						{
							"internalType": "bool",
							"name": "_booksDone",
							"type": "bool"
						}
					],
					"name": "addStudent",
					"outputs": [],
					"stateMutability": "nonpayable",
					"type": "function"
				},
				{
					"inputs": [
						{
							"internalType": "uint256",
							"name": "id",
							"type": "uint256"
						}
					],
					"name": "debtsAreDone",
					"outputs": [],
					"stateMutability": "nonpayable",
					"type": "function"
				}
			],
			"devdoc": {
				"kind": "dev",
				"methods": {},
				"version": 1
			},
			"evm": {
				"assembly": "    /* \"contracts/Hometask.sol\":62:2135  contract DormitoryQuest {\r... */\n  mstore(0x40, 0x80)\n    /* \"contracts/Hometask.sol\":539:590  constructor() {\r... */\n  callvalue\n  dup1\n  iszero\n  tag_1\n  jumpi\n  0x00\n  dup1\n  revert\ntag_1:\n  pop\n    /* \"contracts/Hometask.sol\":572:582  msg.sender */\n  caller\n    /* \"contracts/Hometask.sol\":564:569  owner */\n  0x00\n  dup1\n    /* \"contracts/Hometask.sol\":564:582  owner = msg.sender */\n  0x0100\n  exp\n  dup2\n  sload\n  dup2\n  0xffffffffffffffffffffffffffffffffffffffff\n  mul\n  not\n  and\n  swap1\n  dup4\n  0xffffffffffffffffffffffffffffffffffffffff\n  and\n  mul\n  or\n  swap1\n  sstore\n  pop\n    /* \"contracts/Hometask.sol\":62:2135  contract DormitoryQuest {\r... */\n  dataSize(sub_0)\n  dup1\n  dataOffset(sub_0)\n  0x00\n  codecopy\n  0x00\n  return\nstop\n\nsub_0: assembly {\n        /* \"contracts/Hometask.sol\":62:2135  contract DormitoryQuest {\r... */\n      mstore(0x40, 0x80)\n      callvalue\n      dup1\n      iszero\n      tag_1\n      jumpi\n      0x00\n      dup1\n      revert\n    tag_1:\n      pop\n      jumpi(tag_2, lt(calldatasize, 0x04))\n      shr(0xe0, calldataload(0x00))\n      dup1\n      0x3d5c83d4\n      eq\n      tag_3\n      jumpi\n      dup1\n      0x88da06f9\n      eq\n      tag_4\n      jumpi\n    tag_2:\n      0x00\n      dup1\n      revert\n        /* \"contracts/Hometask.sol\":1460:2132  function debtsAreDone(uint id) public {\r... */\n    tag_3:\n      tag_5\n      0x04\n      dup1\n      calldatasize\n      sub\n      dup2\n      add\n      swap1\n      tag_6\n      swap2\n      swap1\n      tag_7\n      jump\t// in\n    tag_6:\n      tag_8\n      jump\t// in\n    tag_5:\n      stop\n        /* \"contracts/Hometask.sol\":782:1452  function addStudent(address _to, string calldata _name, bool _sheetsDone, bool _roomDone, bool _booksDone) public OwnerOnly(_to) {\r... */\n    tag_4:\n      tag_9\n      0x04\n      dup1\n      calldatasize\n      sub\n      dup2\n      add\n      swap1\n      tag_10\n      swap2\n      swap1\n      tag_11\n      jump\t// in\n    tag_10:\n      tag_12\n      jump\t// in\n    tag_9:\n      stop\n        /* \"contracts/Hometask.sol\":1460:2132  function debtsAreDone(uint id) public {\r... */\n    tag_8:\n        /* \"contracts/Hometask.sol\":1509:1533  Student storage _student */\n      0x00\n        /* \"contracts/Hometask.sol\":1536:1544  students */\n      0x01\n        /* \"contracts/Hometask.sol\":1545:1547  id */\n      dup3\n        /* \"contracts/Hometask.sol\":1536:1548  students[id] */\n      dup2\n      sload\n      dup2\n      lt\n      tag_14\n      jumpi\n      tag_15\n      tag_16\n      jump\t// in\n    tag_15:\n    tag_14:\n      swap1\n      0x00\n      mstore\n      keccak256(0x00, 0x20)\n      swap1\n      0x05\n      mul\n      add\n        /* \"contracts/Hometask.sol\":1509:1548  Student storage _student = students[id] */\n      swap1\n      pop\n        /* \"contracts/Hometask.sol\":1586:1591  false */\n      0x00\n        /* \"contracts/Hometask.sol\":1563:1591  _student.sheetsDone == false */\n      iszero\n      iszero\n        /* \"contracts/Hometask.sol\":1563:1571  _student */\n      dup2\n        /* \"contracts/Hometask.sol\":1563:1582  _student.sheetsDone */\n      0x02\n      add\n      0x00\n      swap1\n      sload\n      swap1\n      0x0100\n      exp\n      swap1\n      div\n      0xff\n      and\n        /* \"contracts/Hometask.sol\":1563:1591  _student.sheetsDone == false */\n      iszero\n      iszero\n      eq\n        /* \"contracts/Hometask.sol\":1559:1671  if (_student.sheetsDone == false)\r... */\n      iszero\n      tag_18\n      jumpi\n        /* \"contracts/Hometask.sol\":1622:1659  SummonsToArmyGiven(_student.fullName) */\n      0xd53ecb21746e36da81ddab5bdcf35c93b4e7adb500e38a0ce440f729de177ac5\n        /* \"contracts/Hometask.sol\":1641:1649  _student */\n      dup2\n        /* \"contracts/Hometask.sol\":1641:1658  _student.fullName */\n      0x01\n      add\n        /* \"contracts/Hometask.sol\":1622:1659  SummonsToArmyGiven(_student.fullName) */\n      mload(0x40)\n      tag_19\n      swap2\n      swap1\n      tag_20\n      jump\t// in\n    tag_19:\n      mload(0x40)\n      dup1\n      swap2\n      sub\n      swap1\n      log1\n        /* \"contracts/Hometask.sol\":1559:1671  if (_student.sheetsDone == false)\r... */\n    tag_18:\n        /* \"contracts/Hometask.sol\":1708:1713  false */\n      0x00\n        /* \"contracts/Hometask.sol\":1687:1713  _student.roomDone == false */\n      iszero\n      iszero\n        /* \"contracts/Hometask.sol\":1687:1695  _student */\n      dup2\n        /* \"contracts/Hometask.sol\":1687:1704  _student.roomDone */\n      0x02\n      add\n      0x01\n      swap1\n      sload\n      swap1\n      0x0100\n      exp\n      swap1\n      div\n      0xff\n      and\n        /* \"contracts/Hometask.sol\":1687:1713  _student.roomDone == false */\n      iszero\n      iszero\n      eq\n        /* \"contracts/Hometask.sol\":1683:1793  if (_student.roomDone == false)\r... */\n      iszero\n      tag_21\n      jumpi\n        /* \"contracts/Hometask.sol\":1744:1781  SummonsToArmyGiven(_student.fullName) */\n      0xd53ecb21746e36da81ddab5bdcf35c93b4e7adb500e38a0ce440f729de177ac5\n        /* \"contracts/Hometask.sol\":1763:1771  _student */\n      dup2\n        /* \"contracts/Hometask.sol\":1763:1780  _student.fullName */\n      0x01\n      add\n        /* \"contracts/Hometask.sol\":1744:1781  SummonsToArmyGiven(_student.fullName) */\n      mload(0x40)\n      tag_22\n      swap2\n      swap1\n      tag_20\n      jump\t// in\n    tag_22:\n      mload(0x40)\n      dup1\n      swap2\n      sub\n      swap1\n      log1\n        /* \"contracts/Hometask.sol\":1683:1793  if (_student.roomDone == false)\r... */\n    tag_21:\n        /* \"contracts/Hometask.sol\":1831:1836  false */\n      0x00\n        /* \"contracts/Hometask.sol\":1809:1836  _student.booksDone == false */\n      iszero\n      iszero\n        /* \"contracts/Hometask.sol\":1809:1817  _student */\n      dup2\n        /* \"contracts/Hometask.sol\":1809:1827  _student.booksDone */\n      0x02\n      add\n      0x02\n      swap1\n      sload\n      swap1\n      0x0100\n      exp\n      swap1\n      div\n      0xff\n      and\n        /* \"contracts/Hometask.sol\":1809:1836  _student.booksDone == false */\n      iszero\n      iszero\n      eq\n        /* \"contracts/Hometask.sol\":1805:1916  if (_student.booksDone == false)\r... */\n      iszero\n      tag_23\n      jumpi\n        /* \"contracts/Hometask.sol\":1867:1904  SummonsToArmyGiven(_student.fullName) */\n      0xd53ecb21746e36da81ddab5bdcf35c93b4e7adb500e38a0ce440f729de177ac5\n        /* \"contracts/Hometask.sol\":1886:1894  _student */\n      dup2\n        /* \"contracts/Hometask.sol\":1886:1903  _student.fullName */\n      0x01\n      add\n        /* \"contracts/Hometask.sol\":1867:1904  SummonsToArmyGiven(_student.fullName) */\n      mload(0x40)\n      tag_24\n      swap2\n      swap1\n      tag_20\n      jump\t// in\n    tag_24:\n      mload(0x40)\n      dup1\n      swap2\n      sub\n      swap1\n      log1\n        /* \"contracts/Hometask.sol\":1805:1916  if (_student.booksDone == false)\r... */\n    tag_23:\n        /* \"contracts/Hometask.sol\":1962:1977  block.timestamp */\n      timestamp\n        /* \"contracts/Hometask.sol\":118:124  3 days */\n      0x03f480\n        /* \"contracts/Hometask.sol\":1932:1940  _student */\n      dup3\n        /* \"contracts/Hometask.sol\":1932:1948  _student.regDate */\n      0x03\n      add\n      sload\n        /* \"contracts/Hometask.sol\":1932:1959  _student.regDate + DURATION */\n      tag_25\n      swap2\n      swap1\n      tag_26\n      jump\t// in\n    tag_25:\n        /* \"contracts/Hometask.sol\":1932:1977  _student.regDate + DURATION > block.timestamp */\n      gt\n        /* \"contracts/Hometask.sol\":1928:2057  if (_student.regDate + DURATION > block.timestamp)\r... */\n      iszero\n      tag_27\n      jumpi\n        /* \"contracts/Hometask.sol\":2008:2045  SummonsToArmyGiven(_student.fullName) */\n      0xd53ecb21746e36da81ddab5bdcf35c93b4e7adb500e38a0ce440f729de177ac5\n        /* \"contracts/Hometask.sol\":2027:2035  _student */\n      dup2\n        /* \"contracts/Hometask.sol\":2027:2044  _student.fullName */\n      0x01\n      add\n        /* \"contracts/Hometask.sol\":2008:2045  SummonsToArmyGiven(_student.fullName) */\n      mload(0x40)\n      tag_28\n      swap2\n      swap1\n      tag_20\n      jump\t// in\n    tag_28:\n      mload(0x40)\n      dup1\n      swap2\n      sub\n      swap1\n      log1\n        /* \"contracts/Hometask.sol\":1928:2057  if (_student.regDate + DURATION > block.timestamp)\r... */\n    tag_27:\n        /* \"contracts/Hometask.sol\":2074:2124  StudentEvicted(_student.fullName, block.timestamp) */\n      0x6fd4822621c89040f0ea90264351e7f95d334eb76155286b2c1b6732331ff93c\n        /* \"contracts/Hometask.sol\":2089:2097  _student */\n      dup2\n        /* \"contracts/Hometask.sol\":2089:2106  _student.fullName */\n      0x01\n      add\n        /* \"contracts/Hometask.sol\":2108:2123  block.timestamp */\n      timestamp\n        /* \"contracts/Hometask.sol\":2074:2124  StudentEvicted(_student.fullName, block.timestamp) */\n      mload(0x40)\n      tag_29\n      swap3\n      swap2\n      swap1\n      tag_30\n      jump\t// in\n    tag_29:\n      mload(0x40)\n      dup1\n      swap2\n      sub\n      swap1\n      log1\n        /* \"contracts/Hometask.sol\":1498:2132  {\r... */\n      pop\n        /* \"contracts/Hometask.sol\":1460:2132  function debtsAreDone(uint id) public {\r... */\n      pop\n      jump\t// out\n        /* \"contracts/Hometask.sol\":782:1452  function addStudent(address _to, string calldata _name, bool _sheetsDone, bool _roomDone, bool _booksDone) public OwnerOnly(_to) {\r... */\n    tag_12:\n        /* \"contracts/Hometask.sol\":906:909  _to */\n      dup6\n        /* \"contracts/Hometask.sol\":663:668  owner */\n      0x00\n      dup1\n      sload\n      swap1\n      0x0100\n      exp\n      swap1\n      div\n      0xffffffffffffffffffffffffffffffffffffffff\n      and\n        /* \"contracts/Hometask.sol\":649:668  msg.sender == owner */\n      0xffffffffffffffffffffffffffffffffffffffff\n      and\n        /* \"contracts/Hometask.sol\":649:659  msg.sender */\n      caller\n        /* \"contracts/Hometask.sol\":649:668  msg.sender == owner */\n      0xffffffffffffffffffffffffffffffffffffffff\n      and\n      eq\n        /* \"contracts/Hometask.sol\":641:695  require(msg.sender == owner, \"You are not the owner.\") */\n      tag_32\n      jumpi\n      mload(0x40)\n      0x08c379a000000000000000000000000000000000000000000000000000000000\n      dup2\n      mstore\n      0x04\n      add\n      tag_33\n      swap1\n      tag_34\n      jump\t// in\n    tag_33:\n      mload(0x40)\n      dup1\n      swap2\n      sub\n      swap1\n      revert\n    tag_32:\n        /* \"contracts/Hometask.sol\":729:730  0 */\n      0x00\n        /* \"contracts/Hometask.sol\":714:731  _to != address(0) */\n      0xffffffffffffffffffffffffffffffffffffffff\n      and\n        /* \"contracts/Hometask.sol\":714:717  _to */\n      dup2\n        /* \"contracts/Hometask.sol\":714:731  _to != address(0) */\n      0xffffffffffffffffffffffffffffffffffffffff\n      and\n      eq\n      iszero\n        /* \"contracts/Hometask.sol\":706:754  require(_to != address(0), \"Incorrect address!\") */\n      tag_35\n      jumpi\n      mload(0x40)\n      0x08c379a000000000000000000000000000000000000000000000000000000000\n      dup2\n      mstore\n      0x04\n      add\n      tag_36\n      swap1\n      tag_37\n      jump\t// in\n    tag_36:\n      mload(0x40)\n      dup1\n      swap2\n      sub\n      swap1\n      revert\n    tag_35:\n        /* \"contracts/Hometask.sol\":922:936  uint currentId */\n      0x00\n        /* \"contracts/Hometask.sol\":958:959  0 */\n      dup1\n        /* \"contracts/Hometask.sol\":939:947  students */\n      0x01\n        /* \"contracts/Hometask.sol\":939:954  students.length */\n      dup1\n      sload\n      swap1\n      pop\n        /* \"contracts/Hometask.sol\":939:959  students.length == 0 */\n      eq\n        /* \"contracts/Hometask.sol\":939:999  students.length == 0 ? students.length : students.length - 1 */\n      tag_39\n      jumpi\n        /* \"contracts/Hometask.sol\":998:999  1 */\n      0x01\n        /* \"contracts/Hometask.sol\":980:988  students */\n      dup1\n        /* \"contracts/Hometask.sol\":980:995  students.length */\n      dup1\n      sload\n      swap1\n      pop\n        /* \"contracts/Hometask.sol\":980:999  students.length - 1 */\n      tag_40\n      swap2\n      swap1\n      tag_41\n      jump\t// in\n    tag_40:\n        /* \"contracts/Hometask.sol\":939:999  students.length == 0 ? students.length : students.length - 1 */\n      jump(tag_42)\n    tag_39:\n        /* \"contracts/Hometask.sol\":962:970  students */\n      0x01\n        /* \"contracts/Hometask.sol\":962:977  students.length */\n      dup1\n      sload\n      swap1\n      pop\n        /* \"contracts/Hometask.sol\":939:999  students.length == 0 ? students.length : students.length - 1 */\n    tag_42:\n        /* \"contracts/Hometask.sol\":922:999  uint currentId = students.length == 0 ? students.length : students.length - 1 */\n      swap1\n      pop\n        /* \"contracts/Hometask.sol\":1012:1037  Student memory newStudent */\n      0x00\n        /* \"contracts/Hometask.sol\":1040:1320  Student({\r... */\n      mload(0x40)\n      dup1\n      0xe0\n      add\n      0x40\n      mstore\n      dup1\n        /* \"contracts/Hometask.sol\":1067:1076  currentId */\n      dup4\n        /* \"contracts/Hometask.sol\":1040:1320  Student({\r... */\n      dup2\n      mstore\n      0x20\n      add\n        /* \"contracts/Hometask.sol\":1101:1106  _name */\n      dup10\n      dup10\n        /* \"contracts/Hometask.sol\":1040:1320  Student({\r... */\n      dup1\n      dup1\n      0x1f\n      add\n      0x20\n      dup1\n      swap2\n      div\n      mul\n      0x20\n      add\n      mload(0x40)\n      swap1\n      dup2\n      add\n      0x40\n      mstore\n      dup1\n      swap4\n      swap3\n      swap2\n      swap1\n      dup2\n      dup2\n      mstore\n      0x20\n      add\n      dup4\n      dup4\n      dup1\n      dup3\n      dup5\n      calldatacopy\n      0x00\n      dup2\n      dup5\n      add\n      mstore\n      not(0x1f)\n      0x1f\n      dup3\n      add\n      and\n      swap1\n      pop\n      dup1\n      dup4\n      add\n      swap3\n      pop\n      pop\n      pop\n      pop\n      pop\n      pop\n      pop\n      dup2\n      mstore\n      0x20\n      add\n        /* \"contracts/Hometask.sol\":1133:1144  _sheetsDone */\n      dup8\n        /* \"contracts/Hometask.sol\":1040:1320  Student({\r... */\n      iszero\n      iszero\n      dup2\n      mstore\n      0x20\n      add\n        /* \"contracts/Hometask.sol\":1169:1178  _roomDone */\n      dup7\n        /* \"contracts/Hometask.sol\":1040:1320  Student({\r... */\n      iszero\n      iszero\n      dup2\n      mstore\n      0x20\n      add\n        /* \"contracts/Hometask.sol\":1204:1214  _booksDone */\n      dup6\n        /* \"contracts/Hometask.sol\":1040:1320  Student({\r... */\n      iszero\n      iszero\n      dup2\n      mstore\n      0x20\n      add\n        /* \"contracts/Hometask.sol\":1238:1253  block.timestamp */\n      timestamp\n        /* \"contracts/Hometask.sol\":1040:1320  Student({\r... */\n      dup2\n      mstore\n      0x20\n      add\n        /* \"contracts/Hometask.sol\":118:124  3 days */\n      0x03f480\n        /* \"contracts/Hometask.sol\":1282:1297  block.timestamp */\n      timestamp\n        /* \"contracts/Hometask.sol\":1282:1308  block.timestamp + DURATION */\n      tag_43\n      swap2\n      swap1\n      tag_26\n      jump\t// in\n    tag_43:\n        /* \"contracts/Hometask.sol\":1040:1320  Student({\r... */\n      dup2\n      mstore\n      pop\n        /* \"contracts/Hometask.sol\":1012:1320  Student memory newStudent = Student({\r... */\n      swap1\n      pop\n        /* \"contracts/Hometask.sol\":1333:1341  students */\n      0x01\n        /* \"contracts/Hometask.sol\":1347:1357  newStudent */\n      dup2\n        /* \"contracts/Hometask.sol\":1333:1358  students.push(newStudent) */\n      swap1\n      dup1\n      0x01\n      dup2\n      sload\n      add\n      dup1\n      dup3\n      sstore\n      dup1\n      swap2\n      pop\n      pop\n      0x01\n      swap1\n      sub\n      swap1\n      0x00\n      mstore\n      keccak256(0x00, 0x20)\n      swap1\n      0x05\n      mul\n      add\n      0x00\n      swap1\n      swap2\n      swap1\n      swap2\n      swap1\n      swap2\n      pop\n      0x00\n      dup3\n      add\n      mload\n      dup2\n      0x00\n      add\n      sstore\n      0x20\n      dup3\n      add\n      mload\n      dup2\n      0x01\n      add\n      swap1\n      dup1\n      mload\n      swap1\n      0x20\n      add\n      swap1\n      tag_45\n      swap3\n      swap2\n      swap1\n      tag_46\n      jump\t// in\n    tag_45:\n      pop\n      0x40\n      dup3\n      add\n      mload\n      dup2\n      0x02\n      add\n      exp(0x0100, 0x00)\n      dup2\n      sload\n      dup2\n      0xff\n      mul\n      not\n      and\n      swap1\n      dup4\n      iszero\n      iszero\n      mul\n      or\n      swap1\n      sstore\n      pop\n      0x60\n      dup3\n      add\n      mload\n      dup2\n      0x02\n      add\n      exp(0x0100, 0x01)\n      dup2\n      sload\n      dup2\n      0xff\n      mul\n      not\n      and\n      swap1\n      dup4\n      iszero\n      iszero\n      mul\n      or\n      swap1\n      sstore\n      pop\n      0x80\n      dup3\n      add\n      mload\n      dup2\n      0x02\n      add\n      exp(0x0100, 0x02)\n      dup2\n      sload\n      dup2\n      0xff\n      mul\n      not\n      and\n      swap1\n      dup4\n      iszero\n      iszero\n      mul\n      or\n      swap1\n      sstore\n      pop\n      0xa0\n      dup3\n      add\n      mload\n      dup2\n      0x03\n      add\n      sstore\n      0xc0\n      dup3\n      add\n      mload\n      dup2\n      0x04\n      add\n      sstore\n      pop\n      pop\n        /* \"contracts/Hometask.sol\":1376:1444  StudentAdded(newStudent.id, newStudent.fullName, newStudent.regDate) */\n      0xfafb7311fc57ca8a55073f63725e888b4250c799d77ae873970d65ac08c5917a\n        /* \"contracts/Hometask.sol\":1389:1399  newStudent */\n      dup2\n        /* \"contracts/Hometask.sol\":1389:1402  newStudent.id */\n      0x00\n      add\n      mload\n        /* \"contracts/Hometask.sol\":1404:1414  newStudent */\n      dup3\n        /* \"contracts/Hometask.sol\":1404:1423  newStudent.fullName */\n      0x20\n      add\n      mload\n        /* \"contracts/Hometask.sol\":1425:1435  newStudent */\n      dup4\n        /* \"contracts/Hometask.sol\":1425:1443  newStudent.regDate */\n      0xa0\n      add\n      mload\n        /* \"contracts/Hometask.sol\":1376:1444  StudentAdded(newStudent.id, newStudent.fullName, newStudent.regDate) */\n      mload(0x40)\n      tag_47\n      swap4\n      swap3\n      swap2\n      swap1\n      tag_48\n      jump\t// in\n    tag_47:\n      mload(0x40)\n      dup1\n      swap2\n      sub\n      swap1\n      log1\n        /* \"contracts/Hometask.sol\":911:1452  {\r... */\n      pop\n      pop\n        /* \"contracts/Hometask.sol\":782:1452  function addStudent(address _to, string calldata _name, bool _sheetsDone, bool _roomDone, bool _booksDone) public OwnerOnly(_to) {\r... */\n      pop\n      pop\n      pop\n      pop\n      pop\n      pop\n      pop\n      jump\t// out\n    tag_46:\n      dup3\n      dup1\n      sload\n      tag_49\n      swap1\n      tag_50\n      jump\t// in\n    tag_49:\n      swap1\n      0x00\n      mstore\n      keccak256(0x00, 0x20)\n      swap1\n      0x1f\n      add\n      0x20\n      swap1\n      div\n      dup2\n      add\n      swap3\n      dup3\n      tag_52\n      jumpi\n      0x00\n      dup6\n      sstore\n      jump(tag_51)\n    tag_52:\n      dup3\n      0x1f\n      lt\n      tag_53\n      jumpi\n      dup1\n      mload\n      not(0xff)\n      and\n      dup4\n      dup1\n      add\n      or\n      dup6\n      sstore\n      jump(tag_51)\n    tag_53:\n      dup3\n      dup1\n      add\n      0x01\n      add\n      dup6\n      sstore\n      dup3\n      iszero\n      tag_51\n      jumpi\n      swap2\n      dup3\n      add\n    tag_54:\n      dup3\n      dup2\n      gt\n      iszero\n      tag_55\n      jumpi\n      dup3\n      mload\n      dup3\n      sstore\n      swap2\n      0x20\n      add\n      swap2\n      swap1\n      0x01\n      add\n      swap1\n      jump(tag_54)\n    tag_55:\n    tag_51:\n      pop\n      swap1\n      pop\n      tag_56\n      swap2\n      swap1\n      tag_57\n      jump\t// in\n    tag_56:\n      pop\n      swap1\n      jump\t// out\n    tag_57:\n    tag_58:\n      dup1\n      dup3\n      gt\n      iszero\n      tag_59\n      jumpi\n      0x00\n      dup2\n      0x00\n      swap1\n      sstore\n      pop\n      0x01\n      add\n      jump(tag_58)\n    tag_59:\n      pop\n      swap1\n      jump\t// out\n        /* \"#utility.yul\":7:146   */\n    tag_61:\n        /* \"#utility.yul\":53:58   */\n      0x00\n        /* \"#utility.yul\":91:97   */\n      dup2\n        /* \"#utility.yul\":78:98   */\n      calldataload\n        /* \"#utility.yul\":69:98   */\n      swap1\n      pop\n        /* \"#utility.yul\":107:140   */\n      tag_63\n        /* \"#utility.yul\":134:139   */\n      dup2\n        /* \"#utility.yul\":107:140   */\n      tag_64\n      jump\t// in\n    tag_63:\n        /* \"#utility.yul\":7:146   */\n      swap3\n      swap2\n      pop\n      pop\n      jump\t// out\n        /* \"#utility.yul\":152:285   */\n    tag_65:\n        /* \"#utility.yul\":195:200   */\n      0x00\n        /* \"#utility.yul\":233:239   */\n      dup2\n        /* \"#utility.yul\":220:240   */\n      calldataload\n        /* \"#utility.yul\":211:240   */\n      swap1\n      pop\n        /* \"#utility.yul\":249:279   */\n      tag_67\n        /* \"#utility.yul\":273:278   */\n      dup2\n        /* \"#utility.yul\":249:279   */\n      tag_68\n      jump\t// in\n    tag_67:\n        /* \"#utility.yul\":152:285   */\n      swap3\n      swap2\n      pop\n      pop\n      jump\t// out\n        /* \"#utility.yul\":305:858   */\n    tag_69:\n        /* \"#utility.yul\":363:371   */\n      0x00\n        /* \"#utility.yul\":373:379   */\n      dup1\n        /* \"#utility.yul\":423:426   */\n      dup4\n        /* \"#utility.yul\":416:420   */\n      0x1f\n        /* \"#utility.yul\":408:414   */\n      dup5\n        /* \"#utility.yul\":404:421   */\n      add\n        /* \"#utility.yul\":400:427   */\n      slt\n        /* \"#utility.yul\":390:512   */\n      tag_71\n      jumpi\n        /* \"#utility.yul\":431:510   */\n      tag_72\n      tag_73\n      jump\t// in\n    tag_72:\n        /* \"#utility.yul\":390:512   */\n    tag_71:\n        /* \"#utility.yul\":544:550   */\n      dup3\n        /* \"#utility.yul\":531:551   */\n      calldataload\n        /* \"#utility.yul\":521:551   */\n      swap1\n      pop\n        /* \"#utility.yul\":574:592   */\n      0xffffffffffffffff\n        /* \"#utility.yul\":566:572   */\n      dup2\n        /* \"#utility.yul\":563:593   */\n      gt\n        /* \"#utility.yul\":560:677   */\n      iszero\n      tag_74\n      jumpi\n        /* \"#utility.yul\":596:675   */\n      tag_75\n      tag_76\n      jump\t// in\n    tag_75:\n        /* \"#utility.yul\":560:677   */\n    tag_74:\n        /* \"#utility.yul\":710:714   */\n      0x20\n        /* \"#utility.yul\":702:708   */\n      dup4\n        /* \"#utility.yul\":698:715   */\n      add\n        /* \"#utility.yul\":686:715   */\n      swap2\n      pop\n        /* \"#utility.yul\":764:767   */\n      dup4\n        /* \"#utility.yul\":756:760   */\n      0x01\n        /* \"#utility.yul\":748:754   */\n      dup3\n        /* \"#utility.yul\":744:761   */\n      mul\n        /* \"#utility.yul\":734:742   */\n      dup4\n        /* \"#utility.yul\":730:762   */\n      add\n        /* \"#utility.yul\":727:768   */\n      gt\n        /* \"#utility.yul\":724:852   */\n      iszero\n      tag_77\n      jumpi\n        /* \"#utility.yul\":771:850   */\n      tag_78\n      tag_79\n      jump\t// in\n    tag_78:\n        /* \"#utility.yul\":724:852   */\n    tag_77:\n        /* \"#utility.yul\":305:858   */\n      swap3\n      pop\n      swap3\n      swap1\n      pop\n      jump\t// out\n        /* \"#utility.yul\":864:1003   */\n    tag_80:\n        /* \"#utility.yul\":910:915   */\n      0x00\n        /* \"#utility.yul\":948:954   */\n      dup2\n        /* \"#utility.yul\":935:955   */\n      calldataload\n        /* \"#utility.yul\":926:955   */\n      swap1\n      pop\n        /* \"#utility.yul\":964:997   */\n      tag_82\n        /* \"#utility.yul\":991:996   */\n      dup2\n        /* \"#utility.yul\":964:997   */\n      tag_83\n      jump\t// in\n    tag_82:\n        /* \"#utility.yul\":864:1003   */\n      swap3\n      swap2\n      pop\n      pop\n      jump\t// out\n        /* \"#utility.yul\":1009:2102   */\n    tag_11:\n        /* \"#utility.yul\":1107:1113   */\n      0x00\n        /* \"#utility.yul\":1115:1121   */\n      dup1\n        /* \"#utility.yul\":1123:1129   */\n      0x00\n        /* \"#utility.yul\":1131:1137   */\n      dup1\n        /* \"#utility.yul\":1139:1145   */\n      0x00\n        /* \"#utility.yul\":1147:1153   */\n      dup1\n        /* \"#utility.yul\":1196:1199   */\n      0xa0\n        /* \"#utility.yul\":1184:1193   */\n      dup8\n        /* \"#utility.yul\":1175:1182   */\n      dup10\n        /* \"#utility.yul\":1171:1194   */\n      sub\n        /* \"#utility.yul\":1167:1200   */\n      slt\n        /* \"#utility.yul\":1164:1284   */\n      iszero\n      tag_85\n      jumpi\n        /* \"#utility.yul\":1203:1282   */\n      tag_86\n      tag_87\n      jump\t// in\n    tag_86:\n        /* \"#utility.yul\":1164:1284   */\n    tag_85:\n        /* \"#utility.yul\":1323:1324   */\n      0x00\n        /* \"#utility.yul\":1348:1401   */\n      tag_88\n        /* \"#utility.yul\":1393:1400   */\n      dup10\n        /* \"#utility.yul\":1384:1390   */\n      dup3\n        /* \"#utility.yul\":1373:1382   */\n      dup11\n        /* \"#utility.yul\":1369:1391   */\n      add\n        /* \"#utility.yul\":1348:1401   */\n      tag_61\n      jump\t// in\n    tag_88:\n        /* \"#utility.yul\":1338:1401   */\n      swap7\n      pop\n        /* \"#utility.yul\":1294:1411   */\n      pop\n        /* \"#utility.yul\":1478:1480   */\n      0x20\n        /* \"#utility.yul\":1467:1476   */\n      dup8\n        /* \"#utility.yul\":1463:1481   */\n      add\n        /* \"#utility.yul\":1450:1482   */\n      calldataload\n        /* \"#utility.yul\":1509:1527   */\n      0xffffffffffffffff\n        /* \"#utility.yul\":1501:1507   */\n      dup2\n        /* \"#utility.yul\":1498:1528   */\n      gt\n        /* \"#utility.yul\":1495:1612   */\n      iszero\n      tag_89\n      jumpi\n        /* \"#utility.yul\":1531:1610   */\n      tag_90\n      tag_91\n      jump\t// in\n    tag_90:\n        /* \"#utility.yul\":1495:1612   */\n    tag_89:\n        /* \"#utility.yul\":1644:1709   */\n      tag_92\n        /* \"#utility.yul\":1701:1708   */\n      dup10\n        /* \"#utility.yul\":1692:1698   */\n      dup3\n        /* \"#utility.yul\":1681:1690   */\n      dup11\n        /* \"#utility.yul\":1677:1699   */\n      add\n        /* \"#utility.yul\":1644:1709   */\n      tag_69\n      jump\t// in\n    tag_92:\n        /* \"#utility.yul\":1626:1709   */\n      swap6\n      pop\n      swap6\n      pop\n        /* \"#utility.yul\":1421:1719   */\n      pop\n        /* \"#utility.yul\":1758:1760   */\n      0x40\n        /* \"#utility.yul\":1784:1834   */\n      tag_93\n        /* \"#utility.yul\":1826:1833   */\n      dup10\n        /* \"#utility.yul\":1817:1823   */\n      dup3\n        /* \"#utility.yul\":1806:1815   */\n      dup11\n        /* \"#utility.yul\":1802:1824   */\n      add\n        /* \"#utility.yul\":1784:1834   */\n      tag_65\n      jump\t// in\n    tag_93:\n        /* \"#utility.yul\":1774:1834   */\n      swap4\n      pop\n        /* \"#utility.yul\":1729:1844   */\n      pop\n        /* \"#utility.yul\":1883:1885   */\n      0x60\n        /* \"#utility.yul\":1909:1959   */\n      tag_94\n        /* \"#utility.yul\":1951:1958   */\n      dup10\n        /* \"#utility.yul\":1942:1948   */\n      dup3\n        /* \"#utility.yul\":1931:1940   */\n      dup11\n        /* \"#utility.yul\":1927:1949   */\n      add\n        /* \"#utility.yul\":1909:1959   */\n      tag_65\n      jump\t// in\n    tag_94:\n        /* \"#utility.yul\":1899:1959   */\n      swap3\n      pop\n        /* \"#utility.yul\":1854:1969   */\n      pop\n        /* \"#utility.yul\":2008:2011   */\n      0x80\n        /* \"#utility.yul\":2035:2085   */\n      tag_95\n        /* \"#utility.yul\":2077:2084   */\n      dup10\n        /* \"#utility.yul\":2068:2074   */\n      dup3\n        /* \"#utility.yul\":2057:2066   */\n      dup11\n        /* \"#utility.yul\":2053:2075   */\n      add\n        /* \"#utility.yul\":2035:2085   */\n      tag_65\n      jump\t// in\n    tag_95:\n        /* \"#utility.yul\":2025:2085   */\n      swap2\n      pop\n        /* \"#utility.yul\":1979:2095   */\n      pop\n        /* \"#utility.yul\":1009:2102   */\n      swap3\n      swap6\n      pop\n      swap3\n      swap6\n      pop\n      swap3\n      swap6\n      jump\t// out\n        /* \"#utility.yul\":2108:2437   */\n    tag_7:\n        /* \"#utility.yul\":2167:2173   */\n      0x00\n        /* \"#utility.yul\":2216:2218   */\n      0x20\n        /* \"#utility.yul\":2204:2213   */\n      dup3\n        /* \"#utility.yul\":2195:2202   */\n      dup5\n        /* \"#utility.yul\":2191:2214   */\n      sub\n        /* \"#utility.yul\":2187:2219   */\n      slt\n        /* \"#utility.yul\":2184:2303   */\n      iszero\n      tag_97\n      jumpi\n        /* \"#utility.yul\":2222:2301   */\n      tag_98\n      tag_87\n      jump\t// in\n    tag_98:\n        /* \"#utility.yul\":2184:2303   */\n    tag_97:\n        /* \"#utility.yul\":2342:2343   */\n      0x00\n        /* \"#utility.yul\":2367:2420   */\n      tag_99\n        /* \"#utility.yul\":2412:2419   */\n      dup5\n        /* \"#utility.yul\":2403:2409   */\n      dup3\n        /* \"#utility.yul\":2392:2401   */\n      dup6\n        /* \"#utility.yul\":2388:2410   */\n      add\n        /* \"#utility.yul\":2367:2420   */\n      tag_80\n      jump\t// in\n    tag_99:\n        /* \"#utility.yul\":2357:2420   */\n      swap2\n      pop\n        /* \"#utility.yul\":2313:2430   */\n      pop\n        /* \"#utility.yul\":2108:2437   */\n      swap3\n      swap2\n      pop\n      pop\n      jump\t// out\n        /* \"#utility.yul\":2443:2807   */\n    tag_100:\n        /* \"#utility.yul\":2531:2534   */\n      0x00\n        /* \"#utility.yul\":2559:2598   */\n      tag_102\n        /* \"#utility.yul\":2592:2597   */\n      dup3\n        /* \"#utility.yul\":2559:2598   */\n      tag_103\n      jump\t// in\n    tag_102:\n        /* \"#utility.yul\":2614:2685   */\n      tag_104\n        /* \"#utility.yul\":2678:2684   */\n      dup2\n        /* \"#utility.yul\":2673:2676   */\n      dup6\n        /* \"#utility.yul\":2614:2685   */\n      tag_105\n      jump\t// in\n    tag_104:\n        /* \"#utility.yul\":2607:2685   */\n      swap4\n      pop\n        /* \"#utility.yul\":2694:2746   */\n      tag_106\n        /* \"#utility.yul\":2739:2745   */\n      dup2\n        /* \"#utility.yul\":2734:2737   */\n      dup6\n        /* \"#utility.yul\":2727:2731   */\n      0x20\n        /* \"#utility.yul\":2720:2725   */\n      dup7\n        /* \"#utility.yul\":2716:2732   */\n      add\n        /* \"#utility.yul\":2694:2746   */\n      tag_107\n      jump\t// in\n    tag_106:\n        /* \"#utility.yul\":2771:2800   */\n      tag_108\n        /* \"#utility.yul\":2793:2799   */\n      dup2\n        /* \"#utility.yul\":2771:2800   */\n      tag_109\n      jump\t// in\n    tag_108:\n        /* \"#utility.yul\":2766:2769   */\n      dup5\n        /* \"#utility.yul\":2762:2801   */\n      add\n        /* \"#utility.yul\":2755:2801   */\n      swap2\n      pop\n        /* \"#utility.yul\":2535:2807   */\n      pop\n        /* \"#utility.yul\":2443:2807   */\n      swap3\n      swap2\n      pop\n      pop\n      jump\t// out\n        /* \"#utility.yul\":2837:3639   */\n    tag_110:\n        /* \"#utility.yul\":2922:2925   */\n      0x00\n        /* \"#utility.yul\":2959:2964   */\n      dup2\n        /* \"#utility.yul\":2953:2965   */\n      sload\n        /* \"#utility.yul\":2988:3024   */\n      tag_112\n        /* \"#utility.yul\":3014:3023   */\n      dup2\n        /* \"#utility.yul\":2988:3024   */\n      tag_50\n      jump\t// in\n    tag_112:\n        /* \"#utility.yul\":3040:3111   */\n      tag_113\n        /* \"#utility.yul\":3104:3110   */\n      dup2\n        /* \"#utility.yul\":3099:3102   */\n      dup7\n        /* \"#utility.yul\":3040:3111   */\n      tag_105\n      jump\t// in\n    tag_113:\n        /* \"#utility.yul\":3033:3111   */\n      swap5\n      pop\n        /* \"#utility.yul\":3142:3143   */\n      0x01\n        /* \"#utility.yul\":3131:3140   */\n      dup3\n        /* \"#utility.yul\":3127:3144   */\n      and\n        /* \"#utility.yul\":3158:3159   */\n      0x00\n        /* \"#utility.yul\":3153:3288   */\n      dup2\n      eq\n      tag_115\n      jumpi\n        /* \"#utility.yul\":3302:3303   */\n      0x01\n        /* \"#utility.yul\":3297:3633   */\n      dup2\n      eq\n      tag_116\n      jumpi\n        /* \"#utility.yul\":3120:3633   */\n      jump(tag_114)\n        /* \"#utility.yul\":3153:3288   */\n    tag_115:\n        /* \"#utility.yul\":3237:3241   */\n      0xff\n        /* \"#utility.yul\":3233:3242   */\n      not\n        /* \"#utility.yul\":3222:3231   */\n      dup4\n        /* \"#utility.yul\":3218:3243   */\n      and\n        /* \"#utility.yul\":3213:3216   */\n      dup7\n        /* \"#utility.yul\":3206:3244   */\n      mstore\n        /* \"#utility.yul\":3273:3277   */\n      0x20\n        /* \"#utility.yul\":3268:3271   */\n      dup7\n        /* \"#utility.yul\":3264:3278   */\n      add\n        /* \"#utility.yul\":3257:3278   */\n      swap4\n      pop\n        /* \"#utility.yul\":3153:3288   */\n      jump(tag_114)\n        /* \"#utility.yul\":3297:3633   */\n    tag_116:\n        /* \"#utility.yul\":3364:3402   */\n      tag_117\n        /* \"#utility.yul\":3396:3401   */\n      dup6\n        /* \"#utility.yul\":3364:3402   */\n      tag_118\n      jump\t// in\n    tag_117:\n        /* \"#utility.yul\":3424:3425   */\n      0x00\n        /* \"#utility.yul\":3438:3592   */\n    tag_119:\n        /* \"#utility.yul\":3452:3458   */\n      dup4\n        /* \"#utility.yul\":3449:3450   */\n      dup2\n        /* \"#utility.yul\":3446:3459   */\n      lt\n        /* \"#utility.yul\":3438:3592   */\n      iszero\n      tag_121\n      jumpi\n        /* \"#utility.yul\":3526:3533   */\n      dup2\n        /* \"#utility.yul\":3520:3534   */\n      sload\n        /* \"#utility.yul\":3516:3517   */\n      dup2\n        /* \"#utility.yul\":3511:3514   */\n      dup10\n        /* \"#utility.yul\":3507:3518   */\n      add\n        /* \"#utility.yul\":3500:3535   */\n      mstore\n        /* \"#utility.yul\":3576:3577   */\n      0x01\n        /* \"#utility.yul\":3567:3574   */\n      dup3\n        /* \"#utility.yul\":3563:3578   */\n      add\n        /* \"#utility.yul\":3552:3578   */\n      swap2\n      pop\n        /* \"#utility.yul\":3474:3478   */\n      0x20\n        /* \"#utility.yul\":3471:3472   */\n      dup2\n        /* \"#utility.yul\":3467:3479   */\n      add\n        /* \"#utility.yul\":3462:3479   */\n      swap1\n      pop\n        /* \"#utility.yul\":3438:3592   */\n      jump(tag_119)\n    tag_121:\n        /* \"#utility.yul\":3621:3622   */\n      dup1\n        /* \"#utility.yul\":3616:3619   */\n      dup9\n        /* \"#utility.yul\":3612:3623   */\n      add\n        /* \"#utility.yul\":3605:3623   */\n      swap6\n      pop\n        /* \"#utility.yul\":3304:3633   */\n      pop\n      pop\n        /* \"#utility.yul\":3120:3633   */\n    tag_114:\n      pop\n        /* \"#utility.yul\":2926:3639   */\n      pop\n      pop\n        /* \"#utility.yul\":2837:3639   */\n      swap3\n      swap2\n      pop\n      pop\n      jump\t// out\n        /* \"#utility.yul\":3645:4011   */\n    tag_122:\n        /* \"#utility.yul\":3787:3790   */\n      0x00\n        /* \"#utility.yul\":3808:3875   */\n      tag_124\n        /* \"#utility.yul\":3872:3874   */\n      0x16\n        /* \"#utility.yul\":3867:3870   */\n      dup4\n        /* \"#utility.yul\":3808:3875   */\n      tag_105\n      jump\t// in\n    tag_124:\n        /* \"#utility.yul\":3801:3875   */\n      swap2\n      pop\n        /* \"#utility.yul\":3884:3977   */\n      tag_125\n        /* \"#utility.yul\":3973:3976   */\n      dup3\n        /* \"#utility.yul\":3884:3977   */\n      tag_126\n      jump\t// in\n    tag_125:\n        /* \"#utility.yul\":4002:4004   */\n      0x20\n        /* \"#utility.yul\":3997:4000   */\n      dup3\n        /* \"#utility.yul\":3993:4005   */\n      add\n        /* \"#utility.yul\":3986:4005   */\n      swap1\n      pop\n        /* \"#utility.yul\":3645:4011   */\n      swap2\n      swap1\n      pop\n      jump\t// out\n        /* \"#utility.yul\":4017:4383   */\n    tag_127:\n        /* \"#utility.yul\":4159:4162   */\n      0x00\n        /* \"#utility.yul\":4180:4247   */\n      tag_129\n        /* \"#utility.yul\":4244:4246   */\n      0x12\n        /* \"#utility.yul\":4239:4242   */\n      dup4\n        /* \"#utility.yul\":4180:4247   */\n      tag_105\n      jump\t// in\n    tag_129:\n        /* \"#utility.yul\":4173:4247   */\n      swap2\n      pop\n        /* \"#utility.yul\":4256:4349   */\n      tag_130\n        /* \"#utility.yul\":4345:4348   */\n      dup3\n        /* \"#utility.yul\":4256:4349   */\n      tag_131\n      jump\t// in\n    tag_130:\n        /* \"#utility.yul\":4374:4376   */\n      0x20\n        /* \"#utility.yul\":4369:4372   */\n      dup3\n        /* \"#utility.yul\":4365:4377   */\n      add\n        /* \"#utility.yul\":4358:4377   */\n      swap1\n      pop\n        /* \"#utility.yul\":4017:4383   */\n      swap2\n      swap1\n      pop\n      jump\t// out\n        /* \"#utility.yul\":4389:4507   */\n    tag_132:\n        /* \"#utility.yul\":4476:4500   */\n      tag_134\n        /* \"#utility.yul\":4494:4499   */\n      dup2\n        /* \"#utility.yul\":4476:4500   */\n      tag_135\n      jump\t// in\n    tag_134:\n        /* \"#utility.yul\":4471:4474   */\n      dup3\n        /* \"#utility.yul\":4464:4501   */\n      mstore\n        /* \"#utility.yul\":4389:4507   */\n      pop\n      pop\n      jump\t// out\n        /* \"#utility.yul\":4513:4820   */\n    tag_20:\n        /* \"#utility.yul\":4623:4627   */\n      0x00\n        /* \"#utility.yul\":4661:4663   */\n      0x20\n        /* \"#utility.yul\":4650:4659   */\n      dup3\n        /* \"#utility.yul\":4646:4664   */\n      add\n        /* \"#utility.yul\":4638:4664   */\n      swap1\n      pop\n        /* \"#utility.yul\":4710:4719   */\n      dup2\n        /* \"#utility.yul\":4704:4708   */\n      dup2\n        /* \"#utility.yul\":4700:4720   */\n      sub\n        /* \"#utility.yul\":4696:4697   */\n      0x00\n        /* \"#utility.yul\":4685:4694   */\n      dup4\n        /* \"#utility.yul\":4681:4698   */\n      add\n        /* \"#utility.yul\":4674:4721   */\n      mstore\n        /* \"#utility.yul\":4738:4813   */\n      tag_137\n        /* \"#utility.yul\":4808:4812   */\n      dup2\n        /* \"#utility.yul\":4799:4805   */\n      dup5\n        /* \"#utility.yul\":4738:4813   */\n      tag_110\n      jump\t// in\n    tag_137:\n        /* \"#utility.yul\":4730:4813   */\n      swap1\n      pop\n        /* \"#utility.yul\":4513:4820   */\n      swap3\n      swap2\n      pop\n      pop\n      jump\t// out\n        /* \"#utility.yul\":4826:5243   */\n    tag_30:\n        /* \"#utility.yul\":4964:4968   */\n      0x00\n        /* \"#utility.yul\":5002:5004   */\n      0x40\n        /* \"#utility.yul\":4991:5000   */\n      dup3\n        /* \"#utility.yul\":4987:5005   */\n      add\n        /* \"#utility.yul\":4979:5005   */\n      swap1\n      pop\n        /* \"#utility.yul\":5051:5060   */\n      dup2\n        /* \"#utility.yul\":5045:5049   */\n      dup2\n        /* \"#utility.yul\":5041:5061   */\n      sub\n        /* \"#utility.yul\":5037:5038   */\n      0x00\n        /* \"#utility.yul\":5026:5035   */\n      dup4\n        /* \"#utility.yul\":5022:5039   */\n      add\n        /* \"#utility.yul\":5015:5062   */\n      mstore\n        /* \"#utility.yul\":5079:5154   */\n      tag_139\n        /* \"#utility.yul\":5149:5153   */\n      dup2\n        /* \"#utility.yul\":5140:5146   */\n      dup6\n        /* \"#utility.yul\":5079:5154   */\n      tag_110\n      jump\t// in\n    tag_139:\n        /* \"#utility.yul\":5071:5154   */\n      swap1\n      pop\n        /* \"#utility.yul\":5164:5236   */\n      tag_140\n        /* \"#utility.yul\":5232:5234   */\n      0x20\n        /* \"#utility.yul\":5221:5230   */\n      dup4\n        /* \"#utility.yul\":5217:5235   */\n      add\n        /* \"#utility.yul\":5208:5214   */\n      dup5\n        /* \"#utility.yul\":5164:5236   */\n      tag_132\n      jump\t// in\n    tag_140:\n        /* \"#utility.yul\":4826:5243   */\n      swap4\n      swap3\n      pop\n      pop\n      pop\n      jump\t// out\n        /* \"#utility.yul\":5249:5668   */\n    tag_34:\n        /* \"#utility.yul\":5415:5419   */\n      0x00\n        /* \"#utility.yul\":5453:5455   */\n      0x20\n        /* \"#utility.yul\":5442:5451   */\n      dup3\n        /* \"#utility.yul\":5438:5456   */\n      add\n        /* \"#utility.yul\":5430:5456   */\n      swap1\n      pop\n        /* \"#utility.yul\":5502:5511   */\n      dup2\n        /* \"#utility.yul\":5496:5500   */\n      dup2\n        /* \"#utility.yul\":5492:5512   */\n      sub\n        /* \"#utility.yul\":5488:5489   */\n      0x00\n        /* \"#utility.yul\":5477:5486   */\n      dup4\n        /* \"#utility.yul\":5473:5490   */\n      add\n        /* \"#utility.yul\":5466:5513   */\n      mstore\n        /* \"#utility.yul\":5530:5661   */\n      tag_142\n        /* \"#utility.yul\":5656:5660   */\n      dup2\n        /* \"#utility.yul\":5530:5661   */\n      tag_122\n      jump\t// in\n    tag_142:\n        /* \"#utility.yul\":5522:5661   */\n      swap1\n      pop\n        /* \"#utility.yul\":5249:5668   */\n      swap2\n      swap1\n      pop\n      jump\t// out\n        /* \"#utility.yul\":5674:6093   */\n    tag_37:\n        /* \"#utility.yul\":5840:5844   */\n      0x00\n        /* \"#utility.yul\":5878:5880   */\n      0x20\n        /* \"#utility.yul\":5867:5876   */\n      dup3\n        /* \"#utility.yul\":5863:5881   */\n      add\n        /* \"#utility.yul\":5855:5881   */\n      swap1\n      pop\n        /* \"#utility.yul\":5927:5936   */\n      dup2\n        /* \"#utility.yul\":5921:5925   */\n      dup2\n        /* \"#utility.yul\":5917:5937   */\n      sub\n        /* \"#utility.yul\":5913:5914   */\n      0x00\n        /* \"#utility.yul\":5902:5911   */\n      dup4\n        /* \"#utility.yul\":5898:5915   */\n      add\n        /* \"#utility.yul\":5891:5938   */\n      mstore\n        /* \"#utility.yul\":5955:6086   */\n      tag_144\n        /* \"#utility.yul\":6081:6085   */\n      dup2\n        /* \"#utility.yul\":5955:6086   */\n      tag_127\n      jump\t// in\n    tag_144:\n        /* \"#utility.yul\":5947:6086   */\n      swap1\n      pop\n        /* \"#utility.yul\":5674:6093   */\n      swap2\n      swap1\n      pop\n      jump\t// out\n        /* \"#utility.yul\":6099:6632   */\n    tag_48:\n        /* \"#utility.yul\":6268:6272   */\n      0x00\n        /* \"#utility.yul\":6306:6308   */\n      0x60\n        /* \"#utility.yul\":6295:6304   */\n      dup3\n        /* \"#utility.yul\":6291:6309   */\n      add\n        /* \"#utility.yul\":6283:6309   */\n      swap1\n      pop\n        /* \"#utility.yul\":6319:6390   */\n      tag_146\n        /* \"#utility.yul\":6387:6388   */\n      0x00\n        /* \"#utility.yul\":6376:6385   */\n      dup4\n        /* \"#utility.yul\":6372:6389   */\n      add\n        /* \"#utility.yul\":6363:6369   */\n      dup7\n        /* \"#utility.yul\":6319:6390   */\n      tag_132\n      jump\t// in\n    tag_146:\n        /* \"#utility.yul\":6437:6446   */\n      dup2\n        /* \"#utility.yul\":6431:6435   */\n      dup2\n        /* \"#utility.yul\":6427:6447   */\n      sub\n        /* \"#utility.yul\":6422:6424   */\n      0x20\n        /* \"#utility.yul\":6411:6420   */\n      dup4\n        /* \"#utility.yul\":6407:6425   */\n      add\n        /* \"#utility.yul\":6400:6448   */\n      mstore\n        /* \"#utility.yul\":6465:6543   */\n      tag_147\n        /* \"#utility.yul\":6538:6542   */\n      dup2\n        /* \"#utility.yul\":6529:6535   */\n      dup6\n        /* \"#utility.yul\":6465:6543   */\n      tag_100\n      jump\t// in\n    tag_147:\n        /* \"#utility.yul\":6457:6543   */\n      swap1\n      pop\n        /* \"#utility.yul\":6553:6625   */\n      tag_148\n        /* \"#utility.yul\":6621:6623   */\n      0x40\n        /* \"#utility.yul\":6610:6619   */\n      dup4\n        /* \"#utility.yul\":6606:6624   */\n      add\n        /* \"#utility.yul\":6597:6603   */\n      dup5\n        /* \"#utility.yul\":6553:6625   */\n      tag_132\n      jump\t// in\n    tag_148:\n        /* \"#utility.yul\":6099:6632   */\n      swap5\n      swap4\n      pop\n      pop\n      pop\n      pop\n      jump\t// out\n        /* \"#utility.yul\":6719:6860   */\n    tag_118:\n        /* \"#utility.yul\":6768:6772   */\n      0x00\n        /* \"#utility.yul\":6791:6794   */\n      dup2\n        /* \"#utility.yul\":6783:6794   */\n      swap1\n      pop\n        /* \"#utility.yul\":6814:6817   */\n      dup2\n        /* \"#utility.yul\":6811:6812   */\n      0x00\n        /* \"#utility.yul\":6804:6818   */\n      mstore\n        /* \"#utility.yul\":6848:6852   */\n      0x20\n        /* \"#utility.yul\":6845:6846   */\n      0x00\n        /* \"#utility.yul\":6835:6853   */\n      keccak256\n        /* \"#utility.yul\":6827:6853   */\n      swap1\n      pop\n        /* \"#utility.yul\":6719:6860   */\n      swap2\n      swap1\n      pop\n      jump\t// out\n        /* \"#utility.yul\":6866:6965   */\n    tag_103:\n        /* \"#utility.yul\":6918:6924   */\n      0x00\n        /* \"#utility.yul\":6952:6957   */\n      dup2\n        /* \"#utility.yul\":6946:6958   */\n      mload\n        /* \"#utility.yul\":6936:6958   */\n      swap1\n      pop\n        /* \"#utility.yul\":6866:6965   */\n      swap2\n      swap1\n      pop\n      jump\t// out\n        /* \"#utility.yul\":6971:7140   */\n    tag_105:\n        /* \"#utility.yul\":7055:7066   */\n      0x00\n        /* \"#utility.yul\":7089:7095   */\n      dup3\n        /* \"#utility.yul\":7084:7087   */\n      dup3\n        /* \"#utility.yul\":7077:7096   */\n      mstore\n        /* \"#utility.yul\":7129:7133   */\n      0x20\n        /* \"#utility.yul\":7124:7127   */\n      dup3\n        /* \"#utility.yul\":7120:7134   */\n      add\n        /* \"#utility.yul\":7105:7134   */\n      swap1\n      pop\n        /* \"#utility.yul\":6971:7140   */\n      swap3\n      swap2\n      pop\n      pop\n      jump\t// out\n        /* \"#utility.yul\":7146:7451   */\n    tag_26:\n        /* \"#utility.yul\":7186:7189   */\n      0x00\n        /* \"#utility.yul\":7205:7225   */\n      tag_155\n        /* \"#utility.yul\":7223:7224   */\n      dup3\n        /* \"#utility.yul\":7205:7225   */\n      tag_135\n      jump\t// in\n    tag_155:\n        /* \"#utility.yul\":7200:7225   */\n      swap2\n      pop\n        /* \"#utility.yul\":7239:7259   */\n      tag_156\n        /* \"#utility.yul\":7257:7258   */\n      dup4\n        /* \"#utility.yul\":7239:7259   */\n      tag_135\n      jump\t// in\n    tag_156:\n        /* \"#utility.yul\":7234:7259   */\n      swap3\n      pop\n        /* \"#utility.yul\":7393:7394   */\n      dup3\n        /* \"#utility.yul\":7325:7391   */\n      0xffffffffffffffffffffffffffffffffffffffffffffffffffffffffffffffff\n        /* \"#utility.yul\":7321:7395   */\n      sub\n        /* \"#utility.yul\":7318:7319   */\n      dup3\n        /* \"#utility.yul\":7315:7396   */\n      gt\n        /* \"#utility.yul\":7312:7419   */\n      iszero\n      tag_157\n      jumpi\n        /* \"#utility.yul\":7399:7417   */\n      tag_158\n      tag_159\n      jump\t// in\n    tag_158:\n        /* \"#utility.yul\":7312:7419   */\n    tag_157:\n        /* \"#utility.yul\":7443:7444   */\n      dup3\n        /* \"#utility.yul\":7440:7441   */\n      dup3\n        /* \"#utility.yul\":7436:7445   */\n      add\n        /* \"#utility.yul\":7429:7445   */\n      swap1\n      pop\n        /* \"#utility.yul\":7146:7451   */\n      swap3\n      swap2\n      pop\n      pop\n      jump\t// out\n        /* \"#utility.yul\":7457:7648   */\n    tag_41:\n        /* \"#utility.yul\":7497:7501   */\n      0x00\n        /* \"#utility.yul\":7517:7537   */\n      tag_161\n        /* \"#utility.yul\":7535:7536   */\n      dup3\n        /* \"#utility.yul\":7517:7537   */\n      tag_135\n      jump\t// in\n    tag_161:\n        /* \"#utility.yul\":7512:7537   */\n      swap2\n      pop\n        /* \"#utility.yul\":7551:7571   */\n      tag_162\n        /* \"#utility.yul\":7569:7570   */\n      dup4\n        /* \"#utility.yul\":7551:7571   */\n      tag_135\n      jump\t// in\n    tag_162:\n        /* \"#utility.yul\":7546:7571   */\n      swap3\n      pop\n        /* \"#utility.yul\":7590:7591   */\n      dup3\n        /* \"#utility.yul\":7587:7588   */\n      dup3\n        /* \"#utility.yul\":7584:7592   */\n      lt\n        /* \"#utility.yul\":7581:7615   */\n      iszero\n      tag_163\n      jumpi\n        /* \"#utility.yul\":7595:7613   */\n      tag_164\n      tag_159\n      jump\t// in\n    tag_164:\n        /* \"#utility.yul\":7581:7615   */\n    tag_163:\n        /* \"#utility.yul\":7640:7641   */\n      dup3\n        /* \"#utility.yul\":7637:7638   */\n      dup3\n        /* \"#utility.yul\":7633:7642   */\n      sub\n        /* \"#utility.yul\":7625:7642   */\n      swap1\n      pop\n        /* \"#utility.yul\":7457:7648   */\n      swap3\n      swap2\n      pop\n      pop\n      jump\t// out\n        /* \"#utility.yul\":7654:7750   */\n    tag_165:\n        /* \"#utility.yul\":7691:7698   */\n      0x00\n        /* \"#utility.yul\":7720:7744   */\n      tag_167\n        /* \"#utility.yul\":7738:7743   */\n      dup3\n        /* \"#utility.yul\":7720:7744   */\n      tag_168\n      jump\t// in\n    tag_167:\n        /* \"#utility.yul\":7709:7744   */\n      swap1\n      pop\n        /* \"#utility.yul\":7654:7750   */\n      swap2\n      swap1\n      pop\n      jump\t// out\n        /* \"#utility.yul\":7756:7846   */\n    tag_169:\n        /* \"#utility.yul\":7790:7797   */\n      0x00\n        /* \"#utility.yul\":7833:7838   */\n      dup2\n        /* \"#utility.yul\":7826:7839   */\n      iszero\n        /* \"#utility.yul\":7819:7840   */\n      iszero\n        /* \"#utility.yul\":7808:7840   */\n      swap1\n      pop\n        /* \"#utility.yul\":7756:7846   */\n      swap2\n      swap1\n      pop\n      jump\t// out\n        /* \"#utility.yul\":7852:7978   */\n    tag_168:\n        /* \"#utility.yul\":7889:7896   */\n      0x00\n        /* \"#utility.yul\":7929:7971   */\n      0xffffffffffffffffffffffffffffffffffffffff\n        /* \"#utility.yul\":7922:7927   */\n      dup3\n        /* \"#utility.yul\":7918:7972   */\n      and\n        /* \"#utility.yul\":7907:7972   */\n      swap1\n      pop\n        /* \"#utility.yul\":7852:7978   */\n      swap2\n      swap1\n      pop\n      jump\t// out\n        /* \"#utility.yul\":7984:8061   */\n    tag_135:\n        /* \"#utility.yul\":8021:8028   */\n      0x00\n        /* \"#utility.yul\":8050:8055   */\n      dup2\n        /* \"#utility.yul\":8039:8055   */\n      swap1\n      pop\n        /* \"#utility.yul\":7984:8061   */\n      swap2\n      swap1\n      pop\n      jump\t// out\n        /* \"#utility.yul\":8067:8374   */\n    tag_107:\n        /* \"#utility.yul\":8135:8136   */\n      0x00\n        /* \"#utility.yul\":8145:8258   */\n    tag_174:\n        /* \"#utility.yul\":8159:8165   */\n      dup4\n        /* \"#utility.yul\":8156:8157   */\n      dup2\n        /* \"#utility.yul\":8153:8166   */\n      lt\n        /* \"#utility.yul\":8145:8258   */\n      iszero\n      tag_176\n      jumpi\n        /* \"#utility.yul\":8244:8245   */\n      dup1\n        /* \"#utility.yul\":8239:8242   */\n      dup3\n        /* \"#utility.yul\":8235:8246   */\n      add\n        /* \"#utility.yul\":8229:8247   */\n      mload\n        /* \"#utility.yul\":8225:8226   */\n      dup2\n        /* \"#utility.yul\":8220:8223   */\n      dup5\n        /* \"#utility.yul\":8216:8227   */\n      add\n        /* \"#utility.yul\":8209:8248   */\n      mstore\n        /* \"#utility.yul\":8181:8183   */\n      0x20\n        /* \"#utility.yul\":8178:8179   */\n      dup2\n        /* \"#utility.yul\":8174:8184   */\n      add\n        /* \"#utility.yul\":8169:8184   */\n      swap1\n      pop\n        /* \"#utility.yul\":8145:8258   */\n      jump(tag_174)\n    tag_176:\n        /* \"#utility.yul\":8276:8282   */\n      dup4\n        /* \"#utility.yul\":8273:8274   */\n      dup2\n        /* \"#utility.yul\":8270:8283   */\n      gt\n        /* \"#utility.yul\":8267:8368   */\n      iszero\n      tag_177\n      jumpi\n        /* \"#utility.yul\":8356:8357   */\n      0x00\n        /* \"#utility.yul\":8347:8353   */\n      dup5\n        /* \"#utility.yul\":8342:8345   */\n      dup5\n        /* \"#utility.yul\":8338:8354   */\n      add\n        /* \"#utility.yul\":8331:8358   */\n      mstore\n        /* \"#utility.yul\":8267:8368   */\n    tag_177:\n        /* \"#utility.yul\":8116:8374   */\n      pop\n        /* \"#utility.yul\":8067:8374   */\n      pop\n      pop\n      pop\n      jump\t// out\n        /* \"#utility.yul\":8380:8700   */\n    tag_50:\n        /* \"#utility.yul\":8424:8430   */\n      0x00\n        /* \"#utility.yul\":8461:8462   */\n      0x02\n        /* \"#utility.yul\":8455:8459   */\n      dup3\n        /* \"#utility.yul\":8451:8463   */\n      div\n        /* \"#utility.yul\":8441:8463   */\n      swap1\n      pop\n        /* \"#utility.yul\":8508:8509   */\n      0x01\n        /* \"#utility.yul\":8502:8506   */\n      dup3\n        /* \"#utility.yul\":8498:8510   */\n      and\n        /* \"#utility.yul\":8529:8547   */\n      dup1\n        /* \"#utility.yul\":8519:8600   */\n      tag_179\n      jumpi\n        /* \"#utility.yul\":8585:8589   */\n      0x7f\n        /* \"#utility.yul\":8577:8583   */\n      dup3\n        /* \"#utility.yul\":8573:8590   */\n      and\n        /* \"#utility.yul\":8563:8590   */\n      swap2\n      pop\n        /* \"#utility.yul\":8519:8600   */\n    tag_179:\n        /* \"#utility.yul\":8647:8649   */\n      0x20\n        /* \"#utility.yul\":8639:8645   */\n      dup3\n        /* \"#utility.yul\":8636:8650   */\n      lt\n        /* \"#utility.yul\":8616:8634   */\n      dup2\n        /* \"#utility.yul\":8613:8651   */\n      eq\n        /* \"#utility.yul\":8610:8694   */\n      iszero\n      tag_180\n      jumpi\n        /* \"#utility.yul\":8666:8684   */\n      tag_181\n      tag_182\n      jump\t// in\n    tag_181:\n        /* \"#utility.yul\":8610:8694   */\n    tag_180:\n        /* \"#utility.yul\":8431:8700   */\n      pop\n        /* \"#utility.yul\":8380:8700   */\n      swap2\n      swap1\n      pop\n      jump\t// out\n        /* \"#utility.yul\":8706:8886   */\n    tag_159:\n        /* \"#utility.yul\":8754:8831   */\n      0x4e487b7100000000000000000000000000000000000000000000000000000000\n        /* \"#utility.yul\":8751:8752   */\n      0x00\n        /* \"#utility.yul\":8744:8832   */\n      mstore\n        /* \"#utility.yul\":8851:8855   */\n      0x11\n        /* \"#utility.yul\":8848:8849   */\n      0x04\n        /* \"#utility.yul\":8841:8856   */\n      mstore\n        /* \"#utility.yul\":8875:8879   */\n      0x24\n        /* \"#utility.yul\":8872:8873   */\n      0x00\n        /* \"#utility.yul\":8865:8880   */\n      revert\n        /* \"#utility.yul\":8892:9072   */\n    tag_182:\n        /* \"#utility.yul\":8940:9017   */\n      0x4e487b7100000000000000000000000000000000000000000000000000000000\n        /* \"#utility.yul\":8937:8938   */\n      0x00\n        /* \"#utility.yul\":8930:9018   */\n      mstore\n        /* \"#utility.yul\":9037:9041   */\n      0x22\n        /* \"#utility.yul\":9034:9035   */\n      0x04\n        /* \"#utility.yul\":9027:9042   */\n      mstore\n        /* \"#utility.yul\":9061:9065   */\n      0x24\n        /* \"#utility.yul\":9058:9059   */\n      0x00\n        /* \"#utility.yul\":9051:9066   */\n      revert\n        /* \"#utility.yul\":9078:9258   */\n    tag_16:\n        /* \"#utility.yul\":9126:9203   */\n      0x4e487b7100000000000000000000000000000000000000000000000000000000\n        /* \"#utility.yul\":9123:9124   */\n      0x00\n        /* \"#utility.yul\":9116:9204   */\n      mstore\n        /* \"#utility.yul\":9223:9227   */\n      0x32\n        /* \"#utility.yul\":9220:9221   */\n      0x04\n        /* \"#utility.yul\":9213:9228   */\n      mstore\n        /* \"#utility.yul\":9247:9251   */\n      0x24\n        /* \"#utility.yul\":9244:9245   */\n      0x00\n        /* \"#utility.yul\":9237:9252   */\n      revert\n        /* \"#utility.yul\":9264:9381   */\n    tag_76:\n        /* \"#utility.yul\":9373:9374   */\n      0x00\n        /* \"#utility.yul\":9370:9371   */\n      dup1\n        /* \"#utility.yul\":9363:9375   */\n      revert\n        /* \"#utility.yul\":9387:9504   */\n    tag_73:\n        /* \"#utility.yul\":9496:9497   */\n      0x00\n        /* \"#utility.yul\":9493:9494   */\n      dup1\n        /* \"#utility.yul\":9486:9498   */\n      revert\n        /* \"#utility.yul\":9510:9627   */\n    tag_79:\n        /* \"#utility.yul\":9619:9620   */\n      0x00\n        /* \"#utility.yul\":9616:9617   */\n      dup1\n        /* \"#utility.yul\":9609:9621   */\n      revert\n        /* \"#utility.yul\":9633:9750   */\n    tag_91:\n        /* \"#utility.yul\":9742:9743   */\n      0x00\n        /* \"#utility.yul\":9739:9740   */\n      dup1\n        /* \"#utility.yul\":9732:9744   */\n      revert\n        /* \"#utility.yul\":9756:9873   */\n    tag_87:\n        /* \"#utility.yul\":9865:9866   */\n      0x00\n        /* \"#utility.yul\":9862:9863   */\n      dup1\n        /* \"#utility.yul\":9855:9867   */\n      revert\n        /* \"#utility.yul\":9879:9981   */\n    tag_109:\n        /* \"#utility.yul\":9920:9926   */\n      0x00\n        /* \"#utility.yul\":9971:9973   */\n      0x1f\n        /* \"#utility.yul\":9967:9974   */\n      not\n        /* \"#utility.yul\":9962:9964   */\n      0x1f\n        /* \"#utility.yul\":9955:9960   */\n      dup4\n        /* \"#utility.yul\":9951:9965   */\n      add\n        /* \"#utility.yul\":9947:9975   */\n      and\n        /* \"#utility.yul\":9937:9975   */\n      swap1\n      pop\n        /* \"#utility.yul\":9879:9981   */\n      swap2\n      swap1\n      pop\n      jump\t// out\n        /* \"#utility.yul\":9987:10159   */\n    tag_126:\n        /* \"#utility.yul\":10127:10151   */\n      0x596f7520617265206e6f7420746865206f776e65722e00000000000000000000\n        /* \"#utility.yul\":10123:10124   */\n      0x00\n        /* \"#utility.yul\":10115:10121   */\n      dup3\n        /* \"#utility.yul\":10111:10125   */\n      add\n        /* \"#utility.yul\":10104:10152   */\n      mstore\n        /* \"#utility.yul\":9987:10159   */\n      pop\n      jump\t// out\n        /* \"#utility.yul\":10165:10333   */\n    tag_131:\n        /* \"#utility.yul\":10305:10325   */\n      0x496e636f72726563742061646472657373210000000000000000000000000000\n        /* \"#utility.yul\":10301:10302   */\n      0x00\n        /* \"#utility.yul\":10293:10299   */\n      dup3\n        /* \"#utility.yul\":10289:10303   */\n      add\n        /* \"#utility.yul\":10282:10326   */\n      mstore\n        /* \"#utility.yul\":10165:10333   */\n      pop\n      jump\t// out\n        /* \"#utility.yul\":10339:10461   */\n    tag_64:\n        /* \"#utility.yul\":10412:10436   */\n      tag_195\n        /* \"#utility.yul\":10430:10435   */\n      dup2\n        /* \"#utility.yul\":10412:10436   */\n      tag_165\n      jump\t// in\n    tag_195:\n        /* \"#utility.yul\":10405:10410   */\n      dup2\n        /* \"#utility.yul\":10402:10437   */\n      eq\n        /* \"#utility.yul\":10392:10455   */\n      tag_196\n      jumpi\n        /* \"#utility.yul\":10451:10452   */\n      0x00\n        /* \"#utility.yul\":10448:10449   */\n      dup1\n        /* \"#utility.yul\":10441:10453   */\n      revert\n        /* \"#utility.yul\":10392:10455   */\n    tag_196:\n        /* \"#utility.yul\":10339:10461   */\n      pop\n      jump\t// out\n        /* \"#utility.yul\":10467:10583   */\n    tag_68:\n        /* \"#utility.yul\":10537:10558   */\n      tag_198\n        /* \"#utility.yul\":10552:10557   */\n      dup2\n        /* \"#utility.yul\":10537:10558   */\n      tag_169\n      jump\t// in\n    tag_198:\n        /* \"#utility.yul\":10530:10535   */\n      dup2\n        /* \"#utility.yul\":10527:10559   */\n      eq\n        /* \"#utility.yul\":10517:10577   */\n      tag_199\n      jumpi\n        /* \"#utility.yul\":10573:10574   */\n      0x00\n        /* \"#utility.yul\":10570:10571   */\n      dup1\n        /* \"#utility.yul\":10563:10575   */\n      revert\n        /* \"#utility.yul\":10517:10577   */\n    tag_199:\n        /* \"#utility.yul\":10467:10583   */\n      pop\n      jump\t// out\n        /* \"#utility.yul\":10589:10711   */\n    tag_83:\n        /* \"#utility.yul\":10662:10686   */\n      tag_201\n        /* \"#utility.yul\":10680:10685   */\n      dup2\n        /* \"#utility.yul\":10662:10686   */\n      tag_135\n      jump\t// in\n    tag_201:\n        /* \"#utility.yul\":10655:10660   */\n      dup2\n        /* \"#utility.yul\":10652:10687   */\n      eq\n        /* \"#utility.yul\":10642:10705   */\n      tag_202\n      jumpi\n        /* \"#utility.yul\":10701:10702   */\n      0x00\n        /* \"#utility.yul\":10698:10699   */\n      dup1\n        /* \"#utility.yul\":10691:10703   */\n      revert\n        /* \"#utility.yul\":10642:10705   */\n    tag_202:\n        /* \"#utility.yul\":10589:10711   */\n      pop\n      jump\t// out\n\n    auxdata: 0xa2646970667358221220f65cb644cba7298ceb23d90d6eb76bd08455de7747f940ecb602ecf0d21b3be664736f6c63430008070033\n}\n",
				"bytecode": {
					"linkReferences": {},
					"object": "608060405234801561001057600080fd5b50336000806101000a81548173ffffffffffffffffffffffffffffffffffffffff021916908373ffffffffffffffffffffffffffffffffffffffff160217905550610bd8806100606000396000f3fe608060405234801561001057600080fd5b50600436106100365760003560e01c80633d5c83d41461003b57806388da06f914610057575b600080fd5b610055600480360381019061005091906106e1565b610073565b005b610071600480360381019061006c9190610647565b610239565b005b60006001828154811061008957610088610ab2565b5b90600052602060002090600502019050600015158160020160009054906101000a900460ff16151514156100f2577fd53ecb21746e36da81ddab5bdcf35c93b4e7adb500e38a0ce440f729de177ac5816001016040516100e9919061081c565b60405180910390a15b600015158160020160019054906101000a900460ff161515141561014b577fd53ecb21746e36da81ddab5bdcf35c93b4e7adb500e38a0ce440f729de177ac581600101604051610142919061081c565b60405180910390a15b600015158160020160029054906101000a900460ff16151514156101a4577fd53ecb21746e36da81ddab5bdcf35c93b4e7adb500e38a0ce440f729de177ac58160010160405161019b919061081c565b60405180910390a15b426203f48082600301546101b8919061091d565b11156101f9577fd53ecb21746e36da81ddab5bdcf35c93b4e7adb500e38a0ce440f729de177ac5816001016040516101f0919061081c565b60405180910390a15b7f6fd4822621c89040f0ea90264351e7f95d334eb76155286b2c1b6732331ff93c816001014260405161022d92919061083e565b60405180910390a15050565b8560008054906101000a900473ffffffffffffffffffffffffffffffffffffffff1673ffffffffffffffffffffffffffffffffffffffff163373ffffffffffffffffffffffffffffffffffffffff16146102c8576040517f08c379a00000000000000000000000000000000000000000000000000000000081526004016102bf9061086e565b60405180910390fd5b600073ffffffffffffffffffffffffffffffffffffffff168173ffffffffffffffffffffffffffffffffffffffff161415610338576040517f08c379a000000000000000000000000000000000000000000000000000000000815260040161032f9061088e565b60405180910390fd5b6000806001805490501461035c57600180805490506103579190610973565b610363565b6001805490505b905060006040518060e0016040528083815260200189898080601f016020809104026020016040519081016040528093929190818152602001838380828437600081840152601f19601f8201169050808301925050505050505081526020018715158152602001861515815260200185151581526020014281526020016203f480426103ef919061091d565b8152509050600181908060018154018082558091505060019003906000526020600020906005020160009091909190915060008201518160000155602082015181600101908051906020019061044692919061050f565b5060408201518160020160006101000a81548160ff02191690831515021790555060608201518160020160016101000a81548160ff02191690831515021790555060808201518160020160026101000a81548160ff02191690831515021790555060a0820151816003015560c0820151816004015550507ffafb7311fc57ca8a55073f63725e888b4250c799d77ae873970d65ac08c5917a816000015182602001518360a001516040516104fc939291906108ae565b60405180910390a1505050505050505050565b82805461051b90610a22565b90600052602060002090601f01602090048101928261053d5760008555610584565b82601f1061055657805160ff1916838001178555610584565b82800160010185558215610584579182015b82811115610583578251825591602001919060010190610568565b5b5090506105919190610595565b5090565b5b808211156105ae576000816000905550600101610596565b5090565b6000813590506105c181610b5d565b92915050565b6000813590506105d681610b74565b92915050565b60008083601f8401126105f2576105f1610ae6565b5b8235905067ffffffffffffffff81111561060f5761060e610ae1565b5b60208301915083600182028301111561062b5761062a610aeb565b5b9250929050565b60008135905061064181610b8b565b92915050565b60008060008060008060a0878903121561066457610663610af5565b5b600061067289828a016105b2565b965050602087013567ffffffffffffffff81111561069357610692610af0565b5b61069f89828a016105dc565b955095505060406106b289828a016105c7565b93505060606106c389828a016105c7565b92505060806106d489828a016105c7565b9150509295509295509295565b6000602082840312156106f7576106f6610af5565b5b600061070584828501610632565b91505092915050565b600061071982610901565b610723818561090c565b93506107338185602086016109ef565b61073c81610afa565b840191505092915050565b6000815461075481610a22565b61075e818661090c565b94506001821660008114610779576001811461078b576107be565b60ff19831686526020860193506107be565b610794856108ec565b60005b838110156107b657815481890152600182019150602081019050610797565b808801955050505b50505092915050565b60006107d460168361090c565b91506107df82610b0b565b602082019050919050565b60006107f760128361090c565b915061080282610b34565b602082019050919050565b610816816109e5565b82525050565b600060208201905081810360008301526108368184610747565b905092915050565b600060408201905081810360008301526108588185610747565b9050610867602083018461080d565b9392505050565b60006020820190508181036000830152610887816107c7565b9050919050565b600060208201905081810360008301526108a7816107ea565b9050919050565b60006060820190506108c3600083018661080d565b81810360208301526108d5818561070e565b90506108e4604083018461080d565b949350505050565b60008190508160005260206000209050919050565b600081519050919050565b600082825260208201905092915050565b6000610928826109e5565b9150610933836109e5565b9250827fffffffffffffffffffffffffffffffffffffffffffffffffffffffffffffffff0382111561096857610967610a54565b5b828201905092915050565b600061097e826109e5565b9150610989836109e5565b92508282101561099c5761099b610a54565b5b828203905092915050565b60006109b2826109c5565b9050919050565b60008115159050919050565b600073ffffffffffffffffffffffffffffffffffffffff82169050919050565b6000819050919050565b60005b83811015610a0d5780820151818401526020810190506109f2565b83811115610a1c576000848401525b50505050565b60006002820490506001821680610a3a57607f821691505b60208210811415610a4e57610a4d610a83565b5b50919050565b7f4e487b7100000000000000000000000000000000000000000000000000000000600052601160045260246000fd5b7f4e487b7100000000000000000000000000000000000000000000000000000000600052602260045260246000fd5b7f4e487b7100000000000000000000000000000000000000000000000000000000600052603260045260246000fd5b600080fd5b600080fd5b600080fd5b600080fd5b600080fd5b6000601f19601f8301169050919050565b7f596f7520617265206e6f7420746865206f776e65722e00000000000000000000600082015250565b7f496e636f72726563742061646472657373210000000000000000000000000000600082015250565b610b66816109a7565b8114610b7157600080fd5b50565b610b7d816109b9565b8114610b8857600080fd5b50565b610b94816109e5565b8114610b9f57600080fd5b5056fea2646970667358221220f65cb644cba7298ceb23d90d6eb76bd08455de7747f940ecb602ecf0d21b3be664736f6c63430008070033",
					"opcodes": "PUSH1 0x80 PUSH1 0x40 MSTORE CALLVALUE DUP1 ISZERO PUSH2 0x10 JUMPI PUSH1 0x0 DUP1 REVERT JUMPDEST POP CALLER PUSH1 0x0 DUP1 PUSH2 0x100 EXP DUP2 SLOAD DUP2 PUSH20 0xFFFFFFFFFFFFFFFFFFFFFFFFFFFFFFFFFFFFFFFF MUL NOT AND SWAP1 DUP4 PUSH20 0xFFFFFFFFFFFFFFFFFFFFFFFFFFFFFFFFFFFFFFFF AND MUL OR SWAP1 SSTORE POP PUSH2 0xBD8 DUP1 PUSH2 0x60 PUSH1 0x0 CODECOPY PUSH1 0x0 RETURN INVALID PUSH1 0x80 PUSH1 0x40 MSTORE CALLVALUE DUP1 ISZERO PUSH2 0x10 JUMPI PUSH1 0x0 DUP1 REVERT JUMPDEST POP PUSH1 0x4 CALLDATASIZE LT PUSH2 0x36 JUMPI PUSH1 0x0 CALLDATALOAD PUSH1 0xE0 SHR DUP1 PUSH4 0x3D5C83D4 EQ PUSH2 0x3B JUMPI DUP1 PUSH4 0x88DA06F9 EQ PUSH2 0x57 JUMPI JUMPDEST PUSH1 0x0 DUP1 REVERT JUMPDEST PUSH2 0x55 PUSH1 0x4 DUP1 CALLDATASIZE SUB DUP2 ADD SWAP1 PUSH2 0x50 SWAP2 SWAP1 PUSH2 0x6E1 JUMP JUMPDEST PUSH2 0x73 JUMP JUMPDEST STOP JUMPDEST PUSH2 0x71 PUSH1 0x4 DUP1 CALLDATASIZE SUB DUP2 ADD SWAP1 PUSH2 0x6C SWAP2 SWAP1 PUSH2 0x647 JUMP JUMPDEST PUSH2 0x239 JUMP JUMPDEST STOP JUMPDEST PUSH1 0x0 PUSH1 0x1 DUP3 DUP2 SLOAD DUP2 LT PUSH2 0x89 JUMPI PUSH2 0x88 PUSH2 0xAB2 JUMP JUMPDEST JUMPDEST SWAP1 PUSH1 0x0 MSTORE PUSH1 0x20 PUSH1 0x0 KECCAK256 SWAP1 PUSH1 0x5 MUL ADD SWAP1 POP PUSH1 0x0 ISZERO ISZERO DUP2 PUSH1 0x2 ADD PUSH1 0x0 SWAP1 SLOAD SWAP1 PUSH2 0x100 EXP SWAP1 DIV PUSH1 0xFF AND ISZERO ISZERO EQ ISZERO PUSH2 0xF2 JUMPI PUSH32 0xD53ECB21746E36DA81DDAB5BDCF35C93B4E7ADB500E38A0CE440F729DE177AC5 DUP2 PUSH1 0x1 ADD PUSH1 0x40 MLOAD PUSH2 0xE9 SWAP2 SWAP1 PUSH2 0x81C JUMP JUMPDEST PUSH1 0x40 MLOAD DUP1 SWAP2 SUB SWAP1 LOG1 JUMPDEST PUSH1 0x0 ISZERO ISZERO DUP2 PUSH1 0x2 ADD PUSH1 0x1 SWAP1 SLOAD SWAP1 PUSH2 0x100 EXP SWAP1 DIV PUSH1 0xFF AND ISZERO ISZERO EQ ISZERO PUSH2 0x14B JUMPI PUSH32 0xD53ECB21746E36DA81DDAB5BDCF35C93B4E7ADB500E38A0CE440F729DE177AC5 DUP2 PUSH1 0x1 ADD PUSH1 0x40 MLOAD PUSH2 0x142 SWAP2 SWAP1 PUSH2 0x81C JUMP JUMPDEST PUSH1 0x40 MLOAD DUP1 SWAP2 SUB SWAP1 LOG1 JUMPDEST PUSH1 0x0 ISZERO ISZERO DUP2 PUSH1 0x2 ADD PUSH1 0x2 SWAP1 SLOAD SWAP1 PUSH2 0x100 EXP SWAP1 DIV PUSH1 0xFF AND ISZERO ISZERO EQ ISZERO PUSH2 0x1A4 JUMPI PUSH32 0xD53ECB21746E36DA81DDAB5BDCF35C93B4E7ADB500E38A0CE440F729DE177AC5 DUP2 PUSH1 0x1 ADD PUSH1 0x40 MLOAD PUSH2 0x19B SWAP2 SWAP1 PUSH2 0x81C JUMP JUMPDEST PUSH1 0x40 MLOAD DUP1 SWAP2 SUB SWAP1 LOG1 JUMPDEST TIMESTAMP PUSH3 0x3F480 DUP3 PUSH1 0x3 ADD SLOAD PUSH2 0x1B8 SWAP2 SWAP1 PUSH2 0x91D JUMP JUMPDEST GT ISZERO PUSH2 0x1F9 JUMPI PUSH32 0xD53ECB21746E36DA81DDAB5BDCF35C93B4E7ADB500E38A0CE440F729DE177AC5 DUP2 PUSH1 0x1 ADD PUSH1 0x40 MLOAD PUSH2 0x1F0 SWAP2 SWAP1 PUSH2 0x81C JUMP JUMPDEST PUSH1 0x40 MLOAD DUP1 SWAP2 SUB SWAP1 LOG1 JUMPDEST PUSH32 0x6FD4822621C89040F0EA90264351E7F95D334EB76155286B2C1B6732331FF93C DUP2 PUSH1 0x1 ADD TIMESTAMP PUSH1 0x40 MLOAD PUSH2 0x22D SWAP3 SWAP2 SWAP1 PUSH2 0x83E JUMP JUMPDEST PUSH1 0x40 MLOAD DUP1 SWAP2 SUB SWAP1 LOG1 POP POP JUMP JUMPDEST DUP6 PUSH1 0x0 DUP1 SLOAD SWAP1 PUSH2 0x100 EXP SWAP1 DIV PUSH20 0xFFFFFFFFFFFFFFFFFFFFFFFFFFFFFFFFFFFFFFFF AND PUSH20 0xFFFFFFFFFFFFFFFFFFFFFFFFFFFFFFFFFFFFFFFF AND CALLER PUSH20 0xFFFFFFFFFFFFFFFFFFFFFFFFFFFFFFFFFFFFFFFF AND EQ PUSH2 0x2C8 JUMPI PUSH1 0x40 MLOAD PUSH32 0x8C379A000000000000000000000000000000000000000000000000000000000 DUP2 MSTORE PUSH1 0x4 ADD PUSH2 0x2BF SWAP1 PUSH2 0x86E JUMP JUMPDEST PUSH1 0x40 MLOAD DUP1 SWAP2 SUB SWAP1 REVERT JUMPDEST PUSH1 0x0 PUSH20 0xFFFFFFFFFFFFFFFFFFFFFFFFFFFFFFFFFFFFFFFF AND DUP2 PUSH20 0xFFFFFFFFFFFFFFFFFFFFFFFFFFFFFFFFFFFFFFFF AND EQ ISZERO PUSH2 0x338 JUMPI PUSH1 0x40 MLOAD PUSH32 0x8C379A000000000000000000000000000000000000000000000000000000000 DUP2 MSTORE PUSH1 0x4 ADD PUSH2 0x32F SWAP1 PUSH2 0x88E JUMP JUMPDEST PUSH1 0x40 MLOAD DUP1 SWAP2 SUB SWAP1 REVERT JUMPDEST PUSH1 0x0 DUP1 PUSH1 0x1 DUP1 SLOAD SWAP1 POP EQ PUSH2 0x35C JUMPI PUSH1 0x1 DUP1 DUP1 SLOAD SWAP1 POP PUSH2 0x357 SWAP2 SWAP1 PUSH2 0x973 JUMP JUMPDEST PUSH2 0x363 JUMP JUMPDEST PUSH1 0x1 DUP1 SLOAD SWAP1 POP JUMPDEST SWAP1 POP PUSH1 0x0 PUSH1 0x40 MLOAD DUP1 PUSH1 0xE0 ADD PUSH1 0x40 MSTORE DUP1 DUP4 DUP2 MSTORE PUSH1 0x20 ADD DUP10 DUP10 DUP1 DUP1 PUSH1 0x1F ADD PUSH1 0x20 DUP1 SWAP2 DIV MUL PUSH1 0x20 ADD PUSH1 0x40 MLOAD SWAP1 DUP2 ADD PUSH1 0x40 MSTORE DUP1 SWAP4 SWAP3 SWAP2 SWAP1 DUP2 DUP2 MSTORE PUSH1 0x20 ADD DUP4 DUP4 DUP1 DUP3 DUP5 CALLDATACOPY PUSH1 0x0 DUP2 DUP5 ADD MSTORE PUSH1 0x1F NOT PUSH1 0x1F DUP3 ADD AND SWAP1 POP DUP1 DUP4 ADD SWAP3 POP POP POP POP POP POP POP DUP2 MSTORE PUSH1 0x20 ADD DUP8 ISZERO ISZERO DUP2 MSTORE PUSH1 0x20 ADD DUP7 ISZERO ISZERO DUP2 MSTORE PUSH1 0x20 ADD DUP6 ISZERO ISZERO DUP2 MSTORE PUSH1 0x20 ADD TIMESTAMP DUP2 MSTORE PUSH1 0x20 ADD PUSH3 0x3F480 TIMESTAMP PUSH2 0x3EF SWAP2 SWAP1 PUSH2 0x91D JUMP JUMPDEST DUP2 MSTORE POP SWAP1 POP PUSH1 0x1 DUP2 SWAP1 DUP1 PUSH1 0x1 DUP2 SLOAD ADD DUP1 DUP3 SSTORE DUP1 SWAP2 POP POP PUSH1 0x1 SWAP1 SUB SWAP1 PUSH1 0x0 MSTORE PUSH1 0x20 PUSH1 0x0 KECCAK256 SWAP1 PUSH1 0x5 MUL ADD PUSH1 0x0 SWAP1 SWAP2 SWAP1 SWAP2 SWAP1 SWAP2 POP PUSH1 0x0 DUP3 ADD MLOAD DUP2 PUSH1 0x0 ADD SSTORE PUSH1 0x20 DUP3 ADD MLOAD DUP2 PUSH1 0x1 ADD SWAP1 DUP1 MLOAD SWAP1 PUSH1 0x20 ADD SWAP1 PUSH2 0x446 SWAP3 SWAP2 SWAP1 PUSH2 0x50F JUMP JUMPDEST POP PUSH1 0x40 DUP3 ADD MLOAD DUP2 PUSH1 0x2 ADD PUSH1 0x0 PUSH2 0x100 EXP DUP2 SLOAD DUP2 PUSH1 0xFF MUL NOT AND SWAP1 DUP4 ISZERO ISZERO MUL OR SWAP1 SSTORE POP PUSH1 0x60 DUP3 ADD MLOAD DUP2 PUSH1 0x2 ADD PUSH1 0x1 PUSH2 0x100 EXP DUP2 SLOAD DUP2 PUSH1 0xFF MUL NOT AND SWAP1 DUP4 ISZERO ISZERO MUL OR SWAP1 SSTORE POP PUSH1 0x80 DUP3 ADD MLOAD DUP2 PUSH1 0x2 ADD PUSH1 0x2 PUSH2 0x100 EXP DUP2 SLOAD DUP2 PUSH1 0xFF MUL NOT AND SWAP1 DUP4 ISZERO ISZERO MUL OR SWAP1 SSTORE POP PUSH1 0xA0 DUP3 ADD MLOAD DUP2 PUSH1 0x3 ADD SSTORE PUSH1 0xC0 DUP3 ADD MLOAD DUP2 PUSH1 0x4 ADD SSTORE POP POP PUSH32 0xFAFB7311FC57CA8A55073F63725E888B4250C799D77AE873970D65AC08C5917A DUP2 PUSH1 0x0 ADD MLOAD DUP3 PUSH1 0x20 ADD MLOAD DUP4 PUSH1 0xA0 ADD MLOAD PUSH1 0x40 MLOAD PUSH2 0x4FC SWAP4 SWAP3 SWAP2 SWAP1 PUSH2 0x8AE JUMP JUMPDEST PUSH1 0x40 MLOAD DUP1 SWAP2 SUB SWAP1 LOG1 POP POP POP POP POP POP POP POP POP JUMP JUMPDEST DUP3 DUP1 SLOAD PUSH2 0x51B SWAP1 PUSH2 0xA22 JUMP JUMPDEST SWAP1 PUSH1 0x0 MSTORE PUSH1 0x20 PUSH1 0x0 KECCAK256 SWAP1 PUSH1 0x1F ADD PUSH1 0x20 SWAP1 DIV DUP2 ADD SWAP3 DUP3 PUSH2 0x53D JUMPI PUSH1 0x0 DUP6 SSTORE PUSH2 0x584 JUMP JUMPDEST DUP3 PUSH1 0x1F LT PUSH2 0x556 JUMPI DUP1 MLOAD PUSH1 0xFF NOT AND DUP4 DUP1 ADD OR DUP6 SSTORE PUSH2 0x584 JUMP JUMPDEST DUP3 DUP1 ADD PUSH1 0x1 ADD DUP6 SSTORE DUP3 ISZERO PUSH2 0x584 JUMPI SWAP2 DUP3 ADD JUMPDEST DUP3 DUP2 GT ISZERO PUSH2 0x583 JUMPI DUP3 MLOAD DUP3 SSTORE SWAP2 PUSH1 0x20 ADD SWAP2 SWAP1 PUSH1 0x1 ADD SWAP1 PUSH2 0x568 JUMP JUMPDEST JUMPDEST POP SWAP1 POP PUSH2 0x591 SWAP2 SWAP1 PUSH2 0x595 JUMP JUMPDEST POP SWAP1 JUMP JUMPDEST JUMPDEST DUP1 DUP3 GT ISZERO PUSH2 0x5AE JUMPI PUSH1 0x0 DUP2 PUSH1 0x0 SWAP1 SSTORE POP PUSH1 0x1 ADD PUSH2 0x596 JUMP JUMPDEST POP SWAP1 JUMP JUMPDEST PUSH1 0x0 DUP2 CALLDATALOAD SWAP1 POP PUSH2 0x5C1 DUP2 PUSH2 0xB5D JUMP JUMPDEST SWAP3 SWAP2 POP POP JUMP JUMPDEST PUSH1 0x0 DUP2 CALLDATALOAD SWAP1 POP PUSH2 0x5D6 DUP2 PUSH2 0xB74 JUMP JUMPDEST SWAP3 SWAP2 POP POP JUMP JUMPDEST PUSH1 0x0 DUP1 DUP4 PUSH1 0x1F DUP5 ADD SLT PUSH2 0x5F2 JUMPI PUSH2 0x5F1 PUSH2 0xAE6 JUMP JUMPDEST JUMPDEST DUP3 CALLDATALOAD SWAP1 POP PUSH8 0xFFFFFFFFFFFFFFFF DUP2 GT ISZERO PUSH2 0x60F JUMPI PUSH2 0x60E PUSH2 0xAE1 JUMP JUMPDEST JUMPDEST PUSH1 0x20 DUP4 ADD SWAP2 POP DUP4 PUSH1 0x1 DUP3 MUL DUP4 ADD GT ISZERO PUSH2 0x62B JUMPI PUSH2 0x62A PUSH2 0xAEB JUMP JUMPDEST JUMPDEST SWAP3 POP SWAP3 SWAP1 POP JUMP JUMPDEST PUSH1 0x0 DUP2 CALLDATALOAD SWAP1 POP PUSH2 0x641 DUP2 PUSH2 0xB8B JUMP JUMPDEST SWAP3 SWAP2 POP POP JUMP JUMPDEST PUSH1 0x0 DUP1 PUSH1 0x0 DUP1 PUSH1 0x0 DUP1 PUSH1 0xA0 DUP8 DUP10 SUB SLT ISZERO PUSH2 0x664 JUMPI PUSH2 0x663 PUSH2 0xAF5 JUMP JUMPDEST JUMPDEST PUSH1 0x0 PUSH2 0x672 DUP10 DUP3 DUP11 ADD PUSH2 0x5B2 JUMP JUMPDEST SWAP7 POP POP PUSH1 0x20 DUP8 ADD CALLDATALOAD PUSH8 0xFFFFFFFFFFFFFFFF DUP2 GT ISZERO PUSH2 0x693 JUMPI PUSH2 0x692 PUSH2 0xAF0 JUMP JUMPDEST JUMPDEST PUSH2 0x69F DUP10 DUP3 DUP11 ADD PUSH2 0x5DC JUMP JUMPDEST SWAP6 POP SWAP6 POP POP PUSH1 0x40 PUSH2 0x6B2 DUP10 DUP3 DUP11 ADD PUSH2 0x5C7 JUMP JUMPDEST SWAP4 POP POP PUSH1 0x60 PUSH2 0x6C3 DUP10 DUP3 DUP11 ADD PUSH2 0x5C7 JUMP JUMPDEST SWAP3 POP POP PUSH1 0x80 PUSH2 0x6D4 DUP10 DUP3 DUP11 ADD PUSH2 0x5C7 JUMP JUMPDEST SWAP2 POP POP SWAP3 SWAP6 POP SWAP3 SWAP6 POP SWAP3 SWAP6 JUMP JUMPDEST PUSH1 0x0 PUSH1 0x20 DUP3 DUP5 SUB SLT ISZERO PUSH2 0x6F7 JUMPI PUSH2 0x6F6 PUSH2 0xAF5 JUMP JUMPDEST JUMPDEST PUSH1 0x0 PUSH2 0x705 DUP5 DUP3 DUP6 ADD PUSH2 0x632 JUMP JUMPDEST SWAP2 POP POP SWAP3 SWAP2 POP POP JUMP JUMPDEST PUSH1 0x0 PUSH2 0x719 DUP3 PUSH2 0x901 JUMP JUMPDEST PUSH2 0x723 DUP2 DUP6 PUSH2 0x90C JUMP JUMPDEST SWAP4 POP PUSH2 0x733 DUP2 DUP6 PUSH1 0x20 DUP7 ADD PUSH2 0x9EF JUMP JUMPDEST PUSH2 0x73C DUP2 PUSH2 0xAFA JUMP JUMPDEST DUP5 ADD SWAP2 POP POP SWAP3 SWAP2 POP POP JUMP JUMPDEST PUSH1 0x0 DUP2 SLOAD PUSH2 0x754 DUP2 PUSH2 0xA22 JUMP JUMPDEST PUSH2 0x75E DUP2 DUP7 PUSH2 0x90C JUMP JUMPDEST SWAP5 POP PUSH1 0x1 DUP3 AND PUSH1 0x0 DUP2 EQ PUSH2 0x779 JUMPI PUSH1 0x1 DUP2 EQ PUSH2 0x78B JUMPI PUSH2 0x7BE JUMP JUMPDEST PUSH1 0xFF NOT DUP4 AND DUP7 MSTORE PUSH1 0x20 DUP7 ADD SWAP4 POP PUSH2 0x7BE JUMP JUMPDEST PUSH2 0x794 DUP6 PUSH2 0x8EC JUMP JUMPDEST PUSH1 0x0 JUMPDEST DUP4 DUP2 LT ISZERO PUSH2 0x7B6 JUMPI DUP2 SLOAD DUP2 DUP10 ADD MSTORE PUSH1 0x1 DUP3 ADD SWAP2 POP PUSH1 0x20 DUP2 ADD SWAP1 POP PUSH2 0x797 JUMP JUMPDEST DUP1 DUP9 ADD SWAP6 POP POP POP JUMPDEST POP POP POP SWAP3 SWAP2 POP POP JUMP JUMPDEST PUSH1 0x0 PUSH2 0x7D4 PUSH1 0x16 DUP4 PUSH2 0x90C JUMP JUMPDEST SWAP2 POP PUSH2 0x7DF DUP3 PUSH2 0xB0B JUMP JUMPDEST PUSH1 0x20 DUP3 ADD SWAP1 POP SWAP2 SWAP1 POP JUMP JUMPDEST PUSH1 0x0 PUSH2 0x7F7 PUSH1 0x12 DUP4 PUSH2 0x90C JUMP JUMPDEST SWAP2 POP PUSH2 0x802 DUP3 PUSH2 0xB34 JUMP JUMPDEST PUSH1 0x20 DUP3 ADD SWAP1 POP SWAP2 SWAP1 POP JUMP JUMPDEST PUSH2 0x816 DUP2 PUSH2 0x9E5 JUMP JUMPDEST DUP3 MSTORE POP POP JUMP JUMPDEST PUSH1 0x0 PUSH1 0x20 DUP3 ADD SWAP1 POP DUP2 DUP2 SUB PUSH1 0x0 DUP4 ADD MSTORE PUSH2 0x836 DUP2 DUP5 PUSH2 0x747 JUMP JUMPDEST SWAP1 POP SWAP3 SWAP2 POP POP JUMP JUMPDEST PUSH1 0x0 PUSH1 0x40 DUP3 ADD SWAP1 POP DUP2 DUP2 SUB PUSH1 0x0 DUP4 ADD MSTORE PUSH2 0x858 DUP2 DUP6 PUSH2 0x747 JUMP JUMPDEST SWAP1 POP PUSH2 0x867 PUSH1 0x20 DUP4 ADD DUP5 PUSH2 0x80D JUMP JUMPDEST SWAP4 SWAP3 POP POP POP JUMP JUMPDEST PUSH1 0x0 PUSH1 0x20 DUP3 ADD SWAP1 POP DUP2 DUP2 SUB PUSH1 0x0 DUP4 ADD MSTORE PUSH2 0x887 DUP2 PUSH2 0x7C7 JUMP JUMPDEST SWAP1 POP SWAP2 SWAP1 POP JUMP JUMPDEST PUSH1 0x0 PUSH1 0x20 DUP3 ADD SWAP1 POP DUP2 DUP2 SUB PUSH1 0x0 DUP4 ADD MSTORE PUSH2 0x8A7 DUP2 PUSH2 0x7EA JUMP JUMPDEST SWAP1 POP SWAP2 SWAP1 POP JUMP JUMPDEST PUSH1 0x0 PUSH1 0x60 DUP3 ADD SWAP1 POP PUSH2 0x8C3 PUSH1 0x0 DUP4 ADD DUP7 PUSH2 0x80D JUMP JUMPDEST DUP2 DUP2 SUB PUSH1 0x20 DUP4 ADD MSTORE PUSH2 0x8D5 DUP2 DUP6 PUSH2 0x70E JUMP JUMPDEST SWAP1 POP PUSH2 0x8E4 PUSH1 0x40 DUP4 ADD DUP5 PUSH2 0x80D JUMP JUMPDEST SWAP5 SWAP4 POP POP POP POP JUMP JUMPDEST PUSH1 0x0 DUP2 SWAP1 POP DUP2 PUSH1 0x0 MSTORE PUSH1 0x20 PUSH1 0x0 KECCAK256 SWAP1 POP SWAP2 SWAP1 POP JUMP JUMPDEST PUSH1 0x0 DUP2 MLOAD SWAP1 POP SWAP2 SWAP1 POP JUMP JUMPDEST PUSH1 0x0 DUP3 DUP3 MSTORE PUSH1 0x20 DUP3 ADD SWAP1 POP SWAP3 SWAP2 POP POP JUMP JUMPDEST PUSH1 0x0 PUSH2 0x928 DUP3 PUSH2 0x9E5 JUMP JUMPDEST SWAP2 POP PUSH2 0x933 DUP4 PUSH2 0x9E5 JUMP JUMPDEST SWAP3 POP DUP3 PUSH32 0xFFFFFFFFFFFFFFFFFFFFFFFFFFFFFFFFFFFFFFFFFFFFFFFFFFFFFFFFFFFFFFFF SUB DUP3 GT ISZERO PUSH2 0x968 JUMPI PUSH2 0x967 PUSH2 0xA54 JUMP JUMPDEST JUMPDEST DUP3 DUP3 ADD SWAP1 POP SWAP3 SWAP2 POP POP JUMP JUMPDEST PUSH1 0x0 PUSH2 0x97E DUP3 PUSH2 0x9E5 JUMP JUMPDEST SWAP2 POP PUSH2 0x989 DUP4 PUSH2 0x9E5 JUMP JUMPDEST SWAP3 POP DUP3 DUP3 LT ISZERO PUSH2 0x99C JUMPI PUSH2 0x99B PUSH2 0xA54 JUMP JUMPDEST JUMPDEST DUP3 DUP3 SUB SWAP1 POP SWAP3 SWAP2 POP POP JUMP JUMPDEST PUSH1 0x0 PUSH2 0x9B2 DUP3 PUSH2 0x9C5 JUMP JUMPDEST SWAP1 POP SWAP2 SWAP1 POP JUMP JUMPDEST PUSH1 0x0 DUP2 ISZERO ISZERO SWAP1 POP SWAP2 SWAP1 POP JUMP JUMPDEST PUSH1 0x0 PUSH20 0xFFFFFFFFFFFFFFFFFFFFFFFFFFFFFFFFFFFFFFFF DUP3 AND SWAP1 POP SWAP2 SWAP1 POP JUMP JUMPDEST PUSH1 0x0 DUP2 SWAP1 POP SWAP2 SWAP1 POP JUMP JUMPDEST PUSH1 0x0 JUMPDEST DUP4 DUP2 LT ISZERO PUSH2 0xA0D JUMPI DUP1 DUP3 ADD MLOAD DUP2 DUP5 ADD MSTORE PUSH1 0x20 DUP2 ADD SWAP1 POP PUSH2 0x9F2 JUMP JUMPDEST DUP4 DUP2 GT ISZERO PUSH2 0xA1C JUMPI PUSH1 0x0 DUP5 DUP5 ADD MSTORE JUMPDEST POP POP POP POP JUMP JUMPDEST PUSH1 0x0 PUSH1 0x2 DUP3 DIV SWAP1 POP PUSH1 0x1 DUP3 AND DUP1 PUSH2 0xA3A JUMPI PUSH1 0x7F DUP3 AND SWAP2 POP JUMPDEST PUSH1 0x20 DUP3 LT DUP2 EQ ISZERO PUSH2 0xA4E JUMPI PUSH2 0xA4D PUSH2 0xA83 JUMP JUMPDEST JUMPDEST POP SWAP2 SWAP1 POP JUMP JUMPDEST PUSH32 0x4E487B7100000000000000000000000000000000000000000000000000000000 PUSH1 0x0 MSTORE PUSH1 0x11 PUSH1 0x4 MSTORE PUSH1 0x24 PUSH1 0x0 REVERT JUMPDEST PUSH32 0x4E487B7100000000000000000000000000000000000000000000000000000000 PUSH1 0x0 MSTORE PUSH1 0x22 PUSH1 0x4 MSTORE PUSH1 0x24 PUSH1 0x0 REVERT JUMPDEST PUSH32 0x4E487B7100000000000000000000000000000000000000000000000000000000 PUSH1 0x0 MSTORE PUSH1 0x32 PUSH1 0x4 MSTORE PUSH1 0x24 PUSH1 0x0 REVERT JUMPDEST PUSH1 0x0 DUP1 REVERT JUMPDEST PUSH1 0x0 DUP1 REVERT JUMPDEST PUSH1 0x0 DUP1 REVERT JUMPDEST PUSH1 0x0 DUP1 REVERT JUMPDEST PUSH1 0x0 DUP1 REVERT JUMPDEST PUSH1 0x0 PUSH1 0x1F NOT PUSH1 0x1F DUP4 ADD AND SWAP1 POP SWAP2 SWAP1 POP JUMP JUMPDEST PUSH32 0x596F7520617265206E6F7420746865206F776E65722E00000000000000000000 PUSH1 0x0 DUP3 ADD MSTORE POP JUMP JUMPDEST PUSH32 0x496E636F72726563742061646472657373210000000000000000000000000000 PUSH1 0x0 DUP3 ADD MSTORE POP JUMP JUMPDEST PUSH2 0xB66 DUP2 PUSH2 0x9A7 JUMP JUMPDEST DUP2 EQ PUSH2 0xB71 JUMPI PUSH1 0x0 DUP1 REVERT JUMPDEST POP JUMP JUMPDEST PUSH2 0xB7D DUP2 PUSH2 0x9B9 JUMP JUMPDEST DUP2 EQ PUSH2 0xB88 JUMPI PUSH1 0x0 DUP1 REVERT JUMPDEST POP JUMP JUMPDEST PUSH2 0xB94 DUP2 PUSH2 0x9E5 JUMP JUMPDEST DUP2 EQ PUSH2 0xB9F JUMPI PUSH1 0x0 DUP1 REVERT JUMPDEST POP JUMP INVALID LOG2 PUSH5 0x6970667358 0x22 SLT KECCAK256 0xF6 0x5C 0xB6 DIFFICULTY 0xCB 0xA7 0x29 DUP13 0xEB 0x23 0xD9 0xD PUSH15 0xB76BD08455DE7747F940ECB602ECF0 0xD2 SHL EXTCODESIZE 0xE6 PUSH5 0x736F6C6343 STOP ADDMOD SMOD STOP CALLER "
				},
				"gasEstimates": {
					"creation": {
						"codeDepositCost": "606400",
						"executionCost": "24904",
						"totalCost": "631304"
					},
					"external": {
						"addStudent(address,string,bool,bool,bool)": "infinite",
						"debtsAreDone(uint256)": "infinite"
					}
				},
				"methodIdentifiers": {
					"addStudent(address,string,bool,bool,bool)": "88da06f9",
					"debtsAreDone(uint256)": "3d5c83d4"
				}
			},
			"storageLayout": {
				"storage": [
					{
						"astId": 6,
						"contract": "contracts/Hometask.sol:DormitoryQuest",
						"label": "owner",
						"offset": 0,
						"slot": "0",
						"type": "t_address"
					},
					{
						"astId": 25,
						"contract": "contracts/Hometask.sol:DormitoryQuest",
						"label": "students",
						"offset": 0,
						"slot": "1",
						"type": "t_array(t_struct(Student)21_storage)dyn_storage"
					}
				],
				"types": {
					"t_address": {
						"encoding": "inplace",
						"label": "address",
						"numberOfBytes": "20"
					},
					"t_array(t_struct(Student)21_storage)dyn_storage": {
						"base": "t_struct(Student)21_storage",
						"encoding": "dynamic_array",
						"label": "struct DormitoryQuest.Student[]",
						"numberOfBytes": "32"
					},
					"t_bool": {
						"encoding": "inplace",
						"label": "bool",
						"numberOfBytes": "1"
					},
					"t_string_storage": {
						"encoding": "bytes",
						"label": "string",
						"numberOfBytes": "32"
					},
					"t_struct(Student)21_storage": {
						"encoding": "inplace",
						"label": "struct DormitoryQuest.Student",
						"members": [
							{
								"astId": 8,
								"contract": "contracts/Hometask.sol:DormitoryQuest",
								"label": "id",
								"offset": 0,
								"slot": "0",
								"type": "t_uint256"
							},
							{
								"astId": 10,
								"contract": "contracts/Hometask.sol:DormitoryQuest",
								"label": "fullName",
								"offset": 0,
								"slot": "1",
								"type": "t_string_storage"
							},
							{
								"astId": 12,
								"contract": "contracts/Hometask.sol:DormitoryQuest",
								"label": "sheetsDone",
								"offset": 0,
								"slot": "2",
								"type": "t_bool"
							},
							{
								"astId": 14,
								"contract": "contracts/Hometask.sol:DormitoryQuest",
								"label": "roomDone",
								"offset": 1,
								"slot": "2",
								"type": "t_bool"
							},
							{
								"astId": 16,
								"contract": "contracts/Hometask.sol:DormitoryQuest",
								"label": "booksDone",
								"offset": 2,
								"slot": "2",
								"type": "t_bool"
							},
							{
								"astId": 18,
								"contract": "contracts/Hometask.sol:DormitoryQuest",
								"label": "regDate",
								"offset": 0,
								"slot": "3",
								"type": "t_uint256"
							},
							{
								"astId": 20,
								"contract": "contracts/Hometask.sol:DormitoryQuest",
								"label": "deadlineDate",
								"offset": 0,
								"slot": "4",
								"type": "t_uint256"
							}
						],
						"numberOfBytes": "160"
					},
					"t_uint256": {
						"encoding": "inplace",
						"label": "uint256",
						"numberOfBytes": "32"
					}
				}
			},
			"userdoc": {
				"kind": "user",
				"methods": {},
				"version": 1
			}
		}
	}
}