{
	"contracts/Hometask.sol": {
		"DormitoryQuest": {
			"abi": [
				{
					"inputs": [],
					"stateMutability": "nonpayable",
					"type": "constructor"
				},
				{
					"anonymous": false,
					"inputs": [
						{
							"indexed": false,
							"internalType": "uint256",
							"name": "id",
							"type": "uint256"
						},
						{
							"indexed": false,
							"internalType": "string",
							"name": "name",
							"type": "string"
						},
						{
							"indexed": false,
							"internalType": "uint256",
							"name": "regDate",
							"type": "uint256"
						}
					],
					"name": "StudentAdded",
					"type": "event"
				},
				{
					"anonymous": false,
					"inputs": [
						{
							"indexed": false,
							"internalType": "string",
							"name": "name",
							"type": "string"
						},
						{
							"indexed": false,
							"internalType": "uint256",
							"name": "date",
							"type": "uint256"
						}
					],
					"name": "StudentEvicted",
					"type": "event"
				},
				{
					"anonymous": false,
					"inputs": [
						{
							"indexed": false,
							"internalType": "string",
							"name": "name",
							"type": "string"
						}
					],
					"name": "SummonsToArmyGiven",
					"type": "event"
				},
				{
					"inputs": [
						{
							"internalType": "address",
							"name": "_to",
							"type": "address"
						},
						{
							"internalType": "string",
							"name": "_name",
							"type": "string"
						},
						{
							"internalType": "bool",
							"name": "_sheetsDone",
							"type": "bool"
						},
						{
							"internalType": "bool",
							"name": "_roomDone",
							"type": "bool"
						},
						{
							"internalType": "bool",
							"name": "_booksDone",
							"type": "bool"
						}
					],
					"name": "addStudent",
					"outputs": [],
					"stateMutability": "nonpayable",
					"type": "function"
				},
				{
					"inputs": [
						{
							"internalType": "uint256",
							"name": "id",
							"type": "uint256"
						}
					],
					"name": "debtsAreDone",
					"outputs": [],
					"stateMutability": "nonpayable",
					"type": "function"
				},
				{
					"inputs": [
						{
							"internalType": "uint256",
							"name": "",
							"type": "uint256"
						}
					],
					"name": "students",
					"outputs": [
						{
							"internalType": "uint256",
							"name": "id",
							"type": "uint256"
						},
						{
							"internalType": "string",
							"name": "fullName",
							"type": "string"
						},
						{
							"internalType": "bool",
							"name": "sheetsDone",
							"type": "bool"
						},
						{
							"internalType": "bool",
							"name": "roomDone",
							"type": "bool"
						},
						{
							"internalType": "bool",
							"name": "booksDone",
							"type": "bool"
						},
						{
							"internalType": "uint256",
							"name": "regDate",
							"type": "uint256"
						},
						{
							"internalType": "uint256",
							"name": "deadlineDate",
							"type": "uint256"
						}
					],
					"stateMutability": "view",
					"type": "function"
				}
			],
			"devdoc": {
				"kind": "dev",
				"methods": {},
				"version": 1
			},
			"evm": {
				"assembly": "    /* \"contracts/Hometask.sol\":62:2190  contract DormitoryQuest {\r... */\n  mstore(0x40, 0x80)\n    /* \"contracts/Hometask.sol\":546:597  constructor() {\r... */\n  callvalue\n  dup1\n  iszero\n  tag_1\n  jumpi\n  0x00\n  dup1\n  revert\ntag_1:\n  pop\n    /* \"contracts/Hometask.sol\":579:589  msg.sender */\n  caller\n    /* \"contracts/Hometask.sol\":571:576  owner */\n  0x00\n  dup1\n    /* \"contracts/Hometask.sol\":571:589  owner = msg.sender */\n  0x0100\n  exp\n  dup2\n  sload\n  dup2\n  0xffffffffffffffffffffffffffffffffffffffff\n  mul\n  not\n  and\n  swap1\n  dup4\n  0xffffffffffffffffffffffffffffffffffffffff\n  and\n  mul\n  or\n  swap1\n  sstore\n  pop\n    /* \"contracts/Hometask.sol\":62:2190  contract DormitoryQuest {\r... */\n  dataSize(sub_0)\n  dup1\n  dataOffset(sub_0)\n  0x00\n  codecopy\n  0x00\n  return\nstop\n\nsub_0: assembly {\n        /* \"contracts/Hometask.sol\":62:2190  contract DormitoryQuest {\r... */\n      mstore(0x40, 0x80)\n      callvalue\n      dup1\n      iszero\n      tag_1\n      jumpi\n      0x00\n      dup1\n      revert\n    tag_1:\n      pop\n      jumpi(tag_2, lt(calldatasize, 0x04))\n      shr(0xe0, calldataload(0x00))\n      dup1\n      0x06ead22e\n      eq\n      tag_3\n      jumpi\n      dup1\n      0x3d5c83d4\n      eq\n      tag_4\n      jumpi\n      dup1\n      0x88da06f9\n      eq\n      tag_5\n      jumpi\n    tag_2:\n      0x00\n      dup1\n      revert\n        /* \"contracts/Hometask.sol\":354:379  Student[] public students */\n    tag_3:\n      tag_6\n      0x04\n      dup1\n      calldatasize\n      sub\n      dup2\n      add\n      swap1\n      tag_7\n      swap2\n      swap1\n      tag_8\n      jump\t// in\n    tag_7:\n      tag_9\n      jump\t// in\n    tag_6:\n      mload(0x40)\n      tag_10\n      swap8\n      swap7\n      swap6\n      swap5\n      swap4\n      swap3\n      swap2\n      swap1\n      tag_11\n      jump\t// in\n    tag_10:\n      mload(0x40)\n      dup1\n      swap2\n      sub\n      swap1\n      return\n        /* \"contracts/Hometask.sol\":1467:2187  function debtsAreDone(uint id) public {\r... */\n    tag_4:\n      tag_12\n      0x04\n      dup1\n      calldatasize\n      sub\n      dup2\n      add\n      swap1\n      tag_13\n      swap2\n      swap1\n      tag_8\n      jump\t// in\n    tag_13:\n      tag_14\n      jump\t// in\n    tag_12:\n      stop\n        /* \"contracts/Hometask.sol\":789:1459  function addStudent(address _to, string calldata _name, bool _sheetsDone, bool _roomDone, bool _booksDone) public OwnerOnly(_to) {\r... */\n    tag_5:\n      tag_15\n      0x04\n      dup1\n      calldatasize\n      sub\n      dup2\n      add\n      swap1\n      tag_16\n      swap2\n      swap1\n      tag_17\n      jump\t// in\n    tag_16:\n      tag_18\n      jump\t// in\n    tag_15:\n      stop\n        /* \"contracts/Hometask.sol\":354:379  Student[] public students */\n    tag_9:\n      0x01\n      dup2\n      dup2\n      sload\n      dup2\n      lt\n      tag_19\n      jumpi\n      0x00\n      dup1\n      revert\n    tag_19:\n      swap1\n      0x00\n      mstore\n      keccak256(0x00, 0x20)\n      swap1\n      0x05\n      mul\n      add\n      0x00\n      swap2\n      pop\n      swap1\n      pop\n      dup1\n      0x00\n      add\n      sload\n      swap1\n      dup1\n      0x01\n      add\n      dup1\n      sload\n      tag_21\n      swap1\n      tag_22\n      jump\t// in\n    tag_21:\n      dup1\n      0x1f\n      add\n      0x20\n      dup1\n      swap2\n      div\n      mul\n      0x20\n      add\n      mload(0x40)\n      swap1\n      dup2\n      add\n      0x40\n      mstore\n      dup1\n      swap3\n      swap2\n      swap1\n      dup2\n      dup2\n      mstore\n      0x20\n      add\n      dup3\n      dup1\n      sload\n      tag_23\n      swap1\n      tag_22\n      jump\t// in\n    tag_23:\n      dup1\n      iszero\n      tag_24\n      jumpi\n      dup1\n      0x1f\n      lt\n      tag_25\n      jumpi\n      0x0100\n      dup1\n      dup4\n      sload\n      div\n      mul\n      dup4\n      mstore\n      swap2\n      0x20\n      add\n      swap2\n      jump(tag_24)\n    tag_25:\n      dup3\n      add\n      swap2\n      swap1\n      0x00\n      mstore\n      keccak256(0x00, 0x20)\n      swap1\n    tag_26:\n      dup2\n      sload\n      dup2\n      mstore\n      swap1\n      0x01\n      add\n      swap1\n      0x20\n      add\n      dup1\n      dup4\n      gt\n      tag_26\n      jumpi\n      dup3\n      swap1\n      sub\n      0x1f\n      and\n      dup3\n      add\n      swap2\n    tag_24:\n      pop\n      pop\n      pop\n      pop\n      pop\n      swap1\n      dup1\n      0x02\n      add\n      0x00\n      swap1\n      sload\n      swap1\n      0x0100\n      exp\n      swap1\n      div\n      0xff\n      and\n      swap1\n      dup1\n      0x02\n      add\n      0x01\n      swap1\n      sload\n      swap1\n      0x0100\n      exp\n      swap1\n      div\n      0xff\n      and\n      swap1\n      dup1\n      0x02\n      add\n      0x02\n      swap1\n      sload\n      swap1\n      0x0100\n      exp\n      swap1\n      div\n      0xff\n      and\n      swap1\n      dup1\n      0x03\n      add\n      sload\n      swap1\n      dup1\n      0x04\n      add\n      sload\n      swap1\n      pop\n      dup8\n      jump\t// out\n        /* \"contracts/Hometask.sol\":1467:2187  function debtsAreDone(uint id) public {\r... */\n    tag_14:\n        /* \"contracts/Hometask.sol\":1530:1531  0 */\n      0x00\n        /* \"contracts/Hometask.sol\":1524:1526  id */\n      dup2\n        /* \"contracts/Hometask.sol\":1524:1531  id >= 0 */\n      lt\n      iszero\n        /* \"contracts/Hometask.sol\":1516:1549  require(id >= 0, \"Incorrect id.\") */\n      tag_28\n      jumpi\n      mload(0x40)\n      0x08c379a000000000000000000000000000000000000000000000000000000000\n      dup2\n      mstore\n      0x04\n      add\n      tag_29\n      swap1\n      tag_30\n      jump\t// in\n    tag_29:\n      mload(0x40)\n      dup1\n      swap2\n      sub\n      swap1\n      revert\n    tag_28:\n        /* \"contracts/Hometask.sol\":1562:1586  Student storage _student */\n      0x00\n        /* \"contracts/Hometask.sol\":1589:1597  students */\n      0x01\n        /* \"contracts/Hometask.sol\":1598:1600  id */\n      dup3\n        /* \"contracts/Hometask.sol\":1589:1601  students[id] */\n      dup2\n      sload\n      dup2\n      lt\n      tag_31\n      jumpi\n      tag_32\n      tag_33\n      jump\t// in\n    tag_32:\n    tag_31:\n      swap1\n      0x00\n      mstore\n      keccak256(0x00, 0x20)\n      swap1\n      0x05\n      mul\n      add\n        /* \"contracts/Hometask.sol\":1562:1601  Student storage _student = students[id] */\n      swap1\n      pop\n        /* \"contracts/Hometask.sol\":1641:1646  false */\n      0x00\n        /* \"contracts/Hometask.sol\":1618:1646  _student.sheetsDone == false */\n      iszero\n      iszero\n        /* \"contracts/Hometask.sol\":1618:1626  _student */\n      dup2\n        /* \"contracts/Hometask.sol\":1618:1637  _student.sheetsDone */\n      0x02\n      add\n      0x00\n      swap1\n      sload\n      swap1\n      0x0100\n      exp\n      swap1\n      div\n      0xff\n      and\n        /* \"contracts/Hometask.sol\":1618:1646  _student.sheetsDone == false */\n      iszero\n      iszero\n      eq\n        /* \"contracts/Hometask.sol\":1614:1726  if (_student.sheetsDone == false)\r... */\n      iszero\n      tag_35\n      jumpi\n        /* \"contracts/Hometask.sol\":1677:1714  SummonsToArmyGiven(_student.fullName) */\n      0xd53ecb21746e36da81ddab5bdcf35c93b4e7adb500e38a0ce440f729de177ac5\n        /* \"contracts/Hometask.sol\":1696:1704  _student */\n      dup2\n        /* \"contracts/Hometask.sol\":1696:1713  _student.fullName */\n      0x01\n      add\n        /* \"contracts/Hometask.sol\":1677:1714  SummonsToArmyGiven(_student.fullName) */\n      mload(0x40)\n      tag_36\n      swap2\n      swap1\n      tag_37\n      jump\t// in\n    tag_36:\n      mload(0x40)\n      dup1\n      swap2\n      sub\n      swap1\n      log1\n        /* \"contracts/Hometask.sol\":1614:1726  if (_student.sheetsDone == false)\r... */\n    tag_35:\n        /* \"contracts/Hometask.sol\":1763:1768  false */\n      0x00\n        /* \"contracts/Hometask.sol\":1742:1768  _student.roomDone == false */\n      iszero\n      iszero\n        /* \"contracts/Hometask.sol\":1742:1750  _student */\n      dup2\n        /* \"contracts/Hometask.sol\":1742:1759  _student.roomDone */\n      0x02\n      add\n      0x01\n      swap1\n      sload\n      swap1\n      0x0100\n      exp\n      swap1\n      div\n      0xff\n      and\n        /* \"contracts/Hometask.sol\":1742:1768  _student.roomDone == false */\n      iszero\n      iszero\n      eq\n        /* \"contracts/Hometask.sol\":1738:1848  if (_student.roomDone == false)\r... */\n      iszero\n      tag_38\n      jumpi\n        /* \"contracts/Hometask.sol\":1799:1836  SummonsToArmyGiven(_student.fullName) */\n      0xd53ecb21746e36da81ddab5bdcf35c93b4e7adb500e38a0ce440f729de177ac5\n        /* \"contracts/Hometask.sol\":1818:1826  _student */\n      dup2\n        /* \"contracts/Hometask.sol\":1818:1835  _student.fullName */\n      0x01\n      add\n        /* \"contracts/Hometask.sol\":1799:1836  SummonsToArmyGiven(_student.fullName) */\n      mload(0x40)\n      tag_39\n      swap2\n      swap1\n      tag_37\n      jump\t// in\n    tag_39:\n      mload(0x40)\n      dup1\n      swap2\n      sub\n      swap1\n      log1\n        /* \"contracts/Hometask.sol\":1738:1848  if (_student.roomDone == false)\r... */\n    tag_38:\n        /* \"contracts/Hometask.sol\":1886:1891  false */\n      0x00\n        /* \"contracts/Hometask.sol\":1864:1891  _student.booksDone == false */\n      iszero\n      iszero\n        /* \"contracts/Hometask.sol\":1864:1872  _student */\n      dup2\n        /* \"contracts/Hometask.sol\":1864:1882  _student.booksDone */\n      0x02\n      add\n      0x02\n      swap1\n      sload\n      swap1\n      0x0100\n      exp\n      swap1\n      div\n      0xff\n      and\n        /* \"contracts/Hometask.sol\":1864:1891  _student.booksDone == false */\n      iszero\n      iszero\n      eq\n        /* \"contracts/Hometask.sol\":1860:1971  if (_student.booksDone == false)\r... */\n      iszero\n      tag_40\n      jumpi\n        /* \"contracts/Hometask.sol\":1922:1959  SummonsToArmyGiven(_student.fullName) */\n      0xd53ecb21746e36da81ddab5bdcf35c93b4e7adb500e38a0ce440f729de177ac5\n        /* \"contracts/Hometask.sol\":1941:1949  _student */\n      dup2\n        /* \"contracts/Hometask.sol\":1941:1958  _student.fullName */\n      0x01\n      add\n        /* \"contracts/Hometask.sol\":1922:1959  SummonsToArmyGiven(_student.fullName) */\n      mload(0x40)\n      tag_41\n      swap2\n      swap1\n      tag_37\n      jump\t// in\n    tag_41:\n      mload(0x40)\n      dup1\n      swap2\n      sub\n      swap1\n      log1\n        /* \"contracts/Hometask.sol\":1860:1971  if (_student.booksDone == false)\r... */\n    tag_40:\n        /* \"contracts/Hometask.sol\":2017:2032  block.timestamp */\n      timestamp\n        /* \"contracts/Hometask.sol\":118:124  3 days */\n      0x03f480\n        /* \"contracts/Hometask.sol\":1987:1995  _student */\n      dup3\n        /* \"contracts/Hometask.sol\":1987:2003  _student.regDate */\n      0x03\n      add\n      sload\n        /* \"contracts/Hometask.sol\":1987:2014  _student.regDate + DURATION */\n      tag_42\n      swap2\n      swap1\n      tag_43\n      jump\t// in\n    tag_42:\n        /* \"contracts/Hometask.sol\":1987:2032  _student.regDate + DURATION > block.timestamp */\n      gt\n        /* \"contracts/Hometask.sol\":1983:2112  if (_student.regDate + DURATION > block.timestamp)\r... */\n      iszero\n      tag_44\n      jumpi\n        /* \"contracts/Hometask.sol\":2063:2100  SummonsToArmyGiven(_student.fullName) */\n      0xd53ecb21746e36da81ddab5bdcf35c93b4e7adb500e38a0ce440f729de177ac5\n        /* \"contracts/Hometask.sol\":2082:2090  _student */\n      dup2\n        /* \"contracts/Hometask.sol\":2082:2099  _student.fullName */\n      0x01\n      add\n        /* \"contracts/Hometask.sol\":2063:2100  SummonsToArmyGiven(_student.fullName) */\n      mload(0x40)\n      tag_45\n      swap2\n      swap1\n      tag_37\n      jump\t// in\n    tag_45:\n      mload(0x40)\n      dup1\n      swap2\n      sub\n      swap1\n      log1\n        /* \"contracts/Hometask.sol\":1983:2112  if (_student.regDate + DURATION > block.timestamp)\r... */\n    tag_44:\n        /* \"contracts/Hometask.sol\":2129:2179  StudentEvicted(_student.fullName, block.timestamp) */\n      0x6fd4822621c89040f0ea90264351e7f95d334eb76155286b2c1b6732331ff93c\n        /* \"contracts/Hometask.sol\":2144:2152  _student */\n      dup2\n        /* \"contracts/Hometask.sol\":2144:2161  _student.fullName */\n      0x01\n      add\n        /* \"contracts/Hometask.sol\":2163:2178  block.timestamp */\n      timestamp\n        /* \"contracts/Hometask.sol\":2129:2179  StudentEvicted(_student.fullName, block.timestamp) */\n      mload(0x40)\n      tag_46\n      swap3\n      swap2\n      swap1\n      tag_47\n      jump\t// in\n    tag_46:\n      mload(0x40)\n      dup1\n      swap2\n      sub\n      swap1\n      log1\n        /* \"contracts/Hometask.sol\":1505:2187  {\r... */\n      pop\n        /* \"contracts/Hometask.sol\":1467:2187  function debtsAreDone(uint id) public {\r... */\n      pop\n      jump\t// out\n        /* \"contracts/Hometask.sol\":789:1459  function addStudent(address _to, string calldata _name, bool _sheetsDone, bool _roomDone, bool _booksDone) public OwnerOnly(_to) {\r... */\n    tag_18:\n        /* \"contracts/Hometask.sol\":913:916  _to */\n      dup6\n        /* \"contracts/Hometask.sol\":670:675  owner */\n      0x00\n      dup1\n      sload\n      swap1\n      0x0100\n      exp\n      swap1\n      div\n      0xffffffffffffffffffffffffffffffffffffffff\n      and\n        /* \"contracts/Hometask.sol\":656:675  msg.sender == owner */\n      0xffffffffffffffffffffffffffffffffffffffff\n      and\n        /* \"contracts/Hometask.sol\":656:666  msg.sender */\n      caller\n        /* \"contracts/Hometask.sol\":656:675  msg.sender == owner */\n      0xffffffffffffffffffffffffffffffffffffffff\n      and\n      eq\n        /* \"contracts/Hometask.sol\":648:702  require(msg.sender == owner, \"You are not the owner.\") */\n      tag_49\n      jumpi\n      mload(0x40)\n      0x08c379a000000000000000000000000000000000000000000000000000000000\n      dup2\n      mstore\n      0x04\n      add\n      tag_50\n      swap1\n      tag_51\n      jump\t// in\n    tag_50:\n      mload(0x40)\n      dup1\n      swap2\n      sub\n      swap1\n      revert\n    tag_49:\n        /* \"contracts/Hometask.sol\":736:737  0 */\n      0x00\n        /* \"contracts/Hometask.sol\":721:738  _to != address(0) */\n      0xffffffffffffffffffffffffffffffffffffffff\n      and\n        /* \"contracts/Hometask.sol\":721:724  _to */\n      dup2\n        /* \"contracts/Hometask.sol\":721:738  _to != address(0) */\n      0xffffffffffffffffffffffffffffffffffffffff\n      and\n      eq\n      iszero\n        /* \"contracts/Hometask.sol\":713:761  require(_to != address(0), \"Incorrect address!\") */\n      tag_52\n      jumpi\n      mload(0x40)\n      0x08c379a000000000000000000000000000000000000000000000000000000000\n      dup2\n      mstore\n      0x04\n      add\n      tag_53\n      swap1\n      tag_54\n      jump\t// in\n    tag_53:\n      mload(0x40)\n      dup1\n      swap2\n      sub\n      swap1\n      revert\n    tag_52:\n        /* \"contracts/Hometask.sol\":929:943  uint currentId */\n      0x00\n        /* \"contracts/Hometask.sol\":965:966  0 */\n      dup1\n        /* \"contracts/Hometask.sol\":946:954  students */\n      0x01\n        /* \"contracts/Hometask.sol\":946:961  students.length */\n      dup1\n      sload\n      swap1\n      pop\n        /* \"contracts/Hometask.sol\":946:966  students.length == 0 */\n      eq\n        /* \"contracts/Hometask.sol\":946:1006  students.length == 0 ? students.length : students.length - 1 */\n      tag_56\n      jumpi\n        /* \"contracts/Hometask.sol\":1005:1006  1 */\n      0x01\n        /* \"contracts/Hometask.sol\":987:995  students */\n      dup1\n        /* \"contracts/Hometask.sol\":987:1002  students.length */\n      dup1\n      sload\n      swap1\n      pop\n        /* \"contracts/Hometask.sol\":987:1006  students.length - 1 */\n      tag_57\n      swap2\n      swap1\n      tag_58\n      jump\t// in\n    tag_57:\n        /* \"contracts/Hometask.sol\":946:1006  students.length == 0 ? students.length : students.length - 1 */\n      jump(tag_59)\n    tag_56:\n        /* \"contracts/Hometask.sol\":969:977  students */\n      0x01\n        /* \"contracts/Hometask.sol\":969:984  students.length */\n      dup1\n      sload\n      swap1\n      pop\n        /* \"contracts/Hometask.sol\":946:1006  students.length == 0 ? students.length : students.length - 1 */\n    tag_59:\n        /* \"contracts/Hometask.sol\":929:1006  uint currentId = students.length == 0 ? students.length : students.length - 1 */\n      swap1\n      pop\n        /* \"contracts/Hometask.sol\":1019:1044  Student memory newStudent */\n      0x00\n        /* \"contracts/Hometask.sol\":1047:1327  Student({\r... */\n      mload(0x40)\n      dup1\n      0xe0\n      add\n      0x40\n      mstore\n      dup1\n        /* \"contracts/Hometask.sol\":1074:1083  currentId */\n      dup4\n        /* \"contracts/Hometask.sol\":1047:1327  Student({\r... */\n      dup2\n      mstore\n      0x20\n      add\n        /* \"contracts/Hometask.sol\":1108:1113  _name */\n      dup10\n      dup10\n        /* \"contracts/Hometask.sol\":1047:1327  Student({\r... */\n      dup1\n      dup1\n      0x1f\n      add\n      0x20\n      dup1\n      swap2\n      div\n      mul\n      0x20\n      add\n      mload(0x40)\n      swap1\n      dup2\n      add\n      0x40\n      mstore\n      dup1\n      swap4\n      swap3\n      swap2\n      swap1\n      dup2\n      dup2\n      mstore\n      0x20\n      add\n      dup4\n      dup4\n      dup1\n      dup3\n      dup5\n      calldatacopy\n      0x00\n      dup2\n      dup5\n      add\n      mstore\n      not(0x1f)\n      0x1f\n      dup3\n      add\n      and\n      swap1\n      pop\n      dup1\n      dup4\n      add\n      swap3\n      pop\n      pop\n      pop\n      pop\n      pop\n      pop\n      pop\n      dup2\n      mstore\n      0x20\n      add\n        /* \"contracts/Hometask.sol\":1140:1151  _sheetsDone */\n      dup8\n        /* \"contracts/Hometask.sol\":1047:1327  Student({\r... */\n      iszero\n      iszero\n      dup2\n      mstore\n      0x20\n      add\n        /* \"contracts/Hometask.sol\":1176:1185  _roomDone */\n      dup7\n        /* \"contracts/Hometask.sol\":1047:1327  Student({\r... */\n      iszero\n      iszero\n      dup2\n      mstore\n      0x20\n      add\n        /* \"contracts/Hometask.sol\":1211:1221  _booksDone */\n      dup6\n        /* \"contracts/Hometask.sol\":1047:1327  Student({\r... */\n      iszero\n      iszero\n      dup2\n      mstore\n      0x20\n      add\n        /* \"contracts/Hometask.sol\":1245:1260  block.timestamp */\n      timestamp\n        /* \"contracts/Hometask.sol\":1047:1327  Student({\r... */\n      dup2\n      mstore\n      0x20\n      add\n        /* \"contracts/Hometask.sol\":118:124  3 days */\n      0x03f480\n        /* \"contracts/Hometask.sol\":1289:1304  block.timestamp */\n      timestamp\n        /* \"contracts/Hometask.sol\":1289:1315  block.timestamp + DURATION */\n      tag_60\n      swap2\n      swap1\n      tag_43\n      jump\t// in\n    tag_60:\n        /* \"contracts/Hometask.sol\":1047:1327  Student({\r... */\n      dup2\n      mstore\n      pop\n        /* \"contracts/Hometask.sol\":1019:1327  Student memory newStudent = Student({\r... */\n      swap1\n      pop\n        /* \"contracts/Hometask.sol\":1340:1348  students */\n      0x01\n        /* \"contracts/Hometask.sol\":1354:1364  newStudent */\n      dup2\n        /* \"contracts/Hometask.sol\":1340:1365  students.push(newStudent) */\n      swap1\n      dup1\n      0x01\n      dup2\n      sload\n      add\n      dup1\n      dup3\n      sstore\n      dup1\n      swap2\n      pop\n      pop\n      0x01\n      swap1\n      sub\n      swap1\n      0x00\n      mstore\n      keccak256(0x00, 0x20)\n      swap1\n      0x05\n      mul\n      add\n      0x00\n      swap1\n      swap2\n      swap1\n      swap2\n      swap1\n      swap2\n      pop\n      0x00\n      dup3\n      add\n      mload\n      dup2\n      0x00\n      add\n      sstore\n      0x20\n      dup3\n      add\n      mload\n      dup2\n      0x01\n      add\n      swap1\n      dup1\n      mload\n      swap1\n      0x20\n      add\n      swap1\n      tag_62\n      swap3\n      swap2\n      swap1\n      tag_63\n      jump\t// in\n    tag_62:\n      pop\n      0x40\n      dup3\n      add\n      mload\n      dup2\n      0x02\n      add\n      exp(0x0100, 0x00)\n      dup2\n      sload\n      dup2\n      0xff\n      mul\n      not\n      and\n      swap1\n      dup4\n      iszero\n      iszero\n      mul\n      or\n      swap1\n      sstore\n      pop\n      0x60\n      dup3\n      add\n      mload\n      dup2\n      0x02\n      add\n      exp(0x0100, 0x01)\n      dup2\n      sload\n      dup2\n      0xff\n      mul\n      not\n      and\n      swap1\n      dup4\n      iszero\n      iszero\n      mul\n      or\n      swap1\n      sstore\n      pop\n      0x80\n      dup3\n      add\n      mload\n      dup2\n      0x02\n      add\n      exp(0x0100, 0x02)\n      dup2\n      sload\n      dup2\n      0xff\n      mul\n      not\n      and\n      swap1\n      dup4\n      iszero\n      iszero\n      mul\n      or\n      swap1\n      sstore\n      pop\n      0xa0\n      dup3\n      add\n      mload\n      dup2\n      0x03\n      add\n      sstore\n      0xc0\n      dup3\n      add\n      mload\n      dup2\n      0x04\n      add\n      sstore\n      pop\n      pop\n        /* \"contracts/Hometask.sol\":1383:1451  StudentAdded(newStudent.id, newStudent.fullName, newStudent.regDate) */\n      0xfafb7311fc57ca8a55073f63725e888b4250c799d77ae873970d65ac08c5917a\n        /* \"contracts/Hometask.sol\":1396:1406  newStudent */\n      dup2\n        /* \"contracts/Hometask.sol\":1396:1409  newStudent.id */\n      0x00\n      add\n      mload\n        /* \"contracts/Hometask.sol\":1411:1421  newStudent */\n      dup3\n        /* \"contracts/Hometask.sol\":1411:1430  newStudent.fullName */\n      0x20\n      add\n      mload\n        /* \"contracts/Hometask.sol\":1432:1442  newStudent */\n      dup4\n        /* \"contracts/Hometask.sol\":1432:1450  newStudent.regDate */\n      0xa0\n      add\n      mload\n        /* \"contracts/Hometask.sol\":1383:1451  StudentAdded(newStudent.id, newStudent.fullName, newStudent.regDate) */\n      mload(0x40)\n      tag_64\n      swap4\n      swap3\n      swap2\n      swap1\n      tag_65\n      jump\t// in\n    tag_64:\n      mload(0x40)\n      dup1\n      swap2\n      sub\n      swap1\n      log1\n        /* \"contracts/Hometask.sol\":918:1459  {\r... */\n      pop\n      pop\n        /* \"contracts/Hometask.sol\":789:1459  function addStudent(address _to, string calldata _name, bool _sheetsDone, bool _roomDone, bool _booksDone) public OwnerOnly(_to) {\r... */\n      pop\n      pop\n      pop\n      pop\n      pop\n      pop\n      pop\n      jump\t// out\n    tag_63:\n      dup3\n      dup1\n      sload\n      tag_66\n      swap1\n      tag_22\n      jump\t// in\n    tag_66:\n      swap1\n      0x00\n      mstore\n      keccak256(0x00, 0x20)\n      swap1\n      0x1f\n      add\n      0x20\n      swap1\n      div\n      dup2\n      add\n      swap3\n      dup3\n      tag_68\n      jumpi\n      0x00\n      dup6\n      sstore\n      jump(tag_67)\n    tag_68:\n      dup3\n      0x1f\n      lt\n      tag_69\n      jumpi\n      dup1\n      mload\n      not(0xff)\n      and\n      dup4\n      dup1\n      add\n      or\n      dup6\n      sstore\n      jump(tag_67)\n    tag_69:\n      dup3\n      dup1\n      add\n      0x01\n      add\n      dup6\n      sstore\n      dup3\n      iszero\n      tag_67\n      jumpi\n      swap2\n      dup3\n      add\n    tag_70:\n      dup3\n      dup2\n      gt\n      iszero\n      tag_71\n      jumpi\n      dup3\n      mload\n      dup3\n      sstore\n      swap2\n      0x20\n      add\n      swap2\n      swap1\n      0x01\n      add\n      swap1\n      jump(tag_70)\n    tag_71:\n    tag_67:\n      pop\n      swap1\n      pop\n      tag_72\n      swap2\n      swap1\n      tag_73\n      jump\t// in\n    tag_72:\n      pop\n      swap1\n      jump\t// out\n    tag_73:\n    tag_74:\n      dup1\n      dup3\n      gt\n      iszero\n      tag_75\n      jumpi\n      0x00\n      dup2\n      0x00\n      swap1\n      sstore\n      pop\n      0x01\n      add\n      jump(tag_74)\n    tag_75:\n      pop\n      swap1\n      jump\t// out\n        /* \"#utility.yul\":7:146   */\n    tag_77:\n        /* \"#utility.yul\":53:58   */\n      0x00\n        /* \"#utility.yul\":91:97   */\n      dup2\n        /* \"#utility.yul\":78:98   */\n      calldataload\n        /* \"#utility.yul\":69:98   */\n      swap1\n      pop\n        /* \"#utility.yul\":107:140   */\n      tag_79\n        /* \"#utility.yul\":134:139   */\n      dup2\n        /* \"#utility.yul\":107:140   */\n      tag_80\n      jump\t// in\n    tag_79:\n        /* \"#utility.yul\":7:146   */\n      swap3\n      swap2\n      pop\n      pop\n      jump\t// out\n        /* \"#utility.yul\":152:285   */\n    tag_81:\n        /* \"#utility.yul\":195:200   */\n      0x00\n        /* \"#utility.yul\":233:239   */\n      dup2\n        /* \"#utility.yul\":220:240   */\n      calldataload\n        /* \"#utility.yul\":211:240   */\n      swap1\n      pop\n        /* \"#utility.yul\":249:279   */\n      tag_83\n        /* \"#utility.yul\":273:278   */\n      dup2\n        /* \"#utility.yul\":249:279   */\n      tag_84\n      jump\t// in\n    tag_83:\n        /* \"#utility.yul\":152:285   */\n      swap3\n      swap2\n      pop\n      pop\n      jump\t// out\n        /* \"#utility.yul\":305:858   */\n    tag_85:\n        /* \"#utility.yul\":363:371   */\n      0x00\n        /* \"#utility.yul\":373:379   */\n      dup1\n        /* \"#utility.yul\":423:426   */\n      dup4\n        /* \"#utility.yul\":416:420   */\n      0x1f\n        /* \"#utility.yul\":408:414   */\n      dup5\n        /* \"#utility.yul\":404:421   */\n      add\n        /* \"#utility.yul\":400:427   */\n      slt\n        /* \"#utility.yul\":390:512   */\n      tag_87\n      jumpi\n        /* \"#utility.yul\":431:510   */\n      tag_88\n      tag_89\n      jump\t// in\n    tag_88:\n        /* \"#utility.yul\":390:512   */\n    tag_87:\n        /* \"#utility.yul\":544:550   */\n      dup3\n        /* \"#utility.yul\":531:551   */\n      calldataload\n        /* \"#utility.yul\":521:551   */\n      swap1\n      pop\n        /* \"#utility.yul\":574:592   */\n      0xffffffffffffffff\n        /* \"#utility.yul\":566:572   */\n      dup2\n        /* \"#utility.yul\":563:593   */\n      gt\n        /* \"#utility.yul\":560:677   */\n      iszero\n      tag_90\n      jumpi\n        /* \"#utility.yul\":596:675   */\n      tag_91\n      tag_92\n      jump\t// in\n    tag_91:\n        /* \"#utility.yul\":560:677   */\n    tag_90:\n        /* \"#utility.yul\":710:714   */\n      0x20\n        /* \"#utility.yul\":702:708   */\n      dup4\n        /* \"#utility.yul\":698:715   */\n      add\n        /* \"#utility.yul\":686:715   */\n      swap2\n      pop\n        /* \"#utility.yul\":764:767   */\n      dup4\n        /* \"#utility.yul\":756:760   */\n      0x01\n        /* \"#utility.yul\":748:754   */\n      dup3\n        /* \"#utility.yul\":744:761   */\n      mul\n        /* \"#utility.yul\":734:742   */\n      dup4\n        /* \"#utility.yul\":730:762   */\n      add\n        /* \"#utility.yul\":727:768   */\n      gt\n        /* \"#utility.yul\":724:852   */\n      iszero\n      tag_93\n      jumpi\n        /* \"#utility.yul\":771:850   */\n      tag_94\n      tag_95\n      jump\t// in\n    tag_94:\n        /* \"#utility.yul\":724:852   */\n    tag_93:\n        /* \"#utility.yul\":305:858   */\n      swap3\n      pop\n      swap3\n      swap1\n      pop\n      jump\t// out\n        /* \"#utility.yul\":864:1003   */\n    tag_96:\n        /* \"#utility.yul\":910:915   */\n      0x00\n        /* \"#utility.yul\":948:954   */\n      dup2\n        /* \"#utility.yul\":935:955   */\n      calldataload\n        /* \"#utility.yul\":926:955   */\n      swap1\n      pop\n        /* \"#utility.yul\":964:997   */\n      tag_98\n        /* \"#utility.yul\":991:996   */\n      dup2\n        /* \"#utility.yul\":964:997   */\n      tag_99\n      jump\t// in\n    tag_98:\n        /* \"#utility.yul\":864:1003   */\n      swap3\n      swap2\n      pop\n      pop\n      jump\t// out\n        /* \"#utility.yul\":1009:2102   */\n    tag_17:\n        /* \"#utility.yul\":1107:1113   */\n      0x00\n        /* \"#utility.yul\":1115:1121   */\n      dup1\n        /* \"#utility.yul\":1123:1129   */\n      0x00\n        /* \"#utility.yul\":1131:1137   */\n      dup1\n        /* \"#utility.yul\":1139:1145   */\n      0x00\n        /* \"#utility.yul\":1147:1153   */\n      dup1\n        /* \"#utility.yul\":1196:1199   */\n      0xa0\n        /* \"#utility.yul\":1184:1193   */\n      dup8\n        /* \"#utility.yul\":1175:1182   */\n      dup10\n        /* \"#utility.yul\":1171:1194   */\n      sub\n        /* \"#utility.yul\":1167:1200   */\n      slt\n        /* \"#utility.yul\":1164:1284   */\n      iszero\n      tag_101\n      jumpi\n        /* \"#utility.yul\":1203:1282   */\n      tag_102\n      tag_103\n      jump\t// in\n    tag_102:\n        /* \"#utility.yul\":1164:1284   */\n    tag_101:\n        /* \"#utility.yul\":1323:1324   */\n      0x00\n        /* \"#utility.yul\":1348:1401   */\n      tag_104\n        /* \"#utility.yul\":1393:1400   */\n      dup10\n        /* \"#utility.yul\":1384:1390   */\n      dup3\n        /* \"#utility.yul\":1373:1382   */\n      dup11\n        /* \"#utility.yul\":1369:1391   */\n      add\n        /* \"#utility.yul\":1348:1401   */\n      tag_77\n      jump\t// in\n    tag_104:\n        /* \"#utility.yul\":1338:1401   */\n      swap7\n      pop\n        /* \"#utility.yul\":1294:1411   */\n      pop\n        /* \"#utility.yul\":1478:1480   */\n      0x20\n        /* \"#utility.yul\":1467:1476   */\n      dup8\n        /* \"#utility.yul\":1463:1481   */\n      add\n        /* \"#utility.yul\":1450:1482   */\n      calldataload\n        /* \"#utility.yul\":1509:1527   */\n      0xffffffffffffffff\n        /* \"#utility.yul\":1501:1507   */\n      dup2\n        /* \"#utility.yul\":1498:1528   */\n      gt\n        /* \"#utility.yul\":1495:1612   */\n      iszero\n      tag_105\n      jumpi\n        /* \"#utility.yul\":1531:1610   */\n      tag_106\n      tag_107\n      jump\t// in\n    tag_106:\n        /* \"#utility.yul\":1495:1612   */\n    tag_105:\n        /* \"#utility.yul\":1644:1709   */\n      tag_108\n        /* \"#utility.yul\":1701:1708   */\n      dup10\n        /* \"#utility.yul\":1692:1698   */\n      dup3\n        /* \"#utility.yul\":1681:1690   */\n      dup11\n        /* \"#utility.yul\":1677:1699   */\n      add\n        /* \"#utility.yul\":1644:1709   */\n      tag_85\n      jump\t// in\n    tag_108:\n        /* \"#utility.yul\":1626:1709   */\n      swap6\n      pop\n      swap6\n      pop\n        /* \"#utility.yul\":1421:1719   */\n      pop\n        /* \"#utility.yul\":1758:1760   */\n      0x40\n        /* \"#utility.yul\":1784:1834   */\n      tag_109\n        /* \"#utility.yul\":1826:1833   */\n      dup10\n        /* \"#utility.yul\":1817:1823   */\n      dup3\n        /* \"#utility.yul\":1806:1815   */\n      dup11\n        /* \"#utility.yul\":1802:1824   */\n      add\n        /* \"#utility.yul\":1784:1834   */\n      tag_81\n      jump\t// in\n    tag_109:\n        /* \"#utility.yul\":1774:1834   */\n      swap4\n      pop\n        /* \"#utility.yul\":1729:1844   */\n      pop\n        /* \"#utility.yul\":1883:1885   */\n      0x60\n        /* \"#utility.yul\":1909:1959   */\n      tag_110\n        /* \"#utility.yul\":1951:1958   */\n      dup10\n        /* \"#utility.yul\":1942:1948   */\n      dup3\n        /* \"#utility.yul\":1931:1940   */\n      dup11\n        /* \"#utility.yul\":1927:1949   */\n      add\n        /* \"#utility.yul\":1909:1959   */\n      tag_81\n      jump\t// in\n    tag_110:\n        /* \"#utility.yul\":1899:1959   */\n      swap3\n      pop\n        /* \"#utility.yul\":1854:1969   */\n      pop\n        /* \"#utility.yul\":2008:2011   */\n      0x80\n        /* \"#utility.yul\":2035:2085   */\n      tag_111\n        /* \"#utility.yul\":2077:2084   */\n      dup10\n        /* \"#utility.yul\":2068:2074   */\n      dup3\n        /* \"#utility.yul\":2057:2066   */\n      dup11\n        /* \"#utility.yul\":2053:2075   */\n      add\n        /* \"#utility.yul\":2035:2085   */\n      tag_81\n      jump\t// in\n    tag_111:\n        /* \"#utility.yul\":2025:2085   */\n      swap2\n      pop\n        /* \"#utility.yul\":1979:2095   */\n      pop\n        /* \"#utility.yul\":1009:2102   */\n      swap3\n      swap6\n      pop\n      swap3\n      swap6\n      pop\n      swap3\n      swap6\n      jump\t// out\n        /* \"#utility.yul\":2108:2437   */\n    tag_8:\n        /* \"#utility.yul\":2167:2173   */\n      0x00\n        /* \"#utility.yul\":2216:2218   */\n      0x20\n        /* \"#utility.yul\":2204:2213   */\n      dup3\n        /* \"#utility.yul\":2195:2202   */\n      dup5\n        /* \"#utility.yul\":2191:2214   */\n      sub\n        /* \"#utility.yul\":2187:2219   */\n      slt\n        /* \"#utility.yul\":2184:2303   */\n      iszero\n      tag_113\n      jumpi\n        /* \"#utility.yul\":2222:2301   */\n      tag_114\n      tag_103\n      jump\t// in\n    tag_114:\n        /* \"#utility.yul\":2184:2303   */\n    tag_113:\n        /* \"#utility.yul\":2342:2343   */\n      0x00\n        /* \"#utility.yul\":2367:2420   */\n      tag_115\n        /* \"#utility.yul\":2412:2419   */\n      dup5\n        /* \"#utility.yul\":2403:2409   */\n      dup3\n        /* \"#utility.yul\":2392:2401   */\n      dup6\n        /* \"#utility.yul\":2388:2410   */\n      add\n        /* \"#utility.yul\":2367:2420   */\n      tag_96\n      jump\t// in\n    tag_115:\n        /* \"#utility.yul\":2357:2420   */\n      swap2\n      pop\n        /* \"#utility.yul\":2313:2430   */\n      pop\n        /* \"#utility.yul\":2108:2437   */\n      swap3\n      swap2\n      pop\n      pop\n      jump\t// out\n        /* \"#utility.yul\":2443:2552   */\n    tag_116:\n        /* \"#utility.yul\":2524:2545   */\n      tag_118\n        /* \"#utility.yul\":2539:2544   */\n      dup2\n        /* \"#utility.yul\":2524:2545   */\n      tag_119\n      jump\t// in\n    tag_118:\n        /* \"#utility.yul\":2519:2522   */\n      dup3\n        /* \"#utility.yul\":2512:2546   */\n      mstore\n        /* \"#utility.yul\":2443:2552   */\n      pop\n      pop\n      jump\t// out\n        /* \"#utility.yul\":2558:2922   */\n    tag_120:\n        /* \"#utility.yul\":2646:2649   */\n      0x00\n        /* \"#utility.yul\":2674:2713   */\n      tag_122\n        /* \"#utility.yul\":2707:2712   */\n      dup3\n        /* \"#utility.yul\":2674:2713   */\n      tag_123\n      jump\t// in\n    tag_122:\n        /* \"#utility.yul\":2729:2800   */\n      tag_124\n        /* \"#utility.yul\":2793:2799   */\n      dup2\n        /* \"#utility.yul\":2788:2791   */\n      dup6\n        /* \"#utility.yul\":2729:2800   */\n      tag_125\n      jump\t// in\n    tag_124:\n        /* \"#utility.yul\":2722:2800   */\n      swap4\n      pop\n        /* \"#utility.yul\":2809:2861   */\n      tag_126\n        /* \"#utility.yul\":2854:2860   */\n      dup2\n        /* \"#utility.yul\":2849:2852   */\n      dup6\n        /* \"#utility.yul\":2842:2846   */\n      0x20\n        /* \"#utility.yul\":2835:2840   */\n      dup7\n        /* \"#utility.yul\":2831:2847   */\n      add\n        /* \"#utility.yul\":2809:2861   */\n      tag_127\n      jump\t// in\n    tag_126:\n        /* \"#utility.yul\":2886:2915   */\n      tag_128\n        /* \"#utility.yul\":2908:2914   */\n      dup2\n        /* \"#utility.yul\":2886:2915   */\n      tag_129\n      jump\t// in\n    tag_128:\n        /* \"#utility.yul\":2881:2884   */\n      dup5\n        /* \"#utility.yul\":2877:2916   */\n      add\n        /* \"#utility.yul\":2870:2916   */\n      swap2\n      pop\n        /* \"#utility.yul\":2650:2922   */\n      pop\n        /* \"#utility.yul\":2558:2922   */\n      swap3\n      swap2\n      pop\n      pop\n      jump\t// out\n        /* \"#utility.yul\":2952:3754   */\n    tag_130:\n        /* \"#utility.yul\":3037:3040   */\n      0x00\n        /* \"#utility.yul\":3074:3079   */\n      dup2\n        /* \"#utility.yul\":3068:3080   */\n      sload\n        /* \"#utility.yul\":3103:3139   */\n      tag_132\n        /* \"#utility.yul\":3129:3138   */\n      dup2\n        /* \"#utility.yul\":3103:3139   */\n      tag_22\n      jump\t// in\n    tag_132:\n        /* \"#utility.yul\":3155:3226   */\n      tag_133\n        /* \"#utility.yul\":3219:3225   */\n      dup2\n        /* \"#utility.yul\":3214:3217   */\n      dup7\n        /* \"#utility.yul\":3155:3226   */\n      tag_125\n      jump\t// in\n    tag_133:\n        /* \"#utility.yul\":3148:3226   */\n      swap5\n      pop\n        /* \"#utility.yul\":3257:3258   */\n      0x01\n        /* \"#utility.yul\":3246:3255   */\n      dup3\n        /* \"#utility.yul\":3242:3259   */\n      and\n        /* \"#utility.yul\":3273:3274   */\n      0x00\n        /* \"#utility.yul\":3268:3403   */\n      dup2\n      eq\n      tag_135\n      jumpi\n        /* \"#utility.yul\":3417:3418   */\n      0x01\n        /* \"#utility.yul\":3412:3748   */\n      dup2\n      eq\n      tag_136\n      jumpi\n        /* \"#utility.yul\":3235:3748   */\n      jump(tag_134)\n        /* \"#utility.yul\":3268:3403   */\n    tag_135:\n        /* \"#utility.yul\":3352:3356   */\n      0xff\n        /* \"#utility.yul\":3348:3357   */\n      not\n        /* \"#utility.yul\":3337:3346   */\n      dup4\n        /* \"#utility.yul\":3333:3358   */\n      and\n        /* \"#utility.yul\":3328:3331   */\n      dup7\n        /* \"#utility.yul\":3321:3359   */\n      mstore\n        /* \"#utility.yul\":3388:3392   */\n      0x20\n        /* \"#utility.yul\":3383:3386   */\n      dup7\n        /* \"#utility.yul\":3379:3393   */\n      add\n        /* \"#utility.yul\":3372:3393   */\n      swap4\n      pop\n        /* \"#utility.yul\":3268:3403   */\n      jump(tag_134)\n        /* \"#utility.yul\":3412:3748   */\n    tag_136:\n        /* \"#utility.yul\":3479:3517   */\n      tag_137\n        /* \"#utility.yul\":3511:3516   */\n      dup6\n        /* \"#utility.yul\":3479:3517   */\n      tag_138\n      jump\t// in\n    tag_137:\n        /* \"#utility.yul\":3539:3540   */\n      0x00\n        /* \"#utility.yul\":3553:3707   */\n    tag_139:\n        /* \"#utility.yul\":3567:3573   */\n      dup4\n        /* \"#utility.yul\":3564:3565   */\n      dup2\n        /* \"#utility.yul\":3561:3574   */\n      lt\n        /* \"#utility.yul\":3553:3707   */\n      iszero\n      tag_141\n      jumpi\n        /* \"#utility.yul\":3641:3648   */\n      dup2\n        /* \"#utility.yul\":3635:3649   */\n      sload\n        /* \"#utility.yul\":3631:3632   */\n      dup2\n        /* \"#utility.yul\":3626:3629   */\n      dup10\n        /* \"#utility.yul\":3622:3633   */\n      add\n        /* \"#utility.yul\":3615:3650   */\n      mstore\n        /* \"#utility.yul\":3691:3692   */\n      0x01\n        /* \"#utility.yul\":3682:3689   */\n      dup3\n        /* \"#utility.yul\":3678:3693   */\n      add\n        /* \"#utility.yul\":3667:3693   */\n      swap2\n      pop\n        /* \"#utility.yul\":3589:3593   */\n      0x20\n        /* \"#utility.yul\":3586:3587   */\n      dup2\n        /* \"#utility.yul\":3582:3594   */\n      add\n        /* \"#utility.yul\":3577:3594   */\n      swap1\n      pop\n        /* \"#utility.yul\":3553:3707   */\n      jump(tag_139)\n    tag_141:\n        /* \"#utility.yul\":3736:3737   */\n      dup1\n        /* \"#utility.yul\":3731:3734   */\n      dup9\n        /* \"#utility.yul\":3727:3738   */\n      add\n        /* \"#utility.yul\":3720:3738   */\n      swap6\n      pop\n        /* \"#utility.yul\":3419:3748   */\n      pop\n      pop\n        /* \"#utility.yul\":3235:3748   */\n    tag_134:\n      pop\n        /* \"#utility.yul\":3041:3754   */\n      pop\n      pop\n        /* \"#utility.yul\":2952:3754   */\n      swap3\n      swap2\n      pop\n      pop\n      jump\t// out\n        /* \"#utility.yul\":3760:4126   */\n    tag_142:\n        /* \"#utility.yul\":3902:3905   */\n      0x00\n        /* \"#utility.yul\":3923:3990   */\n      tag_144\n        /* \"#utility.yul\":3987:3989   */\n      0x0d\n        /* \"#utility.yul\":3982:3985   */\n      dup4\n        /* \"#utility.yul\":3923:3990   */\n      tag_125\n      jump\t// in\n    tag_144:\n        /* \"#utility.yul\":3916:3990   */\n      swap2\n      pop\n        /* \"#utility.yul\":3999:4092   */\n      tag_145\n        /* \"#utility.yul\":4088:4091   */\n      dup3\n        /* \"#utility.yul\":3999:4092   */\n      tag_146\n      jump\t// in\n    tag_145:\n        /* \"#utility.yul\":4117:4119   */\n      0x20\n        /* \"#utility.yul\":4112:4115   */\n      dup3\n        /* \"#utility.yul\":4108:4120   */\n      add\n        /* \"#utility.yul\":4101:4120   */\n      swap1\n      pop\n        /* \"#utility.yul\":3760:4126   */\n      swap2\n      swap1\n      pop\n      jump\t// out\n        /* \"#utility.yul\":4132:4498   */\n    tag_147:\n        /* \"#utility.yul\":4274:4277   */\n      0x00\n        /* \"#utility.yul\":4295:4362   */\n      tag_149\n        /* \"#utility.yul\":4359:4361   */\n      0x16\n        /* \"#utility.yul\":4354:4357   */\n      dup4\n        /* \"#utility.yul\":4295:4362   */\n      tag_125\n      jump\t// in\n    tag_149:\n        /* \"#utility.yul\":4288:4362   */\n      swap2\n      pop\n        /* \"#utility.yul\":4371:4464   */\n      tag_150\n        /* \"#utility.yul\":4460:4463   */\n      dup3\n        /* \"#utility.yul\":4371:4464   */\n      tag_151\n      jump\t// in\n    tag_150:\n        /* \"#utility.yul\":4489:4491   */\n      0x20\n        /* \"#utility.yul\":4484:4487   */\n      dup3\n        /* \"#utility.yul\":4480:4492   */\n      add\n        /* \"#utility.yul\":4473:4492   */\n      swap1\n      pop\n        /* \"#utility.yul\":4132:4498   */\n      swap2\n      swap1\n      pop\n      jump\t// out\n        /* \"#utility.yul\":4504:4870   */\n    tag_152:\n        /* \"#utility.yul\":4646:4649   */\n      0x00\n        /* \"#utility.yul\":4667:4734   */\n      tag_154\n        /* \"#utility.yul\":4731:4733   */\n      0x12\n        /* \"#utility.yul\":4726:4729   */\n      dup4\n        /* \"#utility.yul\":4667:4734   */\n      tag_125\n      jump\t// in\n    tag_154:\n        /* \"#utility.yul\":4660:4734   */\n      swap2\n      pop\n        /* \"#utility.yul\":4743:4836   */\n      tag_155\n        /* \"#utility.yul\":4832:4835   */\n      dup3\n        /* \"#utility.yul\":4743:4836   */\n      tag_156\n      jump\t// in\n    tag_155:\n        /* \"#utility.yul\":4861:4863   */\n      0x20\n        /* \"#utility.yul\":4856:4859   */\n      dup3\n        /* \"#utility.yul\":4852:4864   */\n      add\n        /* \"#utility.yul\":4845:4864   */\n      swap1\n      pop\n        /* \"#utility.yul\":4504:4870   */\n      swap2\n      swap1\n      pop\n      jump\t// out\n        /* \"#utility.yul\":4876:4994   */\n    tag_157:\n        /* \"#utility.yul\":4963:4987   */\n      tag_159\n        /* \"#utility.yul\":4981:4986   */\n      dup2\n        /* \"#utility.yul\":4963:4987   */\n      tag_160\n      jump\t// in\n    tag_159:\n        /* \"#utility.yul\":4958:4961   */\n      dup3\n        /* \"#utility.yul\":4951:4988   */\n      mstore\n        /* \"#utility.yul\":4876:4994   */\n      pop\n      pop\n      jump\t// out\n        /* \"#utility.yul\":5000:5307   */\n    tag_37:\n        /* \"#utility.yul\":5110:5114   */\n      0x00\n        /* \"#utility.yul\":5148:5150   */\n      0x20\n        /* \"#utility.yul\":5137:5146   */\n      dup3\n        /* \"#utility.yul\":5133:5151   */\n      add\n        /* \"#utility.yul\":5125:5151   */\n      swap1\n      pop\n        /* \"#utility.yul\":5197:5206   */\n      dup2\n        /* \"#utility.yul\":5191:5195   */\n      dup2\n        /* \"#utility.yul\":5187:5207   */\n      sub\n        /* \"#utility.yul\":5183:5184   */\n      0x00\n        /* \"#utility.yul\":5172:5181   */\n      dup4\n        /* \"#utility.yul\":5168:5185   */\n      add\n        /* \"#utility.yul\":5161:5208   */\n      mstore\n        /* \"#utility.yul\":5225:5300   */\n      tag_162\n        /* \"#utility.yul\":5295:5299   */\n      dup2\n        /* \"#utility.yul\":5286:5292   */\n      dup5\n        /* \"#utility.yul\":5225:5300   */\n      tag_130\n      jump\t// in\n    tag_162:\n        /* \"#utility.yul\":5217:5300   */\n      swap1\n      pop\n        /* \"#utility.yul\":5000:5307   */\n      swap3\n      swap2\n      pop\n      pop\n      jump\t// out\n        /* \"#utility.yul\":5313:5730   */\n    tag_47:\n        /* \"#utility.yul\":5451:5455   */\n      0x00\n        /* \"#utility.yul\":5489:5491   */\n      0x40\n        /* \"#utility.yul\":5478:5487   */\n      dup3\n        /* \"#utility.yul\":5474:5492   */\n      add\n        /* \"#utility.yul\":5466:5492   */\n      swap1\n      pop\n        /* \"#utility.yul\":5538:5547   */\n      dup2\n        /* \"#utility.yul\":5532:5536   */\n      dup2\n        /* \"#utility.yul\":5528:5548   */\n      sub\n        /* \"#utility.yul\":5524:5525   */\n      0x00\n        /* \"#utility.yul\":5513:5522   */\n      dup4\n        /* \"#utility.yul\":5509:5526   */\n      add\n        /* \"#utility.yul\":5502:5549   */\n      mstore\n        /* \"#utility.yul\":5566:5641   */\n      tag_164\n        /* \"#utility.yul\":5636:5640   */\n      dup2\n        /* \"#utility.yul\":5627:5633   */\n      dup6\n        /* \"#utility.yul\":5566:5641   */\n      tag_130\n      jump\t// in\n    tag_164:\n        /* \"#utility.yul\":5558:5641   */\n      swap1\n      pop\n        /* \"#utility.yul\":5651:5723   */\n      tag_165\n        /* \"#utility.yul\":5719:5721   */\n      0x20\n        /* \"#utility.yul\":5708:5717   */\n      dup4\n        /* \"#utility.yul\":5704:5722   */\n      add\n        /* \"#utility.yul\":5695:5701   */\n      dup5\n        /* \"#utility.yul\":5651:5723   */\n      tag_157\n      jump\t// in\n    tag_165:\n        /* \"#utility.yul\":5313:5730   */\n      swap4\n      swap3\n      pop\n      pop\n      pop\n      jump\t// out\n        /* \"#utility.yul\":5736:6155   */\n    tag_30:\n        /* \"#utility.yul\":5902:5906   */\n      0x00\n        /* \"#utility.yul\":5940:5942   */\n      0x20\n        /* \"#utility.yul\":5929:5938   */\n      dup3\n        /* \"#utility.yul\":5925:5943   */\n      add\n        /* \"#utility.yul\":5917:5943   */\n      swap1\n      pop\n        /* \"#utility.yul\":5989:5998   */\n      dup2\n        /* \"#utility.yul\":5983:5987   */\n      dup2\n        /* \"#utility.yul\":5979:5999   */\n      sub\n        /* \"#utility.yul\":5975:5976   */\n      0x00\n        /* \"#utility.yul\":5964:5973   */\n      dup4\n        /* \"#utility.yul\":5960:5977   */\n      add\n        /* \"#utility.yul\":5953:6000   */\n      mstore\n        /* \"#utility.yul\":6017:6148   */\n      tag_167\n        /* \"#utility.yul\":6143:6147   */\n      dup2\n        /* \"#utility.yul\":6017:6148   */\n      tag_142\n      jump\t// in\n    tag_167:\n        /* \"#utility.yul\":6009:6148   */\n      swap1\n      pop\n        /* \"#utility.yul\":5736:6155   */\n      swap2\n      swap1\n      pop\n      jump\t// out\n        /* \"#utility.yul\":6161:6580   */\n    tag_51:\n        /* \"#utility.yul\":6327:6331   */\n      0x00\n        /* \"#utility.yul\":6365:6367   */\n      0x20\n        /* \"#utility.yul\":6354:6363   */\n      dup3\n        /* \"#utility.yul\":6350:6368   */\n      add\n        /* \"#utility.yul\":6342:6368   */\n      swap1\n      pop\n        /* \"#utility.yul\":6414:6423   */\n      dup2\n        /* \"#utility.yul\":6408:6412   */\n      dup2\n        /* \"#utility.yul\":6404:6424   */\n      sub\n        /* \"#utility.yul\":6400:6401   */\n      0x00\n        /* \"#utility.yul\":6389:6398   */\n      dup4\n        /* \"#utility.yul\":6385:6402   */\n      add\n        /* \"#utility.yul\":6378:6425   */\n      mstore\n        /* \"#utility.yul\":6442:6573   */\n      tag_169\n        /* \"#utility.yul\":6568:6572   */\n      dup2\n        /* \"#utility.yul\":6442:6573   */\n      tag_147\n      jump\t// in\n    tag_169:\n        /* \"#utility.yul\":6434:6573   */\n      swap1\n      pop\n        /* \"#utility.yul\":6161:6580   */\n      swap2\n      swap1\n      pop\n      jump\t// out\n        /* \"#utility.yul\":6586:7005   */\n    tag_54:\n        /* \"#utility.yul\":6752:6756   */\n      0x00\n        /* \"#utility.yul\":6790:6792   */\n      0x20\n        /* \"#utility.yul\":6779:6788   */\n      dup3\n        /* \"#utility.yul\":6775:6793   */\n      add\n        /* \"#utility.yul\":6767:6793   */\n      swap1\n      pop\n        /* \"#utility.yul\":6839:6848   */\n      dup2\n        /* \"#utility.yul\":6833:6837   */\n      dup2\n        /* \"#utility.yul\":6829:6849   */\n      sub\n        /* \"#utility.yul\":6825:6826   */\n      0x00\n        /* \"#utility.yul\":6814:6823   */\n      dup4\n        /* \"#utility.yul\":6810:6827   */\n      add\n        /* \"#utility.yul\":6803:6850   */\n      mstore\n        /* \"#utility.yul\":6867:6998   */\n      tag_171\n        /* \"#utility.yul\":6993:6997   */\n      dup2\n        /* \"#utility.yul\":6867:6998   */\n      tag_152\n      jump\t// in\n    tag_171:\n        /* \"#utility.yul\":6859:6998   */\n      swap1\n      pop\n        /* \"#utility.yul\":6586:7005   */\n      swap2\n      swap1\n      pop\n      jump\t// out\n        /* \"#utility.yul\":7011:7952   */\n    tag_11:\n        /* \"#utility.yul\":7274:7278   */\n      0x00\n        /* \"#utility.yul\":7312:7315   */\n      0xe0\n        /* \"#utility.yul\":7301:7310   */\n      dup3\n        /* \"#utility.yul\":7297:7316   */\n      add\n        /* \"#utility.yul\":7289:7316   */\n      swap1\n      pop\n        /* \"#utility.yul\":7326:7397   */\n      tag_173\n        /* \"#utility.yul\":7394:7395   */\n      0x00\n        /* \"#utility.yul\":7383:7392   */\n      dup4\n        /* \"#utility.yul\":7379:7396   */\n      add\n        /* \"#utility.yul\":7370:7376   */\n      dup11\n        /* \"#utility.yul\":7326:7397   */\n      tag_157\n      jump\t// in\n    tag_173:\n        /* \"#utility.yul\":7444:7453   */\n      dup2\n        /* \"#utility.yul\":7438:7442   */\n      dup2\n        /* \"#utility.yul\":7434:7454   */\n      sub\n        /* \"#utility.yul\":7429:7431   */\n      0x20\n        /* \"#utility.yul\":7418:7427   */\n      dup4\n        /* \"#utility.yul\":7414:7432   */\n      add\n        /* \"#utility.yul\":7407:7455   */\n      mstore\n        /* \"#utility.yul\":7472:7550   */\n      tag_174\n        /* \"#utility.yul\":7545:7549   */\n      dup2\n        /* \"#utility.yul\":7536:7542   */\n      dup10\n        /* \"#utility.yul\":7472:7550   */\n      tag_120\n      jump\t// in\n    tag_174:\n        /* \"#utility.yul\":7464:7550   */\n      swap1\n      pop\n        /* \"#utility.yul\":7560:7626   */\n      tag_175\n        /* \"#utility.yul\":7622:7624   */\n      0x40\n        /* \"#utility.yul\":7611:7620   */\n      dup4\n        /* \"#utility.yul\":7607:7625   */\n      add\n        /* \"#utility.yul\":7598:7604   */\n      dup9\n        /* \"#utility.yul\":7560:7626   */\n      tag_116\n      jump\t// in\n    tag_175:\n        /* \"#utility.yul\":7636:7702   */\n      tag_176\n        /* \"#utility.yul\":7698:7700   */\n      0x60\n        /* \"#utility.yul\":7687:7696   */\n      dup4\n        /* \"#utility.yul\":7683:7701   */\n      add\n        /* \"#utility.yul\":7674:7680   */\n      dup8\n        /* \"#utility.yul\":7636:7702   */\n      tag_116\n      jump\t// in\n    tag_176:\n        /* \"#utility.yul\":7712:7779   */\n      tag_177\n        /* \"#utility.yul\":7774:7777   */\n      0x80\n        /* \"#utility.yul\":7763:7772   */\n      dup4\n        /* \"#utility.yul\":7759:7778   */\n      add\n        /* \"#utility.yul\":7750:7756   */\n      dup7\n        /* \"#utility.yul\":7712:7779   */\n      tag_116\n      jump\t// in\n    tag_177:\n        /* \"#utility.yul\":7789:7862   */\n      tag_178\n        /* \"#utility.yul\":7857:7860   */\n      0xa0\n        /* \"#utility.yul\":7846:7855   */\n      dup4\n        /* \"#utility.yul\":7842:7861   */\n      add\n        /* \"#utility.yul\":7833:7839   */\n      dup6\n        /* \"#utility.yul\":7789:7862   */\n      tag_157\n      jump\t// in\n    tag_178:\n        /* \"#utility.yul\":7872:7945   */\n      tag_179\n        /* \"#utility.yul\":7940:7943   */\n      0xc0\n        /* \"#utility.yul\":7929:7938   */\n      dup4\n        /* \"#utility.yul\":7925:7944   */\n      add\n        /* \"#utility.yul\":7916:7922   */\n      dup5\n        /* \"#utility.yul\":7872:7945   */\n      tag_157\n      jump\t// in\n    tag_179:\n        /* \"#utility.yul\":7011:7952   */\n      swap9\n      swap8\n      pop\n      pop\n      pop\n      pop\n      pop\n      pop\n      pop\n      pop\n      jump\t// out\n        /* \"#utility.yul\":7958:8491   */\n    tag_65:\n        /* \"#utility.yul\":8127:8131   */\n      0x00\n        /* \"#utility.yul\":8165:8167   */\n      0x60\n        /* \"#utility.yul\":8154:8163   */\n      dup3\n        /* \"#utility.yul\":8150:8168   */\n      add\n        /* \"#utility.yul\":8142:8168   */\n      swap1\n      pop\n        /* \"#utility.yul\":8178:8249   */\n      tag_181\n        /* \"#utility.yul\":8246:8247   */\n      0x00\n        /* \"#utility.yul\":8235:8244   */\n      dup4\n        /* \"#utility.yul\":8231:8248   */\n      add\n        /* \"#utility.yul\":8222:8228   */\n      dup7\n        /* \"#utility.yul\":8178:8249   */\n      tag_157\n      jump\t// in\n    tag_181:\n        /* \"#utility.yul\":8296:8305   */\n      dup2\n        /* \"#utility.yul\":8290:8294   */\n      dup2\n        /* \"#utility.yul\":8286:8306   */\n      sub\n        /* \"#utility.yul\":8281:8283   */\n      0x20\n        /* \"#utility.yul\":8270:8279   */\n      dup4\n        /* \"#utility.yul\":8266:8284   */\n      add\n        /* \"#utility.yul\":8259:8307   */\n      mstore\n        /* \"#utility.yul\":8324:8402   */\n      tag_182\n        /* \"#utility.yul\":8397:8401   */\n      dup2\n        /* \"#utility.yul\":8388:8394   */\n      dup6\n        /* \"#utility.yul\":8324:8402   */\n      tag_120\n      jump\t// in\n    tag_182:\n        /* \"#utility.yul\":8316:8402   */\n      swap1\n      pop\n        /* \"#utility.yul\":8412:8484   */\n      tag_183\n        /* \"#utility.yul\":8480:8482   */\n      0x40\n        /* \"#utility.yul\":8469:8478   */\n      dup4\n        /* \"#utility.yul\":8465:8483   */\n      add\n        /* \"#utility.yul\":8456:8462   */\n      dup5\n        /* \"#utility.yul\":8412:8484   */\n      tag_157\n      jump\t// in\n    tag_183:\n        /* \"#utility.yul\":7958:8491   */\n      swap5\n      swap4\n      pop\n      pop\n      pop\n      pop\n      jump\t// out\n        /* \"#utility.yul\":8578:8719   */\n    tag_138:\n        /* \"#utility.yul\":8627:8631   */\n      0x00\n        /* \"#utility.yul\":8650:8653   */\n      dup2\n        /* \"#utility.yul\":8642:8653   */\n      swap1\n      pop\n        /* \"#utility.yul\":8673:8676   */\n      dup2\n        /* \"#utility.yul\":8670:8671   */\n      0x00\n        /* \"#utility.yul\":8663:8677   */\n      mstore\n        /* \"#utility.yul\":8707:8711   */\n      0x20\n        /* \"#utility.yul\":8704:8705   */\n      0x00\n        /* \"#utility.yul\":8694:8712   */\n      keccak256\n        /* \"#utility.yul\":8686:8712   */\n      swap1\n      pop\n        /* \"#utility.yul\":8578:8719   */\n      swap2\n      swap1\n      pop\n      jump\t// out\n        /* \"#utility.yul\":8725:8824   */\n    tag_123:\n        /* \"#utility.yul\":8777:8783   */\n      0x00\n        /* \"#utility.yul\":8811:8816   */\n      dup2\n        /* \"#utility.yul\":8805:8817   */\n      mload\n        /* \"#utility.yul\":8795:8817   */\n      swap1\n      pop\n        /* \"#utility.yul\":8725:8824   */\n      swap2\n      swap1\n      pop\n      jump\t// out\n        /* \"#utility.yul\":8830:8999   */\n    tag_125:\n        /* \"#utility.yul\":8914:8925   */\n      0x00\n        /* \"#utility.yul\":8948:8954   */\n      dup3\n        /* \"#utility.yul\":8943:8946   */\n      dup3\n        /* \"#utility.yul\":8936:8955   */\n      mstore\n        /* \"#utility.yul\":8988:8992   */\n      0x20\n        /* \"#utility.yul\":8983:8986   */\n      dup3\n        /* \"#utility.yul\":8979:8993   */\n      add\n        /* \"#utility.yul\":8964:8993   */\n      swap1\n      pop\n        /* \"#utility.yul\":8830:8999   */\n      swap3\n      swap2\n      pop\n      pop\n      jump\t// out\n        /* \"#utility.yul\":9005:9310   */\n    tag_43:\n        /* \"#utility.yul\":9045:9048   */\n      0x00\n        /* \"#utility.yul\":9064:9084   */\n      tag_190\n        /* \"#utility.yul\":9082:9083   */\n      dup3\n        /* \"#utility.yul\":9064:9084   */\n      tag_160\n      jump\t// in\n    tag_190:\n        /* \"#utility.yul\":9059:9084   */\n      swap2\n      pop\n        /* \"#utility.yul\":9098:9118   */\n      tag_191\n        /* \"#utility.yul\":9116:9117   */\n      dup4\n        /* \"#utility.yul\":9098:9118   */\n      tag_160\n      jump\t// in\n    tag_191:\n        /* \"#utility.yul\":9093:9118   */\n      swap3\n      pop\n        /* \"#utility.yul\":9252:9253   */\n      dup3\n        /* \"#utility.yul\":9184:9250   */\n      0xffffffffffffffffffffffffffffffffffffffffffffffffffffffffffffffff\n        /* \"#utility.yul\":9180:9254   */\n      sub\n        /* \"#utility.yul\":9177:9178   */\n      dup3\n        /* \"#utility.yul\":9174:9255   */\n      gt\n        /* \"#utility.yul\":9171:9278   */\n      iszero\n      tag_192\n      jumpi\n        /* \"#utility.yul\":9258:9276   */\n      tag_193\n      tag_194\n      jump\t// in\n    tag_193:\n        /* \"#utility.yul\":9171:9278   */\n    tag_192:\n        /* \"#utility.yul\":9302:9303   */\n      dup3\n        /* \"#utility.yul\":9299:9300   */\n      dup3\n        /* \"#utility.yul\":9295:9304   */\n      add\n        /* \"#utility.yul\":9288:9304   */\n      swap1\n      pop\n        /* \"#utility.yul\":9005:9310   */\n      swap3\n      swap2\n      pop\n      pop\n      jump\t// out\n        /* \"#utility.yul\":9316:9507   */\n    tag_58:\n        /* \"#utility.yul\":9356:9360   */\n      0x00\n        /* \"#utility.yul\":9376:9396   */\n      tag_196\n        /* \"#utility.yul\":9394:9395   */\n      dup3\n        /* \"#utility.yul\":9376:9396   */\n      tag_160\n      jump\t// in\n    tag_196:\n        /* \"#utility.yul\":9371:9396   */\n      swap2\n      pop\n        /* \"#utility.yul\":9410:9430   */\n      tag_197\n        /* \"#utility.yul\":9428:9429   */\n      dup4\n        /* \"#utility.yul\":9410:9430   */\n      tag_160\n      jump\t// in\n    tag_197:\n        /* \"#utility.yul\":9405:9430   */\n      swap3\n      pop\n        /* \"#utility.yul\":9449:9450   */\n      dup3\n        /* \"#utility.yul\":9446:9447   */\n      dup3\n        /* \"#utility.yul\":9443:9451   */\n      lt\n        /* \"#utility.yul\":9440:9474   */\n      iszero\n      tag_198\n      jumpi\n        /* \"#utility.yul\":9454:9472   */\n      tag_199\n      tag_194\n      jump\t// in\n    tag_199:\n        /* \"#utility.yul\":9440:9474   */\n    tag_198:\n        /* \"#utility.yul\":9499:9500   */\n      dup3\n        /* \"#utility.yul\":9496:9497   */\n      dup3\n        /* \"#utility.yul\":9492:9501   */\n      sub\n        /* \"#utility.yul\":9484:9501   */\n      swap1\n      pop\n        /* \"#utility.yul\":9316:9507   */\n      swap3\n      swap2\n      pop\n      pop\n      jump\t// out\n        /* \"#utility.yul\":9513:9609   */\n    tag_200:\n        /* \"#utility.yul\":9550:9557   */\n      0x00\n        /* \"#utility.yul\":9579:9603   */\n      tag_202\n        /* \"#utility.yul\":9597:9602   */\n      dup3\n        /* \"#utility.yul\":9579:9603   */\n      tag_203\n      jump\t// in\n    tag_202:\n        /* \"#utility.yul\":9568:9603   */\n      swap1\n      pop\n        /* \"#utility.yul\":9513:9609   */\n      swap2\n      swap1\n      pop\n      jump\t// out\n        /* \"#utility.yul\":9615:9705   */\n    tag_119:\n        /* \"#utility.yul\":9649:9656   */\n      0x00\n        /* \"#utility.yul\":9692:9697   */\n      dup2\n        /* \"#utility.yul\":9685:9698   */\n      iszero\n        /* \"#utility.yul\":9678:9699   */\n      iszero\n        /* \"#utility.yul\":9667:9699   */\n      swap1\n      pop\n        /* \"#utility.yul\":9615:9705   */\n      swap2\n      swap1\n      pop\n      jump\t// out\n        /* \"#utility.yul\":9711:9837   */\n    tag_203:\n        /* \"#utility.yul\":9748:9755   */\n      0x00\n        /* \"#utility.yul\":9788:9830   */\n      0xffffffffffffffffffffffffffffffffffffffff\n        /* \"#utility.yul\":9781:9786   */\n      dup3\n        /* \"#utility.yul\":9777:9831   */\n      and\n        /* \"#utility.yul\":9766:9831   */\n      swap1\n      pop\n        /* \"#utility.yul\":9711:9837   */\n      swap2\n      swap1\n      pop\n      jump\t// out\n        /* \"#utility.yul\":9843:9920   */\n    tag_160:\n        /* \"#utility.yul\":9880:9887   */\n      0x00\n        /* \"#utility.yul\":9909:9914   */\n      dup2\n        /* \"#utility.yul\":9898:9914   */\n      swap1\n      pop\n        /* \"#utility.yul\":9843:9920   */\n      swap2\n      swap1\n      pop\n      jump\t// out\n        /* \"#utility.yul\":9926:10233   */\n    tag_127:\n        /* \"#utility.yul\":9994:9995   */\n      0x00\n        /* \"#utility.yul\":10004:10117   */\n    tag_208:\n        /* \"#utility.yul\":10018:10024   */\n      dup4\n        /* \"#utility.yul\":10015:10016   */\n      dup2\n        /* \"#utility.yul\":10012:10025   */\n      lt\n        /* \"#utility.yul\":10004:10117   */\n      iszero\n      tag_210\n      jumpi\n        /* \"#utility.yul\":10103:10104   */\n      dup1\n        /* \"#utility.yul\":10098:10101   */\n      dup3\n        /* \"#utility.yul\":10094:10105   */\n      add\n        /* \"#utility.yul\":10088:10106   */\n      mload\n        /* \"#utility.yul\":10084:10085   */\n      dup2\n        /* \"#utility.yul\":10079:10082   */\n      dup5\n        /* \"#utility.yul\":10075:10086   */\n      add\n        /* \"#utility.yul\":10068:10107   */\n      mstore\n        /* \"#utility.yul\":10040:10042   */\n      0x20\n        /* \"#utility.yul\":10037:10038   */\n      dup2\n        /* \"#utility.yul\":10033:10043   */\n      add\n        /* \"#utility.yul\":10028:10043   */\n      swap1\n      pop\n        /* \"#utility.yul\":10004:10117   */\n      jump(tag_208)\n    tag_210:\n        /* \"#utility.yul\":10135:10141   */\n      dup4\n        /* \"#utility.yul\":10132:10133   */\n      dup2\n        /* \"#utility.yul\":10129:10142   */\n      gt\n        /* \"#utility.yul\":10126:10227   */\n      iszero\n      tag_211\n      jumpi\n        /* \"#utility.yul\":10215:10216   */\n      0x00\n        /* \"#utility.yul\":10206:10212   */\n      dup5\n        /* \"#utility.yul\":10201:10204   */\n      dup5\n        /* \"#utility.yul\":10197:10213   */\n      add\n        /* \"#utility.yul\":10190:10217   */\n      mstore\n        /* \"#utility.yul\":10126:10227   */\n    tag_211:\n        /* \"#utility.yul\":9975:10233   */\n      pop\n        /* \"#utility.yul\":9926:10233   */\n      pop\n      pop\n      pop\n      jump\t// out\n        /* \"#utility.yul\":10239:10559   */\n    tag_22:\n        /* \"#utility.yul\":10283:10289   */\n      0x00\n        /* \"#utility.yul\":10320:10321   */\n      0x02\n        /* \"#utility.yul\":10314:10318   */\n      dup3\n        /* \"#utility.yul\":10310:10322   */\n      div\n        /* \"#utility.yul\":10300:10322   */\n      swap1\n      pop\n        /* \"#utility.yul\":10367:10368   */\n      0x01\n        /* \"#utility.yul\":10361:10365   */\n      dup3\n        /* \"#utility.yul\":10357:10369   */\n      and\n        /* \"#utility.yul\":10388:10406   */\n      dup1\n        /* \"#utility.yul\":10378:10459   */\n      tag_213\n      jumpi\n        /* \"#utility.yul\":10444:10448   */\n      0x7f\n        /* \"#utility.yul\":10436:10442   */\n      dup3\n        /* \"#utility.yul\":10432:10449   */\n      and\n        /* \"#utility.yul\":10422:10449   */\n      swap2\n      pop\n        /* \"#utility.yul\":10378:10459   */\n    tag_213:\n        /* \"#utility.yul\":10506:10508   */\n      0x20\n        /* \"#utility.yul\":10498:10504   */\n      dup3\n        /* \"#utility.yul\":10495:10509   */\n      lt\n        /* \"#utility.yul\":10475:10493   */\n      dup2\n        /* \"#utility.yul\":10472:10510   */\n      eq\n        /* \"#utility.yul\":10469:10553   */\n      iszero\n      tag_214\n      jumpi\n        /* \"#utility.yul\":10525:10543   */\n      tag_215\n      tag_216\n      jump\t// in\n    tag_215:\n        /* \"#utility.yul\":10469:10553   */\n    tag_214:\n        /* \"#utility.yul\":10290:10559   */\n      pop\n        /* \"#utility.yul\":10239:10559   */\n      swap2\n      swap1\n      pop\n      jump\t// out\n        /* \"#utility.yul\":10565:10745   */\n    tag_194:\n        /* \"#utility.yul\":10613:10690   */\n      0x4e487b7100000000000000000000000000000000000000000000000000000000\n        /* \"#utility.yul\":10610:10611   */\n      0x00\n        /* \"#utility.yul\":10603:10691   */\n      mstore\n        /* \"#utility.yul\":10710:10714   */\n      0x11\n        /* \"#utility.yul\":10707:10708   */\n      0x04\n        /* \"#utility.yul\":10700:10715   */\n      mstore\n        /* \"#utility.yul\":10734:10738   */\n      0x24\n        /* \"#utility.yul\":10731:10732   */\n      0x00\n        /* \"#utility.yul\":10724:10739   */\n      revert\n        /* \"#utility.yul\":10751:10931   */\n    tag_216:\n        /* \"#utility.yul\":10799:10876   */\n      0x4e487b7100000000000000000000000000000000000000000000000000000000\n        /* \"#utility.yul\":10796:10797   */\n      0x00\n        /* \"#utility.yul\":10789:10877   */\n      mstore\n        /* \"#utility.yul\":10896:10900   */\n      0x22\n        /* \"#utility.yul\":10893:10894   */\n      0x04\n        /* \"#utility.yul\":10886:10901   */\n      mstore\n        /* \"#utility.yul\":10920:10924   */\n      0x24\n        /* \"#utility.yul\":10917:10918   */\n      0x00\n        /* \"#utility.yul\":10910:10925   */\n      revert\n        /* \"#utility.yul\":10937:11117   */\n    tag_33:\n        /* \"#utility.yul\":10985:11062   */\n      0x4e487b7100000000000000000000000000000000000000000000000000000000\n        /* \"#utility.yul\":10982:10983   */\n      0x00\n        /* \"#utility.yul\":10975:11063   */\n      mstore\n        /* \"#utility.yul\":11082:11086   */\n      0x32\n        /* \"#utility.yul\":11079:11080   */\n      0x04\n        /* \"#utility.yul\":11072:11087   */\n      mstore\n        /* \"#utility.yul\":11106:11110   */\n      0x24\n        /* \"#utility.yul\":11103:11104   */\n      0x00\n        /* \"#utility.yul\":11096:11111   */\n      revert\n        /* \"#utility.yul\":11123:11240   */\n    tag_92:\n        /* \"#utility.yul\":11232:11233   */\n      0x00\n        /* \"#utility.yul\":11229:11230   */\n      dup1\n        /* \"#utility.yul\":11222:11234   */\n      revert\n        /* \"#utility.yul\":11246:11363   */\n    tag_89:\n        /* \"#utility.yul\":11355:11356   */\n      0x00\n        /* \"#utility.yul\":11352:11353   */\n      dup1\n        /* \"#utility.yul\":11345:11357   */\n      revert\n        /* \"#utility.yul\":11369:11486   */\n    tag_95:\n        /* \"#utility.yul\":11478:11479   */\n      0x00\n        /* \"#utility.yul\":11475:11476   */\n      dup1\n        /* \"#utility.yul\":11468:11480   */\n      revert\n        /* \"#utility.yul\":11492:11609   */\n    tag_107:\n        /* \"#utility.yul\":11601:11602   */\n      0x00\n        /* \"#utility.yul\":11598:11599   */\n      dup1\n        /* \"#utility.yul\":11591:11603   */\n      revert\n        /* \"#utility.yul\":11615:11732   */\n    tag_103:\n        /* \"#utility.yul\":11724:11725   */\n      0x00\n        /* \"#utility.yul\":11721:11722   */\n      dup1\n        /* \"#utility.yul\":11714:11726   */\n      revert\n        /* \"#utility.yul\":11738:11840   */\n    tag_129:\n        /* \"#utility.yul\":11779:11785   */\n      0x00\n        /* \"#utility.yul\":11830:11832   */\n      0x1f\n        /* \"#utility.yul\":11826:11833   */\n      not\n        /* \"#utility.yul\":11821:11823   */\n      0x1f\n        /* \"#utility.yul\":11814:11819   */\n      dup4\n        /* \"#utility.yul\":11810:11824   */\n      add\n        /* \"#utility.yul\":11806:11834   */\n      and\n        /* \"#utility.yul\":11796:11834   */\n      swap1\n      pop\n        /* \"#utility.yul\":11738:11840   */\n      swap2\n      swap1\n      pop\n      jump\t// out\n        /* \"#utility.yul\":11846:12009   */\n    tag_146:\n        /* \"#utility.yul\":11986:12001   */\n      0x496e636f72726563742069642e00000000000000000000000000000000000000\n        /* \"#utility.yul\":11982:11983   */\n      0x00\n        /* \"#utility.yul\":11974:11980   */\n      dup3\n        /* \"#utility.yul\":11970:11984   */\n      add\n        /* \"#utility.yul\":11963:12002   */\n      mstore\n        /* \"#utility.yul\":11846:12009   */\n      pop\n      jump\t// out\n        /* \"#utility.yul\":12015:12187   */\n    tag_151:\n        /* \"#utility.yul\":12155:12179   */\n      0x596f7520617265206e6f7420746865206f776e65722e00000000000000000000\n        /* \"#utility.yul\":12151:12152   */\n      0x00\n        /* \"#utility.yul\":12143:12149   */\n      dup3\n        /* \"#utility.yul\":12139:12153   */\n      add\n        /* \"#utility.yul\":12132:12180   */\n      mstore\n        /* \"#utility.yul\":12015:12187   */\n      pop\n      jump\t// out\n        /* \"#utility.yul\":12193:12361   */\n    tag_156:\n        /* \"#utility.yul\":12333:12353   */\n      0x496e636f72726563742061646472657373210000000000000000000000000000\n        /* \"#utility.yul\":12329:12330   */\n      0x00\n        /* \"#utility.yul\":12321:12327   */\n      dup3\n        /* \"#utility.yul\":12317:12331   */\n      add\n        /* \"#utility.yul\":12310:12354   */\n      mstore\n        /* \"#utility.yul\":12193:12361   */\n      pop\n      jump\t// out\n        /* \"#utility.yul\":12367:12489   */\n    tag_80:\n        /* \"#utility.yul\":12440:12464   */\n      tag_230\n        /* \"#utility.yul\":12458:12463   */\n      dup2\n        /* \"#utility.yul\":12440:12464   */\n      tag_200\n      jump\t// in\n    tag_230:\n        /* \"#utility.yul\":12433:12438   */\n      dup2\n        /* \"#utility.yul\":12430:12465   */\n      eq\n        /* \"#utility.yul\":12420:12483   */\n      tag_231\n      jumpi\n        /* \"#utility.yul\":12479:12480   */\n      0x00\n        /* \"#utility.yul\":12476:12477   */\n      dup1\n        /* \"#utility.yul\":12469:12481   */\n      revert\n        /* \"#utility.yul\":12420:12483   */\n    tag_231:\n        /* \"#utility.yul\":12367:12489   */\n      pop\n      jump\t// out\n        /* \"#utility.yul\":12495:12611   */\n    tag_84:\n        /* \"#utility.yul\":12565:12586   */\n      tag_233\n        /* \"#utility.yul\":12580:12585   */\n      dup2\n        /* \"#utility.yul\":12565:12586   */\n      tag_119\n      jump\t// in\n    tag_233:\n        /* \"#utility.yul\":12558:12563   */\n      dup2\n        /* \"#utility.yul\":12555:12587   */\n      eq\n        /* \"#utility.yul\":12545:12605   */\n      tag_234\n      jumpi\n        /* \"#utility.yul\":12601:12602   */\n      0x00\n        /* \"#utility.yul\":12598:12599   */\n      dup1\n        /* \"#utility.yul\":12591:12603   */\n      revert\n        /* \"#utility.yul\":12545:12605   */\n    tag_234:\n        /* \"#utility.yul\":12495:12611   */\n      pop\n      jump\t// out\n        /* \"#utility.yul\":12617:12739   */\n    tag_99:\n        /* \"#utility.yul\":12690:12714   */\n      tag_236\n        /* \"#utility.yul\":12708:12713   */\n      dup2\n        /* \"#utility.yul\":12690:12714   */\n      tag_160\n      jump\t// in\n    tag_236:\n        /* \"#utility.yul\":12683:12688   */\n      dup2\n        /* \"#utility.yul\":12680:12715   */\n      eq\n        /* \"#utility.yul\":12670:12733   */\n      tag_237\n      jumpi\n        /* \"#utility.yul\":12729:12730   */\n      0x00\n        /* \"#utility.yul\":12726:12727   */\n      dup1\n        /* \"#utility.yul\":12719:12731   */\n      revert\n        /* \"#utility.yul\":12670:12733   */\n    tag_237:\n        /* \"#utility.yul\":12617:12739   */\n      pop\n      jump\t// out\n\n    auxdata: 0xa26469706673582212200b429d52774f2552b247d278f70fd888ad8ac31c03aad4862bba5f792ee335a464736f6c63430008070033\n}\n",
				"bytecode": {
					"linkReferences": {},
					"object": "608060405234801561001057600080fd5b50336000806101000a81548173ffffffffffffffffffffffffffffffffffffffff021916908373ffffffffffffffffffffffffffffffffffffffff160217905550610e4f806100606000396000f3fe608060405234801561001057600080fd5b50600436106100415760003560e01c806306ead22e146100465780633d5c83d41461007c57806388da06f914610098575b600080fd5b610060600480360381019061005b9190610867565b6100b4565b6040516100739796959493929190610a86565b60405180910390f35b61009660048036038101906100919190610867565b6101b5565b005b6100b260048036038101906100ad91906107cd565b6103bf565b005b600181815481106100c457600080fd5b90600052602060002090600502016000915090508060000154908060010180546100ed90610c70565b80601f016020809104026020016040519081016040528092919081815260200182805461011990610c70565b80156101665780601f1061013b57610100808354040283529160200191610166565b820191906000526020600020905b81548152906001019060200180831161014957829003601f168201915b5050505050908060020160009054906101000a900460ff16908060020160019054906101000a900460ff16908060020160029054906101000a900460ff16908060030154908060040154905087565b60008110156101f9576040517f08c379a00000000000000000000000000000000000000000000000000000000081526004016101f090610a26565b60405180910390fd5b60006001828154811061020f5761020e610d00565b5b90600052602060002090600502019050600015158160020160009054906101000a900460ff1615151415610278577fd53ecb21746e36da81ddab5bdcf35c93b4e7adb500e38a0ce440f729de177ac58160010160405161026f91906109d4565b60405180910390a15b600015158160020160019054906101000a900460ff16151514156102d1577fd53ecb21746e36da81ddab5bdcf35c93b4e7adb500e38a0ce440f729de177ac5816001016040516102c891906109d4565b60405180910390a15b600015158160020160029054906101000a900460ff161515141561032a577fd53ecb21746e36da81ddab5bdcf35c93b4e7adb500e38a0ce440f729de177ac58160010160405161032191906109d4565b60405180910390a15b426203f480826003015461033e9190610b6b565b111561037f577fd53ecb21746e36da81ddab5bdcf35c93b4e7adb500e38a0ce440f729de177ac58160010160405161037691906109d4565b60405180910390a15b7f6fd4822621c89040f0ea90264351e7f95d334eb76155286b2c1b6732331ff93c81600101426040516103b39291906109f6565b60405180910390a15050565b8560008054906101000a900473ffffffffffffffffffffffffffffffffffffffff1673ffffffffffffffffffffffffffffffffffffffff163373ffffffffffffffffffffffffffffffffffffffff161461044e576040517f08c379a000000000000000000000000000000000000000000000000000000000815260040161044590610a46565b60405180910390fd5b600073ffffffffffffffffffffffffffffffffffffffff168173ffffffffffffffffffffffffffffffffffffffff1614156104be576040517f08c379a00000000000000000000000000000000000000000000000000000000081526004016104b590610a66565b60405180910390fd5b600080600180549050146104e257600180805490506104dd9190610bc1565b6104e9565b6001805490505b905060006040518060e0016040528083815260200189898080601f016020809104026020016040519081016040528093929190818152602001838380828437600081840152601f19601f8201169050808301925050505050505081526020018715158152602001861515815260200185151581526020014281526020016203f480426105759190610b6b565b815250905060018190806001815401808255809150506001900390600052602060002090600502016000909190919091506000820151816000015560208201518160010190805190602001906105cc929190610695565b5060408201518160020160006101000a81548160ff02191690831515021790555060608201518160020160016101000a81548160ff02191690831515021790555060808201518160020160026101000a81548160ff02191690831515021790555060a0820151816003015560c0820151816004015550507ffafb7311fc57ca8a55073f63725e888b4250c799d77ae873970d65ac08c5917a816000015182602001518360a0015160405161068293929190610afc565b60405180910390a1505050505050505050565b8280546106a190610c70565b90600052602060002090601f0160209004810192826106c3576000855561070a565b82601f106106dc57805160ff191683800117855561070a565b8280016001018555821561070a579182015b828111156107095782518255916020019190600101906106ee565b5b509050610717919061071b565b5090565b5b8082111561073457600081600090555060010161071c565b5090565b60008135905061074781610dd4565b92915050565b60008135905061075c81610deb565b92915050565b60008083601f84011261077857610777610d34565b5b8235905067ffffffffffffffff81111561079557610794610d2f565b5b6020830191508360018202830111156107b1576107b0610d39565b5b9250929050565b6000813590506107c781610e02565b92915050565b60008060008060008060a087890312156107ea576107e9610d43565b5b60006107f889828a01610738565b965050602087013567ffffffffffffffff81111561081957610818610d3e565b5b61082589828a01610762565b9550955050604061083889828a0161074d565b935050606061084989828a0161074d565b925050608061085a89828a0161074d565b9150509295509295509295565b60006020828403121561087d5761087c610d43565b5b600061088b848285016107b8565b91505092915050565b61089d81610c07565b82525050565b60006108ae82610b4f565b6108b88185610b5a565b93506108c8818560208601610c3d565b6108d181610d48565b840191505092915050565b600081546108e981610c70565b6108f38186610b5a565b9450600182166000811461090e576001811461092057610953565b60ff1983168652602086019350610953565b61092985610b3a565b60005b8381101561094b5781548189015260018201915060208101905061092c565b808801955050505b50505092915050565b6000610969600d83610b5a565b915061097482610d59565b602082019050919050565b600061098c601683610b5a565b915061099782610d82565b602082019050919050565b60006109af601283610b5a565b91506109ba82610dab565b602082019050919050565b6109ce81610c33565b82525050565b600060208201905081810360008301526109ee81846108dc565b905092915050565b60006040820190508181036000830152610a1081856108dc565b9050610a1f60208301846109c5565b9392505050565b60006020820190508181036000830152610a3f8161095c565b9050919050565b60006020820190508181036000830152610a5f8161097f565b9050919050565b60006020820190508181036000830152610a7f816109a2565b9050919050565b600060e082019050610a9b600083018a6109c5565b8181036020830152610aad81896108a3565b9050610abc6040830188610894565b610ac96060830187610894565b610ad66080830186610894565b610ae360a08301856109c5565b610af060c08301846109c5565b98975050505050505050565b6000606082019050610b1160008301866109c5565b8181036020830152610b2381856108a3565b9050610b3260408301846109c5565b949350505050565b60008190508160005260206000209050919050565b600081519050919050565b600082825260208201905092915050565b6000610b7682610c33565b9150610b8183610c33565b9250827fffffffffffffffffffffffffffffffffffffffffffffffffffffffffffffffff03821115610bb657610bb5610ca2565b5b828201905092915050565b6000610bcc82610c33565b9150610bd783610c33565b925082821015610bea57610be9610ca2565b5b828203905092915050565b6000610c0082610c13565b9050919050565b60008115159050919050565b600073ffffffffffffffffffffffffffffffffffffffff82169050919050565b6000819050919050565b60005b83811015610c5b578082015181840152602081019050610c40565b83811115610c6a576000848401525b50505050565b60006002820490506001821680610c8857607f821691505b60208210811415610c9c57610c9b610cd1565b5b50919050565b7f4e487b7100000000000000000000000000000000000000000000000000000000600052601160045260246000fd5b7f4e487b7100000000000000000000000000000000000000000000000000000000600052602260045260246000fd5b7f4e487b7100000000000000000000000000000000000000000000000000000000600052603260045260246000fd5b600080fd5b600080fd5b600080fd5b600080fd5b600080fd5b6000601f19601f8301169050919050565b7f496e636f72726563742069642e00000000000000000000000000000000000000600082015250565b7f596f7520617265206e6f7420746865206f776e65722e00000000000000000000600082015250565b7f496e636f72726563742061646472657373210000000000000000000000000000600082015250565b610ddd81610bf5565b8114610de857600080fd5b50565b610df481610c07565b8114610dff57600080fd5b50565b610e0b81610c33565b8114610e1657600080fd5b5056fea26469706673582212200b429d52774f2552b247d278f70fd888ad8ac31c03aad4862bba5f792ee335a464736f6c63430008070033",
					"opcodes": "PUSH1 0x80 PUSH1 0x40 MSTORE CALLVALUE DUP1 ISZERO PUSH2 0x10 JUMPI PUSH1 0x0 DUP1 REVERT JUMPDEST POP CALLER PUSH1 0x0 DUP1 PUSH2 0x100 EXP DUP2 SLOAD DUP2 PUSH20 0xFFFFFFFFFFFFFFFFFFFFFFFFFFFFFFFFFFFFFFFF MUL NOT AND SWAP1 DUP4 PUSH20 0xFFFFFFFFFFFFFFFFFFFFFFFFFFFFFFFFFFFFFFFF AND MUL OR SWAP1 SSTORE POP PUSH2 0xE4F DUP1 PUSH2 0x60 PUSH1 0x0 CODECOPY PUSH1 0x0 RETURN INVALID PUSH1 0x80 PUSH1 0x40 MSTORE CALLVALUE DUP1 ISZERO PUSH2 0x10 JUMPI PUSH1 0x0 DUP1 REVERT JUMPDEST POP PUSH1 0x4 CALLDATASIZE LT PUSH2 0x41 JUMPI PUSH1 0x0 CALLDATALOAD PUSH1 0xE0 SHR DUP1 PUSH4 0x6EAD22E EQ PUSH2 0x46 JUMPI DUP1 PUSH4 0x3D5C83D4 EQ PUSH2 0x7C JUMPI DUP1 PUSH4 0x88DA06F9 EQ PUSH2 0x98 JUMPI JUMPDEST PUSH1 0x0 DUP1 REVERT JUMPDEST PUSH2 0x60 PUSH1 0x4 DUP1 CALLDATASIZE SUB DUP2 ADD SWAP1 PUSH2 0x5B SWAP2 SWAP1 PUSH2 0x867 JUMP JUMPDEST PUSH2 0xB4 JUMP JUMPDEST PUSH1 0x40 MLOAD PUSH2 0x73 SWAP8 SWAP7 SWAP6 SWAP5 SWAP4 SWAP3 SWAP2 SWAP1 PUSH2 0xA86 JUMP JUMPDEST PUSH1 0x40 MLOAD DUP1 SWAP2 SUB SWAP1 RETURN JUMPDEST PUSH2 0x96 PUSH1 0x4 DUP1 CALLDATASIZE SUB DUP2 ADD SWAP1 PUSH2 0x91 SWAP2 SWAP1 PUSH2 0x867 JUMP JUMPDEST PUSH2 0x1B5 JUMP JUMPDEST STOP JUMPDEST PUSH2 0xB2 PUSH1 0x4 DUP1 CALLDATASIZE SUB DUP2 ADD SWAP1 PUSH2 0xAD SWAP2 SWAP1 PUSH2 0x7CD JUMP JUMPDEST PUSH2 0x3BF JUMP JUMPDEST STOP JUMPDEST PUSH1 0x1 DUP2 DUP2 SLOAD DUP2 LT PUSH2 0xC4 JUMPI PUSH1 0x0 DUP1 REVERT JUMPDEST SWAP1 PUSH1 0x0 MSTORE PUSH1 0x20 PUSH1 0x0 KECCAK256 SWAP1 PUSH1 0x5 MUL ADD PUSH1 0x0 SWAP2 POP SWAP1 POP DUP1 PUSH1 0x0 ADD SLOAD SWAP1 DUP1 PUSH1 0x1 ADD DUP1 SLOAD PUSH2 0xED SWAP1 PUSH2 0xC70 JUMP JUMPDEST DUP1 PUSH1 0x1F ADD PUSH1 0x20 DUP1 SWAP2 DIV MUL PUSH1 0x20 ADD PUSH1 0x40 MLOAD SWAP1 DUP2 ADD PUSH1 0x40 MSTORE DUP1 SWAP3 SWAP2 SWAP1 DUP2 DUP2 MSTORE PUSH1 0x20 ADD DUP3 DUP1 SLOAD PUSH2 0x119 SWAP1 PUSH2 0xC70 JUMP JUMPDEST DUP1 ISZERO PUSH2 0x166 JUMPI DUP1 PUSH1 0x1F LT PUSH2 0x13B JUMPI PUSH2 0x100 DUP1 DUP4 SLOAD DIV MUL DUP4 MSTORE SWAP2 PUSH1 0x20 ADD SWAP2 PUSH2 0x166 JUMP JUMPDEST DUP3 ADD SWAP2 SWAP1 PUSH1 0x0 MSTORE PUSH1 0x20 PUSH1 0x0 KECCAK256 SWAP1 JUMPDEST DUP2 SLOAD DUP2 MSTORE SWAP1 PUSH1 0x1 ADD SWAP1 PUSH1 0x20 ADD DUP1 DUP4 GT PUSH2 0x149 JUMPI DUP3 SWAP1 SUB PUSH1 0x1F AND DUP3 ADD SWAP2 JUMPDEST POP POP POP POP POP SWAP1 DUP1 PUSH1 0x2 ADD PUSH1 0x0 SWAP1 SLOAD SWAP1 PUSH2 0x100 EXP SWAP1 DIV PUSH1 0xFF AND SWAP1 DUP1 PUSH1 0x2 ADD PUSH1 0x1 SWAP1 SLOAD SWAP1 PUSH2 0x100 EXP SWAP1 DIV PUSH1 0xFF AND SWAP1 DUP1 PUSH1 0x2 ADD PUSH1 0x2 SWAP1 SLOAD SWAP1 PUSH2 0x100 EXP SWAP1 DIV PUSH1 0xFF AND SWAP1 DUP1 PUSH1 0x3 ADD SLOAD SWAP1 DUP1 PUSH1 0x4 ADD SLOAD SWAP1 POP DUP8 JUMP JUMPDEST PUSH1 0x0 DUP2 LT ISZERO PUSH2 0x1F9 JUMPI PUSH1 0x40 MLOAD PUSH32 0x8C379A000000000000000000000000000000000000000000000000000000000 DUP2 MSTORE PUSH1 0x4 ADD PUSH2 0x1F0 SWAP1 PUSH2 0xA26 JUMP JUMPDEST PUSH1 0x40 MLOAD DUP1 SWAP2 SUB SWAP1 REVERT JUMPDEST PUSH1 0x0 PUSH1 0x1 DUP3 DUP2 SLOAD DUP2 LT PUSH2 0x20F JUMPI PUSH2 0x20E PUSH2 0xD00 JUMP JUMPDEST JUMPDEST SWAP1 PUSH1 0x0 MSTORE PUSH1 0x20 PUSH1 0x0 KECCAK256 SWAP1 PUSH1 0x5 MUL ADD SWAP1 POP PUSH1 0x0 ISZERO ISZERO DUP2 PUSH1 0x2 ADD PUSH1 0x0 SWAP1 SLOAD SWAP1 PUSH2 0x100 EXP SWAP1 DIV PUSH1 0xFF AND ISZERO ISZERO EQ ISZERO PUSH2 0x278 JUMPI PUSH32 0xD53ECB21746E36DA81DDAB5BDCF35C93B4E7ADB500E38A0CE440F729DE177AC5 DUP2 PUSH1 0x1 ADD PUSH1 0x40 MLOAD PUSH2 0x26F SWAP2 SWAP1 PUSH2 0x9D4 JUMP JUMPDEST PUSH1 0x40 MLOAD DUP1 SWAP2 SUB SWAP1 LOG1 JUMPDEST PUSH1 0x0 ISZERO ISZERO DUP2 PUSH1 0x2 ADD PUSH1 0x1 SWAP1 SLOAD SWAP1 PUSH2 0x100 EXP SWAP1 DIV PUSH1 0xFF AND ISZERO ISZERO EQ ISZERO PUSH2 0x2D1 JUMPI PUSH32 0xD53ECB21746E36DA81DDAB5BDCF35C93B4E7ADB500E38A0CE440F729DE177AC5 DUP2 PUSH1 0x1 ADD PUSH1 0x40 MLOAD PUSH2 0x2C8 SWAP2 SWAP1 PUSH2 0x9D4 JUMP JUMPDEST PUSH1 0x40 MLOAD DUP1 SWAP2 SUB SWAP1 LOG1 JUMPDEST PUSH1 0x0 ISZERO ISZERO DUP2 PUSH1 0x2 ADD PUSH1 0x2 SWAP1 SLOAD SWAP1 PUSH2 0x100 EXP SWAP1 DIV PUSH1 0xFF AND ISZERO ISZERO EQ ISZERO PUSH2 0x32A JUMPI PUSH32 0xD53ECB21746E36DA81DDAB5BDCF35C93B4E7ADB500E38A0CE440F729DE177AC5 DUP2 PUSH1 0x1 ADD PUSH1 0x40 MLOAD PUSH2 0x321 SWAP2 SWAP1 PUSH2 0x9D4 JUMP JUMPDEST PUSH1 0x40 MLOAD DUP1 SWAP2 SUB SWAP1 LOG1 JUMPDEST TIMESTAMP PUSH3 0x3F480 DUP3 PUSH1 0x3 ADD SLOAD PUSH2 0x33E SWAP2 SWAP1 PUSH2 0xB6B JUMP JUMPDEST GT ISZERO PUSH2 0x37F JUMPI PUSH32 0xD53ECB21746E36DA81DDAB5BDCF35C93B4E7ADB500E38A0CE440F729DE177AC5 DUP2 PUSH1 0x1 ADD PUSH1 0x40 MLOAD PUSH2 0x376 SWAP2 SWAP1 PUSH2 0x9D4 JUMP JUMPDEST PUSH1 0x40 MLOAD DUP1 SWAP2 SUB SWAP1 LOG1 JUMPDEST PUSH32 0x6FD4822621C89040F0EA90264351E7F95D334EB76155286B2C1B6732331FF93C DUP2 PUSH1 0x1 ADD TIMESTAMP PUSH1 0x40 MLOAD PUSH2 0x3B3 SWAP3 SWAP2 SWAP1 PUSH2 0x9F6 JUMP JUMPDEST PUSH1 0x40 MLOAD DUP1 SWAP2 SUB SWAP1 LOG1 POP POP JUMP JUMPDEST DUP6 PUSH1 0x0 DUP1 SLOAD SWAP1 PUSH2 0x100 EXP SWAP1 DIV PUSH20 0xFFFFFFFFFFFFFFFFFFFFFFFFFFFFFFFFFFFFFFFF AND PUSH20 0xFFFFFFFFFFFFFFFFFFFFFFFFFFFFFFFFFFFFFFFF AND CALLER PUSH20 0xFFFFFFFFFFFFFFFFFFFFFFFFFFFFFFFFFFFFFFFF AND EQ PUSH2 0x44E JUMPI PUSH1 0x40 MLOAD PUSH32 0x8C379A000000000000000000000000000000000000000000000000000000000 DUP2 MSTORE PUSH1 0x4 ADD PUSH2 0x445 SWAP1 PUSH2 0xA46 JUMP JUMPDEST PUSH1 0x40 MLOAD DUP1 SWAP2 SUB SWAP1 REVERT JUMPDEST PUSH1 0x0 PUSH20 0xFFFFFFFFFFFFFFFFFFFFFFFFFFFFFFFFFFFFFFFF AND DUP2 PUSH20 0xFFFFFFFFFFFFFFFFFFFFFFFFFFFFFFFFFFFFFFFF AND EQ ISZERO PUSH2 0x4BE JUMPI PUSH1 0x40 MLOAD PUSH32 0x8C379A000000000000000000000000000000000000000000000000000000000 DUP2 MSTORE PUSH1 0x4 ADD PUSH2 0x4B5 SWAP1 PUSH2 0xA66 JUMP JUMPDEST PUSH1 0x40 MLOAD DUP1 SWAP2 SUB SWAP1 REVERT JUMPDEST PUSH1 0x0 DUP1 PUSH1 0x1 DUP1 SLOAD SWAP1 POP EQ PUSH2 0x4E2 JUMPI PUSH1 0x1 DUP1 DUP1 SLOAD SWAP1 POP PUSH2 0x4DD SWAP2 SWAP1 PUSH2 0xBC1 JUMP JUMPDEST PUSH2 0x4E9 JUMP JUMPDEST PUSH1 0x1 DUP1 SLOAD SWAP1 POP JUMPDEST SWAP1 POP PUSH1 0x0 PUSH1 0x40 MLOAD DUP1 PUSH1 0xE0 ADD PUSH1 0x40 MSTORE DUP1 DUP4 DUP2 MSTORE PUSH1 0x20 ADD DUP10 DUP10 DUP1 DUP1 PUSH1 0x1F ADD PUSH1 0x20 DUP1 SWAP2 DIV MUL PUSH1 0x20 ADD PUSH1 0x40 MLOAD SWAP1 DUP2 ADD PUSH1 0x40 MSTORE DUP1 SWAP4 SWAP3 SWAP2 SWAP1 DUP2 DUP2 MSTORE PUSH1 0x20 ADD DUP4 DUP4 DUP1 DUP3 DUP5 CALLDATACOPY PUSH1 0x0 DUP2 DUP5 ADD MSTORE PUSH1 0x1F NOT PUSH1 0x1F DUP3 ADD AND SWAP1 POP DUP1 DUP4 ADD SWAP3 POP POP POP POP POP POP POP DUP2 MSTORE PUSH1 0x20 ADD DUP8 ISZERO ISZERO DUP2 MSTORE PUSH1 0x20 ADD DUP7 ISZERO ISZERO DUP2 MSTORE PUSH1 0x20 ADD DUP6 ISZERO ISZERO DUP2 MSTORE PUSH1 0x20 ADD TIMESTAMP DUP2 MSTORE PUSH1 0x20 ADD PUSH3 0x3F480 TIMESTAMP PUSH2 0x575 SWAP2 SWAP1 PUSH2 0xB6B JUMP JUMPDEST DUP2 MSTORE POP SWAP1 POP PUSH1 0x1 DUP2 SWAP1 DUP1 PUSH1 0x1 DUP2 SLOAD ADD DUP1 DUP3 SSTORE DUP1 SWAP2 POP POP PUSH1 0x1 SWAP1 SUB SWAP1 PUSH1 0x0 MSTORE PUSH1 0x20 PUSH1 0x0 KECCAK256 SWAP1 PUSH1 0x5 MUL ADD PUSH1 0x0 SWAP1 SWAP2 SWAP1 SWAP2 SWAP1 SWAP2 POP PUSH1 0x0 DUP3 ADD MLOAD DUP2 PUSH1 0x0 ADD SSTORE PUSH1 0x20 DUP3 ADD MLOAD DUP2 PUSH1 0x1 ADD SWAP1 DUP1 MLOAD SWAP1 PUSH1 0x20 ADD SWAP1 PUSH2 0x5CC SWAP3 SWAP2 SWAP1 PUSH2 0x695 JUMP JUMPDEST POP PUSH1 0x40 DUP3 ADD MLOAD DUP2 PUSH1 0x2 ADD PUSH1 0x0 PUSH2 0x100 EXP DUP2 SLOAD DUP2 PUSH1 0xFF MUL NOT AND SWAP1 DUP4 ISZERO ISZERO MUL OR SWAP1 SSTORE POP PUSH1 0x60 DUP3 ADD MLOAD DUP2 PUSH1 0x2 ADD PUSH1 0x1 PUSH2 0x100 EXP DUP2 SLOAD DUP2 PUSH1 0xFF MUL NOT AND SWAP1 DUP4 ISZERO ISZERO MUL OR SWAP1 SSTORE POP PUSH1 0x80 DUP3 ADD MLOAD DUP2 PUSH1 0x2 ADD PUSH1 0x2 PUSH2 0x100 EXP DUP2 SLOAD DUP2 PUSH1 0xFF MUL NOT AND SWAP1 DUP4 ISZERO ISZERO MUL OR SWAP1 SSTORE POP PUSH1 0xA0 DUP3 ADD MLOAD DUP2 PUSH1 0x3 ADD SSTORE PUSH1 0xC0 DUP3 ADD MLOAD DUP2 PUSH1 0x4 ADD SSTORE POP POP PUSH32 0xFAFB7311FC57CA8A55073F63725E888B4250C799D77AE873970D65AC08C5917A DUP2 PUSH1 0x0 ADD MLOAD DUP3 PUSH1 0x20 ADD MLOAD DUP4 PUSH1 0xA0 ADD MLOAD PUSH1 0x40 MLOAD PUSH2 0x682 SWAP4 SWAP3 SWAP2 SWAP1 PUSH2 0xAFC JUMP JUMPDEST PUSH1 0x40 MLOAD DUP1 SWAP2 SUB SWAP1 LOG1 POP POP POP POP POP POP POP POP POP JUMP JUMPDEST DUP3 DUP1 SLOAD PUSH2 0x6A1 SWAP1 PUSH2 0xC70 JUMP JUMPDEST SWAP1 PUSH1 0x0 MSTORE PUSH1 0x20 PUSH1 0x0 KECCAK256 SWAP1 PUSH1 0x1F ADD PUSH1 0x20 SWAP1 DIV DUP2 ADD SWAP3 DUP3 PUSH2 0x6C3 JUMPI PUSH1 0x0 DUP6 SSTORE PUSH2 0x70A JUMP JUMPDEST DUP3 PUSH1 0x1F LT PUSH2 0x6DC JUMPI DUP1 MLOAD PUSH1 0xFF NOT AND DUP4 DUP1 ADD OR DUP6 SSTORE PUSH2 0x70A JUMP JUMPDEST DUP3 DUP1 ADD PUSH1 0x1 ADD DUP6 SSTORE DUP3 ISZERO PUSH2 0x70A JUMPI SWAP2 DUP3 ADD JUMPDEST DUP3 DUP2 GT ISZERO PUSH2 0x709 JUMPI DUP3 MLOAD DUP3 SSTORE SWAP2 PUSH1 0x20 ADD SWAP2 SWAP1 PUSH1 0x1 ADD SWAP1 PUSH2 0x6EE JUMP JUMPDEST JUMPDEST POP SWAP1 POP PUSH2 0x717 SWAP2 SWAP1 PUSH2 0x71B JUMP JUMPDEST POP SWAP1 JUMP JUMPDEST JUMPDEST DUP1 DUP3 GT ISZERO PUSH2 0x734 JUMPI PUSH1 0x0 DUP2 PUSH1 0x0 SWAP1 SSTORE POP PUSH1 0x1 ADD PUSH2 0x71C JUMP JUMPDEST POP SWAP1 JUMP JUMPDEST PUSH1 0x0 DUP2 CALLDATALOAD SWAP1 POP PUSH2 0x747 DUP2 PUSH2 0xDD4 JUMP JUMPDEST SWAP3 SWAP2 POP POP JUMP JUMPDEST PUSH1 0x0 DUP2 CALLDATALOAD SWAP1 POP PUSH2 0x75C DUP2 PUSH2 0xDEB JUMP JUMPDEST SWAP3 SWAP2 POP POP JUMP JUMPDEST PUSH1 0x0 DUP1 DUP4 PUSH1 0x1F DUP5 ADD SLT PUSH2 0x778 JUMPI PUSH2 0x777 PUSH2 0xD34 JUMP JUMPDEST JUMPDEST DUP3 CALLDATALOAD SWAP1 POP PUSH8 0xFFFFFFFFFFFFFFFF DUP2 GT ISZERO PUSH2 0x795 JUMPI PUSH2 0x794 PUSH2 0xD2F JUMP JUMPDEST JUMPDEST PUSH1 0x20 DUP4 ADD SWAP2 POP DUP4 PUSH1 0x1 DUP3 MUL DUP4 ADD GT ISZERO PUSH2 0x7B1 JUMPI PUSH2 0x7B0 PUSH2 0xD39 JUMP JUMPDEST JUMPDEST SWAP3 POP SWAP3 SWAP1 POP JUMP JUMPDEST PUSH1 0x0 DUP2 CALLDATALOAD SWAP1 POP PUSH2 0x7C7 DUP2 PUSH2 0xE02 JUMP JUMPDEST SWAP3 SWAP2 POP POP JUMP JUMPDEST PUSH1 0x0 DUP1 PUSH1 0x0 DUP1 PUSH1 0x0 DUP1 PUSH1 0xA0 DUP8 DUP10 SUB SLT ISZERO PUSH2 0x7EA JUMPI PUSH2 0x7E9 PUSH2 0xD43 JUMP JUMPDEST JUMPDEST PUSH1 0x0 PUSH2 0x7F8 DUP10 DUP3 DUP11 ADD PUSH2 0x738 JUMP JUMPDEST SWAP7 POP POP PUSH1 0x20 DUP8 ADD CALLDATALOAD PUSH8 0xFFFFFFFFFFFFFFFF DUP2 GT ISZERO PUSH2 0x819 JUMPI PUSH2 0x818 PUSH2 0xD3E JUMP JUMPDEST JUMPDEST PUSH2 0x825 DUP10 DUP3 DUP11 ADD PUSH2 0x762 JUMP JUMPDEST SWAP6 POP SWAP6 POP POP PUSH1 0x40 PUSH2 0x838 DUP10 DUP3 DUP11 ADD PUSH2 0x74D JUMP JUMPDEST SWAP4 POP POP PUSH1 0x60 PUSH2 0x849 DUP10 DUP3 DUP11 ADD PUSH2 0x74D JUMP JUMPDEST SWAP3 POP POP PUSH1 0x80 PUSH2 0x85A DUP10 DUP3 DUP11 ADD PUSH2 0x74D JUMP JUMPDEST SWAP2 POP POP SWAP3 SWAP6 POP SWAP3 SWAP6 POP SWAP3 SWAP6 JUMP JUMPDEST PUSH1 0x0 PUSH1 0x20 DUP3 DUP5 SUB SLT ISZERO PUSH2 0x87D JUMPI PUSH2 0x87C PUSH2 0xD43 JUMP JUMPDEST JUMPDEST PUSH1 0x0 PUSH2 0x88B DUP5 DUP3 DUP6 ADD PUSH2 0x7B8 JUMP JUMPDEST SWAP2 POP POP SWAP3 SWAP2 POP POP JUMP JUMPDEST PUSH2 0x89D DUP2 PUSH2 0xC07 JUMP JUMPDEST DUP3 MSTORE POP POP JUMP JUMPDEST PUSH1 0x0 PUSH2 0x8AE DUP3 PUSH2 0xB4F JUMP JUMPDEST PUSH2 0x8B8 DUP2 DUP6 PUSH2 0xB5A JUMP JUMPDEST SWAP4 POP PUSH2 0x8C8 DUP2 DUP6 PUSH1 0x20 DUP7 ADD PUSH2 0xC3D JUMP JUMPDEST PUSH2 0x8D1 DUP2 PUSH2 0xD48 JUMP JUMPDEST DUP5 ADD SWAP2 POP POP SWAP3 SWAP2 POP POP JUMP JUMPDEST PUSH1 0x0 DUP2 SLOAD PUSH2 0x8E9 DUP2 PUSH2 0xC70 JUMP JUMPDEST PUSH2 0x8F3 DUP2 DUP7 PUSH2 0xB5A JUMP JUMPDEST SWAP5 POP PUSH1 0x1 DUP3 AND PUSH1 0x0 DUP2 EQ PUSH2 0x90E JUMPI PUSH1 0x1 DUP2 EQ PUSH2 0x920 JUMPI PUSH2 0x953 JUMP JUMPDEST PUSH1 0xFF NOT DUP4 AND DUP7 MSTORE PUSH1 0x20 DUP7 ADD SWAP4 POP PUSH2 0x953 JUMP JUMPDEST PUSH2 0x929 DUP6 PUSH2 0xB3A JUMP JUMPDEST PUSH1 0x0 JUMPDEST DUP4 DUP2 LT ISZERO PUSH2 0x94B JUMPI DUP2 SLOAD DUP2 DUP10 ADD MSTORE PUSH1 0x1 DUP3 ADD SWAP2 POP PUSH1 0x20 DUP2 ADD SWAP1 POP PUSH2 0x92C JUMP JUMPDEST DUP1 DUP9 ADD SWAP6 POP POP POP JUMPDEST POP POP POP SWAP3 SWAP2 POP POP JUMP JUMPDEST PUSH1 0x0 PUSH2 0x969 PUSH1 0xD DUP4 PUSH2 0xB5A JUMP JUMPDEST SWAP2 POP PUSH2 0x974 DUP3 PUSH2 0xD59 JUMP JUMPDEST PUSH1 0x20 DUP3 ADD SWAP1 POP SWAP2 SWAP1 POP JUMP JUMPDEST PUSH1 0x0 PUSH2 0x98C PUSH1 0x16 DUP4 PUSH2 0xB5A JUMP JUMPDEST SWAP2 POP PUSH2 0x997 DUP3 PUSH2 0xD82 JUMP JUMPDEST PUSH1 0x20 DUP3 ADD SWAP1 POP SWAP2 SWAP1 POP JUMP JUMPDEST PUSH1 0x0 PUSH2 0x9AF PUSH1 0x12 DUP4 PUSH2 0xB5A JUMP JUMPDEST SWAP2 POP PUSH2 0x9BA DUP3 PUSH2 0xDAB JUMP JUMPDEST PUSH1 0x20 DUP3 ADD SWAP1 POP SWAP2 SWAP1 POP JUMP JUMPDEST PUSH2 0x9CE DUP2 PUSH2 0xC33 JUMP JUMPDEST DUP3 MSTORE POP POP JUMP JUMPDEST PUSH1 0x0 PUSH1 0x20 DUP3 ADD SWAP1 POP DUP2 DUP2 SUB PUSH1 0x0 DUP4 ADD MSTORE PUSH2 0x9EE DUP2 DUP5 PUSH2 0x8DC JUMP JUMPDEST SWAP1 POP SWAP3 SWAP2 POP POP JUMP JUMPDEST PUSH1 0x0 PUSH1 0x40 DUP3 ADD SWAP1 POP DUP2 DUP2 SUB PUSH1 0x0 DUP4 ADD MSTORE PUSH2 0xA10 DUP2 DUP6 PUSH2 0x8DC JUMP JUMPDEST SWAP1 POP PUSH2 0xA1F PUSH1 0x20 DUP4 ADD DUP5 PUSH2 0x9C5 JUMP JUMPDEST SWAP4 SWAP3 POP POP POP JUMP JUMPDEST PUSH1 0x0 PUSH1 0x20 DUP3 ADD SWAP1 POP DUP2 DUP2 SUB PUSH1 0x0 DUP4 ADD MSTORE PUSH2 0xA3F DUP2 PUSH2 0x95C JUMP JUMPDEST SWAP1 POP SWAP2 SWAP1 POP JUMP JUMPDEST PUSH1 0x0 PUSH1 0x20 DUP3 ADD SWAP1 POP DUP2 DUP2 SUB PUSH1 0x0 DUP4 ADD MSTORE PUSH2 0xA5F DUP2 PUSH2 0x97F JUMP JUMPDEST SWAP1 POP SWAP2 SWAP1 POP JUMP JUMPDEST PUSH1 0x0 PUSH1 0x20 DUP3 ADD SWAP1 POP DUP2 DUP2 SUB PUSH1 0x0 DUP4 ADD MSTORE PUSH2 0xA7F DUP2 PUSH2 0x9A2 JUMP JUMPDEST SWAP1 POP SWAP2 SWAP1 POP JUMP JUMPDEST PUSH1 0x0 PUSH1 0xE0 DUP3 ADD SWAP1 POP PUSH2 0xA9B PUSH1 0x0 DUP4 ADD DUP11 PUSH2 0x9C5 JUMP JUMPDEST DUP2 DUP2 SUB PUSH1 0x20 DUP4 ADD MSTORE PUSH2 0xAAD DUP2 DUP10 PUSH2 0x8A3 JUMP JUMPDEST SWAP1 POP PUSH2 0xABC PUSH1 0x40 DUP4 ADD DUP9 PUSH2 0x894 JUMP JUMPDEST PUSH2 0xAC9 PUSH1 0x60 DUP4 ADD DUP8 PUSH2 0x894 JUMP JUMPDEST PUSH2 0xAD6 PUSH1 0x80 DUP4 ADD DUP7 PUSH2 0x894 JUMP JUMPDEST PUSH2 0xAE3 PUSH1 0xA0 DUP4 ADD DUP6 PUSH2 0x9C5 JUMP JUMPDEST PUSH2 0xAF0 PUSH1 0xC0 DUP4 ADD DUP5 PUSH2 0x9C5 JUMP JUMPDEST SWAP9 SWAP8 POP POP POP POP POP POP POP POP JUMP JUMPDEST PUSH1 0x0 PUSH1 0x60 DUP3 ADD SWAP1 POP PUSH2 0xB11 PUSH1 0x0 DUP4 ADD DUP7 PUSH2 0x9C5 JUMP JUMPDEST DUP2 DUP2 SUB PUSH1 0x20 DUP4 ADD MSTORE PUSH2 0xB23 DUP2 DUP6 PUSH2 0x8A3 JUMP JUMPDEST SWAP1 POP PUSH2 0xB32 PUSH1 0x40 DUP4 ADD DUP5 PUSH2 0x9C5 JUMP JUMPDEST SWAP5 SWAP4 POP POP POP POP JUMP JUMPDEST PUSH1 0x0 DUP2 SWAP1 POP DUP2 PUSH1 0x0 MSTORE PUSH1 0x20 PUSH1 0x0 KECCAK256 SWAP1 POP SWAP2 SWAP1 POP JUMP JUMPDEST PUSH1 0x0 DUP2 MLOAD SWAP1 POP SWAP2 SWAP1 POP JUMP JUMPDEST PUSH1 0x0 DUP3 DUP3 MSTORE PUSH1 0x20 DUP3 ADD SWAP1 POP SWAP3 SWAP2 POP POP JUMP JUMPDEST PUSH1 0x0 PUSH2 0xB76 DUP3 PUSH2 0xC33 JUMP JUMPDEST SWAP2 POP PUSH2 0xB81 DUP4 PUSH2 0xC33 JUMP JUMPDEST SWAP3 POP DUP3 PUSH32 0xFFFFFFFFFFFFFFFFFFFFFFFFFFFFFFFFFFFFFFFFFFFFFFFFFFFFFFFFFFFFFFFF SUB DUP3 GT ISZERO PUSH2 0xBB6 JUMPI PUSH2 0xBB5 PUSH2 0xCA2 JUMP JUMPDEST JUMPDEST DUP3 DUP3 ADD SWAP1 POP SWAP3 SWAP2 POP POP JUMP JUMPDEST PUSH1 0x0 PUSH2 0xBCC DUP3 PUSH2 0xC33 JUMP JUMPDEST SWAP2 POP PUSH2 0xBD7 DUP4 PUSH2 0xC33 JUMP JUMPDEST SWAP3 POP DUP3 DUP3 LT ISZERO PUSH2 0xBEA JUMPI PUSH2 0xBE9 PUSH2 0xCA2 JUMP JUMPDEST JUMPDEST DUP3 DUP3 SUB SWAP1 POP SWAP3 SWAP2 POP POP JUMP JUMPDEST PUSH1 0x0 PUSH2 0xC00 DUP3 PUSH2 0xC13 JUMP JUMPDEST SWAP1 POP SWAP2 SWAP1 POP JUMP JUMPDEST PUSH1 0x0 DUP2 ISZERO ISZERO SWAP1 POP SWAP2 SWAP1 POP JUMP JUMPDEST PUSH1 0x0 PUSH20 0xFFFFFFFFFFFFFFFFFFFFFFFFFFFFFFFFFFFFFFFF DUP3 AND SWAP1 POP SWAP2 SWAP1 POP JUMP JUMPDEST PUSH1 0x0 DUP2 SWAP1 POP SWAP2 SWAP1 POP JUMP JUMPDEST PUSH1 0x0 JUMPDEST DUP4 DUP2 LT ISZERO PUSH2 0xC5B JUMPI DUP1 DUP3 ADD MLOAD DUP2 DUP5 ADD MSTORE PUSH1 0x20 DUP2 ADD SWAP1 POP PUSH2 0xC40 JUMP JUMPDEST DUP4 DUP2 GT ISZERO PUSH2 0xC6A JUMPI PUSH1 0x0 DUP5 DUP5 ADD MSTORE JUMPDEST POP POP POP POP JUMP JUMPDEST PUSH1 0x0 PUSH1 0x2 DUP3 DIV SWAP1 POP PUSH1 0x1 DUP3 AND DUP1 PUSH2 0xC88 JUMPI PUSH1 0x7F DUP3 AND SWAP2 POP JUMPDEST PUSH1 0x20 DUP3 LT DUP2 EQ ISZERO PUSH2 0xC9C JUMPI PUSH2 0xC9B PUSH2 0xCD1 JUMP JUMPDEST JUMPDEST POP SWAP2 SWAP1 POP JUMP JUMPDEST PUSH32 0x4E487B7100000000000000000000000000000000000000000000000000000000 PUSH1 0x0 MSTORE PUSH1 0x11 PUSH1 0x4 MSTORE PUSH1 0x24 PUSH1 0x0 REVERT JUMPDEST PUSH32 0x4E487B7100000000000000000000000000000000000000000000000000000000 PUSH1 0x0 MSTORE PUSH1 0x22 PUSH1 0x4 MSTORE PUSH1 0x24 PUSH1 0x0 REVERT JUMPDEST PUSH32 0x4E487B7100000000000000000000000000000000000000000000000000000000 PUSH1 0x0 MSTORE PUSH1 0x32 PUSH1 0x4 MSTORE PUSH1 0x24 PUSH1 0x0 REVERT JUMPDEST PUSH1 0x0 DUP1 REVERT JUMPDEST PUSH1 0x0 DUP1 REVERT JUMPDEST PUSH1 0x0 DUP1 REVERT JUMPDEST PUSH1 0x0 DUP1 REVERT JUMPDEST PUSH1 0x0 DUP1 REVERT JUMPDEST PUSH1 0x0 PUSH1 0x1F NOT PUSH1 0x1F DUP4 ADD AND SWAP1 POP SWAP2 SWAP1 POP JUMP JUMPDEST PUSH32 0x496E636F72726563742069642E00000000000000000000000000000000000000 PUSH1 0x0 DUP3 ADD MSTORE POP JUMP JUMPDEST PUSH32 0x596F7520617265206E6F7420746865206F776E65722E00000000000000000000 PUSH1 0x0 DUP3 ADD MSTORE POP JUMP JUMPDEST PUSH32 0x496E636F72726563742061646472657373210000000000000000000000000000 PUSH1 0x0 DUP3 ADD MSTORE POP JUMP JUMPDEST PUSH2 0xDDD DUP2 PUSH2 0xBF5 JUMP JUMPDEST DUP2 EQ PUSH2 0xDE8 JUMPI PUSH1 0x0 DUP1 REVERT JUMPDEST POP JUMP JUMPDEST PUSH2 0xDF4 DUP2 PUSH2 0xC07 JUMP JUMPDEST DUP2 EQ PUSH2 0xDFF JUMPI PUSH1 0x0 DUP1 REVERT JUMPDEST POP JUMP JUMPDEST PUSH2 0xE0B DUP2 PUSH2 0xC33 JUMP JUMPDEST DUP2 EQ PUSH2 0xE16 JUMPI PUSH1 0x0 DUP1 REVERT JUMPDEST POP JUMP INVALID LOG2 PUSH5 0x6970667358 0x22 SLT KECCAK256 SIGNEXTEND TIMESTAMP SWAP14 MSTORE PUSH24 0x4F2552B247D278F70FD888AD8AC31C03AAD4862BBA5F792E 0xE3 CALLDATALOAD LOG4 PUSH5 0x736F6C6343 STOP ADDMOD SMOD STOP CALLER "
				},
				"gasEstimates": {
					"creation": {
						"codeDepositCost": "732600",
						"executionCost": "25032",
						"totalCost": "757632"
					},
					"external": {
						"addStudent(address,string,bool,bool,bool)": "infinite",
						"debtsAreDone(uint256)": "infinite",
						"students(uint256)": "infinite"
					}
				},
				"methodIdentifiers": {
					"addStudent(address,string,bool,bool,bool)": "88da06f9",
					"debtsAreDone(uint256)": "3d5c83d4",
					"students(uint256)": "06ead22e"
				}
			},
			"storageLayout": {
				"storage": [
					{
						"astId": 6,
						"contract": "contracts/Hometask.sol:DormitoryQuest",
						"label": "owner",
						"offset": 0,
						"slot": "0",
						"type": "t_address"
					},
					{
						"astId": 25,
						"contract": "contracts/Hometask.sol:DormitoryQuest",
						"label": "students",
						"offset": 0,
						"slot": "1",
						"type": "t_array(t_struct(Student)21_storage)dyn_storage"
					}
				],
				"types": {
					"t_address": {
						"encoding": "inplace",
						"label": "address",
						"numberOfBytes": "20"
					},
					"t_array(t_struct(Student)21_storage)dyn_storage": {
						"base": "t_struct(Student)21_storage",
						"encoding": "dynamic_array",
						"label": "struct DormitoryQuest.Student[]",
						"numberOfBytes": "32"
					},
					"t_bool": {
						"encoding": "inplace",
						"label": "bool",
						"numberOfBytes": "1"
					},
					"t_string_storage": {
						"encoding": "bytes",
						"label": "string",
						"numberOfBytes": "32"
					},
					"t_struct(Student)21_storage": {
						"encoding": "inplace",
						"label": "struct DormitoryQuest.Student",
						"members": [
							{
								"astId": 8,
								"contract": "contracts/Hometask.sol:DormitoryQuest",
								"label": "id",
								"offset": 0,
								"slot": "0",
								"type": "t_uint256"
							},
							{
								"astId": 10,
								"contract": "contracts/Hometask.sol:DormitoryQuest",
								"label": "fullName",
								"offset": 0,
								"slot": "1",
								"type": "t_string_storage"
							},
							{
								"astId": 12,
								"contract": "contracts/Hometask.sol:DormitoryQuest",
								"label": "sheetsDone",
								"offset": 0,
								"slot": "2",
								"type": "t_bool"
							},
							{
								"astId": 14,
								"contract": "contracts/Hometask.sol:DormitoryQuest",
								"label": "roomDone",
								"offset": 1,
								"slot": "2",
								"type": "t_bool"
							},
							{
								"astId": 16,
								"contract": "contracts/Hometask.sol:DormitoryQuest",
								"label": "booksDone",
								"offset": 2,
								"slot": "2",
								"type": "t_bool"
							},
							{
								"astId": 18,
								"contract": "contracts/Hometask.sol:DormitoryQuest",
								"label": "regDate",
								"offset": 0,
								"slot": "3",
								"type": "t_uint256"
							},
							{
								"astId": 20,
								"contract": "contracts/Hometask.sol:DormitoryQuest",
								"label": "deadlineDate",
								"offset": 0,
								"slot": "4",
								"type": "t_uint256"
							}
						],
						"numberOfBytes": "160"
					},
					"t_uint256": {
						"encoding": "inplace",
						"label": "uint256",
						"numberOfBytes": "32"
					}
				}
			},
			"userdoc": {
				"kind": "user",
				"methods": {},
				"version": 1
			}
		}
	}
}