{
	"contracts/Hometask.sol": {
		"DormitoryQuest": {
			"abi": [
				{
					"anonymous": false,
					"inputs": [
						{
							"indexed": false,
							"internalType": "string",
							"name": "name",
							"type": "string"
						},
						{
							"indexed": false,
							"internalType": "uint256",
							"name": "date",
							"type": "uint256"
						}
					],
					"name": "StudentEvicted",
					"type": "event"
				},
				{
					"anonymous": false,
					"inputs": [
						{
							"indexed": false,
							"internalType": "string",
							"name": "name",
							"type": "string"
						}
					],
					"name": "SummonsToArmyGiven",
					"type": "event"
				},
				{
					"inputs": [
						{
							"internalType": "string",
							"name": "_name",
							"type": "string"
						},
						{
							"internalType": "bool",
							"name": "_sheetsDone",
							"type": "bool"
						},
						{
							"internalType": "bool",
							"name": "_roomDone",
							"type": "bool"
						},
						{
							"internalType": "bool",
							"name": "_booksDone",
							"type": "bool"
						}
					],
					"name": "addStudent",
					"outputs": [],
					"stateMutability": "nonpayable",
					"type": "function"
				},
				{
					"inputs": [
						{
							"components": [
								{
									"internalType": "uint256",
									"name": "id",
									"type": "uint256"
								},
								{
									"internalType": "string",
									"name": "fullName",
									"type": "string"
								},
								{
									"internalType": "bool",
									"name": "sheetsDone",
									"type": "bool"
								},
								{
									"internalType": "bool",
									"name": "roomDone",
									"type": "bool"
								},
								{
									"internalType": "bool",
									"name": "booksDone",
									"type": "bool"
								},
								{
									"internalType": "uint256",
									"name": "regDate",
									"type": "uint256"
								},
								{
									"internalType": "uint256",
									"name": "deadlineDate",
									"type": "uint256"
								}
							],
							"internalType": "struct DormitoryQuest.Student",
							"name": "_student",
							"type": "tuple"
						}
					],
					"name": "debtsAreDone",
					"outputs": [],
					"stateMutability": "nonpayable",
					"type": "function"
				}
			],
			"devdoc": {
				"kind": "dev",
				"methods": {},
				"version": 1
			},
			"evm": {
				"assembly": "    /* \"contracts/Hometask.sol\":62:1629  contract DormitoryQuest {\r... */\n  mstore(0x40, 0x80)\n  callvalue\n  dup1\n  iszero\n  tag_1\n  jumpi\n  0x00\n  dup1\n  revert\ntag_1:\n  pop\n  dataSize(sub_0)\n  dup1\n  dataOffset(sub_0)\n  0x00\n  codecopy\n  0x00\n  return\nstop\n\nsub_0: assembly {\n        /* \"contracts/Hometask.sol\":62:1629  contract DormitoryQuest {\r... */\n      mstore(0x40, 0x80)\n      callvalue\n      dup1\n      iszero\n      tag_1\n      jumpi\n      0x00\n      dup1\n      revert\n    tag_1:\n      pop\n      jumpi(tag_2, lt(calldatasize, 0x04))\n      shr(0xe0, calldataload(0x00))\n      dup1\n      0x344d2d4a\n      eq\n      tag_3\n      jumpi\n      dup1\n      0x614d8f60\n      eq\n      tag_4\n      jumpi\n    tag_2:\n      0x00\n      dup1\n      revert\n        /* \"contracts/Hometask.sol\":458:980  function addStudent(string calldata _name, bool _sheetsDone, bool _roomDone, bool _booksDone) public {\r... */\n    tag_3:\n      tag_5\n      0x04\n      dup1\n      calldatasize\n      sub\n      dup2\n      add\n      swap1\n      tag_6\n      swap2\n      swap1\n      tag_7\n      jump\t// in\n    tag_6:\n      tag_8\n      jump\t// in\n    tag_5:\n      stop\n        /* \"contracts/Hometask.sol\":988:1626  function debtsAreDone(Student memory _student) public {\r... */\n    tag_4:\n      tag_9\n      0x04\n      dup1\n      calldatasize\n      sub\n      dup2\n      add\n      swap1\n      tag_10\n      swap2\n      swap1\n      tag_11\n      jump\t// in\n    tag_10:\n      tag_12\n      jump\t// in\n    tag_9:\n      stop\n        /* \"contracts/Hometask.sol\":458:980  function addStudent(string calldata _name, bool _sheetsDone, bool _roomDone, bool _booksDone) public {\r... */\n    tag_8:\n        /* \"contracts/Hometask.sol\":570:584  uint currentId */\n      0x00\n        /* \"contracts/Hometask.sol\":606:607  0 */\n      dup1\n        /* \"contracts/Hometask.sol\":587:595  students */\n      0x00\n        /* \"contracts/Hometask.sol\":587:602  students.length */\n      dup1\n      sload\n      swap1\n      pop\n        /* \"contracts/Hometask.sol\":587:607  students.length == 0 */\n      eq\n        /* \"contracts/Hometask.sol\":587:647  students.length == 0 ? students.length : students.length - 1 */\n      tag_14\n      jumpi\n        /* \"contracts/Hometask.sol\":646:647  1 */\n      0x01\n        /* \"contracts/Hometask.sol\":628:636  students */\n      0x00\n        /* \"contracts/Hometask.sol\":628:643  students.length */\n      dup1\n      sload\n      swap1\n      pop\n        /* \"contracts/Hometask.sol\":628:647  students.length - 1 */\n      tag_15\n      swap2\n      swap1\n      tag_16\n      jump\t// in\n    tag_15:\n        /* \"contracts/Hometask.sol\":587:647  students.length == 0 ? students.length : students.length - 1 */\n      jump(tag_17)\n    tag_14:\n        /* \"contracts/Hometask.sol\":610:618  students */\n      0x00\n        /* \"contracts/Hometask.sol\":610:625  students.length */\n      dup1\n      sload\n      swap1\n      pop\n        /* \"contracts/Hometask.sol\":587:647  students.length == 0 ? students.length : students.length - 1 */\n    tag_17:\n        /* \"contracts/Hometask.sol\":570:647  uint currentId = students.length == 0 ? students.length : students.length - 1 */\n      swap1\n      pop\n        /* \"contracts/Hometask.sol\":660:685  Student memory newStudent */\n      0x00\n        /* \"contracts/Hometask.sol\":688:968  Student({\r... */\n      mload(0x40)\n      dup1\n      0xe0\n      add\n      0x40\n      mstore\n      dup1\n        /* \"contracts/Hometask.sol\":715:724  currentId */\n      dup4\n        /* \"contracts/Hometask.sol\":688:968  Student({\r... */\n      dup2\n      mstore\n      0x20\n      add\n        /* \"contracts/Hometask.sol\":749:754  _name */\n      dup9\n      dup9\n        /* \"contracts/Hometask.sol\":688:968  Student({\r... */\n      dup1\n      dup1\n      0x1f\n      add\n      0x20\n      dup1\n      swap2\n      div\n      mul\n      0x20\n      add\n      mload(0x40)\n      swap1\n      dup2\n      add\n      0x40\n      mstore\n      dup1\n      swap4\n      swap3\n      swap2\n      swap1\n      dup2\n      dup2\n      mstore\n      0x20\n      add\n      dup4\n      dup4\n      dup1\n      dup3\n      dup5\n      calldatacopy\n      0x00\n      dup2\n      dup5\n      add\n      mstore\n      not(0x1f)\n      0x1f\n      dup3\n      add\n      and\n      swap1\n      pop\n      dup1\n      dup4\n      add\n      swap3\n      pop\n      pop\n      pop\n      pop\n      pop\n      pop\n      pop\n      dup2\n      mstore\n      0x20\n      add\n        /* \"contracts/Hometask.sol\":781:792  _sheetsDone */\n      dup7\n        /* \"contracts/Hometask.sol\":688:968  Student({\r... */\n      iszero\n      iszero\n      dup2\n      mstore\n      0x20\n      add\n        /* \"contracts/Hometask.sol\":817:826  _roomDone */\n      dup6\n        /* \"contracts/Hometask.sol\":688:968  Student({\r... */\n      iszero\n      iszero\n      dup2\n      mstore\n      0x20\n      add\n        /* \"contracts/Hometask.sol\":852:862  _booksDone */\n      dup5\n        /* \"contracts/Hometask.sol\":688:968  Student({\r... */\n      iszero\n      iszero\n      dup2\n      mstore\n      0x20\n      add\n        /* \"contracts/Hometask.sol\":886:901  block.timestamp */\n      timestamp\n        /* \"contracts/Hometask.sol\":688:968  Student({\r... */\n      dup2\n      mstore\n      0x20\n      add\n        /* \"contracts/Hometask.sol\":118:124  3 days */\n      0x03f480\n        /* \"contracts/Hometask.sol\":930:945  block.timestamp */\n      timestamp\n        /* \"contracts/Hometask.sol\":930:956  block.timestamp + DURATION */\n      tag_18\n      swap2\n      swap1\n      tag_19\n      jump\t// in\n    tag_18:\n        /* \"contracts/Hometask.sol\":688:968  Student({\r... */\n      dup2\n      mstore\n      pop\n        /* \"contracts/Hometask.sol\":660:968  Student memory newStudent = Student({\r... */\n      swap1\n      pop\n        /* \"contracts/Hometask.sol\":559:980  {\r... */\n      pop\n      pop\n        /* \"contracts/Hometask.sol\":458:980  function addStudent(string calldata _name, bool _sheetsDone, bool _roomDone, bool _booksDone) public {\r... */\n      pop\n      pop\n      pop\n      pop\n      pop\n      jump\t// out\n        /* \"contracts/Hometask.sol\":988:1626  function debtsAreDone(Student memory _student) public {\r... */\n    tag_12:\n        /* \"contracts/Hometask.sol\":1080:1085  false */\n      0x00\n        /* \"contracts/Hometask.sol\":1057:1085  _student.sheetsDone == false */\n      iszero\n      iszero\n        /* \"contracts/Hometask.sol\":1057:1065  _student */\n      dup2\n        /* \"contracts/Hometask.sol\":1057:1076  _student.sheetsDone */\n      0x40\n      add\n      mload\n        /* \"contracts/Hometask.sol\":1057:1085  _student.sheetsDone == false */\n      iszero\n      iszero\n      eq\n        /* \"contracts/Hometask.sol\":1053:1165  if (_student.sheetsDone == false)\r... */\n      iszero\n      tag_21\n      jumpi\n        /* \"contracts/Hometask.sol\":1116:1153  SummonsToArmyGiven(_student.fullName) */\n      0xd53ecb21746e36da81ddab5bdcf35c93b4e7adb500e38a0ce440f729de177ac5\n        /* \"contracts/Hometask.sol\":1135:1143  _student */\n      dup2\n        /* \"contracts/Hometask.sol\":1135:1152  _student.fullName */\n      0x20\n      add\n      mload\n        /* \"contracts/Hometask.sol\":1116:1153  SummonsToArmyGiven(_student.fullName) */\n      mload(0x40)\n      tag_22\n      swap2\n      swap1\n      tag_23\n      jump\t// in\n    tag_22:\n      mload(0x40)\n      dup1\n      swap2\n      sub\n      swap1\n      log1\n        /* \"contracts/Hometask.sol\":1053:1165  if (_student.sheetsDone == false)\r... */\n    tag_21:\n        /* \"contracts/Hometask.sol\":1202:1207  false */\n      0x00\n        /* \"contracts/Hometask.sol\":1181:1207  _student.roomDone == false */\n      iszero\n      iszero\n        /* \"contracts/Hometask.sol\":1181:1189  _student */\n      dup2\n        /* \"contracts/Hometask.sol\":1181:1198  _student.roomDone */\n      0x60\n      add\n      mload\n        /* \"contracts/Hometask.sol\":1181:1207  _student.roomDone == false */\n      iszero\n      iszero\n      eq\n        /* \"contracts/Hometask.sol\":1177:1287  if (_student.roomDone == false)\r... */\n      iszero\n      tag_24\n      jumpi\n        /* \"contracts/Hometask.sol\":1238:1275  SummonsToArmyGiven(_student.fullName) */\n      0xd53ecb21746e36da81ddab5bdcf35c93b4e7adb500e38a0ce440f729de177ac5\n        /* \"contracts/Hometask.sol\":1257:1265  _student */\n      dup2\n        /* \"contracts/Hometask.sol\":1257:1274  _student.fullName */\n      0x20\n      add\n      mload\n        /* \"contracts/Hometask.sol\":1238:1275  SummonsToArmyGiven(_student.fullName) */\n      mload(0x40)\n      tag_25\n      swap2\n      swap1\n      tag_23\n      jump\t// in\n    tag_25:\n      mload(0x40)\n      dup1\n      swap2\n      sub\n      swap1\n      log1\n        /* \"contracts/Hometask.sol\":1177:1287  if (_student.roomDone == false)\r... */\n    tag_24:\n        /* \"contracts/Hometask.sol\":1325:1330  false */\n      0x00\n        /* \"contracts/Hometask.sol\":1303:1330  _student.booksDone == false */\n      iszero\n      iszero\n        /* \"contracts/Hometask.sol\":1303:1311  _student */\n      dup2\n        /* \"contracts/Hometask.sol\":1303:1321  _student.booksDone */\n      0x80\n      add\n      mload\n        /* \"contracts/Hometask.sol\":1303:1330  _student.booksDone == false */\n      iszero\n      iszero\n      eq\n        /* \"contracts/Hometask.sol\":1299:1410  if (_student.booksDone == false)\r... */\n      iszero\n      tag_26\n      jumpi\n        /* \"contracts/Hometask.sol\":1361:1398  SummonsToArmyGiven(_student.fullName) */\n      0xd53ecb21746e36da81ddab5bdcf35c93b4e7adb500e38a0ce440f729de177ac5\n        /* \"contracts/Hometask.sol\":1380:1388  _student */\n      dup2\n        /* \"contracts/Hometask.sol\":1380:1397  _student.fullName */\n      0x20\n      add\n      mload\n        /* \"contracts/Hometask.sol\":1361:1398  SummonsToArmyGiven(_student.fullName) */\n      mload(0x40)\n      tag_27\n      swap2\n      swap1\n      tag_23\n      jump\t// in\n    tag_27:\n      mload(0x40)\n      dup1\n      swap2\n      sub\n      swap1\n      log1\n        /* \"contracts/Hometask.sol\":1299:1410  if (_student.booksDone == false)\r... */\n    tag_26:\n        /* \"contracts/Hometask.sol\":1456:1471  block.timestamp */\n      timestamp\n        /* \"contracts/Hometask.sol\":118:124  3 days */\n      0x03f480\n        /* \"contracts/Hometask.sol\":1426:1434  _student */\n      dup3\n        /* \"contracts/Hometask.sol\":1426:1442  _student.regDate */\n      0xa0\n      add\n      mload\n        /* \"contracts/Hometask.sol\":1426:1453  _student.regDate + DURATION */\n      tag_28\n      swap2\n      swap1\n      tag_19\n      jump\t// in\n    tag_28:\n        /* \"contracts/Hometask.sol\":1426:1471  _student.regDate + DURATION > block.timestamp */\n      gt\n        /* \"contracts/Hometask.sol\":1422:1551  if (_student.regDate + DURATION > block.timestamp)\r... */\n      iszero\n      tag_29\n      jumpi\n        /* \"contracts/Hometask.sol\":1502:1539  SummonsToArmyGiven(_student.fullName) */\n      0xd53ecb21746e36da81ddab5bdcf35c93b4e7adb500e38a0ce440f729de177ac5\n        /* \"contracts/Hometask.sol\":1521:1529  _student */\n      dup2\n        /* \"contracts/Hometask.sol\":1521:1538  _student.fullName */\n      0x20\n      add\n      mload\n        /* \"contracts/Hometask.sol\":1502:1539  SummonsToArmyGiven(_student.fullName) */\n      mload(0x40)\n      tag_30\n      swap2\n      swap1\n      tag_23\n      jump\t// in\n    tag_30:\n      mload(0x40)\n      dup1\n      swap2\n      sub\n      swap1\n      log1\n        /* \"contracts/Hometask.sol\":1422:1551  if (_student.regDate + DURATION > block.timestamp)\r... */\n    tag_29:\n        /* \"contracts/Hometask.sol\":1568:1618  StudentEvicted(_student.fullName, block.timestamp) */\n      0x6fd4822621c89040f0ea90264351e7f95d334eb76155286b2c1b6732331ff93c\n        /* \"contracts/Hometask.sol\":1583:1591  _student */\n      dup2\n        /* \"contracts/Hometask.sol\":1583:1600  _student.fullName */\n      0x20\n      add\n      mload\n        /* \"contracts/Hometask.sol\":1602:1617  block.timestamp */\n      timestamp\n        /* \"contracts/Hometask.sol\":1568:1618  StudentEvicted(_student.fullName, block.timestamp) */\n      mload(0x40)\n      tag_31\n      swap3\n      swap2\n      swap1\n      tag_32\n      jump\t// in\n    tag_31:\n      mload(0x40)\n      dup1\n      swap2\n      sub\n      swap1\n      log1\n        /* \"contracts/Hometask.sol\":988:1626  function debtsAreDone(Student memory _student) public {\r... */\n      pop\n      jump\t// out\n        /* \"#utility.yul\":7:419   */\n    tag_34:\n        /* \"#utility.yul\":85:90   */\n      0x00\n        /* \"#utility.yul\":110:176   */\n      tag_36\n        /* \"#utility.yul\":126:175   */\n      tag_37\n        /* \"#utility.yul\":168:174   */\n      dup5\n        /* \"#utility.yul\":126:175   */\n      tag_38\n      jump\t// in\n    tag_37:\n        /* \"#utility.yul\":110:176   */\n      tag_39\n      jump\t// in\n    tag_36:\n        /* \"#utility.yul\":101:176   */\n      swap1\n      pop\n        /* \"#utility.yul\":199:205   */\n      dup3\n        /* \"#utility.yul\":192:197   */\n      dup2\n        /* \"#utility.yul\":185:206   */\n      mstore\n        /* \"#utility.yul\":237:241   */\n      0x20\n        /* \"#utility.yul\":230:235   */\n      dup2\n        /* \"#utility.yul\":226:242   */\n      add\n        /* \"#utility.yul\":275:278   */\n      dup5\n        /* \"#utility.yul\":266:272   */\n      dup5\n        /* \"#utility.yul\":261:264   */\n      dup5\n        /* \"#utility.yul\":257:273   */\n      add\n        /* \"#utility.yul\":254:279   */\n      gt\n        /* \"#utility.yul\":251:363   */\n      iszero\n      tag_40\n      jumpi\n        /* \"#utility.yul\":282:361   */\n      tag_41\n      tag_42\n      jump\t// in\n    tag_41:\n        /* \"#utility.yul\":251:363   */\n    tag_40:\n        /* \"#utility.yul\":372:413   */\n      tag_43\n        /* \"#utility.yul\":406:412   */\n      dup5\n        /* \"#utility.yul\":401:404   */\n      dup3\n        /* \"#utility.yul\":396:399   */\n      dup6\n        /* \"#utility.yul\":372:413   */\n      tag_44\n      jump\t// in\n    tag_43:\n        /* \"#utility.yul\":91:419   */\n      pop\n        /* \"#utility.yul\":7:419   */\n      swap4\n      swap3\n      pop\n      pop\n      pop\n      jump\t// out\n        /* \"#utility.yul\":425:558   */\n    tag_45:\n        /* \"#utility.yul\":468:473   */\n      0x00\n        /* \"#utility.yul\":506:512   */\n      dup2\n        /* \"#utility.yul\":493:513   */\n      calldataload\n        /* \"#utility.yul\":484:513   */\n      swap1\n      pop\n        /* \"#utility.yul\":522:552   */\n      tag_47\n        /* \"#utility.yul\":546:551   */\n      dup2\n        /* \"#utility.yul\":522:552   */\n      tag_48\n      jump\t// in\n    tag_47:\n        /* \"#utility.yul\":425:558   */\n      swap3\n      swap2\n      pop\n      pop\n      jump\t// out\n        /* \"#utility.yul\":578:1131   */\n    tag_49:\n        /* \"#utility.yul\":636:644   */\n      0x00\n        /* \"#utility.yul\":646:652   */\n      dup1\n        /* \"#utility.yul\":696:699   */\n      dup4\n        /* \"#utility.yul\":689:693   */\n      0x1f\n        /* \"#utility.yul\":681:687   */\n      dup5\n        /* \"#utility.yul\":677:694   */\n      add\n        /* \"#utility.yul\":673:700   */\n      slt\n        /* \"#utility.yul\":663:785   */\n      tag_51\n      jumpi\n        /* \"#utility.yul\":704:783   */\n      tag_52\n      tag_53\n      jump\t// in\n    tag_52:\n        /* \"#utility.yul\":663:785   */\n    tag_51:\n        /* \"#utility.yul\":817:823   */\n      dup3\n        /* \"#utility.yul\":804:824   */\n      calldataload\n        /* \"#utility.yul\":794:824   */\n      swap1\n      pop\n        /* \"#utility.yul\":847:865   */\n      0xffffffffffffffff\n        /* \"#utility.yul\":839:845   */\n      dup2\n        /* \"#utility.yul\":836:866   */\n      gt\n        /* \"#utility.yul\":833:950   */\n      iszero\n      tag_54\n      jumpi\n        /* \"#utility.yul\":869:948   */\n      tag_55\n      tag_56\n      jump\t// in\n    tag_55:\n        /* \"#utility.yul\":833:950   */\n    tag_54:\n        /* \"#utility.yul\":983:987   */\n      0x20\n        /* \"#utility.yul\":975:981   */\n      dup4\n        /* \"#utility.yul\":971:988   */\n      add\n        /* \"#utility.yul\":959:988   */\n      swap2\n      pop\n        /* \"#utility.yul\":1037:1040   */\n      dup4\n        /* \"#utility.yul\":1029:1033   */\n      0x01\n        /* \"#utility.yul\":1021:1027   */\n      dup3\n        /* \"#utility.yul\":1017:1034   */\n      mul\n        /* \"#utility.yul\":1007:1015   */\n      dup4\n        /* \"#utility.yul\":1003:1035   */\n      add\n        /* \"#utility.yul\":1000:1041   */\n      gt\n        /* \"#utility.yul\":997:1125   */\n      iszero\n      tag_57\n      jumpi\n        /* \"#utility.yul\":1044:1123   */\n      tag_58\n      tag_59\n      jump\t// in\n    tag_58:\n        /* \"#utility.yul\":997:1125   */\n    tag_57:\n        /* \"#utility.yul\":578:1131   */\n      swap3\n      pop\n      swap3\n      swap1\n      pop\n      jump\t// out\n        /* \"#utility.yul\":1151:1491   */\n    tag_60:\n        /* \"#utility.yul\":1207:1212   */\n      0x00\n        /* \"#utility.yul\":1256:1259   */\n      dup3\n        /* \"#utility.yul\":1249:1253   */\n      0x1f\n        /* \"#utility.yul\":1241:1247   */\n      dup4\n        /* \"#utility.yul\":1237:1254   */\n      add\n        /* \"#utility.yul\":1233:1260   */\n      slt\n        /* \"#utility.yul\":1223:1345   */\n      tag_62\n      jumpi\n        /* \"#utility.yul\":1264:1343   */\n      tag_63\n      tag_53\n      jump\t// in\n    tag_63:\n        /* \"#utility.yul\":1223:1345   */\n    tag_62:\n        /* \"#utility.yul\":1381:1387   */\n      dup2\n        /* \"#utility.yul\":1368:1388   */\n      calldataload\n        /* \"#utility.yul\":1406:1485   */\n      tag_64\n        /* \"#utility.yul\":1481:1484   */\n      dup5\n        /* \"#utility.yul\":1473:1479   */\n      dup3\n        /* \"#utility.yul\":1466:1470   */\n      0x20\n        /* \"#utility.yul\":1458:1464   */\n      dup7\n        /* \"#utility.yul\":1454:1471   */\n      add\n        /* \"#utility.yul\":1406:1485   */\n      tag_34\n      jump\t// in\n    tag_64:\n        /* \"#utility.yul\":1397:1485   */\n      swap2\n      pop\n        /* \"#utility.yul\":1213:1491   */\n      pop\n        /* \"#utility.yul\":1151:1491   */\n      swap3\n      swap2\n      pop\n      pop\n      jump\t// out\n        /* \"#utility.yul\":1534:3103   */\n    tag_65:\n        /* \"#utility.yul\":1606:1611   */\n      0x00\n        /* \"#utility.yul\":1650:1654   */\n      0xe0\n        /* \"#utility.yul\":1638:1647   */\n      dup3\n        /* \"#utility.yul\":1633:1636   */\n      dup5\n        /* \"#utility.yul\":1629:1648   */\n      sub\n        /* \"#utility.yul\":1625:1655   */\n      slt\n        /* \"#utility.yul\":1622:1739   */\n      iszero\n      tag_67\n      jumpi\n        /* \"#utility.yul\":1658:1737   */\n      tag_68\n      tag_69\n      jump\t// in\n    tag_68:\n        /* \"#utility.yul\":1622:1739   */\n    tag_67:\n        /* \"#utility.yul\":1757:1778   */\n      tag_70\n        /* \"#utility.yul\":1773:1777   */\n      0xe0\n        /* \"#utility.yul\":1757:1778   */\n      tag_39\n      jump\t// in\n    tag_70:\n        /* \"#utility.yul\":1748:1778   */\n      swap1\n      pop\n        /* \"#utility.yul\":1835:1836   */\n      0x00\n        /* \"#utility.yul\":1875:1924   */\n      tag_71\n        /* \"#utility.yul\":1920:1923   */\n      dup5\n        /* \"#utility.yul\":1911:1917   */\n      dup3\n        /* \"#utility.yul\":1900:1909   */\n      dup6\n        /* \"#utility.yul\":1896:1918   */\n      add\n        /* \"#utility.yul\":1875:1924   */\n      tag_72\n      jump\t// in\n    tag_71:\n        /* \"#utility.yul\":1868:1872   */\n      0x00\n        /* \"#utility.yul\":1861:1866   */\n      dup4\n        /* \"#utility.yul\":1857:1873   */\n      add\n        /* \"#utility.yul\":1850:1925   */\n      mstore\n        /* \"#utility.yul\":1788:1936   */\n      pop\n        /* \"#utility.yul\":2027:2029   */\n      0x20\n        /* \"#utility.yul\":2016:2025   */\n      dup3\n        /* \"#utility.yul\":2012:2030   */\n      add\n        /* \"#utility.yul\":1999:2031   */\n      calldataload\n        /* \"#utility.yul\":2058:2076   */\n      0xffffffffffffffff\n        /* \"#utility.yul\":2050:2056   */\n      dup2\n        /* \"#utility.yul\":2047:2077   */\n      gt\n        /* \"#utility.yul\":2044:2161   */\n      iszero\n      tag_73\n      jumpi\n        /* \"#utility.yul\":2080:2159   */\n      tag_74\n      tag_75\n      jump\t// in\n    tag_74:\n        /* \"#utility.yul\":2044:2161   */\n    tag_73:\n        /* \"#utility.yul\":2200:2259   */\n      tag_76\n        /* \"#utility.yul\":2255:2258   */\n      dup5\n        /* \"#utility.yul\":2246:2252   */\n      dup3\n        /* \"#utility.yul\":2235:2244   */\n      dup6\n        /* \"#utility.yul\":2231:2253   */\n      add\n        /* \"#utility.yul\":2200:2259   */\n      tag_60\n      jump\t// in\n    tag_76:\n        /* \"#utility.yul\":2193:2197   */\n      0x20\n        /* \"#utility.yul\":2186:2191   */\n      dup4\n        /* \"#utility.yul\":2182:2198   */\n      add\n        /* \"#utility.yul\":2175:2260   */\n      mstore\n        /* \"#utility.yul\":1946:2271   */\n      pop\n        /* \"#utility.yul\":2336:2338   */\n      0x40\n        /* \"#utility.yul\":2377:2423   */\n      tag_77\n        /* \"#utility.yul\":2419:2422   */\n      dup5\n        /* \"#utility.yul\":2410:2416   */\n      dup3\n        /* \"#utility.yul\":2399:2408   */\n      dup6\n        /* \"#utility.yul\":2395:2417   */\n      add\n        /* \"#utility.yul\":2377:2423   */\n      tag_45\n      jump\t// in\n    tag_77:\n        /* \"#utility.yul\":2370:2374   */\n      0x40\n        /* \"#utility.yul\":2363:2368   */\n      dup4\n        /* \"#utility.yul\":2359:2375   */\n      add\n        /* \"#utility.yul\":2352:2424   */\n      mstore\n        /* \"#utility.yul\":2281:2435   */\n      pop\n        /* \"#utility.yul\":2498:2500   */\n      0x60\n        /* \"#utility.yul\":2539:2585   */\n      tag_78\n        /* \"#utility.yul\":2581:2584   */\n      dup5\n        /* \"#utility.yul\":2572:2578   */\n      dup3\n        /* \"#utility.yul\":2561:2570   */\n      dup6\n        /* \"#utility.yul\":2557:2579   */\n      add\n        /* \"#utility.yul\":2539:2585   */\n      tag_45\n      jump\t// in\n    tag_78:\n        /* \"#utility.yul\":2532:2536   */\n      0x60\n        /* \"#utility.yul\":2525:2530   */\n      dup4\n        /* \"#utility.yul\":2521:2537   */\n      add\n        /* \"#utility.yul\":2514:2586   */\n      mstore\n        /* \"#utility.yul\":2445:2597   */\n      pop\n        /* \"#utility.yul\":2661:2664   */\n      0x80\n        /* \"#utility.yul\":2703:2749   */\n      tag_79\n        /* \"#utility.yul\":2745:2748   */\n      dup5\n        /* \"#utility.yul\":2736:2742   */\n      dup3\n        /* \"#utility.yul\":2725:2734   */\n      dup6\n        /* \"#utility.yul\":2721:2743   */\n      add\n        /* \"#utility.yul\":2703:2749   */\n      tag_45\n      jump\t// in\n    tag_79:\n        /* \"#utility.yul\":2696:2700   */\n      0x80\n        /* \"#utility.yul\":2689:2694   */\n      dup4\n        /* \"#utility.yul\":2685:2701   */\n      add\n        /* \"#utility.yul\":2678:2750   */\n      mstore\n        /* \"#utility.yul\":2607:2761   */\n      pop\n        /* \"#utility.yul\":2823:2826   */\n      0xa0\n        /* \"#utility.yul\":2865:2914   */\n      tag_80\n        /* \"#utility.yul\":2910:2913   */\n      dup5\n        /* \"#utility.yul\":2901:2907   */\n      dup3\n        /* \"#utility.yul\":2890:2899   */\n      dup6\n        /* \"#utility.yul\":2886:2908   */\n      add\n        /* \"#utility.yul\":2865:2914   */\n      tag_72\n      jump\t// in\n    tag_80:\n        /* \"#utility.yul\":2858:2862   */\n      0xa0\n        /* \"#utility.yul\":2851:2856   */\n      dup4\n        /* \"#utility.yul\":2847:2863   */\n      add\n        /* \"#utility.yul\":2840:2915   */\n      mstore\n        /* \"#utility.yul\":2771:2926   */\n      pop\n        /* \"#utility.yul\":2993:2996   */\n      0xc0\n        /* \"#utility.yul\":3035:3084   */\n      tag_81\n        /* \"#utility.yul\":3080:3083   */\n      dup5\n        /* \"#utility.yul\":3071:3077   */\n      dup3\n        /* \"#utility.yul\":3060:3069   */\n      dup6\n        /* \"#utility.yul\":3056:3078   */\n      add\n        /* \"#utility.yul\":3035:3084   */\n      tag_72\n      jump\t// in\n    tag_81:\n        /* \"#utility.yul\":3028:3032   */\n      0xc0\n        /* \"#utility.yul\":3021:3026   */\n      dup4\n        /* \"#utility.yul\":3017:3033   */\n      add\n        /* \"#utility.yul\":3010:3085   */\n      mstore\n        /* \"#utility.yul\":2936:3096   */\n      pop\n        /* \"#utility.yul\":1534:3103   */\n      swap3\n      swap2\n      pop\n      pop\n      jump\t// out\n        /* \"#utility.yul\":3109:3248   */\n    tag_72:\n        /* \"#utility.yul\":3155:3160   */\n      0x00\n        /* \"#utility.yul\":3193:3199   */\n      dup2\n        /* \"#utility.yul\":3180:3200   */\n      calldataload\n        /* \"#utility.yul\":3171:3200   */\n      swap1\n      pop\n        /* \"#utility.yul\":3209:3242   */\n      tag_83\n        /* \"#utility.yul\":3236:3241   */\n      dup2\n        /* \"#utility.yul\":3209:3242   */\n      tag_84\n      jump\t// in\n    tag_83:\n        /* \"#utility.yul\":3109:3248   */\n      swap3\n      swap2\n      pop\n      pop\n      jump\t// out\n        /* \"#utility.yul\":3254:4201   */\n    tag_7:\n        /* \"#utility.yul\":3343:3349   */\n      0x00\n        /* \"#utility.yul\":3351:3357   */\n      dup1\n        /* \"#utility.yul\":3359:3365   */\n      0x00\n        /* \"#utility.yul\":3367:3373   */\n      dup1\n        /* \"#utility.yul\":3375:3381   */\n      0x00\n        /* \"#utility.yul\":3424:3427   */\n      0x80\n        /* \"#utility.yul\":3412:3421   */\n      dup7\n        /* \"#utility.yul\":3403:3410   */\n      dup9\n        /* \"#utility.yul\":3399:3422   */\n      sub\n        /* \"#utility.yul\":3395:3428   */\n      slt\n        /* \"#utility.yul\":3392:3512   */\n      iszero\n      tag_86\n      jumpi\n        /* \"#utility.yul\":3431:3510   */\n      tag_87\n      tag_88\n      jump\t// in\n    tag_87:\n        /* \"#utility.yul\":3392:3512   */\n    tag_86:\n        /* \"#utility.yul\":3579:3580   */\n      0x00\n        /* \"#utility.yul\":3568:3577   */\n      dup7\n        /* \"#utility.yul\":3564:3581   */\n      add\n        /* \"#utility.yul\":3551:3582   */\n      calldataload\n        /* \"#utility.yul\":3609:3627   */\n      0xffffffffffffffff\n        /* \"#utility.yul\":3601:3607   */\n      dup2\n        /* \"#utility.yul\":3598:3628   */\n      gt\n        /* \"#utility.yul\":3595:3712   */\n      iszero\n      tag_89\n      jumpi\n        /* \"#utility.yul\":3631:3710   */\n      tag_90\n      tag_91\n      jump\t// in\n    tag_90:\n        /* \"#utility.yul\":3595:3712   */\n    tag_89:\n        /* \"#utility.yul\":3744:3809   */\n      tag_92\n        /* \"#utility.yul\":3801:3808   */\n      dup9\n        /* \"#utility.yul\":3792:3798   */\n      dup3\n        /* \"#utility.yul\":3781:3790   */\n      dup10\n        /* \"#utility.yul\":3777:3799   */\n      add\n        /* \"#utility.yul\":3744:3809   */\n      tag_49\n      jump\t// in\n    tag_92:\n        /* \"#utility.yul\":3726:3809   */\n      swap6\n      pop\n      swap6\n      pop\n        /* \"#utility.yul\":3522:3819   */\n      pop\n        /* \"#utility.yul\":3858:3860   */\n      0x20\n        /* \"#utility.yul\":3884:3934   */\n      tag_93\n        /* \"#utility.yul\":3926:3933   */\n      dup9\n        /* \"#utility.yul\":3917:3923   */\n      dup3\n        /* \"#utility.yul\":3906:3915   */\n      dup10\n        /* \"#utility.yul\":3902:3924   */\n      add\n        /* \"#utility.yul\":3884:3934   */\n      tag_45\n      jump\t// in\n    tag_93:\n        /* \"#utility.yul\":3874:3934   */\n      swap4\n      pop\n        /* \"#utility.yul\":3829:3944   */\n      pop\n        /* \"#utility.yul\":3983:3985   */\n      0x40\n        /* \"#utility.yul\":4009:4059   */\n      tag_94\n        /* \"#utility.yul\":4051:4058   */\n      dup9\n        /* \"#utility.yul\":4042:4048   */\n      dup3\n        /* \"#utility.yul\":4031:4040   */\n      dup10\n        /* \"#utility.yul\":4027:4049   */\n      add\n        /* \"#utility.yul\":4009:4059   */\n      tag_45\n      jump\t// in\n    tag_94:\n        /* \"#utility.yul\":3999:4059   */\n      swap3\n      pop\n        /* \"#utility.yul\":3954:4069   */\n      pop\n        /* \"#utility.yul\":4108:4110   */\n      0x60\n        /* \"#utility.yul\":4134:4184   */\n      tag_95\n        /* \"#utility.yul\":4176:4183   */\n      dup9\n        /* \"#utility.yul\":4167:4173   */\n      dup3\n        /* \"#utility.yul\":4156:4165   */\n      dup10\n        /* \"#utility.yul\":4152:4174   */\n      add\n        /* \"#utility.yul\":4134:4184   */\n      tag_45\n      jump\t// in\n    tag_95:\n        /* \"#utility.yul\":4124:4184   */\n      swap2\n      pop\n        /* \"#utility.yul\":4079:4194   */\n      pop\n        /* \"#utility.yul\":3254:4201   */\n      swap3\n      swap6\n      pop\n      swap3\n      swap6\n      swap1\n      swap4\n      pop\n      jump\t// out\n        /* \"#utility.yul\":4207:4742   */\n    tag_11:\n        /* \"#utility.yul\":4289:4295   */\n      0x00\n        /* \"#utility.yul\":4338:4340   */\n      0x20\n        /* \"#utility.yul\":4326:4335   */\n      dup3\n        /* \"#utility.yul\":4317:4324   */\n      dup5\n        /* \"#utility.yul\":4313:4336   */\n      sub\n        /* \"#utility.yul\":4309:4341   */\n      slt\n        /* \"#utility.yul\":4306:4425   */\n      iszero\n      tag_97\n      jumpi\n        /* \"#utility.yul\":4344:4423   */\n      tag_98\n      tag_88\n      jump\t// in\n    tag_98:\n        /* \"#utility.yul\":4306:4425   */\n    tag_97:\n        /* \"#utility.yul\":4492:4493   */\n      0x00\n        /* \"#utility.yul\":4481:4490   */\n      dup3\n        /* \"#utility.yul\":4477:4494   */\n      add\n        /* \"#utility.yul\":4464:4495   */\n      calldataload\n        /* \"#utility.yul\":4522:4540   */\n      0xffffffffffffffff\n        /* \"#utility.yul\":4514:4520   */\n      dup2\n        /* \"#utility.yul\":4511:4541   */\n      gt\n        /* \"#utility.yul\":4508:4625   */\n      iszero\n      tag_99\n      jumpi\n        /* \"#utility.yul\":4544:4623   */\n      tag_100\n      tag_91\n      jump\t// in\n    tag_100:\n        /* \"#utility.yul\":4508:4625   */\n    tag_99:\n        /* \"#utility.yul\":4649:4725   */\n      tag_101\n        /* \"#utility.yul\":4717:4724   */\n      dup5\n        /* \"#utility.yul\":4708:4714   */\n      dup3\n        /* \"#utility.yul\":4697:4706   */\n      dup6\n        /* \"#utility.yul\":4693:4715   */\n      add\n        /* \"#utility.yul\":4649:4725   */\n      tag_65\n      jump\t// in\n    tag_101:\n        /* \"#utility.yul\":4639:4725   */\n      swap2\n      pop\n        /* \"#utility.yul\":4435:4735   */\n      pop\n        /* \"#utility.yul\":4207:4742   */\n      swap3\n      swap2\n      pop\n      pop\n      jump\t// out\n        /* \"#utility.yul\":4748:5112   */\n    tag_102:\n        /* \"#utility.yul\":4836:4839   */\n      0x00\n        /* \"#utility.yul\":4864:4903   */\n      tag_104\n        /* \"#utility.yul\":4897:4902   */\n      dup3\n        /* \"#utility.yul\":4864:4903   */\n      tag_105\n      jump\t// in\n    tag_104:\n        /* \"#utility.yul\":4919:4990   */\n      tag_106\n        /* \"#utility.yul\":4983:4989   */\n      dup2\n        /* \"#utility.yul\":4978:4981   */\n      dup6\n        /* \"#utility.yul\":4919:4990   */\n      tag_107\n      jump\t// in\n    tag_106:\n        /* \"#utility.yul\":4912:4990   */\n      swap4\n      pop\n        /* \"#utility.yul\":4999:5051   */\n      tag_108\n        /* \"#utility.yul\":5044:5050   */\n      dup2\n        /* \"#utility.yul\":5039:5042   */\n      dup6\n        /* \"#utility.yul\":5032:5036   */\n      0x20\n        /* \"#utility.yul\":5025:5030   */\n      dup7\n        /* \"#utility.yul\":5021:5037   */\n      add\n        /* \"#utility.yul\":4999:5051   */\n      tag_109\n      jump\t// in\n    tag_108:\n        /* \"#utility.yul\":5076:5105   */\n      tag_110\n        /* \"#utility.yul\":5098:5104   */\n      dup2\n        /* \"#utility.yul\":5076:5105   */\n      tag_111\n      jump\t// in\n    tag_110:\n        /* \"#utility.yul\":5071:5074   */\n      dup5\n        /* \"#utility.yul\":5067:5106   */\n      add\n        /* \"#utility.yul\":5060:5106   */\n      swap2\n      pop\n        /* \"#utility.yul\":4840:5112   */\n      pop\n        /* \"#utility.yul\":4748:5112   */\n      swap3\n      swap2\n      pop\n      pop\n      jump\t// out\n        /* \"#utility.yul\":5118:5236   */\n    tag_112:\n        /* \"#utility.yul\":5205:5229   */\n      tag_114\n        /* \"#utility.yul\":5223:5228   */\n      dup2\n        /* \"#utility.yul\":5205:5229   */\n      tag_115\n      jump\t// in\n    tag_114:\n        /* \"#utility.yul\":5200:5203   */\n      dup3\n        /* \"#utility.yul\":5193:5230   */\n      mstore\n        /* \"#utility.yul\":5118:5236   */\n      pop\n      pop\n      jump\t// out\n        /* \"#utility.yul\":5242:5555   */\n    tag_23:\n        /* \"#utility.yul\":5355:5359   */\n      0x00\n        /* \"#utility.yul\":5393:5395   */\n      0x20\n        /* \"#utility.yul\":5382:5391   */\n      dup3\n        /* \"#utility.yul\":5378:5396   */\n      add\n        /* \"#utility.yul\":5370:5396   */\n      swap1\n      pop\n        /* \"#utility.yul\":5442:5451   */\n      dup2\n        /* \"#utility.yul\":5436:5440   */\n      dup2\n        /* \"#utility.yul\":5432:5452   */\n      sub\n        /* \"#utility.yul\":5428:5429   */\n      0x00\n        /* \"#utility.yul\":5417:5426   */\n      dup4\n        /* \"#utility.yul\":5413:5430   */\n      add\n        /* \"#utility.yul\":5406:5453   */\n      mstore\n        /* \"#utility.yul\":5470:5548   */\n      tag_117\n        /* \"#utility.yul\":5543:5547   */\n      dup2\n        /* \"#utility.yul\":5534:5540   */\n      dup5\n        /* \"#utility.yul\":5470:5548   */\n      tag_102\n      jump\t// in\n    tag_117:\n        /* \"#utility.yul\":5462:5548   */\n      swap1\n      pop\n        /* \"#utility.yul\":5242:5555   */\n      swap3\n      swap2\n      pop\n      pop\n      jump\t// out\n        /* \"#utility.yul\":5561:5984   */\n    tag_32:\n        /* \"#utility.yul\":5702:5706   */\n      0x00\n        /* \"#utility.yul\":5740:5742   */\n      0x40\n        /* \"#utility.yul\":5729:5738   */\n      dup3\n        /* \"#utility.yul\":5725:5743   */\n      add\n        /* \"#utility.yul\":5717:5743   */\n      swap1\n      pop\n        /* \"#utility.yul\":5789:5798   */\n      dup2\n        /* \"#utility.yul\":5783:5787   */\n      dup2\n        /* \"#utility.yul\":5779:5799   */\n      sub\n        /* \"#utility.yul\":5775:5776   */\n      0x00\n        /* \"#utility.yul\":5764:5773   */\n      dup4\n        /* \"#utility.yul\":5760:5777   */\n      add\n        /* \"#utility.yul\":5753:5800   */\n      mstore\n        /* \"#utility.yul\":5817:5895   */\n      tag_119\n        /* \"#utility.yul\":5890:5894   */\n      dup2\n        /* \"#utility.yul\":5881:5887   */\n      dup6\n        /* \"#utility.yul\":5817:5895   */\n      tag_102\n      jump\t// in\n    tag_119:\n        /* \"#utility.yul\":5809:5895   */\n      swap1\n      pop\n        /* \"#utility.yul\":5905:5977   */\n      tag_120\n        /* \"#utility.yul\":5973:5975   */\n      0x20\n        /* \"#utility.yul\":5962:5971   */\n      dup4\n        /* \"#utility.yul\":5958:5976   */\n      add\n        /* \"#utility.yul\":5949:5955   */\n      dup5\n        /* \"#utility.yul\":5905:5977   */\n      tag_112\n      jump\t// in\n    tag_120:\n        /* \"#utility.yul\":5561:5984   */\n      swap4\n      swap3\n      pop\n      pop\n      pop\n      jump\t// out\n        /* \"#utility.yul\":5990:6119   */\n    tag_39:\n        /* \"#utility.yul\":6024:6030   */\n      0x00\n        /* \"#utility.yul\":6051:6071   */\n      tag_122\n      tag_123\n      jump\t// in\n    tag_122:\n        /* \"#utility.yul\":6041:6071   */\n      swap1\n      pop\n        /* \"#utility.yul\":6080:6113   */\n      tag_124\n        /* \"#utility.yul\":6108:6112   */\n      dup3\n        /* \"#utility.yul\":6100:6106   */\n      dup3\n        /* \"#utility.yul\":6080:6113   */\n      tag_125\n      jump\t// in\n    tag_124:\n        /* \"#utility.yul\":5990:6119   */\n      swap2\n      swap1\n      pop\n      jump\t// out\n        /* \"#utility.yul\":6125:6200   */\n    tag_123:\n        /* \"#utility.yul\":6158:6164   */\n      0x00\n        /* \"#utility.yul\":6191:6193   */\n      0x40\n        /* \"#utility.yul\":6185:6194   */\n      mload\n        /* \"#utility.yul\":6175:6194   */\n      swap1\n      pop\n        /* \"#utility.yul\":6125:6200   */\n      swap1\n      jump\t// out\n        /* \"#utility.yul\":6206:6514   */\n    tag_38:\n        /* \"#utility.yul\":6268:6272   */\n      0x00\n        /* \"#utility.yul\":6358:6376   */\n      0xffffffffffffffff\n        /* \"#utility.yul\":6350:6356   */\n      dup3\n        /* \"#utility.yul\":6347:6377   */\n      gt\n        /* \"#utility.yul\":6344:6400   */\n      iszero\n      tag_128\n      jumpi\n        /* \"#utility.yul\":6380:6398   */\n      tag_129\n      tag_130\n      jump\t// in\n    tag_129:\n        /* \"#utility.yul\":6344:6400   */\n    tag_128:\n        /* \"#utility.yul\":6418:6447   */\n      tag_131\n        /* \"#utility.yul\":6440:6446   */\n      dup3\n        /* \"#utility.yul\":6418:6447   */\n      tag_111\n      jump\t// in\n    tag_131:\n        /* \"#utility.yul\":6410:6447   */\n      swap1\n      pop\n        /* \"#utility.yul\":6502:6506   */\n      0x20\n        /* \"#utility.yul\":6496:6500   */\n      dup2\n        /* \"#utility.yul\":6492:6507   */\n      add\n        /* \"#utility.yul\":6484:6507   */\n      swap1\n      pop\n        /* \"#utility.yul\":6206:6514   */\n      swap2\n      swap1\n      pop\n      jump\t// out\n        /* \"#utility.yul\":6520:6619   */\n    tag_105:\n        /* \"#utility.yul\":6572:6578   */\n      0x00\n        /* \"#utility.yul\":6606:6611   */\n      dup2\n        /* \"#utility.yul\":6600:6612   */\n      mload\n        /* \"#utility.yul\":6590:6612   */\n      swap1\n      pop\n        /* \"#utility.yul\":6520:6619   */\n      swap2\n      swap1\n      pop\n      jump\t// out\n        /* \"#utility.yul\":6625:6794   */\n    tag_107:\n        /* \"#utility.yul\":6709:6720   */\n      0x00\n        /* \"#utility.yul\":6743:6749   */\n      dup3\n        /* \"#utility.yul\":6738:6741   */\n      dup3\n        /* \"#utility.yul\":6731:6750   */\n      mstore\n        /* \"#utility.yul\":6783:6787   */\n      0x20\n        /* \"#utility.yul\":6778:6781   */\n      dup3\n        /* \"#utility.yul\":6774:6788   */\n      add\n        /* \"#utility.yul\":6759:6788   */\n      swap1\n      pop\n        /* \"#utility.yul\":6625:6794   */\n      swap3\n      swap2\n      pop\n      pop\n      jump\t// out\n        /* \"#utility.yul\":6800:7105   */\n    tag_19:\n        /* \"#utility.yul\":6840:6843   */\n      0x00\n        /* \"#utility.yul\":6859:6879   */\n      tag_135\n        /* \"#utility.yul\":6877:6878   */\n      dup3\n        /* \"#utility.yul\":6859:6879   */\n      tag_115\n      jump\t// in\n    tag_135:\n        /* \"#utility.yul\":6854:6879   */\n      swap2\n      pop\n        /* \"#utility.yul\":6893:6913   */\n      tag_136\n        /* \"#utility.yul\":6911:6912   */\n      dup4\n        /* \"#utility.yul\":6893:6913   */\n      tag_115\n      jump\t// in\n    tag_136:\n        /* \"#utility.yul\":6888:6913   */\n      swap3\n      pop\n        /* \"#utility.yul\":7047:7048   */\n      dup3\n        /* \"#utility.yul\":6979:7045   */\n      0xffffffffffffffffffffffffffffffffffffffffffffffffffffffffffffffff\n        /* \"#utility.yul\":6975:7049   */\n      sub\n        /* \"#utility.yul\":6972:6973   */\n      dup3\n        /* \"#utility.yul\":6969:7050   */\n      gt\n        /* \"#utility.yul\":6966:7073   */\n      iszero\n      tag_137\n      jumpi\n        /* \"#utility.yul\":7053:7071   */\n      tag_138\n      tag_139\n      jump\t// in\n    tag_138:\n        /* \"#utility.yul\":6966:7073   */\n    tag_137:\n        /* \"#utility.yul\":7097:7098   */\n      dup3\n        /* \"#utility.yul\":7094:7095   */\n      dup3\n        /* \"#utility.yul\":7090:7099   */\n      add\n        /* \"#utility.yul\":7083:7099   */\n      swap1\n      pop\n        /* \"#utility.yul\":6800:7105   */\n      swap3\n      swap2\n      pop\n      pop\n      jump\t// out\n        /* \"#utility.yul\":7111:7302   */\n    tag_16:\n        /* \"#utility.yul\":7151:7155   */\n      0x00\n        /* \"#utility.yul\":7171:7191   */\n      tag_141\n        /* \"#utility.yul\":7189:7190   */\n      dup3\n        /* \"#utility.yul\":7171:7191   */\n      tag_115\n      jump\t// in\n    tag_141:\n        /* \"#utility.yul\":7166:7191   */\n      swap2\n      pop\n        /* \"#utility.yul\":7205:7225   */\n      tag_142\n        /* \"#utility.yul\":7223:7224   */\n      dup4\n        /* \"#utility.yul\":7205:7225   */\n      tag_115\n      jump\t// in\n    tag_142:\n        /* \"#utility.yul\":7200:7225   */\n      swap3\n      pop\n        /* \"#utility.yul\":7244:7245   */\n      dup3\n        /* \"#utility.yul\":7241:7242   */\n      dup3\n        /* \"#utility.yul\":7238:7246   */\n      lt\n        /* \"#utility.yul\":7235:7269   */\n      iszero\n      tag_143\n      jumpi\n        /* \"#utility.yul\":7249:7267   */\n      tag_144\n      tag_139\n      jump\t// in\n    tag_144:\n        /* \"#utility.yul\":7235:7269   */\n    tag_143:\n        /* \"#utility.yul\":7294:7295   */\n      dup3\n        /* \"#utility.yul\":7291:7292   */\n      dup3\n        /* \"#utility.yul\":7287:7296   */\n      sub\n        /* \"#utility.yul\":7279:7296   */\n      swap1\n      pop\n        /* \"#utility.yul\":7111:7302   */\n      swap3\n      swap2\n      pop\n      pop\n      jump\t// out\n        /* \"#utility.yul\":7308:7398   */\n    tag_145:\n        /* \"#utility.yul\":7342:7349   */\n      0x00\n        /* \"#utility.yul\":7385:7390   */\n      dup2\n        /* \"#utility.yul\":7378:7391   */\n      iszero\n        /* \"#utility.yul\":7371:7392   */\n      iszero\n        /* \"#utility.yul\":7360:7392   */\n      swap1\n      pop\n        /* \"#utility.yul\":7308:7398   */\n      swap2\n      swap1\n      pop\n      jump\t// out\n        /* \"#utility.yul\":7404:7481   */\n    tag_115:\n        /* \"#utility.yul\":7441:7448   */\n      0x00\n        /* \"#utility.yul\":7470:7475   */\n      dup2\n        /* \"#utility.yul\":7459:7475   */\n      swap1\n      pop\n        /* \"#utility.yul\":7404:7481   */\n      swap2\n      swap1\n      pop\n      jump\t// out\n        /* \"#utility.yul\":7487:7641   */\n    tag_44:\n        /* \"#utility.yul\":7571:7577   */\n      dup3\n        /* \"#utility.yul\":7566:7569   */\n      dup2\n        /* \"#utility.yul\":7561:7564   */\n      dup4\n        /* \"#utility.yul\":7548:7578   */\n      calldatacopy\n        /* \"#utility.yul\":7633:7634   */\n      0x00\n        /* \"#utility.yul\":7624:7630   */\n      dup4\n        /* \"#utility.yul\":7619:7622   */\n      dup4\n        /* \"#utility.yul\":7615:7631   */\n      add\n        /* \"#utility.yul\":7608:7635   */\n      mstore\n        /* \"#utility.yul\":7487:7641   */\n      pop\n      pop\n      pop\n      jump\t// out\n        /* \"#utility.yul\":7647:7954   */\n    tag_109:\n        /* \"#utility.yul\":7715:7716   */\n      0x00\n        /* \"#utility.yul\":7725:7838   */\n    tag_150:\n        /* \"#utility.yul\":7739:7745   */\n      dup4\n        /* \"#utility.yul\":7736:7737   */\n      dup2\n        /* \"#utility.yul\":7733:7746   */\n      lt\n        /* \"#utility.yul\":7725:7838   */\n      iszero\n      tag_152\n      jumpi\n        /* \"#utility.yul\":7824:7825   */\n      dup1\n        /* \"#utility.yul\":7819:7822   */\n      dup3\n        /* \"#utility.yul\":7815:7826   */\n      add\n        /* \"#utility.yul\":7809:7827   */\n      mload\n        /* \"#utility.yul\":7805:7806   */\n      dup2\n        /* \"#utility.yul\":7800:7803   */\n      dup5\n        /* \"#utility.yul\":7796:7807   */\n      add\n        /* \"#utility.yul\":7789:7828   */\n      mstore\n        /* \"#utility.yul\":7761:7763   */\n      0x20\n        /* \"#utility.yul\":7758:7759   */\n      dup2\n        /* \"#utility.yul\":7754:7764   */\n      add\n        /* \"#utility.yul\":7749:7764   */\n      swap1\n      pop\n        /* \"#utility.yul\":7725:7838   */\n      jump(tag_150)\n    tag_152:\n        /* \"#utility.yul\":7856:7862   */\n      dup4\n        /* \"#utility.yul\":7853:7854   */\n      dup2\n        /* \"#utility.yul\":7850:7863   */\n      gt\n        /* \"#utility.yul\":7847:7948   */\n      iszero\n      tag_153\n      jumpi\n        /* \"#utility.yul\":7936:7937   */\n      0x00\n        /* \"#utility.yul\":7927:7933   */\n      dup5\n        /* \"#utility.yul\":7922:7925   */\n      dup5\n        /* \"#utility.yul\":7918:7934   */\n      add\n        /* \"#utility.yul\":7911:7938   */\n      mstore\n        /* \"#utility.yul\":7847:7948   */\n    tag_153:\n        /* \"#utility.yul\":7696:7954   */\n      pop\n        /* \"#utility.yul\":7647:7954   */\n      pop\n      pop\n      pop\n      jump\t// out\n        /* \"#utility.yul\":7960:8241   */\n    tag_125:\n        /* \"#utility.yul\":8043:8070   */\n      tag_155\n        /* \"#utility.yul\":8065:8069   */\n      dup3\n        /* \"#utility.yul\":8043:8070   */\n      tag_111\n      jump\t// in\n    tag_155:\n        /* \"#utility.yul\":8035:8041   */\n      dup2\n        /* \"#utility.yul\":8031:8071   */\n      add\n        /* \"#utility.yul\":8173:8179   */\n      dup2\n        /* \"#utility.yul\":8161:8171   */\n      dup2\n        /* \"#utility.yul\":8158:8180   */\n      lt\n        /* \"#utility.yul\":8137:8155   */\n      0xffffffffffffffff\n        /* \"#utility.yul\":8125:8135   */\n      dup3\n        /* \"#utility.yul\":8122:8156   */\n      gt\n        /* \"#utility.yul\":8119:8181   */\n      or\n        /* \"#utility.yul\":8116:8204   */\n      iszero\n      tag_156\n      jumpi\n        /* \"#utility.yul\":8184:8202   */\n      tag_157\n      tag_130\n      jump\t// in\n    tag_157:\n        /* \"#utility.yul\":8116:8204   */\n    tag_156:\n        /* \"#utility.yul\":8224:8234   */\n      dup1\n        /* \"#utility.yul\":8220:8222   */\n      0x40\n        /* \"#utility.yul\":8213:8235   */\n      mstore\n        /* \"#utility.yul\":8003:8241   */\n      pop\n        /* \"#utility.yul\":7960:8241   */\n      pop\n      pop\n      jump\t// out\n        /* \"#utility.yul\":8247:8427   */\n    tag_139:\n        /* \"#utility.yul\":8295:8372   */\n      0x4e487b7100000000000000000000000000000000000000000000000000000000\n        /* \"#utility.yul\":8292:8293   */\n      0x00\n        /* \"#utility.yul\":8285:8373   */\n      mstore\n        /* \"#utility.yul\":8392:8396   */\n      0x11\n        /* \"#utility.yul\":8389:8390   */\n      0x04\n        /* \"#utility.yul\":8382:8397   */\n      mstore\n        /* \"#utility.yul\":8416:8420   */\n      0x24\n        /* \"#utility.yul\":8413:8414   */\n      0x00\n        /* \"#utility.yul\":8406:8421   */\n      revert\n        /* \"#utility.yul\":8433:8613   */\n    tag_130:\n        /* \"#utility.yul\":8481:8558   */\n      0x4e487b7100000000000000000000000000000000000000000000000000000000\n        /* \"#utility.yul\":8478:8479   */\n      0x00\n        /* \"#utility.yul\":8471:8559   */\n      mstore\n        /* \"#utility.yul\":8578:8582   */\n      0x41\n        /* \"#utility.yul\":8575:8576   */\n      0x04\n        /* \"#utility.yul\":8568:8583   */\n      mstore\n        /* \"#utility.yul\":8602:8606   */\n      0x24\n        /* \"#utility.yul\":8599:8600   */\n      0x00\n        /* \"#utility.yul\":8592:8607   */\n      revert\n        /* \"#utility.yul\":8619:8736   */\n    tag_56:\n        /* \"#utility.yul\":8728:8729   */\n      0x00\n        /* \"#utility.yul\":8725:8726   */\n      dup1\n        /* \"#utility.yul\":8718:8730   */\n      revert\n        /* \"#utility.yul\":8742:8859   */\n    tag_53:\n        /* \"#utility.yul\":8851:8852   */\n      0x00\n        /* \"#utility.yul\":8848:8849   */\n      dup1\n        /* \"#utility.yul\":8841:8853   */\n      revert\n        /* \"#utility.yul\":8865:8982   */\n    tag_69:\n        /* \"#utility.yul\":8974:8975   */\n      0x00\n        /* \"#utility.yul\":8971:8972   */\n      dup1\n        /* \"#utility.yul\":8964:8976   */\n      revert\n        /* \"#utility.yul\":8988:9105   */\n    tag_75:\n        /* \"#utility.yul\":9097:9098   */\n      0x00\n        /* \"#utility.yul\":9094:9095   */\n      dup1\n        /* \"#utility.yul\":9087:9099   */\n      revert\n        /* \"#utility.yul\":9111:9228   */\n    tag_59:\n        /* \"#utility.yul\":9220:9221   */\n      0x00\n        /* \"#utility.yul\":9217:9218   */\n      dup1\n        /* \"#utility.yul\":9210:9222   */\n      revert\n        /* \"#utility.yul\":9234:9351   */\n    tag_42:\n        /* \"#utility.yul\":9343:9344   */\n      0x00\n        /* \"#utility.yul\":9340:9341   */\n      dup1\n        /* \"#utility.yul\":9333:9345   */\n      revert\n        /* \"#utility.yul\":9357:9474   */\n    tag_91:\n        /* \"#utility.yul\":9466:9467   */\n      0x00\n        /* \"#utility.yul\":9463:9464   */\n      dup1\n        /* \"#utility.yul\":9456:9468   */\n      revert\n        /* \"#utility.yul\":9480:9597   */\n    tag_88:\n        /* \"#utility.yul\":9589:9590   */\n      0x00\n        /* \"#utility.yul\":9586:9587   */\n      dup1\n        /* \"#utility.yul\":9579:9591   */\n      revert\n        /* \"#utility.yul\":9603:9705   */\n    tag_111:\n        /* \"#utility.yul\":9644:9650   */\n      0x00\n        /* \"#utility.yul\":9695:9697   */\n      0x1f\n        /* \"#utility.yul\":9691:9698   */\n      not\n        /* \"#utility.yul\":9686:9688   */\n      0x1f\n        /* \"#utility.yul\":9679:9684   */\n      dup4\n        /* \"#utility.yul\":9675:9689   */\n      add\n        /* \"#utility.yul\":9671:9699   */\n      and\n        /* \"#utility.yul\":9661:9699   */\n      swap1\n      pop\n        /* \"#utility.yul\":9603:9705   */\n      swap2\n      swap1\n      pop\n      jump\t// out\n        /* \"#utility.yul\":9711:9827   */\n    tag_48:\n        /* \"#utility.yul\":9781:9802   */\n      tag_170\n        /* \"#utility.yul\":9796:9801   */\n      dup2\n        /* \"#utility.yul\":9781:9802   */\n      tag_145\n      jump\t// in\n    tag_170:\n        /* \"#utility.yul\":9774:9779   */\n      dup2\n        /* \"#utility.yul\":9771:9803   */\n      eq\n        /* \"#utility.yul\":9761:9821   */\n      tag_171\n      jumpi\n        /* \"#utility.yul\":9817:9818   */\n      0x00\n        /* \"#utility.yul\":9814:9815   */\n      dup1\n        /* \"#utility.yul\":9807:9819   */\n      revert\n        /* \"#utility.yul\":9761:9821   */\n    tag_171:\n        /* \"#utility.yul\":9711:9827   */\n      pop\n      jump\t// out\n        /* \"#utility.yul\":9833:9955   */\n    tag_84:\n        /* \"#utility.yul\":9906:9930   */\n      tag_173\n        /* \"#utility.yul\":9924:9929   */\n      dup2\n        /* \"#utility.yul\":9906:9930   */\n      tag_115\n      jump\t// in\n    tag_173:\n        /* \"#utility.yul\":9899:9904   */\n      dup2\n        /* \"#utility.yul\":9896:9931   */\n      eq\n        /* \"#utility.yul\":9886:9949   */\n      tag_174\n      jumpi\n        /* \"#utility.yul\":9945:9946   */\n      0x00\n        /* \"#utility.yul\":9942:9943   */\n      dup1\n        /* \"#utility.yul\":9935:9947   */\n      revert\n        /* \"#utility.yul\":9886:9949   */\n    tag_174:\n        /* \"#utility.yul\":9833:9955   */\n      pop\n      jump\t// out\n\n    auxdata: 0xa2646970667358221220933713f88aa2c87cc93b4bd883a3455cb66f382b3a8ba34df7d3dbccccb033bf64736f6c63430008070033\n}\n",
				"bytecode": {
					"linkReferences": {},
					"object": "608060405234801561001057600080fd5b50610861806100206000396000f3fe608060405234801561001057600080fd5b50600436106100365760003560e01c8063344d2d4a1461003b578063614d8f6014610057575b600080fd5b61005560048036038101906100509190610476565b610073565b005b610071600480360381019061006c91906104fe565b610139565b005b6000806000805490501461009857600160008054905061009391906106a9565b61009f565b6000805490505b905060006040518060e0016040528083815260200188888080601f016020809104026020016040519081016040528093929190818152602001838380828437600081840152601f19601f8201169050808301925050505050505081526020018615158152602001851515815260200184151581526020014281526020016203f4804261012b9190610653565b815250905050505050505050565b60001515816040015115151415610186577fd53ecb21746e36da81ddab5bdcf35c93b4e7adb500e38a0ce440f729de177ac5816020015160405161017d919061058f565b60405180910390a15b600015158160600151151514156101d3577fd53ecb21746e36da81ddab5bdcf35c93b4e7adb500e38a0ce440f729de177ac581602001516040516101ca919061058f565b60405180910390a15b60001515816080015115151415610220577fd53ecb21746e36da81ddab5bdcf35c93b4e7adb500e38a0ce440f729de177ac58160200151604051610217919061058f565b60405180910390a15b426203f4808260a001516102349190610653565b1115610276577fd53ecb21746e36da81ddab5bdcf35c93b4e7adb500e38a0ce440f729de177ac5816020015160405161026d919061058f565b60405180910390a15b7f6fd4822621c89040f0ea90264351e7f95d334eb76155286b2c1b6732331ff93c8160200151426040516102ab9291906105b1565b60405180910390a150565b60006102c96102c484610606565b6105e1565b9050828152602081018484840111156102e5576102e46107dd565b5b6102f08482856106f3565b509392505050565b600081359050610307816107fd565b92915050565b60008083601f840112610323576103226107c9565b5b8235905067ffffffffffffffff8111156103405761033f6107c4565b5b60208301915083600182028301111561035c5761035b6107d8565b5b9250929050565b600082601f830112610378576103776107c9565b5b81356103888482602086016102b6565b91505092915050565b600060e082840312156103a7576103a66107ce565b5b6103b160e06105e1565b905060006103c184828501610461565b600083015250602082013567ffffffffffffffff8111156103e5576103e46107d3565b5b6103f184828501610363565b6020830152506040610405848285016102f8565b6040830152506060610419848285016102f8565b606083015250608061042d848285016102f8565b60808301525060a061044184828501610461565b60a08301525060c061045584828501610461565b60c08301525092915050565b60008135905061047081610814565b92915050565b600080600080600060808688031215610492576104916107e7565b5b600086013567ffffffffffffffff8111156104b0576104af6107e2565b5b6104bc8882890161030d565b955095505060206104cf888289016102f8565b93505060406104e0888289016102f8565b92505060606104f1888289016102f8565b9150509295509295909350565b600060208284031215610514576105136107e7565b5b600082013567ffffffffffffffff811115610532576105316107e2565b5b61053e84828501610391565b91505092915050565b600061055282610637565b61055c8185610642565b935061056c818560208601610702565b610575816107ec565b840191505092915050565b610589816106e9565b82525050565b600060208201905081810360008301526105a98184610547565b905092915050565b600060408201905081810360008301526105cb8185610547565b90506105da6020830184610580565b9392505050565b60006105eb6105fc565b90506105f78282610735565b919050565b6000604051905090565b600067ffffffffffffffff82111561062157610620610795565b5b61062a826107ec565b9050602081019050919050565b600081519050919050565b600082825260208201905092915050565b600061065e826106e9565b9150610669836106e9565b9250827fffffffffffffffffffffffffffffffffffffffffffffffffffffffffffffffff0382111561069e5761069d610766565b5b828201905092915050565b60006106b4826106e9565b91506106bf836106e9565b9250828210156106d2576106d1610766565b5b828203905092915050565b60008115159050919050565b6000819050919050565b82818337600083830152505050565b60005b83811015610720578082015181840152602081019050610705565b8381111561072f576000848401525b50505050565b61073e826107ec565b810181811067ffffffffffffffff8211171561075d5761075c610795565b5b80604052505050565b7f4e487b7100000000000000000000000000000000000000000000000000000000600052601160045260246000fd5b7f4e487b7100000000000000000000000000000000000000000000000000000000600052604160045260246000fd5b600080fd5b600080fd5b600080fd5b600080fd5b600080fd5b600080fd5b600080fd5b600080fd5b6000601f19601f8301169050919050565b610806816106dd565b811461081157600080fd5b50565b61081d816106e9565b811461082857600080fd5b5056fea2646970667358221220933713f88aa2c87cc93b4bd883a3455cb66f382b3a8ba34df7d3dbccccb033bf64736f6c63430008070033",
					"opcodes": "PUSH1 0x80 PUSH1 0x40 MSTORE CALLVALUE DUP1 ISZERO PUSH2 0x10 JUMPI PUSH1 0x0 DUP1 REVERT JUMPDEST POP PUSH2 0x861 DUP1 PUSH2 0x20 PUSH1 0x0 CODECOPY PUSH1 0x0 RETURN INVALID PUSH1 0x80 PUSH1 0x40 MSTORE CALLVALUE DUP1 ISZERO PUSH2 0x10 JUMPI PUSH1 0x0 DUP1 REVERT JUMPDEST POP PUSH1 0x4 CALLDATASIZE LT PUSH2 0x36 JUMPI PUSH1 0x0 CALLDATALOAD PUSH1 0xE0 SHR DUP1 PUSH4 0x344D2D4A EQ PUSH2 0x3B JUMPI DUP1 PUSH4 0x614D8F60 EQ PUSH2 0x57 JUMPI JUMPDEST PUSH1 0x0 DUP1 REVERT JUMPDEST PUSH2 0x55 PUSH1 0x4 DUP1 CALLDATASIZE SUB DUP2 ADD SWAP1 PUSH2 0x50 SWAP2 SWAP1 PUSH2 0x476 JUMP JUMPDEST PUSH2 0x73 JUMP JUMPDEST STOP JUMPDEST PUSH2 0x71 PUSH1 0x4 DUP1 CALLDATASIZE SUB DUP2 ADD SWAP1 PUSH2 0x6C SWAP2 SWAP1 PUSH2 0x4FE JUMP JUMPDEST PUSH2 0x139 JUMP JUMPDEST STOP JUMPDEST PUSH1 0x0 DUP1 PUSH1 0x0 DUP1 SLOAD SWAP1 POP EQ PUSH2 0x98 JUMPI PUSH1 0x1 PUSH1 0x0 DUP1 SLOAD SWAP1 POP PUSH2 0x93 SWAP2 SWAP1 PUSH2 0x6A9 JUMP JUMPDEST PUSH2 0x9F JUMP JUMPDEST PUSH1 0x0 DUP1 SLOAD SWAP1 POP JUMPDEST SWAP1 POP PUSH1 0x0 PUSH1 0x40 MLOAD DUP1 PUSH1 0xE0 ADD PUSH1 0x40 MSTORE DUP1 DUP4 DUP2 MSTORE PUSH1 0x20 ADD DUP9 DUP9 DUP1 DUP1 PUSH1 0x1F ADD PUSH1 0x20 DUP1 SWAP2 DIV MUL PUSH1 0x20 ADD PUSH1 0x40 MLOAD SWAP1 DUP2 ADD PUSH1 0x40 MSTORE DUP1 SWAP4 SWAP3 SWAP2 SWAP1 DUP2 DUP2 MSTORE PUSH1 0x20 ADD DUP4 DUP4 DUP1 DUP3 DUP5 CALLDATACOPY PUSH1 0x0 DUP2 DUP5 ADD MSTORE PUSH1 0x1F NOT PUSH1 0x1F DUP3 ADD AND SWAP1 POP DUP1 DUP4 ADD SWAP3 POP POP POP POP POP POP POP DUP2 MSTORE PUSH1 0x20 ADD DUP7 ISZERO ISZERO DUP2 MSTORE PUSH1 0x20 ADD DUP6 ISZERO ISZERO DUP2 MSTORE PUSH1 0x20 ADD DUP5 ISZERO ISZERO DUP2 MSTORE PUSH1 0x20 ADD TIMESTAMP DUP2 MSTORE PUSH1 0x20 ADD PUSH3 0x3F480 TIMESTAMP PUSH2 0x12B SWAP2 SWAP1 PUSH2 0x653 JUMP JUMPDEST DUP2 MSTORE POP SWAP1 POP POP POP POP POP POP POP POP JUMP JUMPDEST PUSH1 0x0 ISZERO ISZERO DUP2 PUSH1 0x40 ADD MLOAD ISZERO ISZERO EQ ISZERO PUSH2 0x186 JUMPI PUSH32 0xD53ECB21746E36DA81DDAB5BDCF35C93B4E7ADB500E38A0CE440F729DE177AC5 DUP2 PUSH1 0x20 ADD MLOAD PUSH1 0x40 MLOAD PUSH2 0x17D SWAP2 SWAP1 PUSH2 0x58F JUMP JUMPDEST PUSH1 0x40 MLOAD DUP1 SWAP2 SUB SWAP1 LOG1 JUMPDEST PUSH1 0x0 ISZERO ISZERO DUP2 PUSH1 0x60 ADD MLOAD ISZERO ISZERO EQ ISZERO PUSH2 0x1D3 JUMPI PUSH32 0xD53ECB21746E36DA81DDAB5BDCF35C93B4E7ADB500E38A0CE440F729DE177AC5 DUP2 PUSH1 0x20 ADD MLOAD PUSH1 0x40 MLOAD PUSH2 0x1CA SWAP2 SWAP1 PUSH2 0x58F JUMP JUMPDEST PUSH1 0x40 MLOAD DUP1 SWAP2 SUB SWAP1 LOG1 JUMPDEST PUSH1 0x0 ISZERO ISZERO DUP2 PUSH1 0x80 ADD MLOAD ISZERO ISZERO EQ ISZERO PUSH2 0x220 JUMPI PUSH32 0xD53ECB21746E36DA81DDAB5BDCF35C93B4E7ADB500E38A0CE440F729DE177AC5 DUP2 PUSH1 0x20 ADD MLOAD PUSH1 0x40 MLOAD PUSH2 0x217 SWAP2 SWAP1 PUSH2 0x58F JUMP JUMPDEST PUSH1 0x40 MLOAD DUP1 SWAP2 SUB SWAP1 LOG1 JUMPDEST TIMESTAMP PUSH3 0x3F480 DUP3 PUSH1 0xA0 ADD MLOAD PUSH2 0x234 SWAP2 SWAP1 PUSH2 0x653 JUMP JUMPDEST GT ISZERO PUSH2 0x276 JUMPI PUSH32 0xD53ECB21746E36DA81DDAB5BDCF35C93B4E7ADB500E38A0CE440F729DE177AC5 DUP2 PUSH1 0x20 ADD MLOAD PUSH1 0x40 MLOAD PUSH2 0x26D SWAP2 SWAP1 PUSH2 0x58F JUMP JUMPDEST PUSH1 0x40 MLOAD DUP1 SWAP2 SUB SWAP1 LOG1 JUMPDEST PUSH32 0x6FD4822621C89040F0EA90264351E7F95D334EB76155286B2C1B6732331FF93C DUP2 PUSH1 0x20 ADD MLOAD TIMESTAMP PUSH1 0x40 MLOAD PUSH2 0x2AB SWAP3 SWAP2 SWAP1 PUSH2 0x5B1 JUMP JUMPDEST PUSH1 0x40 MLOAD DUP1 SWAP2 SUB SWAP1 LOG1 POP JUMP JUMPDEST PUSH1 0x0 PUSH2 0x2C9 PUSH2 0x2C4 DUP5 PUSH2 0x606 JUMP JUMPDEST PUSH2 0x5E1 JUMP JUMPDEST SWAP1 POP DUP3 DUP2 MSTORE PUSH1 0x20 DUP2 ADD DUP5 DUP5 DUP5 ADD GT ISZERO PUSH2 0x2E5 JUMPI PUSH2 0x2E4 PUSH2 0x7DD JUMP JUMPDEST JUMPDEST PUSH2 0x2F0 DUP5 DUP3 DUP6 PUSH2 0x6F3 JUMP JUMPDEST POP SWAP4 SWAP3 POP POP POP JUMP JUMPDEST PUSH1 0x0 DUP2 CALLDATALOAD SWAP1 POP PUSH2 0x307 DUP2 PUSH2 0x7FD JUMP JUMPDEST SWAP3 SWAP2 POP POP JUMP JUMPDEST PUSH1 0x0 DUP1 DUP4 PUSH1 0x1F DUP5 ADD SLT PUSH2 0x323 JUMPI PUSH2 0x322 PUSH2 0x7C9 JUMP JUMPDEST JUMPDEST DUP3 CALLDATALOAD SWAP1 POP PUSH8 0xFFFFFFFFFFFFFFFF DUP2 GT ISZERO PUSH2 0x340 JUMPI PUSH2 0x33F PUSH2 0x7C4 JUMP JUMPDEST JUMPDEST PUSH1 0x20 DUP4 ADD SWAP2 POP DUP4 PUSH1 0x1 DUP3 MUL DUP4 ADD GT ISZERO PUSH2 0x35C JUMPI PUSH2 0x35B PUSH2 0x7D8 JUMP JUMPDEST JUMPDEST SWAP3 POP SWAP3 SWAP1 POP JUMP JUMPDEST PUSH1 0x0 DUP3 PUSH1 0x1F DUP4 ADD SLT PUSH2 0x378 JUMPI PUSH2 0x377 PUSH2 0x7C9 JUMP JUMPDEST JUMPDEST DUP2 CALLDATALOAD PUSH2 0x388 DUP5 DUP3 PUSH1 0x20 DUP7 ADD PUSH2 0x2B6 JUMP JUMPDEST SWAP2 POP POP SWAP3 SWAP2 POP POP JUMP JUMPDEST PUSH1 0x0 PUSH1 0xE0 DUP3 DUP5 SUB SLT ISZERO PUSH2 0x3A7 JUMPI PUSH2 0x3A6 PUSH2 0x7CE JUMP JUMPDEST JUMPDEST PUSH2 0x3B1 PUSH1 0xE0 PUSH2 0x5E1 JUMP JUMPDEST SWAP1 POP PUSH1 0x0 PUSH2 0x3C1 DUP5 DUP3 DUP6 ADD PUSH2 0x461 JUMP JUMPDEST PUSH1 0x0 DUP4 ADD MSTORE POP PUSH1 0x20 DUP3 ADD CALLDATALOAD PUSH8 0xFFFFFFFFFFFFFFFF DUP2 GT ISZERO PUSH2 0x3E5 JUMPI PUSH2 0x3E4 PUSH2 0x7D3 JUMP JUMPDEST JUMPDEST PUSH2 0x3F1 DUP5 DUP3 DUP6 ADD PUSH2 0x363 JUMP JUMPDEST PUSH1 0x20 DUP4 ADD MSTORE POP PUSH1 0x40 PUSH2 0x405 DUP5 DUP3 DUP6 ADD PUSH2 0x2F8 JUMP JUMPDEST PUSH1 0x40 DUP4 ADD MSTORE POP PUSH1 0x60 PUSH2 0x419 DUP5 DUP3 DUP6 ADD PUSH2 0x2F8 JUMP JUMPDEST PUSH1 0x60 DUP4 ADD MSTORE POP PUSH1 0x80 PUSH2 0x42D DUP5 DUP3 DUP6 ADD PUSH2 0x2F8 JUMP JUMPDEST PUSH1 0x80 DUP4 ADD MSTORE POP PUSH1 0xA0 PUSH2 0x441 DUP5 DUP3 DUP6 ADD PUSH2 0x461 JUMP JUMPDEST PUSH1 0xA0 DUP4 ADD MSTORE POP PUSH1 0xC0 PUSH2 0x455 DUP5 DUP3 DUP6 ADD PUSH2 0x461 JUMP JUMPDEST PUSH1 0xC0 DUP4 ADD MSTORE POP SWAP3 SWAP2 POP POP JUMP JUMPDEST PUSH1 0x0 DUP2 CALLDATALOAD SWAP1 POP PUSH2 0x470 DUP2 PUSH2 0x814 JUMP JUMPDEST SWAP3 SWAP2 POP POP JUMP JUMPDEST PUSH1 0x0 DUP1 PUSH1 0x0 DUP1 PUSH1 0x0 PUSH1 0x80 DUP7 DUP9 SUB SLT ISZERO PUSH2 0x492 JUMPI PUSH2 0x491 PUSH2 0x7E7 JUMP JUMPDEST JUMPDEST PUSH1 0x0 DUP7 ADD CALLDATALOAD PUSH8 0xFFFFFFFFFFFFFFFF DUP2 GT ISZERO PUSH2 0x4B0 JUMPI PUSH2 0x4AF PUSH2 0x7E2 JUMP JUMPDEST JUMPDEST PUSH2 0x4BC DUP9 DUP3 DUP10 ADD PUSH2 0x30D JUMP JUMPDEST SWAP6 POP SWAP6 POP POP PUSH1 0x20 PUSH2 0x4CF DUP9 DUP3 DUP10 ADD PUSH2 0x2F8 JUMP JUMPDEST SWAP4 POP POP PUSH1 0x40 PUSH2 0x4E0 DUP9 DUP3 DUP10 ADD PUSH2 0x2F8 JUMP JUMPDEST SWAP3 POP POP PUSH1 0x60 PUSH2 0x4F1 DUP9 DUP3 DUP10 ADD PUSH2 0x2F8 JUMP JUMPDEST SWAP2 POP POP SWAP3 SWAP6 POP SWAP3 SWAP6 SWAP1 SWAP4 POP JUMP JUMPDEST PUSH1 0x0 PUSH1 0x20 DUP3 DUP5 SUB SLT ISZERO PUSH2 0x514 JUMPI PUSH2 0x513 PUSH2 0x7E7 JUMP JUMPDEST JUMPDEST PUSH1 0x0 DUP3 ADD CALLDATALOAD PUSH8 0xFFFFFFFFFFFFFFFF DUP2 GT ISZERO PUSH2 0x532 JUMPI PUSH2 0x531 PUSH2 0x7E2 JUMP JUMPDEST JUMPDEST PUSH2 0x53E DUP5 DUP3 DUP6 ADD PUSH2 0x391 JUMP JUMPDEST SWAP2 POP POP SWAP3 SWAP2 POP POP JUMP JUMPDEST PUSH1 0x0 PUSH2 0x552 DUP3 PUSH2 0x637 JUMP JUMPDEST PUSH2 0x55C DUP2 DUP6 PUSH2 0x642 JUMP JUMPDEST SWAP4 POP PUSH2 0x56C DUP2 DUP6 PUSH1 0x20 DUP7 ADD PUSH2 0x702 JUMP JUMPDEST PUSH2 0x575 DUP2 PUSH2 0x7EC JUMP JUMPDEST DUP5 ADD SWAP2 POP POP SWAP3 SWAP2 POP POP JUMP JUMPDEST PUSH2 0x589 DUP2 PUSH2 0x6E9 JUMP JUMPDEST DUP3 MSTORE POP POP JUMP JUMPDEST PUSH1 0x0 PUSH1 0x20 DUP3 ADD SWAP1 POP DUP2 DUP2 SUB PUSH1 0x0 DUP4 ADD MSTORE PUSH2 0x5A9 DUP2 DUP5 PUSH2 0x547 JUMP JUMPDEST SWAP1 POP SWAP3 SWAP2 POP POP JUMP JUMPDEST PUSH1 0x0 PUSH1 0x40 DUP3 ADD SWAP1 POP DUP2 DUP2 SUB PUSH1 0x0 DUP4 ADD MSTORE PUSH2 0x5CB DUP2 DUP6 PUSH2 0x547 JUMP JUMPDEST SWAP1 POP PUSH2 0x5DA PUSH1 0x20 DUP4 ADD DUP5 PUSH2 0x580 JUMP JUMPDEST SWAP4 SWAP3 POP POP POP JUMP JUMPDEST PUSH1 0x0 PUSH2 0x5EB PUSH2 0x5FC JUMP JUMPDEST SWAP1 POP PUSH2 0x5F7 DUP3 DUP3 PUSH2 0x735 JUMP JUMPDEST SWAP2 SWAP1 POP JUMP JUMPDEST PUSH1 0x0 PUSH1 0x40 MLOAD SWAP1 POP SWAP1 JUMP JUMPDEST PUSH1 0x0 PUSH8 0xFFFFFFFFFFFFFFFF DUP3 GT ISZERO PUSH2 0x621 JUMPI PUSH2 0x620 PUSH2 0x795 JUMP JUMPDEST JUMPDEST PUSH2 0x62A DUP3 PUSH2 0x7EC JUMP JUMPDEST SWAP1 POP PUSH1 0x20 DUP2 ADD SWAP1 POP SWAP2 SWAP1 POP JUMP JUMPDEST PUSH1 0x0 DUP2 MLOAD SWAP1 POP SWAP2 SWAP1 POP JUMP JUMPDEST PUSH1 0x0 DUP3 DUP3 MSTORE PUSH1 0x20 DUP3 ADD SWAP1 POP SWAP3 SWAP2 POP POP JUMP JUMPDEST PUSH1 0x0 PUSH2 0x65E DUP3 PUSH2 0x6E9 JUMP JUMPDEST SWAP2 POP PUSH2 0x669 DUP4 PUSH2 0x6E9 JUMP JUMPDEST SWAP3 POP DUP3 PUSH32 0xFFFFFFFFFFFFFFFFFFFFFFFFFFFFFFFFFFFFFFFFFFFFFFFFFFFFFFFFFFFFFFFF SUB DUP3 GT ISZERO PUSH2 0x69E JUMPI PUSH2 0x69D PUSH2 0x766 JUMP JUMPDEST JUMPDEST DUP3 DUP3 ADD SWAP1 POP SWAP3 SWAP2 POP POP JUMP JUMPDEST PUSH1 0x0 PUSH2 0x6B4 DUP3 PUSH2 0x6E9 JUMP JUMPDEST SWAP2 POP PUSH2 0x6BF DUP4 PUSH2 0x6E9 JUMP JUMPDEST SWAP3 POP DUP3 DUP3 LT ISZERO PUSH2 0x6D2 JUMPI PUSH2 0x6D1 PUSH2 0x766 JUMP JUMPDEST JUMPDEST DUP3 DUP3 SUB SWAP1 POP SWAP3 SWAP2 POP POP JUMP JUMPDEST PUSH1 0x0 DUP2 ISZERO ISZERO SWAP1 POP SWAP2 SWAP1 POP JUMP JUMPDEST PUSH1 0x0 DUP2 SWAP1 POP SWAP2 SWAP1 POP JUMP JUMPDEST DUP3 DUP2 DUP4 CALLDATACOPY PUSH1 0x0 DUP4 DUP4 ADD MSTORE POP POP POP JUMP JUMPDEST PUSH1 0x0 JUMPDEST DUP4 DUP2 LT ISZERO PUSH2 0x720 JUMPI DUP1 DUP3 ADD MLOAD DUP2 DUP5 ADD MSTORE PUSH1 0x20 DUP2 ADD SWAP1 POP PUSH2 0x705 JUMP JUMPDEST DUP4 DUP2 GT ISZERO PUSH2 0x72F JUMPI PUSH1 0x0 DUP5 DUP5 ADD MSTORE JUMPDEST POP POP POP POP JUMP JUMPDEST PUSH2 0x73E DUP3 PUSH2 0x7EC JUMP JUMPDEST DUP2 ADD DUP2 DUP2 LT PUSH8 0xFFFFFFFFFFFFFFFF DUP3 GT OR ISZERO PUSH2 0x75D JUMPI PUSH2 0x75C PUSH2 0x795 JUMP JUMPDEST JUMPDEST DUP1 PUSH1 0x40 MSTORE POP POP POP JUMP JUMPDEST PUSH32 0x4E487B7100000000000000000000000000000000000000000000000000000000 PUSH1 0x0 MSTORE PUSH1 0x11 PUSH1 0x4 MSTORE PUSH1 0x24 PUSH1 0x0 REVERT JUMPDEST PUSH32 0x4E487B7100000000000000000000000000000000000000000000000000000000 PUSH1 0x0 MSTORE PUSH1 0x41 PUSH1 0x4 MSTORE PUSH1 0x24 PUSH1 0x0 REVERT JUMPDEST PUSH1 0x0 DUP1 REVERT JUMPDEST PUSH1 0x0 DUP1 REVERT JUMPDEST PUSH1 0x0 DUP1 REVERT JUMPDEST PUSH1 0x0 DUP1 REVERT JUMPDEST PUSH1 0x0 DUP1 REVERT JUMPDEST PUSH1 0x0 DUP1 REVERT JUMPDEST PUSH1 0x0 DUP1 REVERT JUMPDEST PUSH1 0x0 DUP1 REVERT JUMPDEST PUSH1 0x0 PUSH1 0x1F NOT PUSH1 0x1F DUP4 ADD AND SWAP1 POP SWAP2 SWAP1 POP JUMP JUMPDEST PUSH2 0x806 DUP2 PUSH2 0x6DD JUMP JUMPDEST DUP2 EQ PUSH2 0x811 JUMPI PUSH1 0x0 DUP1 REVERT JUMPDEST POP JUMP JUMPDEST PUSH2 0x81D DUP2 PUSH2 0x6E9 JUMP JUMPDEST DUP2 EQ PUSH2 0x828 JUMPI PUSH1 0x0 DUP1 REVERT JUMPDEST POP JUMP INVALID LOG2 PUSH5 0x6970667358 0x22 SLT KECCAK256 SWAP4 CALLDATACOPY SGT 0xF8 DUP11 LOG2 0xC8 PUSH29 0xC93B4BD883A3455CB66F382B3A8BA34DF7D3DBCCCCB033BF64736F6C63 NUMBER STOP ADDMOD SMOD STOP CALLER "
				},
				"gasEstimates": {
					"creation": {
						"codeDepositCost": "429000",
						"executionCost": "468",
						"totalCost": "429468"
					},
					"external": {
						"addStudent(string,bool,bool,bool)": "infinite",
						"debtsAreDone((uint256,string,bool,bool,bool,uint256,uint256))": "infinite"
					}
				},
				"methodIdentifiers": {
					"addStudent(string,bool,bool,bool)": "344d2d4a",
					"debtsAreDone((uint256,string,bool,bool,bool,uint256,uint256))": "614d8f60"
				}
			},
			"storageLayout": {
				"storage": [
					{
						"astId": 23,
						"contract": "contracts/Hometask.sol:DormitoryQuest",
						"label": "students",
						"offset": 0,
						"slot": "0",
						"type": "t_array(t_struct(Student)19_storage)dyn_storage"
					}
				],
				"types": {
					"t_array(t_struct(Student)19_storage)dyn_storage": {
						"base": "t_struct(Student)19_storage",
						"encoding": "dynamic_array",
						"label": "struct DormitoryQuest.Student[]",
						"numberOfBytes": "32"
					},
					"t_bool": {
						"encoding": "inplace",
						"label": "bool",
						"numberOfBytes": "1"
					},
					"t_string_storage": {
						"encoding": "bytes",
						"label": "string",
						"numberOfBytes": "32"
					},
					"t_struct(Student)19_storage": {
						"encoding": "inplace",
						"label": "struct DormitoryQuest.Student",
						"members": [
							{
								"astId": 6,
								"contract": "contracts/Hometask.sol:DormitoryQuest",
								"label": "id",
								"offset": 0,
								"slot": "0",
								"type": "t_uint256"
							},
							{
								"astId": 8,
								"contract": "contracts/Hometask.sol:DormitoryQuest",
								"label": "fullName",
								"offset": 0,
								"slot": "1",
								"type": "t_string_storage"
							},
							{
								"astId": 10,
								"contract": "contracts/Hometask.sol:DormitoryQuest",
								"label": "sheetsDone",
								"offset": 0,
								"slot": "2",
								"type": "t_bool"
							},
							{
								"astId": 12,
								"contract": "contracts/Hometask.sol:DormitoryQuest",
								"label": "roomDone",
								"offset": 1,
								"slot": "2",
								"type": "t_bool"
							},
							{
								"astId": 14,
								"contract": "contracts/Hometask.sol:DormitoryQuest",
								"label": "booksDone",
								"offset": 2,
								"slot": "2",
								"type": "t_bool"
							},
							{
								"astId": 16,
								"contract": "contracts/Hometask.sol:DormitoryQuest",
								"label": "regDate",
								"offset": 0,
								"slot": "3",
								"type": "t_uint256"
							},
							{
								"astId": 18,
								"contract": "contracts/Hometask.sol:DormitoryQuest",
								"label": "deadlineDate",
								"offset": 0,
								"slot": "4",
								"type": "t_uint256"
							}
						],
						"numberOfBytes": "160"
					},
					"t_uint256": {
						"encoding": "inplace",
						"label": "uint256",
						"numberOfBytes": "32"
					}
				}
			},
			"userdoc": {
				"kind": "user",
				"methods": {},
				"version": 1
			}
		}
	}
}