{
	"contracts/Hometask.sol": {
		"DormitoryQuest": {
			"abi": [
				{
					"anonymous": false,
					"inputs": [
						{
							"indexed": false,
							"internalType": "string",
							"name": "name",
							"type": "string"
						},
						{
							"indexed": false,
							"internalType": "uint256",
							"name": "date",
							"type": "uint256"
						}
					],
					"name": "StudentEvicted",
					"type": "event"
				},
				{
					"anonymous": false,
					"inputs": [
						{
							"indexed": false,
							"internalType": "string",
							"name": "name",
							"type": "string"
						}
					],
					"name": "SummonsToArmyGiven",
					"type": "event"
				},
				{
					"inputs": [
						{
							"internalType": "string",
							"name": "name",
							"type": "string"
						}
					],
					"name": "addStudent",
					"outputs": [],
					"stateMutability": "nonpayable",
					"type": "function"
				}
			],
			"devdoc": {
				"kind": "dev",
				"methods": {},
				"version": 1
			},
			"evm": {
				"assembly": "    /* \"contracts/Hometask.sol\":62:1105  contract DormitoryQuest {\r... */\n  mstore(0x40, 0x80)\n  callvalue\n  dup1\n  iszero\n  tag_1\n  jumpi\n  0x00\n  dup1\n  revert\ntag_1:\n  pop\n  dataSize(sub_0)\n  dup1\n  dataOffset(sub_0)\n  0x00\n  codecopy\n  0x00\n  return\nstop\n\nsub_0: assembly {\n        /* \"contracts/Hometask.sol\":62:1105  contract DormitoryQuest {\r... */\n      mstore(0x40, 0x80)\n      callvalue\n      dup1\n      iszero\n      tag_1\n      jumpi\n      0x00\n      dup1\n      revert\n    tag_1:\n      pop\n      jumpi(tag_2, lt(calldatasize, 0x04))\n      shr(0xe0, calldataload(0x00))\n      dup1\n      0x453e056a\n      eq\n      tag_3\n      jumpi\n    tag_2:\n      0x00\n      dup1\n      revert\n        /* \"contracts/Hometask.sol\":403:454  function addStudent(string calldata name) public {} */\n    tag_3:\n      tag_4\n      0x04\n      dup1\n      calldatasize\n      sub\n      dup2\n      add\n      swap1\n      tag_5\n      swap2\n      swap1\n      tag_6\n      jump\t// in\n    tag_5:\n      tag_7\n      jump\t// in\n    tag_4:\n      stop\n    tag_7:\n      pop\n      pop\n      jump\t// out\n        /* \"#utility.yul\":21:574   */\n    tag_10:\n        /* \"#utility.yul\":79:87   */\n      0x00\n        /* \"#utility.yul\":89:95   */\n      dup1\n        /* \"#utility.yul\":139:142   */\n      dup4\n        /* \"#utility.yul\":132:136   */\n      0x1f\n        /* \"#utility.yul\":124:130   */\n      dup5\n        /* \"#utility.yul\":120:137   */\n      add\n        /* \"#utility.yul\":116:143   */\n      slt\n        /* \"#utility.yul\":106:228   */\n      tag_12\n      jumpi\n        /* \"#utility.yul\":147:226   */\n      tag_13\n      tag_14\n      jump\t// in\n    tag_13:\n        /* \"#utility.yul\":106:228   */\n    tag_12:\n        /* \"#utility.yul\":260:266   */\n      dup3\n        /* \"#utility.yul\":247:267   */\n      calldataload\n        /* \"#utility.yul\":237:267   */\n      swap1\n      pop\n        /* \"#utility.yul\":290:308   */\n      0xffffffffffffffff\n        /* \"#utility.yul\":282:288   */\n      dup2\n        /* \"#utility.yul\":279:309   */\n      gt\n        /* \"#utility.yul\":276:393   */\n      iszero\n      tag_15\n      jumpi\n        /* \"#utility.yul\":312:391   */\n      tag_16\n      tag_17\n      jump\t// in\n    tag_16:\n        /* \"#utility.yul\":276:393   */\n    tag_15:\n        /* \"#utility.yul\":426:430   */\n      0x20\n        /* \"#utility.yul\":418:424   */\n      dup4\n        /* \"#utility.yul\":414:431   */\n      add\n        /* \"#utility.yul\":402:431   */\n      swap2\n      pop\n        /* \"#utility.yul\":480:483   */\n      dup4\n        /* \"#utility.yul\":472:476   */\n      0x01\n        /* \"#utility.yul\":464:470   */\n      dup3\n        /* \"#utility.yul\":460:477   */\n      mul\n        /* \"#utility.yul\":450:458   */\n      dup4\n        /* \"#utility.yul\":446:478   */\n      add\n        /* \"#utility.yul\":443:484   */\n      gt\n        /* \"#utility.yul\":440:568   */\n      iszero\n      tag_18\n      jumpi\n        /* \"#utility.yul\":487:566   */\n      tag_19\n      tag_20\n      jump\t// in\n    tag_19:\n        /* \"#utility.yul\":440:568   */\n    tag_18:\n        /* \"#utility.yul\":21:574   */\n      swap3\n      pop\n      swap3\n      swap1\n      pop\n      jump\t// out\n        /* \"#utility.yul\":580:1109   */\n    tag_6:\n        /* \"#utility.yul\":651:657   */\n      0x00\n        /* \"#utility.yul\":659:665   */\n      dup1\n        /* \"#utility.yul\":708:710   */\n      0x20\n        /* \"#utility.yul\":696:705   */\n      dup4\n        /* \"#utility.yul\":687:694   */\n      dup6\n        /* \"#utility.yul\":683:706   */\n      sub\n        /* \"#utility.yul\":679:711   */\n      slt\n        /* \"#utility.yul\":676:795   */\n      iszero\n      tag_22\n      jumpi\n        /* \"#utility.yul\":714:793   */\n      tag_23\n      tag_24\n      jump\t// in\n    tag_23:\n        /* \"#utility.yul\":676:795   */\n    tag_22:\n        /* \"#utility.yul\":862:863   */\n      0x00\n        /* \"#utility.yul\":851:860   */\n      dup4\n        /* \"#utility.yul\":847:864   */\n      add\n        /* \"#utility.yul\":834:865   */\n      calldataload\n        /* \"#utility.yul\":892:910   */\n      0xffffffffffffffff\n        /* \"#utility.yul\":884:890   */\n      dup2\n        /* \"#utility.yul\":881:911   */\n      gt\n        /* \"#utility.yul\":878:995   */\n      iszero\n      tag_25\n      jumpi\n        /* \"#utility.yul\":914:993   */\n      tag_26\n      tag_27\n      jump\t// in\n    tag_26:\n        /* \"#utility.yul\":878:995   */\n    tag_25:\n        /* \"#utility.yul\":1027:1092   */\n      tag_28\n        /* \"#utility.yul\":1084:1091   */\n      dup6\n        /* \"#utility.yul\":1075:1081   */\n      dup3\n        /* \"#utility.yul\":1064:1073   */\n      dup7\n        /* \"#utility.yul\":1060:1082   */\n      add\n        /* \"#utility.yul\":1027:1092   */\n      tag_10\n      jump\t// in\n    tag_28:\n        /* \"#utility.yul\":1009:1092   */\n      swap3\n      pop\n      swap3\n      pop\n        /* \"#utility.yul\":805:1102   */\n      pop\n        /* \"#utility.yul\":580:1109   */\n      swap3\n      pop\n      swap3\n      swap1\n      pop\n      jump\t// out\n        /* \"#utility.yul\":1196:1313   */\n    tag_17:\n        /* \"#utility.yul\":1305:1306   */\n      0x00\n        /* \"#utility.yul\":1302:1303   */\n      dup1\n        /* \"#utility.yul\":1295:1307   */\n      revert\n        /* \"#utility.yul\":1319:1436   */\n    tag_14:\n        /* \"#utility.yul\":1428:1429   */\n      0x00\n        /* \"#utility.yul\":1425:1426   */\n      dup1\n        /* \"#utility.yul\":1418:1430   */\n      revert\n        /* \"#utility.yul\":1442:1559   */\n    tag_20:\n        /* \"#utility.yul\":1551:1552   */\n      0x00\n        /* \"#utility.yul\":1548:1549   */\n      dup1\n        /* \"#utility.yul\":1541:1553   */\n      revert\n        /* \"#utility.yul\":1565:1682   */\n    tag_27:\n        /* \"#utility.yul\":1674:1675   */\n      0x00\n        /* \"#utility.yul\":1671:1672   */\n      dup1\n        /* \"#utility.yul\":1664:1676   */\n      revert\n        /* \"#utility.yul\":1688:1805   */\n    tag_24:\n        /* \"#utility.yul\":1797:1798   */\n      0x00\n        /* \"#utility.yul\":1794:1795   */\n      dup1\n        /* \"#utility.yul\":1787:1799   */\n      revert\n\n    auxdata: 0xa2646970667358221220b9059a044ac68014d5450a84b63acb133cb64af5a43801abd7561bfe3a810aad64736f6c63430008070033\n}\n",
				"bytecode": {
					"linkReferences": {},
					"object": "608060405234801561001057600080fd5b5061012a806100206000396000f3fe6080604052348015600f57600080fd5b506004361060285760003560e01c8063453e056a14602d575b600080fd5b60436004803603810190603f91906096565b6045565b005b5050565b60008083601f840112605c57605b60e0565b5b8235905067ffffffffffffffff811115607657607560db565b5b602083019150836001820283011115608f57608e60e5565b5b9250929050565b6000806020838503121560aa5760a960ef565b5b600083013567ffffffffffffffff81111560c55760c460ea565b5b60cf858286016049565b92509250509250929050565b600080fd5b600080fd5b600080fd5b600080fd5b600080fdfea2646970667358221220b9059a044ac68014d5450a84b63acb133cb64af5a43801abd7561bfe3a810aad64736f6c63430008070033",
					"opcodes": "PUSH1 0x80 PUSH1 0x40 MSTORE CALLVALUE DUP1 ISZERO PUSH2 0x10 JUMPI PUSH1 0x0 DUP1 REVERT JUMPDEST POP PUSH2 0x12A DUP1 PUSH2 0x20 PUSH1 0x0 CODECOPY PUSH1 0x0 RETURN INVALID PUSH1 0x80 PUSH1 0x40 MSTORE CALLVALUE DUP1 ISZERO PUSH1 0xF JUMPI PUSH1 0x0 DUP1 REVERT JUMPDEST POP PUSH1 0x4 CALLDATASIZE LT PUSH1 0x28 JUMPI PUSH1 0x0 CALLDATALOAD PUSH1 0xE0 SHR DUP1 PUSH4 0x453E056A EQ PUSH1 0x2D JUMPI JUMPDEST PUSH1 0x0 DUP1 REVERT JUMPDEST PUSH1 0x43 PUSH1 0x4 DUP1 CALLDATASIZE SUB DUP2 ADD SWAP1 PUSH1 0x3F SWAP2 SWAP1 PUSH1 0x96 JUMP JUMPDEST PUSH1 0x45 JUMP JUMPDEST STOP JUMPDEST POP POP JUMP JUMPDEST PUSH1 0x0 DUP1 DUP4 PUSH1 0x1F DUP5 ADD SLT PUSH1 0x5C JUMPI PUSH1 0x5B PUSH1 0xE0 JUMP JUMPDEST JUMPDEST DUP3 CALLDATALOAD SWAP1 POP PUSH8 0xFFFFFFFFFFFFFFFF DUP2 GT ISZERO PUSH1 0x76 JUMPI PUSH1 0x75 PUSH1 0xDB JUMP JUMPDEST JUMPDEST PUSH1 0x20 DUP4 ADD SWAP2 POP DUP4 PUSH1 0x1 DUP3 MUL DUP4 ADD GT ISZERO PUSH1 0x8F JUMPI PUSH1 0x8E PUSH1 0xE5 JUMP JUMPDEST JUMPDEST SWAP3 POP SWAP3 SWAP1 POP JUMP JUMPDEST PUSH1 0x0 DUP1 PUSH1 0x20 DUP4 DUP6 SUB SLT ISZERO PUSH1 0xAA JUMPI PUSH1 0xA9 PUSH1 0xEF JUMP JUMPDEST JUMPDEST PUSH1 0x0 DUP4 ADD CALLDATALOAD PUSH8 0xFFFFFFFFFFFFFFFF DUP2 GT ISZERO PUSH1 0xC5 JUMPI PUSH1 0xC4 PUSH1 0xEA JUMP JUMPDEST JUMPDEST PUSH1 0xCF DUP6 DUP3 DUP7 ADD PUSH1 0x49 JUMP JUMPDEST SWAP3 POP SWAP3 POP POP SWAP3 POP SWAP3 SWAP1 POP JUMP JUMPDEST PUSH1 0x0 DUP1 REVERT JUMPDEST PUSH1 0x0 DUP1 REVERT JUMPDEST PUSH1 0x0 DUP1 REVERT JUMPDEST PUSH1 0x0 DUP1 REVERT JUMPDEST PUSH1 0x0 DUP1 REVERT INVALID LOG2 PUSH5 0x6970667358 0x22 SLT KECCAK256 0xB9 SDIV SWAP11 DIV 0x4A 0xC6 DUP1 EQ 0xD5 GASLIMIT EXP DUP5 0xB6 GASPRICE 0xCB SGT EXTCODECOPY 0xB6 0x4A CREATE2 LOG4 CODESIZE ADD 0xAB 0xD7 JUMP SHL INVALID GASPRICE DUP2 EXP 0xAD PUSH5 0x736F6C6343 STOP ADDMOD SMOD STOP CALLER "
				},
				"gasEstimates": {
					"creation": {
						"codeDepositCost": "59600",
						"executionCost": "111",
						"totalCost": "59711"
					},
					"external": {
						"addStudent(string)": "452"
					},
					"internal": {
						"debtsAreDone(struct DormitoryQuest.Student storage pointer)": "infinite"
					}
				},
				"methodIdentifiers": {
					"addStudent(string)": "453e056a"
				}
			},
			"storageLayout": {
				"storage": [],
				"types": null
			},
			"userdoc": {
				"kind": "user",
				"methods": {},
				"version": 1
			}
		}
	}
}