{
	"contracts/Hometask.sol": {
		"DormitoryQuest": {
			"abi": [
				{
					"inputs": [],
					"stateMutability": "nonpayable",
					"type": "constructor"
				},
				{
					"anonymous": false,
					"inputs": [
						{
							"indexed": false,
							"internalType": "uint256",
							"name": "id",
							"type": "uint256"
						},
						{
							"indexed": false,
							"internalType": "string",
							"name": "name",
							"type": "string"
						},
						{
							"indexed": false,
							"internalType": "uint256",
							"name": "regDate",
							"type": "uint256"
						}
					],
					"name": "StudentAdded",
					"type": "event"
				},
				{
					"anonymous": false,
					"inputs": [
						{
							"indexed": false,
							"internalType": "string",
							"name": "name",
							"type": "string"
						},
						{
							"indexed": false,
							"internalType": "uint256",
							"name": "date",
							"type": "uint256"
						}
					],
					"name": "StudentEvicted",
					"type": "event"
				},
				{
					"anonymous": false,
					"inputs": [
						{
							"indexed": false,
							"internalType": "string",
							"name": "name",
							"type": "string"
						}
					],
					"name": "SummonsToArmyGiven",
					"type": "event"
				},
				{
					"inputs": [
						{
							"internalType": "string",
							"name": "_name",
							"type": "string"
						},
						{
							"internalType": "bool",
							"name": "_sheetsDone",
							"type": "bool"
						},
						{
							"internalType": "bool",
							"name": "_roomDone",
							"type": "bool"
						},
						{
							"internalType": "bool",
							"name": "_booksDone",
							"type": "bool"
						}
					],
					"name": "addStudent",
					"outputs": [],
					"stateMutability": "nonpayable",
					"type": "function"
				},
				{
					"inputs": [
						{
							"internalType": "uint256",
							"name": "id",
							"type": "uint256"
						}
					],
					"name": "debtsAreDone",
					"outputs": [],
					"stateMutability": "nonpayable",
					"type": "function"
				},
				{
					"inputs": [
						{
							"internalType": "uint256",
							"name": "",
							"type": "uint256"
						}
					],
					"name": "students",
					"outputs": [
						{
							"internalType": "uint256",
							"name": "id",
							"type": "uint256"
						},
						{
							"internalType": "string",
							"name": "fullName",
							"type": "string"
						},
						{
							"internalType": "bool",
							"name": "sheetsDone",
							"type": "bool"
						},
						{
							"internalType": "bool",
							"name": "roomDone",
							"type": "bool"
						},
						{
							"internalType": "bool",
							"name": "booksDone",
							"type": "bool"
						},
						{
							"internalType": "uint256",
							"name": "regDate",
							"type": "uint256"
						},
						{
							"internalType": "uint256",
							"name": "deadlineDate",
							"type": "uint256"
						}
					],
					"stateMutability": "view",
					"type": "function"
				}
			],
			"devdoc": {
				"kind": "dev",
				"methods": {},
				"version": 1
			},
			"evm": {
				"assembly": "    /* \"contracts/Hometask.sol\":62:1982  contract DormitoryQuest {\r... */\n  mstore(0x40, 0x80)\n    /* \"contracts/Hometask.sol\":546:597  constructor() {\r... */\n  callvalue\n  dup1\n  iszero\n  tag_1\n  jumpi\n  0x00\n  dup1\n  revert\ntag_1:\n  pop\n    /* \"contracts/Hometask.sol\":579:589  msg.sender */\n  caller\n    /* \"contracts/Hometask.sol\":571:576  owner */\n  0x00\n  dup1\n    /* \"contracts/Hometask.sol\":571:589  owner = msg.sender */\n  0x0100\n  exp\n  dup2\n  sload\n  dup2\n  0xffffffffffffffffffffffffffffffffffffffff\n  mul\n  not\n  and\n  swap1\n  dup4\n  0xffffffffffffffffffffffffffffffffffffffff\n  and\n  mul\n  or\n  swap1\n  sstore\n  pop\n    /* \"contracts/Hometask.sol\":62:1982  contract DormitoryQuest {\r... */\n  dataSize(sub_0)\n  dup1\n  dataOffset(sub_0)\n  0x00\n  codecopy\n  0x00\n  return\nstop\n\nsub_0: assembly {\n        /* \"contracts/Hometask.sol\":62:1982  contract DormitoryQuest {\r... */\n      mstore(0x40, 0x80)\n      callvalue\n      dup1\n      iszero\n      tag_1\n      jumpi\n      0x00\n      dup1\n      revert\n    tag_1:\n      pop\n      jumpi(tag_2, lt(calldatasize, 0x04))\n      shr(0xe0, calldataload(0x00))\n      dup1\n      0x06ead22e\n      eq\n      tag_3\n      jumpi\n      dup1\n      0x344d2d4a\n      eq\n      tag_4\n      jumpi\n      dup1\n      0x3d5c83d4\n      eq\n      tag_5\n      jumpi\n    tag_2:\n      0x00\n      dup1\n      revert\n        /* \"contracts/Hometask.sol\":354:379  Student[] public students */\n    tag_3:\n      tag_6\n      0x04\n      dup1\n      calldatasize\n      sub\n      dup2\n      add\n      swap1\n      tag_7\n      swap2\n      swap1\n      tag_8\n      jump\t// in\n    tag_7:\n      tag_9\n      jump\t// in\n    tag_6:\n      mload(0x40)\n      tag_10\n      swap8\n      swap7\n      swap6\n      swap5\n      swap4\n      swap3\n      swap2\n      swap1\n      tag_11\n      jump\t// in\n    tag_10:\n      mload(0x40)\n      dup1\n      swap2\n      sub\n      swap1\n      return\n        /* \"contracts/Hometask.sol\":605:1247  function addStudent(string calldata _name, bool _sheetsDone, bool _roomDone, bool _booksDone) public {\r... */\n    tag_4:\n      tag_12\n      0x04\n      dup1\n      calldatasize\n      sub\n      dup2\n      add\n      swap1\n      tag_13\n      swap2\n      swap1\n      tag_14\n      jump\t// in\n    tag_13:\n      tag_15\n      jump\t// in\n    tag_12:\n      stop\n        /* \"contracts/Hometask.sol\":1259:1979  function debtsAreDone(uint id) public {\r... */\n    tag_5:\n      tag_16\n      0x04\n      dup1\n      calldatasize\n      sub\n      dup2\n      add\n      swap1\n      tag_17\n      swap2\n      swap1\n      tag_8\n      jump\t// in\n    tag_17:\n      tag_18\n      jump\t// in\n    tag_16:\n      stop\n        /* \"contracts/Hometask.sol\":354:379  Student[] public students */\n    tag_9:\n      0x01\n      dup2\n      dup2\n      sload\n      dup2\n      lt\n      tag_19\n      jumpi\n      0x00\n      dup1\n      revert\n    tag_19:\n      swap1\n      0x00\n      mstore\n      keccak256(0x00, 0x20)\n      swap1\n      0x05\n      mul\n      add\n      0x00\n      swap2\n      pop\n      swap1\n      pop\n      dup1\n      0x00\n      add\n      sload\n      swap1\n      dup1\n      0x01\n      add\n      dup1\n      sload\n      tag_21\n      swap1\n      tag_22\n      jump\t// in\n    tag_21:\n      dup1\n      0x1f\n      add\n      0x20\n      dup1\n      swap2\n      div\n      mul\n      0x20\n      add\n      mload(0x40)\n      swap1\n      dup2\n      add\n      0x40\n      mstore\n      dup1\n      swap3\n      swap2\n      swap1\n      dup2\n      dup2\n      mstore\n      0x20\n      add\n      dup3\n      dup1\n      sload\n      tag_23\n      swap1\n      tag_22\n      jump\t// in\n    tag_23:\n      dup1\n      iszero\n      tag_24\n      jumpi\n      dup1\n      0x1f\n      lt\n      tag_25\n      jumpi\n      0x0100\n      dup1\n      dup4\n      sload\n      div\n      mul\n      dup4\n      mstore\n      swap2\n      0x20\n      add\n      swap2\n      jump(tag_24)\n    tag_25:\n      dup3\n      add\n      swap2\n      swap1\n      0x00\n      mstore\n      keccak256(0x00, 0x20)\n      swap1\n    tag_26:\n      dup2\n      sload\n      dup2\n      mstore\n      swap1\n      0x01\n      add\n      swap1\n      0x20\n      add\n      dup1\n      dup4\n      gt\n      tag_26\n      jumpi\n      dup3\n      swap1\n      sub\n      0x1f\n      and\n      dup3\n      add\n      swap2\n    tag_24:\n      pop\n      pop\n      pop\n      pop\n      pop\n      swap1\n      dup1\n      0x02\n      add\n      0x00\n      swap1\n      sload\n      swap1\n      0x0100\n      exp\n      swap1\n      div\n      0xff\n      and\n      swap1\n      dup1\n      0x02\n      add\n      0x01\n      swap1\n      sload\n      swap1\n      0x0100\n      exp\n      swap1\n      div\n      0xff\n      and\n      swap1\n      dup1\n      0x02\n      add\n      0x02\n      swap1\n      sload\n      swap1\n      0x0100\n      exp\n      swap1\n      div\n      0xff\n      and\n      swap1\n      dup1\n      0x03\n      add\n      sload\n      swap1\n      dup1\n      0x04\n      add\n      sload\n      swap1\n      pop\n      dup8\n      jump\t// out\n        /* \"contracts/Hometask.sol\":605:1247  function addStudent(string calldata _name, bool _sheetsDone, bool _roomDone, bool _booksDone) public {\r... */\n    tag_15:\n        /* \"contracts/Hometask.sol\":717:731  uint currentId */\n      0x00\n        /* \"contracts/Hometask.sol\":753:754  0 */\n      dup1\n        /* \"contracts/Hometask.sol\":734:742  students */\n      0x01\n        /* \"contracts/Hometask.sol\":734:749  students.length */\n      dup1\n      sload\n      swap1\n      pop\n        /* \"contracts/Hometask.sol\":734:754  students.length == 0 */\n      eq\n        /* \"contracts/Hometask.sol\":734:794  students.length == 0 ? students.length : students.length - 1 */\n      tag_28\n      jumpi\n        /* \"contracts/Hometask.sol\":793:794  1 */\n      0x01\n        /* \"contracts/Hometask.sol\":775:783  students */\n      dup1\n        /* \"contracts/Hometask.sol\":775:790  students.length */\n      dup1\n      sload\n      swap1\n      pop\n        /* \"contracts/Hometask.sol\":775:794  students.length - 1 */\n      tag_29\n      swap2\n      swap1\n      tag_30\n      jump\t// in\n    tag_29:\n        /* \"contracts/Hometask.sol\":734:794  students.length == 0 ? students.length : students.length - 1 */\n      jump(tag_31)\n    tag_28:\n        /* \"contracts/Hometask.sol\":757:765  students */\n      0x01\n        /* \"contracts/Hometask.sol\":757:772  students.length */\n      dup1\n      sload\n      swap1\n      pop\n        /* \"contracts/Hometask.sol\":734:794  students.length == 0 ? students.length : students.length - 1 */\n    tag_31:\n        /* \"contracts/Hometask.sol\":717:794  uint currentId = students.length == 0 ? students.length : students.length - 1 */\n      swap1\n      pop\n        /* \"contracts/Hometask.sol\":807:832  Student memory newStudent */\n      0x00\n        /* \"contracts/Hometask.sol\":835:1115  Student({\r... */\n      mload(0x40)\n      dup1\n      0xe0\n      add\n      0x40\n      mstore\n      dup1\n        /* \"contracts/Hometask.sol\":862:871  currentId */\n      dup4\n        /* \"contracts/Hometask.sol\":835:1115  Student({\r... */\n      dup2\n      mstore\n      0x20\n      add\n        /* \"contracts/Hometask.sol\":896:901  _name */\n      dup9\n      dup9\n        /* \"contracts/Hometask.sol\":835:1115  Student({\r... */\n      dup1\n      dup1\n      0x1f\n      add\n      0x20\n      dup1\n      swap2\n      div\n      mul\n      0x20\n      add\n      mload(0x40)\n      swap1\n      dup2\n      add\n      0x40\n      mstore\n      dup1\n      swap4\n      swap3\n      swap2\n      swap1\n      dup2\n      dup2\n      mstore\n      0x20\n      add\n      dup4\n      dup4\n      dup1\n      dup3\n      dup5\n      calldatacopy\n      0x00\n      dup2\n      dup5\n      add\n      mstore\n      not(0x1f)\n      0x1f\n      dup3\n      add\n      and\n      swap1\n      pop\n      dup1\n      dup4\n      add\n      swap3\n      pop\n      pop\n      pop\n      pop\n      pop\n      pop\n      pop\n      dup2\n      mstore\n      0x20\n      add\n        /* \"contracts/Hometask.sol\":928:939  _sheetsDone */\n      dup7\n        /* \"contracts/Hometask.sol\":835:1115  Student({\r... */\n      iszero\n      iszero\n      dup2\n      mstore\n      0x20\n      add\n        /* \"contracts/Hometask.sol\":964:973  _roomDone */\n      dup6\n        /* \"contracts/Hometask.sol\":835:1115  Student({\r... */\n      iszero\n      iszero\n      dup2\n      mstore\n      0x20\n      add\n        /* \"contracts/Hometask.sol\":999:1009  _booksDone */\n      dup5\n        /* \"contracts/Hometask.sol\":835:1115  Student({\r... */\n      iszero\n      iszero\n      dup2\n      mstore\n      0x20\n      add\n        /* \"contracts/Hometask.sol\":1033:1048  block.timestamp */\n      timestamp\n        /* \"contracts/Hometask.sol\":835:1115  Student({\r... */\n      dup2\n      mstore\n      0x20\n      add\n        /* \"contracts/Hometask.sol\":118:124  3 days */\n      0x03f480\n        /* \"contracts/Hometask.sol\":1077:1092  block.timestamp */\n      timestamp\n        /* \"contracts/Hometask.sol\":1077:1103  block.timestamp + DURATION */\n      tag_32\n      swap2\n      swap1\n      tag_33\n      jump\t// in\n    tag_32:\n        /* \"contracts/Hometask.sol\":835:1115  Student({\r... */\n      dup2\n      mstore\n      pop\n        /* \"contracts/Hometask.sol\":807:1115  Student memory newStudent = Student({\r... */\n      swap1\n      pop\n        /* \"contracts/Hometask.sol\":1128:1136  students */\n      0x01\n        /* \"contracts/Hometask.sol\":1142:1152  newStudent */\n      dup2\n        /* \"contracts/Hometask.sol\":1128:1153  students.push(newStudent) */\n      swap1\n      dup1\n      0x01\n      dup2\n      sload\n      add\n      dup1\n      dup3\n      sstore\n      dup1\n      swap2\n      pop\n      pop\n      0x01\n      swap1\n      sub\n      swap1\n      0x00\n      mstore\n      keccak256(0x00, 0x20)\n      swap1\n      0x05\n      mul\n      add\n      0x00\n      swap1\n      swap2\n      swap1\n      swap2\n      swap1\n      swap2\n      pop\n      0x00\n      dup3\n      add\n      mload\n      dup2\n      0x00\n      add\n      sstore\n      0x20\n      dup3\n      add\n      mload\n      dup2\n      0x01\n      add\n      swap1\n      dup1\n      mload\n      swap1\n      0x20\n      add\n      swap1\n      tag_35\n      swap3\n      swap2\n      swap1\n      tag_36\n      jump\t// in\n    tag_35:\n      pop\n      0x40\n      dup3\n      add\n      mload\n      dup2\n      0x02\n      add\n      exp(0x0100, 0x00)\n      dup2\n      sload\n      dup2\n      0xff\n      mul\n      not\n      and\n      swap1\n      dup4\n      iszero\n      iszero\n      mul\n      or\n      swap1\n      sstore\n      pop\n      0x60\n      dup3\n      add\n      mload\n      dup2\n      0x02\n      add\n      exp(0x0100, 0x01)\n      dup2\n      sload\n      dup2\n      0xff\n      mul\n      not\n      and\n      swap1\n      dup4\n      iszero\n      iszero\n      mul\n      or\n      swap1\n      sstore\n      pop\n      0x80\n      dup3\n      add\n      mload\n      dup2\n      0x02\n      add\n      exp(0x0100, 0x02)\n      dup2\n      sload\n      dup2\n      0xff\n      mul\n      not\n      and\n      swap1\n      dup4\n      iszero\n      iszero\n      mul\n      or\n      swap1\n      sstore\n      pop\n      0xa0\n      dup3\n      add\n      mload\n      dup2\n      0x03\n      add\n      sstore\n      0xc0\n      dup3\n      add\n      mload\n      dup2\n      0x04\n      add\n      sstore\n      pop\n      pop\n        /* \"contracts/Hometask.sol\":1171:1239  StudentAdded(newStudent.id, newStudent.fullName, newStudent.regDate) */\n      0xfafb7311fc57ca8a55073f63725e888b4250c799d77ae873970d65ac08c5917a\n        /* \"contracts/Hometask.sol\":1184:1194  newStudent */\n      dup2\n        /* \"contracts/Hometask.sol\":1184:1197  newStudent.id */\n      0x00\n      add\n      mload\n        /* \"contracts/Hometask.sol\":1199:1209  newStudent */\n      dup3\n        /* \"contracts/Hometask.sol\":1199:1218  newStudent.fullName */\n      0x20\n      add\n      mload\n        /* \"contracts/Hometask.sol\":1220:1230  newStudent */\n      dup4\n        /* \"contracts/Hometask.sol\":1220:1238  newStudent.regDate */\n      0xa0\n      add\n      mload\n        /* \"contracts/Hometask.sol\":1171:1239  StudentAdded(newStudent.id, newStudent.fullName, newStudent.regDate) */\n      mload(0x40)\n      tag_37\n      swap4\n      swap3\n      swap2\n      swap1\n      tag_38\n      jump\t// in\n    tag_37:\n      mload(0x40)\n      dup1\n      swap2\n      sub\n      swap1\n      log1\n        /* \"contracts/Hometask.sol\":706:1247  {\r... */\n      pop\n      pop\n        /* \"contracts/Hometask.sol\":605:1247  function addStudent(string calldata _name, bool _sheetsDone, bool _roomDone, bool _booksDone) public {\r... */\n      pop\n      pop\n      pop\n      pop\n      pop\n      jump\t// out\n        /* \"contracts/Hometask.sol\":1259:1979  function debtsAreDone(uint id) public {\r... */\n    tag_18:\n        /* \"contracts/Hometask.sol\":1322:1323  0 */\n      0x00\n        /* \"contracts/Hometask.sol\":1316:1318  id */\n      dup2\n        /* \"contracts/Hometask.sol\":1316:1323  id >= 0 */\n      lt\n      iszero\n        /* \"contracts/Hometask.sol\":1308:1341  require(id >= 0, \"Incorrect id.\") */\n      tag_40\n      jumpi\n      mload(0x40)\n      0x08c379a000000000000000000000000000000000000000000000000000000000\n      dup2\n      mstore\n      0x04\n      add\n      tag_41\n      swap1\n      tag_42\n      jump\t// in\n    tag_41:\n      mload(0x40)\n      dup1\n      swap2\n      sub\n      swap1\n      revert\n    tag_40:\n        /* \"contracts/Hometask.sol\":1354:1378  Student storage _student */\n      0x00\n        /* \"contracts/Hometask.sol\":1381:1389  students */\n      0x01\n        /* \"contracts/Hometask.sol\":1390:1392  id */\n      dup3\n        /* \"contracts/Hometask.sol\":1381:1393  students[id] */\n      dup2\n      sload\n      dup2\n      lt\n      tag_43\n      jumpi\n      tag_44\n      tag_45\n      jump\t// in\n    tag_44:\n    tag_43:\n      swap1\n      0x00\n      mstore\n      keccak256(0x00, 0x20)\n      swap1\n      0x05\n      mul\n      add\n        /* \"contracts/Hometask.sol\":1354:1393  Student storage _student = students[id] */\n      swap1\n      pop\n        /* \"contracts/Hometask.sol\":1433:1438  false */\n      0x00\n        /* \"contracts/Hometask.sol\":1410:1438  _student.sheetsDone == false */\n      iszero\n      iszero\n        /* \"contracts/Hometask.sol\":1410:1418  _student */\n      dup2\n        /* \"contracts/Hometask.sol\":1410:1429  _student.sheetsDone */\n      0x02\n      add\n      0x00\n      swap1\n      sload\n      swap1\n      0x0100\n      exp\n      swap1\n      div\n      0xff\n      and\n        /* \"contracts/Hometask.sol\":1410:1438  _student.sheetsDone == false */\n      iszero\n      iszero\n      eq\n        /* \"contracts/Hometask.sol\":1406:1518  if (_student.sheetsDone == false)\r... */\n      iszero\n      tag_47\n      jumpi\n        /* \"contracts/Hometask.sol\":1469:1506  SummonsToArmyGiven(_student.fullName) */\n      0xd53ecb21746e36da81ddab5bdcf35c93b4e7adb500e38a0ce440f729de177ac5\n        /* \"contracts/Hometask.sol\":1488:1496  _student */\n      dup2\n        /* \"contracts/Hometask.sol\":1488:1505  _student.fullName */\n      0x01\n      add\n        /* \"contracts/Hometask.sol\":1469:1506  SummonsToArmyGiven(_student.fullName) */\n      mload(0x40)\n      tag_48\n      swap2\n      swap1\n      tag_49\n      jump\t// in\n    tag_48:\n      mload(0x40)\n      dup1\n      swap2\n      sub\n      swap1\n      log1\n        /* \"contracts/Hometask.sol\":1406:1518  if (_student.sheetsDone == false)\r... */\n    tag_47:\n        /* \"contracts/Hometask.sol\":1555:1560  false */\n      0x00\n        /* \"contracts/Hometask.sol\":1534:1560  _student.roomDone == false */\n      iszero\n      iszero\n        /* \"contracts/Hometask.sol\":1534:1542  _student */\n      dup2\n        /* \"contracts/Hometask.sol\":1534:1551  _student.roomDone */\n      0x02\n      add\n      0x01\n      swap1\n      sload\n      swap1\n      0x0100\n      exp\n      swap1\n      div\n      0xff\n      and\n        /* \"contracts/Hometask.sol\":1534:1560  _student.roomDone == false */\n      iszero\n      iszero\n      eq\n        /* \"contracts/Hometask.sol\":1530:1640  if (_student.roomDone == false)\r... */\n      iszero\n      tag_50\n      jumpi\n        /* \"contracts/Hometask.sol\":1591:1628  SummonsToArmyGiven(_student.fullName) */\n      0xd53ecb21746e36da81ddab5bdcf35c93b4e7adb500e38a0ce440f729de177ac5\n        /* \"contracts/Hometask.sol\":1610:1618  _student */\n      dup2\n        /* \"contracts/Hometask.sol\":1610:1627  _student.fullName */\n      0x01\n      add\n        /* \"contracts/Hometask.sol\":1591:1628  SummonsToArmyGiven(_student.fullName) */\n      mload(0x40)\n      tag_51\n      swap2\n      swap1\n      tag_49\n      jump\t// in\n    tag_51:\n      mload(0x40)\n      dup1\n      swap2\n      sub\n      swap1\n      log1\n        /* \"contracts/Hometask.sol\":1530:1640  if (_student.roomDone == false)\r... */\n    tag_50:\n        /* \"contracts/Hometask.sol\":1678:1683  false */\n      0x00\n        /* \"contracts/Hometask.sol\":1656:1683  _student.booksDone == false */\n      iszero\n      iszero\n        /* \"contracts/Hometask.sol\":1656:1664  _student */\n      dup2\n        /* \"contracts/Hometask.sol\":1656:1674  _student.booksDone */\n      0x02\n      add\n      0x02\n      swap1\n      sload\n      swap1\n      0x0100\n      exp\n      swap1\n      div\n      0xff\n      and\n        /* \"contracts/Hometask.sol\":1656:1683  _student.booksDone == false */\n      iszero\n      iszero\n      eq\n        /* \"contracts/Hometask.sol\":1652:1763  if (_student.booksDone == false)\r... */\n      iszero\n      tag_52\n      jumpi\n        /* \"contracts/Hometask.sol\":1714:1751  SummonsToArmyGiven(_student.fullName) */\n      0xd53ecb21746e36da81ddab5bdcf35c93b4e7adb500e38a0ce440f729de177ac5\n        /* \"contracts/Hometask.sol\":1733:1741  _student */\n      dup2\n        /* \"contracts/Hometask.sol\":1733:1750  _student.fullName */\n      0x01\n      add\n        /* \"contracts/Hometask.sol\":1714:1751  SummonsToArmyGiven(_student.fullName) */\n      mload(0x40)\n      tag_53\n      swap2\n      swap1\n      tag_49\n      jump\t// in\n    tag_53:\n      mload(0x40)\n      dup1\n      swap2\n      sub\n      swap1\n      log1\n        /* \"contracts/Hometask.sol\":1652:1763  if (_student.booksDone == false)\r... */\n    tag_52:\n        /* \"contracts/Hometask.sol\":1809:1824  block.timestamp */\n      timestamp\n        /* \"contracts/Hometask.sol\":118:124  3 days */\n      0x03f480\n        /* \"contracts/Hometask.sol\":1779:1787  _student */\n      dup3\n        /* \"contracts/Hometask.sol\":1779:1795  _student.regDate */\n      0x03\n      add\n      sload\n        /* \"contracts/Hometask.sol\":1779:1806  _student.regDate + DURATION */\n      tag_54\n      swap2\n      swap1\n      tag_33\n      jump\t// in\n    tag_54:\n        /* \"contracts/Hometask.sol\":1779:1824  _student.regDate + DURATION > block.timestamp */\n      gt\n        /* \"contracts/Hometask.sol\":1775:1904  if (_student.regDate + DURATION > block.timestamp)\r... */\n      iszero\n      tag_55\n      jumpi\n        /* \"contracts/Hometask.sol\":1855:1892  SummonsToArmyGiven(_student.fullName) */\n      0xd53ecb21746e36da81ddab5bdcf35c93b4e7adb500e38a0ce440f729de177ac5\n        /* \"contracts/Hometask.sol\":1874:1882  _student */\n      dup2\n        /* \"contracts/Hometask.sol\":1874:1891  _student.fullName */\n      0x01\n      add\n        /* \"contracts/Hometask.sol\":1855:1892  SummonsToArmyGiven(_student.fullName) */\n      mload(0x40)\n      tag_56\n      swap2\n      swap1\n      tag_49\n      jump\t// in\n    tag_56:\n      mload(0x40)\n      dup1\n      swap2\n      sub\n      swap1\n      log1\n        /* \"contracts/Hometask.sol\":1775:1904  if (_student.regDate + DURATION > block.timestamp)\r... */\n    tag_55:\n        /* \"contracts/Hometask.sol\":1921:1971  StudentEvicted(_student.fullName, block.timestamp) */\n      0x6fd4822621c89040f0ea90264351e7f95d334eb76155286b2c1b6732331ff93c\n        /* \"contracts/Hometask.sol\":1936:1944  _student */\n      dup2\n        /* \"contracts/Hometask.sol\":1936:1953  _student.fullName */\n      0x01\n      add\n        /* \"contracts/Hometask.sol\":1955:1970  block.timestamp */\n      timestamp\n        /* \"contracts/Hometask.sol\":1921:1971  StudentEvicted(_student.fullName, block.timestamp) */\n      mload(0x40)\n      tag_57\n      swap3\n      swap2\n      swap1\n      tag_58\n      jump\t// in\n    tag_57:\n      mload(0x40)\n      dup1\n      swap2\n      sub\n      swap1\n      log1\n        /* \"contracts/Hometask.sol\":1297:1979  {\r... */\n      pop\n        /* \"contracts/Hometask.sol\":1259:1979  function debtsAreDone(uint id) public {\r... */\n      pop\n      jump\t// out\n    tag_36:\n      dup3\n      dup1\n      sload\n      tag_59\n      swap1\n      tag_22\n      jump\t// in\n    tag_59:\n      swap1\n      0x00\n      mstore\n      keccak256(0x00, 0x20)\n      swap1\n      0x1f\n      add\n      0x20\n      swap1\n      div\n      dup2\n      add\n      swap3\n      dup3\n      tag_61\n      jumpi\n      0x00\n      dup6\n      sstore\n      jump(tag_60)\n    tag_61:\n      dup3\n      0x1f\n      lt\n      tag_62\n      jumpi\n      dup1\n      mload\n      not(0xff)\n      and\n      dup4\n      dup1\n      add\n      or\n      dup6\n      sstore\n      jump(tag_60)\n    tag_62:\n      dup3\n      dup1\n      add\n      0x01\n      add\n      dup6\n      sstore\n      dup3\n      iszero\n      tag_60\n      jumpi\n      swap2\n      dup3\n      add\n    tag_63:\n      dup3\n      dup2\n      gt\n      iszero\n      tag_64\n      jumpi\n      dup3\n      mload\n      dup3\n      sstore\n      swap2\n      0x20\n      add\n      swap2\n      swap1\n      0x01\n      add\n      swap1\n      jump(tag_63)\n    tag_64:\n    tag_60:\n      pop\n      swap1\n      pop\n      tag_65\n      swap2\n      swap1\n      tag_66\n      jump\t// in\n    tag_65:\n      pop\n      swap1\n      jump\t// out\n    tag_66:\n    tag_67:\n      dup1\n      dup3\n      gt\n      iszero\n      tag_68\n      jumpi\n      0x00\n      dup2\n      0x00\n      swap1\n      sstore\n      pop\n      0x01\n      add\n      jump(tag_67)\n    tag_68:\n      pop\n      swap1\n      jump\t// out\n        /* \"#utility.yul\":7:140   */\n    tag_70:\n        /* \"#utility.yul\":50:55   */\n      0x00\n        /* \"#utility.yul\":88:94   */\n      dup2\n        /* \"#utility.yul\":75:95   */\n      calldataload\n        /* \"#utility.yul\":66:95   */\n      swap1\n      pop\n        /* \"#utility.yul\":104:134   */\n      tag_72\n        /* \"#utility.yul\":128:133   */\n      dup2\n        /* \"#utility.yul\":104:134   */\n      tag_73\n      jump\t// in\n    tag_72:\n        /* \"#utility.yul\":7:140   */\n      swap3\n      swap2\n      pop\n      pop\n      jump\t// out\n        /* \"#utility.yul\":160:713   */\n    tag_74:\n        /* \"#utility.yul\":218:226   */\n      0x00\n        /* \"#utility.yul\":228:234   */\n      dup1\n        /* \"#utility.yul\":278:281   */\n      dup4\n        /* \"#utility.yul\":271:275   */\n      0x1f\n        /* \"#utility.yul\":263:269   */\n      dup5\n        /* \"#utility.yul\":259:276   */\n      add\n        /* \"#utility.yul\":255:282   */\n      slt\n        /* \"#utility.yul\":245:367   */\n      tag_76\n      jumpi\n        /* \"#utility.yul\":286:365   */\n      tag_77\n      tag_78\n      jump\t// in\n    tag_77:\n        /* \"#utility.yul\":245:367   */\n    tag_76:\n        /* \"#utility.yul\":399:405   */\n      dup3\n        /* \"#utility.yul\":386:406   */\n      calldataload\n        /* \"#utility.yul\":376:406   */\n      swap1\n      pop\n        /* \"#utility.yul\":429:447   */\n      0xffffffffffffffff\n        /* \"#utility.yul\":421:427   */\n      dup2\n        /* \"#utility.yul\":418:448   */\n      gt\n        /* \"#utility.yul\":415:532   */\n      iszero\n      tag_79\n      jumpi\n        /* \"#utility.yul\":451:530   */\n      tag_80\n      tag_81\n      jump\t// in\n    tag_80:\n        /* \"#utility.yul\":415:532   */\n    tag_79:\n        /* \"#utility.yul\":565:569   */\n      0x20\n        /* \"#utility.yul\":557:563   */\n      dup4\n        /* \"#utility.yul\":553:570   */\n      add\n        /* \"#utility.yul\":541:570   */\n      swap2\n      pop\n        /* \"#utility.yul\":619:622   */\n      dup4\n        /* \"#utility.yul\":611:615   */\n      0x01\n        /* \"#utility.yul\":603:609   */\n      dup3\n        /* \"#utility.yul\":599:616   */\n      mul\n        /* \"#utility.yul\":589:597   */\n      dup4\n        /* \"#utility.yul\":585:617   */\n      add\n        /* \"#utility.yul\":582:623   */\n      gt\n        /* \"#utility.yul\":579:707   */\n      iszero\n      tag_82\n      jumpi\n        /* \"#utility.yul\":626:705   */\n      tag_83\n      tag_84\n      jump\t// in\n    tag_83:\n        /* \"#utility.yul\":579:707   */\n    tag_82:\n        /* \"#utility.yul\":160:713   */\n      swap3\n      pop\n      swap3\n      swap1\n      pop\n      jump\t// out\n        /* \"#utility.yul\":719:858   */\n    tag_85:\n        /* \"#utility.yul\":765:770   */\n      0x00\n        /* \"#utility.yul\":803:809   */\n      dup2\n        /* \"#utility.yul\":790:810   */\n      calldataload\n        /* \"#utility.yul\":781:810   */\n      swap1\n      pop\n        /* \"#utility.yul\":819:852   */\n      tag_87\n        /* \"#utility.yul\":846:851   */\n      dup2\n        /* \"#utility.yul\":819:852   */\n      tag_88\n      jump\t// in\n    tag_87:\n        /* \"#utility.yul\":719:858   */\n      swap3\n      swap2\n      pop\n      pop\n      jump\t// out\n        /* \"#utility.yul\":864:1811   */\n    tag_14:\n        /* \"#utility.yul\":953:959   */\n      0x00\n        /* \"#utility.yul\":961:967   */\n      dup1\n        /* \"#utility.yul\":969:975   */\n      0x00\n        /* \"#utility.yul\":977:983   */\n      dup1\n        /* \"#utility.yul\":985:991   */\n      0x00\n        /* \"#utility.yul\":1034:1037   */\n      0x80\n        /* \"#utility.yul\":1022:1031   */\n      dup7\n        /* \"#utility.yul\":1013:1020   */\n      dup9\n        /* \"#utility.yul\":1009:1032   */\n      sub\n        /* \"#utility.yul\":1005:1038   */\n      slt\n        /* \"#utility.yul\":1002:1122   */\n      iszero\n      tag_90\n      jumpi\n        /* \"#utility.yul\":1041:1120   */\n      tag_91\n      tag_92\n      jump\t// in\n    tag_91:\n        /* \"#utility.yul\":1002:1122   */\n    tag_90:\n        /* \"#utility.yul\":1189:1190   */\n      0x00\n        /* \"#utility.yul\":1178:1187   */\n      dup7\n        /* \"#utility.yul\":1174:1191   */\n      add\n        /* \"#utility.yul\":1161:1192   */\n      calldataload\n        /* \"#utility.yul\":1219:1237   */\n      0xffffffffffffffff\n        /* \"#utility.yul\":1211:1217   */\n      dup2\n        /* \"#utility.yul\":1208:1238   */\n      gt\n        /* \"#utility.yul\":1205:1322   */\n      iszero\n      tag_93\n      jumpi\n        /* \"#utility.yul\":1241:1320   */\n      tag_94\n      tag_95\n      jump\t// in\n    tag_94:\n        /* \"#utility.yul\":1205:1322   */\n    tag_93:\n        /* \"#utility.yul\":1354:1419   */\n      tag_96\n        /* \"#utility.yul\":1411:1418   */\n      dup9\n        /* \"#utility.yul\":1402:1408   */\n      dup3\n        /* \"#utility.yul\":1391:1400   */\n      dup10\n        /* \"#utility.yul\":1387:1409   */\n      add\n        /* \"#utility.yul\":1354:1419   */\n      tag_74\n      jump\t// in\n    tag_96:\n        /* \"#utility.yul\":1336:1419   */\n      swap6\n      pop\n      swap6\n      pop\n        /* \"#utility.yul\":1132:1429   */\n      pop\n        /* \"#utility.yul\":1468:1470   */\n      0x20\n        /* \"#utility.yul\":1494:1544   */\n      tag_97\n        /* \"#utility.yul\":1536:1543   */\n      dup9\n        /* \"#utility.yul\":1527:1533   */\n      dup3\n        /* \"#utility.yul\":1516:1525   */\n      dup10\n        /* \"#utility.yul\":1512:1534   */\n      add\n        /* \"#utility.yul\":1494:1544   */\n      tag_70\n      jump\t// in\n    tag_97:\n        /* \"#utility.yul\":1484:1544   */\n      swap4\n      pop\n        /* \"#utility.yul\":1439:1554   */\n      pop\n        /* \"#utility.yul\":1593:1595   */\n      0x40\n        /* \"#utility.yul\":1619:1669   */\n      tag_98\n        /* \"#utility.yul\":1661:1668   */\n      dup9\n        /* \"#utility.yul\":1652:1658   */\n      dup3\n        /* \"#utility.yul\":1641:1650   */\n      dup10\n        /* \"#utility.yul\":1637:1659   */\n      add\n        /* \"#utility.yul\":1619:1669   */\n      tag_70\n      jump\t// in\n    tag_98:\n        /* \"#utility.yul\":1609:1669   */\n      swap3\n      pop\n        /* \"#utility.yul\":1564:1679   */\n      pop\n        /* \"#utility.yul\":1718:1720   */\n      0x60\n        /* \"#utility.yul\":1744:1794   */\n      tag_99\n        /* \"#utility.yul\":1786:1793   */\n      dup9\n        /* \"#utility.yul\":1777:1783   */\n      dup3\n        /* \"#utility.yul\":1766:1775   */\n      dup10\n        /* \"#utility.yul\":1762:1784   */\n      add\n        /* \"#utility.yul\":1744:1794   */\n      tag_70\n      jump\t// in\n    tag_99:\n        /* \"#utility.yul\":1734:1794   */\n      swap2\n      pop\n        /* \"#utility.yul\":1689:1804   */\n      pop\n        /* \"#utility.yul\":864:1811   */\n      swap3\n      swap6\n      pop\n      swap3\n      swap6\n      swap1\n      swap4\n      pop\n      jump\t// out\n        /* \"#utility.yul\":1817:2146   */\n    tag_8:\n        /* \"#utility.yul\":1876:1882   */\n      0x00\n        /* \"#utility.yul\":1925:1927   */\n      0x20\n        /* \"#utility.yul\":1913:1922   */\n      dup3\n        /* \"#utility.yul\":1904:1911   */\n      dup5\n        /* \"#utility.yul\":1900:1923   */\n      sub\n        /* \"#utility.yul\":1896:1928   */\n      slt\n        /* \"#utility.yul\":1893:2012   */\n      iszero\n      tag_101\n      jumpi\n        /* \"#utility.yul\":1931:2010   */\n      tag_102\n      tag_92\n      jump\t// in\n    tag_102:\n        /* \"#utility.yul\":1893:2012   */\n    tag_101:\n        /* \"#utility.yul\":2051:2052   */\n      0x00\n        /* \"#utility.yul\":2076:2129   */\n      tag_103\n        /* \"#utility.yul\":2121:2128   */\n      dup5\n        /* \"#utility.yul\":2112:2118   */\n      dup3\n        /* \"#utility.yul\":2101:2110   */\n      dup6\n        /* \"#utility.yul\":2097:2119   */\n      add\n        /* \"#utility.yul\":2076:2129   */\n      tag_85\n      jump\t// in\n    tag_103:\n        /* \"#utility.yul\":2066:2129   */\n      swap2\n      pop\n        /* \"#utility.yul\":2022:2139   */\n      pop\n        /* \"#utility.yul\":1817:2146   */\n      swap3\n      swap2\n      pop\n      pop\n      jump\t// out\n        /* \"#utility.yul\":2152:2261   */\n    tag_104:\n        /* \"#utility.yul\":2233:2254   */\n      tag_106\n        /* \"#utility.yul\":2248:2253   */\n      dup2\n        /* \"#utility.yul\":2233:2254   */\n      tag_107\n      jump\t// in\n    tag_106:\n        /* \"#utility.yul\":2228:2231   */\n      dup3\n        /* \"#utility.yul\":2221:2255   */\n      mstore\n        /* \"#utility.yul\":2152:2261   */\n      pop\n      pop\n      jump\t// out\n        /* \"#utility.yul\":2267:2631   */\n    tag_108:\n        /* \"#utility.yul\":2355:2358   */\n      0x00\n        /* \"#utility.yul\":2383:2422   */\n      tag_110\n        /* \"#utility.yul\":2416:2421   */\n      dup3\n        /* \"#utility.yul\":2383:2422   */\n      tag_111\n      jump\t// in\n    tag_110:\n        /* \"#utility.yul\":2438:2509   */\n      tag_112\n        /* \"#utility.yul\":2502:2508   */\n      dup2\n        /* \"#utility.yul\":2497:2500   */\n      dup6\n        /* \"#utility.yul\":2438:2509   */\n      tag_113\n      jump\t// in\n    tag_112:\n        /* \"#utility.yul\":2431:2509   */\n      swap4\n      pop\n        /* \"#utility.yul\":2518:2570   */\n      tag_114\n        /* \"#utility.yul\":2563:2569   */\n      dup2\n        /* \"#utility.yul\":2558:2561   */\n      dup6\n        /* \"#utility.yul\":2551:2555   */\n      0x20\n        /* \"#utility.yul\":2544:2549   */\n      dup7\n        /* \"#utility.yul\":2540:2556   */\n      add\n        /* \"#utility.yul\":2518:2570   */\n      tag_115\n      jump\t// in\n    tag_114:\n        /* \"#utility.yul\":2595:2624   */\n      tag_116\n        /* \"#utility.yul\":2617:2623   */\n      dup2\n        /* \"#utility.yul\":2595:2624   */\n      tag_117\n      jump\t// in\n    tag_116:\n        /* \"#utility.yul\":2590:2593   */\n      dup5\n        /* \"#utility.yul\":2586:2625   */\n      add\n        /* \"#utility.yul\":2579:2625   */\n      swap2\n      pop\n        /* \"#utility.yul\":2359:2631   */\n      pop\n        /* \"#utility.yul\":2267:2631   */\n      swap3\n      swap2\n      pop\n      pop\n      jump\t// out\n        /* \"#utility.yul\":2661:3463   */\n    tag_118:\n        /* \"#utility.yul\":2746:2749   */\n      0x00\n        /* \"#utility.yul\":2783:2788   */\n      dup2\n        /* \"#utility.yul\":2777:2789   */\n      sload\n        /* \"#utility.yul\":2812:2848   */\n      tag_120\n        /* \"#utility.yul\":2838:2847   */\n      dup2\n        /* \"#utility.yul\":2812:2848   */\n      tag_22\n      jump\t// in\n    tag_120:\n        /* \"#utility.yul\":2864:2935   */\n      tag_121\n        /* \"#utility.yul\":2928:2934   */\n      dup2\n        /* \"#utility.yul\":2923:2926   */\n      dup7\n        /* \"#utility.yul\":2864:2935   */\n      tag_113\n      jump\t// in\n    tag_121:\n        /* \"#utility.yul\":2857:2935   */\n      swap5\n      pop\n        /* \"#utility.yul\":2966:2967   */\n      0x01\n        /* \"#utility.yul\":2955:2964   */\n      dup3\n        /* \"#utility.yul\":2951:2968   */\n      and\n        /* \"#utility.yul\":2982:2983   */\n      0x00\n        /* \"#utility.yul\":2977:3112   */\n      dup2\n      eq\n      tag_123\n      jumpi\n        /* \"#utility.yul\":3126:3127   */\n      0x01\n        /* \"#utility.yul\":3121:3457   */\n      dup2\n      eq\n      tag_124\n      jumpi\n        /* \"#utility.yul\":2944:3457   */\n      jump(tag_122)\n        /* \"#utility.yul\":2977:3112   */\n    tag_123:\n        /* \"#utility.yul\":3061:3065   */\n      0xff\n        /* \"#utility.yul\":3057:3066   */\n      not\n        /* \"#utility.yul\":3046:3055   */\n      dup4\n        /* \"#utility.yul\":3042:3067   */\n      and\n        /* \"#utility.yul\":3037:3040   */\n      dup7\n        /* \"#utility.yul\":3030:3068   */\n      mstore\n        /* \"#utility.yul\":3097:3101   */\n      0x20\n        /* \"#utility.yul\":3092:3095   */\n      dup7\n        /* \"#utility.yul\":3088:3102   */\n      add\n        /* \"#utility.yul\":3081:3102   */\n      swap4\n      pop\n        /* \"#utility.yul\":2977:3112   */\n      jump(tag_122)\n        /* \"#utility.yul\":3121:3457   */\n    tag_124:\n        /* \"#utility.yul\":3188:3226   */\n      tag_125\n        /* \"#utility.yul\":3220:3225   */\n      dup6\n        /* \"#utility.yul\":3188:3226   */\n      tag_126\n      jump\t// in\n    tag_125:\n        /* \"#utility.yul\":3248:3249   */\n      0x00\n        /* \"#utility.yul\":3262:3416   */\n    tag_127:\n        /* \"#utility.yul\":3276:3282   */\n      dup4\n        /* \"#utility.yul\":3273:3274   */\n      dup2\n        /* \"#utility.yul\":3270:3283   */\n      lt\n        /* \"#utility.yul\":3262:3416   */\n      iszero\n      tag_129\n      jumpi\n        /* \"#utility.yul\":3350:3357   */\n      dup2\n        /* \"#utility.yul\":3344:3358   */\n      sload\n        /* \"#utility.yul\":3340:3341   */\n      dup2\n        /* \"#utility.yul\":3335:3338   */\n      dup10\n        /* \"#utility.yul\":3331:3342   */\n      add\n        /* \"#utility.yul\":3324:3359   */\n      mstore\n        /* \"#utility.yul\":3400:3401   */\n      0x01\n        /* \"#utility.yul\":3391:3398   */\n      dup3\n        /* \"#utility.yul\":3387:3402   */\n      add\n        /* \"#utility.yul\":3376:3402   */\n      swap2\n      pop\n        /* \"#utility.yul\":3298:3302   */\n      0x20\n        /* \"#utility.yul\":3295:3296   */\n      dup2\n        /* \"#utility.yul\":3291:3303   */\n      add\n        /* \"#utility.yul\":3286:3303   */\n      swap1\n      pop\n        /* \"#utility.yul\":3262:3416   */\n      jump(tag_127)\n    tag_129:\n        /* \"#utility.yul\":3445:3446   */\n      dup1\n        /* \"#utility.yul\":3440:3443   */\n      dup9\n        /* \"#utility.yul\":3436:3447   */\n      add\n        /* \"#utility.yul\":3429:3447   */\n      swap6\n      pop\n        /* \"#utility.yul\":3128:3457   */\n      pop\n      pop\n        /* \"#utility.yul\":2944:3457   */\n    tag_122:\n      pop\n        /* \"#utility.yul\":2750:3463   */\n      pop\n      pop\n        /* \"#utility.yul\":2661:3463   */\n      swap3\n      swap2\n      pop\n      pop\n      jump\t// out\n        /* \"#utility.yul\":3469:3835   */\n    tag_130:\n        /* \"#utility.yul\":3611:3614   */\n      0x00\n        /* \"#utility.yul\":3632:3699   */\n      tag_132\n        /* \"#utility.yul\":3696:3698   */\n      0x0d\n        /* \"#utility.yul\":3691:3694   */\n      dup4\n        /* \"#utility.yul\":3632:3699   */\n      tag_113\n      jump\t// in\n    tag_132:\n        /* \"#utility.yul\":3625:3699   */\n      swap2\n      pop\n        /* \"#utility.yul\":3708:3801   */\n      tag_133\n        /* \"#utility.yul\":3797:3800   */\n      dup3\n        /* \"#utility.yul\":3708:3801   */\n      tag_134\n      jump\t// in\n    tag_133:\n        /* \"#utility.yul\":3826:3828   */\n      0x20\n        /* \"#utility.yul\":3821:3824   */\n      dup3\n        /* \"#utility.yul\":3817:3829   */\n      add\n        /* \"#utility.yul\":3810:3829   */\n      swap1\n      pop\n        /* \"#utility.yul\":3469:3835   */\n      swap2\n      swap1\n      pop\n      jump\t// out\n        /* \"#utility.yul\":3841:3959   */\n    tag_135:\n        /* \"#utility.yul\":3928:3952   */\n      tag_137\n        /* \"#utility.yul\":3946:3951   */\n      dup2\n        /* \"#utility.yul\":3928:3952   */\n      tag_138\n      jump\t// in\n    tag_137:\n        /* \"#utility.yul\":3923:3926   */\n      dup3\n        /* \"#utility.yul\":3916:3953   */\n      mstore\n        /* \"#utility.yul\":3841:3959   */\n      pop\n      pop\n      jump\t// out\n        /* \"#utility.yul\":3965:4272   */\n    tag_49:\n        /* \"#utility.yul\":4075:4079   */\n      0x00\n        /* \"#utility.yul\":4113:4115   */\n      0x20\n        /* \"#utility.yul\":4102:4111   */\n      dup3\n        /* \"#utility.yul\":4098:4116   */\n      add\n        /* \"#utility.yul\":4090:4116   */\n      swap1\n      pop\n        /* \"#utility.yul\":4162:4171   */\n      dup2\n        /* \"#utility.yul\":4156:4160   */\n      dup2\n        /* \"#utility.yul\":4152:4172   */\n      sub\n        /* \"#utility.yul\":4148:4149   */\n      0x00\n        /* \"#utility.yul\":4137:4146   */\n      dup4\n        /* \"#utility.yul\":4133:4150   */\n      add\n        /* \"#utility.yul\":4126:4173   */\n      mstore\n        /* \"#utility.yul\":4190:4265   */\n      tag_140\n        /* \"#utility.yul\":4260:4264   */\n      dup2\n        /* \"#utility.yul\":4251:4257   */\n      dup5\n        /* \"#utility.yul\":4190:4265   */\n      tag_118\n      jump\t// in\n    tag_140:\n        /* \"#utility.yul\":4182:4265   */\n      swap1\n      pop\n        /* \"#utility.yul\":3965:4272   */\n      swap3\n      swap2\n      pop\n      pop\n      jump\t// out\n        /* \"#utility.yul\":4278:4695   */\n    tag_58:\n        /* \"#utility.yul\":4416:4420   */\n      0x00\n        /* \"#utility.yul\":4454:4456   */\n      0x40\n        /* \"#utility.yul\":4443:4452   */\n      dup3\n        /* \"#utility.yul\":4439:4457   */\n      add\n        /* \"#utility.yul\":4431:4457   */\n      swap1\n      pop\n        /* \"#utility.yul\":4503:4512   */\n      dup2\n        /* \"#utility.yul\":4497:4501   */\n      dup2\n        /* \"#utility.yul\":4493:4513   */\n      sub\n        /* \"#utility.yul\":4489:4490   */\n      0x00\n        /* \"#utility.yul\":4478:4487   */\n      dup4\n        /* \"#utility.yul\":4474:4491   */\n      add\n        /* \"#utility.yul\":4467:4514   */\n      mstore\n        /* \"#utility.yul\":4531:4606   */\n      tag_142\n        /* \"#utility.yul\":4601:4605   */\n      dup2\n        /* \"#utility.yul\":4592:4598   */\n      dup6\n        /* \"#utility.yul\":4531:4606   */\n      tag_118\n      jump\t// in\n    tag_142:\n        /* \"#utility.yul\":4523:4606   */\n      swap1\n      pop\n        /* \"#utility.yul\":4616:4688   */\n      tag_143\n        /* \"#utility.yul\":4684:4686   */\n      0x20\n        /* \"#utility.yul\":4673:4682   */\n      dup4\n        /* \"#utility.yul\":4669:4687   */\n      add\n        /* \"#utility.yul\":4660:4666   */\n      dup5\n        /* \"#utility.yul\":4616:4688   */\n      tag_135\n      jump\t// in\n    tag_143:\n        /* \"#utility.yul\":4278:4695   */\n      swap4\n      swap3\n      pop\n      pop\n      pop\n      jump\t// out\n        /* \"#utility.yul\":4701:5120   */\n    tag_42:\n        /* \"#utility.yul\":4867:4871   */\n      0x00\n        /* \"#utility.yul\":4905:4907   */\n      0x20\n        /* \"#utility.yul\":4894:4903   */\n      dup3\n        /* \"#utility.yul\":4890:4908   */\n      add\n        /* \"#utility.yul\":4882:4908   */\n      swap1\n      pop\n        /* \"#utility.yul\":4954:4963   */\n      dup2\n        /* \"#utility.yul\":4948:4952   */\n      dup2\n        /* \"#utility.yul\":4944:4964   */\n      sub\n        /* \"#utility.yul\":4940:4941   */\n      0x00\n        /* \"#utility.yul\":4929:4938   */\n      dup4\n        /* \"#utility.yul\":4925:4942   */\n      add\n        /* \"#utility.yul\":4918:4965   */\n      mstore\n        /* \"#utility.yul\":4982:5113   */\n      tag_145\n        /* \"#utility.yul\":5108:5112   */\n      dup2\n        /* \"#utility.yul\":4982:5113   */\n      tag_130\n      jump\t// in\n    tag_145:\n        /* \"#utility.yul\":4974:5113   */\n      swap1\n      pop\n        /* \"#utility.yul\":4701:5120   */\n      swap2\n      swap1\n      pop\n      jump\t// out\n        /* \"#utility.yul\":5126:6067   */\n    tag_11:\n        /* \"#utility.yul\":5389:5393   */\n      0x00\n        /* \"#utility.yul\":5427:5430   */\n      0xe0\n        /* \"#utility.yul\":5416:5425   */\n      dup3\n        /* \"#utility.yul\":5412:5431   */\n      add\n        /* \"#utility.yul\":5404:5431   */\n      swap1\n      pop\n        /* \"#utility.yul\":5441:5512   */\n      tag_147\n        /* \"#utility.yul\":5509:5510   */\n      0x00\n        /* \"#utility.yul\":5498:5507   */\n      dup4\n        /* \"#utility.yul\":5494:5511   */\n      add\n        /* \"#utility.yul\":5485:5491   */\n      dup11\n        /* \"#utility.yul\":5441:5512   */\n      tag_135\n      jump\t// in\n    tag_147:\n        /* \"#utility.yul\":5559:5568   */\n      dup2\n        /* \"#utility.yul\":5553:5557   */\n      dup2\n        /* \"#utility.yul\":5549:5569   */\n      sub\n        /* \"#utility.yul\":5544:5546   */\n      0x20\n        /* \"#utility.yul\":5533:5542   */\n      dup4\n        /* \"#utility.yul\":5529:5547   */\n      add\n        /* \"#utility.yul\":5522:5570   */\n      mstore\n        /* \"#utility.yul\":5587:5665   */\n      tag_148\n        /* \"#utility.yul\":5660:5664   */\n      dup2\n        /* \"#utility.yul\":5651:5657   */\n      dup10\n        /* \"#utility.yul\":5587:5665   */\n      tag_108\n      jump\t// in\n    tag_148:\n        /* \"#utility.yul\":5579:5665   */\n      swap1\n      pop\n        /* \"#utility.yul\":5675:5741   */\n      tag_149\n        /* \"#utility.yul\":5737:5739   */\n      0x40\n        /* \"#utility.yul\":5726:5735   */\n      dup4\n        /* \"#utility.yul\":5722:5740   */\n      add\n        /* \"#utility.yul\":5713:5719   */\n      dup9\n        /* \"#utility.yul\":5675:5741   */\n      tag_104\n      jump\t// in\n    tag_149:\n        /* \"#utility.yul\":5751:5817   */\n      tag_150\n        /* \"#utility.yul\":5813:5815   */\n      0x60\n        /* \"#utility.yul\":5802:5811   */\n      dup4\n        /* \"#utility.yul\":5798:5816   */\n      add\n        /* \"#utility.yul\":5789:5795   */\n      dup8\n        /* \"#utility.yul\":5751:5817   */\n      tag_104\n      jump\t// in\n    tag_150:\n        /* \"#utility.yul\":5827:5894   */\n      tag_151\n        /* \"#utility.yul\":5889:5892   */\n      0x80\n        /* \"#utility.yul\":5878:5887   */\n      dup4\n        /* \"#utility.yul\":5874:5893   */\n      add\n        /* \"#utility.yul\":5865:5871   */\n      dup7\n        /* \"#utility.yul\":5827:5894   */\n      tag_104\n      jump\t// in\n    tag_151:\n        /* \"#utility.yul\":5904:5977   */\n      tag_152\n        /* \"#utility.yul\":5972:5975   */\n      0xa0\n        /* \"#utility.yul\":5961:5970   */\n      dup4\n        /* \"#utility.yul\":5957:5976   */\n      add\n        /* \"#utility.yul\":5948:5954   */\n      dup6\n        /* \"#utility.yul\":5904:5977   */\n      tag_135\n      jump\t// in\n    tag_152:\n        /* \"#utility.yul\":5987:6060   */\n      tag_153\n        /* \"#utility.yul\":6055:6058   */\n      0xc0\n        /* \"#utility.yul\":6044:6053   */\n      dup4\n        /* \"#utility.yul\":6040:6059   */\n      add\n        /* \"#utility.yul\":6031:6037   */\n      dup5\n        /* \"#utility.yul\":5987:6060   */\n      tag_135\n      jump\t// in\n    tag_153:\n        /* \"#utility.yul\":5126:6067   */\n      swap9\n      swap8\n      pop\n      pop\n      pop\n      pop\n      pop\n      pop\n      pop\n      pop\n      jump\t// out\n        /* \"#utility.yul\":6073:6606   */\n    tag_38:\n        /* \"#utility.yul\":6242:6246   */\n      0x00\n        /* \"#utility.yul\":6280:6282   */\n      0x60\n        /* \"#utility.yul\":6269:6278   */\n      dup3\n        /* \"#utility.yul\":6265:6283   */\n      add\n        /* \"#utility.yul\":6257:6283   */\n      swap1\n      pop\n        /* \"#utility.yul\":6293:6364   */\n      tag_155\n        /* \"#utility.yul\":6361:6362   */\n      0x00\n        /* \"#utility.yul\":6350:6359   */\n      dup4\n        /* \"#utility.yul\":6346:6363   */\n      add\n        /* \"#utility.yul\":6337:6343   */\n      dup7\n        /* \"#utility.yul\":6293:6364   */\n      tag_135\n      jump\t// in\n    tag_155:\n        /* \"#utility.yul\":6411:6420   */\n      dup2\n        /* \"#utility.yul\":6405:6409   */\n      dup2\n        /* \"#utility.yul\":6401:6421   */\n      sub\n        /* \"#utility.yul\":6396:6398   */\n      0x20\n        /* \"#utility.yul\":6385:6394   */\n      dup4\n        /* \"#utility.yul\":6381:6399   */\n      add\n        /* \"#utility.yul\":6374:6422   */\n      mstore\n        /* \"#utility.yul\":6439:6517   */\n      tag_156\n        /* \"#utility.yul\":6512:6516   */\n      dup2\n        /* \"#utility.yul\":6503:6509   */\n      dup6\n        /* \"#utility.yul\":6439:6517   */\n      tag_108\n      jump\t// in\n    tag_156:\n        /* \"#utility.yul\":6431:6517   */\n      swap1\n      pop\n        /* \"#utility.yul\":6527:6599   */\n      tag_157\n        /* \"#utility.yul\":6595:6597   */\n      0x40\n        /* \"#utility.yul\":6584:6593   */\n      dup4\n        /* \"#utility.yul\":6580:6598   */\n      add\n        /* \"#utility.yul\":6571:6577   */\n      dup5\n        /* \"#utility.yul\":6527:6599   */\n      tag_135\n      jump\t// in\n    tag_157:\n        /* \"#utility.yul\":6073:6606   */\n      swap5\n      swap4\n      pop\n      pop\n      pop\n      pop\n      jump\t// out\n        /* \"#utility.yul\":6693:6834   */\n    tag_126:\n        /* \"#utility.yul\":6742:6746   */\n      0x00\n        /* \"#utility.yul\":6765:6768   */\n      dup2\n        /* \"#utility.yul\":6757:6768   */\n      swap1\n      pop\n        /* \"#utility.yul\":6788:6791   */\n      dup2\n        /* \"#utility.yul\":6785:6786   */\n      0x00\n        /* \"#utility.yul\":6778:6792   */\n      mstore\n        /* \"#utility.yul\":6822:6826   */\n      0x20\n        /* \"#utility.yul\":6819:6820   */\n      0x00\n        /* \"#utility.yul\":6809:6827   */\n      keccak256\n        /* \"#utility.yul\":6801:6827   */\n      swap1\n      pop\n        /* \"#utility.yul\":6693:6834   */\n      swap2\n      swap1\n      pop\n      jump\t// out\n        /* \"#utility.yul\":6840:6939   */\n    tag_111:\n        /* \"#utility.yul\":6892:6898   */\n      0x00\n        /* \"#utility.yul\":6926:6931   */\n      dup2\n        /* \"#utility.yul\":6920:6932   */\n      mload\n        /* \"#utility.yul\":6910:6932   */\n      swap1\n      pop\n        /* \"#utility.yul\":6840:6939   */\n      swap2\n      swap1\n      pop\n      jump\t// out\n        /* \"#utility.yul\":6945:7114   */\n    tag_113:\n        /* \"#utility.yul\":7029:7040   */\n      0x00\n        /* \"#utility.yul\":7063:7069   */\n      dup3\n        /* \"#utility.yul\":7058:7061   */\n      dup3\n        /* \"#utility.yul\":7051:7070   */\n      mstore\n        /* \"#utility.yul\":7103:7107   */\n      0x20\n        /* \"#utility.yul\":7098:7101   */\n      dup3\n        /* \"#utility.yul\":7094:7108   */\n      add\n        /* \"#utility.yul\":7079:7108   */\n      swap1\n      pop\n        /* \"#utility.yul\":6945:7114   */\n      swap3\n      swap2\n      pop\n      pop\n      jump\t// out\n        /* \"#utility.yul\":7120:7425   */\n    tag_33:\n        /* \"#utility.yul\":7160:7163   */\n      0x00\n        /* \"#utility.yul\":7179:7199   */\n      tag_164\n        /* \"#utility.yul\":7197:7198   */\n      dup3\n        /* \"#utility.yul\":7179:7199   */\n      tag_138\n      jump\t// in\n    tag_164:\n        /* \"#utility.yul\":7174:7199   */\n      swap2\n      pop\n        /* \"#utility.yul\":7213:7233   */\n      tag_165\n        /* \"#utility.yul\":7231:7232   */\n      dup4\n        /* \"#utility.yul\":7213:7233   */\n      tag_138\n      jump\t// in\n    tag_165:\n        /* \"#utility.yul\":7208:7233   */\n      swap3\n      pop\n        /* \"#utility.yul\":7367:7368   */\n      dup3\n        /* \"#utility.yul\":7299:7365   */\n      0xffffffffffffffffffffffffffffffffffffffffffffffffffffffffffffffff\n        /* \"#utility.yul\":7295:7369   */\n      sub\n        /* \"#utility.yul\":7292:7293   */\n      dup3\n        /* \"#utility.yul\":7289:7370   */\n      gt\n        /* \"#utility.yul\":7286:7393   */\n      iszero\n      tag_166\n      jumpi\n        /* \"#utility.yul\":7373:7391   */\n      tag_167\n      tag_168\n      jump\t// in\n    tag_167:\n        /* \"#utility.yul\":7286:7393   */\n    tag_166:\n        /* \"#utility.yul\":7417:7418   */\n      dup3\n        /* \"#utility.yul\":7414:7415   */\n      dup3\n        /* \"#utility.yul\":7410:7419   */\n      add\n        /* \"#utility.yul\":7403:7419   */\n      swap1\n      pop\n        /* \"#utility.yul\":7120:7425   */\n      swap3\n      swap2\n      pop\n      pop\n      jump\t// out\n        /* \"#utility.yul\":7431:7622   */\n    tag_30:\n        /* \"#utility.yul\":7471:7475   */\n      0x00\n        /* \"#utility.yul\":7491:7511   */\n      tag_170\n        /* \"#utility.yul\":7509:7510   */\n      dup3\n        /* \"#utility.yul\":7491:7511   */\n      tag_138\n      jump\t// in\n    tag_170:\n        /* \"#utility.yul\":7486:7511   */\n      swap2\n      pop\n        /* \"#utility.yul\":7525:7545   */\n      tag_171\n        /* \"#utility.yul\":7543:7544   */\n      dup4\n        /* \"#utility.yul\":7525:7545   */\n      tag_138\n      jump\t// in\n    tag_171:\n        /* \"#utility.yul\":7520:7545   */\n      swap3\n      pop\n        /* \"#utility.yul\":7564:7565   */\n      dup3\n        /* \"#utility.yul\":7561:7562   */\n      dup3\n        /* \"#utility.yul\":7558:7566   */\n      lt\n        /* \"#utility.yul\":7555:7589   */\n      iszero\n      tag_172\n      jumpi\n        /* \"#utility.yul\":7569:7587   */\n      tag_173\n      tag_168\n      jump\t// in\n    tag_173:\n        /* \"#utility.yul\":7555:7589   */\n    tag_172:\n        /* \"#utility.yul\":7614:7615   */\n      dup3\n        /* \"#utility.yul\":7611:7612   */\n      dup3\n        /* \"#utility.yul\":7607:7616   */\n      sub\n        /* \"#utility.yul\":7599:7616   */\n      swap1\n      pop\n        /* \"#utility.yul\":7431:7622   */\n      swap3\n      swap2\n      pop\n      pop\n      jump\t// out\n        /* \"#utility.yul\":7628:7718   */\n    tag_107:\n        /* \"#utility.yul\":7662:7669   */\n      0x00\n        /* \"#utility.yul\":7705:7710   */\n      dup2\n        /* \"#utility.yul\":7698:7711   */\n      iszero\n        /* \"#utility.yul\":7691:7712   */\n      iszero\n        /* \"#utility.yul\":7680:7712   */\n      swap1\n      pop\n        /* \"#utility.yul\":7628:7718   */\n      swap2\n      swap1\n      pop\n      jump\t// out\n        /* \"#utility.yul\":7724:7801   */\n    tag_138:\n        /* \"#utility.yul\":7761:7768   */\n      0x00\n        /* \"#utility.yul\":7790:7795   */\n      dup2\n        /* \"#utility.yul\":7779:7795   */\n      swap1\n      pop\n        /* \"#utility.yul\":7724:7801   */\n      swap2\n      swap1\n      pop\n      jump\t// out\n        /* \"#utility.yul\":7807:8114   */\n    tag_115:\n        /* \"#utility.yul\":7875:7876   */\n      0x00\n        /* \"#utility.yul\":7885:7998   */\n    tag_177:\n        /* \"#utility.yul\":7899:7905   */\n      dup4\n        /* \"#utility.yul\":7896:7897   */\n      dup2\n        /* \"#utility.yul\":7893:7906   */\n      lt\n        /* \"#utility.yul\":7885:7998   */\n      iszero\n      tag_179\n      jumpi\n        /* \"#utility.yul\":7984:7985   */\n      dup1\n        /* \"#utility.yul\":7979:7982   */\n      dup3\n        /* \"#utility.yul\":7975:7986   */\n      add\n        /* \"#utility.yul\":7969:7987   */\n      mload\n        /* \"#utility.yul\":7965:7966   */\n      dup2\n        /* \"#utility.yul\":7960:7963   */\n      dup5\n        /* \"#utility.yul\":7956:7967   */\n      add\n        /* \"#utility.yul\":7949:7988   */\n      mstore\n        /* \"#utility.yul\":7921:7923   */\n      0x20\n        /* \"#utility.yul\":7918:7919   */\n      dup2\n        /* \"#utility.yul\":7914:7924   */\n      add\n        /* \"#utility.yul\":7909:7924   */\n      swap1\n      pop\n        /* \"#utility.yul\":7885:7998   */\n      jump(tag_177)\n    tag_179:\n        /* \"#utility.yul\":8016:8022   */\n      dup4\n        /* \"#utility.yul\":8013:8014   */\n      dup2\n        /* \"#utility.yul\":8010:8023   */\n      gt\n        /* \"#utility.yul\":8007:8108   */\n      iszero\n      tag_180\n      jumpi\n        /* \"#utility.yul\":8096:8097   */\n      0x00\n        /* \"#utility.yul\":8087:8093   */\n      dup5\n        /* \"#utility.yul\":8082:8085   */\n      dup5\n        /* \"#utility.yul\":8078:8094   */\n      add\n        /* \"#utility.yul\":8071:8098   */\n      mstore\n        /* \"#utility.yul\":8007:8108   */\n    tag_180:\n        /* \"#utility.yul\":7856:8114   */\n      pop\n        /* \"#utility.yul\":7807:8114   */\n      pop\n      pop\n      pop\n      jump\t// out\n        /* \"#utility.yul\":8120:8440   */\n    tag_22:\n        /* \"#utility.yul\":8164:8170   */\n      0x00\n        /* \"#utility.yul\":8201:8202   */\n      0x02\n        /* \"#utility.yul\":8195:8199   */\n      dup3\n        /* \"#utility.yul\":8191:8203   */\n      div\n        /* \"#utility.yul\":8181:8203   */\n      swap1\n      pop\n        /* \"#utility.yul\":8248:8249   */\n      0x01\n        /* \"#utility.yul\":8242:8246   */\n      dup3\n        /* \"#utility.yul\":8238:8250   */\n      and\n        /* \"#utility.yul\":8269:8287   */\n      dup1\n        /* \"#utility.yul\":8259:8340   */\n      tag_182\n      jumpi\n        /* \"#utility.yul\":8325:8329   */\n      0x7f\n        /* \"#utility.yul\":8317:8323   */\n      dup3\n        /* \"#utility.yul\":8313:8330   */\n      and\n        /* \"#utility.yul\":8303:8330   */\n      swap2\n      pop\n        /* \"#utility.yul\":8259:8340   */\n    tag_182:\n        /* \"#utility.yul\":8387:8389   */\n      0x20\n        /* \"#utility.yul\":8379:8385   */\n      dup3\n        /* \"#utility.yul\":8376:8390   */\n      lt\n        /* \"#utility.yul\":8356:8374   */\n      dup2\n        /* \"#utility.yul\":8353:8391   */\n      eq\n        /* \"#utility.yul\":8350:8434   */\n      iszero\n      tag_183\n      jumpi\n        /* \"#utility.yul\":8406:8424   */\n      tag_184\n      tag_185\n      jump\t// in\n    tag_184:\n        /* \"#utility.yul\":8350:8434   */\n    tag_183:\n        /* \"#utility.yul\":8171:8440   */\n      pop\n        /* \"#utility.yul\":8120:8440   */\n      swap2\n      swap1\n      pop\n      jump\t// out\n        /* \"#utility.yul\":8446:8626   */\n    tag_168:\n        /* \"#utility.yul\":8494:8571   */\n      0x4e487b7100000000000000000000000000000000000000000000000000000000\n        /* \"#utility.yul\":8491:8492   */\n      0x00\n        /* \"#utility.yul\":8484:8572   */\n      mstore\n        /* \"#utility.yul\":8591:8595   */\n      0x11\n        /* \"#utility.yul\":8588:8589   */\n      0x04\n        /* \"#utility.yul\":8581:8596   */\n      mstore\n        /* \"#utility.yul\":8615:8619   */\n      0x24\n        /* \"#utility.yul\":8612:8613   */\n      0x00\n        /* \"#utility.yul\":8605:8620   */\n      revert\n        /* \"#utility.yul\":8632:8812   */\n    tag_185:\n        /* \"#utility.yul\":8680:8757   */\n      0x4e487b7100000000000000000000000000000000000000000000000000000000\n        /* \"#utility.yul\":8677:8678   */\n      0x00\n        /* \"#utility.yul\":8670:8758   */\n      mstore\n        /* \"#utility.yul\":8777:8781   */\n      0x22\n        /* \"#utility.yul\":8774:8775   */\n      0x04\n        /* \"#utility.yul\":8767:8782   */\n      mstore\n        /* \"#utility.yul\":8801:8805   */\n      0x24\n        /* \"#utility.yul\":8798:8799   */\n      0x00\n        /* \"#utility.yul\":8791:8806   */\n      revert\n        /* \"#utility.yul\":8818:8998   */\n    tag_45:\n        /* \"#utility.yul\":8866:8943   */\n      0x4e487b7100000000000000000000000000000000000000000000000000000000\n        /* \"#utility.yul\":8863:8864   */\n      0x00\n        /* \"#utility.yul\":8856:8944   */\n      mstore\n        /* \"#utility.yul\":8963:8967   */\n      0x32\n        /* \"#utility.yul\":8960:8961   */\n      0x04\n        /* \"#utility.yul\":8953:8968   */\n      mstore\n        /* \"#utility.yul\":8987:8991   */\n      0x24\n        /* \"#utility.yul\":8984:8985   */\n      0x00\n        /* \"#utility.yul\":8977:8992   */\n      revert\n        /* \"#utility.yul\":9004:9121   */\n    tag_81:\n        /* \"#utility.yul\":9113:9114   */\n      0x00\n        /* \"#utility.yul\":9110:9111   */\n      dup1\n        /* \"#utility.yul\":9103:9115   */\n      revert\n        /* \"#utility.yul\":9127:9244   */\n    tag_78:\n        /* \"#utility.yul\":9236:9237   */\n      0x00\n        /* \"#utility.yul\":9233:9234   */\n      dup1\n        /* \"#utility.yul\":9226:9238   */\n      revert\n        /* \"#utility.yul\":9250:9367   */\n    tag_84:\n        /* \"#utility.yul\":9359:9360   */\n      0x00\n        /* \"#utility.yul\":9356:9357   */\n      dup1\n        /* \"#utility.yul\":9349:9361   */\n      revert\n        /* \"#utility.yul\":9373:9490   */\n    tag_95:\n        /* \"#utility.yul\":9482:9483   */\n      0x00\n        /* \"#utility.yul\":9479:9480   */\n      dup1\n        /* \"#utility.yul\":9472:9484   */\n      revert\n        /* \"#utility.yul\":9496:9613   */\n    tag_92:\n        /* \"#utility.yul\":9605:9606   */\n      0x00\n        /* \"#utility.yul\":9602:9603   */\n      dup1\n        /* \"#utility.yul\":9595:9607   */\n      revert\n        /* \"#utility.yul\":9619:9721   */\n    tag_117:\n        /* \"#utility.yul\":9660:9666   */\n      0x00\n        /* \"#utility.yul\":9711:9713   */\n      0x1f\n        /* \"#utility.yul\":9707:9714   */\n      not\n        /* \"#utility.yul\":9702:9704   */\n      0x1f\n        /* \"#utility.yul\":9695:9700   */\n      dup4\n        /* \"#utility.yul\":9691:9705   */\n      add\n        /* \"#utility.yul\":9687:9715   */\n      and\n        /* \"#utility.yul\":9677:9715   */\n      swap1\n      pop\n        /* \"#utility.yul\":9619:9721   */\n      swap2\n      swap1\n      pop\n      jump\t// out\n        /* \"#utility.yul\":9727:9890   */\n    tag_134:\n        /* \"#utility.yul\":9867:9882   */\n      0x496e636f72726563742069642e00000000000000000000000000000000000000\n        /* \"#utility.yul\":9863:9864   */\n      0x00\n        /* \"#utility.yul\":9855:9861   */\n      dup3\n        /* \"#utility.yul\":9851:9865   */\n      add\n        /* \"#utility.yul\":9844:9883   */\n      mstore\n        /* \"#utility.yul\":9727:9890   */\n      pop\n      jump\t// out\n        /* \"#utility.yul\":9896:10012   */\n    tag_73:\n        /* \"#utility.yul\":9966:9987   */\n      tag_197\n        /* \"#utility.yul\":9981:9986   */\n      dup2\n        /* \"#utility.yul\":9966:9987   */\n      tag_107\n      jump\t// in\n    tag_197:\n        /* \"#utility.yul\":9959:9964   */\n      dup2\n        /* \"#utility.yul\":9956:9988   */\n      eq\n        /* \"#utility.yul\":9946:10006   */\n      tag_198\n      jumpi\n        /* \"#utility.yul\":10002:10003   */\n      0x00\n        /* \"#utility.yul\":9999:10000   */\n      dup1\n        /* \"#utility.yul\":9992:10004   */\n      revert\n        /* \"#utility.yul\":9946:10006   */\n    tag_198:\n        /* \"#utility.yul\":9896:10012   */\n      pop\n      jump\t// out\n        /* \"#utility.yul\":10018:10140   */\n    tag_88:\n        /* \"#utility.yul\":10091:10115   */\n      tag_200\n        /* \"#utility.yul\":10109:10114   */\n      dup2\n        /* \"#utility.yul\":10091:10115   */\n      tag_138\n      jump\t// in\n    tag_200:\n        /* \"#utility.yul\":10084:10089   */\n      dup2\n        /* \"#utility.yul\":10081:10116   */\n      eq\n        /* \"#utility.yul\":10071:10134   */\n      tag_201\n      jumpi\n        /* \"#utility.yul\":10130:10131   */\n      0x00\n        /* \"#utility.yul\":10127:10128   */\n      dup1\n        /* \"#utility.yul\":10120:10132   */\n      revert\n        /* \"#utility.yul\":10071:10134   */\n    tag_201:\n        /* \"#utility.yul\":10018:10140   */\n      pop\n      jump\t// out\n\n    auxdata: 0xa26469706673582212206ed217701650cf5b8768a9351182c2d50e84ec5fe4e4737d490211aca08103da64736f6c63430008070033\n}\n",
				"bytecode": {
					"linkReferences": {},
					"object": "608060405234801561001057600080fd5b50336000806101000a81548173ffffffffffffffffffffffffffffffffffffffff021916908373ffffffffffffffffffffffffffffffffffffffff160217905550610c06806100606000396000f3fe608060405234801561001057600080fd5b50600436106100415760003560e01c806306ead22e14610046578063344d2d4a1461007c5780633d5c83d414610098575b600080fd5b610060600480360381019061005b919061073f565b6100b4565b60405161007397969594939291906108d8565b60405180910390f35b610096600480360381019061009191906106b7565b6101b5565b005b6100b260048036038101906100ad919061073f565b61038a565b005b600181815481106100c457600080fd5b90600052602060002090600502016000915090508060000154908060010180546100ed90610a90565b80601f016020809104026020016040519081016040528092919081815260200182805461011990610a90565b80156101665780601f1061013b57610100808354040283529160200191610166565b820191906000526020600020905b81548152906001019060200180831161014957829003601f168201915b5050505050908060020160009054906101000a900460ff16908060020160019054906101000a900460ff16908060020160029054906101000a900460ff16908060030154908060040154905087565b600080600180549050146101d957600180805490506101d49190610a13565b6101e0565b6001805490505b905060006040518060e0016040528083815260200188888080601f016020809104026020016040519081016040528093929190818152602001838380828437600081840152601f19601f8201169050808301925050505050505081526020018615158152602001851515815260200184151581526020014281526020016203f4804261026c91906109bd565b815250905060018190806001815401808255809150506001900390600052602060002090600502016000909190919091506000820151816000015560208201518160010190805190602001906102c3929190610594565b5060408201518160020160006101000a81548160ff02191690831515021790555060608201518160020160016101000a81548160ff02191690831515021790555060808201518160020160026101000a81548160ff02191690831515021790555060a0820151816003015560c0820151816004015550507ffafb7311fc57ca8a55073f63725e888b4250c799d77ae873970d65ac08c5917a816000015182602001518360a001516040516103799392919061094e565b60405180910390a150505050505050565b60008110156103ce576040517f08c379a00000000000000000000000000000000000000000000000000000000081526004016103c5906108b8565b60405180910390fd5b6000600182815481106103e4576103e3610b20565b5b90600052602060002090600502019050600015158160020160009054906101000a900460ff161515141561044d577fd53ecb21746e36da81ddab5bdcf35c93b4e7adb500e38a0ce440f729de177ac5816001016040516104449190610866565b60405180910390a15b600015158160020160019054906101000a900460ff16151514156104a6577fd53ecb21746e36da81ddab5bdcf35c93b4e7adb500e38a0ce440f729de177ac58160010160405161049d9190610866565b60405180910390a15b600015158160020160029054906101000a900460ff16151514156104ff577fd53ecb21746e36da81ddab5bdcf35c93b4e7adb500e38a0ce440f729de177ac5816001016040516104f69190610866565b60405180910390a15b426203f480826003015461051391906109bd565b1115610554577fd53ecb21746e36da81ddab5bdcf35c93b4e7adb500e38a0ce440f729de177ac58160010160405161054b9190610866565b60405180910390a15b7f6fd4822621c89040f0ea90264351e7f95d334eb76155286b2c1b6732331ff93c8160010142604051610588929190610888565b60405180910390a15050565b8280546105a090610a90565b90600052602060002090601f0160209004810192826105c25760008555610609565b82601f106105db57805160ff1916838001178555610609565b82800160010185558215610609579182015b828111156106085782518255916020019190600101906105ed565b5b509050610616919061061a565b5090565b5b8082111561063357600081600090555060010161061b565b5090565b60008135905061064681610ba2565b92915050565b60008083601f84011261066257610661610b54565b5b8235905067ffffffffffffffff81111561067f5761067e610b4f565b5b60208301915083600182028301111561069b5761069a610b59565b5b9250929050565b6000813590506106b181610bb9565b92915050565b6000806000806000608086880312156106d3576106d2610b63565b5b600086013567ffffffffffffffff8111156106f1576106f0610b5e565b5b6106fd8882890161064c565b9550955050602061071088828901610637565b935050604061072188828901610637565b925050606061073288828901610637565b9150509295509295909350565b60006020828403121561075557610754610b63565b5b6000610763848285016106a2565b91505092915050565b61077581610a47565b82525050565b6000610786826109a1565b61079081856109ac565b93506107a0818560208601610a5d565b6107a981610b68565b840191505092915050565b600081546107c181610a90565b6107cb81866109ac565b945060018216600081146107e657600181146107f85761082b565b60ff198316865260208601935061082b565b6108018561098c565b60005b8381101561082357815481890152600182019150602081019050610804565b808801955050505b50505092915050565b6000610841600d836109ac565b915061084c82610b79565b602082019050919050565b61086081610a53565b82525050565b6000602082019050818103600083015261088081846107b4565b905092915050565b600060408201905081810360008301526108a281856107b4565b90506108b16020830184610857565b9392505050565b600060208201905081810360008301526108d181610834565b9050919050565b600060e0820190506108ed600083018a610857565b81810360208301526108ff818961077b565b905061090e604083018861076c565b61091b606083018761076c565b610928608083018661076c565b61093560a0830185610857565b61094260c0830184610857565b98975050505050505050565b60006060820190506109636000830186610857565b8181036020830152610975818561077b565b90506109846040830184610857565b949350505050565b60008190508160005260206000209050919050565b600081519050919050565b600082825260208201905092915050565b60006109c882610a53565b91506109d383610a53565b9250827fffffffffffffffffffffffffffffffffffffffffffffffffffffffffffffffff03821115610a0857610a07610ac2565b5b828201905092915050565b6000610a1e82610a53565b9150610a2983610a53565b925082821015610a3c57610a3b610ac2565b5b828203905092915050565b60008115159050919050565b6000819050919050565b60005b83811015610a7b578082015181840152602081019050610a60565b83811115610a8a576000848401525b50505050565b60006002820490506001821680610aa857607f821691505b60208210811415610abc57610abb610af1565b5b50919050565b7f4e487b7100000000000000000000000000000000000000000000000000000000600052601160045260246000fd5b7f4e487b7100000000000000000000000000000000000000000000000000000000600052602260045260246000fd5b7f4e487b7100000000000000000000000000000000000000000000000000000000600052603260045260246000fd5b600080fd5b600080fd5b600080fd5b600080fd5b600080fd5b6000601f19601f8301169050919050565b7f496e636f72726563742069642e00000000000000000000000000000000000000600082015250565b610bab81610a47565b8114610bb657600080fd5b50565b610bc281610a53565b8114610bcd57600080fd5b5056fea26469706673582212206ed217701650cf5b8768a9351182c2d50e84ec5fe4e4737d490211aca08103da64736f6c63430008070033",
					"opcodes": "PUSH1 0x80 PUSH1 0x40 MSTORE CALLVALUE DUP1 ISZERO PUSH2 0x10 JUMPI PUSH1 0x0 DUP1 REVERT JUMPDEST POP CALLER PUSH1 0x0 DUP1 PUSH2 0x100 EXP DUP2 SLOAD DUP2 PUSH20 0xFFFFFFFFFFFFFFFFFFFFFFFFFFFFFFFFFFFFFFFF MUL NOT AND SWAP1 DUP4 PUSH20 0xFFFFFFFFFFFFFFFFFFFFFFFFFFFFFFFFFFFFFFFF AND MUL OR SWAP1 SSTORE POP PUSH2 0xC06 DUP1 PUSH2 0x60 PUSH1 0x0 CODECOPY PUSH1 0x0 RETURN INVALID PUSH1 0x80 PUSH1 0x40 MSTORE CALLVALUE DUP1 ISZERO PUSH2 0x10 JUMPI PUSH1 0x0 DUP1 REVERT JUMPDEST POP PUSH1 0x4 CALLDATASIZE LT PUSH2 0x41 JUMPI PUSH1 0x0 CALLDATALOAD PUSH1 0xE0 SHR DUP1 PUSH4 0x6EAD22E EQ PUSH2 0x46 JUMPI DUP1 PUSH4 0x344D2D4A EQ PUSH2 0x7C JUMPI DUP1 PUSH4 0x3D5C83D4 EQ PUSH2 0x98 JUMPI JUMPDEST PUSH1 0x0 DUP1 REVERT JUMPDEST PUSH2 0x60 PUSH1 0x4 DUP1 CALLDATASIZE SUB DUP2 ADD SWAP1 PUSH2 0x5B SWAP2 SWAP1 PUSH2 0x73F JUMP JUMPDEST PUSH2 0xB4 JUMP JUMPDEST PUSH1 0x40 MLOAD PUSH2 0x73 SWAP8 SWAP7 SWAP6 SWAP5 SWAP4 SWAP3 SWAP2 SWAP1 PUSH2 0x8D8 JUMP JUMPDEST PUSH1 0x40 MLOAD DUP1 SWAP2 SUB SWAP1 RETURN JUMPDEST PUSH2 0x96 PUSH1 0x4 DUP1 CALLDATASIZE SUB DUP2 ADD SWAP1 PUSH2 0x91 SWAP2 SWAP1 PUSH2 0x6B7 JUMP JUMPDEST PUSH2 0x1B5 JUMP JUMPDEST STOP JUMPDEST PUSH2 0xB2 PUSH1 0x4 DUP1 CALLDATASIZE SUB DUP2 ADD SWAP1 PUSH2 0xAD SWAP2 SWAP1 PUSH2 0x73F JUMP JUMPDEST PUSH2 0x38A JUMP JUMPDEST STOP JUMPDEST PUSH1 0x1 DUP2 DUP2 SLOAD DUP2 LT PUSH2 0xC4 JUMPI PUSH1 0x0 DUP1 REVERT JUMPDEST SWAP1 PUSH1 0x0 MSTORE PUSH1 0x20 PUSH1 0x0 KECCAK256 SWAP1 PUSH1 0x5 MUL ADD PUSH1 0x0 SWAP2 POP SWAP1 POP DUP1 PUSH1 0x0 ADD SLOAD SWAP1 DUP1 PUSH1 0x1 ADD DUP1 SLOAD PUSH2 0xED SWAP1 PUSH2 0xA90 JUMP JUMPDEST DUP1 PUSH1 0x1F ADD PUSH1 0x20 DUP1 SWAP2 DIV MUL PUSH1 0x20 ADD PUSH1 0x40 MLOAD SWAP1 DUP2 ADD PUSH1 0x40 MSTORE DUP1 SWAP3 SWAP2 SWAP1 DUP2 DUP2 MSTORE PUSH1 0x20 ADD DUP3 DUP1 SLOAD PUSH2 0x119 SWAP1 PUSH2 0xA90 JUMP JUMPDEST DUP1 ISZERO PUSH2 0x166 JUMPI DUP1 PUSH1 0x1F LT PUSH2 0x13B JUMPI PUSH2 0x100 DUP1 DUP4 SLOAD DIV MUL DUP4 MSTORE SWAP2 PUSH1 0x20 ADD SWAP2 PUSH2 0x166 JUMP JUMPDEST DUP3 ADD SWAP2 SWAP1 PUSH1 0x0 MSTORE PUSH1 0x20 PUSH1 0x0 KECCAK256 SWAP1 JUMPDEST DUP2 SLOAD DUP2 MSTORE SWAP1 PUSH1 0x1 ADD SWAP1 PUSH1 0x20 ADD DUP1 DUP4 GT PUSH2 0x149 JUMPI DUP3 SWAP1 SUB PUSH1 0x1F AND DUP3 ADD SWAP2 JUMPDEST POP POP POP POP POP SWAP1 DUP1 PUSH1 0x2 ADD PUSH1 0x0 SWAP1 SLOAD SWAP1 PUSH2 0x100 EXP SWAP1 DIV PUSH1 0xFF AND SWAP1 DUP1 PUSH1 0x2 ADD PUSH1 0x1 SWAP1 SLOAD SWAP1 PUSH2 0x100 EXP SWAP1 DIV PUSH1 0xFF AND SWAP1 DUP1 PUSH1 0x2 ADD PUSH1 0x2 SWAP1 SLOAD SWAP1 PUSH2 0x100 EXP SWAP1 DIV PUSH1 0xFF AND SWAP1 DUP1 PUSH1 0x3 ADD SLOAD SWAP1 DUP1 PUSH1 0x4 ADD SLOAD SWAP1 POP DUP8 JUMP JUMPDEST PUSH1 0x0 DUP1 PUSH1 0x1 DUP1 SLOAD SWAP1 POP EQ PUSH2 0x1D9 JUMPI PUSH1 0x1 DUP1 DUP1 SLOAD SWAP1 POP PUSH2 0x1D4 SWAP2 SWAP1 PUSH2 0xA13 JUMP JUMPDEST PUSH2 0x1E0 JUMP JUMPDEST PUSH1 0x1 DUP1 SLOAD SWAP1 POP JUMPDEST SWAP1 POP PUSH1 0x0 PUSH1 0x40 MLOAD DUP1 PUSH1 0xE0 ADD PUSH1 0x40 MSTORE DUP1 DUP4 DUP2 MSTORE PUSH1 0x20 ADD DUP9 DUP9 DUP1 DUP1 PUSH1 0x1F ADD PUSH1 0x20 DUP1 SWAP2 DIV MUL PUSH1 0x20 ADD PUSH1 0x40 MLOAD SWAP1 DUP2 ADD PUSH1 0x40 MSTORE DUP1 SWAP4 SWAP3 SWAP2 SWAP1 DUP2 DUP2 MSTORE PUSH1 0x20 ADD DUP4 DUP4 DUP1 DUP3 DUP5 CALLDATACOPY PUSH1 0x0 DUP2 DUP5 ADD MSTORE PUSH1 0x1F NOT PUSH1 0x1F DUP3 ADD AND SWAP1 POP DUP1 DUP4 ADD SWAP3 POP POP POP POP POP POP POP DUP2 MSTORE PUSH1 0x20 ADD DUP7 ISZERO ISZERO DUP2 MSTORE PUSH1 0x20 ADD DUP6 ISZERO ISZERO DUP2 MSTORE PUSH1 0x20 ADD DUP5 ISZERO ISZERO DUP2 MSTORE PUSH1 0x20 ADD TIMESTAMP DUP2 MSTORE PUSH1 0x20 ADD PUSH3 0x3F480 TIMESTAMP PUSH2 0x26C SWAP2 SWAP1 PUSH2 0x9BD JUMP JUMPDEST DUP2 MSTORE POP SWAP1 POP PUSH1 0x1 DUP2 SWAP1 DUP1 PUSH1 0x1 DUP2 SLOAD ADD DUP1 DUP3 SSTORE DUP1 SWAP2 POP POP PUSH1 0x1 SWAP1 SUB SWAP1 PUSH1 0x0 MSTORE PUSH1 0x20 PUSH1 0x0 KECCAK256 SWAP1 PUSH1 0x5 MUL ADD PUSH1 0x0 SWAP1 SWAP2 SWAP1 SWAP2 SWAP1 SWAP2 POP PUSH1 0x0 DUP3 ADD MLOAD DUP2 PUSH1 0x0 ADD SSTORE PUSH1 0x20 DUP3 ADD MLOAD DUP2 PUSH1 0x1 ADD SWAP1 DUP1 MLOAD SWAP1 PUSH1 0x20 ADD SWAP1 PUSH2 0x2C3 SWAP3 SWAP2 SWAP1 PUSH2 0x594 JUMP JUMPDEST POP PUSH1 0x40 DUP3 ADD MLOAD DUP2 PUSH1 0x2 ADD PUSH1 0x0 PUSH2 0x100 EXP DUP2 SLOAD DUP2 PUSH1 0xFF MUL NOT AND SWAP1 DUP4 ISZERO ISZERO MUL OR SWAP1 SSTORE POP PUSH1 0x60 DUP3 ADD MLOAD DUP2 PUSH1 0x2 ADD PUSH1 0x1 PUSH2 0x100 EXP DUP2 SLOAD DUP2 PUSH1 0xFF MUL NOT AND SWAP1 DUP4 ISZERO ISZERO MUL OR SWAP1 SSTORE POP PUSH1 0x80 DUP3 ADD MLOAD DUP2 PUSH1 0x2 ADD PUSH1 0x2 PUSH2 0x100 EXP DUP2 SLOAD DUP2 PUSH1 0xFF MUL NOT AND SWAP1 DUP4 ISZERO ISZERO MUL OR SWAP1 SSTORE POP PUSH1 0xA0 DUP3 ADD MLOAD DUP2 PUSH1 0x3 ADD SSTORE PUSH1 0xC0 DUP3 ADD MLOAD DUP2 PUSH1 0x4 ADD SSTORE POP POP PUSH32 0xFAFB7311FC57CA8A55073F63725E888B4250C799D77AE873970D65AC08C5917A DUP2 PUSH1 0x0 ADD MLOAD DUP3 PUSH1 0x20 ADD MLOAD DUP4 PUSH1 0xA0 ADD MLOAD PUSH1 0x40 MLOAD PUSH2 0x379 SWAP4 SWAP3 SWAP2 SWAP1 PUSH2 0x94E JUMP JUMPDEST PUSH1 0x40 MLOAD DUP1 SWAP2 SUB SWAP1 LOG1 POP POP POP POP POP POP POP JUMP JUMPDEST PUSH1 0x0 DUP2 LT ISZERO PUSH2 0x3CE JUMPI PUSH1 0x40 MLOAD PUSH32 0x8C379A000000000000000000000000000000000000000000000000000000000 DUP2 MSTORE PUSH1 0x4 ADD PUSH2 0x3C5 SWAP1 PUSH2 0x8B8 JUMP JUMPDEST PUSH1 0x40 MLOAD DUP1 SWAP2 SUB SWAP1 REVERT JUMPDEST PUSH1 0x0 PUSH1 0x1 DUP3 DUP2 SLOAD DUP2 LT PUSH2 0x3E4 JUMPI PUSH2 0x3E3 PUSH2 0xB20 JUMP JUMPDEST JUMPDEST SWAP1 PUSH1 0x0 MSTORE PUSH1 0x20 PUSH1 0x0 KECCAK256 SWAP1 PUSH1 0x5 MUL ADD SWAP1 POP PUSH1 0x0 ISZERO ISZERO DUP2 PUSH1 0x2 ADD PUSH1 0x0 SWAP1 SLOAD SWAP1 PUSH2 0x100 EXP SWAP1 DIV PUSH1 0xFF AND ISZERO ISZERO EQ ISZERO PUSH2 0x44D JUMPI PUSH32 0xD53ECB21746E36DA81DDAB5BDCF35C93B4E7ADB500E38A0CE440F729DE177AC5 DUP2 PUSH1 0x1 ADD PUSH1 0x40 MLOAD PUSH2 0x444 SWAP2 SWAP1 PUSH2 0x866 JUMP JUMPDEST PUSH1 0x40 MLOAD DUP1 SWAP2 SUB SWAP1 LOG1 JUMPDEST PUSH1 0x0 ISZERO ISZERO DUP2 PUSH1 0x2 ADD PUSH1 0x1 SWAP1 SLOAD SWAP1 PUSH2 0x100 EXP SWAP1 DIV PUSH1 0xFF AND ISZERO ISZERO EQ ISZERO PUSH2 0x4A6 JUMPI PUSH32 0xD53ECB21746E36DA81DDAB5BDCF35C93B4E7ADB500E38A0CE440F729DE177AC5 DUP2 PUSH1 0x1 ADD PUSH1 0x40 MLOAD PUSH2 0x49D SWAP2 SWAP1 PUSH2 0x866 JUMP JUMPDEST PUSH1 0x40 MLOAD DUP1 SWAP2 SUB SWAP1 LOG1 JUMPDEST PUSH1 0x0 ISZERO ISZERO DUP2 PUSH1 0x2 ADD PUSH1 0x2 SWAP1 SLOAD SWAP1 PUSH2 0x100 EXP SWAP1 DIV PUSH1 0xFF AND ISZERO ISZERO EQ ISZERO PUSH2 0x4FF JUMPI PUSH32 0xD53ECB21746E36DA81DDAB5BDCF35C93B4E7ADB500E38A0CE440F729DE177AC5 DUP2 PUSH1 0x1 ADD PUSH1 0x40 MLOAD PUSH2 0x4F6 SWAP2 SWAP1 PUSH2 0x866 JUMP JUMPDEST PUSH1 0x40 MLOAD DUP1 SWAP2 SUB SWAP1 LOG1 JUMPDEST TIMESTAMP PUSH3 0x3F480 DUP3 PUSH1 0x3 ADD SLOAD PUSH2 0x513 SWAP2 SWAP1 PUSH2 0x9BD JUMP JUMPDEST GT ISZERO PUSH2 0x554 JUMPI PUSH32 0xD53ECB21746E36DA81DDAB5BDCF35C93B4E7ADB500E38A0CE440F729DE177AC5 DUP2 PUSH1 0x1 ADD PUSH1 0x40 MLOAD PUSH2 0x54B SWAP2 SWAP1 PUSH2 0x866 JUMP JUMPDEST PUSH1 0x40 MLOAD DUP1 SWAP2 SUB SWAP1 LOG1 JUMPDEST PUSH32 0x6FD4822621C89040F0EA90264351E7F95D334EB76155286B2C1B6732331FF93C DUP2 PUSH1 0x1 ADD TIMESTAMP PUSH1 0x40 MLOAD PUSH2 0x588 SWAP3 SWAP2 SWAP1 PUSH2 0x888 JUMP JUMPDEST PUSH1 0x40 MLOAD DUP1 SWAP2 SUB SWAP1 LOG1 POP POP JUMP JUMPDEST DUP3 DUP1 SLOAD PUSH2 0x5A0 SWAP1 PUSH2 0xA90 JUMP JUMPDEST SWAP1 PUSH1 0x0 MSTORE PUSH1 0x20 PUSH1 0x0 KECCAK256 SWAP1 PUSH1 0x1F ADD PUSH1 0x20 SWAP1 DIV DUP2 ADD SWAP3 DUP3 PUSH2 0x5C2 JUMPI PUSH1 0x0 DUP6 SSTORE PUSH2 0x609 JUMP JUMPDEST DUP3 PUSH1 0x1F LT PUSH2 0x5DB JUMPI DUP1 MLOAD PUSH1 0xFF NOT AND DUP4 DUP1 ADD OR DUP6 SSTORE PUSH2 0x609 JUMP JUMPDEST DUP3 DUP1 ADD PUSH1 0x1 ADD DUP6 SSTORE DUP3 ISZERO PUSH2 0x609 JUMPI SWAP2 DUP3 ADD JUMPDEST DUP3 DUP2 GT ISZERO PUSH2 0x608 JUMPI DUP3 MLOAD DUP3 SSTORE SWAP2 PUSH1 0x20 ADD SWAP2 SWAP1 PUSH1 0x1 ADD SWAP1 PUSH2 0x5ED JUMP JUMPDEST JUMPDEST POP SWAP1 POP PUSH2 0x616 SWAP2 SWAP1 PUSH2 0x61A JUMP JUMPDEST POP SWAP1 JUMP JUMPDEST JUMPDEST DUP1 DUP3 GT ISZERO PUSH2 0x633 JUMPI PUSH1 0x0 DUP2 PUSH1 0x0 SWAP1 SSTORE POP PUSH1 0x1 ADD PUSH2 0x61B JUMP JUMPDEST POP SWAP1 JUMP JUMPDEST PUSH1 0x0 DUP2 CALLDATALOAD SWAP1 POP PUSH2 0x646 DUP2 PUSH2 0xBA2 JUMP JUMPDEST SWAP3 SWAP2 POP POP JUMP JUMPDEST PUSH1 0x0 DUP1 DUP4 PUSH1 0x1F DUP5 ADD SLT PUSH2 0x662 JUMPI PUSH2 0x661 PUSH2 0xB54 JUMP JUMPDEST JUMPDEST DUP3 CALLDATALOAD SWAP1 POP PUSH8 0xFFFFFFFFFFFFFFFF DUP2 GT ISZERO PUSH2 0x67F JUMPI PUSH2 0x67E PUSH2 0xB4F JUMP JUMPDEST JUMPDEST PUSH1 0x20 DUP4 ADD SWAP2 POP DUP4 PUSH1 0x1 DUP3 MUL DUP4 ADD GT ISZERO PUSH2 0x69B JUMPI PUSH2 0x69A PUSH2 0xB59 JUMP JUMPDEST JUMPDEST SWAP3 POP SWAP3 SWAP1 POP JUMP JUMPDEST PUSH1 0x0 DUP2 CALLDATALOAD SWAP1 POP PUSH2 0x6B1 DUP2 PUSH2 0xBB9 JUMP JUMPDEST SWAP3 SWAP2 POP POP JUMP JUMPDEST PUSH1 0x0 DUP1 PUSH1 0x0 DUP1 PUSH1 0x0 PUSH1 0x80 DUP7 DUP9 SUB SLT ISZERO PUSH2 0x6D3 JUMPI PUSH2 0x6D2 PUSH2 0xB63 JUMP JUMPDEST JUMPDEST PUSH1 0x0 DUP7 ADD CALLDATALOAD PUSH8 0xFFFFFFFFFFFFFFFF DUP2 GT ISZERO PUSH2 0x6F1 JUMPI PUSH2 0x6F0 PUSH2 0xB5E JUMP JUMPDEST JUMPDEST PUSH2 0x6FD DUP9 DUP3 DUP10 ADD PUSH2 0x64C JUMP JUMPDEST SWAP6 POP SWAP6 POP POP PUSH1 0x20 PUSH2 0x710 DUP9 DUP3 DUP10 ADD PUSH2 0x637 JUMP JUMPDEST SWAP4 POP POP PUSH1 0x40 PUSH2 0x721 DUP9 DUP3 DUP10 ADD PUSH2 0x637 JUMP JUMPDEST SWAP3 POP POP PUSH1 0x60 PUSH2 0x732 DUP9 DUP3 DUP10 ADD PUSH2 0x637 JUMP JUMPDEST SWAP2 POP POP SWAP3 SWAP6 POP SWAP3 SWAP6 SWAP1 SWAP4 POP JUMP JUMPDEST PUSH1 0x0 PUSH1 0x20 DUP3 DUP5 SUB SLT ISZERO PUSH2 0x755 JUMPI PUSH2 0x754 PUSH2 0xB63 JUMP JUMPDEST JUMPDEST PUSH1 0x0 PUSH2 0x763 DUP5 DUP3 DUP6 ADD PUSH2 0x6A2 JUMP JUMPDEST SWAP2 POP POP SWAP3 SWAP2 POP POP JUMP JUMPDEST PUSH2 0x775 DUP2 PUSH2 0xA47 JUMP JUMPDEST DUP3 MSTORE POP POP JUMP JUMPDEST PUSH1 0x0 PUSH2 0x786 DUP3 PUSH2 0x9A1 JUMP JUMPDEST PUSH2 0x790 DUP2 DUP6 PUSH2 0x9AC JUMP JUMPDEST SWAP4 POP PUSH2 0x7A0 DUP2 DUP6 PUSH1 0x20 DUP7 ADD PUSH2 0xA5D JUMP JUMPDEST PUSH2 0x7A9 DUP2 PUSH2 0xB68 JUMP JUMPDEST DUP5 ADD SWAP2 POP POP SWAP3 SWAP2 POP POP JUMP JUMPDEST PUSH1 0x0 DUP2 SLOAD PUSH2 0x7C1 DUP2 PUSH2 0xA90 JUMP JUMPDEST PUSH2 0x7CB DUP2 DUP7 PUSH2 0x9AC JUMP JUMPDEST SWAP5 POP PUSH1 0x1 DUP3 AND PUSH1 0x0 DUP2 EQ PUSH2 0x7E6 JUMPI PUSH1 0x1 DUP2 EQ PUSH2 0x7F8 JUMPI PUSH2 0x82B JUMP JUMPDEST PUSH1 0xFF NOT DUP4 AND DUP7 MSTORE PUSH1 0x20 DUP7 ADD SWAP4 POP PUSH2 0x82B JUMP JUMPDEST PUSH2 0x801 DUP6 PUSH2 0x98C JUMP JUMPDEST PUSH1 0x0 JUMPDEST DUP4 DUP2 LT ISZERO PUSH2 0x823 JUMPI DUP2 SLOAD DUP2 DUP10 ADD MSTORE PUSH1 0x1 DUP3 ADD SWAP2 POP PUSH1 0x20 DUP2 ADD SWAP1 POP PUSH2 0x804 JUMP JUMPDEST DUP1 DUP9 ADD SWAP6 POP POP POP JUMPDEST POP POP POP SWAP3 SWAP2 POP POP JUMP JUMPDEST PUSH1 0x0 PUSH2 0x841 PUSH1 0xD DUP4 PUSH2 0x9AC JUMP JUMPDEST SWAP2 POP PUSH2 0x84C DUP3 PUSH2 0xB79 JUMP JUMPDEST PUSH1 0x20 DUP3 ADD SWAP1 POP SWAP2 SWAP1 POP JUMP JUMPDEST PUSH2 0x860 DUP2 PUSH2 0xA53 JUMP JUMPDEST DUP3 MSTORE POP POP JUMP JUMPDEST PUSH1 0x0 PUSH1 0x20 DUP3 ADD SWAP1 POP DUP2 DUP2 SUB PUSH1 0x0 DUP4 ADD MSTORE PUSH2 0x880 DUP2 DUP5 PUSH2 0x7B4 JUMP JUMPDEST SWAP1 POP SWAP3 SWAP2 POP POP JUMP JUMPDEST PUSH1 0x0 PUSH1 0x40 DUP3 ADD SWAP1 POP DUP2 DUP2 SUB PUSH1 0x0 DUP4 ADD MSTORE PUSH2 0x8A2 DUP2 DUP6 PUSH2 0x7B4 JUMP JUMPDEST SWAP1 POP PUSH2 0x8B1 PUSH1 0x20 DUP4 ADD DUP5 PUSH2 0x857 JUMP JUMPDEST SWAP4 SWAP3 POP POP POP JUMP JUMPDEST PUSH1 0x0 PUSH1 0x20 DUP3 ADD SWAP1 POP DUP2 DUP2 SUB PUSH1 0x0 DUP4 ADD MSTORE PUSH2 0x8D1 DUP2 PUSH2 0x834 JUMP JUMPDEST SWAP1 POP SWAP2 SWAP1 POP JUMP JUMPDEST PUSH1 0x0 PUSH1 0xE0 DUP3 ADD SWAP1 POP PUSH2 0x8ED PUSH1 0x0 DUP4 ADD DUP11 PUSH2 0x857 JUMP JUMPDEST DUP2 DUP2 SUB PUSH1 0x20 DUP4 ADD MSTORE PUSH2 0x8FF DUP2 DUP10 PUSH2 0x77B JUMP JUMPDEST SWAP1 POP PUSH2 0x90E PUSH1 0x40 DUP4 ADD DUP9 PUSH2 0x76C JUMP JUMPDEST PUSH2 0x91B PUSH1 0x60 DUP4 ADD DUP8 PUSH2 0x76C JUMP JUMPDEST PUSH2 0x928 PUSH1 0x80 DUP4 ADD DUP7 PUSH2 0x76C JUMP JUMPDEST PUSH2 0x935 PUSH1 0xA0 DUP4 ADD DUP6 PUSH2 0x857 JUMP JUMPDEST PUSH2 0x942 PUSH1 0xC0 DUP4 ADD DUP5 PUSH2 0x857 JUMP JUMPDEST SWAP9 SWAP8 POP POP POP POP POP POP POP POP JUMP JUMPDEST PUSH1 0x0 PUSH1 0x60 DUP3 ADD SWAP1 POP PUSH2 0x963 PUSH1 0x0 DUP4 ADD DUP7 PUSH2 0x857 JUMP JUMPDEST DUP2 DUP2 SUB PUSH1 0x20 DUP4 ADD MSTORE PUSH2 0x975 DUP2 DUP6 PUSH2 0x77B JUMP JUMPDEST SWAP1 POP PUSH2 0x984 PUSH1 0x40 DUP4 ADD DUP5 PUSH2 0x857 JUMP JUMPDEST SWAP5 SWAP4 POP POP POP POP JUMP JUMPDEST PUSH1 0x0 DUP2 SWAP1 POP DUP2 PUSH1 0x0 MSTORE PUSH1 0x20 PUSH1 0x0 KECCAK256 SWAP1 POP SWAP2 SWAP1 POP JUMP JUMPDEST PUSH1 0x0 DUP2 MLOAD SWAP1 POP SWAP2 SWAP1 POP JUMP JUMPDEST PUSH1 0x0 DUP3 DUP3 MSTORE PUSH1 0x20 DUP3 ADD SWAP1 POP SWAP3 SWAP2 POP POP JUMP JUMPDEST PUSH1 0x0 PUSH2 0x9C8 DUP3 PUSH2 0xA53 JUMP JUMPDEST SWAP2 POP PUSH2 0x9D3 DUP4 PUSH2 0xA53 JUMP JUMPDEST SWAP3 POP DUP3 PUSH32 0xFFFFFFFFFFFFFFFFFFFFFFFFFFFFFFFFFFFFFFFFFFFFFFFFFFFFFFFFFFFFFFFF SUB DUP3 GT ISZERO PUSH2 0xA08 JUMPI PUSH2 0xA07 PUSH2 0xAC2 JUMP JUMPDEST JUMPDEST DUP3 DUP3 ADD SWAP1 POP SWAP3 SWAP2 POP POP JUMP JUMPDEST PUSH1 0x0 PUSH2 0xA1E DUP3 PUSH2 0xA53 JUMP JUMPDEST SWAP2 POP PUSH2 0xA29 DUP4 PUSH2 0xA53 JUMP JUMPDEST SWAP3 POP DUP3 DUP3 LT ISZERO PUSH2 0xA3C JUMPI PUSH2 0xA3B PUSH2 0xAC2 JUMP JUMPDEST JUMPDEST DUP3 DUP3 SUB SWAP1 POP SWAP3 SWAP2 POP POP JUMP JUMPDEST PUSH1 0x0 DUP2 ISZERO ISZERO SWAP1 POP SWAP2 SWAP1 POP JUMP JUMPDEST PUSH1 0x0 DUP2 SWAP1 POP SWAP2 SWAP1 POP JUMP JUMPDEST PUSH1 0x0 JUMPDEST DUP4 DUP2 LT ISZERO PUSH2 0xA7B JUMPI DUP1 DUP3 ADD MLOAD DUP2 DUP5 ADD MSTORE PUSH1 0x20 DUP2 ADD SWAP1 POP PUSH2 0xA60 JUMP JUMPDEST DUP4 DUP2 GT ISZERO PUSH2 0xA8A JUMPI PUSH1 0x0 DUP5 DUP5 ADD MSTORE JUMPDEST POP POP POP POP JUMP JUMPDEST PUSH1 0x0 PUSH1 0x2 DUP3 DIV SWAP1 POP PUSH1 0x1 DUP3 AND DUP1 PUSH2 0xAA8 JUMPI PUSH1 0x7F DUP3 AND SWAP2 POP JUMPDEST PUSH1 0x20 DUP3 LT DUP2 EQ ISZERO PUSH2 0xABC JUMPI PUSH2 0xABB PUSH2 0xAF1 JUMP JUMPDEST JUMPDEST POP SWAP2 SWAP1 POP JUMP JUMPDEST PUSH32 0x4E487B7100000000000000000000000000000000000000000000000000000000 PUSH1 0x0 MSTORE PUSH1 0x11 PUSH1 0x4 MSTORE PUSH1 0x24 PUSH1 0x0 REVERT JUMPDEST PUSH32 0x4E487B7100000000000000000000000000000000000000000000000000000000 PUSH1 0x0 MSTORE PUSH1 0x22 PUSH1 0x4 MSTORE PUSH1 0x24 PUSH1 0x0 REVERT JUMPDEST PUSH32 0x4E487B7100000000000000000000000000000000000000000000000000000000 PUSH1 0x0 MSTORE PUSH1 0x32 PUSH1 0x4 MSTORE PUSH1 0x24 PUSH1 0x0 REVERT JUMPDEST PUSH1 0x0 DUP1 REVERT JUMPDEST PUSH1 0x0 DUP1 REVERT JUMPDEST PUSH1 0x0 DUP1 REVERT JUMPDEST PUSH1 0x0 DUP1 REVERT JUMPDEST PUSH1 0x0 DUP1 REVERT JUMPDEST PUSH1 0x0 PUSH1 0x1F NOT PUSH1 0x1F DUP4 ADD AND SWAP1 POP SWAP2 SWAP1 POP JUMP JUMPDEST PUSH32 0x496E636F72726563742069642E00000000000000000000000000000000000000 PUSH1 0x0 DUP3 ADD MSTORE POP JUMP JUMPDEST PUSH2 0xBAB DUP2 PUSH2 0xA47 JUMP JUMPDEST DUP2 EQ PUSH2 0xBB6 JUMPI PUSH1 0x0 DUP1 REVERT JUMPDEST POP JUMP JUMPDEST PUSH2 0xBC2 DUP2 PUSH2 0xA53 JUMP JUMPDEST DUP2 EQ PUSH2 0xBCD JUMPI PUSH1 0x0 DUP1 REVERT JUMPDEST POP JUMP INVALID LOG2 PUSH5 0x6970667358 0x22 SLT KECCAK256 PUSH15 0xD217701650CF5B8768A9351182C2D5 0xE DUP5 0xEC 0x5F 0xE4 0xE4 PUSH20 0x7D490211ACA08103DA64736F6C63430008070033 "
				},
				"gasEstimates": {
					"creation": {
						"codeDepositCost": "615600",
						"executionCost": "24917",
						"totalCost": "640517"
					},
					"external": {
						"addStudent(string,bool,bool,bool)": "infinite",
						"debtsAreDone(uint256)": "infinite",
						"students(uint256)": "infinite"
					}
				},
				"methodIdentifiers": {
					"addStudent(string,bool,bool,bool)": "344d2d4a",
					"debtsAreDone(uint256)": "3d5c83d4",
					"students(uint256)": "06ead22e"
				}
			},
			"storageLayout": {
				"storage": [
					{
						"astId": 6,
						"contract": "contracts/Hometask.sol:DormitoryQuest",
						"label": "owner",
						"offset": 0,
						"slot": "0",
						"type": "t_address"
					},
					{
						"astId": 25,
						"contract": "contracts/Hometask.sol:DormitoryQuest",
						"label": "students",
						"offset": 0,
						"slot": "1",
						"type": "t_array(t_struct(Student)21_storage)dyn_storage"
					}
				],
				"types": {
					"t_address": {
						"encoding": "inplace",
						"label": "address",
						"numberOfBytes": "20"
					},
					"t_array(t_struct(Student)21_storage)dyn_storage": {
						"base": "t_struct(Student)21_storage",
						"encoding": "dynamic_array",
						"label": "struct DormitoryQuest.Student[]",
						"numberOfBytes": "32"
					},
					"t_bool": {
						"encoding": "inplace",
						"label": "bool",
						"numberOfBytes": "1"
					},
					"t_string_storage": {
						"encoding": "bytes",
						"label": "string",
						"numberOfBytes": "32"
					},
					"t_struct(Student)21_storage": {
						"encoding": "inplace",
						"label": "struct DormitoryQuest.Student",
						"members": [
							{
								"astId": 8,
								"contract": "contracts/Hometask.sol:DormitoryQuest",
								"label": "id",
								"offset": 0,
								"slot": "0",
								"type": "t_uint256"
							},
							{
								"astId": 10,
								"contract": "contracts/Hometask.sol:DormitoryQuest",
								"label": "fullName",
								"offset": 0,
								"slot": "1",
								"type": "t_string_storage"
							},
							{
								"astId": 12,
								"contract": "contracts/Hometask.sol:DormitoryQuest",
								"label": "sheetsDone",
								"offset": 0,
								"slot": "2",
								"type": "t_bool"
							},
							{
								"astId": 14,
								"contract": "contracts/Hometask.sol:DormitoryQuest",
								"label": "roomDone",
								"offset": 1,
								"slot": "2",
								"type": "t_bool"
							},
							{
								"astId": 16,
								"contract": "contracts/Hometask.sol:DormitoryQuest",
								"label": "booksDone",
								"offset": 2,
								"slot": "2",
								"type": "t_bool"
							},
							{
								"astId": 18,
								"contract": "contracts/Hometask.sol:DormitoryQuest",
								"label": "regDate",
								"offset": 0,
								"slot": "3",
								"type": "t_uint256"
							},
							{
								"astId": 20,
								"contract": "contracts/Hometask.sol:DormitoryQuest",
								"label": "deadlineDate",
								"offset": 0,
								"slot": "4",
								"type": "t_uint256"
							}
						],
						"numberOfBytes": "160"
					},
					"t_uint256": {
						"encoding": "inplace",
						"label": "uint256",
						"numberOfBytes": "32"
					}
				}
			},
			"userdoc": {
				"kind": "user",
				"methods": {},
				"version": 1
			}
		}
	}
}