{
	"contracts/Hometask.sol": {
		"DormitoryQuest": {
			"abi": [
				{
					"anonymous": false,
					"inputs": [],
					"name": "SummonsToArmyGiven",
					"type": "event"
				},
				{
					"inputs": [
						{
							"internalType": "address",
							"name": "_address",
							"type": "address"
						},
						{
							"internalType": "bool",
							"name": "_sheetsDone",
							"type": "bool"
						},
						{
							"internalType": "bool",
							"name": "_roomDone",
							"type": "bool"
						},
						{
							"internalType": "bool",
							"name": "_booksDone",
							"type": "bool"
						}
					],
					"name": "addStudent",
					"outputs": [],
					"stateMutability": "nonpayable",
					"type": "function"
				},
				{
					"inputs": [
						{
							"internalType": "uint256",
							"name": "",
							"type": "uint256"
						}
					],
					"name": "students",
					"outputs": [
						{
							"internalType": "address",
							"name": "studentAddress",
							"type": "address"
						},
						{
							"internalType": "bool",
							"name": "sheetsDone",
							"type": "bool"
						},
						{
							"internalType": "bool",
							"name": "roomDone",
							"type": "bool"
						},
						{
							"internalType": "bool",
							"name": "booksDone",
							"type": "bool"
						},
						{
							"internalType": "uint256",
							"name": "regDate",
							"type": "uint256"
						}
					],
					"stateMutability": "view",
					"type": "function"
				}
			],
			"devdoc": {
				"kind": "dev",
				"methods": {},
				"version": 1
			},
			"evm": {
				"assembly": "    /* \"contracts/Hometask.sol\":62:511  contract DormitoryQuest {\r... */\n  mstore(0x40, 0x80)\n  callvalue\n  dup1\n  iszero\n  tag_1\n  jumpi\n  0x00\n  dup1\n  revert\ntag_1:\n  pop\n  dataSize(sub_0)\n  dup1\n  dataOffset(sub_0)\n  0x00\n  codecopy\n  0x00\n  return\nstop\n\nsub_0: assembly {\n        /* \"contracts/Hometask.sol\":62:511  contract DormitoryQuest {\r... */\n      mstore(0x40, 0x80)\n      callvalue\n      dup1\n      iszero\n      tag_1\n      jumpi\n      0x00\n      dup1\n      revert\n    tag_1:\n      pop\n      jumpi(tag_2, lt(calldatasize, 0x04))\n      shr(0xe0, calldataload(0x00))\n      dup1\n      0x06ead22e\n      eq\n      tag_3\n      jumpi\n      dup1\n      0x43c92a27\n      eq\n      tag_4\n      jumpi\n    tag_2:\n      0x00\n      dup1\n      revert\n        /* \"contracts/Hometask.sol\":255:280  Student[] public students */\n    tag_3:\n      tag_5\n      0x04\n      dup1\n      calldatasize\n      sub\n      dup2\n      add\n      swap1\n      tag_6\n      swap2\n      swap1\n      tag_7\n      jump\t// in\n    tag_6:\n      tag_8\n      jump\t// in\n    tag_5:\n      mload(0x40)\n      tag_9\n      swap6\n      swap5\n      swap4\n      swap3\n      swap2\n      swap1\n      tag_10\n      jump\t// in\n    tag_9:\n      mload(0x40)\n      dup1\n      swap2\n      sub\n      swap1\n      return\n        /* \"contracts/Hometask.sol\":328:434  function addStudent(address _address, bool _sheetsDone, bool _roomDone, bool _booksDone) public {\r... */\n    tag_4:\n      tag_11\n      0x04\n      dup1\n      calldatasize\n      sub\n      dup2\n      add\n      swap1\n      tag_12\n      swap2\n      swap1\n      tag_13\n      jump\t// in\n    tag_12:\n      tag_14\n      jump\t// in\n    tag_11:\n      stop\n        /* \"contracts/Hometask.sol\":255:280  Student[] public students */\n    tag_8:\n      0x00\n      dup2\n      dup2\n      sload\n      dup2\n      lt\n      tag_15\n      jumpi\n      0x00\n      dup1\n      revert\n    tag_15:\n      swap1\n      0x00\n      mstore\n      keccak256(0x00, 0x20)\n      swap1\n      0x02\n      mul\n      add\n      0x00\n      swap2\n      pop\n      swap1\n      pop\n      dup1\n      0x00\n      add\n      0x00\n      swap1\n      sload\n      swap1\n      0x0100\n      exp\n      swap1\n      div\n      0xffffffffffffffffffffffffffffffffffffffff\n      and\n      swap1\n      dup1\n      0x00\n      add\n      0x14\n      swap1\n      sload\n      swap1\n      0x0100\n      exp\n      swap1\n      div\n      0xff\n      and\n      swap1\n      dup1\n      0x00\n      add\n      0x15\n      swap1\n      sload\n      swap1\n      0x0100\n      exp\n      swap1\n      div\n      0xff\n      and\n      swap1\n      dup1\n      0x00\n      add\n      0x16\n      swap1\n      sload\n      swap1\n      0x0100\n      exp\n      swap1\n      div\n      0xff\n      and\n      swap1\n      dup1\n      0x01\n      add\n      sload\n      swap1\n      pop\n      dup6\n      jump\t// out\n        /* \"contracts/Hometask.sol\":328:434  function addStudent(address _address, bool _sheetsDone, bool _roomDone, bool _booksDone) public {\r... */\n    tag_14:\n      pop\n      pop\n      pop\n      pop\n      jump\t// out\n        /* \"#utility.yul\":7:146   */\n    tag_19:\n        /* \"#utility.yul\":53:58   */\n      0x00\n        /* \"#utility.yul\":91:97   */\n      dup2\n        /* \"#utility.yul\":78:98   */\n      calldataload\n        /* \"#utility.yul\":69:98   */\n      swap1\n      pop\n        /* \"#utility.yul\":107:140   */\n      tag_21\n        /* \"#utility.yul\":134:139   */\n      dup2\n        /* \"#utility.yul\":107:140   */\n      tag_22\n      jump\t// in\n    tag_21:\n        /* \"#utility.yul\":7:146   */\n      swap3\n      swap2\n      pop\n      pop\n      jump\t// out\n        /* \"#utility.yul\":152:285   */\n    tag_23:\n        /* \"#utility.yul\":195:200   */\n      0x00\n        /* \"#utility.yul\":233:239   */\n      dup2\n        /* \"#utility.yul\":220:240   */\n      calldataload\n        /* \"#utility.yul\":211:240   */\n      swap1\n      pop\n        /* \"#utility.yul\":249:279   */\n      tag_25\n        /* \"#utility.yul\":273:278   */\n      dup2\n        /* \"#utility.yul\":249:279   */\n      tag_26\n      jump\t// in\n    tag_25:\n        /* \"#utility.yul\":152:285   */\n      swap3\n      swap2\n      pop\n      pop\n      jump\t// out\n        /* \"#utility.yul\":291:430   */\n    tag_27:\n        /* \"#utility.yul\":337:342   */\n      0x00\n        /* \"#utility.yul\":375:381   */\n      dup2\n        /* \"#utility.yul\":362:382   */\n      calldataload\n        /* \"#utility.yul\":353:382   */\n      swap1\n      pop\n        /* \"#utility.yul\":391:424   */\n      tag_29\n        /* \"#utility.yul\":418:423   */\n      dup2\n        /* \"#utility.yul\":391:424   */\n      tag_30\n      jump\t// in\n    tag_29:\n        /* \"#utility.yul\":291:430   */\n      swap3\n      swap2\n      pop\n      pop\n      jump\t// out\n        /* \"#utility.yul\":436:1183   */\n    tag_13:\n        /* \"#utility.yul\":513:519   */\n      0x00\n        /* \"#utility.yul\":521:527   */\n      dup1\n        /* \"#utility.yul\":529:535   */\n      0x00\n        /* \"#utility.yul\":537:543   */\n      dup1\n        /* \"#utility.yul\":586:589   */\n      0x80\n        /* \"#utility.yul\":574:583   */\n      dup6\n        /* \"#utility.yul\":565:572   */\n      dup8\n        /* \"#utility.yul\":561:584   */\n      sub\n        /* \"#utility.yul\":557:590   */\n      slt\n        /* \"#utility.yul\":554:674   */\n      iszero\n      tag_32\n      jumpi\n        /* \"#utility.yul\":593:672   */\n      tag_33\n      tag_34\n      jump\t// in\n    tag_33:\n        /* \"#utility.yul\":554:674   */\n    tag_32:\n        /* \"#utility.yul\":713:714   */\n      0x00\n        /* \"#utility.yul\":738:791   */\n      tag_35\n        /* \"#utility.yul\":783:790   */\n      dup8\n        /* \"#utility.yul\":774:780   */\n      dup3\n        /* \"#utility.yul\":763:772   */\n      dup9\n        /* \"#utility.yul\":759:781   */\n      add\n        /* \"#utility.yul\":738:791   */\n      tag_19\n      jump\t// in\n    tag_35:\n        /* \"#utility.yul\":728:791   */\n      swap5\n      pop\n        /* \"#utility.yul\":684:801   */\n      pop\n        /* \"#utility.yul\":840:842   */\n      0x20\n        /* \"#utility.yul\":866:916   */\n      tag_36\n        /* \"#utility.yul\":908:915   */\n      dup8\n        /* \"#utility.yul\":899:905   */\n      dup3\n        /* \"#utility.yul\":888:897   */\n      dup9\n        /* \"#utility.yul\":884:906   */\n      add\n        /* \"#utility.yul\":866:916   */\n      tag_23\n      jump\t// in\n    tag_36:\n        /* \"#utility.yul\":856:916   */\n      swap4\n      pop\n        /* \"#utility.yul\":811:926   */\n      pop\n        /* \"#utility.yul\":965:967   */\n      0x40\n        /* \"#utility.yul\":991:1041   */\n      tag_37\n        /* \"#utility.yul\":1033:1040   */\n      dup8\n        /* \"#utility.yul\":1024:1030   */\n      dup3\n        /* \"#utility.yul\":1013:1022   */\n      dup9\n        /* \"#utility.yul\":1009:1031   */\n      add\n        /* \"#utility.yul\":991:1041   */\n      tag_23\n      jump\t// in\n    tag_37:\n        /* \"#utility.yul\":981:1041   */\n      swap3\n      pop\n        /* \"#utility.yul\":936:1051   */\n      pop\n        /* \"#utility.yul\":1090:1092   */\n      0x60\n        /* \"#utility.yul\":1116:1166   */\n      tag_38\n        /* \"#utility.yul\":1158:1165   */\n      dup8\n        /* \"#utility.yul\":1149:1155   */\n      dup3\n        /* \"#utility.yul\":1138:1147   */\n      dup9\n        /* \"#utility.yul\":1134:1156   */\n      add\n        /* \"#utility.yul\":1116:1166   */\n      tag_23\n      jump\t// in\n    tag_38:\n        /* \"#utility.yul\":1106:1166   */\n      swap2\n      pop\n        /* \"#utility.yul\":1061:1176   */\n      pop\n        /* \"#utility.yul\":436:1183   */\n      swap3\n      swap6\n      swap2\n      swap5\n      pop\n      swap3\n      pop\n      jump\t// out\n        /* \"#utility.yul\":1189:1518   */\n    tag_7:\n        /* \"#utility.yul\":1248:1254   */\n      0x00\n        /* \"#utility.yul\":1297:1299   */\n      0x20\n        /* \"#utility.yul\":1285:1294   */\n      dup3\n        /* \"#utility.yul\":1276:1283   */\n      dup5\n        /* \"#utility.yul\":1272:1295   */\n      sub\n        /* \"#utility.yul\":1268:1300   */\n      slt\n        /* \"#utility.yul\":1265:1384   */\n      iszero\n      tag_40\n      jumpi\n        /* \"#utility.yul\":1303:1382   */\n      tag_41\n      tag_34\n      jump\t// in\n    tag_41:\n        /* \"#utility.yul\":1265:1384   */\n    tag_40:\n        /* \"#utility.yul\":1423:1424   */\n      0x00\n        /* \"#utility.yul\":1448:1501   */\n      tag_42\n        /* \"#utility.yul\":1493:1500   */\n      dup5\n        /* \"#utility.yul\":1484:1490   */\n      dup3\n        /* \"#utility.yul\":1473:1482   */\n      dup6\n        /* \"#utility.yul\":1469:1491   */\n      add\n        /* \"#utility.yul\":1448:1501   */\n      tag_27\n      jump\t// in\n    tag_42:\n        /* \"#utility.yul\":1438:1501   */\n      swap2\n      pop\n        /* \"#utility.yul\":1394:1511   */\n      pop\n        /* \"#utility.yul\":1189:1518   */\n      swap3\n      swap2\n      pop\n      pop\n      jump\t// out\n        /* \"#utility.yul\":1524:1642   */\n    tag_43:\n        /* \"#utility.yul\":1611:1635   */\n      tag_45\n        /* \"#utility.yul\":1629:1634   */\n      dup2\n        /* \"#utility.yul\":1611:1635   */\n      tag_46\n      jump\t// in\n    tag_45:\n        /* \"#utility.yul\":1606:1609   */\n      dup3\n        /* \"#utility.yul\":1599:1636   */\n      mstore\n        /* \"#utility.yul\":1524:1642   */\n      pop\n      pop\n      jump\t// out\n        /* \"#utility.yul\":1648:1757   */\n    tag_47:\n        /* \"#utility.yul\":1729:1750   */\n      tag_49\n        /* \"#utility.yul\":1744:1749   */\n      dup2\n        /* \"#utility.yul\":1729:1750   */\n      tag_50\n      jump\t// in\n    tag_49:\n        /* \"#utility.yul\":1724:1727   */\n      dup3\n        /* \"#utility.yul\":1717:1751   */\n      mstore\n        /* \"#utility.yul\":1648:1757   */\n      pop\n      pop\n      jump\t// out\n        /* \"#utility.yul\":1763:1881   */\n    tag_51:\n        /* \"#utility.yul\":1850:1874   */\n      tag_53\n        /* \"#utility.yul\":1868:1873   */\n      dup2\n        /* \"#utility.yul\":1850:1874   */\n      tag_54\n      jump\t// in\n    tag_53:\n        /* \"#utility.yul\":1845:1848   */\n      dup3\n        /* \"#utility.yul\":1838:1875   */\n      mstore\n        /* \"#utility.yul\":1763:1881   */\n      pop\n      pop\n      jump\t// out\n        /* \"#utility.yul\":1887:2515   */\n    tag_10:\n        /* \"#utility.yul\":2074:2078   */\n      0x00\n        /* \"#utility.yul\":2112:2115   */\n      0xa0\n        /* \"#utility.yul\":2101:2110   */\n      dup3\n        /* \"#utility.yul\":2097:2116   */\n      add\n        /* \"#utility.yul\":2089:2116   */\n      swap1\n      pop\n        /* \"#utility.yul\":2126:2197   */\n      tag_56\n        /* \"#utility.yul\":2194:2195   */\n      0x00\n        /* \"#utility.yul\":2183:2192   */\n      dup4\n        /* \"#utility.yul\":2179:2196   */\n      add\n        /* \"#utility.yul\":2170:2176   */\n      dup9\n        /* \"#utility.yul\":2126:2197   */\n      tag_43\n      jump\t// in\n    tag_56:\n        /* \"#utility.yul\":2207:2273   */\n      tag_57\n        /* \"#utility.yul\":2269:2271   */\n      0x20\n        /* \"#utility.yul\":2258:2267   */\n      dup4\n        /* \"#utility.yul\":2254:2272   */\n      add\n        /* \"#utility.yul\":2245:2251   */\n      dup8\n        /* \"#utility.yul\":2207:2273   */\n      tag_47\n      jump\t// in\n    tag_57:\n        /* \"#utility.yul\":2283:2349   */\n      tag_58\n        /* \"#utility.yul\":2345:2347   */\n      0x40\n        /* \"#utility.yul\":2334:2343   */\n      dup4\n        /* \"#utility.yul\":2330:2348   */\n      add\n        /* \"#utility.yul\":2321:2327   */\n      dup7\n        /* \"#utility.yul\":2283:2349   */\n      tag_47\n      jump\t// in\n    tag_58:\n        /* \"#utility.yul\":2359:2425   */\n      tag_59\n        /* \"#utility.yul\":2421:2423   */\n      0x60\n        /* \"#utility.yul\":2410:2419   */\n      dup4\n        /* \"#utility.yul\":2406:2424   */\n      add\n        /* \"#utility.yul\":2397:2403   */\n      dup6\n        /* \"#utility.yul\":2359:2425   */\n      tag_47\n      jump\t// in\n    tag_59:\n        /* \"#utility.yul\":2435:2508   */\n      tag_60\n        /* \"#utility.yul\":2503:2506   */\n      0x80\n        /* \"#utility.yul\":2492:2501   */\n      dup4\n        /* \"#utility.yul\":2488:2507   */\n      add\n        /* \"#utility.yul\":2479:2485   */\n      dup5\n        /* \"#utility.yul\":2435:2508   */\n      tag_51\n      jump\t// in\n    tag_60:\n        /* \"#utility.yul\":1887:2515   */\n      swap7\n      swap6\n      pop\n      pop\n      pop\n      pop\n      pop\n      pop\n      jump\t// out\n        /* \"#utility.yul\":2602:2698   */\n    tag_46:\n        /* \"#utility.yul\":2639:2646   */\n      0x00\n        /* \"#utility.yul\":2668:2692   */\n      tag_64\n        /* \"#utility.yul\":2686:2691   */\n      dup3\n        /* \"#utility.yul\":2668:2692   */\n      tag_65\n      jump\t// in\n    tag_64:\n        /* \"#utility.yul\":2657:2692   */\n      swap1\n      pop\n        /* \"#utility.yul\":2602:2698   */\n      swap2\n      swap1\n      pop\n      jump\t// out\n        /* \"#utility.yul\":2704:2794   */\n    tag_50:\n        /* \"#utility.yul\":2738:2745   */\n      0x00\n        /* \"#utility.yul\":2781:2786   */\n      dup2\n        /* \"#utility.yul\":2774:2787   */\n      iszero\n        /* \"#utility.yul\":2767:2788   */\n      iszero\n        /* \"#utility.yul\":2756:2788   */\n      swap1\n      pop\n        /* \"#utility.yul\":2704:2794   */\n      swap2\n      swap1\n      pop\n      jump\t// out\n        /* \"#utility.yul\":2800:2926   */\n    tag_65:\n        /* \"#utility.yul\":2837:2844   */\n      0x00\n        /* \"#utility.yul\":2877:2919   */\n      0xffffffffffffffffffffffffffffffffffffffff\n        /* \"#utility.yul\":2870:2875   */\n      dup3\n        /* \"#utility.yul\":2866:2920   */\n      and\n        /* \"#utility.yul\":2855:2920   */\n      swap1\n      pop\n        /* \"#utility.yul\":2800:2926   */\n      swap2\n      swap1\n      pop\n      jump\t// out\n        /* \"#utility.yul\":2932:3009   */\n    tag_54:\n        /* \"#utility.yul\":2969:2976   */\n      0x00\n        /* \"#utility.yul\":2998:3003   */\n      dup2\n        /* \"#utility.yul\":2987:3003   */\n      swap1\n      pop\n        /* \"#utility.yul\":2932:3009   */\n      swap2\n      swap1\n      pop\n      jump\t// out\n        /* \"#utility.yul\":3138:3255   */\n    tag_34:\n        /* \"#utility.yul\":3247:3248   */\n      0x00\n        /* \"#utility.yul\":3244:3245   */\n      dup1\n        /* \"#utility.yul\":3237:3249   */\n      revert\n        /* \"#utility.yul\":3261:3383   */\n    tag_22:\n        /* \"#utility.yul\":3334:3358   */\n      tag_73\n        /* \"#utility.yul\":3352:3357   */\n      dup2\n        /* \"#utility.yul\":3334:3358   */\n      tag_46\n      jump\t// in\n    tag_73:\n        /* \"#utility.yul\":3327:3332   */\n      dup2\n        /* \"#utility.yul\":3324:3359   */\n      eq\n        /* \"#utility.yul\":3314:3377   */\n      tag_74\n      jumpi\n        /* \"#utility.yul\":3373:3374   */\n      0x00\n        /* \"#utility.yul\":3370:3371   */\n      dup1\n        /* \"#utility.yul\":3363:3375   */\n      revert\n        /* \"#utility.yul\":3314:3377   */\n    tag_74:\n        /* \"#utility.yul\":3261:3383   */\n      pop\n      jump\t// out\n        /* \"#utility.yul\":3389:3505   */\n    tag_26:\n        /* \"#utility.yul\":3459:3480   */\n      tag_76\n        /* \"#utility.yul\":3474:3479   */\n      dup2\n        /* \"#utility.yul\":3459:3480   */\n      tag_50\n      jump\t// in\n    tag_76:\n        /* \"#utility.yul\":3452:3457   */\n      dup2\n        /* \"#utility.yul\":3449:3481   */\n      eq\n        /* \"#utility.yul\":3439:3499   */\n      tag_77\n      jumpi\n        /* \"#utility.yul\":3495:3496   */\n      0x00\n        /* \"#utility.yul\":3492:3493   */\n      dup1\n        /* \"#utility.yul\":3485:3497   */\n      revert\n        /* \"#utility.yul\":3439:3499   */\n    tag_77:\n        /* \"#utility.yul\":3389:3505   */\n      pop\n      jump\t// out\n        /* \"#utility.yul\":3511:3633   */\n    tag_30:\n        /* \"#utility.yul\":3584:3608   */\n      tag_79\n        /* \"#utility.yul\":3602:3607   */\n      dup2\n        /* \"#utility.yul\":3584:3608   */\n      tag_54\n      jump\t// in\n    tag_79:\n        /* \"#utility.yul\":3577:3582   */\n      dup2\n        /* \"#utility.yul\":3574:3609   */\n      eq\n        /* \"#utility.yul\":3564:3627   */\n      tag_80\n      jumpi\n        /* \"#utility.yul\":3623:3624   */\n      0x00\n        /* \"#utility.yul\":3620:3621   */\n      dup1\n        /* \"#utility.yul\":3613:3625   */\n      revert\n        /* \"#utility.yul\":3564:3627   */\n    tag_80:\n        /* \"#utility.yul\":3511:3633   */\n      pop\n      jump\t// out\n\n    auxdata: 0xa2646970667358221220cc7026ce87fd9120f1abbf8871f1198a19668180062fe7fdd8f35049864073d664736f6c63430008070033\n}\n",
				"bytecode": {
					"linkReferences": {},
					"object": "608060405234801561001057600080fd5b50610339806100206000396000f3fe608060405234801561001057600080fd5b50600436106100365760003560e01c806306ead22e1461003b57806343c92a271461006f575b600080fd5b610055600480360381019061005091906101c4565b61008b565b60405161006695949392919061021e565b60405180910390f35b6100896004803603810190610084919061015d565b610118565b005b6000818154811061009b57600080fd5b90600052602060002090600202016000915090508060000160009054906101000a900473ffffffffffffffffffffffffffffffffffffffff16908060000160149054906101000a900460ff16908060000160159054906101000a900460ff16908060000160169054906101000a900460ff16908060010154905085565b50505050565b60008135905061012d816102be565b92915050565b600081359050610142816102d5565b92915050565b600081359050610157816102ec565b92915050565b60008060008060808587031215610177576101766102b9565b5b60006101858782880161011e565b945050602061019687828801610133565b93505060406101a787828801610133565b92505060606101b887828801610133565b91505092959194509250565b6000602082840312156101da576101d96102b9565b5b60006101e884828501610148565b91505092915050565b6101fa81610271565b82525050565b61020981610283565b82525050565b610218816102af565b82525050565b600060a08201905061023360008301886101f1565b6102406020830187610200565b61024d6040830186610200565b61025a6060830185610200565b610267608083018461020f565b9695505050505050565b600061027c8261028f565b9050919050565b60008115159050919050565b600073ffffffffffffffffffffffffffffffffffffffff82169050919050565b6000819050919050565b600080fd5b6102c781610271565b81146102d257600080fd5b50565b6102de81610283565b81146102e957600080fd5b50565b6102f5816102af565b811461030057600080fd5b5056fea2646970667358221220cc7026ce87fd9120f1abbf8871f1198a19668180062fe7fdd8f35049864073d664736f6c63430008070033",
					"opcodes": "PUSH1 0x80 PUSH1 0x40 MSTORE CALLVALUE DUP1 ISZERO PUSH2 0x10 JUMPI PUSH1 0x0 DUP1 REVERT JUMPDEST POP PUSH2 0x339 DUP1 PUSH2 0x20 PUSH1 0x0 CODECOPY PUSH1 0x0 RETURN INVALID PUSH1 0x80 PUSH1 0x40 MSTORE CALLVALUE DUP1 ISZERO PUSH2 0x10 JUMPI PUSH1 0x0 DUP1 REVERT JUMPDEST POP PUSH1 0x4 CALLDATASIZE LT PUSH2 0x36 JUMPI PUSH1 0x0 CALLDATALOAD PUSH1 0xE0 SHR DUP1 PUSH4 0x6EAD22E EQ PUSH2 0x3B JUMPI DUP1 PUSH4 0x43C92A27 EQ PUSH2 0x6F JUMPI JUMPDEST PUSH1 0x0 DUP1 REVERT JUMPDEST PUSH2 0x55 PUSH1 0x4 DUP1 CALLDATASIZE SUB DUP2 ADD SWAP1 PUSH2 0x50 SWAP2 SWAP1 PUSH2 0x1C4 JUMP JUMPDEST PUSH2 0x8B JUMP JUMPDEST PUSH1 0x40 MLOAD PUSH2 0x66 SWAP6 SWAP5 SWAP4 SWAP3 SWAP2 SWAP1 PUSH2 0x21E JUMP JUMPDEST PUSH1 0x40 MLOAD DUP1 SWAP2 SUB SWAP1 RETURN JUMPDEST PUSH2 0x89 PUSH1 0x4 DUP1 CALLDATASIZE SUB DUP2 ADD SWAP1 PUSH2 0x84 SWAP2 SWAP1 PUSH2 0x15D JUMP JUMPDEST PUSH2 0x118 JUMP JUMPDEST STOP JUMPDEST PUSH1 0x0 DUP2 DUP2 SLOAD DUP2 LT PUSH2 0x9B JUMPI PUSH1 0x0 DUP1 REVERT JUMPDEST SWAP1 PUSH1 0x0 MSTORE PUSH1 0x20 PUSH1 0x0 KECCAK256 SWAP1 PUSH1 0x2 MUL ADD PUSH1 0x0 SWAP2 POP SWAP1 POP DUP1 PUSH1 0x0 ADD PUSH1 0x0 SWAP1 SLOAD SWAP1 PUSH2 0x100 EXP SWAP1 DIV PUSH20 0xFFFFFFFFFFFFFFFFFFFFFFFFFFFFFFFFFFFFFFFF AND SWAP1 DUP1 PUSH1 0x0 ADD PUSH1 0x14 SWAP1 SLOAD SWAP1 PUSH2 0x100 EXP SWAP1 DIV PUSH1 0xFF AND SWAP1 DUP1 PUSH1 0x0 ADD PUSH1 0x15 SWAP1 SLOAD SWAP1 PUSH2 0x100 EXP SWAP1 DIV PUSH1 0xFF AND SWAP1 DUP1 PUSH1 0x0 ADD PUSH1 0x16 SWAP1 SLOAD SWAP1 PUSH2 0x100 EXP SWAP1 DIV PUSH1 0xFF AND SWAP1 DUP1 PUSH1 0x1 ADD SLOAD SWAP1 POP DUP6 JUMP JUMPDEST POP POP POP POP JUMP JUMPDEST PUSH1 0x0 DUP2 CALLDATALOAD SWAP1 POP PUSH2 0x12D DUP2 PUSH2 0x2BE JUMP JUMPDEST SWAP3 SWAP2 POP POP JUMP JUMPDEST PUSH1 0x0 DUP2 CALLDATALOAD SWAP1 POP PUSH2 0x142 DUP2 PUSH2 0x2D5 JUMP JUMPDEST SWAP3 SWAP2 POP POP JUMP JUMPDEST PUSH1 0x0 DUP2 CALLDATALOAD SWAP1 POP PUSH2 0x157 DUP2 PUSH2 0x2EC JUMP JUMPDEST SWAP3 SWAP2 POP POP JUMP JUMPDEST PUSH1 0x0 DUP1 PUSH1 0x0 DUP1 PUSH1 0x80 DUP6 DUP8 SUB SLT ISZERO PUSH2 0x177 JUMPI PUSH2 0x176 PUSH2 0x2B9 JUMP JUMPDEST JUMPDEST PUSH1 0x0 PUSH2 0x185 DUP8 DUP3 DUP9 ADD PUSH2 0x11E JUMP JUMPDEST SWAP5 POP POP PUSH1 0x20 PUSH2 0x196 DUP8 DUP3 DUP9 ADD PUSH2 0x133 JUMP JUMPDEST SWAP4 POP POP PUSH1 0x40 PUSH2 0x1A7 DUP8 DUP3 DUP9 ADD PUSH2 0x133 JUMP JUMPDEST SWAP3 POP POP PUSH1 0x60 PUSH2 0x1B8 DUP8 DUP3 DUP9 ADD PUSH2 0x133 JUMP JUMPDEST SWAP2 POP POP SWAP3 SWAP6 SWAP2 SWAP5 POP SWAP3 POP JUMP JUMPDEST PUSH1 0x0 PUSH1 0x20 DUP3 DUP5 SUB SLT ISZERO PUSH2 0x1DA JUMPI PUSH2 0x1D9 PUSH2 0x2B9 JUMP JUMPDEST JUMPDEST PUSH1 0x0 PUSH2 0x1E8 DUP5 DUP3 DUP6 ADD PUSH2 0x148 JUMP JUMPDEST SWAP2 POP POP SWAP3 SWAP2 POP POP JUMP JUMPDEST PUSH2 0x1FA DUP2 PUSH2 0x271 JUMP JUMPDEST DUP3 MSTORE POP POP JUMP JUMPDEST PUSH2 0x209 DUP2 PUSH2 0x283 JUMP JUMPDEST DUP3 MSTORE POP POP JUMP JUMPDEST PUSH2 0x218 DUP2 PUSH2 0x2AF JUMP JUMPDEST DUP3 MSTORE POP POP JUMP JUMPDEST PUSH1 0x0 PUSH1 0xA0 DUP3 ADD SWAP1 POP PUSH2 0x233 PUSH1 0x0 DUP4 ADD DUP9 PUSH2 0x1F1 JUMP JUMPDEST PUSH2 0x240 PUSH1 0x20 DUP4 ADD DUP8 PUSH2 0x200 JUMP JUMPDEST PUSH2 0x24D PUSH1 0x40 DUP4 ADD DUP7 PUSH2 0x200 JUMP JUMPDEST PUSH2 0x25A PUSH1 0x60 DUP4 ADD DUP6 PUSH2 0x200 JUMP JUMPDEST PUSH2 0x267 PUSH1 0x80 DUP4 ADD DUP5 PUSH2 0x20F JUMP JUMPDEST SWAP7 SWAP6 POP POP POP POP POP POP JUMP JUMPDEST PUSH1 0x0 PUSH2 0x27C DUP3 PUSH2 0x28F JUMP JUMPDEST SWAP1 POP SWAP2 SWAP1 POP JUMP JUMPDEST PUSH1 0x0 DUP2 ISZERO ISZERO SWAP1 POP SWAP2 SWAP1 POP JUMP JUMPDEST PUSH1 0x0 PUSH20 0xFFFFFFFFFFFFFFFFFFFFFFFFFFFFFFFFFFFFFFFF DUP3 AND SWAP1 POP SWAP2 SWAP1 POP JUMP JUMPDEST PUSH1 0x0 DUP2 SWAP1 POP SWAP2 SWAP1 POP JUMP JUMPDEST PUSH1 0x0 DUP1 REVERT JUMPDEST PUSH2 0x2C7 DUP2 PUSH2 0x271 JUMP JUMPDEST DUP2 EQ PUSH2 0x2D2 JUMPI PUSH1 0x0 DUP1 REVERT JUMPDEST POP JUMP JUMPDEST PUSH2 0x2DE DUP2 PUSH2 0x283 JUMP JUMPDEST DUP2 EQ PUSH2 0x2E9 JUMPI PUSH1 0x0 DUP1 REVERT JUMPDEST POP JUMP JUMPDEST PUSH2 0x2F5 DUP2 PUSH2 0x2AF JUMP JUMPDEST DUP2 EQ PUSH2 0x300 JUMPI PUSH1 0x0 DUP1 REVERT JUMPDEST POP JUMP INVALID LOG2 PUSH5 0x6970667358 0x22 SLT KECCAK256 0xCC PUSH17 0x26CE87FD9120F1ABBF8871F1198A196681 DUP1 MOD 0x2F 0xE7 REVERT 0xD8 RETURN POP 0x49 DUP7 BLOCKHASH PUSH20 0xD664736F6C634300080700330000000000000000 "
				},
				"gasEstimates": {
					"creation": {
						"codeDepositCost": "165000",
						"executionCost": "208",
						"totalCost": "165208"
					},
					"external": {
						"addStudent(address,bool,bool,bool)": "infinite",
						"students(uint256)": "infinite"
					},
					"internal": {
						"debtsAreDone(struct DormitoryQuest.Student storage pointer)": "infinite"
					}
				},
				"methodIdentifiers": {
					"addStudent(address,bool,bool,bool)": "43c92a27",
					"students(uint256)": "06ead22e"
				}
			},
			"storageLayout": {
				"storage": [
					{
						"astId": 16,
						"contract": "contracts/Hometask.sol:DormitoryQuest",
						"label": "students",
						"offset": 0,
						"slot": "0",
						"type": "t_array(t_struct(Student)12_storage)dyn_storage"
					}
				],
				"types": {
					"t_address": {
						"encoding": "inplace",
						"label": "address",
						"numberOfBytes": "20"
					},
					"t_array(t_struct(Student)12_storage)dyn_storage": {
						"base": "t_struct(Student)12_storage",
						"encoding": "dynamic_array",
						"label": "struct DormitoryQuest.Student[]",
						"numberOfBytes": "32"
					},
					"t_bool": {
						"encoding": "inplace",
						"label": "bool",
						"numberOfBytes": "1"
					},
					"t_struct(Student)12_storage": {
						"encoding": "inplace",
						"label": "struct DormitoryQuest.Student",
						"members": [
							{
								"astId": 3,
								"contract": "contracts/Hometask.sol:DormitoryQuest",
								"label": "studentAddress",
								"offset": 0,
								"slot": "0",
								"type": "t_address"
							},
							{
								"astId": 5,
								"contract": "contracts/Hometask.sol:DormitoryQuest",
								"label": "sheetsDone",
								"offset": 20,
								"slot": "0",
								"type": "t_bool"
							},
							{
								"astId": 7,
								"contract": "contracts/Hometask.sol:DormitoryQuest",
								"label": "roomDone",
								"offset": 21,
								"slot": "0",
								"type": "t_bool"
							},
							{
								"astId": 9,
								"contract": "contracts/Hometask.sol:DormitoryQuest",
								"label": "booksDone",
								"offset": 22,
								"slot": "0",
								"type": "t_bool"
							},
							{
								"astId": 11,
								"contract": "contracts/Hometask.sol:DormitoryQuest",
								"label": "regDate",
								"offset": 0,
								"slot": "1",
								"type": "t_uint256"
							}
						],
						"numberOfBytes": "64"
					},
					"t_uint256": {
						"encoding": "inplace",
						"label": "uint256",
						"numberOfBytes": "32"
					}
				}
			},
			"userdoc": {
				"kind": "user",
				"methods": {},
				"version": 1
			}
		}
	}
}